{
  "_format": "hh-sol-artifact-1",
  "contractName": "AxelarGasService",
  "sourceName": "@axelar-network/axelar-cgp-solidity/contracts/gas-service/AxelarGasService.sol",
  "abi": [
    {
      "inputs": [],
      "name": "InvalidAddress",
      "type": "error"
    },
    {
      "inputs": [],
      "name": "InvalidCodeHash",
      "type": "error"
    },
    {
      "inputs": [],
      "name": "InvalidImplementation",
      "type": "error"
    },
    {
      "inputs": [],
      "name": "InvalidOwner",
      "type": "error"
    },
    {
      "inputs": [],
      "name": "NotOwner",
      "type": "error"
    },
    {
      "inputs": [],
      "name": "NotProxy",
      "type": "error"
    },
    {
      "inputs": [],
      "name": "NothingReceived",
      "type": "error"
    },
    {
      "inputs": [],
      "name": "SetupFailed",
      "type": "error"
    },
    {
      "inputs": [],
      "name": "TransferFailed",
      "type": "error"
    },
    {
      "anonymous": false,
      "inputs": [
        {
          "indexed": true,
          "internalType": "bytes32",
          "name": "txHash",
          "type": "bytes32"
        },
        {
          "indexed": true,
          "internalType": "uint256",
          "name": "logIndex",
          "type": "uint256"
        },
        {
          "indexed": false,
          "internalType": "address",
          "name": "gasToken",
          "type": "address"
        },
        {
          "indexed": false,
          "internalType": "uint256",
          "name": "gasFeeAmount",
          "type": "uint256"
        },
        {
          "indexed": false,
          "internalType": "address",
          "name": "refundAddress",
          "type": "address"
        }
      ],
      "name": "GasAdded",
      "type": "event"
    },
    {
      "anonymous": false,
      "inputs": [
        {
          "indexed": true,
          "internalType": "address",
          "name": "sourceAddress",
          "type": "address"
        },
        {
          "indexed": false,
          "internalType": "string",
          "name": "destinationChain",
          "type": "string"
        },
        {
          "indexed": false,
          "internalType": "string",
          "name": "destinationAddress",
          "type": "string"
        },
        {
          "indexed": true,
          "internalType": "bytes32",
          "name": "payloadHash",
          "type": "bytes32"
        },
        {
          "indexed": false,
          "internalType": "address",
          "name": "gasToken",
          "type": "address"
        },
        {
          "indexed": false,
          "internalType": "uint256",
          "name": "gasFeeAmount",
          "type": "uint256"
        },
        {
          "indexed": false,
          "internalType": "address",
          "name": "refundAddress",
          "type": "address"
        }
      ],
      "name": "GasPaidForContractCall",
      "type": "event"
    },
    {
      "anonymous": false,
      "inputs": [
        {
          "indexed": true,
          "internalType": "address",
          "name": "sourceAddress",
          "type": "address"
        },
        {
          "indexed": false,
          "internalType": "string",
          "name": "destinationChain",
          "type": "string"
        },
        {
          "indexed": false,
          "internalType": "string",
          "name": "destinationAddress",
          "type": "string"
        },
        {
          "indexed": true,
          "internalType": "bytes32",
          "name": "payloadHash",
          "type": "bytes32"
        },
        {
          "indexed": false,
          "internalType": "string",
          "name": "symbol",
          "type": "string"
        },
        {
          "indexed": false,
          "internalType": "uint256",
          "name": "amount",
          "type": "uint256"
        },
        {
          "indexed": false,
          "internalType": "address",
          "name": "gasToken",
          "type": "address"
        },
        {
          "indexed": false,
          "internalType": "uint256",
          "name": "gasFeeAmount",
          "type": "uint256"
        },
        {
          "indexed": false,
          "internalType": "address",
          "name": "refundAddress",
          "type": "address"
        }
      ],
      "name": "GasPaidForContractCallWithToken",
      "type": "event"
    },
    {
      "anonymous": false,
      "inputs": [
        {
          "indexed": true,
          "internalType": "bytes32",
          "name": "txHash",
          "type": "bytes32"
        },
        {
          "indexed": true,
          "internalType": "uint256",
          "name": "logIndex",
          "type": "uint256"
        },
        {
          "indexed": false,
          "internalType": "uint256",
          "name": "gasFeeAmount",
          "type": "uint256"
        },
        {
          "indexed": false,
          "internalType": "address",
          "name": "refundAddress",
          "type": "address"
        }
      ],
      "name": "NativeGasAdded",
      "type": "event"
    },
    {
      "anonymous": false,
      "inputs": [
        {
          "indexed": true,
          "internalType": "address",
          "name": "sourceAddress",
          "type": "address"
        },
        {
          "indexed": false,
          "internalType": "string",
          "name": "destinationChain",
          "type": "string"
        },
        {
          "indexed": false,
          "internalType": "string",
          "name": "destinationAddress",
          "type": "string"
        },
        {
          "indexed": true,
          "internalType": "bytes32",
          "name": "payloadHash",
          "type": "bytes32"
        },
        {
          "indexed": false,
          "internalType": "uint256",
          "name": "gasFeeAmount",
          "type": "uint256"
        },
        {
          "indexed": false,
          "internalType": "address",
          "name": "refundAddress",
          "type": "address"
        }
      ],
      "name": "NativeGasPaidForContractCall",
      "type": "event"
    },
    {
      "anonymous": false,
      "inputs": [
        {
          "indexed": true,
          "internalType": "address",
          "name": "sourceAddress",
          "type": "address"
        },
        {
          "indexed": false,
          "internalType": "string",
          "name": "destinationChain",
          "type": "string"
        },
        {
          "indexed": false,
          "internalType": "string",
          "name": "destinationAddress",
          "type": "string"
        },
        {
          "indexed": true,
          "internalType": "bytes32",
          "name": "payloadHash",
          "type": "bytes32"
        },
        {
          "indexed": false,
          "internalType": "string",
          "name": "symbol",
          "type": "string"
        },
        {
          "indexed": false,
          "internalType": "uint256",
          "name": "amount",
          "type": "uint256"
        },
        {
          "indexed": false,
          "internalType": "uint256",
          "name": "gasFeeAmount",
          "type": "uint256"
        },
        {
          "indexed": false,
          "internalType": "address",
          "name": "refundAddress",
          "type": "address"
        }
      ],
      "name": "NativeGasPaidForContractCallWithToken",
      "type": "event"
    },
    {
      "anonymous": false,
      "inputs": [
        {
          "indexed": true,
          "internalType": "address",
          "name": "newOwner",
          "type": "address"
        }
      ],
      "name": "OwnershipTransferred",
      "type": "event"
    },
    {
      "anonymous": false,
      "inputs": [
        {
          "indexed": true,
          "internalType": "address",
          "name": "newImplementation",
          "type": "address"
        }
      ],
      "name": "Upgraded",
      "type": "event"
    },
    {
      "inputs": [
        {
          "internalType": "bytes32",
          "name": "txHash",
          "type": "bytes32"
        },
        {
          "internalType": "uint256",
          "name": "logIndex",
          "type": "uint256"
        },
        {
          "internalType": "address",
          "name": "gasToken",
          "type": "address"
        },
        {
          "internalType": "uint256",
          "name": "gasFeeAmount",
          "type": "uint256"
        },
        {
          "internalType": "address",
          "name": "refundAddress",
          "type": "address"
        }
      ],
      "name": "addGas",
      "outputs": [],
      "stateMutability": "nonpayable",
      "type": "function"
    },
    {
      "inputs": [
        {
          "internalType": "bytes32",
          "name": "txHash",
          "type": "bytes32"
        },
        {
          "internalType": "uint256",
          "name": "logIndex",
          "type": "uint256"
        },
        {
          "internalType": "address",
          "name": "refundAddress",
          "type": "address"
        }
      ],
      "name": "addNativeGas",
      "outputs": [],
      "stateMutability": "payable",
      "type": "function"
    },
    {
      "inputs": [
        {
          "internalType": "address payable",
          "name": "receiver",
          "type": "address"
        },
        {
          "internalType": "address[]",
          "name": "tokens",
          "type": "address[]"
        }
      ],
      "name": "collectFees",
      "outputs": [],
      "stateMutability": "nonpayable",
      "type": "function"
    },
    {
      "inputs": [],
      "name": "contractId",
      "outputs": [
        {
          "internalType": "bytes32",
          "name": "",
          "type": "bytes32"
        }
      ],
      "stateMutability": "pure",
      "type": "function"
    },
    {
      "inputs": [],
      "name": "implementation",
      "outputs": [
        {
          "internalType": "address",
          "name": "implementation_",
          "type": "address"
        }
      ],
      "stateMutability": "view",
      "type": "function"
    },
    {
      "inputs": [],
      "name": "owner",
      "outputs": [
        {
          "internalType": "address",
          "name": "owner_",
          "type": "address"
        }
      ],
      "stateMutability": "view",
      "type": "function"
    },
    {
      "inputs": [
        {
          "internalType": "address",
          "name": "sender",
          "type": "address"
        },
        {
          "internalType": "string",
          "name": "destinationChain",
          "type": "string"
        },
        {
          "internalType": "string",
          "name": "destinationAddress",
          "type": "string"
        },
        {
          "internalType": "bytes",
          "name": "payload",
          "type": "bytes"
        },
        {
          "internalType": "address",
          "name": "gasToken",
          "type": "address"
        },
        {
          "internalType": "uint256",
          "name": "gasFeeAmount",
          "type": "uint256"
        },
        {
          "internalType": "address",
          "name": "refundAddress",
          "type": "address"
        }
      ],
      "name": "payGasForContractCall",
      "outputs": [],
      "stateMutability": "nonpayable",
      "type": "function"
    },
    {
      "inputs": [
        {
          "internalType": "address",
          "name": "sender",
          "type": "address"
        },
        {
          "internalType": "string",
          "name": "destinationChain",
          "type": "string"
        },
        {
          "internalType": "string",
          "name": "destinationAddress",
          "type": "string"
        },
        {
          "internalType": "bytes",
          "name": "payload",
          "type": "bytes"
        },
        {
          "internalType": "string",
          "name": "symbol",
          "type": "string"
        },
        {
          "internalType": "uint256",
          "name": "amount",
          "type": "uint256"
        },
        {
          "internalType": "address",
          "name": "gasToken",
          "type": "address"
        },
        {
          "internalType": "uint256",
          "name": "gasFeeAmount",
          "type": "uint256"
        },
        {
          "internalType": "address",
          "name": "refundAddress",
          "type": "address"
        }
      ],
      "name": "payGasForContractCallWithToken",
      "outputs": [],
      "stateMutability": "nonpayable",
      "type": "function"
    },
    {
      "inputs": [
        {
          "internalType": "address",
          "name": "sender",
          "type": "address"
        },
        {
          "internalType": "string",
          "name": "destinationChain",
          "type": "string"
        },
        {
          "internalType": "string",
          "name": "destinationAddress",
          "type": "string"
        },
        {
          "internalType": "bytes",
          "name": "payload",
          "type": "bytes"
        },
        {
          "internalType": "address",
          "name": "refundAddress",
          "type": "address"
        }
      ],
      "name": "payNativeGasForContractCall",
      "outputs": [],
      "stateMutability": "payable",
      "type": "function"
    },
    {
      "inputs": [
        {
          "internalType": "address",
          "name": "sender",
          "type": "address"
        },
        {
          "internalType": "string",
          "name": "destinationChain",
          "type": "string"
        },
        {
          "internalType": "string",
          "name": "destinationAddress",
          "type": "string"
        },
        {
          "internalType": "bytes",
          "name": "payload",
          "type": "bytes"
        },
        {
          "internalType": "string",
          "name": "symbol",
          "type": "string"
        },
        {
          "internalType": "uint256",
          "name": "amount",
          "type": "uint256"
        },
        {
          "internalType": "address",
          "name": "refundAddress",
          "type": "address"
        }
      ],
      "name": "payNativeGasForContractCallWithToken",
      "outputs": [],
      "stateMutability": "payable",
      "type": "function"
    },
    {
      "inputs": [
        {
          "internalType": "address payable",
          "name": "receiver",
          "type": "address"
        },
        {
          "internalType": "address",
          "name": "token",
          "type": "address"
        },
        {
          "internalType": "uint256",
          "name": "amount",
          "type": "uint256"
        }
      ],
      "name": "refund",
      "outputs": [],
      "stateMutability": "nonpayable",
      "type": "function"
    },
    {
      "inputs": [
        {
          "internalType": "bytes",
          "name": "data",
          "type": "bytes"
        }
      ],
      "name": "setup",
      "outputs": [],
      "stateMutability": "nonpayable",
      "type": "function"
    },
    {
      "inputs": [
        {
          "internalType": "address",
          "name": "newOwner",
          "type": "address"
        }
      ],
      "name": "transferOwnership",
      "outputs": [],
      "stateMutability": "nonpayable",
      "type": "function"
    },
    {
      "inputs": [
        {
          "internalType": "address",
          "name": "newImplementation",
          "type": "address"
        },
        {
          "internalType": "bytes32",
          "name": "newImplementationCodeHash",
          "type": "bytes32"
        },
        {
          "internalType": "bytes",
          "name": "params",
          "type": "bytes"
        }
      ],
      "name": "upgrade",
      "outputs": [],
      "stateMutability": "nonpayable",
      "type": "function"
    }
  ],
  "bytecode": "0x608060405234801561001057600080fd5b50611874806100206000396000f3fe6080604052600436106100dd5760003560e01c8063ab1999ba1161007f578063da854d7511610059578063da854d7514610259578063edb6b3a514610279578063f2fde38b14610299578063fd09e3bd146102b957600080fd5b8063ab1999ba14610213578063c62c200214610233578063cd433ada1461024657600080fd5b806382ad6f35116100bb57806382ad6f351461017f5780638da5cb5b1461019f5780639ded06df146101d3578063a3499c73146101f357600080fd5b80630c93e3bb146100e25780635c60da1b146100f75780638291286c14610144575b600080fd5b6100f56100f0366004610f33565b6102d9565b005b34801561010357600080fd5b507f360894a13ba1a3210667c828492db98dca3e2076cc3735a920a3ca505d382bbc545b6040516001600160a01b0390911681526020015b60405180910390f35b34801561015057600080fd5b506040517ffaa2f015f2ce5aee225904728de2def86eb8837491efd21f1a04fc20d8e923f6815260200161013b565b34801561018b57600080fd5b506100f561019a366004610ff3565b610364565b3480156101ab57600080fd5b507f02016836a56b71f0d02689e69e326f4f4c1b9057164ef592671cf0d37c8040c054610127565b3480156101df57600080fd5b506100f56101ee366004611034565b610435565b3480156101ff57600080fd5b506100f561020e366004611076565b6104a4565b34801561021f57600080fd5b506100f561022e3660046110d2565b6107c0565b6100f5610241366004611128565b610820565b6100f561025436600461121b565b6108b4565b34801561026557600080fd5b506100f5610274366004611254565b61091c565b34801561028557600080fd5b506100f561029436600461137f565b610ad7565b3480156102a557600080fd5b506100f56102b436600461149d565b610b59565b3480156102c557600080fd5b506100f56102d43660046114c1565b610c41565b346102f75760405163b5c74a2760e01b815260040160405180910390fd5b8282604051610307929190611599565b6040518091039020886001600160a01b03167f617332c1832058df6ee45fcbdf471251474c9945a8e5d229287a21a5f67ccf0a898989893488604051610352969594939291906115d2565b60405180910390a35050505050505050565b3361038d7f02016836a56b71f0d02689e69e326f4f4c1b9057164ef592671cf0d37c8040c05490565b6001600160a01b0316146103b4576040516330cd747160e01b815260040160405180910390fd5b6001600160a01b0383166103db5760405163e6c4247b60e01b815260040160405180910390fd5b6001600160a01b038216610425576040516001600160a01b0384169082156108fc029083906000818181858888f1935050505015801561041f573d6000803e3d6000fd5b50505050565b610430828483610cbd565b505050565b600061045f7f360894a13ba1a3210667c828492db98dca3e2076cc3735a920a3ca505d382bbc5490565b6001600160a01b031614156104a0576040517fbf10dd3a00000000000000000000000000000000000000000000000000000000815260040160405180910390fd5b5050565b336104cd7f02016836a56b71f0d02689e69e326f4f4c1b9057164ef592671cf0d37c8040c05490565b6001600160a01b0316146104f4576040516330cd747160e01b815260040160405180910390fd5b306001600160a01b0316638291286c6040518163ffffffff1660e01b815260040160206040518083038186803b15801561052d57600080fd5b505afa158015610541573d6000803e3d6000fd5b505050506040513d601f19601f82011682018060405250810190610565919061161c565b846001600160a01b0316638291286c6040518163ffffffff1660e01b815260040160206040518083038186803b15801561059e57600080fd5b505afa1580156105b2573d6000803e3d6000fd5b505050506040513d601f19601f820116820180604052508101906105d6919061161c565b1461060d576040517f68155f9a00000000000000000000000000000000000000000000000000000000815260040160405180910390fd5b836001600160a01b03163f8314610650576040517f8f84fb2400000000000000000000000000000000000000000000000000000000815260040160405180910390fd5b8015610765576000846001600160a01b0316639ded06df60e01b848460405160240161067d929190611635565b60408051601f198184030181529181526020820180517bffffffffffffffffffffffffffffffffffffffffffffffffffffffff167fffffffff000000000000000000000000000000000000000000000000000000009094169390931790925290516106e8919061167d565b600060405180830381855af49150503d8060008114610723576040519150601f19603f3d011682016040523d82523d6000602084013e610728565b606091505b5050905080610763576040517f97905dfb00000000000000000000000000000000000000000000000000000000815260040160405180910390fd5b505b6040516001600160a01b038516907fbc7cd75a20ee27fd9adebab32041f755214dbc6bffa90cc0225b39da2e5c2d3b90600090a25050507f360894a13ba1a3210667c828492db98dca3e2076cc3735a920a3ca505d382bbc55565b6107cb833384610e52565b604080516001600160a01b038581168252602082018590528316818301529051859187917f2275e75614080f9782f72563c2c1688c901c5339c7f9f436d323f9386fed700a9181900360600190a35050505050565b3461083e5760405163b5c74a2760e01b815260040160405180910390fd5b858560405161084e929190611599565b60405180910390208b6001600160a01b03167f999d431b58761213cf53af96262b67a069cbd963499fd8effd1e21556217b8418c8c8c8c8a8a8a348b60405161089f99989796959493929190611699565b60405180910390a35050505050505050505050565b346108d25760405163b5c74a2760e01b815260040160405180910390fd5b604080513481526001600160a01b0383166020820152839185917ffeb6b00343feee0f29a1a4345f8bf93ca1c73ee922248a4237a4e50d6447604e910160405180910390a3505050565b336109457f02016836a56b71f0d02689e69e326f4f4c1b9057164ef592671cf0d37c8040c05490565b6001600160a01b03161461096c576040516330cd747160e01b815260040160405180910390fd5b6001600160a01b0383166109935760405163e6c4247b60e01b815260040160405180910390fd5b60005b8181101561041f5760008383838181106109b2576109b2611700565b90506020020160208101906109c7919061149d565b90506001600160a01b038116610a1c57478015610a16576040516001600160a01b0387169082156108fc029083906000818181858888f19350505050158015610a14573d6000803e3d6000fd5b505b50610ac4565b6040517f70a082310000000000000000000000000000000000000000000000000000000081523060048201526000906001600160a01b038316906370a082319060240160206040518083038186803b158015610a7757600080fd5b505afa158015610a8b573d6000803e3d6000fd5b505050506040513d601f19601f82011682018060405250810190610aaf919061161c565b90508015610ac257610ac2828783610cbd565b505b5080610acf81611716565b915050610996565b610ae2833384610e52565b8686604051610af2929190611599565b60405180910390208c6001600160a01b03167f8875f9764f28fa82d3e7ff1b80bd5c8f665e1f42fcd8c2faebc7c400a4ba1bbd8d8d8d8d8b8b8b8b8b604051610b439998979695949392919061173f565b60405180910390a3505050505050505050505050565b33610b827f02016836a56b71f0d02689e69e326f4f4c1b9057164ef592671cf0d37c8040c05490565b6001600160a01b031614610ba9576040516330cd747160e01b815260040160405180910390fd5b6001600160a01b038116610be9576040517f49e27cff00000000000000000000000000000000000000000000000000000000815260040160405180910390fd5b6040516001600160a01b038216907f04dba622d284ed0014ee4b9a6a68386be1a4c08a4913ae272de89199cc68616390600090a27f02016836a56b71f0d02689e69e326f4f4c1b9057164ef592671cf0d37c8040c055565b610c4c833384610e52565b8484604051610c5c929190611599565b60405180910390208a6001600160a01b03167f99206760f0be19dd093729bd35e5924daff5e217bcedc5223ed067b60008cf8a8b8b8b8b898989604051610ca997969594939291906117c8565b60405180910390a350505050505050505050565b80610cdb5760405163b5c74a2760e01b815260040160405180910390fd5b6040516001600160a01b0383811660248301526044820183905260009182918616907fa9059cbb00000000000000000000000000000000000000000000000000000000906064015b60408051601f198184030181529181526020820180517bffffffffffffffffffffffffffffffffffffffffffffffffffffffff167fffffffff00000000000000000000000000000000000000000000000000000000909416939093179092529051610d8e919061167d565b6000604051808303816000865af19150503d8060008114610dcb576040519150601f19603f3d011682016040523d82523d6000602084013e610dd0565b606091505b50915091506000828015610dfc575081511580610dfc575081806020019051810190610dfc919061181c565b9050801580610e1357506001600160a01b0386163b155b15610e4a576040517f90b8ec1800000000000000000000000000000000000000000000000000000000815260040160405180910390fd5b505050505050565b80610e705760405163b5c74a2760e01b815260040160405180910390fd5b6040516001600160a01b0383811660248301523060448301526064820183905260009182918616907f23b872dd0000000000000000000000000000000000000000000000000000000090608401610d23565b6001600160a01b0381168114610ed757600080fd5b50565b8035610ee581610ec2565b919050565b60008083601f840112610efc57600080fd5b50813567ffffffffffffffff811115610f1457600080fd5b602083019150836020828501011115610f2c57600080fd5b9250929050565b60008060008060008060008060a0898b031215610f4f57600080fd5b8835610f5a81610ec2565b9750602089013567ffffffffffffffff80821115610f7757600080fd5b610f838c838d01610eea565b909950975060408b0135915080821115610f9c57600080fd5b610fa88c838d01610eea565b909750955060608b0135915080821115610fc157600080fd5b50610fce8b828c01610eea565b9094509250506080890135610fe281610ec2565b809150509295985092959890939650565b60008060006060848603121561100857600080fd5b833561101381610ec2565b9250602084013561102381610ec2565b929592945050506040919091013590565b6000806020838503121561104757600080fd5b823567ffffffffffffffff81111561105e57600080fd5b61106a85828601610eea565b90969095509350505050565b6000806000806060858703121561108c57600080fd5b843561109781610ec2565b935060208501359250604085013567ffffffffffffffff8111156110ba57600080fd5b6110c687828801610eea565b95989497509550505050565b600080600080600060a086880312156110ea57600080fd5b8535945060208601359350604086013561110381610ec2565b925060608601359150608086013561111a81610ec2565b809150509295509295909350565b600080600080600080600080600080600060e08c8e03121561114957600080fd5b6111528c610eda565b9a5067ffffffffffffffff8060208e0135111561116e57600080fd5b61117e8e60208f01358f01610eea565b909b50995060408d013581101561119457600080fd5b6111a48e60408f01358f01610eea565b909950975060608d01358110156111ba57600080fd5b6111ca8e60608f01358f01610eea565b909750955060808d01358110156111e057600080fd5b506111f18d60808e01358e01610eea565b909450925060a08c0135915061120960c08d01610eda565b90509295989b509295989b9093969950565b60008060006060848603121561123057600080fd5b8335925060208401359150604084013561124981610ec2565b809150509250925092565b60008060006040848603121561126957600080fd5b833561127481610ec2565b9250602084013567ffffffffffffffff8082111561129157600080fd5b818601915086601f8301126112a557600080fd5b8135818111156112b457600080fd5b8760208260051b85010111156112c957600080fd5b6020830194508093505050509250925092565b634e487b7160e01b600052604160045260246000fd5b600082601f83011261130357600080fd5b813567ffffffffffffffff8082111561131e5761131e6112dc565b604051601f8301601f19908116603f01168101908282118183101715611346576113466112dc565b8160405283815286602085880101111561135f57600080fd5b836020870160208301376000602085830101528094505050505092915050565b6000806000806000806000806000806000806101208d8f0312156113a257600080fd5b6113ab8d610eda565b9b5067ffffffffffffffff60208e013511156113c657600080fd5b6113d68e60208f01358f01610eea565b909b50995067ffffffffffffffff60408e013511156113f457600080fd5b6114048e60408f01358f01610eea565b909950975067ffffffffffffffff60608e0135111561142257600080fd5b6114328e60608f01358f01610eea565b909750955067ffffffffffffffff60808e0135111561145057600080fd5b6114608e60808f01358f016112f2565b945060a08d0135935061147560c08e01610eda565b925060e08d0135915061148b6101008e01610eda565b90509295989b509295989b509295989b565b6000602082840312156114af57600080fd5b81356114ba81610ec2565b9392505050565b60008060008060008060008060008060e08b8d0312156114e057600080fd5b8a356114eb81610ec2565b995060208b013567ffffffffffffffff8082111561150857600080fd5b6115148e838f01610eea565b909b50995060408d013591508082111561152d57600080fd5b6115398e838f01610eea565b909950975060608d013591508082111561155257600080fd5b5061155f8d828e01610eea565b90965094505060808b013561157381610ec2565b925060a08b0135915061158860c08c01610eda565b90509295989b9194979a5092959850565b8183823760009101908152919050565b81835281816020850137506000828201602090810191909152601f909101601f19169091010190565b6080815260006115e660808301888a6115a9565b82810360208401526115f98187896115a9565b9150508360408301526001600160a01b0383166060830152979650505050505050565b60006020828403121561162e57600080fd5b5051919050565b6020815260006116496020830184866115a9565b949350505050565b60005b8381101561166c578181015183820152602001611654565b8381111561041f5750506000910152565b6000825161168f818460208701611651565b9190910192915050565b60c0815260006116ad60c083018b8d6115a9565b82810360208401526116c0818a8c6115a9565b905082810360408401526116d581888a6115a9565b6060840196909652505060808101929092526001600160a01b031660a0909101529695505050505050565b634e487b7160e01b600052603260045260246000fd5b600060001982141561173857634e487b7160e01b600052601160045260246000fd5b5060010190565b60e08152600061175360e083018b8d6115a9565b8281036020840152611766818a8c6115a9565b905082810360408401528751808252611786816020840160208c01611651565b60608401979097526001600160a01b03958616608084015260a083019490945250921660c0909201919091526020601f909201601f1916010195945050505050565b60a0815260006117dc60a08301898b6115a9565b82810360208401526117ef81888a6115a9565b6001600160a01b039687166040850152606084019590955250509216608090920191909152949350505050565b60006020828403121561182e57600080fd5b815180151581146114ba57600080fdfea2646970667358221220ac57334720401ac9274c7c8abe4ce41af814847d9b2d6fdeb3d1832e5719fb8464736f6c63430008090033",
  "linkReferences": {},
  "deployedLinkReferences": {}
}