{
  "_format": "hh-sol-artifact-1",
  "contractName": "MintableCappedERC20",
  "sourceName": "@axelar-network/axelar-cgp-solidity/contracts/MintableCappedERC20.sol",
  "abi": [
    {
      "inputs": [
        {
          "internalType": "string",
          "name": "name",
          "type": "string"
        },
        {
          "internalType": "string",
          "name": "symbol",
          "type": "string"
        },
        {
          "internalType": "uint8",
          "name": "decimals",
          "type": "uint8"
        },
        {
          "internalType": "uint256",
          "name": "capacity",
          "type": "uint256"
        }
      ],
      "stateMutability": "nonpayable",
      "type": "constructor"
    },
    {
      "inputs": [],
      "name": "CapExceeded",
      "type": "error"
    },
    {
      "inputs": [],
      "name": "InvalidAccount",
      "type": "error"
    },
    {
      "inputs": [],
      "name": "InvalidOwner",
      "type": "error"
    },
    {
      "inputs": [],
      "name": "InvalidS",
      "type": "error"
    },
    {
      "inputs": [],
      "name": "InvalidSignature",
      "type": "error"
    },
    {
      "inputs": [],
      "name": "InvalidV",
      "type": "error"
    },
    {
      "inputs": [],
      "name": "NotOwner",
      "type": "error"
    },
    {
      "inputs": [],
      "name": "PermitExpired",
      "type": "error"
    },
    {
      "anonymous": false,
      "inputs": [
        {
          "indexed": true,
          "internalType": "address",
          "name": "owner",
          "type": "address"
        },
        {
          "indexed": true,
          "internalType": "address",
          "name": "spender",
          "type": "address"
        },
        {
          "indexed": false,
          "internalType": "uint256",
          "name": "value",
          "type": "uint256"
        }
      ],
      "name": "Approval",
      "type": "event"
    },
    {
      "anonymous": false,
      "inputs": [
        {
          "indexed": true,
          "internalType": "address",
          "name": "previousOwner",
          "type": "address"
        },
        {
          "indexed": true,
          "internalType": "address",
          "name": "newOwner",
          "type": "address"
        }
      ],
      "name": "OwnershipTransferred",
      "type": "event"
    },
    {
      "anonymous": false,
      "inputs": [
        {
          "indexed": true,
          "internalType": "address",
          "name": "from",
          "type": "address"
        },
        {
          "indexed": true,
          "internalType": "address",
          "name": "to",
          "type": "address"
        },
        {
          "indexed": false,
          "internalType": "uint256",
          "name": "value",
          "type": "uint256"
        }
      ],
      "name": "Transfer",
      "type": "event"
    },
    {
      "inputs": [],
      "name": "DOMAIN_SEPARATOR",
      "outputs": [
        {
          "internalType": "bytes32",
          "name": "",
          "type": "bytes32"
        }
      ],
      "stateMutability": "view",
      "type": "function"
    },
    {
      "inputs": [
        {
          "internalType": "address",
          "name": "",
          "type": "address"
        },
        {
          "internalType": "address",
          "name": "",
          "type": "address"
        }
      ],
      "name": "allowance",
      "outputs": [
        {
          "internalType": "uint256",
          "name": "",
          "type": "uint256"
        }
      ],
      "stateMutability": "view",
      "type": "function"
    },
    {
      "inputs": [
        {
          "internalType": "address",
          "name": "spender",
          "type": "address"
        },
        {
          "internalType": "uint256",
          "name": "amount",
          "type": "uint256"
        }
      ],
      "name": "approve",
      "outputs": [
        {
          "internalType": "bool",
          "name": "",
          "type": "bool"
        }
      ],
      "stateMutability": "nonpayable",
      "type": "function"
    },
    {
      "inputs": [
        {
          "internalType": "address",
          "name": "",
          "type": "address"
        }
      ],
      "name": "balanceOf",
      "outputs": [
        {
          "internalType": "uint256",
          "name": "",
          "type": "uint256"
        }
      ],
      "stateMutability": "view",
      "type": "function"
    },
    {
      "inputs": [],
      "name": "cap",
      "outputs": [
        {
          "internalType": "uint256",
          "name": "",
          "type": "uint256"
        }
      ],
      "stateMutability": "view",
      "type": "function"
    },
    {
      "inputs": [],
      "name": "decimals",
      "outputs": [
        {
          "internalType": "uint8",
          "name": "",
          "type": "uint8"
        }
      ],
      "stateMutability": "view",
      "type": "function"
    },
    {
      "inputs": [
        {
          "internalType": "address",
          "name": "spender",
          "type": "address"
        },
        {
          "internalType": "uint256",
          "name": "subtractedValue",
          "type": "uint256"
        }
      ],
      "name": "decreaseAllowance",
      "outputs": [
        {
          "internalType": "bool",
          "name": "",
          "type": "bool"
        }
      ],
      "stateMutability": "nonpayable",
      "type": "function"
    },
    {
      "inputs": [
        {
          "internalType": "address",
          "name": "spender",
          "type": "address"
        },
        {
          "internalType": "uint256",
          "name": "addedValue",
          "type": "uint256"
        }
      ],
      "name": "increaseAllowance",
      "outputs": [
        {
          "internalType": "bool",
          "name": "",
          "type": "bool"
        }
      ],
      "stateMutability": "nonpayable",
      "type": "function"
    },
    {
      "inputs": [
        {
          "internalType": "address",
          "name": "account",
          "type": "address"
        },
        {
          "internalType": "uint256",
          "name": "amount",
          "type": "uint256"
        }
      ],
      "name": "mint",
      "outputs": [],
      "stateMutability": "nonpayable",
      "type": "function"
    },
    {
      "inputs": [],
      "name": "name",
      "outputs": [
        {
          "internalType": "string",
          "name": "",
          "type": "string"
        }
      ],
      "stateMutability": "view",
      "type": "function"
    },
    {
      "inputs": [
        {
          "internalType": "address",
          "name": "",
          "type": "address"
        }
      ],
      "name": "nonces",
      "outputs": [
        {
          "internalType": "uint256",
          "name": "",
          "type": "uint256"
        }
      ],
      "stateMutability": "view",
      "type": "function"
    },
    {
      "inputs": [],
      "name": "owner",
      "outputs": [
        {
          "internalType": "address",
          "name": "",
          "type": "address"
        }
      ],
      "stateMutability": "view",
      "type": "function"
    },
    {
      "inputs": [
        {
          "internalType": "address",
          "name": "issuer",
          "type": "address"
        },
        {
          "internalType": "address",
          "name": "spender",
          "type": "address"
        },
        {
          "internalType": "uint256",
          "name": "value",
          "type": "uint256"
        },
        {
          "internalType": "uint256",
          "name": "deadline",
          "type": "uint256"
        },
        {
          "internalType": "uint8",
          "name": "v",
          "type": "uint8"
        },
        {
          "internalType": "bytes32",
          "name": "r",
          "type": "bytes32"
        },
        {
          "internalType": "bytes32",
          "name": "s",
          "type": "bytes32"
        }
      ],
      "name": "permit",
      "outputs": [],
      "stateMutability": "nonpayable",
      "type": "function"
    },
    {
      "inputs": [],
      "name": "symbol",
      "outputs": [
        {
          "internalType": "string",
          "name": "",
          "type": "string"
        }
      ],
      "stateMutability": "view",
      "type": "function"
    },
    {
      "inputs": [],
      "name": "totalSupply",
      "outputs": [
        {
          "internalType": "uint256",
          "name": "",
          "type": "uint256"
        }
      ],
      "stateMutability": "view",
      "type": "function"
    },
    {
      "inputs": [
        {
          "internalType": "address",
          "name": "recipient",
          "type": "address"
        },
        {
          "internalType": "uint256",
          "name": "amount",
          "type": "uint256"
        }
      ],
      "name": "transfer",
      "outputs": [
        {
          "internalType": "bool",
          "name": "",
          "type": "bool"
        }
      ],
      "stateMutability": "nonpayable",
      "type": "function"
    },
    {
      "inputs": [
        {
          "internalType": "address",
          "name": "sender",
          "type": "address"
        },
        {
          "internalType": "address",
          "name": "recipient",
          "type": "address"
        },
        {
          "internalType": "uint256",
          "name": "amount",
          "type": "uint256"
        }
      ],
      "name": "transferFrom",
      "outputs": [
        {
          "internalType": "bool",
          "name": "",
          "type": "bool"
        }
      ],
      "stateMutability": "nonpayable",
      "type": "function"
    },
    {
      "inputs": [
        {
          "internalType": "address",
          "name": "newOwner",
          "type": "address"
        }
      ],
      "name": "transferOwnership",
      "outputs": [],
      "stateMutability": "nonpayable",
      "type": "function"
    }
  ],
  "bytecode": "0x60e06040523480156200001157600080fd5b50604051620011b2380380620011b28339810160408190526200003491620002d9565b8384848482600390805190602001906200005092919062000166565b5081516200006690600490602085019062000166565b5060ff166080908152835160208086019190912060408051808201825260018152603160f81b9084015280517f8b73c3c69bb8fe3d512ecc4cf759cc79239f7b179b0ffacaa9a75d522b39400f938101939093528201527fc89efdaa54c0f20c7adf612882df0950f5a951637e0307cdcb4c672f298b8bc6606082015246918101919091523060a082015260c0019150620000fe9050565b60408051601f1981840301815290829052805160209091012060a052600680546001600160a01b0319163390811790915591506000907f8be0079c531659141344cd1fd0a4f28419497f9722a3daafe3b4186f6b6457e0908290a360c05250620003a1915050565b828054620001749062000364565b90600052602060002090601f016020900481019282620001985760008555620001e3565b82601f10620001b357805160ff1916838001178555620001e3565b82800160010185558215620001e3579182015b82811115620001e3578251825591602001919060010190620001c6565b50620001f1929150620001f5565b5090565b5b80821115620001f15760008155600101620001f6565b634e487b7160e01b600052604160045260246000fd5b600082601f8301126200023457600080fd5b81516001600160401b03808211156200025157620002516200020c565b604051601f8301601f19908116603f011681019082821181831017156200027c576200027c6200020c565b816040528381526020925086838588010111156200029957600080fd5b600091505b83821015620002bd57858201830151818301840152908201906200029e565b83821115620002cf5760008385830101525b9695505050505050565b60008060008060808587031215620002f057600080fd5b84516001600160401b03808211156200030857600080fd5b620003168883890162000222565b955060208701519150808211156200032d57600080fd5b506200033c8782880162000222565b935050604085015160ff811681146200035457600080fd5b6060959095015193969295505050565b600181811c908216806200037957607f821691505b602082108114156200039b57634e487b7160e01b600052602260045260246000fd5b50919050565b60805160a05160c051610dd3620003df600039600081816101e4015261049e01526000818161020b0152610698015260006101ab0152610dd36000f3fe608060405234801561001057600080fd5b50600436106101365760003560e01c806370a08231116100b2578063a457c2d711610081578063d505accf11610066578063d505accf146102ee578063dd62ed3e14610301578063f2fde38b1461032c57600080fd5b8063a457c2d7146102c8578063a9059cbb146102db57600080fd5b806370a08231146102555780637ecebe00146102755780638da5cb5b1461029557806395d89b41146102c057600080fd5b8063313ce567116101095780633644e515116100ee5780633644e51514610206578063395093511461022d57806340c10f191461024057600080fd5b8063313ce567146101a6578063355274ea146101df57600080fd5b806306fdde031461013b578063095ea7b31461015957806318160ddd1461017c57806323b872dd14610193575b600080fd5b61014361033f565b6040516101509190610b5e565b60405180910390f35b61016c610167366004610bad565b6103cd565b6040519015158152602001610150565b61018560025481565b604051908152602001610150565b61016c6101a1366004610bd7565b6103e3565b6101cd7f000000000000000000000000000000000000000000000000000000000000000081565b60405160ff9091168152602001610150565b6101857f000000000000000000000000000000000000000000000000000000000000000081565b6101857f000000000000000000000000000000000000000000000000000000000000000081565b61016c61023b366004610bad565b61043a565b61025361024e366004610bad565b610471565b005b610185610263366004610c13565b60006020819052908152604090205481565b610185610283366004610c13565b60056020526000908152604090205481565b6006546102a8906001600160a01b031681565b6040516001600160a01b039091168152602001610150565b610143610512565b61016c6102d6366004610bad565b61051f565b61016c6102e9366004610bad565b610556565b6102536102fc366004610c35565b610563565b61018561030f366004610ca8565b600160209081526000928352604080842090915290825290205481565b61025361033a366004610c13565b610826565b6003805461034c90610cdb565b80601f016020809104026020016040519081016040528092919081815260200182805461037890610cdb565b80156103c55780601f1061039a576101008083540402835291602001916103c5565b820191906000526020600020905b8154815290600101906020018083116103a857829003601f168201915b505050505081565b60006103da338484610905565b50600192915050565b6001600160a01b0383166000908152600160209081526040808320338452909152812054600019811461042457610424853361041f8685610d2c565b610905565b61042f8585856109a2565b506001949350505050565b3360008181526001602090815260408083206001600160a01b038716845290915281205490916103da91859061041f908690610d43565b6006546001600160a01b0316331461049c576040516330cd747160e01b815260040160405180910390fd5b7f00000000000000000000000000000000000000000000000000000000000000006104c78383610a7e565b806104d157505050565b80600254111561050d576040517fa4875a4900000000000000000000000000000000000000000000000000000000815260040160405180910390fd5b505050565b6004805461034c90610cdb565b3360008181526001602090815260408083206001600160a01b038716845290915281205490916103da91859061041f908690610d2c565b60006103da3384846109a2565b8342111561059d576040517f1a15a3cc00000000000000000000000000000000000000000000000000000000815260040160405180910390fd5b7f7fffffffffffffffffffffffffffffff5d576e7357a4501ddfe92f46681b20a08111156105f7576040517f40c1e74800000000000000000000000000000000000000000000000000000000815260040160405180910390fd5b8260ff16601b1415801561060f57508260ff16601c14155b15610646576040517f119bce3900000000000000000000000000000000000000000000000000000000815260040160405180910390fd5b604080518082018252600281527f19010000000000000000000000000000000000000000000000000000000000006020808301919091526001600160a01b038a166000908152600590915291822080547f0000000000000000000000000000000000000000000000000000000000000000917f6e71edae12b1b97f4d1f60370fef10105fa2faae0126114a169c64845d6126c9918c918c918c91886106ea83610d5b565b909155506040805160208101969096526001600160a01b0394851690860152929091166060840152608083015260a082015260c0810188905260e0016040516020818303038152906040528051906020012060405160200161074e93929190610d76565b60408051601f198184030181528282528051602091820120600080855291840180845281905260ff88169284019290925260608301869052608083018590529092509060019060a0016020604051602081039080840390855afa1580156107b9573d6000803e3d6000fd5b505050602060405103519050886001600160a01b0316816001600160a01b031614610810576040517f8baa579f00000000000000000000000000000000000000000000000000000000815260040160405180910390fd5b61081b898989610905565b505050505050505050565b6006546001600160a01b03163314610851576040516330cd747160e01b815260040160405180910390fd5b6001600160a01b038116610891576040517f49e27cff00000000000000000000000000000000000000000000000000000000815260040160405180910390fd5b6006546040516001600160a01b038084169216907f8be0079c531659141344cd1fd0a4f28419497f9722a3daafe3b4186f6b6457e090600090a3600680547fffffffffffffffffffffffff0000000000000000000000000000000000000000166001600160a01b0392909216919091179055565b6001600160a01b038316158061092257506001600160a01b038216155b1561094057604051630da30f6560e31b815260040160405180910390fd5b6001600160a01b0383811660008181526001602090815260408083209487168084529482529182902085905590518481527f8c5be1e5ebec7d5bd14f71427d1e84f3dd0314c0f7b2291e5b200ac8c7c3b92591015b60405180910390a3505050565b6001600160a01b03831615806109bf57506001600160a01b038216155b156109dd57604051630da30f6560e31b815260040160405180910390fd5b6001600160a01b03831660009081526020819052604081208054839290610a05908490610d2c565b90915550506001600160a01b03821660009081526020819052604081208054839290610a32908490610d43565b92505081905550816001600160a01b0316836001600160a01b03167fddf252ad1be2c89b69c2b068fc378daa952ba7f163c4a11628f55a4df523b3ef8360405161099591815260200190565b6001600160a01b038216610aa557604051630da30f6560e31b815260040160405180910390fd5b8060026000828254610ab79190610d43565b90915550506001600160a01b03821660009081526020819052604081208054839290610ae4908490610d43565b90915550506040518181526001600160a01b038316906000907fddf252ad1be2c89b69c2b068fc378daa952ba7f163c4a11628f55a4df523b3ef9060200160405180910390a35050565b60005b83811015610b49578181015183820152602001610b31565b83811115610b58576000848401525b50505050565b6020815260008251806020840152610b7d816040850160208701610b2e565b601f01601f19169190910160400192915050565b80356001600160a01b0381168114610ba857600080fd5b919050565b60008060408385031215610bc057600080fd5b610bc983610b91565b946020939093013593505050565b600080600060608486031215610bec57600080fd5b610bf584610b91565b9250610c0360208501610b91565b9150604084013590509250925092565b600060208284031215610c2557600080fd5b610c2e82610b91565b9392505050565b600080600080600080600060e0888a031215610c5057600080fd5b610c5988610b91565b9650610c6760208901610b91565b95506040880135945060608801359350608088013560ff81168114610c8b57600080fd5b9699959850939692959460a0840135945060c09093013592915050565b60008060408385031215610cbb57600080fd5b610cc483610b91565b9150610cd260208401610b91565b90509250929050565b600181811c90821680610cef57607f821691505b60208210811415610d1057634e487b7160e01b600052602260045260246000fd5b50919050565b634e487b7160e01b600052601160045260246000fd5b600082821015610d3e57610d3e610d16565b500390565b60008219821115610d5657610d56610d16565b500190565b6000600019821415610d6f57610d6f610d16565b5060010190565b60008451610d88818460208901610b2e565b9190910192835250602082015260400191905056fea264697066735822122076f9ae7af78c925b19714fc4d3ff220bc0456630f9bebac6598eb4a0c24a3eac64736f6c63430008090033",
  "linkReferences": {},
  "deployedLinkReferences": {}
}