{
  "_format": "hh-sol-artifact-1",
  "contractName": "ExecutableWithToken",
  "sourceName": "src/contracts/test/ExecutableWithToken.sol",
  "abi": [
    {
      "inputs": [
        {
          "internalType": "address",
          "name": "gateway_",
          "type": "address"
        },
        {
          "internalType": "address",
          "name": "gasReceiver_",
          "type": "address"
        }
      ],
      "stateMutability": "nonpayable",
      "type": "constructor"
    },
    {
      "inputs": [],
      "name": "InvalidAddress",
      "type": "error"
    },
    {
      "inputs": [],
      "name": "NotApprovedByGateway",
      "type": "error"
    },
    {
      "inputs": [
        {
          "internalType": "string",
          "name": "chain_",
          "type": "string"
        },
        {
          "internalType": "string",
          "name": "address_",
          "type": "string"
        }
      ],
      "name": "addSibling",
      "outputs": [],
      "stateMutability": "nonpayable",
      "type": "function"
    },
    {
      "inputs": [
        {
          "internalType": "bytes32",
          "name": "commandId",
          "type": "bytes32"
        },
        {
          "internalType": "string",
          "name": "sourceChain",
          "type": "string"
        },
        {
          "internalType": "string",
          "name": "sourceAddress",
          "type": "string"
        },
        {
          "internalType": "bytes",
          "name": "payload",
          "type": "bytes"
        }
      ],
      "name": "execute",
      "outputs": [],
      "stateMutability": "nonpayable",
      "type": "function"
    },
    {
      "inputs": [
        {
          "internalType": "bytes32",
          "name": "commandId",
          "type": "bytes32"
        },
        {
          "internalType": "string",
          "name": "sourceChain",
          "type": "string"
        },
        {
          "internalType": "string",
          "name": "sourceAddress",
          "type": "string"
        },
        {
          "internalType": "bytes",
          "name": "payload",
          "type": "bytes"
        },
        {
          "internalType": "string",
          "name": "tokenSymbol",
          "type": "string"
        },
        {
          "internalType": "uint256",
          "name": "amount",
          "type": "uint256"
        }
      ],
      "name": "executeWithToken",
      "outputs": [],
      "stateMutability": "nonpayable",
      "type": "function"
    },
    {
      "inputs": [],
      "name": "gasReceiver",
      "outputs": [
        {
          "internalType": "contract IAxelarGasService",
          "name": "",
          "type": "address"
        }
      ],
      "stateMutability": "view",
      "type": "function"
    },
    {
      "inputs": [],
      "name": "gateway",
      "outputs": [
        {
          "internalType": "contract IAxelarGateway",
          "name": "",
          "type": "address"
        }
      ],
      "stateMutability": "view",
      "type": "function"
    },
    {
      "inputs": [
        {
          "internalType": "string",
          "name": "chain",
          "type": "string"
        },
        {
          "internalType": "string",
          "name": "value_",
          "type": "string"
        },
        {
          "internalType": "address",
          "name": "destinationAddress",
          "type": "address"
        },
        {
          "internalType": "string",
          "name": "symbol",
          "type": "string"
        },
        {
          "internalType": "uint256",
          "name": "amount",
          "type": "uint256"
        }
      ],
      "name": "setAndSend",
      "outputs": [],
      "stateMutability": "payable",
      "type": "function"
    },
    {
      "inputs": [
        {
          "internalType": "string",
          "name": "",
          "type": "string"
        }
      ],
      "name": "siblings",
      "outputs": [
        {
          "internalType": "string",
          "name": "",
          "type": "string"
        }
      ],
      "stateMutability": "view",
      "type": "function"
    },
    {
      "inputs": [],
      "name": "sourceAddress",
      "outputs": [
        {
          "internalType": "string",
          "name": "",
          "type": "string"
        }
      ],
      "stateMutability": "view",
      "type": "function"
    },
    {
      "inputs": [],
      "name": "sourceChain",
      "outputs": [
        {
          "internalType": "string",
          "name": "",
          "type": "string"
        }
      ],
      "stateMutability": "view",
      "type": "function"
    },
    {
      "inputs": [],
      "name": "value",
      "outputs": [
        {
          "internalType": "string",
          "name": "",
          "type": "string"
        }
      ],
      "stateMutability": "view",
      "type": "function"
    }
  ],
  "bytecode": "0x60c060405234801561001057600080fd5b506040516114a83803806114a883398101604081905261002f9161008b565b816001600160a01b0381166100575760405163e6c4247b60e01b815260040160405180910390fd5b6001600160a01b039081166080521660a052506100be565b80516001600160a01b038116811461008657600080fd5b919050565b6000806040838503121561009e57600080fd5b6100a78361006f565b91506100b56020840161006f565b90509250929050565b60805160a051611395610113600039600081816101b2015261054801526000818160c80152818161026601528181610452015281816106290152818161078301528181610811015261096e01526113956000f3fe6080604052600436106100b15760003560e01c8063491606581161006957806389471c941161004e57806389471c94146101d4578063a7798b69146101e7578063b0fa84441461020757600080fd5b8063491606581461018057806380d14b4a146101a057600080fd5b80631c6ffa461161009a5780631c6ffa46146101295780633fa4f2451461014b57806345b48eb91461016057600080fd5b8063116191b6146100b65780631a98b2e014610107575b600080fd5b3480156100c257600080fd5b506100ea7f000000000000000000000000000000000000000000000000000000000000000081565b6040516001600160a01b0390911681526020015b60405180910390f35b34801561011357600080fd5b50610127610122366004610bf8565b61021c565b005b34801561013557600080fd5b5061013e610338565b6040516100fe9190610d1f565b34801561015757600080fd5b5061013e6103c6565b34801561016c57600080fd5b5061012761017b366004610d39565b6103d3565b34801561018c57600080fd5b5061012761019b366004610da5565b610408565b3480156101ac57600080fd5b506100ea7f000000000000000000000000000000000000000000000000000000000000000081565b6101276101e2366004610e61565b61050a565b3480156101f357600080fd5b5061013e610202366004610fba565b6108de565b34801561021357600080fd5b5061013e610902565b6000858560405161022e929190610ff7565b6040519081900381207f1876eed900000000000000000000000000000000000000000000000000000000825291506001600160a01b037f00000000000000000000000000000000000000000000000000000000000000001690631876eed9906102ab908e908e908e908e908e9089908d908d908d90600401611030565b602060405180830381600087803b1580156102c557600080fd5b505af11580156102d9573d6000803e3d6000fd5b505050506040513d601f19601f820116820180604052508101906102fd919061108f565b61031a57604051631403112d60e21b815260040160405180910390fd5b61032b8a8a8a8a8a8a8a8a8a61090f565b5050505050505050505050565b60018054610345906110b1565b80601f0160208091040260200160405190810160405280929190818152602001828054610371906110b1565b80156103be5780601f10610393576101008083540402835291602001916103be565b820191906000526020600020905b8154815290600101906020018083116103a157829003601f168201915b505050505081565b60008054610345906110b1565b8181600386866040516103e7929190610ff7565b908152604051908190036020019020610401929091610aa2565b5050505050565b6000828260405161041a929190610ff7565b6040519081900381207f5f6970c300000000000000000000000000000000000000000000000000000000825291506001600160a01b037f00000000000000000000000000000000000000000000000000000000000000001690635f6970c390610491908b908b908b908b908b9089906004016110ec565b602060405180830381600087803b1580156104ab57600080fd5b505af11580156104bf573d6000803e3d6000fd5b505050506040513d601f19601f820116820180604052508101906104e3919061108f565b61050057604051631403112d60e21b815260040160405180910390fd5b5050505050505050565b61051660008787610aa2565b50600086868660405160200161052e9392919061112d565b60408051601f198184030181529190529050341561060f577f00000000000000000000000000000000000000000000000000000000000000006001600160a01b031663c62c200234308c8c60038f8f60405161058b929190610ff7565b9081526040519081900360200181207fffffffff0000000000000000000000000000000000000000000000000000000060e088901b1682526105dc9493929189908d908d908d9033906004016111fa565b6000604051808303818588803b1580156105f557600080fd5b505af1158015610609573d6000803e3d6000fd5b50505050505b6040516349ad89fb60e11b81526000906001600160a01b037f0000000000000000000000000000000000000000000000000000000000000000169063935b13f6906106609088908890600401611278565b60206040518083038186803b15801561067857600080fd5b505afa15801561068c573d6000803e3d6000fd5b505050506040513d601f19601f820116820180604052508101906106b0919061128c565b6040517f23b872dd000000000000000000000000000000000000000000000000000000008152336004820152306024820152604481018590529091506001600160a01b038216906323b872dd90606401602060405180830381600087803b15801561071a57600080fd5b505af115801561072e573d6000803e3d6000fd5b505050506040513d601f19601f82011682018060405250810190610752919061108f565b506040517f095ea7b30000000000000000000000000000000000000000000000000000000081526001600160a01b037f0000000000000000000000000000000000000000000000000000000000000000811660048301526024820185905282169063095ea7b390604401602060405180830381600087803b1580156107d657600080fd5b505af11580156107ea573d6000803e3d6000fd5b505050506040513d601f19601f8201168201806040525081019061080e919061108f565b507f00000000000000000000000000000000000000000000000000000000000000006001600160a01b031663b54170848b8b60038e8e604051610852929190610ff7565b9081526040519081900360200181207fffffffff0000000000000000000000000000000000000000000000000000000060e086901b1682526108a093929188908c908c908c906004016112a9565b600060405180830381600087803b1580156108ba57600080fd5b505af11580156108ce573d6000803e3d6000fd5b5050505050505050505050505050565b805160208183018101805160038252928201919093012091528054610345906110b1565b60028054610345906110b1565b600061091d8587018761130d565b81519092508290610935906000906020850190610b26565b506109469150600190508b8b610aa2565b5061095360028989610aa2565b506040516349ad89fb60e11b81526000906001600160a01b037f0000000000000000000000000000000000000000000000000000000000000000169063935b13f6906109a59088908890600401611278565b60206040518083038186803b1580156109bd57600080fd5b505afa1580156109d1573d6000803e3d6000fd5b505050506040513d601f19601f820116820180604052508101906109f5919061128c565b6040517fa9059cbb0000000000000000000000000000000000000000000000000000000081526001600160a01b038481166004830152602482018690529192509082169063a9059cbb90604401602060405180830381600087803b158015610a5c57600080fd5b505af1158015610a70573d6000803e3d6000fd5b505050506040513d601f19601f82011682018060405250810190610a94919061108f565b505050505050505050505050565b828054610aae906110b1565b90600052602060002090601f016020900481019282610ad05760008555610b16565b82601f10610ae95782800160ff19823516178555610b16565b82800160010185558215610b16579182015b82811115610b16578235825591602001919060010190610afb565b50610b22929150610b9a565b5090565b828054610b32906110b1565b90600052602060002090601f016020900481019282610b545760008555610b16565b82601f10610b6d57805160ff1916838001178555610b16565b82800160010185558215610b16579182015b82811115610b16578251825591602001919060010190610b7f565b5b80821115610b225760008155600101610b9b565b60008083601f840112610bc157600080fd5b50813567ffffffffffffffff811115610bd957600080fd5b602083019150836020828501011115610bf157600080fd5b9250929050565b60008060008060008060008060008060c08b8d031215610c1757600080fd5b8a35995060208b013567ffffffffffffffff80821115610c3657600080fd5b610c428e838f01610baf565b909b50995060408d0135915080821115610c5b57600080fd5b610c678e838f01610baf565b909950975060608d0135915080821115610c8057600080fd5b610c8c8e838f01610baf565b909750955060808d0135915080821115610ca557600080fd5b50610cb28d828e01610baf565b9150809450508092505060a08b013590509295989b9194979a5092959850565b6000815180845260005b81811015610cf857602081850181015186830182015201610cdc565b81811115610d0a576000602083870101525b50601f01601f19169290920160200192915050565b602081526000610d326020830184610cd2565b9392505050565b60008060008060408587031215610d4f57600080fd5b843567ffffffffffffffff80821115610d6757600080fd5b610d7388838901610baf565b90965094506020870135915080821115610d8c57600080fd5b50610d9987828801610baf565b95989497509550505050565b60008060008060008060006080888a031215610dc057600080fd5b87359650602088013567ffffffffffffffff80821115610ddf57600080fd5b610deb8b838c01610baf565b909850965060408a0135915080821115610e0457600080fd5b610e108b838c01610baf565b909650945060608a0135915080821115610e2957600080fd5b50610e368a828b01610baf565b989b979a50959850939692959293505050565b6001600160a01b0381168114610e5e57600080fd5b50565b60008060008060008060008060a0898b031215610e7d57600080fd5b883567ffffffffffffffff80821115610e9557600080fd5b610ea18c838d01610baf565b909a50985060208b0135915080821115610eba57600080fd5b610ec68c838d01610baf565b909850965060408b01359150610edb82610e49565b90945060608a01359080821115610ef157600080fd5b50610efe8b828c01610baf565b999c989b50969995989497949560800135949350505050565b634e487b7160e01b600052604160045260246000fd5b600082601f830112610f3e57600080fd5b813567ffffffffffffffff80821115610f5957610f59610f17565b604051601f8301601f19908116603f01168101908282118183101715610f8157610f81610f17565b81604052838152866020858801011115610f9a57600080fd5b836020870160208301376000602085830101528094505050505092915050565b600060208284031215610fcc57600080fd5b813567ffffffffffffffff811115610fe357600080fd5b610fef84828501610f2d565b949350505050565b8183823760009101908152919050565b81835281816020850137506000828201602090810191909152601f909101601f19169091010190565b89815260c06020820152600061104a60c083018a8c611007565b828103604084015261105d81898b611007565b90508660608401528281036080840152611078818688611007565b9150508260a08301529a9950505050505050505050565b6000602082840312156110a157600080fd5b81518015158114610d3257600080fd5b600181811c908216806110c557607f821691505b602082108114156110e657634e487b7160e01b600052602260045260246000fd5b50919050565b868152608060208201526000611106608083018789611007565b8281036040840152611119818688611007565b915050826060830152979650505050505050565b604081526000611141604083018587611007565b90506001600160a01b0383166020830152949350505050565b8054600090600181811c908083168061117457607f831692505b602080841082141561119657634e487b7160e01b600052602260045260246000fd5b838852602088018280156111b157600181146111c2576111ed565b60ff198716825282820197506111ed565b60008981526020902060005b878110156111e7578154848201529086019084016111ce565b83019850505b5050505050505092915050565b60006001600160a01b03808c16835260e0602084015261121e60e084018b8d611007565b8381036040850152611230818b61115a565b90508381036060850152611244818a610cd2565b9050838103608085015261125981888a611007565b60a0850196909652509290921660c09091015250979650505050505050565b602081526000610fef602083018486611007565b60006020828403121561129e57600080fd5b8151610d3281610e49565b60a0815260006112bd60a08301898b611007565b82810360208401526112cf818961115a565b905082810360408401526112e38188610cd2565b905082810360608401526112f8818688611007565b91505082608083015298975050505050505050565b6000806040838503121561132057600080fd5b823567ffffffffffffffff81111561133757600080fd5b61134385828601610f2d565b925050602083013561135481610e49565b80915050925092905056fea264697066735822122094db8be1a7d76c5c9bd1af615c3839f0f2fd9303a44c666e4377ebe3d409747364736f6c63430008090033",
  "linkReferences": {},
  "deployedLinkReferences": {}
}