{
  "_format": "hh-sol-artifact-1",
  "contractName": "ExecutableWithToken",
  "sourceName": "src/contracts/test/ExecutableWithToken.sol",
  "abi": [
    {
      "inputs": [
        {
          "internalType": "address",
          "name": "gateway_",
          "type": "address"
        },
        {
          "internalType": "address",
          "name": "gasReceiver_",
          "type": "address"
        }
      ],
      "stateMutability": "nonpayable",
      "type": "constructor"
    },
    {
      "inputs": [],
      "name": "NotApprovedByGateway",
      "type": "error"
    },
    {
      "inputs": [
        {
          "internalType": "string",
          "name": "chain_",
          "type": "string"
        },
        {
          "internalType": "string",
          "name": "address_",
          "type": "string"
        }
      ],
      "name": "addSibling",
      "outputs": [],
      "stateMutability": "nonpayable",
      "type": "function"
    },
    {
      "inputs": [
        {
          "internalType": "bytes32",
          "name": "commandId",
          "type": "bytes32"
        },
        {
          "internalType": "string",
          "name": "sourceChain",
          "type": "string"
        },
        {
          "internalType": "string",
          "name": "sourceAddress",
          "type": "string"
        },
        {
          "internalType": "bytes",
          "name": "payload",
          "type": "bytes"
        }
      ],
      "name": "execute",
      "outputs": [],
      "stateMutability": "nonpayable",
      "type": "function"
    },
    {
      "inputs": [
        {
          "internalType": "bytes32",
          "name": "commandId",
          "type": "bytes32"
        },
        {
          "internalType": "string",
          "name": "sourceChain",
          "type": "string"
        },
        {
          "internalType": "string",
          "name": "sourceAddress",
          "type": "string"
        },
        {
          "internalType": "bytes",
          "name": "payload",
          "type": "bytes"
        },
        {
          "internalType": "string",
          "name": "tokenSymbol",
          "type": "string"
        },
        {
          "internalType": "uint256",
          "name": "amount",
          "type": "uint256"
        }
      ],
      "name": "executeWithToken",
      "outputs": [],
      "stateMutability": "nonpayable",
      "type": "function"
    },
    {
      "inputs": [],
      "name": "gasReceiver",
      "outputs": [
        {
          "internalType": "contract IAxelarGasService",
          "name": "",
          "type": "address"
        }
      ],
      "stateMutability": "view",
      "type": "function"
    },
    {
      "inputs": [],
      "name": "gateway",
      "outputs": [
        {
          "internalType": "contract IAxelarGateway",
          "name": "",
          "type": "address"
        }
      ],
      "stateMutability": "view",
      "type": "function"
    },
    {
      "inputs": [
        {
          "internalType": "string",
          "name": "chain",
          "type": "string"
        },
        {
          "internalType": "string",
          "name": "value_",
          "type": "string"
        },
        {
          "internalType": "address",
          "name": "destinationAddress",
          "type": "address"
        },
        {
          "internalType": "string",
          "name": "symbol",
          "type": "string"
        },
        {
          "internalType": "uint256",
          "name": "amount",
          "type": "uint256"
        }
      ],
      "name": "setAndSend",
      "outputs": [],
      "stateMutability": "payable",
      "type": "function"
    },
    {
      "inputs": [
        {
          "internalType": "string",
          "name": "",
          "type": "string"
        }
      ],
      "name": "siblings",
      "outputs": [
        {
          "internalType": "string",
          "name": "",
          "type": "string"
        }
      ],
      "stateMutability": "view",
      "type": "function"
    },
    {
      "inputs": [],
      "name": "sourceAddress",
      "outputs": [
        {
          "internalType": "string",
          "name": "",
          "type": "string"
        }
      ],
      "stateMutability": "view",
      "type": "function"
    },
    {
      "inputs": [],
      "name": "sourceChain",
      "outputs": [
        {
          "internalType": "string",
          "name": "",
          "type": "string"
        }
      ],
      "stateMutability": "view",
      "type": "function"
    },
    {
      "inputs": [],
      "name": "value",
      "outputs": [
        {
          "internalType": "string",
          "name": "",
          "type": "string"
        }
      ],
      "stateMutability": "view",
      "type": "function"
    }
  ],
  "bytecode": "0x608060405234801561001057600080fd5b5060405161147b38038061147b83398101604081905261002f9161007c565b600080546001600160a01b039384166001600160a01b031991821617909155600480549290931691161790556100af565b80516001600160a01b038116811461007757600080fd5b919050565b6000806040838503121561008f57600080fd5b61009883610060565b91506100a660208401610060565b90509250929050565b6113bd806100be6000396000f3fe6080604052600436106100b15760003560e01c8063491606581161006957806389471c941161004e57806389471c94146101ac578063a7798b69146101bf578063b0fa8444146101df57600080fd5b8063491606581461016c57806380d14b4a1461018c57600080fd5b80631c6ffa461161009a5780631c6ffa46146101155780633fa4f2451461013757806345b48eb91461014c57600080fd5b8063116191b6146100b65780631a98b2e0146100f3575b600080fd5b3480156100c257600080fd5b506000546100d6906001600160a01b031681565b6040516001600160a01b0390911681526020015b60405180910390f35b3480156100ff57600080fd5b5061011361010e366004610c20565b6101f4565b005b34801561012157600080fd5b5061012a61038f565b6040516100ea9190610d52565b34801561014357600080fd5b5061012a61041d565b34801561015857600080fd5b50610113610167366004610d6c565b61042a565b34801561017857600080fd5b50610113610187366004610dd8565b61045f565b34801561019857600080fd5b506004546100d6906001600160a01b031681565b6101136101ba366004610f37565b6105bb565b3480156101cb57600080fd5b5061012a6101da366004610fe2565b610917565b3480156101eb57600080fd5b5061012a61093b565b6000858560405161020692919061101f565b6040519081900381206000547f1876eed90000000000000000000000000000000000000000000000000000000083529092506001600160a01b031690631876eed990610266908e908e908e908e908e9089908d908d908d90600401611058565b602060405180830381600087803b15801561028057600080fd5b505af1158015610294573d6000803e3d6000fd5b505050506040513d601f19601f820116820180604052508101906102b891906110b7565b6102d557604051631403112d60e21b815260040160405180910390fd5b6103828a8a8080601f01602080910402602001604051908101604052809392919081815260200183838082843760009201919091525050604080516020601f8e018190048102820181019092528c815292508c91508b908190840183828082843760009201919091525050604080516020601f8b018190048102820181019092528981528c93508b9250908a908a90819084018382808284376000920191909152508a9250610948915050565b5050505050505050505050565b6002805461039c906110d9565b80601f01602080910402602001604051908101604052809291908181526020018280546103c8906110d9565b80156104155780601f106103ea57610100808354040283529160200191610415565b820191906000526020600020905b8154815290600101906020018083116103f857829003601f168201915b505050505081565b6001805461039c906110d9565b81816005868660405161043e92919061101f565b908152604051908190036020019020610458929091610aca565b5050505050565b6000828260405161047192919061101f565b6040519081900381206000547f5f6970c30000000000000000000000000000000000000000000000000000000083529092506001600160a01b031690635f6970c3906104cb908b908b908b908b908b908990600401611114565b602060405180830381600087803b1580156104e557600080fd5b505af11580156104f9573d6000803e3d6000fd5b505050506040513d601f19601f8201168201806040525081019061051d91906110b7565b61053a57604051631403112d60e21b815260040160405180910390fd5b6105b187878080601f01602080910402602001604051908101604052809392919081815260200183838082843760009201919091525050604080516020601f8b018190048102820181019092528981529250899150889081908401838280828437600092019190915250889250879150610ac49050565b5050505050505050565b6105c760018686610aca565b5060008585856040516020016105df93929190611155565b60408051601f19818403018152919052905034156106a4576004546040516001600160a01b039091169063c62c200290349030908b90600590610623908390611182565b9081526040519081900360200181207fffffffff0000000000000000000000000000000000000000000000000000000060e087901b16825261067193929188908b908b90339060040161123e565b6000604051808303818588803b15801561068a57600080fd5b505af115801561069e573d6000803e3d6000fd5b50505050505b600080546040516349ad89fb60e11b81526001600160a01b039091169063935b13f6906106d5908790600401610d52565b60206040518083038186803b1580156106ed57600080fd5b505afa158015610701573d6000803e3d6000fd5b505050506040513d601f19601f8201168201806040525081019061072591906112b8565b6040517f23b872dd000000000000000000000000000000000000000000000000000000008152336004820152306024820152604481018590529091506001600160a01b038216906323b872dd90606401602060405180830381600087803b15801561078f57600080fd5b505af11580156107a3573d6000803e3d6000fd5b505050506040513d601f19601f820116820180604052508101906107c791906110b7565b506000546040517f095ea7b30000000000000000000000000000000000000000000000000000000081526001600160a01b039182166004820152602481018590529082169063095ea7b390604401602060405180830381600087803b15801561082f57600080fd5b505af1158015610843573d6000803e3d6000fd5b505050506040513d601f19601f8201168201806040525081019061086791906110b7565b506000546040516001600160a01b039091169063b5417084908a90600590610890908390611182565b9081526040519081900360200181207fffffffff0000000000000000000000000000000000000000000000000000000060e085901b1682526108db929187908a908a906004016112d5565b600060405180830381600087803b1580156108f557600080fd5b505af1158015610909573d6000803e3d6000fd5b505050505050505050505050565b80516020818301810180516005825292820191909301209152805461039c906110d9565b6003805461039c906110d9565b600061095684860186611335565b8151909250829061096e906001906020850190610b4e565b50508751610984915060029060208a0190610b4e565b508551610998906003906020890190610b4e565b50600080546040516349ad89fb60e11b81526001600160a01b039091169063935b13f6906109ca908790600401610d52565b60206040518083038186803b1580156109e257600080fd5b505afa1580156109f6573d6000803e3d6000fd5b505050506040513d601f19601f82011682018060405250810190610a1a91906112b8565b6040517fa9059cbb0000000000000000000000000000000000000000000000000000000081526001600160a01b038481166004830152602482018690529192509082169063a9059cbb90604401602060405180830381600087803b158015610a8157600080fd5b505af1158015610a95573d6000803e3d6000fd5b505050506040513d601f19601f82011682018060405250810190610ab991906110b7565b505050505050505050565b50505050565b828054610ad6906110d9565b90600052602060002090601f016020900481019282610af85760008555610b3e565b82601f10610b115782800160ff19823516178555610b3e565b82800160010185558215610b3e579182015b82811115610b3e578235825591602001919060010190610b23565b50610b4a929150610bc2565b5090565b828054610b5a906110d9565b90600052602060002090601f016020900481019282610b7c5760008555610b3e565b82601f10610b9557805160ff1916838001178555610b3e565b82800160010185558215610b3e579182015b82811115610b3e578251825591602001919060010190610ba7565b5b80821115610b4a5760008155600101610bc3565b60008083601f840112610be957600080fd5b50813567ffffffffffffffff811115610c0157600080fd5b602083019150836020828501011115610c1957600080fd5b9250929050565b60008060008060008060008060008060c08b8d031215610c3f57600080fd5b8a35995060208b013567ffffffffffffffff80821115610c5e57600080fd5b610c6a8e838f01610bd7565b909b50995060408d0135915080821115610c8357600080fd5b610c8f8e838f01610bd7565b909950975060608d0135915080821115610ca857600080fd5b610cb48e838f01610bd7565b909750955060808d0135915080821115610ccd57600080fd5b50610cda8d828e01610bd7565b9150809450508092505060a08b013590509295989b9194979a5092959850565b60005b83811015610d15578181015183820152602001610cfd565b83811115610ac45750506000910152565b60008151808452610d3e816020860160208601610cfa565b601f01601f19169290920160200192915050565b602081526000610d656020830184610d26565b9392505050565b60008060008060408587031215610d8257600080fd5b843567ffffffffffffffff80821115610d9a57600080fd5b610da688838901610bd7565b90965094506020870135915080821115610dbf57600080fd5b50610dcc87828801610bd7565b95989497509550505050565b60008060008060008060006080888a031215610df357600080fd5b87359650602088013567ffffffffffffffff80821115610e1257600080fd5b610e1e8b838c01610bd7565b909850965060408a0135915080821115610e3757600080fd5b610e438b838c01610bd7565b909650945060608a0135915080821115610e5c57600080fd5b50610e698a828b01610bd7565b989b979a50959850939692959293505050565b634e487b7160e01b600052604160045260246000fd5b600082601f830112610ea357600080fd5b813567ffffffffffffffff80821115610ebe57610ebe610e7c565b604051601f8301601f19908116603f01168101908282118183101715610ee657610ee6610e7c565b81604052838152866020858801011115610eff57600080fd5b836020870160208301376000602085830101528094505050505092915050565b6001600160a01b0381168114610f3457600080fd5b50565b60008060008060008060a08789031215610f5057600080fd5b863567ffffffffffffffff80821115610f6857600080fd5b610f748a838b01610e92565b97506020890135915080821115610f8a57600080fd5b610f968a838b01610bd7565b909750955060408901359150610fab82610f1f565b90935060608801359080821115610fc157600080fd5b50610fce89828a01610e92565b925050608087013590509295509295509295565b600060208284031215610ff457600080fd5b813567ffffffffffffffff81111561100b57600080fd5b61101784828501610e92565b949350505050565b8183823760009101908152919050565b81835281816020850137506000828201602090810191909152601f909101601f19169091010190565b89815260c06020820152600061107260c083018a8c61102f565b828103604084015261108581898b61102f565b905086606084015282810360808401526110a081868861102f565b9150508260a08301529a9950505050505050505050565b6000602082840312156110c957600080fd5b81518015158114610d6557600080fd5b600181811c908216806110ed57607f821691505b6020821081141561110e57634e487b7160e01b600052602260045260246000fd5b50919050565b86815260806020820152600061112e60808301878961102f565b828103604084015261114181868861102f565b915050826060830152979650505050505050565b60408152600061116960408301858761102f565b90506001600160a01b0383166020830152949350505050565b60008251611194818460208701610cfa565b9190910192915050565b8054600090600181811c90808316806111b857607f831692505b60208084108214156111da57634e487b7160e01b600052602260045260246000fd5b838852602088018280156111f5576001811461120657611231565b60ff19871682528282019750611231565b60008981526020902060005b8781101561122b57815484820152908601908401611212565b83019850505b5050505050505092915050565b60006001600160a01b03808a16835260e0602084015261126160e084018a610d26565b8381036040850152611273818a61119e565b905083810360608501526112878189610d26565b9050838103608085015261129b8188610d26565b60a0850196909652509290921660c0909101525095945050505050565b6000602082840312156112ca57600080fd5b8151610d6581610f1f565b60a0815260006112e860a0830188610d26565b82810360208401526112fa818861119e565b9050828103604084015261130e8187610d26565b905082810360608401526113228186610d26565b9150508260808301529695505050505050565b6000806040838503121561134857600080fd5b823567ffffffffffffffff81111561135f57600080fd5b61136b85828601610e92565b925050602083013561137c81610f1f565b80915050925092905056fea2646970667358221220423df6f44476d4f6856a92b73b23f593e5b063bee8acaae6cad055ae2b1b66bc64736f6c63430008090033",
  "linkReferences": {},
  "deployedLinkReferences": {}
}