{
  "_format": "hh-sol-artifact-1",
  "contractName": "AxelarGatewayProxy",
  "sourceName": "@axelar-network/axelar-cgp-solidity/contracts/AxelarGatewayProxy.sol",
  "abi": [
    {
      "inputs": [
        {
          "internalType": "address",
          "name": "gatewayImplementation",
          "type": "address"
        },
        {
          "internalType": "bytes",
          "name": "params",
          "type": "bytes"
        }
      ],
      "stateMutability": "nonpayable",
      "type": "constructor"
    },
    {
      "inputs": [],
      "name": "InvalidImplementation",
      "type": "error"
    },
    {
      "inputs": [],
      "name": "SetupFailed",
      "type": "error"
    },
    {
      "stateMutability": "payable",
      "type": "fallback"
    },
    {
      "inputs": [
        {
          "internalType": "bytes32",
          "name": "key",
          "type": "bytes32"
        }
      ],
      "name": "getAddress",
      "outputs": [
        {
          "internalType": "address",
          "name": "",
          "type": "address"
        }
      ],
      "stateMutability": "view",
      "type": "function"
    },
    {
      "inputs": [
        {
          "internalType": "bytes32",
          "name": "key",
          "type": "bytes32"
        }
      ],
      "name": "getBool",
      "outputs": [
        {
          "internalType": "bool",
          "name": "",
          "type": "bool"
        }
      ],
      "stateMutability": "view",
      "type": "function"
    },
    {
      "inputs": [
        {
          "internalType": "bytes32",
          "name": "key",
          "type": "bytes32"
        }
      ],
      "name": "getBytes",
      "outputs": [
        {
          "internalType": "bytes",
          "name": "",
          "type": "bytes"
        }
      ],
      "stateMutability": "view",
      "type": "function"
    },
    {
      "inputs": [
        {
          "internalType": "bytes32",
          "name": "key",
          "type": "bytes32"
        }
      ],
      "name": "getInt",
      "outputs": [
        {
          "internalType": "int256",
          "name": "",
          "type": "int256"
        }
      ],
      "stateMutability": "view",
      "type": "function"
    },
    {
      "inputs": [
        {
          "internalType": "bytes32",
          "name": "key",
          "type": "bytes32"
        }
      ],
      "name": "getString",
      "outputs": [
        {
          "internalType": "string",
          "name": "",
          "type": "string"
        }
      ],
      "stateMutability": "view",
      "type": "function"
    },
    {
      "inputs": [
        {
          "internalType": "bytes32",
          "name": "key",
          "type": "bytes32"
        }
      ],
      "name": "getUint",
      "outputs": [
        {
          "internalType": "uint256",
          "name": "",
          "type": "uint256"
        }
      ],
      "stateMutability": "view",
      "type": "function"
    },
    {
      "inputs": [
        {
          "internalType": "bytes",
          "name": "params",
          "type": "bytes"
        }
      ],
      "name": "setup",
      "outputs": [],
      "stateMutability": "nonpayable",
      "type": "function"
    },
    {
      "stateMutability": "payable",
      "type": "receive"
    }
  ],
  "bytecode": "0x608060405234801561001057600080fd5b5060405161081d38038061081d83398101604081905261002f916101cd565b7f360894a13ba1a3210667c828492db98dca3e2076cc3735a920a3ca505d382bbc60005260026020527f11141f466c69fd409e1990e063b49cd6d61ed2ecff27a2e402e259ca6b9a01a380546001600160a01b0319166001600160a01b0384161790556001600160a01b0382163b6100ba5760405163340aafcd60e11b815260040160405180910390fd5b6000826001600160a01b0316639ded06df60e01b836040516024016100df919061029b565b60408051601f198184030181529181526020820180516001600160e01b03166001600160e01b031990941693909317909252905161011d91906102ce565b600060405180830381855af49150503d8060008114610158576040519150601f19603f3d011682016040523d82523d6000602084013e61015d565b606091505b505090508061017f576040516397905dfb60e01b815260040160405180910390fd5b5050506102ea565b634e487b7160e01b600052604160045260246000fd5b60005b838110156101b85781810151838201526020016101a0565b838111156101c7576000848401525b50505050565b600080604083850312156101e057600080fd5b82516001600160a01b03811681146101f757600080fd5b60208401519092506001600160401b038082111561021457600080fd5b818501915085601f83011261022857600080fd5b81518181111561023a5761023a610187565b604051601f8201601f19908116603f0116810190838211818310171561026257610262610187565b8160405282815288602084870101111561027b57600080fd5b61028c83602083016020880161019d565b80955050505050509250929050565b60208152600082518060208401526102ba81604085016020870161019d565b601f01601f19169190910160400192915050565b600082516102e081846020870161019d565b9190910192915050565b610524806102f96000396000f3fe6080604052600436106100745760003560e01c80639ded06df1161004e5780639ded06df14610240578063bd02d0f514610261578063c031a1801461029c578063dc97d962146102bc576100df565b806321f8a721146101665780637ae1cfca146101d3578063986e791a14610213576100df565b366100df576040517f08c379a000000000000000000000000000000000000000000000000000000000815260206004820152600860248201527f4e4f5f4554484552000000000000000000000000000000000000000000000000604482015260640160405180910390fd5b7f360894a13ba1a3210667c828492db98dca3e2076cc3735a920a3ca505d382bbc600090815260026020527f11141f466c69fd409e1990e063b49cd6d61ed2ecff27a2e402e259ca6b9a01a35473ffffffffffffffffffffffffffffffffffffffff169036908037600080366000845af43d6000803e808015610161573d6000f35b3d6000fd5b34801561017257600080fd5b506101a96101813660046103a8565b60009081526002602052604090205473ffffffffffffffffffffffffffffffffffffffff1690565b60405173ffffffffffffffffffffffffffffffffffffffff90911681526020015b60405180910390f35b3480156101df57600080fd5b506102036101ee3660046103a8565b60009081526004602052604090205460ff1690565b60405190151581526020016101ca565b34801561021f57600080fd5b5061023361022e3660046103a8565b6102e9565b6040516101ca919061040e565b34801561024c57600080fd5b5061025f61025b366004610428565b5050565b005b34801561026d57600080fd5b5061028e61027c3660046103a8565b60009081526020819052604090205490565b6040519081526020016101ca565b3480156102a857600080fd5b506102336102b73660046103a8565b61038b565b3480156102c857600080fd5b5061028e6102d73660046103a8565b60009081526005602052604090205490565b60008181526001602052604090208054606091906103069061049a565b80601f01602080910402602001604051908101604052809291908181526020018280546103329061049a565b801561037f5780601f106103545761010080835404028352916020019161037f565b820191906000526020600020905b81548152906001019060200180831161036257829003601f168201915b50505050509050919050565b60008181526003602052604090208054606091906103069061049a565b6000602082840312156103ba57600080fd5b5035919050565b6000815180845260005b818110156103e7576020818501810151868301820152016103cb565b818111156103f9576000602083870101525b50601f01601f19169290920160200192915050565b60208152600061042160208301846103c1565b9392505050565b6000806020838503121561043b57600080fd5b823567ffffffffffffffff8082111561045357600080fd5b818501915085601f83011261046757600080fd5b81358181111561047657600080fd5b86602082850101111561048857600080fd5b60209290920196919550909350505050565b600181811c908216806104ae57607f821691505b602082108114156104e8577f4e487b7100000000000000000000000000000000000000000000000000000000600052602260045260246000fd5b5091905056fea2646970667358221220da07925d887eb3a3e5cdb417a9a47311901fe909db7c0170b70bfd6b54e3f5d764736f6c63430008090033",
  "linkReferences": {},
  "deployedLinkReferences": {}
}