{
  "_format": "hh-sol-artifact-1",
  "contractName": "Executable",
  "sourceName": "src/contracts/test/Executable.sol",
  "abi": [
    {
      "inputs": [
        {
          "internalType": "address",
          "name": "gateway_",
          "type": "address"
        },
        {
          "internalType": "address",
          "name": "gasReceiver_",
          "type": "address"
        }
      ],
      "stateMutability": "nonpayable",
      "type": "constructor"
    },
    {
      "inputs": [],
      "name": "InvalidAddress",
      "type": "error"
    },
    {
      "inputs": [],
      "name": "NotApprovedByGateway",
      "type": "error"
    },
    {
      "inputs": [
        {
          "internalType": "string",
          "name": "chain_",
          "type": "string"
        },
        {
          "internalType": "string",
          "name": "address_",
          "type": "string"
        }
      ],
      "name": "addSibling",
      "outputs": [],
      "stateMutability": "nonpayable",
      "type": "function"
    },
    {
      "inputs": [
        {
          "internalType": "bytes32",
          "name": "commandId",
          "type": "bytes32"
        },
        {
          "internalType": "string",
          "name": "sourceChain",
          "type": "string"
        },
        {
          "internalType": "string",
          "name": "sourceAddress",
          "type": "string"
        },
        {
          "internalType": "bytes",
          "name": "payload",
          "type": "bytes"
        }
      ],
      "name": "execute",
      "outputs": [],
      "stateMutability": "nonpayable",
      "type": "function"
    },
    {
      "inputs": [
        {
          "internalType": "bytes32",
          "name": "commandId",
          "type": "bytes32"
        },
        {
          "internalType": "string",
          "name": "sourceChain",
          "type": "string"
        },
        {
          "internalType": "string",
          "name": "sourceAddress",
          "type": "string"
        },
        {
          "internalType": "bytes",
          "name": "payload",
          "type": "bytes"
        },
        {
          "internalType": "string",
          "name": "tokenSymbol",
          "type": "string"
        },
        {
          "internalType": "uint256",
          "name": "amount",
          "type": "uint256"
        }
      ],
      "name": "executeWithToken",
      "outputs": [],
      "stateMutability": "nonpayable",
      "type": "function"
    },
    {
      "inputs": [],
      "name": "gasReceiver",
      "outputs": [
        {
          "internalType": "contract IAxelarGasService",
          "name": "",
          "type": "address"
        }
      ],
      "stateMutability": "view",
      "type": "function"
    },
    {
      "inputs": [],
      "name": "gateway",
      "outputs": [
        {
          "internalType": "contract IAxelarGateway",
          "name": "",
          "type": "address"
        }
      ],
      "stateMutability": "view",
      "type": "function"
    },
    {
      "inputs": [
        {
          "internalType": "string",
          "name": "chain",
          "type": "string"
        },
        {
          "internalType": "string",
          "name": "value_",
          "type": "string"
        }
      ],
      "name": "set",
      "outputs": [],
      "stateMutability": "payable",
      "type": "function"
    },
    {
      "inputs": [
        {
          "internalType": "string",
          "name": "",
          "type": "string"
        }
      ],
      "name": "siblings",
      "outputs": [
        {
          "internalType": "string",
          "name": "",
          "type": "string"
        }
      ],
      "stateMutability": "view",
      "type": "function"
    },
    {
      "inputs": [],
      "name": "sourceAddress",
      "outputs": [
        {
          "internalType": "string",
          "name": "",
          "type": "string"
        }
      ],
      "stateMutability": "view",
      "type": "function"
    },
    {
      "inputs": [],
      "name": "sourceChain",
      "outputs": [
        {
          "internalType": "string",
          "name": "",
          "type": "string"
        }
      ],
      "stateMutability": "view",
      "type": "function"
    },
    {
      "inputs": [],
      "name": "value",
      "outputs": [
        {
          "internalType": "string",
          "name": "",
          "type": "string"
        }
      ],
      "stateMutability": "view",
      "type": "function"
    }
  ],
  "bytecode": "0x60c060405234801561001057600080fd5b5060405161100438038061100483398101604081905261002f9161008b565b816001600160a01b0381166100575760405163e6c4247b60e01b815260040160405180910390fd5b6001600160a01b039081166080521660a052506100be565b80516001600160a01b038116811461008657600080fd5b919050565b6000806040838503121561009e57600080fd5b6100a78361006f565b91506100b56020840161006f565b90509250929050565b60805160a051610f066100fe600039600081816101b2015261057401526000818160c8015281816102660152818161044101526106330152610f066000f3fe6080604052600436106100b15760003560e01c80634916065811610069578063a7798b691161004e578063a7798b69146101d4578063b0fa8444146101f4578063e942b5161461020957600080fd5b8063491606581461018057806380d14b4a146101a057600080fd5b80631c6ffa461161009a5780631c6ffa46146101295780633fa4f2451461014b57806345b48eb91461016057600080fd5b8063116191b6146100b65780631a98b2e014610107575b600080fd5b3480156100c257600080fd5b506100ea7f000000000000000000000000000000000000000000000000000000000000000081565b6040516001600160a01b0390911681526020015b60405180910390f35b34801561011357600080fd5b5061012761012236600461087f565b61021c565b005b34801561013557600080fd5b5061013e610327565b6040516100fe91906109b5565b34801561015757600080fd5b5061013e6103b5565b34801561016c57600080fd5b5061012761017b3660046109cf565b6103c2565b34801561018c57600080fd5b5061012761019b366004610a3b565b6103f7565b3480156101ac57600080fd5b506100ea7f000000000000000000000000000000000000000000000000000000000000000081565b3480156101e057600080fd5b5061013e6101ef366004610b82565b610507565b34801561020057600080fd5b5061013e61052b565b610127610217366004610bbf565b610538565b6000858560405161022e929190610c28565b6040519081900381207f1876eed900000000000000000000000000000000000000000000000000000000825291506001600160a01b037f00000000000000000000000000000000000000000000000000000000000000001690631876eed9906102ab908e908e908e908e908e9089908d908d908d90600401610c61565b602060405180830381600087803b1580156102c557600080fd5b505af11580156102d9573d6000803e3d6000fd5b505050506040513d601f19601f820116820180604052508101906102fd9190610cc0565b61031a57604051631403112d60e21b815260040160405180910390fd5b5050505050505050505050565b6001805461033490610ce2565b80601f016020809104026020016040519081016040528092919081815260200182805461036090610ce2565b80156103ad5780601f10610382576101008083540402835291602001916103ad565b820191906000526020600020905b81548152906001019060200180831161039057829003601f168201915b505050505081565b6000805461033490610ce2565b8181600386866040516103d6929190610c28565b9081526040519081900360200190206103f0929091610729565b5050505050565b60008282604051610409929190610c28565b6040519081900381207f5f6970c300000000000000000000000000000000000000000000000000000000825291506001600160a01b037f00000000000000000000000000000000000000000000000000000000000000001690635f6970c390610480908b908b908b908b908b908990600401610d1d565b602060405180830381600087803b15801561049a57600080fd5b505af11580156104ae573d6000803e3d6000fd5b505050506040513d601f19601f820116820180604052508101906104d29190610cc0565b6104ef57604051631403112d60e21b815260040160405180910390fd5b6104fd8787878787876106e6565b5050505050505050565b80516020818301810180516003825292820191909301209152805461033490610ce2565b6002805461033490610ce2565b61054460008383610729565b506000828260405160200161055a929190610d5e565b60408051601f1981840301815291905290503415610631577f00000000000000000000000000000000000000000000000000000000000000006001600160a01b0316630c93e3bb3430876003896040516105b49190610d72565b9081526040519081900360200181207fffffffff0000000000000000000000000000000000000000000000000000000060e087901b1682526105fe93929188903390600401610e2e565b6000604051808303818588803b15801561061757600080fd5b505af115801561062b573d6000803e3d6000fd5b50505050505b7f00000000000000000000000000000000000000000000000000000000000000006001600160a01b0316631c92115f856003876040516106719190610d72565b9081526040519081900360200181207fffffffff0000000000000000000000000000000000000000000000000000000060e085901b1682526106b892918690600401610e8d565b600060405180830381600087803b1580156106d257600080fd5b505af11580156104fd573d6000803e3d6000fd5b6106f281830183610b82565b8051610706916000916020909101906107ad565b5061071360018787610729565b5061072060028585610729565b50505050505050565b82805461073590610ce2565b90600052602060002090601f016020900481019282610757576000855561079d565b82601f106107705782800160ff1982351617855561079d565b8280016001018555821561079d579182015b8281111561079d578235825591602001919060010190610782565b506107a9929150610821565b5090565b8280546107b990610ce2565b90600052602060002090601f0160209004810192826107db576000855561079d565b82601f106107f457805160ff191683800117855561079d565b8280016001018555821561079d579182015b8281111561079d578251825591602001919060010190610806565b5b808211156107a95760008155600101610822565b60008083601f84011261084857600080fd5b50813567ffffffffffffffff81111561086057600080fd5b60208301915083602082850101111561087857600080fd5b9250929050565b60008060008060008060008060008060c08b8d03121561089e57600080fd5b8a35995060208b013567ffffffffffffffff808211156108bd57600080fd5b6108c98e838f01610836565b909b50995060408d01359150808211156108e257600080fd5b6108ee8e838f01610836565b909950975060608d013591508082111561090757600080fd5b6109138e838f01610836565b909750955060808d013591508082111561092c57600080fd5b506109398d828e01610836565b9150809450508092505060a08b013590509295989b9194979a5092959850565b60005b8381101561097457818101518382015260200161095c565b83811115610983576000848401525b50505050565b600081518084526109a1816020860160208601610959565b601f01601f19169290920160200192915050565b6020815260006109c86020830184610989565b9392505050565b600080600080604085870312156109e557600080fd5b843567ffffffffffffffff808211156109fd57600080fd5b610a0988838901610836565b90965094506020870135915080821115610a2257600080fd5b50610a2f87828801610836565b95989497509550505050565b60008060008060008060006080888a031215610a5657600080fd5b87359650602088013567ffffffffffffffff80821115610a7557600080fd5b610a818b838c01610836565b909850965060408a0135915080821115610a9a57600080fd5b610aa68b838c01610836565b909650945060608a0135915080821115610abf57600080fd5b50610acc8a828b01610836565b989b979a50959850939692959293505050565b634e487b7160e01b600052604160045260246000fd5b600082601f830112610b0657600080fd5b813567ffffffffffffffff80821115610b2157610b21610adf565b604051601f8301601f19908116603f01168101908282118183101715610b4957610b49610adf565b81604052838152866020858801011115610b6257600080fd5b836020870160208301376000602085830101528094505050505092915050565b600060208284031215610b9457600080fd5b813567ffffffffffffffff811115610bab57600080fd5b610bb784828501610af5565b949350505050565b600080600060408486031215610bd457600080fd5b833567ffffffffffffffff80821115610bec57600080fd5b610bf887838801610af5565b94506020860135915080821115610c0e57600080fd5b50610c1b86828701610836565b9497909650939450505050565b8183823760009101908152919050565b81835281816020850137506000828201602090810191909152601f909101601f19169091010190565b89815260c060208201526000610c7b60c083018a8c610c38565b8281036040840152610c8e81898b610c38565b90508660608401528281036080840152610ca9818688610c38565b9150508260a08301529a9950505050505050505050565b600060208284031215610cd257600080fd5b815180151581146109c857600080fd5b600181811c90821680610cf657607f821691505b60208210811415610d1757634e487b7160e01b600052602260045260246000fd5b50919050565b868152608060208201526000610d37608083018789610c38565b8281036040840152610d4a818688610c38565b915050826060830152979650505050505050565b602081526000610bb7602083018486610c38565b60008251610d84818460208701610959565b9190910192915050565b8054600090600181811c9080831680610da857607f831692505b6020808410821415610dca57634e487b7160e01b600052602260045260246000fd5b83885260208801828015610de55760018114610df657610e21565b60ff19871682528282019750610e21565b60008981526020902060005b87811015610e1b57815484820152908601908401610e02565b83019850505b5050505050505092915050565b60006001600160a01b03808816835260a06020840152610e5160a0840188610989565b8381036040850152610e638188610d8e565b90508381036060850152610e778187610989565b9250508084166080840152509695505050505050565b606081526000610ea06060830186610989565b8281036020840152610eb28186610d8e565b90508281036040840152610ec68185610989565b969550505050505056fea2646970667358221220e9fdd04c27e36d1cf527b81b6d3c14b90729d49e47f8223c035e290a1918d21164736f6c63430008090033",
  "linkReferences": {},
  "deployedLinkReferences": {}
}