{
  "_format": "hh-sol-artifact-1",
  "contractName": "Executable",
  "sourceName": "src/contracts/test/Executable.sol",
  "abi": [
    {
      "inputs": [
        {
          "internalType": "address",
          "name": "gateway_",
          "type": "address"
        },
        {
          "internalType": "address",
          "name": "gasReceiver_",
          "type": "address"
        }
      ],
      "stateMutability": "nonpayable",
      "type": "constructor"
    },
    {
      "inputs": [],
      "name": "NotApprovedByGateway",
      "type": "error"
    },
    {
      "inputs": [
        {
          "internalType": "string",
          "name": "chain_",
          "type": "string"
        },
        {
          "internalType": "string",
          "name": "address_",
          "type": "string"
        }
      ],
      "name": "addSibling",
      "outputs": [],
      "stateMutability": "nonpayable",
      "type": "function"
    },
    {
      "inputs": [
        {
          "internalType": "bytes32",
          "name": "commandId",
          "type": "bytes32"
        },
        {
          "internalType": "string",
          "name": "sourceChain",
          "type": "string"
        },
        {
          "internalType": "string",
          "name": "sourceAddress",
          "type": "string"
        },
        {
          "internalType": "bytes",
          "name": "payload",
          "type": "bytes"
        }
      ],
      "name": "execute",
      "outputs": [],
      "stateMutability": "nonpayable",
      "type": "function"
    },
    {
      "inputs": [
        {
          "internalType": "bytes32",
          "name": "commandId",
          "type": "bytes32"
        },
        {
          "internalType": "string",
          "name": "sourceChain",
          "type": "string"
        },
        {
          "internalType": "string",
          "name": "sourceAddress",
          "type": "string"
        },
        {
          "internalType": "bytes",
          "name": "payload",
          "type": "bytes"
        },
        {
          "internalType": "string",
          "name": "tokenSymbol",
          "type": "string"
        },
        {
          "internalType": "uint256",
          "name": "amount",
          "type": "uint256"
        }
      ],
      "name": "executeWithToken",
      "outputs": [],
      "stateMutability": "nonpayable",
      "type": "function"
    },
    {
      "inputs": [],
      "name": "gasReceiver",
      "outputs": [
        {
          "internalType": "contract IAxelarGasService",
          "name": "",
          "type": "address"
        }
      ],
      "stateMutability": "view",
      "type": "function"
    },
    {
      "inputs": [],
      "name": "gateway",
      "outputs": [
        {
          "internalType": "contract IAxelarGateway",
          "name": "",
          "type": "address"
        }
      ],
      "stateMutability": "view",
      "type": "function"
    },
    {
      "inputs": [
        {
          "internalType": "string",
          "name": "chain",
          "type": "string"
        },
        {
          "internalType": "string",
          "name": "value_",
          "type": "string"
        }
      ],
      "name": "set",
      "outputs": [],
      "stateMutability": "payable",
      "type": "function"
    },
    {
      "inputs": [
        {
          "internalType": "string",
          "name": "",
          "type": "string"
        }
      ],
      "name": "siblings",
      "outputs": [
        {
          "internalType": "string",
          "name": "",
          "type": "string"
        }
      ],
      "stateMutability": "view",
      "type": "function"
    },
    {
      "inputs": [],
      "name": "sourceAddress",
      "outputs": [
        {
          "internalType": "string",
          "name": "",
          "type": "string"
        }
      ],
      "stateMutability": "view",
      "type": "function"
    },
    {
      "inputs": [],
      "name": "sourceChain",
      "outputs": [
        {
          "internalType": "string",
          "name": "",
          "type": "string"
        }
      ],
      "stateMutability": "view",
      "type": "function"
    },
    {
      "inputs": [],
      "name": "value",
      "outputs": [
        {
          "internalType": "string",
          "name": "",
          "type": "string"
        }
      ],
      "stateMutability": "view",
      "type": "function"
    }
  ],
  "bytecode": "0x608060405234801561001057600080fd5b5060405161105738038061105783398101604081905261002f9161007c565b600080546001600160a01b039384166001600160a01b031991821617909155600480549290931691161790556100af565b80516001600160a01b038116811461007757600080fd5b919050565b6000806040838503121561008f57600080fd5b61009883610060565b91506100a660208401610060565b90509250929050565b610f99806100be6000396000f3fe6080604052600436106100b15760003560e01c80634916065811610069578063a7798b691161004e578063a7798b69146101ac578063b0fa8444146101cc578063e942b516146101e157600080fd5b8063491606581461016c57806380d14b4a1461018c57600080fd5b80631c6ffa461161009a5780631c6ffa46146101155780633fa4f2451461013757806345b48eb91461014c57600080fd5b8063116191b6146100b65780631a98b2e0146100f3575b600080fd5b3480156100c257600080fd5b506000546100d6906001600160a01b031681565b6040516001600160a01b0390911681526020015b60405180910390f35b3480156100ff57600080fd5b5061011361010e366004610912565b6101f4565b005b34801561012157600080fd5b5061012a61038f565b6040516100ea9190610a48565b34801561014357600080fd5b5061012a61041d565b34801561015857600080fd5b50610113610167366004610a62565b61042a565b34801561017857600080fd5b50610113610187366004610ace565b61045f565b34801561019857600080fd5b506004546100d6906001600160a01b031681565b3480156101b857600080fd5b5061012a6101c7366004610c15565b6105bb565b3480156101d857600080fd5b5061012a6105df565b6101136101ef366004610c52565b6105ec565b60008585604051610206929190610cbb565b6040519081900381206000547f1876eed90000000000000000000000000000000000000000000000000000000083529092506001600160a01b031690631876eed990610266908e908e908e908e908e9089908d908d908d90600401610cf4565b602060405180830381600087803b15801561028057600080fd5b505af1158015610294573d6000803e3d6000fd5b505050506040513d601f19601f820116820180604052508101906102b89190610d53565b6102d557604051631403112d60e21b815260040160405180910390fd5b6103828a8a8080601f01602080910402602001604051908101604052809392919081815260200183838082843760009201919091525050604080516020601f8e018190048102820181019092528c815292508c91508b908190840183828082843760009201919091525050604080516020601f8b018190048102820181019092528981528c93508b9250908a908a90819084018382808284376000920191909152508a925061076c915050565b5050505050505050505050565b6002805461039c90610d75565b80601f01602080910402602001604051908101604052809291908181526020018280546103c890610d75565b80156104155780601f106103ea57610100808354040283529160200191610415565b820191906000526020600020905b8154815290600101906020018083116103f857829003601f168201915b505050505081565b6001805461039c90610d75565b81816005868660405161043e929190610cbb565b9081526040519081900360200190206104589290916107bc565b5050505050565b60008282604051610471929190610cbb565b6040519081900381206000547f5f6970c30000000000000000000000000000000000000000000000000000000083529092506001600160a01b031690635f6970c3906104cb908b908b908b908b908b908990600401610db0565b602060405180830381600087803b1580156104e557600080fd5b505af11580156104f9573d6000803e3d6000fd5b505050506040513d601f19601f8201168201806040525081019061051d9190610d53565b61053a57604051631403112d60e21b815260040160405180910390fd5b6105b187878080601f01602080910402602001604051908101604052809392919081815260200183838082843760009201919091525050604080516020601f8b0181900481028201810190925289815292508991508890819084018382808284376000920191909152508892508791506107749050565b5050505050505050565b80516020818301810180516005825292820191909301209152805461039c90610d75565b6003805461039c90610d75565b6105f8600183836107bc565b506000828260405160200161060e929190610df1565b60408051601f19818403018152919052905034156106cf576004546040516001600160a01b0390911690630c93e3bb90349030908890600590610652908390610e05565b9081526040519081900360200181207fffffffff0000000000000000000000000000000000000000000000000000000060e087901b16825261069c93929188903390600401610ec1565b6000604051808303818588803b1580156106b557600080fd5b505af11580156106c9573d6000803e3d6000fd5b50505050505b6000546040516001600160a01b0390911690631c92115f9086906005906106f7908390610e05565b9081526040519081900360200181207fffffffff0000000000000000000000000000000000000000000000000000000060e085901b16825261073e92918690600401610f20565b600060405180830381600087803b15801561075857600080fd5b505af11580156105b1573d6000803e3d6000fd5b505050505050565b61078081830183610c15565b805161079491600191602090910190610840565b5083516107a8906002906020870190610840565b508251610458906003906020860190610840565b8280546107c890610d75565b90600052602060002090601f0160209004810192826107ea5760008555610830565b82601f106108035782800160ff19823516178555610830565b82800160010185558215610830579182015b82811115610830578235825591602001919060010190610815565b5061083c9291506108b4565b5090565b82805461084c90610d75565b90600052602060002090601f01602090048101928261086e5760008555610830565b82601f1061088757805160ff1916838001178555610830565b82800160010185558215610830579182015b82811115610830578251825591602001919060010190610899565b5b8082111561083c57600081556001016108b5565b60008083601f8401126108db57600080fd5b50813567ffffffffffffffff8111156108f357600080fd5b60208301915083602082850101111561090b57600080fd5b9250929050565b60008060008060008060008060008060c08b8d03121561093157600080fd5b8a35995060208b013567ffffffffffffffff8082111561095057600080fd5b61095c8e838f016108c9565b909b50995060408d013591508082111561097557600080fd5b6109818e838f016108c9565b909950975060608d013591508082111561099a57600080fd5b6109a68e838f016108c9565b909750955060808d01359150808211156109bf57600080fd5b506109cc8d828e016108c9565b9150809450508092505060a08b013590509295989b9194979a5092959850565b60005b83811015610a075781810151838201526020016109ef565b83811115610a16576000848401525b50505050565b60008151808452610a348160208601602086016109ec565b601f01601f19169290920160200192915050565b602081526000610a5b6020830184610a1c565b9392505050565b60008060008060408587031215610a7857600080fd5b843567ffffffffffffffff80821115610a9057600080fd5b610a9c888389016108c9565b90965094506020870135915080821115610ab557600080fd5b50610ac2878288016108c9565b95989497509550505050565b60008060008060008060006080888a031215610ae957600080fd5b87359650602088013567ffffffffffffffff80821115610b0857600080fd5b610b148b838c016108c9565b909850965060408a0135915080821115610b2d57600080fd5b610b398b838c016108c9565b909650945060608a0135915080821115610b5257600080fd5b50610b5f8a828b016108c9565b989b979a50959850939692959293505050565b634e487b7160e01b600052604160045260246000fd5b600082601f830112610b9957600080fd5b813567ffffffffffffffff80821115610bb457610bb4610b72565b604051601f8301601f19908116603f01168101908282118183101715610bdc57610bdc610b72565b81604052838152866020858801011115610bf557600080fd5b836020870160208301376000602085830101528094505050505092915050565b600060208284031215610c2757600080fd5b813567ffffffffffffffff811115610c3e57600080fd5b610c4a84828501610b88565b949350505050565b600080600060408486031215610c6757600080fd5b833567ffffffffffffffff80821115610c7f57600080fd5b610c8b87838801610b88565b94506020860135915080821115610ca157600080fd5b50610cae868287016108c9565b9497909650939450505050565b8183823760009101908152919050565b81835281816020850137506000828201602090810191909152601f909101601f19169091010190565b89815260c060208201526000610d0e60c083018a8c610ccb565b8281036040840152610d2181898b610ccb565b90508660608401528281036080840152610d3c818688610ccb565b9150508260a08301529a9950505050505050505050565b600060208284031215610d6557600080fd5b81518015158114610a5b57600080fd5b600181811c90821680610d8957607f821691505b60208210811415610daa57634e487b7160e01b600052602260045260246000fd5b50919050565b868152608060208201526000610dca608083018789610ccb565b8281036040840152610ddd818688610ccb565b915050826060830152979650505050505050565b602081526000610c4a602083018486610ccb565b60008251610e178184602087016109ec565b9190910192915050565b8054600090600181811c9080831680610e3b57607f831692505b6020808410821415610e5d57634e487b7160e01b600052602260045260246000fd5b83885260208801828015610e785760018114610e8957610eb4565b60ff19871682528282019750610eb4565b60008981526020902060005b87811015610eae57815484820152908601908401610e95565b83019850505b5050505050505092915050565b60006001600160a01b03808816835260a06020840152610ee460a0840188610a1c565b8381036040850152610ef68188610e21565b90508381036060850152610f0a8187610a1c565b9250508084166080840152509695505050505050565b606081526000610f336060830186610a1c565b8281036020840152610f458186610e21565b90508281036040840152610f598185610a1c565b969550505050505056fea2646970667358221220545371037fa224d924417ac4a807b3d9f405c5217172fe594583d0fe32f28a5b64736f6c63430008090033",
  "linkReferences": {},
  "deployedLinkReferences": {}
}