{
  "abi": [
    {
      "inputs": [
        {
          "internalType": "address",
          "name": "authModule",
          "type": "address"
        },
        {
          "internalType": "address",
          "name": "tokenDeployerImplementation",
          "type": "address"
        }
      ],
      "stateMutability": "nonpayable",
      "type": "constructor"
    },
    {
      "inputs": [],
      "name": "AlreadyVoted",
      "type": "error"
    },
    {
      "inputs": [
        {
          "internalType": "string",
          "name": "symbol",
          "type": "string"
        }
      ],
      "name": "BurnFailed",
      "type": "error"
    },
    {
      "inputs": [
        {
          "internalType": "address",
          "name": "admin",
          "type": "address"
        }
      ],
      "name": "DuplicateAdmin",
      "type": "error"
    },
    {
      "inputs": [
        {
          "internalType": "string",
          "name": "symbol",
          "type": "string"
        }
      ],
      "name": "ExceedDailyMintLimit",
      "type": "error"
    },
    {
      "inputs": [],
      "name": "InvalidAdminThreshold",
      "type": "error"
    },
    {
      "inputs": [],
      "name": "InvalidAdmins",
      "type": "error"
    },
    {
      "inputs": [],
      "name": "InvalidAmount",
      "type": "error"
    },
    {
      "inputs": [],
      "name": "InvalidAuthModule",
      "type": "error"
    },
    {
      "inputs": [],
      "name": "InvalidChainId",
      "type": "error"
    },
    {
      "inputs": [],
      "name": "InvalidCodeHash",
      "type": "error"
    },
    {
      "inputs": [],
      "name": "InvalidCommands",
      "type": "error"
    },
    {
      "inputs": [],
      "name": "InvalidSetDailyMintLimitsParams",
      "type": "error"
    },
    {
      "inputs": [],
      "name": "InvalidTokenDeployer",
      "type": "error"
    },
    {
      "inputs": [
        {
          "internalType": "string",
          "name": "symbol",
          "type": "string"
        }
      ],
      "name": "MintFailed",
      "type": "error"
    },
    {
      "inputs": [],
      "name": "NotAdmin",
      "type": "error"
    },
    {
      "inputs": [],
      "name": "NotProxy",
      "type": "error"
    },
    {
      "inputs": [],
      "name": "NotSelf",
      "type": "error"
    },
    {
      "inputs": [],
      "name": "SetupFailed",
      "type": "error"
    },
    {
      "inputs": [
        {
          "internalType": "string",
          "name": "symbol",
          "type": "string"
        }
      ],
      "name": "TokenAlreadyExists",
      "type": "error"
    },
    {
      "inputs": [
        {
          "internalType": "address",
          "name": "token",
          "type": "address"
        }
      ],
      "name": "TokenContractDoesNotExist",
      "type": "error"
    },
    {
      "inputs": [
        {
          "internalType": "string",
          "name": "symbol",
          "type": "string"
        }
      ],
      "name": "TokenDeployFailed",
      "type": "error"
    },
    {
      "inputs": [
        {
          "internalType": "string",
          "name": "symbol",
          "type": "string"
        }
      ],
      "name": "TokenDoesNotExist",
      "type": "error"
    },
    {
      "anonymous": false,
      "inputs": [
        {
          "indexed": true,
          "internalType": "address",
          "name": "sender",
          "type": "address"
        },
        {
          "indexed": false,
          "internalType": "string",
          "name": "destinationChain",
          "type": "string"
        },
        {
          "indexed": false,
          "internalType": "string",
          "name": "destinationContractAddress",
          "type": "string"
        },
        {
          "indexed": true,
          "internalType": "bytes32",
          "name": "payloadHash",
          "type": "bytes32"
        },
        {
          "indexed": false,
          "internalType": "bytes",
          "name": "payload",
          "type": "bytes"
        }
      ],
      "name": "ContractCall",
      "type": "event"
    },
    {
      "anonymous": false,
      "inputs": [
        {
          "indexed": true,
          "internalType": "bytes32",
          "name": "commandId",
          "type": "bytes32"
        },
        {
          "indexed": false,
          "internalType": "string",
          "name": "sourceChain",
          "type": "string"
        },
        {
          "indexed": false,
          "internalType": "string",
          "name": "sourceAddress",
          "type": "string"
        },
        {
          "indexed": true,
          "internalType": "address",
          "name": "contractAddress",
          "type": "address"
        },
        {
          "indexed": true,
          "internalType": "bytes32",
          "name": "payloadHash",
          "type": "bytes32"
        },
        {
          "indexed": false,
          "internalType": "bytes32",
          "name": "sourceTxHash",
          "type": "bytes32"
        },
        {
          "indexed": false,
          "internalType": "uint256",
          "name": "sourceEventIndex",
          "type": "uint256"
        }
      ],
      "name": "ContractCallApproved",
      "type": "event"
    },
    {
      "anonymous": false,
      "inputs": [
        {
          "indexed": true,
          "internalType": "bytes32",
          "name": "commandId",
          "type": "bytes32"
        },
        {
          "indexed": false,
          "internalType": "string",
          "name": "sourceChain",
          "type": "string"
        },
        {
          "indexed": false,
          "internalType": "string",
          "name": "sourceAddress",
          "type": "string"
        },
        {
          "indexed": true,
          "internalType": "address",
          "name": "contractAddress",
          "type": "address"
        },
        {
          "indexed": true,
          "internalType": "bytes32",
          "name": "payloadHash",
          "type": "bytes32"
        },
        {
          "indexed": false,
          "internalType": "string",
          "name": "symbol",
          "type": "string"
        },
        {
          "indexed": false,
          "internalType": "uint256",
          "name": "amount",
          "type": "uint256"
        },
        {
          "indexed": false,
          "internalType": "bytes32",
          "name": "sourceTxHash",
          "type": "bytes32"
        },
        {
          "indexed": false,
          "internalType": "uint256",
          "name": "sourceEventIndex",
          "type": "uint256"
        }
      ],
      "name": "ContractCallApprovedWithMint",
      "type": "event"
    },
    {
      "anonymous": false,
      "inputs": [
        {
          "indexed": true,
          "internalType": "address",
          "name": "sender",
          "type": "address"
        },
        {
          "indexed": false,
          "internalType": "string",
          "name": "destinationChain",
          "type": "string"
        },
        {
          "indexed": false,
          "internalType": "string",
          "name": "destinationContractAddress",
          "type": "string"
        },
        {
          "indexed": true,
          "internalType": "bytes32",
          "name": "payloadHash",
          "type": "bytes32"
        },
        {
          "indexed": false,
          "internalType": "bytes",
          "name": "payload",
          "type": "bytes"
        },
        {
          "indexed": false,
          "internalType": "string",
          "name": "symbol",
          "type": "string"
        },
        {
          "indexed": false,
          "internalType": "uint256",
          "name": "amount",
          "type": "uint256"
        }
      ],
      "name": "ContractCallWithToken",
      "type": "event"
    },
    {
      "anonymous": false,
      "inputs": [
        {
          "indexed": true,
          "internalType": "bytes32",
          "name": "commandId",
          "type": "bytes32"
        }
      ],
      "name": "Executed",
      "type": "event"
    },
    {
      "anonymous": false,
      "inputs": [
        {
          "indexed": false,
          "internalType": "bytes",
          "name": "newOperatorsData",
          "type": "bytes"
        }
      ],
      "name": "OperatorshipTransferred",
      "type": "event"
    },
    {
      "anonymous": false,
      "inputs": [
        {
          "indexed": false,
          "internalType": "string",
          "name": "symbol",
          "type": "string"
        },
        {
          "indexed": false,
          "internalType": "uint256",
          "name": "limit",
          "type": "uint256"
        }
      ],
      "name": "TokenDailyMintLimitUpdated",
      "type": "event"
    },
    {
      "anonymous": false,
      "inputs": [
        {
          "indexed": false,
          "internalType": "string",
          "name": "symbol",
          "type": "string"
        },
        {
          "indexed": false,
          "internalType": "address",
          "name": "tokenAddresses",
          "type": "address"
        }
      ],
      "name": "TokenDeployed",
      "type": "event"
    },
    {
      "anonymous": false,
      "inputs": [
        {
          "indexed": true,
          "internalType": "address",
          "name": "sender",
          "type": "address"
        },
        {
          "indexed": false,
          "internalType": "string",
          "name": "destinationChain",
          "type": "string"
        },
        {
          "indexed": false,
          "internalType": "string",
          "name": "destinationAddress",
          "type": "string"
        },
        {
          "indexed": false,
          "internalType": "string",
          "name": "symbol",
          "type": "string"
        },
        {
          "indexed": false,
          "internalType": "uint256",
          "name": "amount",
          "type": "uint256"
        }
      ],
      "name": "TokenSent",
      "type": "event"
    },
    {
      "anonymous": false,
      "inputs": [
        {
          "indexed": true,
          "internalType": "address",
          "name": "implementation",
          "type": "address"
        }
      ],
      "name": "Upgraded",
      "type": "event"
    },
    {
      "inputs": [
        {
          "internalType": "bytes",
          "name": "executeData",
          "type": "bytes"
        }
      ],
      "name": "_unpackLegacyCommands",
      "outputs": [
        {
          "internalType": "uint256",
          "name": "chainId",
          "type": "uint256"
        },
        {
          "internalType": "bytes32[]",
          "name": "commandIds",
          "type": "bytes32[]"
        },
        {
          "internalType": "string[]",
          "name": "commands",
          "type": "string[]"
        },
        {
          "internalType": "bytes[]",
          "name": "params",
          "type": "bytes[]"
        }
      ],
      "stateMutability": "pure",
      "type": "function"
    },
    {
      "inputs": [],
      "name": "adminEpoch",
      "outputs": [
        {
          "internalType": "uint256",
          "name": "",
          "type": "uint256"
        }
      ],
      "stateMutability": "view",
      "type": "function"
    },
    {
      "inputs": [
        {
          "internalType": "uint256",
          "name": "epoch",
          "type": "uint256"
        }
      ],
      "name": "adminThreshold",
      "outputs": [
        {
          "internalType": "uint256",
          "name": "",
          "type": "uint256"
        }
      ],
      "stateMutability": "view",
      "type": "function"
    },
    {
      "inputs": [
        {
          "internalType": "uint256",
          "name": "epoch",
          "type": "uint256"
        }
      ],
      "name": "admins",
      "outputs": [
        {
          "internalType": "address[]",
          "name": "results",
          "type": "address[]"
        }
      ],
      "stateMutability": "view",
      "type": "function"
    },
    {
      "inputs": [],
      "name": "allTokensFrozen",
      "outputs": [
        {
          "internalType": "bool",
          "name": "",
          "type": "bool"
        }
      ],
      "stateMutability": "pure",
      "type": "function"
    },
    {
      "inputs": [
        {
          "internalType": "bytes",
          "name": "params",
          "type": "bytes"
        },
        {
          "internalType": "bytes32",
          "name": "commandId",
          "type": "bytes32"
        }
      ],
      "name": "approveContractCall",
      "outputs": [],
      "stateMutability": "nonpayable",
      "type": "function"
    },
    {
      "inputs": [
        {
          "internalType": "bytes",
          "name": "params",
          "type": "bytes"
        },
        {
          "internalType": "bytes32",
          "name": "commandId",
          "type": "bytes32"
        }
      ],
      "name": "approveContractCallWithMint",
      "outputs": [],
      "stateMutability": "nonpayable",
      "type": "function"
    },
    {
      "inputs": [
        {
          "internalType": "bytes",
          "name": "params",
          "type": "bytes"
        },
        {
          "internalType": "bytes32",
          "name": "",
          "type": "bytes32"
        }
      ],
      "name": "burnToken",
      "outputs": [],
      "stateMutability": "nonpayable",
      "type": "function"
    },
    {
      "inputs": [
        {
          "internalType": "string",
          "name": "destinationChain",
          "type": "string"
        },
        {
          "internalType": "string",
          "name": "destinationContractAddress",
          "type": "string"
        },
        {
          "internalType": "bytes",
          "name": "payload",
          "type": "bytes"
        }
      ],
      "name": "callContract",
      "outputs": [],
      "stateMutability": "nonpayable",
      "type": "function"
    },
    {
      "inputs": [
        {
          "internalType": "string",
          "name": "destinationChain",
          "type": "string"
        },
        {
          "internalType": "string",
          "name": "destinationContractAddress",
          "type": "string"
        },
        {
          "internalType": "bytes",
          "name": "payload",
          "type": "bytes"
        },
        {
          "internalType": "string",
          "name": "symbol",
          "type": "string"
        },
        {
          "internalType": "uint256",
          "name": "amount",
          "type": "uint256"
        }
      ],
      "name": "callContractWithToken",
      "outputs": [],
      "stateMutability": "nonpayable",
      "type": "function"
    },
    {
      "inputs": [
        {
          "internalType": "bytes",
          "name": "params",
          "type": "bytes"
        },
        {
          "internalType": "bytes32",
          "name": "",
          "type": "bytes32"
        }
      ],
      "name": "deployToken",
      "outputs": [],
      "stateMutability": "nonpayable",
      "type": "function"
    },
    {
      "inputs": [
        {
          "internalType": "bytes",
          "name": "input",
          "type": "bytes"
        }
      ],
      "name": "execute",
      "outputs": [],
      "stateMutability": "nonpayable",
      "type": "function"
    },
    {
      "inputs": [
        {
          "internalType": "bytes32",
          "name": "key",
          "type": "bytes32"
        }
      ],
      "name": "getAddress",
      "outputs": [
        {
          "internalType": "address",
          "name": "",
          "type": "address"
        }
      ],
      "stateMutability": "view",
      "type": "function"
    },
    {
      "inputs": [
        {
          "internalType": "bytes32",
          "name": "key",
          "type": "bytes32"
        }
      ],
      "name": "getBool",
      "outputs": [
        {
          "internalType": "bool",
          "name": "",
          "type": "bool"
        }
      ],
      "stateMutability": "view",
      "type": "function"
    },
    {
      "inputs": [
        {
          "internalType": "bytes32",
          "name": "key",
          "type": "bytes32"
        }
      ],
      "name": "getBytes",
      "outputs": [
        {
          "internalType": "bytes",
          "name": "",
          "type": "bytes"
        }
      ],
      "stateMutability": "view",
      "type": "function"
    },
    {
      "inputs": [
        {
          "internalType": "bytes32",
          "name": "key",
          "type": "bytes32"
        }
      ],
      "name": "getInt",
      "outputs": [
        {
          "internalType": "int256",
          "name": "",
          "type": "int256"
        }
      ],
      "stateMutability": "view",
      "type": "function"
    },
    {
      "inputs": [
        {
          "internalType": "bytes32",
          "name": "key",
          "type": "bytes32"
        }
      ],
      "name": "getString",
      "outputs": [
        {
          "internalType": "string",
          "name": "",
          "type": "string"
        }
      ],
      "stateMutability": "view",
      "type": "function"
    },
    {
      "inputs": [
        {
          "internalType": "bytes32",
          "name": "key",
          "type": "bytes32"
        }
      ],
      "name": "getUint",
      "outputs": [
        {
          "internalType": "uint256",
          "name": "",
          "type": "uint256"
        }
      ],
      "stateMutability": "view",
      "type": "function"
    },
    {
      "inputs": [],
      "name": "implementation",
      "outputs": [
        {
          "internalType": "address",
          "name": "",
          "type": "address"
        }
      ],
      "stateMutability": "view",
      "type": "function"
    },
    {
      "inputs": [
        {
          "internalType": "bytes32",
          "name": "commandId",
          "type": "bytes32"
        }
      ],
      "name": "isCommandExecuted",
      "outputs": [
        {
          "internalType": "bool",
          "name": "",
          "type": "bool"
        }
      ],
      "stateMutability": "view",
      "type": "function"
    },
    {
      "inputs": [
        {
          "internalType": "bytes32",
          "name": "commandId",
          "type": "bytes32"
        },
        {
          "internalType": "string",
          "name": "sourceChain",
          "type": "string"
        },
        {
          "internalType": "string",
          "name": "sourceAddress",
          "type": "string"
        },
        {
          "internalType": "address",
          "name": "contractAddress",
          "type": "address"
        },
        {
          "internalType": "bytes32",
          "name": "payloadHash",
          "type": "bytes32"
        },
        {
          "internalType": "string",
          "name": "symbol",
          "type": "string"
        },
        {
          "internalType": "uint256",
          "name": "amount",
          "type": "uint256"
        }
      ],
      "name": "isContractCallAndMintApproved",
      "outputs": [
        {
          "internalType": "bool",
          "name": "",
          "type": "bool"
        }
      ],
      "stateMutability": "view",
      "type": "function"
    },
    {
      "inputs": [
        {
          "internalType": "bytes32",
          "name": "commandId",
          "type": "bytes32"
        },
        {
          "internalType": "string",
          "name": "sourceChain",
          "type": "string"
        },
        {
          "internalType": "string",
          "name": "sourceAddress",
          "type": "string"
        },
        {
          "internalType": "address",
          "name": "contractAddress",
          "type": "address"
        },
        {
          "internalType": "bytes32",
          "name": "payloadHash",
          "type": "bytes32"
        }
      ],
      "name": "isContractCallApproved",
      "outputs": [
        {
          "internalType": "bool",
          "name": "",
          "type": "bool"
        }
      ],
      "stateMutability": "view",
      "type": "function"
    },
    {
      "inputs": [
        {
          "internalType": "bytes",
          "name": "params",
          "type": "bytes"
        },
        {
          "internalType": "bytes32",
          "name": "",
          "type": "bytes32"
        }
      ],
      "name": "mintToken",
      "outputs": [],
      "stateMutability": "nonpayable",
      "type": "function"
    },
    {
      "inputs": [
        {
          "internalType": "string",
          "name": "destinationChain",
          "type": "string"
        },
        {
          "internalType": "string",
          "name": "destinationAddress",
          "type": "string"
        },
        {
          "internalType": "string",
          "name": "symbol",
          "type": "string"
        },
        {
          "internalType": "uint256",
          "name": "amount",
          "type": "uint256"
        }
      ],
      "name": "sendToken",
      "outputs": [],
      "stateMutability": "nonpayable",
      "type": "function"
    },
    {
      "inputs": [
        {
          "internalType": "string[]",
          "name": "symbols",
          "type": "string[]"
        },
        {
          "internalType": "uint256[]",
          "name": "limits",
          "type": "uint256[]"
        }
      ],
      "name": "setTokenDailyMintLimits",
      "outputs": [],
      "stateMutability": "nonpayable",
      "type": "function"
    },
    {
      "inputs": [
        {
          "internalType": "bytes",
          "name": "params",
          "type": "bytes"
        }
      ],
      "name": "setup",
      "outputs": [],
      "stateMutability": "nonpayable",
      "type": "function"
    },
    {
      "inputs": [
        {
          "internalType": "string",
          "name": "symbol",
          "type": "string"
        }
      ],
      "name": "tokenAddresses",
      "outputs": [
        {
          "internalType": "address",
          "name": "",
          "type": "address"
        }
      ],
      "stateMutability": "view",
      "type": "function"
    },
    {
      "inputs": [
        {
          "internalType": "string",
          "name": "symbol",
          "type": "string"
        }
      ],
      "name": "tokenDailyMintAmount",
      "outputs": [
        {
          "internalType": "uint256",
          "name": "",
          "type": "uint256"
        }
      ],
      "stateMutability": "view",
      "type": "function"
    },
    {
      "inputs": [
        {
          "internalType": "string",
          "name": "symbol",
          "type": "string"
        }
      ],
      "name": "tokenDailyMintLimit",
      "outputs": [
        {
          "internalType": "uint256",
          "name": "",
          "type": "uint256"
        }
      ],
      "stateMutability": "view",
      "type": "function"
    },
    {
      "inputs": [
        {
          "internalType": "string",
          "name": "",
          "type": "string"
        }
      ],
      "name": "tokenFrozen",
      "outputs": [
        {
          "internalType": "bool",
          "name": "",
          "type": "bool"
        }
      ],
      "stateMutability": "pure",
      "type": "function"
    },
    {
      "inputs": [
        {
          "internalType": "bytes",
          "name": "newOperatorsData",
          "type": "bytes"
        },
        {
          "internalType": "bytes32",
          "name": "",
          "type": "bytes32"
        }
      ],
      "name": "transferOperatorship",
      "outputs": [],
      "stateMutability": "nonpayable",
      "type": "function"
    },
    {
      "inputs": [
        {
          "internalType": "address",
          "name": "newImplementation",
          "type": "address"
        },
        {
          "internalType": "bytes32",
          "name": "newImplementationCodeHash",
          "type": "bytes32"
        },
        {
          "internalType": "bytes",
          "name": "setupParams",
          "type": "bytes"
        }
      ],
      "name": "upgrade",
      "outputs": [],
      "stateMutability": "nonpayable",
      "type": "function"
    },
    {
      "inputs": [
        {
          "internalType": "bytes32",
          "name": "commandId",
          "type": "bytes32"
        },
        {
          "internalType": "string",
          "name": "sourceChain",
          "type": "string"
        },
        {
          "internalType": "string",
          "name": "sourceAddress",
          "type": "string"
        },
        {
          "internalType": "bytes32",
          "name": "payloadHash",
          "type": "bytes32"
        }
      ],
      "name": "validateContractCall",
      "outputs": [
        {
          "internalType": "bool",
          "name": "valid",
          "type": "bool"
        }
      ],
      "stateMutability": "nonpayable",
      "type": "function"
    },
    {
      "inputs": [
        {
          "internalType": "bytes32",
          "name": "commandId",
          "type": "bytes32"
        },
        {
          "internalType": "string",
          "name": "sourceChain",
          "type": "string"
        },
        {
          "internalType": "string",
          "name": "sourceAddress",
          "type": "string"
        },
        {
          "internalType": "bytes32",
          "name": "payloadHash",
          "type": "bytes32"
        },
        {
          "internalType": "string",
          "name": "symbol",
          "type": "string"
        },
        {
          "internalType": "uint256",
          "name": "amount",
          "type": "uint256"
        }
      ],
      "name": "validateContractCallAndMint",
      "outputs": [
        {
          "internalType": "bool",
          "name": "valid",
          "type": "bool"
        }
      ],
      "stateMutability": "nonpayable",
      "type": "function"
    }
  ],
  "evm": {
    "bytecode": {
      "linkReferences": {},
      "object": "60c06040523480156200001157600080fd5b5060405162004f8138038062004f818339810160408190526200003491620000bb565b6001600160a01b0382163b6200005d5760405163735326ab60e01b815260040160405180910390fd5b6001600160a01b0381163b6200008657604051630c84dabf60e31b815260040160405180910390fd5b6001600160a01b039182166080521660a052620000f3565b80516001600160a01b0381168114620000b657600080fd5b919050565b60008060408385031215620000cf57600080fd5b620000da836200009e565b9150620000ea602084016200009e565b90509250929050565b60805160a051614e5a6200012760003960006115cc0152600081816105b7015281816118580152611b480152614e5a6000f3fe608060405234801561001057600080fd5b50600436106102265760003560e01c806388b305871161012a578063bc00c216116100bd578063dc97d9621161008c578063f6a5f9f511610071578063f6a5f9f514610543578063f871f14e14610556578063fbe0a31b1461057957600080fd5b8063dc97d96214610510578063f6789c8c1461053057600080fd5b8063bc00c216146104b7578063bd02d0f5146104ca578063c031a180146104ea578063d26ff210146104fd57600080fd5b80639ded06df116100f95780639ded06df14610477578063a3499c731461048a578063aa1e1f0a1461049d578063b5417084146104a457600080fd5b806388b305871461041e578063935b13f61461043157806397b87ba614610444578063986e791a1461045757600080fd5b8063364940d8116101bd5780635dde81171161018c5780637ae1cfca116101715780637ae1cfca146103d45780637b1b769e146103f7578063886a625d1461040b57600080fd5b80635dde8117146103ae5780635f6970c3146103c157600080fd5b8063364940d8146103275780634656ae2e1461032f578063585a9fd4146103425780635c60da1b1461035557600080fd5b80631c92115f116101f95780631c92115f1461029f57806321f8a721146102b257806323275548146102f357806326ef699d1461031457600080fd5b806309c5eabe1461022b578063146e2d781461024057806314bfd6d0146102535780631876eed91461027c575b600080fd5b61023e610239366004613427565b61058c565b005b61023e61024e366004613469565b610b5c565b6102666102613660046134b5565b610bbe565b60405161027391906134ce565b60405180910390f35b61028f61028a36600461351b565b610c68565b6040519015158152602001610273565b61023e6102ad3660046135d0565b610dba565b6102db6102c03660046134b5565b6000908152600260205260409020546001600160a01b031690565b6040516001600160a01b039091168152602001610273565b610306610301366004613748565b610e25565b604051908152602001610273565b61023e61032236600461377d565b610e46565b610306610ede565b61023e61033d366004613469565b610f36565b61023e610350366004613469565b611334565b7f360894a13ba1a3210667c828492db98dca3e2076cc3735a920a3ca505d382bbc60005260026020527f11141f466c69fd409e1990e063b49cd6d61ed2ecff27a2e402e259ca6b9a01a3546001600160a01b03166102db565b6103066103bc366004613748565b6113fb565b61028f6103cf366004613820565b611409565b61028f6103e23660046134b5565b60009081526004602052604090205460ff1690565b61028f610405366004613748565b50600090565b61023e610419366004613469565b6114e0565b61030661042c3660046134b5565b6117d6565b6102db61043f366004613748565b6117e1565b61023e610452366004613469565b6117ef565b61046a6104653660046134b5565b6118ff565b60405161027391906138fa565b61023e610485366004613427565b6119a1565b61023e610498366004613922565b611bee565b600061028f565b61023e6104b236600461397e565b611f8f565b61028f6104c5366004613a4a565b612045565b6103066104d83660046134b5565b60009081526020819052604090205490565b61046a6104f83660046134b5565b612118565b61028f61050b3660046134b5565b612135565b61030661051e3660046134b5565b60009081526005602052604090205490565b61023e61053e366004613b5d565b612143565b61028f610551366004613bbd565b6123f8565b610569610564366004613748565b612481565b6040516102739493929190613ca9565b61023e610587366004613469565b6124ad565b60008061059b83850185613d4f565b9150915060006105b18380519060200120612566565b905060007f00000000000000000000000000000000000000000000000000000000000000006001600160a01b03166373e3d66a83856040518363ffffffff1660e01b8152600401610603929190613db3565b602060405180830381600087803b15801561061d57600080fd5b505af1158015610631573d6000803e3d6000fd5b505050506040513d601f19601f820116820180604052508101906106559190613de1565b905060006060806060306001600160a01b031663f871f14e896040518263ffffffff1660e01b815260040161068a91906138fa565b60006040518083038186803b1580156106a257600080fd5b505afa9250505080156106d757506040513d6000823e601f3d908101601f191682016040526106d49190810190613fe0565b60015b6106fe57878060200190518101906106ef9190613fe0565b92965090945092509050610709565b929650909450925090505b468414610742576040517f7a47c9a200000000000000000000000000000000000000000000000000000000815260040160405180910390fd5b8251825181141580610755575081518114155b1561078c576040517fca9a28f500000000000000000000000000000000000000000000000000000000815260040160405180910390fd5b60005b81811015610b4e5760008582815181106107ab576107ab614072565b602002602001015190506107be81612135565b156107c95750610b3e565b6000808684815181106107de576107de614072565b60200260200101516040516020016107f691906140a1565b6040516020818303038152906040528051906020012090507f5763814b98a3aa86f212797af3273868b5dd6e2a532d764a79b98ca859e7bbad81141561085e577f886a625d000000000000000000000000000000000000000000000000000000009150610a03565b7fec78d9c22c08bb9f0ecd5d95571ae83e3f22219c5a9278c3270691d50abfd91b8114156108ae577f146e2d78000000000000000000000000000000000000000000000000000000009150610a03565b7f37ac16aabc4d87540e53151b2b716265cfd6b195db96a9daf8e893c829bbd2338114156108fe577ffbe0a31b000000000000000000000000000000000000000000000000000000009150610a03565b7ff41504255b911b3042ee4f8786fdf7cf4bcf24ace033fa16af3c8574e025e43681141561094e577f585a9fd4000000000000000000000000000000000000000000000000000000009150610a03565b7fda199c0e76f665e0450020791c7f8eacc75f3cdbace313272c28f93e5390b62c81141561099e577f4656ae2e000000000000000000000000000000000000000000000000000000009150610a03565b7fb460dcb6fd5797fc0e7ea0f13406c80d30702ba7f73a42bd91394775dcbca7188114156109fb57896109d357505050610b3e565b7f97b87ba6000000000000000000000000000000000000000000000000000000009150610a03565b505050610b3e565b610a0e8360016125ba565b6000306001600160a01b031683888781518110610a2d57610a2d614072565b602002602001015186604051602401610a479291906140bd565b60408051601f198184030181529181526020820180517bffffffffffffffffffffffffffffffffffffffffffffffffffffffff167fffffffff00000000000000000000000000000000000000000000000000000000909416939093179092529051610ab291906140a1565b6000604051808303816000865af19150503d8060008114610aef576040519150601f19603f3d011682016040523d82523d6000602084013e610af4565b606091505b505090508015610b2e5760405184907fa74c8847d513feba22a0f0cb38d53081abf97562cdb293926ba243689e7c41ca90600090a2610b39565b610b398460006125ba565b505050505b610b478161410e565b905061078f565b505050505050505050505050565b333014610b95576040517f29c3b7ee00000000000000000000000000000000000000000000000000000000815260040160405180910390fd5b60008080610ba585870187614152565b925092509250610bb6838383612604565b505050505050565b60606000610bcb83612800565b90508067ffffffffffffffff811115610be657610be661366a565b604051908082528060200260200182016040528015610c0f578160200160208202803683370190505b50915060005b81811015610c6157610c27848261280e565b838281518110610c3957610c39614072565b6001600160a01b0390921660209283029190910190910152610c5a8161410e565b9050610c15565b5050919050565b600080610d198b8b8b8080601f01602080910402602001604051908101604052809392919081815260200183838082843760009201919091525050604080516020601f8f018190048102820181019092528d815292508d91508c908190840183828082843760009201919091525050604080516020601f8d018190048102820181019092528b81523393508d9250908c908c90819084018382808284376000920191909152508c9250612824915050565b60008181526004602052604090205460ff16925090508115610dac57600081815260046020526040902080547fffffffffffffffffffffffffffffffffffffffffffffffffffffffffffffff00169055610dac85858080601f0160208091040260200160405190810160405280939291908181526020018383808284376000920191909152503392508791506126049050565b509998505050505050505050565b8181604051610dca9291906141ac565b6040518091039020336001600160a01b03167f30ae6cc78c27e651745bf2ad08a11de83910ac1e347a52f7ac898c0fbef94dae888888888888604051610e15969594939291906141e7565b60405180910390a3505050505050565b6000610e406104d883610e3b6201518042614230565b612888565b92915050565b610e883384848080601f0160208091040260200160405190810160405280939291908181526020018383808284376000920191909152508692506128dd915050565b336001600160a01b03167f651d93f66c4329630e8d0f62488eff599e3be484da587335e8dc0fcf4606272688888888888888604051610ecd979695949392919061426b565b60405180910390a250505050505050565b6000610f317fd51dc9b187568bb94760866e1d0d066ca470037d2d331afb1a02ec74bfb8990c60009081526020527ff8d0c05cd32e3272241fdc9d5839565f8bcf94139cb4bd09e230e1b57a60ddc25490565b905090565b333014610f6f576040517f29c3b7ee00000000000000000000000000000000000000000000000000000000815260040160405180910390fd5b600080610f7e848601866142bc565b915091506000610f8d836117e1565b90506001600160a01b038116610fda57826040517f72ba137e000000000000000000000000000000000000000000000000000000008152600401610fd191906138fa565b60405180910390fd5b6002610fe584612bde565b6002811115610ff657610ff6614301565b14156112b85760008260405161100b906133d1565b8190604051809103906000f590508015801561102b573d6000803e3d6000fd5b506040517f70a082310000000000000000000000000000000000000000000000000000000081526001600160a01b038083166004830181905292935060009283929091631cff79cd9187917fa9059cbb000000000000000000000000000000000000000000000000000000009130918416906370a082319060240160206040518083038186803b1580156110be57600080fd5b505afa1580156110d2573d6000803e3d6000fd5b505050506040513d601f19601f820116820180604052508101906110f69190614330565b6040516001600160a01b039092166024830152604482015260640160408051601f198184030181529181526020820180517bffffffffffffffffffffffffffffffffffffffffffffffffffffffff167fffffffff000000000000000000000000000000000000000000000000000000009485161790525160e085901b90921682526111849291600401614349565b600060405180830381600087803b15801561119e57600080fd5b505af11580156111b2573d6000803e3d6000fd5b505050506040513d6000823e601f3d908101601f191682016040526111da919081019061436b565b9150915081158061120757508051158015906112075750808060200190518101906112059190613de1565b155b1561124057856040517fe217b0ad000000000000000000000000000000000000000000000000000000008152600401610fd191906138fa565b6040517ef55d9d0000000000000000000000000000000000000000000000000000000081523060048201526001600160a01b0384169062f55d9d90602401600060405180830381600087803b15801561129857600080fd5b505af11580156112ac573d6000803e3d6000fd5b50505050505050610bb6565b6040517f08a1eee1000000000000000000000000000000000000000000000000000000008152600481018390526001600160a01b038216906308a1eee1906024015b600060405180830381600087803b15801561131457600080fd5b505af1158015611328573d6000803e3d6000fd5b50505050505050505050565b33301461136d576040517f29c3b7ee00000000000000000000000000000000000000000000000000000000815260040160405180910390fd5b6000808080808080806113828a8c018c6143af565b975097509750975097509750975097506113a189898989898989612bfd565b84866001600160a01b03168a7f9991faa1f435675159ffae64b66d7ecfdb55c29755869a18db8497b4392347e08b8b898989896040516113e69695949392919061446d565b60405180910390a45050505050505050505050565b6000610e406104d883612c51565b6000806114848888888080601f01602080910402602001604051908101604052809392919081815260200183838082843760009201919091525050604080516020601f8c018190048102820181019092528a815292508a9150899081908401838280828437600092019190915250339250899150612c869050565b60008181526004602052604090205460ff169250905081156114d557600081815260046020526040902080547fffffffffffffffffffffffffffffffffffffffffffffffffffffffffffffff001690555b509695505050505050565b333014611519576040517f29c3b7ee00000000000000000000000000000000000000000000000000000000815260040160405180910390fd5b6000808080808061152c888a018a6144c5565b95509550955095509550955060006001600160a01b031661154c866117e1565b6001600160a01b03161461158e57846040517faa7e8b32000000000000000000000000000000000000000000000000000000008152600401610fd191906138fa565b6001600160a01b038216611727576000856040516020016115af91906140a1565b6040516020818303038152906040528051906020012090506000807f00000000000000000000000000000000000000000000000000000000000000006001600160a01b0316636fc95b3460e01b8a8a8a8a88604051602401611615959493929190614568565b60408051601f198184030181529181526020820180517bffffffffffffffffffffffffffffffffffffffffffffffffffffffff167fffffffff0000000000000000000000000000000000000000000000000000000090941693909317909252905161168091906140a1565b600060405180830381855af49150503d80600081146116bb576040519150601f19603f3d011682016040523d82523d6000602084013e6116c0565b606091505b5091509150816116fe57876040517f86d52743000000000000000000000000000000000000000000000000000000008152600401610fd191906138fa565b8080602001905181019061171291906145ae565b945061171f886001612ce4565b50505061177e565b6001600160a01b0382163b611773576040517fc5ccddde0000000000000000000000000000000000000000000000000000000081526001600160a01b0383166004820152602401610fd1565b61177e856002612ce4565b6117888583612d14565b6117928582612d61565b7fbf90b5a1ec9763e8bf4b9245cef0c28db92bab309fc2c5177f17814f3824693885836040516117c39291906145cb565b60405180910390a1505050505050505050565b6000610e4082612dbd565b6000610e406102c083612dcb565b333014611828576040517f29c3b7ee00000000000000000000000000000000000000000000000000000000815260040160405180910390fd5b6040517fd289d1cb0000000000000000000000000000000000000000000000000000000081526001600160a01b037f0000000000000000000000000000000000000000000000000000000000000000169063d289d1cb9061188f90869086906004016145f6565b600060405180830381600087803b1580156118a957600080fd5b505af11580156118bd573d6000803e3d6000fd5b505050507f192e759e55f359cd9832b5c0c6e38e4b6df5c5ca33f3bd5c90738e865a52187283836040516118f29291906145f6565b60405180910390a1505050565b600081815260016020526040902080546060919061191c9061460a565b80601f01602080910402602001604051908101604052809291908181526020018280546119489061460a565b80156119955780601f1061196a57610100808354040283529160200191611995565b820191906000526020600020905b81548152906001019060200180831161197857829003601f168201915b50505050509050919050565b60006119fd7f360894a13ba1a3210667c828492db98dca3e2076cc3735a920a3ca505d382bbc60005260026020527f11141f466c69fd409e1990e063b49cd6d61ed2ecff27a2e402e259ca6b9a01a3546001600160a01b031690565b6001600160a01b03161415611a3e576040517fbf10dd3a00000000000000000000000000000000000000000000000000000000815260040160405180910390fd5b60008080611a4e8486018661465e565b92509250925060006001611aa97fd51dc9b187568bb94760866e1d0d066ca470037d2d331afb1a02ec74bfb8990c60009081526020527ff8d0c05cd32e3272241fdc9d5839565f8bcf94139cb4bd09e230e1b57a60ddc25490565b611ab39190614729565b9050611b06817fd51dc9b187568bb94760866e1d0d066ca470037d2d331afb1a02ec74bfb8990c60009081526020527ff8d0c05cd32e3272241fdc9d5839565f8bcf94139cb4bd09e230e1b57a60ddc255565b611b11818585612e03565b815115610bb6576040517fd289d1cb0000000000000000000000000000000000000000000000000000000081526001600160a01b037f0000000000000000000000000000000000000000000000000000000000000000169063d289d1cb90611b7d9085906004016138fa565b600060405180830381600087803b158015611b9757600080fd5b505af1158015611bab573d6000803e3d6000fd5b505050507f192e759e55f359cd9832b5c0c6e38e4b6df5c5ca33f3bd5c90738e865a52187282604051611bde91906138fa565b60405180910390a1505050505050565b6000611c417fd51dc9b187568bb94760866e1d0d066ca470037d2d331afb1a02ec74bfb8990c60009081526020527ff8d0c05cd32e3272241fdc9d5839565f8bcf94139cb4bd09e230e1b57a60ddc25490565b9050611c4d8133612f6e565b611c83576040517f7bfa4b9f00000000000000000000000000000000000000000000000000000000815260040160405180910390fd5b60008036604051611c959291906141ac565b60405180910390209050611caa828233612f7d565b15611ce1576040517f7c9a1cf900000000000000000000000000000000000000000000000000000000815260040160405180910390fd5b611cee828233600161300e565b60006001611cfc8484613094565b611d069190614729565b9050611d138383836130a3565b611d1c83612dbd565b811015611d2b57505050611f89565b866001600160a01b03163f8614611d6e576040517f8f84fb2400000000000000000000000000000000000000000000000000000000815260040160405180910390fd5b6040516001600160a01b038816907fbc7cd75a20ee27fd9adebab32041f755214dbc6bffa90cc0225b39da2e5c2d3b90600090a28315611eb7576000876001600160a01b0316639ded06df60e01b8787604051602401611dcf9291906145f6565b60408051601f198184030181529181526020820180517bffffffffffffffffffffffffffffffffffffffffffffffffffffffff167fffffffff00000000000000000000000000000000000000000000000000000000909416939093179092529051611e3a91906140a1565b600060405180830381855af49150503d8060008114611e75576040519150601f19603f3d011682016040523d82523d6000602084013e611e7a565b606091505b5050905080611eb5576040517f97905dfb00000000000000000000000000000000000000000000000000000000815260040160405180910390fd5b505b611f39877f360894a13ba1a3210667c828492db98dca3e2076cc3735a920a3ca505d382bbc60005260026020527f11141f466c69fd409e1990e063b49cd6d61ed2ecff27a2e402e259ca6b9a01a380547fffffffffffffffffffffffff0000000000000000000000000000000000000000166001600160a01b03831617905550565b611f45838360006130a3565b6000611f5084612800565b905060005b81811015611f8357611f738585611f6c888561280e565b600061300e565b611f7c8161410e565b9050611f55565b50505050505b50505050565b611fd13384848080601f0160208091040260200160405190810160405280939291908181526020018383808284376000920191909152508692506128dd915050565b8484604051611fe19291906141ac565b6040518091039020336001600160a01b03167f7e50569d26be643bda7757722291ec66b1be66d8283474ae3fab5a98f878a7a28b8b8b8b8b8b8b8b8b60405161203299989796959493929190614741565b60405180910390a3505050505050505050565b60006121096103e28c8c8c8080601f016020809104026020016040519081016040528093929190818152602001838380828437600081840152601f19601f820116905080830192505050505050508b8b8080601f01602080910402602001604051908101604052809392919081815260200183838082843760009201919091525050604080516020601f8d018190048102820181019092528b81528e93508d9250908c908c90819084018382808284376000920191909152508c9250612824915050565b9b9a5050505050505050505050565b600081815260036020526040902080546060919061191c9061460a565b6000610e406103e2836130b5565b60006121967fd51dc9b187568bb94760866e1d0d066ca470037d2d331afb1a02ec74bfb8990c60009081526020527ff8d0c05cd32e3272241fdc9d5839565f8bcf94139cb4bd09e230e1b57a60ddc25490565b90506121a28133612f6e565b6121d8576040517f7bfa4b9f00000000000000000000000000000000000000000000000000000000815260040160405180910390fd5b600080366040516121ea9291906141ac565b604051809103902090506121ff828233612f7d565b15612236576040517f7c9a1cf900000000000000000000000000000000000000000000000000000000815260040160405180910390fd5b612243828233600161300e565b600060016122518484613094565b61225b9190614729565b90506122688383836130a3565b61227183612dbd565b81101561228057505050611f89565b8584146122b9576040517f1508613d00000000000000000000000000000000000000000000000000000000815260040160405180910390fd5b60005b868110156123b45760008888838181106122d8576122d8614072565b90506020028101906122ea91906147a9565b8080601f01602080910402602001604051908101604052809392919081815260200183838082843760009201829052509394508a925089915085905081811061233557612335614072565b90506020020135905060006001600160a01b0316612352836117e1565b6001600160a01b0316141561239557816040517f72ba137e000000000000000000000000000000000000000000000000000000008152600401610fd191906138fa565b61239f8282612d61565b505080806123ac9061410e565b9150506122bc565b506123c1838360006130a3565b60006123cc84612800565b905060005b81811015611f83576123e88585611f6c888561280e565b6123f18161410e565b90506123d1565b60006124756103e28989898080601f01602080910402602001604051908101604052809392919081815260200183838082843760009201919091525050604080516020601f8d018190048102820181019092528b815292508b91508a90819084018382808284376000920191909152508a9250899150612c869050565b98975050505050505050565b600060608060608480602001905181019061249c919061480e565b939991985096509194509092505050565b3330146124e6576040517f29c3b7ee00000000000000000000000000000000000000000000000000000000815260040160405180910390fd5b600080808080806124f9888a018a6148aa565b95509550955095509550955061251287878787876130f0565b82846001600160a01b0316887f44e4f8f6bd682c5a3aeba93601ab07cb4d1f21b2aab1ae4880d9577919309aa489898787604051612553949392919061493c565b60405180910390a4505050505050505050565b6040517f19457468657265756d205369676e6564204d6573736167653a0a3332000000006020820152603c8101829052600090605c015b604051602081830303815290604052805190602001209050919050565b6126006125c6836130b5565b600090815260046020526040902080547fffffffffffffffffffffffffffffffffffffffffffffffffffffffffffffff0016831515179055565b5050565b600061260f846117e1565b90506001600160a01b03811661265357836040517f72ba137e000000000000000000000000000000000000000000000000000000008152600401610fd191906138fa565b612670848361266187610e25565b61266b9190614729565b613100565b600261267b85612bde565b600281111561268c5761268c614301565b141561277f576040516001600160a01b03841660248201526044810183905260009061273e9083907fa9059cbb00000000000000000000000000000000000000000000000000000000906064015b60408051601f198184030181529190526020810180517bffffffffffffffffffffffffffffffffffffffffffffffffffffffff167fffffffff000000000000000000000000000000000000000000000000000000009093169290921790915261317c565b90508061277957846040517f90c52ed7000000000000000000000000000000000000000000000000000000008152600401610fd191906138fa565b50611f89565b6040517f40c10f190000000000000000000000000000000000000000000000000000000081526001600160a01b038481166004830152602482018490528216906340c10f1990604401600060405180830381600087803b1580156127e257600080fd5b505af11580156127f6573d6000803e3d6000fd5b5050505050505050565b6000610e406104d88361320e565b600061281d6102c08484613249565b9392505050565b60007fb7ad972b71475860613db3ba1fe699b886c878f9002a09250dc25e769eb19a1088888888888888604051602001612865989796959493929190614975565b604051602081830303815290604052805190602001209050979650505050505050565b60007f4281768ab7480ddcf054116642fb644388166407fc26c4e8e435dd259143cfd283836040516020016128bf939291906149e8565b60405160208183030381529060405280519060200120905092915050565b60006128e8836117e1565b90506001600160a01b03811661292c57826040517f72ba137e000000000000000000000000000000000000000000000000000000008152600401610fd191906138fa565b81612963576040517f2c5211c600000000000000000000000000000000000000000000000000000000815260040160405180910390fd5b600061296e84612bde565b90506000600282600281111561298657612986614301565b1415612a16576040516001600160a01b0387166024820152306044820152606481018590526129db9084907f23b872dd00000000000000000000000000000000000000000000000000000000906084016126da565b905080610bb657846040517fe217b0ad000000000000000000000000000000000000000000000000000000008152600401610fd191906138fa565b6001826002811115612a2a57612a2a614301565b1415612a79576040516001600160a01b0387166024820152604481018590526129db9084907f79cc679000000000000000000000000000000000000000000000000000000000906064016126da565b6040517f31eecaf400000000000000000000000000000000000000000000000000000000815260006004820152612b5d9084907f23b872dd000000000000000000000000000000000000000000000000000000009089906001600160a01b038416906331eecaf49060240160206040518083038186803b158015612afc57600080fd5b505afa158015612b10573d6000803e3d6000fd5b505050506040513d601f19601f82011682018060405250810190612b3491906145ae565b6040516001600160a01b03928316602482015291166044820152606481018890526084016126da565b905080612b9857846040517fe217b0ad000000000000000000000000000000000000000000000000000000008152600401610fd191906138fa565b6040517f08a1eee1000000000000000000000000000000000000000000000000000000008152600060048201526001600160a01b038416906308a1eee1906024016112fa565b6000612bec6104d88361328b565b6002811115610e4057610e40614301565b612c48612c0f88888888888888612824565b600090815260046020526040902080547fffffffffffffffffffffffffffffffffffffffffffffffffffffffffffffff00166001179055565b50505050505050565b60007f385b0fbf06aae812803f7f3a3a975b7e1dce19f50fb39baf3f341e2849e5ce068260405160200161259d929190614a15565b60007f07b0d4304f82012bd3b70b1d531c160e326067c90829e2a3d386722ad10b89c38686868686604051602001612cc396959493929190614a3b565b60405160208183030381529060405280519060200120905095945050505050565b612600612cf08361328b565b826002811115612d0257612d02614301565b60009182526020829052604090912055565b612600612d2083612dcb565b600090815260026020526040902080547fffffffffffffffffffffffff0000000000000000000000000000000000000000166001600160a01b038416179055565b612d80612d6d83612c51565b8260009182526020829052604090912055565b7fa34df38babdcfb4aa60ad9eda9583df1bcd3dbd7d4687c89d35c3ec4f4331be98282604051612db19291906140bd565b60405180910390a15050565b6000610e406104d8836132c0565b60007fc4e632779a6a7838736dd7e5e6a0eadf171dd37dfb6230720e265576dfcf42bb8260405160200161259d929190614a15565b50565b815181811015612e3f576040517ff1965a0700000000000000000000000000000000000000000000000000000000815260040160405180910390fd5b81612e76576040517f1845300d00000000000000000000000000000000000000000000000000000000815260040160405180910390fd5b612e8084836132fb565b612e8a8482613307565b60005b81811015612f67576000848281518110612ea957612ea9614072565b60200260200101519050612ebd8682612f6e565b15612eff576040517f424926de0000000000000000000000000000000000000000000000000000000081526001600160a01b0382166004820152602401610fd1565b6001600160a01b038116612f3f576040517ff1965a0700000000000000000000000000000000000000000000000000000000815260040160405180910390fd5b612f4a868383613313565b612f5686826001613320565b50612f608161410e565b9050612e8d565b5050505050565b600061281d6103e28484613329565b604080517f3ced7a8caf1111e0fbf4b784c5b41aebd0f2389d9f2f64d5c3424aeed3adbd3c602080830191909152818301869052606080830186905284901b7fffffffffffffffffffffffffffffffffffffffff0000000000000000000000001660808301528251808303607401815260949092019092528051910120600090613006906103e2565b949350505050565b604080517f3ced7a8caf1111e0fbf4b784c5b41aebd0f2389d9f2f64d5c3424aeed3adbd3c602080830191909152818301879052606080830187905285901b7fffffffffffffffffffffffffffffffffffffffff0000000000000000000000001660808301528251808303607401815260949092019092528051910120611f89906125c6565b600061281d6104d8848461338f565b6130b0612d6d848461338f565b505050565b604080517f957705a374326b30f4a1069c936d736cc9993ed6c820b4e0e2fd94a8beca0d1d602082015290810182905260009060600161259d565b612f67612c0f8686868686612c86565b600061310b836113fb565b905060008111801561311c57508082115b1561315557826040517f78202795000000000000000000000000000000000000000000000000000000008152600401610fd191906138fa565b6130b061316984610e3b6201518042614230565b8360009182526020829052604090912055565b6000806000846001600160a01b03168460405161319991906140a1565b6000604051808303816000865af19150503d80600081146131d6576040519150601f19603f3d011682016040523d82523d6000602084013e6131db565b606091505b50915091508180156132055750805115806132055750808060200190518101906132059190613de1565b95945050505050565b604080517f05112ef894367de1270cfae12afcd2285c225830eb8f74e7e938f721bb510cba602082015290810182905260009060600161259d565b604080517ff23ec0bb4210edd5cba85afd05127efcd2fc6a781bfed49188da1081670b22d86020820152908101839052606081018290526000906080016128bf565b60007fa80d2259af55890618ec2eeb3ac72de4bdba22529bb14845d8a3d712d1c3f6218260405160200161259d929190614a15565b604080517f79bd914addd90bd67ad800bf0230bb85ffdef5aeba5fd8249f116d3f17f4fb4b602082015290810182905260009060600161259d565b612600612d6d836132c0565b612600612d6d8361320e565b6130b0612d208484613249565b6130b06125c684845b604080517f63fa879cb478fddf1de08d49e29115fb768866711bc799ff9ab419a7f16c9afb6020820152908101839052606082811b7fffffffffffffffffffffffffffffffffffffffff00000000000000000000000016908201526000906074016128bf565b604080517fbaea1c6c0f16a0a340b10a9e980806696a68ddbb5e8361fd64630dd21abf515f6020820152908101839052606081018290526000906080016128bf565b61039980614a8c83390190565b60008083601f8401126133f057600080fd5b50813567ffffffffffffffff81111561340857600080fd5b60208301915083602082850101111561342057600080fd5b9250929050565b6000806020838503121561343a57600080fd5b823567ffffffffffffffff81111561345157600080fd5b61345d858286016133de565b90969095509350505050565b60008060006040848603121561347e57600080fd5b833567ffffffffffffffff81111561349557600080fd5b6134a1868287016133de565b909790965060209590950135949350505050565b6000602082840312156134c757600080fd5b5035919050565b6020808252825182820181905260009190848201906040850190845b8181101561350f5783516001600160a01b0316835292840192918401916001016134ea565b50909695505050505050565b600080600080600080600080600060c08a8c03121561353957600080fd5b8935985060208a013567ffffffffffffffff8082111561355857600080fd5b6135648d838e016133de565b909a50985060408c013591508082111561357d57600080fd5b6135898d838e016133de565b909850965060608c0135955060808c01359150808211156135a957600080fd5b506135b68c828d016133de565b9a9d999c50979a9699959894979660a00135949350505050565b600080600080600080606087890312156135e957600080fd5b863567ffffffffffffffff8082111561360157600080fd5b61360d8a838b016133de565b9098509650602089013591508082111561362657600080fd5b6136328a838b016133de565b9096509450604089013591508082111561364b57600080fd5b5061365889828a016133de565b979a9699509497509295939492505050565b7f4e487b7100000000000000000000000000000000000000000000000000000000600052604160045260246000fd5b604051601f8201601f1916810167ffffffffffffffff811182821017156136c2576136c261366a565b604052919050565b600067ffffffffffffffff8211156136e4576136e461366a565b50601f01601f191660200190565b600082601f83011261370357600080fd5b8135613716613711826136ca565b613699565b81815284602083860101111561372b57600080fd5b816020850160208301376000918101602001919091529392505050565b60006020828403121561375a57600080fd5b813567ffffffffffffffff81111561377157600080fd5b613006848285016136f2565b60008060008060008060006080888a03121561379857600080fd5b873567ffffffffffffffff808211156137b057600080fd5b6137bc8b838c016133de565b909950975060208a01359150808211156137d557600080fd5b6137e18b838c016133de565b909750955060408a01359150808211156137fa57600080fd5b506138078a828b016133de565b989b979a50959894979596606090950135949350505050565b6000806000806000806080878903121561383957600080fd5b86359550602087013567ffffffffffffffff8082111561385857600080fd5b6138648a838b016133de565b9097509550604089013591508082111561387d57600080fd5b5061388a89828a016133de565b979a9699509497949695606090950135949350505050565b60005b838110156138bd5781810151838201526020016138a5565b83811115611f895750506000910152565b600081518084526138e68160208601602086016138a2565b601f01601f19169290920160200192915050565b60208152600061281d60208301846138ce565b6001600160a01b0381168114612e0057600080fd5b6000806000806060858703121561393857600080fd5b84356139438161390d565b935060208501359250604085013567ffffffffffffffff81111561396657600080fd5b613972878288016133de565b95989497509550505050565b600080600080600080600080600060a08a8c03121561399c57600080fd5b893567ffffffffffffffff808211156139b457600080fd5b6139c08d838e016133de565b909b50995060208c01359150808211156139d957600080fd5b6139e58d838e016133de565b909950975060408c01359150808211156139fe57600080fd5b613a0a8d838e016133de565b909750955060608c0135915080821115613a2357600080fd5b50613a308c828d016133de565b9a9d999c50979a9699959894979660800135949350505050565b60008060008060008060008060008060e08b8d031215613a6957600080fd5b8a35995060208b013567ffffffffffffffff80821115613a8857600080fd5b613a948e838f016133de565b909b50995060408d0135915080821115613aad57600080fd5b613ab98e838f016133de565b909950975060608d01359150613ace8261390d565b90955060808c0135945060a08c01359080821115613aeb57600080fd5b50613af88d828e016133de565b9150809450508092505060c08b013590509295989b9194979a5092959850565b60008083601f840112613b2a57600080fd5b50813567ffffffffffffffff811115613b4257600080fd5b6020830191508360208260051b850101111561342057600080fd5b60008060008060408587031215613b7357600080fd5b843567ffffffffffffffff80821115613b8b57600080fd5b613b9788838901613b18565b90965094506020870135915080821115613bb057600080fd5b5061397287828801613b18565b600080600080600080600060a0888a031215613bd857600080fd5b87359650602088013567ffffffffffffffff80821115613bf757600080fd5b613c038b838c016133de565b909850965060408a0135915080821115613c1c57600080fd5b50613c298a828b016133de565b9095509350506060880135613c3d8161390d565b809250506080880135905092959891949750929550565b600081518084526020808501808196508360051b8101915082860160005b85811015613c9c578284038952613c8a8483516138ce565b98850198935090840190600101613c72565b5091979650505050505050565b600060808201868352602060808185015281875180845260a086019150828901935060005b81811015613cea57845183529383019391830191600101613cce565b5050848103604086015286518082528282019350600581901b8201830183890160005b83811015613d3b57601f19858403018752613d298383516138ce565b96860196925090850190600101613d0d565b505086810360608801526121098189613c54565b60008060408385031215613d6257600080fd5b823567ffffffffffffffff80821115613d7a57600080fd5b613d86868387016136f2565b93506020850135915080821115613d9c57600080fd5b50613da9858286016136f2565b9150509250929050565b82815260406020820152600061300660408301846138ce565b80518015158114613ddc57600080fd5b919050565b600060208284031215613df357600080fd5b61281d82613dcc565b600067ffffffffffffffff821115613e1657613e1661366a565b5060051b60200190565b600082601f830112613e3157600080fd5b81516020613e4161371183613dfc565b82815260059290921b84018101918181019086841115613e6057600080fd5b8286015b848110156114d55780518352918301918301613e64565b6000613e89613711846136ca565b9050828152838383011115613e9d57600080fd5b61281d8360208301846138a2565b600082601f830112613ebc57600080fd5b81516020613ecc61371183613dfc565b82815260059290921b84018101918181019086841115613eeb57600080fd5b8286015b848110156114d557805167ffffffffffffffff811115613f0f5760008081fd5b8701603f81018913613f215760008081fd5b613f32898683015160408401613e7b565b845250918301918301613eef565b600082601f830112613f5157600080fd5b61281d83835160208501613e7b565b600082601f830112613f7157600080fd5b81516020613f8161371183613dfc565b82815260059290921b84018101918181019086841115613fa057600080fd5b8286015b848110156114d557805167ffffffffffffffff811115613fc45760008081fd5b613fd28986838b0101613f40565b845250918301918301613fa4565b60008060008060808587031215613ff657600080fd5b84519350602085015167ffffffffffffffff8082111561401557600080fd5b61402188838901613e20565b9450604087015191508082111561403757600080fd5b61404388838901613eab565b9350606087015191508082111561405957600080fd5b5061406687828801613f60565b91505092959194509250565b7f4e487b7100000000000000000000000000000000000000000000000000000000600052603260045260246000fd5b600082516140b38184602087016138a2565b9190910192915050565b6040815260006140d060408301856138ce565b90508260208301529392505050565b7f4e487b7100000000000000000000000000000000000000000000000000000000600052601160045260246000fd5b60007fffffffffffffffffffffffffffffffffffffffffffffffffffffffffffffffff821415614140576141406140df565b5060010190565b8035613ddc8161390d565b60008060006060848603121561416757600080fd5b833567ffffffffffffffff81111561417e57600080fd5b61418a868287016136f2565b935050602084013561419b8161390d565b929592945050506040919091013590565b8183823760009101908152919050565b818352818160208501375060006020828401015260006020601f19601f840116840101905092915050565b6060815260006141fb60608301888a6141bc565b828103602084015261420e8187896141bc565b905082810360408401526142238185876141bc565b9998505050505050505050565b600082614266577f4e487b7100000000000000000000000000000000000000000000000000000000600052601260045260246000fd5b500490565b60808152600061427f60808301898b6141bc565b828103602084015261429281888a6141bc565b905082810360408401526142a78186886141bc565b91505082606083015298975050505050505050565b600080604083850312156142cf57600080fd5b823567ffffffffffffffff8111156142e657600080fd5b6142f2858286016136f2565b95602094909401359450505050565b7f4e487b7100000000000000000000000000000000000000000000000000000000600052602160045260246000fd5b60006020828403121561434257600080fd5b5051919050565b6001600160a01b038316815260406020820152600061300660408301846138ce565b6000806040838503121561437e57600080fd5b61438783613dcc565b9150602083015167ffffffffffffffff8111156143a357600080fd5b613da985828601613f40565b600080600080600080600080610100898b0312156143cc57600080fd5b883567ffffffffffffffff808211156143e457600080fd5b6143f08c838d016136f2565b995060208b013591508082111561440657600080fd5b6144128c838d016136f2565b985061442060408c01614147565b975060608b0135965060808b013591508082111561443d57600080fd5b5061444a8b828c016136f2565b989b979a50959894979660a0860135965060c08601359560e00135945092505050565b60c08152600061448060c08301896138ce565b828103602084015261449281896138ce565b905082810360408401526144a681886138ce565b60608401969096525050608081019290925260a0909101529392505050565b60008060008060008060c087890312156144de57600080fd5b863567ffffffffffffffff808211156144f657600080fd5b6145028a838b016136f2565b9750602089013591508082111561451857600080fd5b5061452589828a016136f2565b955050604087013560ff8116811461453c57600080fd5b93506060870135925060808701356145538161390d565b8092505060a087013590509295509295509295565b60a08152600061457b60a08301886138ce565b828103602084015261458d81886138ce565b60ff9690961660408401525050606081019290925260809091015292915050565b6000602082840312156145c057600080fd5b815161281d8161390d565b6040815260006145de60408301856138ce565b90506001600160a01b03831660208301529392505050565b6020815260006130066020830184866141bc565b600181811c9082168061461e57607f821691505b60208210811415614658577f4e487b7100000000000000000000000000000000000000000000000000000000600052602260045260246000fd5b50919050565b60008060006060848603121561467357600080fd5b833567ffffffffffffffff8082111561468b57600080fd5b818601915086601f83011261469f57600080fd5b813560206146af61371183613dfc565b82815260059290921b8401810191818101908a8411156146ce57600080fd5b948201945b838610156146f55785356146e68161390d565b825294820194908201906146d3565b975050870135945050604086013591508082111561471257600080fd5b5061471f868287016136f2565b9150509250925092565b6000821982111561473c5761473c6140df565b500190565b60a08152600061475560a083018b8d6141bc565b8281036020840152614768818a8c6141bc565b9050828103604084015261477d81888a6141bc565b905082810360608401526147928186886141bc565b9150508260808301529a9950505050505050505050565b60008083357fffffffffffffffffffffffffffffffffffffffffffffffffffffffffffffffe18436030181126147de57600080fd5b83018035915067ffffffffffffffff8211156147f957600080fd5b60200191503681900382131561342057600080fd5b600080600080600060a0868803121561482657600080fd5b8551945060208601519350604086015167ffffffffffffffff8082111561484c57600080fd5b61485889838a01613e20565b9450606088015191508082111561486e57600080fd5b61487a89838a01613eab565b9350608088015191508082111561489057600080fd5b5061489d88828901613f60565b9150509295509295909350565b60008060008060008060c087890312156148c357600080fd5b863567ffffffffffffffff808211156148db57600080fd5b6148e78a838b016136f2565b975060208901359150808211156148fd57600080fd5b5061490a89828a016136f2565b955050604087013561491b8161390d565b959894975094956060810135955060808101359460a0909101359350915050565b60808152600061494f60808301876138ce565b828103602084015261496181876138ce565b604084019590955250506060015292915050565b60006101008a83528960208401528060408401526149958184018a6138ce565b905082810360608401526149a981896138ce565b90506001600160a01b03871660808401528560a084015282810360c08401526149d281866138ce565b9150508260e08301529998505050505050505050565b83815260008351614a008160208501602088016138a2565b60209201918201929092526040019392505050565b82815260008251614a2d8160208501602087016138a2565b919091016020019392505050565b86815285602082015260c060408201526000614a5a60c08301876138ce565b8281036060840152614a6c81876138ce565b6001600160a01b03959095166080840152505060a0015294935050505056fe6080604052600160005534801561001557600080fd5b50610374806100256000396000f3fe608060405234801561001057600080fd5b50600436106100355760003560e01c8062f55d9d1461003a5780631cff79cd1461004f575b600080fd5b61004d61004836600461020c565b610079565b005b61006261005d36600461022e565b6100d4565b6040516100709291906102b1565b60405180910390f35b600260005414156100b6576040517fcaa30f5500000000000000000000000000000000000000000000000000000000815260040160405180910390fd5b600260005573ffffffffffffffffffffffffffffffffffffffff8116ff5b6000606060026000541415610115576040517fcaa30f5500000000000000000000000000000000000000000000000000000000815260040160405180910390fd5b600260005573ffffffffffffffffffffffffffffffffffffffff85163b610168576040517f6f7c43f100000000000000000000000000000000000000000000000000000000815260040160405180910390fd5b8473ffffffffffffffffffffffffffffffffffffffff16848460405161018f92919061032e565b6000604051808303816000865af19150503d80600081146101cc576040519150601f19603f3d011682016040523d82523d6000602084013e6101d1565b606091505b50600160005590969095509350505050565b803573ffffffffffffffffffffffffffffffffffffffff8116811461020757600080fd5b919050565b60006020828403121561021e57600080fd5b610227826101e3565b9392505050565b60008060006040848603121561024357600080fd5b61024c846101e3565b9250602084013567ffffffffffffffff8082111561026957600080fd5b818601915086601f83011261027d57600080fd5b81358181111561028c57600080fd5b87602082850101111561029e57600080fd5b6020830194508093505050509250925092565b821515815260006020604081840152835180604085015260005b818110156102e7578581018301518582016060015282016102cb565b818111156102f9576000606083870101525b50601f017fffffffffffffffffffffffffffffffffffffffffffffffffffffffffffffffe01692909201606001949350505050565b818382376000910190815291905056fea264697066735822122007dbf32a1fd89d925450cac83cec66d3a4155c454e51d126001f6c4ddc00f70764736f6c63430008090033a2646970667358221220e8f338cab84132957f59444bc6c6e8f955ddd332e32e60cb7a9c5bfb84cbf14c64736f6c63430008090033",
      "opcodes": "PUSH1 0xC0 PUSH1 0x40 MSTORE CALLVALUE DUP1 ISZERO PUSH3 0x11 JUMPI PUSH1 0x0 DUP1 REVERT JUMPDEST POP PUSH1 0x40 MLOAD PUSH3 0x4F81 CODESIZE SUB DUP1 PUSH3 0x4F81 DUP4 CODECOPY DUP2 ADD PUSH1 0x40 DUP2 SWAP1 MSTORE PUSH3 0x34 SWAP2 PUSH3 0xBB JUMP JUMPDEST PUSH1 0x1 PUSH1 0x1 PUSH1 0xA0 SHL SUB DUP3 AND EXTCODESIZE PUSH3 0x5D JUMPI PUSH1 0x40 MLOAD PUSH4 0x735326AB PUSH1 0xE0 SHL DUP2 MSTORE PUSH1 0x4 ADD PUSH1 0x40 MLOAD DUP1 SWAP2 SUB SWAP1 REVERT JUMPDEST PUSH1 0x1 PUSH1 0x1 PUSH1 0xA0 SHL SUB DUP2 AND EXTCODESIZE PUSH3 0x86 JUMPI PUSH1 0x40 MLOAD PUSH4 0xC84DABF PUSH1 0xE3 SHL DUP2 MSTORE PUSH1 0x4 ADD PUSH1 0x40 MLOAD DUP1 SWAP2 SUB SWAP1 REVERT JUMPDEST PUSH1 0x1 PUSH1 0x1 PUSH1 0xA0 SHL SUB SWAP2 DUP3 AND PUSH1 0x80 MSTORE AND PUSH1 0xA0 MSTORE PUSH3 0xF3 JUMP JUMPDEST DUP1 MLOAD PUSH1 0x1 PUSH1 0x1 PUSH1 0xA0 SHL SUB DUP2 AND DUP2 EQ PUSH3 0xB6 JUMPI PUSH1 0x0 DUP1 REVERT JUMPDEST SWAP2 SWAP1 POP JUMP JUMPDEST PUSH1 0x0 DUP1 PUSH1 0x40 DUP4 DUP6 SUB SLT ISZERO PUSH3 0xCF JUMPI PUSH1 0x0 DUP1 REVERT JUMPDEST PUSH3 0xDA DUP4 PUSH3 0x9E JUMP JUMPDEST SWAP2 POP PUSH3 0xEA PUSH1 0x20 DUP5 ADD PUSH3 0x9E JUMP JUMPDEST SWAP1 POP SWAP3 POP SWAP3 SWAP1 POP JUMP JUMPDEST PUSH1 0x80 MLOAD PUSH1 0xA0 MLOAD PUSH2 0x4E5A PUSH3 0x127 PUSH1 0x0 CODECOPY PUSH1 0x0 PUSH2 0x15CC ADD MSTORE PUSH1 0x0 DUP2 DUP2 PUSH2 0x5B7 ADD MSTORE DUP2 DUP2 PUSH2 0x1858 ADD MSTORE PUSH2 0x1B48 ADD MSTORE PUSH2 0x4E5A PUSH1 0x0 RETURN INVALID PUSH1 0x80 PUSH1 0x40 MSTORE CALLVALUE DUP1 ISZERO PUSH2 0x10 JUMPI PUSH1 0x0 DUP1 REVERT JUMPDEST POP PUSH1 0x4 CALLDATASIZE LT PUSH2 0x226 JUMPI PUSH1 0x0 CALLDATALOAD PUSH1 0xE0 SHR DUP1 PUSH4 0x88B30587 GT PUSH2 0x12A JUMPI DUP1 PUSH4 0xBC00C216 GT PUSH2 0xBD JUMPI DUP1 PUSH4 0xDC97D962 GT PUSH2 0x8C JUMPI DUP1 PUSH4 0xF6A5F9F5 GT PUSH2 0x71 JUMPI DUP1 PUSH4 0xF6A5F9F5 EQ PUSH2 0x543 JUMPI DUP1 PUSH4 0xF871F14E EQ PUSH2 0x556 JUMPI DUP1 PUSH4 0xFBE0A31B EQ PUSH2 0x579 JUMPI PUSH1 0x0 DUP1 REVERT JUMPDEST DUP1 PUSH4 0xDC97D962 EQ PUSH2 0x510 JUMPI DUP1 PUSH4 0xF6789C8C EQ PUSH2 0x530 JUMPI PUSH1 0x0 DUP1 REVERT JUMPDEST DUP1 PUSH4 0xBC00C216 EQ PUSH2 0x4B7 JUMPI DUP1 PUSH4 0xBD02D0F5 EQ PUSH2 0x4CA JUMPI DUP1 PUSH4 0xC031A180 EQ PUSH2 0x4EA JUMPI DUP1 PUSH4 0xD26FF210 EQ PUSH2 0x4FD JUMPI PUSH1 0x0 DUP1 REVERT JUMPDEST DUP1 PUSH4 0x9DED06DF GT PUSH2 0xF9 JUMPI DUP1 PUSH4 0x9DED06DF EQ PUSH2 0x477 JUMPI DUP1 PUSH4 0xA3499C73 EQ PUSH2 0x48A JUMPI DUP1 PUSH4 0xAA1E1F0A EQ PUSH2 0x49D JUMPI DUP1 PUSH4 0xB5417084 EQ PUSH2 0x4A4 JUMPI PUSH1 0x0 DUP1 REVERT JUMPDEST DUP1 PUSH4 0x88B30587 EQ PUSH2 0x41E JUMPI DUP1 PUSH4 0x935B13F6 EQ PUSH2 0x431 JUMPI DUP1 PUSH4 0x97B87BA6 EQ PUSH2 0x444 JUMPI DUP1 PUSH4 0x986E791A EQ PUSH2 0x457 JUMPI PUSH1 0x0 DUP1 REVERT JUMPDEST DUP1 PUSH4 0x364940D8 GT PUSH2 0x1BD JUMPI DUP1 PUSH4 0x5DDE8117 GT PUSH2 0x18C JUMPI DUP1 PUSH4 0x7AE1CFCA GT PUSH2 0x171 JUMPI DUP1 PUSH4 0x7AE1CFCA EQ PUSH2 0x3D4 JUMPI DUP1 PUSH4 0x7B1B769E EQ PUSH2 0x3F7 JUMPI DUP1 PUSH4 0x886A625D EQ PUSH2 0x40B JUMPI PUSH1 0x0 DUP1 REVERT JUMPDEST DUP1 PUSH4 0x5DDE8117 EQ PUSH2 0x3AE JUMPI DUP1 PUSH4 0x5F6970C3 EQ PUSH2 0x3C1 JUMPI PUSH1 0x0 DUP1 REVERT JUMPDEST DUP1 PUSH4 0x364940D8 EQ PUSH2 0x327 JUMPI DUP1 PUSH4 0x4656AE2E EQ PUSH2 0x32F JUMPI DUP1 PUSH4 0x585A9FD4 EQ PUSH2 0x342 JUMPI DUP1 PUSH4 0x5C60DA1B EQ PUSH2 0x355 JUMPI PUSH1 0x0 DUP1 REVERT JUMPDEST DUP1 PUSH4 0x1C92115F GT PUSH2 0x1F9 JUMPI DUP1 PUSH4 0x1C92115F EQ PUSH2 0x29F JUMPI DUP1 PUSH4 0x21F8A721 EQ PUSH2 0x2B2 JUMPI DUP1 PUSH4 0x23275548 EQ PUSH2 0x2F3 JUMPI DUP1 PUSH4 0x26EF699D EQ PUSH2 0x314 JUMPI PUSH1 0x0 DUP1 REVERT JUMPDEST DUP1 PUSH4 0x9C5EABE EQ PUSH2 0x22B JUMPI DUP1 PUSH4 0x146E2D78 EQ PUSH2 0x240 JUMPI DUP1 PUSH4 0x14BFD6D0 EQ PUSH2 0x253 JUMPI DUP1 PUSH4 0x1876EED9 EQ PUSH2 0x27C JUMPI JUMPDEST PUSH1 0x0 DUP1 REVERT JUMPDEST PUSH2 0x23E PUSH2 0x239 CALLDATASIZE PUSH1 0x4 PUSH2 0x3427 JUMP JUMPDEST PUSH2 0x58C JUMP JUMPDEST STOP JUMPDEST PUSH2 0x23E PUSH2 0x24E CALLDATASIZE PUSH1 0x4 PUSH2 0x3469 JUMP JUMPDEST PUSH2 0xB5C JUMP JUMPDEST PUSH2 0x266 PUSH2 0x261 CALLDATASIZE PUSH1 0x4 PUSH2 0x34B5 JUMP JUMPDEST PUSH2 0xBBE JUMP JUMPDEST PUSH1 0x40 MLOAD PUSH2 0x273 SWAP2 SWAP1 PUSH2 0x34CE JUMP JUMPDEST PUSH1 0x40 MLOAD DUP1 SWAP2 SUB SWAP1 RETURN JUMPDEST PUSH2 0x28F PUSH2 0x28A CALLDATASIZE PUSH1 0x4 PUSH2 0x351B JUMP JUMPDEST PUSH2 0xC68 JUMP JUMPDEST PUSH1 0x40 MLOAD SWAP1 ISZERO ISZERO DUP2 MSTORE PUSH1 0x20 ADD PUSH2 0x273 JUMP JUMPDEST PUSH2 0x23E PUSH2 0x2AD CALLDATASIZE PUSH1 0x4 PUSH2 0x35D0 JUMP JUMPDEST PUSH2 0xDBA JUMP JUMPDEST PUSH2 0x2DB PUSH2 0x2C0 CALLDATASIZE PUSH1 0x4 PUSH2 0x34B5 JUMP JUMPDEST PUSH1 0x0 SWAP1 DUP2 MSTORE PUSH1 0x2 PUSH1 0x20 MSTORE PUSH1 0x40 SWAP1 KECCAK256 SLOAD PUSH1 0x1 PUSH1 0x1 PUSH1 0xA0 SHL SUB AND SWAP1 JUMP JUMPDEST PUSH1 0x40 MLOAD PUSH1 0x1 PUSH1 0x1 PUSH1 0xA0 SHL SUB SWAP1 SWAP2 AND DUP2 MSTORE PUSH1 0x20 ADD PUSH2 0x273 JUMP JUMPDEST PUSH2 0x306 PUSH2 0x301 CALLDATASIZE PUSH1 0x4 PUSH2 0x3748 JUMP JUMPDEST PUSH2 0xE25 JUMP JUMPDEST PUSH1 0x40 MLOAD SWAP1 DUP2 MSTORE PUSH1 0x20 ADD PUSH2 0x273 JUMP JUMPDEST PUSH2 0x23E PUSH2 0x322 CALLDATASIZE PUSH1 0x4 PUSH2 0x377D JUMP JUMPDEST PUSH2 0xE46 JUMP JUMPDEST PUSH2 0x306 PUSH2 0xEDE JUMP JUMPDEST PUSH2 0x23E PUSH2 0x33D CALLDATASIZE PUSH1 0x4 PUSH2 0x3469 JUMP JUMPDEST PUSH2 0xF36 JUMP JUMPDEST PUSH2 0x23E PUSH2 0x350 CALLDATASIZE PUSH1 0x4 PUSH2 0x3469 JUMP JUMPDEST PUSH2 0x1334 JUMP JUMPDEST PUSH32 0x360894A13BA1A3210667C828492DB98DCA3E2076CC3735A920A3CA505D382BBC PUSH1 0x0 MSTORE PUSH1 0x2 PUSH1 0x20 MSTORE PUSH32 0x11141F466C69FD409E1990E063B49CD6D61ED2ECFF27A2E402E259CA6B9A01A3 SLOAD PUSH1 0x1 PUSH1 0x1 PUSH1 0xA0 SHL SUB AND PUSH2 0x2DB JUMP JUMPDEST PUSH2 0x306 PUSH2 0x3BC CALLDATASIZE PUSH1 0x4 PUSH2 0x3748 JUMP JUMPDEST PUSH2 0x13FB JUMP JUMPDEST PUSH2 0x28F PUSH2 0x3CF CALLDATASIZE PUSH1 0x4 PUSH2 0x3820 JUMP JUMPDEST PUSH2 0x1409 JUMP JUMPDEST PUSH2 0x28F PUSH2 0x3E2 CALLDATASIZE PUSH1 0x4 PUSH2 0x34B5 JUMP JUMPDEST PUSH1 0x0 SWAP1 DUP2 MSTORE PUSH1 0x4 PUSH1 0x20 MSTORE PUSH1 0x40 SWAP1 KECCAK256 SLOAD PUSH1 0xFF AND SWAP1 JUMP JUMPDEST PUSH2 0x28F PUSH2 0x405 CALLDATASIZE PUSH1 0x4 PUSH2 0x3748 JUMP JUMPDEST POP PUSH1 0x0 SWAP1 JUMP JUMPDEST PUSH2 0x23E PUSH2 0x419 CALLDATASIZE PUSH1 0x4 PUSH2 0x3469 JUMP JUMPDEST PUSH2 0x14E0 JUMP JUMPDEST PUSH2 0x306 PUSH2 0x42C CALLDATASIZE PUSH1 0x4 PUSH2 0x34B5 JUMP JUMPDEST PUSH2 0x17D6 JUMP JUMPDEST PUSH2 0x2DB PUSH2 0x43F CALLDATASIZE PUSH1 0x4 PUSH2 0x3748 JUMP JUMPDEST PUSH2 0x17E1 JUMP JUMPDEST PUSH2 0x23E PUSH2 0x452 CALLDATASIZE PUSH1 0x4 PUSH2 0x3469 JUMP JUMPDEST PUSH2 0x17EF JUMP JUMPDEST PUSH2 0x46A PUSH2 0x465 CALLDATASIZE PUSH1 0x4 PUSH2 0x34B5 JUMP JUMPDEST PUSH2 0x18FF JUMP JUMPDEST PUSH1 0x40 MLOAD PUSH2 0x273 SWAP2 SWAP1 PUSH2 0x38FA JUMP JUMPDEST PUSH2 0x23E PUSH2 0x485 CALLDATASIZE PUSH1 0x4 PUSH2 0x3427 JUMP JUMPDEST PUSH2 0x19A1 JUMP JUMPDEST PUSH2 0x23E PUSH2 0x498 CALLDATASIZE PUSH1 0x4 PUSH2 0x3922 JUMP JUMPDEST PUSH2 0x1BEE JUMP JUMPDEST PUSH1 0x0 PUSH2 0x28F JUMP JUMPDEST PUSH2 0x23E PUSH2 0x4B2 CALLDATASIZE PUSH1 0x4 PUSH2 0x397E JUMP JUMPDEST PUSH2 0x1F8F JUMP JUMPDEST PUSH2 0x28F PUSH2 0x4C5 CALLDATASIZE PUSH1 0x4 PUSH2 0x3A4A JUMP JUMPDEST PUSH2 0x2045 JUMP JUMPDEST PUSH2 0x306 PUSH2 0x4D8 CALLDATASIZE PUSH1 0x4 PUSH2 0x34B5 JUMP JUMPDEST PUSH1 0x0 SWAP1 DUP2 MSTORE PUSH1 0x20 DUP2 SWAP1 MSTORE PUSH1 0x40 SWAP1 KECCAK256 SLOAD SWAP1 JUMP JUMPDEST PUSH2 0x46A PUSH2 0x4F8 CALLDATASIZE PUSH1 0x4 PUSH2 0x34B5 JUMP JUMPDEST PUSH2 0x2118 JUMP JUMPDEST PUSH2 0x28F PUSH2 0x50B CALLDATASIZE PUSH1 0x4 PUSH2 0x34B5 JUMP JUMPDEST PUSH2 0x2135 JUMP JUMPDEST PUSH2 0x306 PUSH2 0x51E CALLDATASIZE PUSH1 0x4 PUSH2 0x34B5 JUMP JUMPDEST PUSH1 0x0 SWAP1 DUP2 MSTORE PUSH1 0x5 PUSH1 0x20 MSTORE PUSH1 0x40 SWAP1 KECCAK256 SLOAD SWAP1 JUMP JUMPDEST PUSH2 0x23E PUSH2 0x53E CALLDATASIZE PUSH1 0x4 PUSH2 0x3B5D JUMP JUMPDEST PUSH2 0x2143 JUMP JUMPDEST PUSH2 0x28F PUSH2 0x551 CALLDATASIZE PUSH1 0x4 PUSH2 0x3BBD JUMP JUMPDEST PUSH2 0x23F8 JUMP JUMPDEST PUSH2 0x569 PUSH2 0x564 CALLDATASIZE PUSH1 0x4 PUSH2 0x3748 JUMP JUMPDEST PUSH2 0x2481 JUMP JUMPDEST PUSH1 0x40 MLOAD PUSH2 0x273 SWAP5 SWAP4 SWAP3 SWAP2 SWAP1 PUSH2 0x3CA9 JUMP JUMPDEST PUSH2 0x23E PUSH2 0x587 CALLDATASIZE PUSH1 0x4 PUSH2 0x3469 JUMP JUMPDEST PUSH2 0x24AD JUMP JUMPDEST PUSH1 0x0 DUP1 PUSH2 0x59B DUP4 DUP6 ADD DUP6 PUSH2 0x3D4F JUMP JUMPDEST SWAP2 POP SWAP2 POP PUSH1 0x0 PUSH2 0x5B1 DUP4 DUP1 MLOAD SWAP1 PUSH1 0x20 ADD KECCAK256 PUSH2 0x2566 JUMP JUMPDEST SWAP1 POP PUSH1 0x0 PUSH32 0x0 PUSH1 0x1 PUSH1 0x1 PUSH1 0xA0 SHL SUB AND PUSH4 0x73E3D66A DUP4 DUP6 PUSH1 0x40 MLOAD DUP4 PUSH4 0xFFFFFFFF AND PUSH1 0xE0 SHL DUP2 MSTORE PUSH1 0x4 ADD PUSH2 0x603 SWAP3 SWAP2 SWAP1 PUSH2 0x3DB3 JUMP JUMPDEST PUSH1 0x20 PUSH1 0x40 MLOAD DUP1 DUP4 SUB DUP2 PUSH1 0x0 DUP8 DUP1 EXTCODESIZE ISZERO DUP1 ISZERO PUSH2 0x61D JUMPI PUSH1 0x0 DUP1 REVERT JUMPDEST POP GAS CALL ISZERO DUP1 ISZERO PUSH2 0x631 JUMPI RETURNDATASIZE PUSH1 0x0 DUP1 RETURNDATACOPY RETURNDATASIZE PUSH1 0x0 REVERT JUMPDEST POP POP POP POP PUSH1 0x40 MLOAD RETURNDATASIZE PUSH1 0x1F NOT PUSH1 0x1F DUP3 ADD AND DUP3 ADD DUP1 PUSH1 0x40 MSTORE POP DUP2 ADD SWAP1 PUSH2 0x655 SWAP2 SWAP1 PUSH2 0x3DE1 JUMP JUMPDEST SWAP1 POP PUSH1 0x0 PUSH1 0x60 DUP1 PUSH1 0x60 ADDRESS PUSH1 0x1 PUSH1 0x1 PUSH1 0xA0 SHL SUB AND PUSH4 0xF871F14E DUP10 PUSH1 0x40 MLOAD DUP3 PUSH4 0xFFFFFFFF AND PUSH1 0xE0 SHL DUP2 MSTORE PUSH1 0x4 ADD PUSH2 0x68A SWAP2 SWAP1 PUSH2 0x38FA JUMP JUMPDEST PUSH1 0x0 PUSH1 0x40 MLOAD DUP1 DUP4 SUB DUP2 DUP7 DUP1 EXTCODESIZE ISZERO DUP1 ISZERO PUSH2 0x6A2 JUMPI PUSH1 0x0 DUP1 REVERT JUMPDEST POP GAS STATICCALL SWAP3 POP POP POP DUP1 ISZERO PUSH2 0x6D7 JUMPI POP PUSH1 0x40 MLOAD RETURNDATASIZE PUSH1 0x0 DUP3 RETURNDATACOPY PUSH1 0x1F RETURNDATASIZE SWAP1 DUP2 ADD PUSH1 0x1F NOT AND DUP3 ADD PUSH1 0x40 MSTORE PUSH2 0x6D4 SWAP2 SWAP1 DUP2 ADD SWAP1 PUSH2 0x3FE0 JUMP JUMPDEST PUSH1 0x1 JUMPDEST PUSH2 0x6FE JUMPI DUP8 DUP1 PUSH1 0x20 ADD SWAP1 MLOAD DUP2 ADD SWAP1 PUSH2 0x6EF SWAP2 SWAP1 PUSH2 0x3FE0 JUMP JUMPDEST SWAP3 SWAP7 POP SWAP1 SWAP5 POP SWAP3 POP SWAP1 POP PUSH2 0x709 JUMP JUMPDEST SWAP3 SWAP7 POP SWAP1 SWAP5 POP SWAP3 POP SWAP1 POP JUMPDEST CHAINID DUP5 EQ PUSH2 0x742 JUMPI PUSH1 0x40 MLOAD PUSH32 0x7A47C9A200000000000000000000000000000000000000000000000000000000 DUP2 MSTORE PUSH1 0x4 ADD PUSH1 0x40 MLOAD DUP1 SWAP2 SUB SWAP1 REVERT JUMPDEST DUP3 MLOAD DUP3 MLOAD DUP2 EQ ISZERO DUP1 PUSH2 0x755 JUMPI POP DUP2 MLOAD DUP2 EQ ISZERO JUMPDEST ISZERO PUSH2 0x78C JUMPI PUSH1 0x40 MLOAD PUSH32 0xCA9A28F500000000000000000000000000000000000000000000000000000000 DUP2 MSTORE PUSH1 0x4 ADD PUSH1 0x40 MLOAD DUP1 SWAP2 SUB SWAP1 REVERT JUMPDEST PUSH1 0x0 JUMPDEST DUP2 DUP2 LT ISZERO PUSH2 0xB4E JUMPI PUSH1 0x0 DUP6 DUP3 DUP2 MLOAD DUP2 LT PUSH2 0x7AB JUMPI PUSH2 0x7AB PUSH2 0x4072 JUMP JUMPDEST PUSH1 0x20 MUL PUSH1 0x20 ADD ADD MLOAD SWAP1 POP PUSH2 0x7BE DUP2 PUSH2 0x2135 JUMP JUMPDEST ISZERO PUSH2 0x7C9 JUMPI POP PUSH2 0xB3E JUMP JUMPDEST PUSH1 0x0 DUP1 DUP7 DUP5 DUP2 MLOAD DUP2 LT PUSH2 0x7DE JUMPI PUSH2 0x7DE PUSH2 0x4072 JUMP JUMPDEST PUSH1 0x20 MUL PUSH1 0x20 ADD ADD MLOAD PUSH1 0x40 MLOAD PUSH1 0x20 ADD PUSH2 0x7F6 SWAP2 SWAP1 PUSH2 0x40A1 JUMP JUMPDEST PUSH1 0x40 MLOAD PUSH1 0x20 DUP2 DUP4 SUB SUB DUP2 MSTORE SWAP1 PUSH1 0x40 MSTORE DUP1 MLOAD SWAP1 PUSH1 0x20 ADD KECCAK256 SWAP1 POP PUSH32 0x5763814B98A3AA86F212797AF3273868B5DD6E2A532D764A79B98CA859E7BBAD DUP2 EQ ISZERO PUSH2 0x85E JUMPI PUSH32 0x886A625D00000000000000000000000000000000000000000000000000000000 SWAP2 POP PUSH2 0xA03 JUMP JUMPDEST PUSH32 0xEC78D9C22C08BB9F0ECD5D95571AE83E3F22219C5A9278C3270691D50ABFD91B DUP2 EQ ISZERO PUSH2 0x8AE JUMPI PUSH32 0x146E2D7800000000000000000000000000000000000000000000000000000000 SWAP2 POP PUSH2 0xA03 JUMP JUMPDEST PUSH32 0x37AC16AABC4D87540E53151B2B716265CFD6B195DB96A9DAF8E893C829BBD233 DUP2 EQ ISZERO PUSH2 0x8FE JUMPI PUSH32 0xFBE0A31B00000000000000000000000000000000000000000000000000000000 SWAP2 POP PUSH2 0xA03 JUMP JUMPDEST PUSH32 0xF41504255B911B3042EE4F8786FDF7CF4BCF24ACE033FA16AF3C8574E025E436 DUP2 EQ ISZERO PUSH2 0x94E JUMPI PUSH32 0x585A9FD400000000000000000000000000000000000000000000000000000000 SWAP2 POP PUSH2 0xA03 JUMP JUMPDEST PUSH32 0xDA199C0E76F665E0450020791C7F8EACC75F3CDBACE313272C28F93E5390B62C DUP2 EQ ISZERO PUSH2 0x99E JUMPI PUSH32 0x4656AE2E00000000000000000000000000000000000000000000000000000000 SWAP2 POP PUSH2 0xA03 JUMP JUMPDEST PUSH32 0xB460DCB6FD5797FC0E7EA0F13406C80D30702BA7F73A42BD91394775DCBCA718 DUP2 EQ ISZERO PUSH2 0x9FB JUMPI DUP10 PUSH2 0x9D3 JUMPI POP POP POP PUSH2 0xB3E JUMP JUMPDEST PUSH32 0x97B87BA600000000000000000000000000000000000000000000000000000000 SWAP2 POP PUSH2 0xA03 JUMP JUMPDEST POP POP POP PUSH2 0xB3E JUMP JUMPDEST PUSH2 0xA0E DUP4 PUSH1 0x1 PUSH2 0x25BA JUMP JUMPDEST PUSH1 0x0 ADDRESS PUSH1 0x1 PUSH1 0x1 PUSH1 0xA0 SHL SUB AND DUP4 DUP9 DUP8 DUP2 MLOAD DUP2 LT PUSH2 0xA2D JUMPI PUSH2 0xA2D PUSH2 0x4072 JUMP JUMPDEST PUSH1 0x20 MUL PUSH1 0x20 ADD ADD MLOAD DUP7 PUSH1 0x40 MLOAD PUSH1 0x24 ADD PUSH2 0xA47 SWAP3 SWAP2 SWAP1 PUSH2 0x40BD JUMP JUMPDEST PUSH1 0x40 DUP1 MLOAD PUSH1 0x1F NOT DUP2 DUP5 SUB ADD DUP2 MSTORE SWAP2 DUP2 MSTORE PUSH1 0x20 DUP3 ADD DUP1 MLOAD PUSH28 0xFFFFFFFFFFFFFFFFFFFFFFFFFFFFFFFFFFFFFFFFFFFFFFFFFFFFFFFF AND PUSH32 0xFFFFFFFF00000000000000000000000000000000000000000000000000000000 SWAP1 SWAP5 AND SWAP4 SWAP1 SWAP4 OR SWAP1 SWAP3 MSTORE SWAP1 MLOAD PUSH2 0xAB2 SWAP2 SWAP1 PUSH2 0x40A1 JUMP JUMPDEST PUSH1 0x0 PUSH1 0x40 MLOAD DUP1 DUP4 SUB DUP2 PUSH1 0x0 DUP7 GAS CALL SWAP2 POP POP RETURNDATASIZE DUP1 PUSH1 0x0 DUP2 EQ PUSH2 0xAEF JUMPI PUSH1 0x40 MLOAD SWAP2 POP PUSH1 0x1F NOT PUSH1 0x3F RETURNDATASIZE ADD AND DUP3 ADD PUSH1 0x40 MSTORE RETURNDATASIZE DUP3 MSTORE RETURNDATASIZE PUSH1 0x0 PUSH1 0x20 DUP5 ADD RETURNDATACOPY PUSH2 0xAF4 JUMP JUMPDEST PUSH1 0x60 SWAP2 POP JUMPDEST POP POP SWAP1 POP DUP1 ISZERO PUSH2 0xB2E JUMPI PUSH1 0x40 MLOAD DUP5 SWAP1 PUSH32 0xA74C8847D513FEBA22A0F0CB38D53081ABF97562CDB293926BA243689E7C41CA SWAP1 PUSH1 0x0 SWAP1 LOG2 PUSH2 0xB39 JUMP JUMPDEST PUSH2 0xB39 DUP5 PUSH1 0x0 PUSH2 0x25BA JUMP JUMPDEST POP POP POP POP JUMPDEST PUSH2 0xB47 DUP2 PUSH2 0x410E JUMP JUMPDEST SWAP1 POP PUSH2 0x78F JUMP JUMPDEST POP POP POP POP POP POP POP POP POP POP POP POP JUMP JUMPDEST CALLER ADDRESS EQ PUSH2 0xB95 JUMPI PUSH1 0x40 MLOAD PUSH32 0x29C3B7EE00000000000000000000000000000000000000000000000000000000 DUP2 MSTORE PUSH1 0x4 ADD PUSH1 0x40 MLOAD DUP1 SWAP2 SUB SWAP1 REVERT JUMPDEST PUSH1 0x0 DUP1 DUP1 PUSH2 0xBA5 DUP6 DUP8 ADD DUP8 PUSH2 0x4152 JUMP JUMPDEST SWAP3 POP SWAP3 POP SWAP3 POP PUSH2 0xBB6 DUP4 DUP4 DUP4 PUSH2 0x2604 JUMP JUMPDEST POP POP POP POP POP POP JUMP JUMPDEST PUSH1 0x60 PUSH1 0x0 PUSH2 0xBCB DUP4 PUSH2 0x2800 JUMP JUMPDEST SWAP1 POP DUP1 PUSH8 0xFFFFFFFFFFFFFFFF DUP2 GT ISZERO PUSH2 0xBE6 JUMPI PUSH2 0xBE6 PUSH2 0x366A JUMP JUMPDEST PUSH1 0x40 MLOAD SWAP1 DUP1 DUP3 MSTORE DUP1 PUSH1 0x20 MUL PUSH1 0x20 ADD DUP3 ADD PUSH1 0x40 MSTORE DUP1 ISZERO PUSH2 0xC0F JUMPI DUP2 PUSH1 0x20 ADD PUSH1 0x20 DUP3 MUL DUP1 CALLDATASIZE DUP4 CALLDATACOPY ADD SWAP1 POP JUMPDEST POP SWAP2 POP PUSH1 0x0 JUMPDEST DUP2 DUP2 LT ISZERO PUSH2 0xC61 JUMPI PUSH2 0xC27 DUP5 DUP3 PUSH2 0x280E JUMP JUMPDEST DUP4 DUP3 DUP2 MLOAD DUP2 LT PUSH2 0xC39 JUMPI PUSH2 0xC39 PUSH2 0x4072 JUMP JUMPDEST PUSH1 0x1 PUSH1 0x1 PUSH1 0xA0 SHL SUB SWAP1 SWAP3 AND PUSH1 0x20 SWAP3 DUP4 MUL SWAP2 SWAP1 SWAP2 ADD SWAP1 SWAP2 ADD MSTORE PUSH2 0xC5A DUP2 PUSH2 0x410E JUMP JUMPDEST SWAP1 POP PUSH2 0xC15 JUMP JUMPDEST POP POP SWAP2 SWAP1 POP JUMP JUMPDEST PUSH1 0x0 DUP1 PUSH2 0xD19 DUP12 DUP12 DUP12 DUP1 DUP1 PUSH1 0x1F ADD PUSH1 0x20 DUP1 SWAP2 DIV MUL PUSH1 0x20 ADD PUSH1 0x40 MLOAD SWAP1 DUP2 ADD PUSH1 0x40 MSTORE DUP1 SWAP4 SWAP3 SWAP2 SWAP1 DUP2 DUP2 MSTORE PUSH1 0x20 ADD DUP4 DUP4 DUP1 DUP3 DUP5 CALLDATACOPY PUSH1 0x0 SWAP3 ADD SWAP2 SWAP1 SWAP2 MSTORE POP POP PUSH1 0x40 DUP1 MLOAD PUSH1 0x20 PUSH1 0x1F DUP16 ADD DUP2 SWAP1 DIV DUP2 MUL DUP3 ADD DUP2 ADD SWAP1 SWAP3 MSTORE DUP14 DUP2 MSTORE SWAP3 POP DUP14 SWAP2 POP DUP13 SWAP1 DUP2 SWAP1 DUP5 ADD DUP4 DUP3 DUP1 DUP3 DUP5 CALLDATACOPY PUSH1 0x0 SWAP3 ADD SWAP2 SWAP1 SWAP2 MSTORE POP POP PUSH1 0x40 DUP1 MLOAD PUSH1 0x20 PUSH1 0x1F DUP14 ADD DUP2 SWAP1 DIV DUP2 MUL DUP3 ADD DUP2 ADD SWAP1 SWAP3 MSTORE DUP12 DUP2 MSTORE CALLER SWAP4 POP DUP14 SWAP3 POP SWAP1 DUP13 SWAP1 DUP13 SWAP1 DUP2 SWAP1 DUP5 ADD DUP4 DUP3 DUP1 DUP3 DUP5 CALLDATACOPY PUSH1 0x0 SWAP3 ADD SWAP2 SWAP1 SWAP2 MSTORE POP DUP13 SWAP3 POP PUSH2 0x2824 SWAP2 POP POP JUMP JUMPDEST PUSH1 0x0 DUP2 DUP2 MSTORE PUSH1 0x4 PUSH1 0x20 MSTORE PUSH1 0x40 SWAP1 KECCAK256 SLOAD PUSH1 0xFF AND SWAP3 POP SWAP1 POP DUP2 ISZERO PUSH2 0xDAC JUMPI PUSH1 0x0 DUP2 DUP2 MSTORE PUSH1 0x4 PUSH1 0x20 MSTORE PUSH1 0x40 SWAP1 KECCAK256 DUP1 SLOAD PUSH32 0xFFFFFFFFFFFFFFFFFFFFFFFFFFFFFFFFFFFFFFFFFFFFFFFFFFFFFFFFFFFFFF00 AND SWAP1 SSTORE PUSH2 0xDAC DUP6 DUP6 DUP1 DUP1 PUSH1 0x1F ADD PUSH1 0x20 DUP1 SWAP2 DIV MUL PUSH1 0x20 ADD PUSH1 0x40 MLOAD SWAP1 DUP2 ADD PUSH1 0x40 MSTORE DUP1 SWAP4 SWAP3 SWAP2 SWAP1 DUP2 DUP2 MSTORE PUSH1 0x20 ADD DUP4 DUP4 DUP1 DUP3 DUP5 CALLDATACOPY PUSH1 0x0 SWAP3 ADD SWAP2 SWAP1 SWAP2 MSTORE POP CALLER SWAP3 POP DUP8 SWAP2 POP PUSH2 0x2604 SWAP1 POP JUMP JUMPDEST POP SWAP10 SWAP9 POP POP POP POP POP POP POP POP POP JUMP JUMPDEST DUP2 DUP2 PUSH1 0x40 MLOAD PUSH2 0xDCA SWAP3 SWAP2 SWAP1 PUSH2 0x41AC JUMP JUMPDEST PUSH1 0x40 MLOAD DUP1 SWAP2 SUB SWAP1 KECCAK256 CALLER PUSH1 0x1 PUSH1 0x1 PUSH1 0xA0 SHL SUB AND PUSH32 0x30AE6CC78C27E651745BF2AD08A11DE83910AC1E347A52F7AC898C0FBEF94DAE DUP9 DUP9 DUP9 DUP9 DUP9 DUP9 PUSH1 0x40 MLOAD PUSH2 0xE15 SWAP7 SWAP6 SWAP5 SWAP4 SWAP3 SWAP2 SWAP1 PUSH2 0x41E7 JUMP JUMPDEST PUSH1 0x40 MLOAD DUP1 SWAP2 SUB SWAP1 LOG3 POP POP POP POP POP POP JUMP JUMPDEST PUSH1 0x0 PUSH2 0xE40 PUSH2 0x4D8 DUP4 PUSH2 0xE3B PUSH3 0x15180 TIMESTAMP PUSH2 0x4230 JUMP JUMPDEST PUSH2 0x2888 JUMP JUMPDEST SWAP3 SWAP2 POP POP JUMP JUMPDEST PUSH2 0xE88 CALLER DUP5 DUP5 DUP1 DUP1 PUSH1 0x1F ADD PUSH1 0x20 DUP1 SWAP2 DIV MUL PUSH1 0x20 ADD PUSH1 0x40 MLOAD SWAP1 DUP2 ADD PUSH1 0x40 MSTORE DUP1 SWAP4 SWAP3 SWAP2 SWAP1 DUP2 DUP2 MSTORE PUSH1 0x20 ADD DUP4 DUP4 DUP1 DUP3 DUP5 CALLDATACOPY PUSH1 0x0 SWAP3 ADD SWAP2 SWAP1 SWAP2 MSTORE POP DUP7 SWAP3 POP PUSH2 0x28DD SWAP2 POP POP JUMP JUMPDEST CALLER PUSH1 0x1 PUSH1 0x1 PUSH1 0xA0 SHL SUB AND PUSH32 0x651D93F66C4329630E8D0F62488EFF599E3BE484DA587335E8DC0FCF46062726 DUP9 DUP9 DUP9 DUP9 DUP9 DUP9 DUP9 PUSH1 0x40 MLOAD PUSH2 0xECD SWAP8 SWAP7 SWAP6 SWAP5 SWAP4 SWAP3 SWAP2 SWAP1 PUSH2 0x426B JUMP JUMPDEST PUSH1 0x40 MLOAD DUP1 SWAP2 SUB SWAP1 LOG2 POP POP POP POP POP POP POP JUMP JUMPDEST PUSH1 0x0 PUSH2 0xF31 PUSH32 0xD51DC9B187568BB94760866E1D0D066CA470037D2D331AFB1A02EC74BFB8990C PUSH1 0x0 SWAP1 DUP2 MSTORE PUSH1 0x20 MSTORE PUSH32 0xF8D0C05CD32E3272241FDC9D5839565F8BCF94139CB4BD09E230E1B57A60DDC2 SLOAD SWAP1 JUMP JUMPDEST SWAP1 POP SWAP1 JUMP JUMPDEST CALLER ADDRESS EQ PUSH2 0xF6F JUMPI PUSH1 0x40 MLOAD PUSH32 0x29C3B7EE00000000000000000000000000000000000000000000000000000000 DUP2 MSTORE PUSH1 0x4 ADD PUSH1 0x40 MLOAD DUP1 SWAP2 SUB SWAP1 REVERT JUMPDEST PUSH1 0x0 DUP1 PUSH2 0xF7E DUP5 DUP7 ADD DUP7 PUSH2 0x42BC JUMP JUMPDEST SWAP2 POP SWAP2 POP PUSH1 0x0 PUSH2 0xF8D DUP4 PUSH2 0x17E1 JUMP JUMPDEST SWAP1 POP PUSH1 0x1 PUSH1 0x1 PUSH1 0xA0 SHL SUB DUP2 AND PUSH2 0xFDA JUMPI DUP3 PUSH1 0x40 MLOAD PUSH32 0x72BA137E00000000000000000000000000000000000000000000000000000000 DUP2 MSTORE PUSH1 0x4 ADD PUSH2 0xFD1 SWAP2 SWAP1 PUSH2 0x38FA JUMP JUMPDEST PUSH1 0x40 MLOAD DUP1 SWAP2 SUB SWAP1 REVERT JUMPDEST PUSH1 0x2 PUSH2 0xFE5 DUP5 PUSH2 0x2BDE JUMP JUMPDEST PUSH1 0x2 DUP2 GT ISZERO PUSH2 0xFF6 JUMPI PUSH2 0xFF6 PUSH2 0x4301 JUMP JUMPDEST EQ ISZERO PUSH2 0x12B8 JUMPI PUSH1 0x0 DUP3 PUSH1 0x40 MLOAD PUSH2 0x100B SWAP1 PUSH2 0x33D1 JUMP JUMPDEST DUP2 SWAP1 PUSH1 0x40 MLOAD DUP1 SWAP2 SUB SWAP1 PUSH1 0x0 CREATE2 SWAP1 POP DUP1 ISZERO DUP1 ISZERO PUSH2 0x102B JUMPI RETURNDATASIZE PUSH1 0x0 DUP1 RETURNDATACOPY RETURNDATASIZE PUSH1 0x0 REVERT JUMPDEST POP PUSH1 0x40 MLOAD PUSH32 0x70A0823100000000000000000000000000000000000000000000000000000000 DUP2 MSTORE PUSH1 0x1 PUSH1 0x1 PUSH1 0xA0 SHL SUB DUP1 DUP4 AND PUSH1 0x4 DUP4 ADD DUP2 SWAP1 MSTORE SWAP3 SWAP4 POP PUSH1 0x0 SWAP3 DUP4 SWAP3 SWAP1 SWAP2 PUSH4 0x1CFF79CD SWAP2 DUP8 SWAP2 PUSH32 0xA9059CBB00000000000000000000000000000000000000000000000000000000 SWAP2 ADDRESS SWAP2 DUP5 AND SWAP1 PUSH4 0x70A08231 SWAP1 PUSH1 0x24 ADD PUSH1 0x20 PUSH1 0x40 MLOAD DUP1 DUP4 SUB DUP2 DUP7 DUP1 EXTCODESIZE ISZERO DUP1 ISZERO PUSH2 0x10BE JUMPI PUSH1 0x0 DUP1 REVERT JUMPDEST POP GAS STATICCALL ISZERO DUP1 ISZERO PUSH2 0x10D2 JUMPI RETURNDATASIZE PUSH1 0x0 DUP1 RETURNDATACOPY RETURNDATASIZE PUSH1 0x0 REVERT JUMPDEST POP POP POP POP PUSH1 0x40 MLOAD RETURNDATASIZE PUSH1 0x1F NOT PUSH1 0x1F DUP3 ADD AND DUP3 ADD DUP1 PUSH1 0x40 MSTORE POP DUP2 ADD SWAP1 PUSH2 0x10F6 SWAP2 SWAP1 PUSH2 0x4330 JUMP JUMPDEST PUSH1 0x40 MLOAD PUSH1 0x1 PUSH1 0x1 PUSH1 0xA0 SHL SUB SWAP1 SWAP3 AND PUSH1 0x24 DUP4 ADD MSTORE PUSH1 0x44 DUP3 ADD MSTORE PUSH1 0x64 ADD PUSH1 0x40 DUP1 MLOAD PUSH1 0x1F NOT DUP2 DUP5 SUB ADD DUP2 MSTORE SWAP2 DUP2 MSTORE PUSH1 0x20 DUP3 ADD DUP1 MLOAD PUSH28 0xFFFFFFFFFFFFFFFFFFFFFFFFFFFFFFFFFFFFFFFFFFFFFFFFFFFFFFFF AND PUSH32 0xFFFFFFFF00000000000000000000000000000000000000000000000000000000 SWAP5 DUP6 AND OR SWAP1 MSTORE MLOAD PUSH1 0xE0 DUP6 SWAP1 SHL SWAP1 SWAP3 AND DUP3 MSTORE PUSH2 0x1184 SWAP3 SWAP2 PUSH1 0x4 ADD PUSH2 0x4349 JUMP JUMPDEST PUSH1 0x0 PUSH1 0x40 MLOAD DUP1 DUP4 SUB DUP2 PUSH1 0x0 DUP8 DUP1 EXTCODESIZE ISZERO DUP1 ISZERO PUSH2 0x119E JUMPI PUSH1 0x0 DUP1 REVERT JUMPDEST POP GAS CALL ISZERO DUP1 ISZERO PUSH2 0x11B2 JUMPI RETURNDATASIZE PUSH1 0x0 DUP1 RETURNDATACOPY RETURNDATASIZE PUSH1 0x0 REVERT JUMPDEST POP POP POP POP PUSH1 0x40 MLOAD RETURNDATASIZE PUSH1 0x0 DUP3 RETURNDATACOPY PUSH1 0x1F RETURNDATASIZE SWAP1 DUP2 ADD PUSH1 0x1F NOT AND DUP3 ADD PUSH1 0x40 MSTORE PUSH2 0x11DA SWAP2 SWAP1 DUP2 ADD SWAP1 PUSH2 0x436B JUMP JUMPDEST SWAP2 POP SWAP2 POP DUP2 ISZERO DUP1 PUSH2 0x1207 JUMPI POP DUP1 MLOAD ISZERO DUP1 ISZERO SWAP1 PUSH2 0x1207 JUMPI POP DUP1 DUP1 PUSH1 0x20 ADD SWAP1 MLOAD DUP2 ADD SWAP1 PUSH2 0x1205 SWAP2 SWAP1 PUSH2 0x3DE1 JUMP JUMPDEST ISZERO JUMPDEST ISZERO PUSH2 0x1240 JUMPI DUP6 PUSH1 0x40 MLOAD PUSH32 0xE217B0AD00000000000000000000000000000000000000000000000000000000 DUP2 MSTORE PUSH1 0x4 ADD PUSH2 0xFD1 SWAP2 SWAP1 PUSH2 0x38FA JUMP JUMPDEST PUSH1 0x40 MLOAD PUSH31 0xF55D9D00000000000000000000000000000000000000000000000000000000 DUP2 MSTORE ADDRESS PUSH1 0x4 DUP3 ADD MSTORE PUSH1 0x1 PUSH1 0x1 PUSH1 0xA0 SHL SUB DUP5 AND SWAP1 PUSH3 0xF55D9D SWAP1 PUSH1 0x24 ADD PUSH1 0x0 PUSH1 0x40 MLOAD DUP1 DUP4 SUB DUP2 PUSH1 0x0 DUP8 DUP1 EXTCODESIZE ISZERO DUP1 ISZERO PUSH2 0x1298 JUMPI PUSH1 0x0 DUP1 REVERT JUMPDEST POP GAS CALL ISZERO DUP1 ISZERO PUSH2 0x12AC JUMPI RETURNDATASIZE PUSH1 0x0 DUP1 RETURNDATACOPY RETURNDATASIZE PUSH1 0x0 REVERT JUMPDEST POP POP POP POP POP POP POP PUSH2 0xBB6 JUMP JUMPDEST PUSH1 0x40 MLOAD PUSH32 0x8A1EEE100000000000000000000000000000000000000000000000000000000 DUP2 MSTORE PUSH1 0x4 DUP2 ADD DUP4 SWAP1 MSTORE PUSH1 0x1 PUSH1 0x1 PUSH1 0xA0 SHL SUB DUP3 AND SWAP1 PUSH4 0x8A1EEE1 SWAP1 PUSH1 0x24 ADD JUMPDEST PUSH1 0x0 PUSH1 0x40 MLOAD DUP1 DUP4 SUB DUP2 PUSH1 0x0 DUP8 DUP1 EXTCODESIZE ISZERO DUP1 ISZERO PUSH2 0x1314 JUMPI PUSH1 0x0 DUP1 REVERT JUMPDEST POP GAS CALL ISZERO DUP1 ISZERO PUSH2 0x1328 JUMPI RETURNDATASIZE PUSH1 0x0 DUP1 RETURNDATACOPY RETURNDATASIZE PUSH1 0x0 REVERT JUMPDEST POP POP POP POP POP POP POP POP POP POP JUMP JUMPDEST CALLER ADDRESS EQ PUSH2 0x136D JUMPI PUSH1 0x40 MLOAD PUSH32 0x29C3B7EE00000000000000000000000000000000000000000000000000000000 DUP2 MSTORE PUSH1 0x4 ADD PUSH1 0x40 MLOAD DUP1 SWAP2 SUB SWAP1 REVERT JUMPDEST PUSH1 0x0 DUP1 DUP1 DUP1 DUP1 DUP1 DUP1 DUP1 PUSH2 0x1382 DUP11 DUP13 ADD DUP13 PUSH2 0x43AF JUMP JUMPDEST SWAP8 POP SWAP8 POP SWAP8 POP SWAP8 POP SWAP8 POP SWAP8 POP SWAP8 POP SWAP8 POP PUSH2 0x13A1 DUP10 DUP10 DUP10 DUP10 DUP10 DUP10 DUP10 PUSH2 0x2BFD JUMP JUMPDEST DUP5 DUP7 PUSH1 0x1 PUSH1 0x1 PUSH1 0xA0 SHL SUB AND DUP11 PUSH32 0x9991FAA1F435675159FFAE64B66D7ECFDB55C29755869A18DB8497B4392347E0 DUP12 DUP12 DUP10 DUP10 DUP10 DUP10 PUSH1 0x40 MLOAD PUSH2 0x13E6 SWAP7 SWAP6 SWAP5 SWAP4 SWAP3 SWAP2 SWAP1 PUSH2 0x446D JUMP JUMPDEST PUSH1 0x40 MLOAD DUP1 SWAP2 SUB SWAP1 LOG4 POP POP POP POP POP POP POP POP POP POP POP JUMP JUMPDEST PUSH1 0x0 PUSH2 0xE40 PUSH2 0x4D8 DUP4 PUSH2 0x2C51 JUMP JUMPDEST PUSH1 0x0 DUP1 PUSH2 0x1484 DUP9 DUP9 DUP9 DUP1 DUP1 PUSH1 0x1F ADD PUSH1 0x20 DUP1 SWAP2 DIV MUL PUSH1 0x20 ADD PUSH1 0x40 MLOAD SWAP1 DUP2 ADD PUSH1 0x40 MSTORE DUP1 SWAP4 SWAP3 SWAP2 SWAP1 DUP2 DUP2 MSTORE PUSH1 0x20 ADD DUP4 DUP4 DUP1 DUP3 DUP5 CALLDATACOPY PUSH1 0x0 SWAP3 ADD SWAP2 SWAP1 SWAP2 MSTORE POP POP PUSH1 0x40 DUP1 MLOAD PUSH1 0x20 PUSH1 0x1F DUP13 ADD DUP2 SWAP1 DIV DUP2 MUL DUP3 ADD DUP2 ADD SWAP1 SWAP3 MSTORE DUP11 DUP2 MSTORE SWAP3 POP DUP11 SWAP2 POP DUP10 SWAP1 DUP2 SWAP1 DUP5 ADD DUP4 DUP3 DUP1 DUP3 DUP5 CALLDATACOPY PUSH1 0x0 SWAP3 ADD SWAP2 SWAP1 SWAP2 MSTORE POP CALLER SWAP3 POP DUP10 SWAP2 POP PUSH2 0x2C86 SWAP1 POP JUMP JUMPDEST PUSH1 0x0 DUP2 DUP2 MSTORE PUSH1 0x4 PUSH1 0x20 MSTORE PUSH1 0x40 SWAP1 KECCAK256 SLOAD PUSH1 0xFF AND SWAP3 POP SWAP1 POP DUP2 ISZERO PUSH2 0x14D5 JUMPI PUSH1 0x0 DUP2 DUP2 MSTORE PUSH1 0x4 PUSH1 0x20 MSTORE PUSH1 0x40 SWAP1 KECCAK256 DUP1 SLOAD PUSH32 0xFFFFFFFFFFFFFFFFFFFFFFFFFFFFFFFFFFFFFFFFFFFFFFFFFFFFFFFFFFFFFF00 AND SWAP1 SSTORE JUMPDEST POP SWAP7 SWAP6 POP POP POP POP POP POP JUMP JUMPDEST CALLER ADDRESS EQ PUSH2 0x1519 JUMPI PUSH1 0x40 MLOAD PUSH32 0x29C3B7EE00000000000000000000000000000000000000000000000000000000 DUP2 MSTORE PUSH1 0x4 ADD PUSH1 0x40 MLOAD DUP1 SWAP2 SUB SWAP1 REVERT JUMPDEST PUSH1 0x0 DUP1 DUP1 DUP1 DUP1 DUP1 PUSH2 0x152C DUP9 DUP11 ADD DUP11 PUSH2 0x44C5 JUMP JUMPDEST SWAP6 POP SWAP6 POP SWAP6 POP SWAP6 POP SWAP6 POP SWAP6 POP PUSH1 0x0 PUSH1 0x1 PUSH1 0x1 PUSH1 0xA0 SHL SUB AND PUSH2 0x154C DUP7 PUSH2 0x17E1 JUMP JUMPDEST PUSH1 0x1 PUSH1 0x1 PUSH1 0xA0 SHL SUB AND EQ PUSH2 0x158E JUMPI DUP5 PUSH1 0x40 MLOAD PUSH32 0xAA7E8B3200000000000000000000000000000000000000000000000000000000 DUP2 MSTORE PUSH1 0x4 ADD PUSH2 0xFD1 SWAP2 SWAP1 PUSH2 0x38FA JUMP JUMPDEST PUSH1 0x1 PUSH1 0x1 PUSH1 0xA0 SHL SUB DUP3 AND PUSH2 0x1727 JUMPI PUSH1 0x0 DUP6 PUSH1 0x40 MLOAD PUSH1 0x20 ADD PUSH2 0x15AF SWAP2 SWAP1 PUSH2 0x40A1 JUMP JUMPDEST PUSH1 0x40 MLOAD PUSH1 0x20 DUP2 DUP4 SUB SUB DUP2 MSTORE SWAP1 PUSH1 0x40 MSTORE DUP1 MLOAD SWAP1 PUSH1 0x20 ADD KECCAK256 SWAP1 POP PUSH1 0x0 DUP1 PUSH32 0x0 PUSH1 0x1 PUSH1 0x1 PUSH1 0xA0 SHL SUB AND PUSH4 0x6FC95B34 PUSH1 0xE0 SHL DUP11 DUP11 DUP11 DUP11 DUP9 PUSH1 0x40 MLOAD PUSH1 0x24 ADD PUSH2 0x1615 SWAP6 SWAP5 SWAP4 SWAP3 SWAP2 SWAP1 PUSH2 0x4568 JUMP JUMPDEST PUSH1 0x40 DUP1 MLOAD PUSH1 0x1F NOT DUP2 DUP5 SUB ADD DUP2 MSTORE SWAP2 DUP2 MSTORE PUSH1 0x20 DUP3 ADD DUP1 MLOAD PUSH28 0xFFFFFFFFFFFFFFFFFFFFFFFFFFFFFFFFFFFFFFFFFFFFFFFFFFFFFFFF AND PUSH32 0xFFFFFFFF00000000000000000000000000000000000000000000000000000000 SWAP1 SWAP5 AND SWAP4 SWAP1 SWAP4 OR SWAP1 SWAP3 MSTORE SWAP1 MLOAD PUSH2 0x1680 SWAP2 SWAP1 PUSH2 0x40A1 JUMP JUMPDEST PUSH1 0x0 PUSH1 0x40 MLOAD DUP1 DUP4 SUB DUP2 DUP6 GAS DELEGATECALL SWAP2 POP POP RETURNDATASIZE DUP1 PUSH1 0x0 DUP2 EQ PUSH2 0x16BB JUMPI PUSH1 0x40 MLOAD SWAP2 POP PUSH1 0x1F NOT PUSH1 0x3F RETURNDATASIZE ADD AND DUP3 ADD PUSH1 0x40 MSTORE RETURNDATASIZE DUP3 MSTORE RETURNDATASIZE PUSH1 0x0 PUSH1 0x20 DUP5 ADD RETURNDATACOPY PUSH2 0x16C0 JUMP JUMPDEST PUSH1 0x60 SWAP2 POP JUMPDEST POP SWAP2 POP SWAP2 POP DUP2 PUSH2 0x16FE JUMPI DUP8 PUSH1 0x40 MLOAD PUSH32 0x86D5274300000000000000000000000000000000000000000000000000000000 DUP2 MSTORE PUSH1 0x4 ADD PUSH2 0xFD1 SWAP2 SWAP1 PUSH2 0x38FA JUMP JUMPDEST DUP1 DUP1 PUSH1 0x20 ADD SWAP1 MLOAD DUP2 ADD SWAP1 PUSH2 0x1712 SWAP2 SWAP1 PUSH2 0x45AE JUMP JUMPDEST SWAP5 POP PUSH2 0x171F DUP9 PUSH1 0x1 PUSH2 0x2CE4 JUMP JUMPDEST POP POP POP PUSH2 0x177E JUMP JUMPDEST PUSH1 0x1 PUSH1 0x1 PUSH1 0xA0 SHL SUB DUP3 AND EXTCODESIZE PUSH2 0x1773 JUMPI PUSH1 0x40 MLOAD PUSH32 0xC5CCDDDE00000000000000000000000000000000000000000000000000000000 DUP2 MSTORE PUSH1 0x1 PUSH1 0x1 PUSH1 0xA0 SHL SUB DUP4 AND PUSH1 0x4 DUP3 ADD MSTORE PUSH1 0x24 ADD PUSH2 0xFD1 JUMP JUMPDEST PUSH2 0x177E DUP6 PUSH1 0x2 PUSH2 0x2CE4 JUMP JUMPDEST PUSH2 0x1788 DUP6 DUP4 PUSH2 0x2D14 JUMP JUMPDEST PUSH2 0x1792 DUP6 DUP3 PUSH2 0x2D61 JUMP JUMPDEST PUSH32 0xBF90B5A1EC9763E8BF4B9245CEF0C28DB92BAB309FC2C5177F17814F38246938 DUP6 DUP4 PUSH1 0x40 MLOAD PUSH2 0x17C3 SWAP3 SWAP2 SWAP1 PUSH2 0x45CB JUMP JUMPDEST PUSH1 0x40 MLOAD DUP1 SWAP2 SUB SWAP1 LOG1 POP POP POP POP POP POP POP POP POP JUMP JUMPDEST PUSH1 0x0 PUSH2 0xE40 DUP3 PUSH2 0x2DBD JUMP JUMPDEST PUSH1 0x0 PUSH2 0xE40 PUSH2 0x2C0 DUP4 PUSH2 0x2DCB JUMP JUMPDEST CALLER ADDRESS EQ PUSH2 0x1828 JUMPI PUSH1 0x40 MLOAD PUSH32 0x29C3B7EE00000000000000000000000000000000000000000000000000000000 DUP2 MSTORE PUSH1 0x4 ADD PUSH1 0x40 MLOAD DUP1 SWAP2 SUB SWAP1 REVERT JUMPDEST PUSH1 0x40 MLOAD PUSH32 0xD289D1CB00000000000000000000000000000000000000000000000000000000 DUP2 MSTORE PUSH1 0x1 PUSH1 0x1 PUSH1 0xA0 SHL SUB PUSH32 0x0 AND SWAP1 PUSH4 0xD289D1CB SWAP1 PUSH2 0x188F SWAP1 DUP7 SWAP1 DUP7 SWAP1 PUSH1 0x4 ADD PUSH2 0x45F6 JUMP JUMPDEST PUSH1 0x0 PUSH1 0x40 MLOAD DUP1 DUP4 SUB DUP2 PUSH1 0x0 DUP8 DUP1 EXTCODESIZE ISZERO DUP1 ISZERO PUSH2 0x18A9 JUMPI PUSH1 0x0 DUP1 REVERT JUMPDEST POP GAS CALL ISZERO DUP1 ISZERO PUSH2 0x18BD JUMPI RETURNDATASIZE PUSH1 0x0 DUP1 RETURNDATACOPY RETURNDATASIZE PUSH1 0x0 REVERT JUMPDEST POP POP POP POP PUSH32 0x192E759E55F359CD9832B5C0C6E38E4B6DF5C5CA33F3BD5C90738E865A521872 DUP4 DUP4 PUSH1 0x40 MLOAD PUSH2 0x18F2 SWAP3 SWAP2 SWAP1 PUSH2 0x45F6 JUMP JUMPDEST PUSH1 0x40 MLOAD DUP1 SWAP2 SUB SWAP1 LOG1 POP POP POP JUMP JUMPDEST PUSH1 0x0 DUP2 DUP2 MSTORE PUSH1 0x1 PUSH1 0x20 MSTORE PUSH1 0x40 SWAP1 KECCAK256 DUP1 SLOAD PUSH1 0x60 SWAP2 SWAP1 PUSH2 0x191C SWAP1 PUSH2 0x460A JUMP JUMPDEST DUP1 PUSH1 0x1F ADD PUSH1 0x20 DUP1 SWAP2 DIV MUL PUSH1 0x20 ADD PUSH1 0x40 MLOAD SWAP1 DUP2 ADD PUSH1 0x40 MSTORE DUP1 SWAP3 SWAP2 SWAP1 DUP2 DUP2 MSTORE PUSH1 0x20 ADD DUP3 DUP1 SLOAD PUSH2 0x1948 SWAP1 PUSH2 0x460A JUMP JUMPDEST DUP1 ISZERO PUSH2 0x1995 JUMPI DUP1 PUSH1 0x1F LT PUSH2 0x196A JUMPI PUSH2 0x100 DUP1 DUP4 SLOAD DIV MUL DUP4 MSTORE SWAP2 PUSH1 0x20 ADD SWAP2 PUSH2 0x1995 JUMP JUMPDEST DUP3 ADD SWAP2 SWAP1 PUSH1 0x0 MSTORE PUSH1 0x20 PUSH1 0x0 KECCAK256 SWAP1 JUMPDEST DUP2 SLOAD DUP2 MSTORE SWAP1 PUSH1 0x1 ADD SWAP1 PUSH1 0x20 ADD DUP1 DUP4 GT PUSH2 0x1978 JUMPI DUP3 SWAP1 SUB PUSH1 0x1F AND DUP3 ADD SWAP2 JUMPDEST POP POP POP POP POP SWAP1 POP SWAP2 SWAP1 POP JUMP JUMPDEST PUSH1 0x0 PUSH2 0x19FD PUSH32 0x360894A13BA1A3210667C828492DB98DCA3E2076CC3735A920A3CA505D382BBC PUSH1 0x0 MSTORE PUSH1 0x2 PUSH1 0x20 MSTORE PUSH32 0x11141F466C69FD409E1990E063B49CD6D61ED2ECFF27A2E402E259CA6B9A01A3 SLOAD PUSH1 0x1 PUSH1 0x1 PUSH1 0xA0 SHL SUB AND SWAP1 JUMP JUMPDEST PUSH1 0x1 PUSH1 0x1 PUSH1 0xA0 SHL SUB AND EQ ISZERO PUSH2 0x1A3E JUMPI PUSH1 0x40 MLOAD PUSH32 0xBF10DD3A00000000000000000000000000000000000000000000000000000000 DUP2 MSTORE PUSH1 0x4 ADD PUSH1 0x40 MLOAD DUP1 SWAP2 SUB SWAP1 REVERT JUMPDEST PUSH1 0x0 DUP1 DUP1 PUSH2 0x1A4E DUP5 DUP7 ADD DUP7 PUSH2 0x465E JUMP JUMPDEST SWAP3 POP SWAP3 POP SWAP3 POP PUSH1 0x0 PUSH1 0x1 PUSH2 0x1AA9 PUSH32 0xD51DC9B187568BB94760866E1D0D066CA470037D2D331AFB1A02EC74BFB8990C PUSH1 0x0 SWAP1 DUP2 MSTORE PUSH1 0x20 MSTORE PUSH32 0xF8D0C05CD32E3272241FDC9D5839565F8BCF94139CB4BD09E230E1B57A60DDC2 SLOAD SWAP1 JUMP JUMPDEST PUSH2 0x1AB3 SWAP2 SWAP1 PUSH2 0x4729 JUMP JUMPDEST SWAP1 POP PUSH2 0x1B06 DUP2 PUSH32 0xD51DC9B187568BB94760866E1D0D066CA470037D2D331AFB1A02EC74BFB8990C PUSH1 0x0 SWAP1 DUP2 MSTORE PUSH1 0x20 MSTORE PUSH32 0xF8D0C05CD32E3272241FDC9D5839565F8BCF94139CB4BD09E230E1B57A60DDC2 SSTORE JUMP JUMPDEST PUSH2 0x1B11 DUP2 DUP6 DUP6 PUSH2 0x2E03 JUMP JUMPDEST DUP2 MLOAD ISZERO PUSH2 0xBB6 JUMPI PUSH1 0x40 MLOAD PUSH32 0xD289D1CB00000000000000000000000000000000000000000000000000000000 DUP2 MSTORE PUSH1 0x1 PUSH1 0x1 PUSH1 0xA0 SHL SUB PUSH32 0x0 AND SWAP1 PUSH4 0xD289D1CB SWAP1 PUSH2 0x1B7D SWAP1 DUP6 SWAP1 PUSH1 0x4 ADD PUSH2 0x38FA JUMP JUMPDEST PUSH1 0x0 PUSH1 0x40 MLOAD DUP1 DUP4 SUB DUP2 PUSH1 0x0 DUP8 DUP1 EXTCODESIZE ISZERO DUP1 ISZERO PUSH2 0x1B97 JUMPI PUSH1 0x0 DUP1 REVERT JUMPDEST POP GAS CALL ISZERO DUP1 ISZERO PUSH2 0x1BAB JUMPI RETURNDATASIZE PUSH1 0x0 DUP1 RETURNDATACOPY RETURNDATASIZE PUSH1 0x0 REVERT JUMPDEST POP POP POP POP PUSH32 0x192E759E55F359CD9832B5C0C6E38E4B6DF5C5CA33F3BD5C90738E865A521872 DUP3 PUSH1 0x40 MLOAD PUSH2 0x1BDE SWAP2 SWAP1 PUSH2 0x38FA JUMP JUMPDEST PUSH1 0x40 MLOAD DUP1 SWAP2 SUB SWAP1 LOG1 POP POP POP POP POP POP JUMP JUMPDEST PUSH1 0x0 PUSH2 0x1C41 PUSH32 0xD51DC9B187568BB94760866E1D0D066CA470037D2D331AFB1A02EC74BFB8990C PUSH1 0x0 SWAP1 DUP2 MSTORE PUSH1 0x20 MSTORE PUSH32 0xF8D0C05CD32E3272241FDC9D5839565F8BCF94139CB4BD09E230E1B57A60DDC2 SLOAD SWAP1 JUMP JUMPDEST SWAP1 POP PUSH2 0x1C4D DUP2 CALLER PUSH2 0x2F6E JUMP JUMPDEST PUSH2 0x1C83 JUMPI PUSH1 0x40 MLOAD PUSH32 0x7BFA4B9F00000000000000000000000000000000000000000000000000000000 DUP2 MSTORE PUSH1 0x4 ADD PUSH1 0x40 MLOAD DUP1 SWAP2 SUB SWAP1 REVERT JUMPDEST PUSH1 0x0 DUP1 CALLDATASIZE PUSH1 0x40 MLOAD PUSH2 0x1C95 SWAP3 SWAP2 SWAP1 PUSH2 0x41AC JUMP JUMPDEST PUSH1 0x40 MLOAD DUP1 SWAP2 SUB SWAP1 KECCAK256 SWAP1 POP PUSH2 0x1CAA DUP3 DUP3 CALLER PUSH2 0x2F7D JUMP JUMPDEST ISZERO PUSH2 0x1CE1 JUMPI PUSH1 0x40 MLOAD PUSH32 0x7C9A1CF900000000000000000000000000000000000000000000000000000000 DUP2 MSTORE PUSH1 0x4 ADD PUSH1 0x40 MLOAD DUP1 SWAP2 SUB SWAP1 REVERT JUMPDEST PUSH2 0x1CEE DUP3 DUP3 CALLER PUSH1 0x1 PUSH2 0x300E JUMP JUMPDEST PUSH1 0x0 PUSH1 0x1 PUSH2 0x1CFC DUP5 DUP5 PUSH2 0x3094 JUMP JUMPDEST PUSH2 0x1D06 SWAP2 SWAP1 PUSH2 0x4729 JUMP JUMPDEST SWAP1 POP PUSH2 0x1D13 DUP4 DUP4 DUP4 PUSH2 0x30A3 JUMP JUMPDEST PUSH2 0x1D1C DUP4 PUSH2 0x2DBD JUMP JUMPDEST DUP2 LT ISZERO PUSH2 0x1D2B JUMPI POP POP POP PUSH2 0x1F89 JUMP JUMPDEST DUP7 PUSH1 0x1 PUSH1 0x1 PUSH1 0xA0 SHL SUB AND EXTCODEHASH DUP7 EQ PUSH2 0x1D6E JUMPI PUSH1 0x40 MLOAD PUSH32 0x8F84FB2400000000000000000000000000000000000000000000000000000000 DUP2 MSTORE PUSH1 0x4 ADD PUSH1 0x40 MLOAD DUP1 SWAP2 SUB SWAP1 REVERT JUMPDEST PUSH1 0x40 MLOAD PUSH1 0x1 PUSH1 0x1 PUSH1 0xA0 SHL SUB DUP9 AND SWAP1 PUSH32 0xBC7CD75A20EE27FD9ADEBAB32041F755214DBC6BFFA90CC0225B39DA2E5C2D3B SWAP1 PUSH1 0x0 SWAP1 LOG2 DUP4 ISZERO PUSH2 0x1EB7 JUMPI PUSH1 0x0 DUP8 PUSH1 0x1 PUSH1 0x1 PUSH1 0xA0 SHL SUB AND PUSH4 0x9DED06DF PUSH1 0xE0 SHL DUP8 DUP8 PUSH1 0x40 MLOAD PUSH1 0x24 ADD PUSH2 0x1DCF SWAP3 SWAP2 SWAP1 PUSH2 0x45F6 JUMP JUMPDEST PUSH1 0x40 DUP1 MLOAD PUSH1 0x1F NOT DUP2 DUP5 SUB ADD DUP2 MSTORE SWAP2 DUP2 MSTORE PUSH1 0x20 DUP3 ADD DUP1 MLOAD PUSH28 0xFFFFFFFFFFFFFFFFFFFFFFFFFFFFFFFFFFFFFFFFFFFFFFFFFFFFFFFF AND PUSH32 0xFFFFFFFF00000000000000000000000000000000000000000000000000000000 SWAP1 SWAP5 AND SWAP4 SWAP1 SWAP4 OR SWAP1 SWAP3 MSTORE SWAP1 MLOAD PUSH2 0x1E3A SWAP2 SWAP1 PUSH2 0x40A1 JUMP JUMPDEST PUSH1 0x0 PUSH1 0x40 MLOAD DUP1 DUP4 SUB DUP2 DUP6 GAS DELEGATECALL SWAP2 POP POP RETURNDATASIZE DUP1 PUSH1 0x0 DUP2 EQ PUSH2 0x1E75 JUMPI PUSH1 0x40 MLOAD SWAP2 POP PUSH1 0x1F NOT PUSH1 0x3F RETURNDATASIZE ADD AND DUP3 ADD PUSH1 0x40 MSTORE RETURNDATASIZE DUP3 MSTORE RETURNDATASIZE PUSH1 0x0 PUSH1 0x20 DUP5 ADD RETURNDATACOPY PUSH2 0x1E7A JUMP JUMPDEST PUSH1 0x60 SWAP2 POP JUMPDEST POP POP SWAP1 POP DUP1 PUSH2 0x1EB5 JUMPI PUSH1 0x40 MLOAD PUSH32 0x97905DFB00000000000000000000000000000000000000000000000000000000 DUP2 MSTORE PUSH1 0x4 ADD PUSH1 0x40 MLOAD DUP1 SWAP2 SUB SWAP1 REVERT JUMPDEST POP JUMPDEST PUSH2 0x1F39 DUP8 PUSH32 0x360894A13BA1A3210667C828492DB98DCA3E2076CC3735A920A3CA505D382BBC PUSH1 0x0 MSTORE PUSH1 0x2 PUSH1 0x20 MSTORE PUSH32 0x11141F466C69FD409E1990E063B49CD6D61ED2ECFF27A2E402E259CA6B9A01A3 DUP1 SLOAD PUSH32 0xFFFFFFFFFFFFFFFFFFFFFFFF0000000000000000000000000000000000000000 AND PUSH1 0x1 PUSH1 0x1 PUSH1 0xA0 SHL SUB DUP4 AND OR SWAP1 SSTORE POP JUMP JUMPDEST PUSH2 0x1F45 DUP4 DUP4 PUSH1 0x0 PUSH2 0x30A3 JUMP JUMPDEST PUSH1 0x0 PUSH2 0x1F50 DUP5 PUSH2 0x2800 JUMP JUMPDEST SWAP1 POP PUSH1 0x0 JUMPDEST DUP2 DUP2 LT ISZERO PUSH2 0x1F83 JUMPI PUSH2 0x1F73 DUP6 DUP6 PUSH2 0x1F6C DUP9 DUP6 PUSH2 0x280E JUMP JUMPDEST PUSH1 0x0 PUSH2 0x300E JUMP JUMPDEST PUSH2 0x1F7C DUP2 PUSH2 0x410E JUMP JUMPDEST SWAP1 POP PUSH2 0x1F55 JUMP JUMPDEST POP POP POP POP POP JUMPDEST POP POP POP POP JUMP JUMPDEST PUSH2 0x1FD1 CALLER DUP5 DUP5 DUP1 DUP1 PUSH1 0x1F ADD PUSH1 0x20 DUP1 SWAP2 DIV MUL PUSH1 0x20 ADD PUSH1 0x40 MLOAD SWAP1 DUP2 ADD PUSH1 0x40 MSTORE DUP1 SWAP4 SWAP3 SWAP2 SWAP1 DUP2 DUP2 MSTORE PUSH1 0x20 ADD DUP4 DUP4 DUP1 DUP3 DUP5 CALLDATACOPY PUSH1 0x0 SWAP3 ADD SWAP2 SWAP1 SWAP2 MSTORE POP DUP7 SWAP3 POP PUSH2 0x28DD SWAP2 POP POP JUMP JUMPDEST DUP5 DUP5 PUSH1 0x40 MLOAD PUSH2 0x1FE1 SWAP3 SWAP2 SWAP1 PUSH2 0x41AC JUMP JUMPDEST PUSH1 0x40 MLOAD DUP1 SWAP2 SUB SWAP1 KECCAK256 CALLER PUSH1 0x1 PUSH1 0x1 PUSH1 0xA0 SHL SUB AND PUSH32 0x7E50569D26BE643BDA7757722291EC66B1BE66D8283474AE3FAB5A98F878A7A2 DUP12 DUP12 DUP12 DUP12 DUP12 DUP12 DUP12 DUP12 DUP12 PUSH1 0x40 MLOAD PUSH2 0x2032 SWAP10 SWAP9 SWAP8 SWAP7 SWAP6 SWAP5 SWAP4 SWAP3 SWAP2 SWAP1 PUSH2 0x4741 JUMP JUMPDEST PUSH1 0x40 MLOAD DUP1 SWAP2 SUB SWAP1 LOG3 POP POP POP POP POP POP POP POP POP JUMP JUMPDEST PUSH1 0x0 PUSH2 0x2109 PUSH2 0x3E2 DUP13 DUP13 DUP13 DUP1 DUP1 PUSH1 0x1F ADD PUSH1 0x20 DUP1 SWAP2 DIV MUL PUSH1 0x20 ADD PUSH1 0x40 MLOAD SWAP1 DUP2 ADD PUSH1 0x40 MSTORE DUP1 SWAP4 SWAP3 SWAP2 SWAP1 DUP2 DUP2 MSTORE PUSH1 0x20 ADD DUP4 DUP4 DUP1 DUP3 DUP5 CALLDATACOPY PUSH1 0x0 DUP2 DUP5 ADD MSTORE PUSH1 0x1F NOT PUSH1 0x1F DUP3 ADD AND SWAP1 POP DUP1 DUP4 ADD SWAP3 POP POP POP POP POP POP POP DUP12 DUP12 DUP1 DUP1 PUSH1 0x1F ADD PUSH1 0x20 DUP1 SWAP2 DIV MUL PUSH1 0x20 ADD PUSH1 0x40 MLOAD SWAP1 DUP2 ADD PUSH1 0x40 MSTORE DUP1 SWAP4 SWAP3 SWAP2 SWAP1 DUP2 DUP2 MSTORE PUSH1 0x20 ADD DUP4 DUP4 DUP1 DUP3 DUP5 CALLDATACOPY PUSH1 0x0 SWAP3 ADD SWAP2 SWAP1 SWAP2 MSTORE POP POP PUSH1 0x40 DUP1 MLOAD PUSH1 0x20 PUSH1 0x1F DUP14 ADD DUP2 SWAP1 DIV DUP2 MUL DUP3 ADD DUP2 ADD SWAP1 SWAP3 MSTORE DUP12 DUP2 MSTORE DUP15 SWAP4 POP DUP14 SWAP3 POP SWAP1 DUP13 SWAP1 DUP13 SWAP1 DUP2 SWAP1 DUP5 ADD DUP4 DUP3 DUP1 DUP3 DUP5 CALLDATACOPY PUSH1 0x0 SWAP3 ADD SWAP2 SWAP1 SWAP2 MSTORE POP DUP13 SWAP3 POP PUSH2 0x2824 SWAP2 POP POP JUMP JUMPDEST SWAP12 SWAP11 POP POP POP POP POP POP POP POP POP POP POP JUMP JUMPDEST PUSH1 0x0 DUP2 DUP2 MSTORE PUSH1 0x3 PUSH1 0x20 MSTORE PUSH1 0x40 SWAP1 KECCAK256 DUP1 SLOAD PUSH1 0x60 SWAP2 SWAP1 PUSH2 0x191C SWAP1 PUSH2 0x460A JUMP JUMPDEST PUSH1 0x0 PUSH2 0xE40 PUSH2 0x3E2 DUP4 PUSH2 0x30B5 JUMP JUMPDEST PUSH1 0x0 PUSH2 0x2196 PUSH32 0xD51DC9B187568BB94760866E1D0D066CA470037D2D331AFB1A02EC74BFB8990C PUSH1 0x0 SWAP1 DUP2 MSTORE PUSH1 0x20 MSTORE PUSH32 0xF8D0C05CD32E3272241FDC9D5839565F8BCF94139CB4BD09E230E1B57A60DDC2 SLOAD SWAP1 JUMP JUMPDEST SWAP1 POP PUSH2 0x21A2 DUP2 CALLER PUSH2 0x2F6E JUMP JUMPDEST PUSH2 0x21D8 JUMPI PUSH1 0x40 MLOAD PUSH32 0x7BFA4B9F00000000000000000000000000000000000000000000000000000000 DUP2 MSTORE PUSH1 0x4 ADD PUSH1 0x40 MLOAD DUP1 SWAP2 SUB SWAP1 REVERT JUMPDEST PUSH1 0x0 DUP1 CALLDATASIZE PUSH1 0x40 MLOAD PUSH2 0x21EA SWAP3 SWAP2 SWAP1 PUSH2 0x41AC JUMP JUMPDEST PUSH1 0x40 MLOAD DUP1 SWAP2 SUB SWAP1 KECCAK256 SWAP1 POP PUSH2 0x21FF DUP3 DUP3 CALLER PUSH2 0x2F7D JUMP JUMPDEST ISZERO PUSH2 0x2236 JUMPI PUSH1 0x40 MLOAD PUSH32 0x7C9A1CF900000000000000000000000000000000000000000000000000000000 DUP2 MSTORE PUSH1 0x4 ADD PUSH1 0x40 MLOAD DUP1 SWAP2 SUB SWAP1 REVERT JUMPDEST PUSH2 0x2243 DUP3 DUP3 CALLER PUSH1 0x1 PUSH2 0x300E JUMP JUMPDEST PUSH1 0x0 PUSH1 0x1 PUSH2 0x2251 DUP5 DUP5 PUSH2 0x3094 JUMP JUMPDEST PUSH2 0x225B SWAP2 SWAP1 PUSH2 0x4729 JUMP JUMPDEST SWAP1 POP PUSH2 0x2268 DUP4 DUP4 DUP4 PUSH2 0x30A3 JUMP JUMPDEST PUSH2 0x2271 DUP4 PUSH2 0x2DBD JUMP JUMPDEST DUP2 LT ISZERO PUSH2 0x2280 JUMPI POP POP POP PUSH2 0x1F89 JUMP JUMPDEST DUP6 DUP5 EQ PUSH2 0x22B9 JUMPI PUSH1 0x40 MLOAD PUSH32 0x1508613D00000000000000000000000000000000000000000000000000000000 DUP2 MSTORE PUSH1 0x4 ADD PUSH1 0x40 MLOAD DUP1 SWAP2 SUB SWAP1 REVERT JUMPDEST PUSH1 0x0 JUMPDEST DUP7 DUP2 LT ISZERO PUSH2 0x23B4 JUMPI PUSH1 0x0 DUP9 DUP9 DUP4 DUP2 DUP2 LT PUSH2 0x22D8 JUMPI PUSH2 0x22D8 PUSH2 0x4072 JUMP JUMPDEST SWAP1 POP PUSH1 0x20 MUL DUP2 ADD SWAP1 PUSH2 0x22EA SWAP2 SWAP1 PUSH2 0x47A9 JUMP JUMPDEST DUP1 DUP1 PUSH1 0x1F ADD PUSH1 0x20 DUP1 SWAP2 DIV MUL PUSH1 0x20 ADD PUSH1 0x40 MLOAD SWAP1 DUP2 ADD PUSH1 0x40 MSTORE DUP1 SWAP4 SWAP3 SWAP2 SWAP1 DUP2 DUP2 MSTORE PUSH1 0x20 ADD DUP4 DUP4 DUP1 DUP3 DUP5 CALLDATACOPY PUSH1 0x0 SWAP3 ADD DUP3 SWAP1 MSTORE POP SWAP4 SWAP5 POP DUP11 SWAP3 POP DUP10 SWAP2 POP DUP6 SWAP1 POP DUP2 DUP2 LT PUSH2 0x2335 JUMPI PUSH2 0x2335 PUSH2 0x4072 JUMP JUMPDEST SWAP1 POP PUSH1 0x20 MUL ADD CALLDATALOAD SWAP1 POP PUSH1 0x0 PUSH1 0x1 PUSH1 0x1 PUSH1 0xA0 SHL SUB AND PUSH2 0x2352 DUP4 PUSH2 0x17E1 JUMP JUMPDEST PUSH1 0x1 PUSH1 0x1 PUSH1 0xA0 SHL SUB AND EQ ISZERO PUSH2 0x2395 JUMPI DUP2 PUSH1 0x40 MLOAD PUSH32 0x72BA137E00000000000000000000000000000000000000000000000000000000 DUP2 MSTORE PUSH1 0x4 ADD PUSH2 0xFD1 SWAP2 SWAP1 PUSH2 0x38FA JUMP JUMPDEST PUSH2 0x239F DUP3 DUP3 PUSH2 0x2D61 JUMP JUMPDEST POP POP DUP1 DUP1 PUSH2 0x23AC SWAP1 PUSH2 0x410E JUMP JUMPDEST SWAP2 POP POP PUSH2 0x22BC JUMP JUMPDEST POP PUSH2 0x23C1 DUP4 DUP4 PUSH1 0x0 PUSH2 0x30A3 JUMP JUMPDEST PUSH1 0x0 PUSH2 0x23CC DUP5 PUSH2 0x2800 JUMP JUMPDEST SWAP1 POP PUSH1 0x0 JUMPDEST DUP2 DUP2 LT ISZERO PUSH2 0x1F83 JUMPI PUSH2 0x23E8 DUP6 DUP6 PUSH2 0x1F6C DUP9 DUP6 PUSH2 0x280E JUMP JUMPDEST PUSH2 0x23F1 DUP2 PUSH2 0x410E JUMP JUMPDEST SWAP1 POP PUSH2 0x23D1 JUMP JUMPDEST PUSH1 0x0 PUSH2 0x2475 PUSH2 0x3E2 DUP10 DUP10 DUP10 DUP1 DUP1 PUSH1 0x1F ADD PUSH1 0x20 DUP1 SWAP2 DIV MUL PUSH1 0x20 ADD PUSH1 0x40 MLOAD SWAP1 DUP2 ADD PUSH1 0x40 MSTORE DUP1 SWAP4 SWAP3 SWAP2 SWAP1 DUP2 DUP2 MSTORE PUSH1 0x20 ADD DUP4 DUP4 DUP1 DUP3 DUP5 CALLDATACOPY PUSH1 0x0 SWAP3 ADD SWAP2 SWAP1 SWAP2 MSTORE POP POP PUSH1 0x40 DUP1 MLOAD PUSH1 0x20 PUSH1 0x1F DUP14 ADD DUP2 SWAP1 DIV DUP2 MUL DUP3 ADD DUP2 ADD SWAP1 SWAP3 MSTORE DUP12 DUP2 MSTORE SWAP3 POP DUP12 SWAP2 POP DUP11 SWAP1 DUP2 SWAP1 DUP5 ADD DUP4 DUP3 DUP1 DUP3 DUP5 CALLDATACOPY PUSH1 0x0 SWAP3 ADD SWAP2 SWAP1 SWAP2 MSTORE POP DUP11 SWAP3 POP DUP10 SWAP2 POP PUSH2 0x2C86 SWAP1 POP JUMP JUMPDEST SWAP9 SWAP8 POP POP POP POP POP POP POP POP JUMP JUMPDEST PUSH1 0x0 PUSH1 0x60 DUP1 PUSH1 0x60 DUP5 DUP1 PUSH1 0x20 ADD SWAP1 MLOAD DUP2 ADD SWAP1 PUSH2 0x249C SWAP2 SWAP1 PUSH2 0x480E JUMP JUMPDEST SWAP4 SWAP10 SWAP2 SWAP9 POP SWAP7 POP SWAP2 SWAP5 POP SWAP1 SWAP3 POP POP POP JUMP JUMPDEST CALLER ADDRESS EQ PUSH2 0x24E6 JUMPI PUSH1 0x40 MLOAD PUSH32 0x29C3B7EE00000000000000000000000000000000000000000000000000000000 DUP2 MSTORE PUSH1 0x4 ADD PUSH1 0x40 MLOAD DUP1 SWAP2 SUB SWAP1 REVERT JUMPDEST PUSH1 0x0 DUP1 DUP1 DUP1 DUP1 DUP1 PUSH2 0x24F9 DUP9 DUP11 ADD DUP11 PUSH2 0x48AA JUMP JUMPDEST SWAP6 POP SWAP6 POP SWAP6 POP SWAP6 POP SWAP6 POP SWAP6 POP PUSH2 0x2512 DUP8 DUP8 DUP8 DUP8 DUP8 PUSH2 0x30F0 JUMP JUMPDEST DUP3 DUP5 PUSH1 0x1 PUSH1 0x1 PUSH1 0xA0 SHL SUB AND DUP9 PUSH32 0x44E4F8F6BD682C5A3AEBA93601AB07CB4D1F21B2AAB1AE4880D9577919309AA4 DUP10 DUP10 DUP8 DUP8 PUSH1 0x40 MLOAD PUSH2 0x2553 SWAP5 SWAP4 SWAP3 SWAP2 SWAP1 PUSH2 0x493C JUMP JUMPDEST PUSH1 0x40 MLOAD DUP1 SWAP2 SUB SWAP1 LOG4 POP POP POP POP POP POP POP POP POP JUMP JUMPDEST PUSH1 0x40 MLOAD PUSH32 0x19457468657265756D205369676E6564204D6573736167653A0A333200000000 PUSH1 0x20 DUP3 ADD MSTORE PUSH1 0x3C DUP2 ADD DUP3 SWAP1 MSTORE PUSH1 0x0 SWAP1 PUSH1 0x5C ADD JUMPDEST PUSH1 0x40 MLOAD PUSH1 0x20 DUP2 DUP4 SUB SUB DUP2 MSTORE SWAP1 PUSH1 0x40 MSTORE DUP1 MLOAD SWAP1 PUSH1 0x20 ADD KECCAK256 SWAP1 POP SWAP2 SWAP1 POP JUMP JUMPDEST PUSH2 0x2600 PUSH2 0x25C6 DUP4 PUSH2 0x30B5 JUMP JUMPDEST PUSH1 0x0 SWAP1 DUP2 MSTORE PUSH1 0x4 PUSH1 0x20 MSTORE PUSH1 0x40 SWAP1 KECCAK256 DUP1 SLOAD PUSH32 0xFFFFFFFFFFFFFFFFFFFFFFFFFFFFFFFFFFFFFFFFFFFFFFFFFFFFFFFFFFFFFF00 AND DUP4 ISZERO ISZERO OR SWAP1 SSTORE JUMP JUMPDEST POP POP JUMP JUMPDEST PUSH1 0x0 PUSH2 0x260F DUP5 PUSH2 0x17E1 JUMP JUMPDEST SWAP1 POP PUSH1 0x1 PUSH1 0x1 PUSH1 0xA0 SHL SUB DUP2 AND PUSH2 0x2653 JUMPI DUP4 PUSH1 0x40 MLOAD PUSH32 0x72BA137E00000000000000000000000000000000000000000000000000000000 DUP2 MSTORE PUSH1 0x4 ADD PUSH2 0xFD1 SWAP2 SWAP1 PUSH2 0x38FA JUMP JUMPDEST PUSH2 0x2670 DUP5 DUP4 PUSH2 0x2661 DUP8 PUSH2 0xE25 JUMP JUMPDEST PUSH2 0x266B SWAP2 SWAP1 PUSH2 0x4729 JUMP JUMPDEST PUSH2 0x3100 JUMP JUMPDEST PUSH1 0x2 PUSH2 0x267B DUP6 PUSH2 0x2BDE JUMP JUMPDEST PUSH1 0x2 DUP2 GT ISZERO PUSH2 0x268C JUMPI PUSH2 0x268C PUSH2 0x4301 JUMP JUMPDEST EQ ISZERO PUSH2 0x277F JUMPI PUSH1 0x40 MLOAD PUSH1 0x1 PUSH1 0x1 PUSH1 0xA0 SHL SUB DUP5 AND PUSH1 0x24 DUP3 ADD MSTORE PUSH1 0x44 DUP2 ADD DUP4 SWAP1 MSTORE PUSH1 0x0 SWAP1 PUSH2 0x273E SWAP1 DUP4 SWAP1 PUSH32 0xA9059CBB00000000000000000000000000000000000000000000000000000000 SWAP1 PUSH1 0x64 ADD JUMPDEST PUSH1 0x40 DUP1 MLOAD PUSH1 0x1F NOT DUP2 DUP5 SUB ADD DUP2 MSTORE SWAP2 SWAP1 MSTORE PUSH1 0x20 DUP2 ADD DUP1 MLOAD PUSH28 0xFFFFFFFFFFFFFFFFFFFFFFFFFFFFFFFFFFFFFFFFFFFFFFFFFFFFFFFF AND PUSH32 0xFFFFFFFF00000000000000000000000000000000000000000000000000000000 SWAP1 SWAP4 AND SWAP3 SWAP1 SWAP3 OR SWAP1 SWAP2 MSTORE PUSH2 0x317C JUMP JUMPDEST SWAP1 POP DUP1 PUSH2 0x2779 JUMPI DUP5 PUSH1 0x40 MLOAD PUSH32 0x90C52ED700000000000000000000000000000000000000000000000000000000 DUP2 MSTORE PUSH1 0x4 ADD PUSH2 0xFD1 SWAP2 SWAP1 PUSH2 0x38FA JUMP JUMPDEST POP PUSH2 0x1F89 JUMP JUMPDEST PUSH1 0x40 MLOAD PUSH32 0x40C10F1900000000000000000000000000000000000000000000000000000000 DUP2 MSTORE PUSH1 0x1 PUSH1 0x1 PUSH1 0xA0 SHL SUB DUP5 DUP2 AND PUSH1 0x4 DUP4 ADD MSTORE PUSH1 0x24 DUP3 ADD DUP5 SWAP1 MSTORE DUP3 AND SWAP1 PUSH4 0x40C10F19 SWAP1 PUSH1 0x44 ADD PUSH1 0x0 PUSH1 0x40 MLOAD DUP1 DUP4 SUB DUP2 PUSH1 0x0 DUP8 DUP1 EXTCODESIZE ISZERO DUP1 ISZERO PUSH2 0x27E2 JUMPI PUSH1 0x0 DUP1 REVERT JUMPDEST POP GAS CALL ISZERO DUP1 ISZERO PUSH2 0x27F6 JUMPI RETURNDATASIZE PUSH1 0x0 DUP1 RETURNDATACOPY RETURNDATASIZE PUSH1 0x0 REVERT JUMPDEST POP POP POP POP POP POP POP POP JUMP JUMPDEST PUSH1 0x0 PUSH2 0xE40 PUSH2 0x4D8 DUP4 PUSH2 0x320E JUMP JUMPDEST PUSH1 0x0 PUSH2 0x281D PUSH2 0x2C0 DUP5 DUP5 PUSH2 0x3249 JUMP JUMPDEST SWAP4 SWAP3 POP POP POP JUMP JUMPDEST PUSH1 0x0 PUSH32 0xB7AD972B71475860613DB3BA1FE699B886C878F9002A09250DC25E769EB19A10 DUP9 DUP9 DUP9 DUP9 DUP9 DUP9 DUP9 PUSH1 0x40 MLOAD PUSH1 0x20 ADD PUSH2 0x2865 SWAP9 SWAP8 SWAP7 SWAP6 SWAP5 SWAP4 SWAP3 SWAP2 SWAP1 PUSH2 0x4975 JUMP JUMPDEST PUSH1 0x40 MLOAD PUSH1 0x20 DUP2 DUP4 SUB SUB DUP2 MSTORE SWAP1 PUSH1 0x40 MSTORE DUP1 MLOAD SWAP1 PUSH1 0x20 ADD KECCAK256 SWAP1 POP SWAP8 SWAP7 POP POP POP POP POP POP POP JUMP JUMPDEST PUSH1 0x0 PUSH32 0x4281768AB7480DDCF054116642FB644388166407FC26C4E8E435DD259143CFD2 DUP4 DUP4 PUSH1 0x40 MLOAD PUSH1 0x20 ADD PUSH2 0x28BF SWAP4 SWAP3 SWAP2 SWAP1 PUSH2 0x49E8 JUMP JUMPDEST PUSH1 0x40 MLOAD PUSH1 0x20 DUP2 DUP4 SUB SUB DUP2 MSTORE SWAP1 PUSH1 0x40 MSTORE DUP1 MLOAD SWAP1 PUSH1 0x20 ADD KECCAK256 SWAP1 POP SWAP3 SWAP2 POP POP JUMP JUMPDEST PUSH1 0x0 PUSH2 0x28E8 DUP4 PUSH2 0x17E1 JUMP JUMPDEST SWAP1 POP PUSH1 0x1 PUSH1 0x1 PUSH1 0xA0 SHL SUB DUP2 AND PUSH2 0x292C JUMPI DUP3 PUSH1 0x40 MLOAD PUSH32 0x72BA137E00000000000000000000000000000000000000000000000000000000 DUP2 MSTORE PUSH1 0x4 ADD PUSH2 0xFD1 SWAP2 SWAP1 PUSH2 0x38FA JUMP JUMPDEST DUP2 PUSH2 0x2963 JUMPI PUSH1 0x40 MLOAD PUSH32 0x2C5211C600000000000000000000000000000000000000000000000000000000 DUP2 MSTORE PUSH1 0x4 ADD PUSH1 0x40 MLOAD DUP1 SWAP2 SUB SWAP1 REVERT JUMPDEST PUSH1 0x0 PUSH2 0x296E DUP5 PUSH2 0x2BDE JUMP JUMPDEST SWAP1 POP PUSH1 0x0 PUSH1 0x2 DUP3 PUSH1 0x2 DUP2 GT ISZERO PUSH2 0x2986 JUMPI PUSH2 0x2986 PUSH2 0x4301 JUMP JUMPDEST EQ ISZERO PUSH2 0x2A16 JUMPI PUSH1 0x40 MLOAD PUSH1 0x1 PUSH1 0x1 PUSH1 0xA0 SHL SUB DUP8 AND PUSH1 0x24 DUP3 ADD MSTORE ADDRESS PUSH1 0x44 DUP3 ADD MSTORE PUSH1 0x64 DUP2 ADD DUP6 SWAP1 MSTORE PUSH2 0x29DB SWAP1 DUP5 SWAP1 PUSH32 0x23B872DD00000000000000000000000000000000000000000000000000000000 SWAP1 PUSH1 0x84 ADD PUSH2 0x26DA JUMP JUMPDEST SWAP1 POP DUP1 PUSH2 0xBB6 JUMPI DUP5 PUSH1 0x40 MLOAD PUSH32 0xE217B0AD00000000000000000000000000000000000000000000000000000000 DUP2 MSTORE PUSH1 0x4 ADD PUSH2 0xFD1 SWAP2 SWAP1 PUSH2 0x38FA JUMP JUMPDEST PUSH1 0x1 DUP3 PUSH1 0x2 DUP2 GT ISZERO PUSH2 0x2A2A JUMPI PUSH2 0x2A2A PUSH2 0x4301 JUMP JUMPDEST EQ ISZERO PUSH2 0x2A79 JUMPI PUSH1 0x40 MLOAD PUSH1 0x1 PUSH1 0x1 PUSH1 0xA0 SHL SUB DUP8 AND PUSH1 0x24 DUP3 ADD MSTORE PUSH1 0x44 DUP2 ADD DUP6 SWAP1 MSTORE PUSH2 0x29DB SWAP1 DUP5 SWAP1 PUSH32 0x79CC679000000000000000000000000000000000000000000000000000000000 SWAP1 PUSH1 0x64 ADD PUSH2 0x26DA JUMP JUMPDEST PUSH1 0x40 MLOAD PUSH32 0x31EECAF400000000000000000000000000000000000000000000000000000000 DUP2 MSTORE PUSH1 0x0 PUSH1 0x4 DUP3 ADD MSTORE PUSH2 0x2B5D SWAP1 DUP5 SWAP1 PUSH32 0x23B872DD00000000000000000000000000000000000000000000000000000000 SWAP1 DUP10 SWAP1 PUSH1 0x1 PUSH1 0x1 PUSH1 0xA0 SHL SUB DUP5 AND SWAP1 PUSH4 0x31EECAF4 SWAP1 PUSH1 0x24 ADD PUSH1 0x20 PUSH1 0x40 MLOAD DUP1 DUP4 SUB DUP2 DUP7 DUP1 EXTCODESIZE ISZERO DUP1 ISZERO PUSH2 0x2AFC JUMPI PUSH1 0x0 DUP1 REVERT JUMPDEST POP GAS STATICCALL ISZERO DUP1 ISZERO PUSH2 0x2B10 JUMPI RETURNDATASIZE PUSH1 0x0 DUP1 RETURNDATACOPY RETURNDATASIZE PUSH1 0x0 REVERT JUMPDEST POP POP POP POP PUSH1 0x40 MLOAD RETURNDATASIZE PUSH1 0x1F NOT PUSH1 0x1F DUP3 ADD AND DUP3 ADD DUP1 PUSH1 0x40 MSTORE POP DUP2 ADD SWAP1 PUSH2 0x2B34 SWAP2 SWAP1 PUSH2 0x45AE JUMP JUMPDEST PUSH1 0x40 MLOAD PUSH1 0x1 PUSH1 0x1 PUSH1 0xA0 SHL SUB SWAP3 DUP4 AND PUSH1 0x24 DUP3 ADD MSTORE SWAP2 AND PUSH1 0x44 DUP3 ADD MSTORE PUSH1 0x64 DUP2 ADD DUP9 SWAP1 MSTORE PUSH1 0x84 ADD PUSH2 0x26DA JUMP JUMPDEST SWAP1 POP DUP1 PUSH2 0x2B98 JUMPI DUP5 PUSH1 0x40 MLOAD PUSH32 0xE217B0AD00000000000000000000000000000000000000000000000000000000 DUP2 MSTORE PUSH1 0x4 ADD PUSH2 0xFD1 SWAP2 SWAP1 PUSH2 0x38FA JUMP JUMPDEST PUSH1 0x40 MLOAD PUSH32 0x8A1EEE100000000000000000000000000000000000000000000000000000000 DUP2 MSTORE PUSH1 0x0 PUSH1 0x4 DUP3 ADD MSTORE PUSH1 0x1 PUSH1 0x1 PUSH1 0xA0 SHL SUB DUP5 AND SWAP1 PUSH4 0x8A1EEE1 SWAP1 PUSH1 0x24 ADD PUSH2 0x12FA JUMP JUMPDEST PUSH1 0x0 PUSH2 0x2BEC PUSH2 0x4D8 DUP4 PUSH2 0x328B JUMP JUMPDEST PUSH1 0x2 DUP2 GT ISZERO PUSH2 0xE40 JUMPI PUSH2 0xE40 PUSH2 0x4301 JUMP JUMPDEST PUSH2 0x2C48 PUSH2 0x2C0F DUP9 DUP9 DUP9 DUP9 DUP9 DUP9 DUP9 PUSH2 0x2824 JUMP JUMPDEST PUSH1 0x0 SWAP1 DUP2 MSTORE PUSH1 0x4 PUSH1 0x20 MSTORE PUSH1 0x40 SWAP1 KECCAK256 DUP1 SLOAD PUSH32 0xFFFFFFFFFFFFFFFFFFFFFFFFFFFFFFFFFFFFFFFFFFFFFFFFFFFFFFFFFFFFFF00 AND PUSH1 0x1 OR SWAP1 SSTORE JUMP JUMPDEST POP POP POP POP POP POP POP JUMP JUMPDEST PUSH1 0x0 PUSH32 0x385B0FBF06AAE812803F7F3A3A975B7E1DCE19F50FB39BAF3F341E2849E5CE06 DUP3 PUSH1 0x40 MLOAD PUSH1 0x20 ADD PUSH2 0x259D SWAP3 SWAP2 SWAP1 PUSH2 0x4A15 JUMP JUMPDEST PUSH1 0x0 PUSH32 0x7B0D4304F82012BD3B70B1D531C160E326067C90829E2A3D386722AD10B89C3 DUP7 DUP7 DUP7 DUP7 DUP7 PUSH1 0x40 MLOAD PUSH1 0x20 ADD PUSH2 0x2CC3 SWAP7 SWAP6 SWAP5 SWAP4 SWAP3 SWAP2 SWAP1 PUSH2 0x4A3B JUMP JUMPDEST PUSH1 0x40 MLOAD PUSH1 0x20 DUP2 DUP4 SUB SUB DUP2 MSTORE SWAP1 PUSH1 0x40 MSTORE DUP1 MLOAD SWAP1 PUSH1 0x20 ADD KECCAK256 SWAP1 POP SWAP6 SWAP5 POP POP POP POP POP JUMP JUMPDEST PUSH2 0x2600 PUSH2 0x2CF0 DUP4 PUSH2 0x328B JUMP JUMPDEST DUP3 PUSH1 0x2 DUP2 GT ISZERO PUSH2 0x2D02 JUMPI PUSH2 0x2D02 PUSH2 0x4301 JUMP JUMPDEST PUSH1 0x0 SWAP2 DUP3 MSTORE PUSH1 0x20 DUP3 SWAP1 MSTORE PUSH1 0x40 SWAP1 SWAP2 KECCAK256 SSTORE JUMP JUMPDEST PUSH2 0x2600 PUSH2 0x2D20 DUP4 PUSH2 0x2DCB JUMP JUMPDEST PUSH1 0x0 SWAP1 DUP2 MSTORE PUSH1 0x2 PUSH1 0x20 MSTORE PUSH1 0x40 SWAP1 KECCAK256 DUP1 SLOAD PUSH32 0xFFFFFFFFFFFFFFFFFFFFFFFF0000000000000000000000000000000000000000 AND PUSH1 0x1 PUSH1 0x1 PUSH1 0xA0 SHL SUB DUP5 AND OR SWAP1 SSTORE JUMP JUMPDEST PUSH2 0x2D80 PUSH2 0x2D6D DUP4 PUSH2 0x2C51 JUMP JUMPDEST DUP3 PUSH1 0x0 SWAP2 DUP3 MSTORE PUSH1 0x20 DUP3 SWAP1 MSTORE PUSH1 0x40 SWAP1 SWAP2 KECCAK256 SSTORE JUMP JUMPDEST PUSH32 0xA34DF38BABDCFB4AA60AD9EDA9583DF1BCD3DBD7D4687C89D35C3EC4F4331BE9 DUP3 DUP3 PUSH1 0x40 MLOAD PUSH2 0x2DB1 SWAP3 SWAP2 SWAP1 PUSH2 0x40BD JUMP JUMPDEST PUSH1 0x40 MLOAD DUP1 SWAP2 SUB SWAP1 LOG1 POP POP JUMP JUMPDEST PUSH1 0x0 PUSH2 0xE40 PUSH2 0x4D8 DUP4 PUSH2 0x32C0 JUMP JUMPDEST PUSH1 0x0 PUSH32 0xC4E632779A6A7838736DD7E5E6A0EADF171DD37DFB6230720E265576DFCF42BB DUP3 PUSH1 0x40 MLOAD PUSH1 0x20 ADD PUSH2 0x259D SWAP3 SWAP2 SWAP1 PUSH2 0x4A15 JUMP JUMPDEST POP JUMP JUMPDEST DUP2 MLOAD DUP2 DUP2 LT ISZERO PUSH2 0x2E3F JUMPI PUSH1 0x40 MLOAD PUSH32 0xF1965A0700000000000000000000000000000000000000000000000000000000 DUP2 MSTORE PUSH1 0x4 ADD PUSH1 0x40 MLOAD DUP1 SWAP2 SUB SWAP1 REVERT JUMPDEST DUP2 PUSH2 0x2E76 JUMPI PUSH1 0x40 MLOAD PUSH32 0x1845300D00000000000000000000000000000000000000000000000000000000 DUP2 MSTORE PUSH1 0x4 ADD PUSH1 0x40 MLOAD DUP1 SWAP2 SUB SWAP1 REVERT JUMPDEST PUSH2 0x2E80 DUP5 DUP4 PUSH2 0x32FB JUMP JUMPDEST PUSH2 0x2E8A DUP5 DUP3 PUSH2 0x3307 JUMP JUMPDEST PUSH1 0x0 JUMPDEST DUP2 DUP2 LT ISZERO PUSH2 0x2F67 JUMPI PUSH1 0x0 DUP5 DUP3 DUP2 MLOAD DUP2 LT PUSH2 0x2EA9 JUMPI PUSH2 0x2EA9 PUSH2 0x4072 JUMP JUMPDEST PUSH1 0x20 MUL PUSH1 0x20 ADD ADD MLOAD SWAP1 POP PUSH2 0x2EBD DUP7 DUP3 PUSH2 0x2F6E JUMP JUMPDEST ISZERO PUSH2 0x2EFF JUMPI PUSH1 0x40 MLOAD PUSH32 0x424926DE00000000000000000000000000000000000000000000000000000000 DUP2 MSTORE PUSH1 0x1 PUSH1 0x1 PUSH1 0xA0 SHL SUB DUP3 AND PUSH1 0x4 DUP3 ADD MSTORE PUSH1 0x24 ADD PUSH2 0xFD1 JUMP JUMPDEST PUSH1 0x1 PUSH1 0x1 PUSH1 0xA0 SHL SUB DUP2 AND PUSH2 0x2F3F JUMPI PUSH1 0x40 MLOAD PUSH32 0xF1965A0700000000000000000000000000000000000000000000000000000000 DUP2 MSTORE PUSH1 0x4 ADD PUSH1 0x40 MLOAD DUP1 SWAP2 SUB SWAP1 REVERT JUMPDEST PUSH2 0x2F4A DUP7 DUP4 DUP4 PUSH2 0x3313 JUMP JUMPDEST PUSH2 0x2F56 DUP7 DUP3 PUSH1 0x1 PUSH2 0x3320 JUMP JUMPDEST POP PUSH2 0x2F60 DUP2 PUSH2 0x410E JUMP JUMPDEST SWAP1 POP PUSH2 0x2E8D JUMP JUMPDEST POP POP POP POP POP JUMP JUMPDEST PUSH1 0x0 PUSH2 0x281D PUSH2 0x3E2 DUP5 DUP5 PUSH2 0x3329 JUMP JUMPDEST PUSH1 0x40 DUP1 MLOAD PUSH32 0x3CED7A8CAF1111E0FBF4B784C5B41AEBD0F2389D9F2F64D5C3424AEED3ADBD3C PUSH1 0x20 DUP1 DUP4 ADD SWAP2 SWAP1 SWAP2 MSTORE DUP2 DUP4 ADD DUP7 SWAP1 MSTORE PUSH1 0x60 DUP1 DUP4 ADD DUP7 SWAP1 MSTORE DUP5 SWAP1 SHL PUSH32 0xFFFFFFFFFFFFFFFFFFFFFFFFFFFFFFFFFFFFFFFF000000000000000000000000 AND PUSH1 0x80 DUP4 ADD MSTORE DUP3 MLOAD DUP1 DUP4 SUB PUSH1 0x74 ADD DUP2 MSTORE PUSH1 0x94 SWAP1 SWAP3 ADD SWAP1 SWAP3 MSTORE DUP1 MLOAD SWAP2 ADD KECCAK256 PUSH1 0x0 SWAP1 PUSH2 0x3006 SWAP1 PUSH2 0x3E2 JUMP JUMPDEST SWAP5 SWAP4 POP POP POP POP JUMP JUMPDEST PUSH1 0x40 DUP1 MLOAD PUSH32 0x3CED7A8CAF1111E0FBF4B784C5B41AEBD0F2389D9F2F64D5C3424AEED3ADBD3C PUSH1 0x20 DUP1 DUP4 ADD SWAP2 SWAP1 SWAP2 MSTORE DUP2 DUP4 ADD DUP8 SWAP1 MSTORE PUSH1 0x60 DUP1 DUP4 ADD DUP8 SWAP1 MSTORE DUP6 SWAP1 SHL PUSH32 0xFFFFFFFFFFFFFFFFFFFFFFFFFFFFFFFFFFFFFFFF000000000000000000000000 AND PUSH1 0x80 DUP4 ADD MSTORE DUP3 MLOAD DUP1 DUP4 SUB PUSH1 0x74 ADD DUP2 MSTORE PUSH1 0x94 SWAP1 SWAP3 ADD SWAP1 SWAP3 MSTORE DUP1 MLOAD SWAP2 ADD KECCAK256 PUSH2 0x1F89 SWAP1 PUSH2 0x25C6 JUMP JUMPDEST PUSH1 0x0 PUSH2 0x281D PUSH2 0x4D8 DUP5 DUP5 PUSH2 0x338F JUMP JUMPDEST PUSH2 0x30B0 PUSH2 0x2D6D DUP5 DUP5 PUSH2 0x338F JUMP JUMPDEST POP POP POP JUMP JUMPDEST PUSH1 0x40 DUP1 MLOAD PUSH32 0x957705A374326B30F4A1069C936D736CC9993ED6C820B4E0E2FD94A8BECA0D1D PUSH1 0x20 DUP3 ADD MSTORE SWAP1 DUP2 ADD DUP3 SWAP1 MSTORE PUSH1 0x0 SWAP1 PUSH1 0x60 ADD PUSH2 0x259D JUMP JUMPDEST PUSH2 0x2F67 PUSH2 0x2C0F DUP7 DUP7 DUP7 DUP7 DUP7 PUSH2 0x2C86 JUMP JUMPDEST PUSH1 0x0 PUSH2 0x310B DUP4 PUSH2 0x13FB JUMP JUMPDEST SWAP1 POP PUSH1 0x0 DUP2 GT DUP1 ISZERO PUSH2 0x311C JUMPI POP DUP1 DUP3 GT JUMPDEST ISZERO PUSH2 0x3155 JUMPI DUP3 PUSH1 0x40 MLOAD PUSH32 0x7820279500000000000000000000000000000000000000000000000000000000 DUP2 MSTORE PUSH1 0x4 ADD PUSH2 0xFD1 SWAP2 SWAP1 PUSH2 0x38FA JUMP JUMPDEST PUSH2 0x30B0 PUSH2 0x3169 DUP5 PUSH2 0xE3B PUSH3 0x15180 TIMESTAMP PUSH2 0x4230 JUMP JUMPDEST DUP4 PUSH1 0x0 SWAP2 DUP3 MSTORE PUSH1 0x20 DUP3 SWAP1 MSTORE PUSH1 0x40 SWAP1 SWAP2 KECCAK256 SSTORE JUMP JUMPDEST PUSH1 0x0 DUP1 PUSH1 0x0 DUP5 PUSH1 0x1 PUSH1 0x1 PUSH1 0xA0 SHL SUB AND DUP5 PUSH1 0x40 MLOAD PUSH2 0x3199 SWAP2 SWAP1 PUSH2 0x40A1 JUMP JUMPDEST PUSH1 0x0 PUSH1 0x40 MLOAD DUP1 DUP4 SUB DUP2 PUSH1 0x0 DUP7 GAS CALL SWAP2 POP POP RETURNDATASIZE DUP1 PUSH1 0x0 DUP2 EQ PUSH2 0x31D6 JUMPI PUSH1 0x40 MLOAD SWAP2 POP PUSH1 0x1F NOT PUSH1 0x3F RETURNDATASIZE ADD AND DUP3 ADD PUSH1 0x40 MSTORE RETURNDATASIZE DUP3 MSTORE RETURNDATASIZE PUSH1 0x0 PUSH1 0x20 DUP5 ADD RETURNDATACOPY PUSH2 0x31DB JUMP JUMPDEST PUSH1 0x60 SWAP2 POP JUMPDEST POP SWAP2 POP SWAP2 POP DUP2 DUP1 ISZERO PUSH2 0x3205 JUMPI POP DUP1 MLOAD ISZERO DUP1 PUSH2 0x3205 JUMPI POP DUP1 DUP1 PUSH1 0x20 ADD SWAP1 MLOAD DUP2 ADD SWAP1 PUSH2 0x3205 SWAP2 SWAP1 PUSH2 0x3DE1 JUMP JUMPDEST SWAP6 SWAP5 POP POP POP POP POP JUMP JUMPDEST PUSH1 0x40 DUP1 MLOAD PUSH32 0x5112EF894367DE1270CFAE12AFCD2285C225830EB8F74E7E938F721BB510CBA PUSH1 0x20 DUP3 ADD MSTORE SWAP1 DUP2 ADD DUP3 SWAP1 MSTORE PUSH1 0x0 SWAP1 PUSH1 0x60 ADD PUSH2 0x259D JUMP JUMPDEST PUSH1 0x40 DUP1 MLOAD PUSH32 0xF23EC0BB4210EDD5CBA85AFD05127EFCD2FC6A781BFED49188DA1081670B22D8 PUSH1 0x20 DUP3 ADD MSTORE SWAP1 DUP2 ADD DUP4 SWAP1 MSTORE PUSH1 0x60 DUP2 ADD DUP3 SWAP1 MSTORE PUSH1 0x0 SWAP1 PUSH1 0x80 ADD PUSH2 0x28BF JUMP JUMPDEST PUSH1 0x0 PUSH32 0xA80D2259AF55890618EC2EEB3AC72DE4BDBA22529BB14845D8A3D712D1C3F621 DUP3 PUSH1 0x40 MLOAD PUSH1 0x20 ADD PUSH2 0x259D SWAP3 SWAP2 SWAP1 PUSH2 0x4A15 JUMP JUMPDEST PUSH1 0x40 DUP1 MLOAD PUSH32 0x79BD914ADDD90BD67AD800BF0230BB85FFDEF5AEBA5FD8249F116D3F17F4FB4B PUSH1 0x20 DUP3 ADD MSTORE SWAP1 DUP2 ADD DUP3 SWAP1 MSTORE PUSH1 0x0 SWAP1 PUSH1 0x60 ADD PUSH2 0x259D JUMP JUMPDEST PUSH2 0x2600 PUSH2 0x2D6D DUP4 PUSH2 0x32C0 JUMP JUMPDEST PUSH2 0x2600 PUSH2 0x2D6D DUP4 PUSH2 0x320E JUMP JUMPDEST PUSH2 0x30B0 PUSH2 0x2D20 DUP5 DUP5 PUSH2 0x3249 JUMP JUMPDEST PUSH2 0x30B0 PUSH2 0x25C6 DUP5 DUP5 JUMPDEST PUSH1 0x40 DUP1 MLOAD PUSH32 0x63FA879CB478FDDF1DE08D49E29115FB768866711BC799FF9AB419A7F16C9AFB PUSH1 0x20 DUP3 ADD MSTORE SWAP1 DUP2 ADD DUP4 SWAP1 MSTORE PUSH1 0x60 DUP3 DUP2 SHL PUSH32 0xFFFFFFFFFFFFFFFFFFFFFFFFFFFFFFFFFFFFFFFF000000000000000000000000 AND SWAP1 DUP3 ADD MSTORE PUSH1 0x0 SWAP1 PUSH1 0x74 ADD PUSH2 0x28BF JUMP JUMPDEST PUSH1 0x40 DUP1 MLOAD PUSH32 0xBAEA1C6C0F16A0A340B10A9E980806696A68DDBB5E8361FD64630DD21ABF515F PUSH1 0x20 DUP3 ADD MSTORE SWAP1 DUP2 ADD DUP4 SWAP1 MSTORE PUSH1 0x60 DUP2 ADD DUP3 SWAP1 MSTORE PUSH1 0x0 SWAP1 PUSH1 0x80 ADD PUSH2 0x28BF JUMP JUMPDEST PUSH2 0x399 DUP1 PUSH2 0x4A8C DUP4 CODECOPY ADD SWAP1 JUMP JUMPDEST PUSH1 0x0 DUP1 DUP4 PUSH1 0x1F DUP5 ADD SLT PUSH2 0x33F0 JUMPI PUSH1 0x0 DUP1 REVERT JUMPDEST POP DUP2 CALLDATALOAD PUSH8 0xFFFFFFFFFFFFFFFF DUP2 GT ISZERO PUSH2 0x3408 JUMPI PUSH1 0x0 DUP1 REVERT JUMPDEST PUSH1 0x20 DUP4 ADD SWAP2 POP DUP4 PUSH1 0x20 DUP3 DUP6 ADD ADD GT ISZERO PUSH2 0x3420 JUMPI PUSH1 0x0 DUP1 REVERT JUMPDEST SWAP3 POP SWAP3 SWAP1 POP JUMP JUMPDEST PUSH1 0x0 DUP1 PUSH1 0x20 DUP4 DUP6 SUB SLT ISZERO PUSH2 0x343A JUMPI PUSH1 0x0 DUP1 REVERT JUMPDEST DUP3 CALLDATALOAD PUSH8 0xFFFFFFFFFFFFFFFF DUP2 GT ISZERO PUSH2 0x3451 JUMPI PUSH1 0x0 DUP1 REVERT JUMPDEST PUSH2 0x345D DUP6 DUP3 DUP7 ADD PUSH2 0x33DE JUMP JUMPDEST SWAP1 SWAP7 SWAP1 SWAP6 POP SWAP4 POP POP POP POP JUMP JUMPDEST PUSH1 0x0 DUP1 PUSH1 0x0 PUSH1 0x40 DUP5 DUP7 SUB SLT ISZERO PUSH2 0x347E JUMPI PUSH1 0x0 DUP1 REVERT JUMPDEST DUP4 CALLDATALOAD PUSH8 0xFFFFFFFFFFFFFFFF DUP2 GT ISZERO PUSH2 0x3495 JUMPI PUSH1 0x0 DUP1 REVERT JUMPDEST PUSH2 0x34A1 DUP7 DUP3 DUP8 ADD PUSH2 0x33DE JUMP JUMPDEST SWAP1 SWAP8 SWAP1 SWAP7 POP PUSH1 0x20 SWAP6 SWAP1 SWAP6 ADD CALLDATALOAD SWAP5 SWAP4 POP POP POP POP JUMP JUMPDEST PUSH1 0x0 PUSH1 0x20 DUP3 DUP5 SUB SLT ISZERO PUSH2 0x34C7 JUMPI PUSH1 0x0 DUP1 REVERT JUMPDEST POP CALLDATALOAD SWAP2 SWAP1 POP JUMP JUMPDEST PUSH1 0x20 DUP1 DUP3 MSTORE DUP3 MLOAD DUP3 DUP3 ADD DUP2 SWAP1 MSTORE PUSH1 0x0 SWAP2 SWAP1 DUP5 DUP3 ADD SWAP1 PUSH1 0x40 DUP6 ADD SWAP1 DUP5 JUMPDEST DUP2 DUP2 LT ISZERO PUSH2 0x350F JUMPI DUP4 MLOAD PUSH1 0x1 PUSH1 0x1 PUSH1 0xA0 SHL SUB AND DUP4 MSTORE SWAP3 DUP5 ADD SWAP3 SWAP2 DUP5 ADD SWAP2 PUSH1 0x1 ADD PUSH2 0x34EA JUMP JUMPDEST POP SWAP1 SWAP7 SWAP6 POP POP POP POP POP POP JUMP JUMPDEST PUSH1 0x0 DUP1 PUSH1 0x0 DUP1 PUSH1 0x0 DUP1 PUSH1 0x0 DUP1 PUSH1 0x0 PUSH1 0xC0 DUP11 DUP13 SUB SLT ISZERO PUSH2 0x3539 JUMPI PUSH1 0x0 DUP1 REVERT JUMPDEST DUP10 CALLDATALOAD SWAP9 POP PUSH1 0x20 DUP11 ADD CALLDATALOAD PUSH8 0xFFFFFFFFFFFFFFFF DUP1 DUP3 GT ISZERO PUSH2 0x3558 JUMPI PUSH1 0x0 DUP1 REVERT JUMPDEST PUSH2 0x3564 DUP14 DUP4 DUP15 ADD PUSH2 0x33DE JUMP JUMPDEST SWAP1 SWAP11 POP SWAP9 POP PUSH1 0x40 DUP13 ADD CALLDATALOAD SWAP2 POP DUP1 DUP3 GT ISZERO PUSH2 0x357D JUMPI PUSH1 0x0 DUP1 REVERT JUMPDEST PUSH2 0x3589 DUP14 DUP4 DUP15 ADD PUSH2 0x33DE JUMP JUMPDEST SWAP1 SWAP9 POP SWAP7 POP PUSH1 0x60 DUP13 ADD CALLDATALOAD SWAP6 POP PUSH1 0x80 DUP13 ADD CALLDATALOAD SWAP2 POP DUP1 DUP3 GT ISZERO PUSH2 0x35A9 JUMPI PUSH1 0x0 DUP1 REVERT JUMPDEST POP PUSH2 0x35B6 DUP13 DUP3 DUP14 ADD PUSH2 0x33DE JUMP JUMPDEST SWAP11 SWAP14 SWAP10 SWAP13 POP SWAP8 SWAP11 SWAP7 SWAP10 SWAP6 SWAP9 SWAP5 SWAP8 SWAP7 PUSH1 0xA0 ADD CALLDATALOAD SWAP5 SWAP4 POP POP POP POP JUMP JUMPDEST PUSH1 0x0 DUP1 PUSH1 0x0 DUP1 PUSH1 0x0 DUP1 PUSH1 0x60 DUP8 DUP10 SUB SLT ISZERO PUSH2 0x35E9 JUMPI PUSH1 0x0 DUP1 REVERT JUMPDEST DUP7 CALLDATALOAD PUSH8 0xFFFFFFFFFFFFFFFF DUP1 DUP3 GT ISZERO PUSH2 0x3601 JUMPI PUSH1 0x0 DUP1 REVERT JUMPDEST PUSH2 0x360D DUP11 DUP4 DUP12 ADD PUSH2 0x33DE JUMP JUMPDEST SWAP1 SWAP9 POP SWAP7 POP PUSH1 0x20 DUP10 ADD CALLDATALOAD SWAP2 POP DUP1 DUP3 GT ISZERO PUSH2 0x3626 JUMPI PUSH1 0x0 DUP1 REVERT JUMPDEST PUSH2 0x3632 DUP11 DUP4 DUP12 ADD PUSH2 0x33DE JUMP JUMPDEST SWAP1 SWAP7 POP SWAP5 POP PUSH1 0x40 DUP10 ADD CALLDATALOAD SWAP2 POP DUP1 DUP3 GT ISZERO PUSH2 0x364B JUMPI PUSH1 0x0 DUP1 REVERT JUMPDEST POP PUSH2 0x3658 DUP10 DUP3 DUP11 ADD PUSH2 0x33DE JUMP JUMPDEST SWAP8 SWAP11 SWAP7 SWAP10 POP SWAP5 SWAP8 POP SWAP3 SWAP6 SWAP4 SWAP5 SWAP3 POP POP POP JUMP JUMPDEST PUSH32 0x4E487B7100000000000000000000000000000000000000000000000000000000 PUSH1 0x0 MSTORE PUSH1 0x41 PUSH1 0x4 MSTORE PUSH1 0x24 PUSH1 0x0 REVERT JUMPDEST PUSH1 0x40 MLOAD PUSH1 0x1F DUP3 ADD PUSH1 0x1F NOT AND DUP2 ADD PUSH8 0xFFFFFFFFFFFFFFFF DUP2 GT DUP3 DUP3 LT OR ISZERO PUSH2 0x36C2 JUMPI PUSH2 0x36C2 PUSH2 0x366A JUMP JUMPDEST PUSH1 0x40 MSTORE SWAP2 SWAP1 POP JUMP JUMPDEST PUSH1 0x0 PUSH8 0xFFFFFFFFFFFFFFFF DUP3 GT ISZERO PUSH2 0x36E4 JUMPI PUSH2 0x36E4 PUSH2 0x366A JUMP JUMPDEST POP PUSH1 0x1F ADD PUSH1 0x1F NOT AND PUSH1 0x20 ADD SWAP1 JUMP JUMPDEST PUSH1 0x0 DUP3 PUSH1 0x1F DUP4 ADD SLT PUSH2 0x3703 JUMPI PUSH1 0x0 DUP1 REVERT JUMPDEST DUP2 CALLDATALOAD PUSH2 0x3716 PUSH2 0x3711 DUP3 PUSH2 0x36CA JUMP JUMPDEST PUSH2 0x3699 JUMP JUMPDEST DUP2 DUP2 MSTORE DUP5 PUSH1 0x20 DUP4 DUP7 ADD ADD GT ISZERO PUSH2 0x372B JUMPI PUSH1 0x0 DUP1 REVERT JUMPDEST DUP2 PUSH1 0x20 DUP6 ADD PUSH1 0x20 DUP4 ADD CALLDATACOPY PUSH1 0x0 SWAP2 DUP2 ADD PUSH1 0x20 ADD SWAP2 SWAP1 SWAP2 MSTORE SWAP4 SWAP3 POP POP POP JUMP JUMPDEST PUSH1 0x0 PUSH1 0x20 DUP3 DUP5 SUB SLT ISZERO PUSH2 0x375A JUMPI PUSH1 0x0 DUP1 REVERT JUMPDEST DUP2 CALLDATALOAD PUSH8 0xFFFFFFFFFFFFFFFF DUP2 GT ISZERO PUSH2 0x3771 JUMPI PUSH1 0x0 DUP1 REVERT JUMPDEST PUSH2 0x3006 DUP5 DUP3 DUP6 ADD PUSH2 0x36F2 JUMP JUMPDEST PUSH1 0x0 DUP1 PUSH1 0x0 DUP1 PUSH1 0x0 DUP1 PUSH1 0x0 PUSH1 0x80 DUP9 DUP11 SUB SLT ISZERO PUSH2 0x3798 JUMPI PUSH1 0x0 DUP1 REVERT JUMPDEST DUP8 CALLDATALOAD PUSH8 0xFFFFFFFFFFFFFFFF DUP1 DUP3 GT ISZERO PUSH2 0x37B0 JUMPI PUSH1 0x0 DUP1 REVERT JUMPDEST PUSH2 0x37BC DUP12 DUP4 DUP13 ADD PUSH2 0x33DE JUMP JUMPDEST SWAP1 SWAP10 POP SWAP8 POP PUSH1 0x20 DUP11 ADD CALLDATALOAD SWAP2 POP DUP1 DUP3 GT ISZERO PUSH2 0x37D5 JUMPI PUSH1 0x0 DUP1 REVERT JUMPDEST PUSH2 0x37E1 DUP12 DUP4 DUP13 ADD PUSH2 0x33DE JUMP JUMPDEST SWAP1 SWAP8 POP SWAP6 POP PUSH1 0x40 DUP11 ADD CALLDATALOAD SWAP2 POP DUP1 DUP3 GT ISZERO PUSH2 0x37FA JUMPI PUSH1 0x0 DUP1 REVERT JUMPDEST POP PUSH2 0x3807 DUP11 DUP3 DUP12 ADD PUSH2 0x33DE JUMP JUMPDEST SWAP9 SWAP12 SWAP8 SWAP11 POP SWAP6 SWAP9 SWAP5 SWAP8 SWAP6 SWAP7 PUSH1 0x60 SWAP1 SWAP6 ADD CALLDATALOAD SWAP5 SWAP4 POP POP POP POP JUMP JUMPDEST PUSH1 0x0 DUP1 PUSH1 0x0 DUP1 PUSH1 0x0 DUP1 PUSH1 0x80 DUP8 DUP10 SUB SLT ISZERO PUSH2 0x3839 JUMPI PUSH1 0x0 DUP1 REVERT JUMPDEST DUP7 CALLDATALOAD SWAP6 POP PUSH1 0x20 DUP8 ADD CALLDATALOAD PUSH8 0xFFFFFFFFFFFFFFFF DUP1 DUP3 GT ISZERO PUSH2 0x3858 JUMPI PUSH1 0x0 DUP1 REVERT JUMPDEST PUSH2 0x3864 DUP11 DUP4 DUP12 ADD PUSH2 0x33DE JUMP JUMPDEST SWAP1 SWAP8 POP SWAP6 POP PUSH1 0x40 DUP10 ADD CALLDATALOAD SWAP2 POP DUP1 DUP3 GT ISZERO PUSH2 0x387D JUMPI PUSH1 0x0 DUP1 REVERT JUMPDEST POP PUSH2 0x388A DUP10 DUP3 DUP11 ADD PUSH2 0x33DE JUMP JUMPDEST SWAP8 SWAP11 SWAP7 SWAP10 POP SWAP5 SWAP8 SWAP5 SWAP7 SWAP6 PUSH1 0x60 SWAP1 SWAP6 ADD CALLDATALOAD SWAP5 SWAP4 POP POP POP POP JUMP JUMPDEST PUSH1 0x0 JUMPDEST DUP4 DUP2 LT ISZERO PUSH2 0x38BD JUMPI DUP2 DUP2 ADD MLOAD DUP4 DUP3 ADD MSTORE PUSH1 0x20 ADD PUSH2 0x38A5 JUMP JUMPDEST DUP4 DUP2 GT ISZERO PUSH2 0x1F89 JUMPI POP POP PUSH1 0x0 SWAP2 ADD MSTORE JUMP JUMPDEST PUSH1 0x0 DUP2 MLOAD DUP1 DUP5 MSTORE PUSH2 0x38E6 DUP2 PUSH1 0x20 DUP7 ADD PUSH1 0x20 DUP7 ADD PUSH2 0x38A2 JUMP JUMPDEST PUSH1 0x1F ADD PUSH1 0x1F NOT AND SWAP3 SWAP1 SWAP3 ADD PUSH1 0x20 ADD SWAP3 SWAP2 POP POP JUMP JUMPDEST PUSH1 0x20 DUP2 MSTORE PUSH1 0x0 PUSH2 0x281D PUSH1 0x20 DUP4 ADD DUP5 PUSH2 0x38CE JUMP JUMPDEST PUSH1 0x1 PUSH1 0x1 PUSH1 0xA0 SHL SUB DUP2 AND DUP2 EQ PUSH2 0x2E00 JUMPI PUSH1 0x0 DUP1 REVERT JUMPDEST PUSH1 0x0 DUP1 PUSH1 0x0 DUP1 PUSH1 0x60 DUP6 DUP8 SUB SLT ISZERO PUSH2 0x3938 JUMPI PUSH1 0x0 DUP1 REVERT JUMPDEST DUP5 CALLDATALOAD PUSH2 0x3943 DUP2 PUSH2 0x390D JUMP JUMPDEST SWAP4 POP PUSH1 0x20 DUP6 ADD CALLDATALOAD SWAP3 POP PUSH1 0x40 DUP6 ADD CALLDATALOAD PUSH8 0xFFFFFFFFFFFFFFFF DUP2 GT ISZERO PUSH2 0x3966 JUMPI PUSH1 0x0 DUP1 REVERT JUMPDEST PUSH2 0x3972 DUP8 DUP3 DUP9 ADD PUSH2 0x33DE JUMP JUMPDEST SWAP6 SWAP9 SWAP5 SWAP8 POP SWAP6 POP POP POP POP JUMP JUMPDEST PUSH1 0x0 DUP1 PUSH1 0x0 DUP1 PUSH1 0x0 DUP1 PUSH1 0x0 DUP1 PUSH1 0x0 PUSH1 0xA0 DUP11 DUP13 SUB SLT ISZERO PUSH2 0x399C JUMPI PUSH1 0x0 DUP1 REVERT JUMPDEST DUP10 CALLDATALOAD PUSH8 0xFFFFFFFFFFFFFFFF DUP1 DUP3 GT ISZERO PUSH2 0x39B4 JUMPI PUSH1 0x0 DUP1 REVERT JUMPDEST PUSH2 0x39C0 DUP14 DUP4 DUP15 ADD PUSH2 0x33DE JUMP JUMPDEST SWAP1 SWAP12 POP SWAP10 POP PUSH1 0x20 DUP13 ADD CALLDATALOAD SWAP2 POP DUP1 DUP3 GT ISZERO PUSH2 0x39D9 JUMPI PUSH1 0x0 DUP1 REVERT JUMPDEST PUSH2 0x39E5 DUP14 DUP4 DUP15 ADD PUSH2 0x33DE JUMP JUMPDEST SWAP1 SWAP10 POP SWAP8 POP PUSH1 0x40 DUP13 ADD CALLDATALOAD SWAP2 POP DUP1 DUP3 GT ISZERO PUSH2 0x39FE JUMPI PUSH1 0x0 DUP1 REVERT JUMPDEST PUSH2 0x3A0A DUP14 DUP4 DUP15 ADD PUSH2 0x33DE JUMP JUMPDEST SWAP1 SWAP8 POP SWAP6 POP PUSH1 0x60 DUP13 ADD CALLDATALOAD SWAP2 POP DUP1 DUP3 GT ISZERO PUSH2 0x3A23 JUMPI PUSH1 0x0 DUP1 REVERT JUMPDEST POP PUSH2 0x3A30 DUP13 DUP3 DUP14 ADD PUSH2 0x33DE JUMP JUMPDEST SWAP11 SWAP14 SWAP10 SWAP13 POP SWAP8 SWAP11 SWAP7 SWAP10 SWAP6 SWAP9 SWAP5 SWAP8 SWAP7 PUSH1 0x80 ADD CALLDATALOAD SWAP5 SWAP4 POP POP POP POP JUMP JUMPDEST PUSH1 0x0 DUP1 PUSH1 0x0 DUP1 PUSH1 0x0 DUP1 PUSH1 0x0 DUP1 PUSH1 0x0 DUP1 PUSH1 0xE0 DUP12 DUP14 SUB SLT ISZERO PUSH2 0x3A69 JUMPI PUSH1 0x0 DUP1 REVERT JUMPDEST DUP11 CALLDATALOAD SWAP10 POP PUSH1 0x20 DUP12 ADD CALLDATALOAD PUSH8 0xFFFFFFFFFFFFFFFF DUP1 DUP3 GT ISZERO PUSH2 0x3A88 JUMPI PUSH1 0x0 DUP1 REVERT JUMPDEST PUSH2 0x3A94 DUP15 DUP4 DUP16 ADD PUSH2 0x33DE JUMP JUMPDEST SWAP1 SWAP12 POP SWAP10 POP PUSH1 0x40 DUP14 ADD CALLDATALOAD SWAP2 POP DUP1 DUP3 GT ISZERO PUSH2 0x3AAD JUMPI PUSH1 0x0 DUP1 REVERT JUMPDEST PUSH2 0x3AB9 DUP15 DUP4 DUP16 ADD PUSH2 0x33DE JUMP JUMPDEST SWAP1 SWAP10 POP SWAP8 POP PUSH1 0x60 DUP14 ADD CALLDATALOAD SWAP2 POP PUSH2 0x3ACE DUP3 PUSH2 0x390D JUMP JUMPDEST SWAP1 SWAP6 POP PUSH1 0x80 DUP13 ADD CALLDATALOAD SWAP5 POP PUSH1 0xA0 DUP13 ADD CALLDATALOAD SWAP1 DUP1 DUP3 GT ISZERO PUSH2 0x3AEB JUMPI PUSH1 0x0 DUP1 REVERT JUMPDEST POP PUSH2 0x3AF8 DUP14 DUP3 DUP15 ADD PUSH2 0x33DE JUMP JUMPDEST SWAP2 POP DUP1 SWAP5 POP POP DUP1 SWAP3 POP POP PUSH1 0xC0 DUP12 ADD CALLDATALOAD SWAP1 POP SWAP3 SWAP6 SWAP9 SWAP12 SWAP2 SWAP5 SWAP8 SWAP11 POP SWAP3 SWAP6 SWAP9 POP JUMP JUMPDEST PUSH1 0x0 DUP1 DUP4 PUSH1 0x1F DUP5 ADD SLT PUSH2 0x3B2A JUMPI PUSH1 0x0 DUP1 REVERT JUMPDEST POP DUP2 CALLDATALOAD PUSH8 0xFFFFFFFFFFFFFFFF DUP2 GT ISZERO PUSH2 0x3B42 JUMPI PUSH1 0x0 DUP1 REVERT JUMPDEST PUSH1 0x20 DUP4 ADD SWAP2 POP DUP4 PUSH1 0x20 DUP3 PUSH1 0x5 SHL DUP6 ADD ADD GT ISZERO PUSH2 0x3420 JUMPI PUSH1 0x0 DUP1 REVERT JUMPDEST PUSH1 0x0 DUP1 PUSH1 0x0 DUP1 PUSH1 0x40 DUP6 DUP8 SUB SLT ISZERO PUSH2 0x3B73 JUMPI PUSH1 0x0 DUP1 REVERT JUMPDEST DUP5 CALLDATALOAD PUSH8 0xFFFFFFFFFFFFFFFF DUP1 DUP3 GT ISZERO PUSH2 0x3B8B JUMPI PUSH1 0x0 DUP1 REVERT JUMPDEST PUSH2 0x3B97 DUP9 DUP4 DUP10 ADD PUSH2 0x3B18 JUMP JUMPDEST SWAP1 SWAP7 POP SWAP5 POP PUSH1 0x20 DUP8 ADD CALLDATALOAD SWAP2 POP DUP1 DUP3 GT ISZERO PUSH2 0x3BB0 JUMPI PUSH1 0x0 DUP1 REVERT JUMPDEST POP PUSH2 0x3972 DUP8 DUP3 DUP9 ADD PUSH2 0x3B18 JUMP JUMPDEST PUSH1 0x0 DUP1 PUSH1 0x0 DUP1 PUSH1 0x0 DUP1 PUSH1 0x0 PUSH1 0xA0 DUP9 DUP11 SUB SLT ISZERO PUSH2 0x3BD8 JUMPI PUSH1 0x0 DUP1 REVERT JUMPDEST DUP8 CALLDATALOAD SWAP7 POP PUSH1 0x20 DUP9 ADD CALLDATALOAD PUSH8 0xFFFFFFFFFFFFFFFF DUP1 DUP3 GT ISZERO PUSH2 0x3BF7 JUMPI PUSH1 0x0 DUP1 REVERT JUMPDEST PUSH2 0x3C03 DUP12 DUP4 DUP13 ADD PUSH2 0x33DE JUMP JUMPDEST SWAP1 SWAP9 POP SWAP7 POP PUSH1 0x40 DUP11 ADD CALLDATALOAD SWAP2 POP DUP1 DUP3 GT ISZERO PUSH2 0x3C1C JUMPI PUSH1 0x0 DUP1 REVERT JUMPDEST POP PUSH2 0x3C29 DUP11 DUP3 DUP12 ADD PUSH2 0x33DE JUMP JUMPDEST SWAP1 SWAP6 POP SWAP4 POP POP PUSH1 0x60 DUP9 ADD CALLDATALOAD PUSH2 0x3C3D DUP2 PUSH2 0x390D JUMP JUMPDEST DUP1 SWAP3 POP POP PUSH1 0x80 DUP9 ADD CALLDATALOAD SWAP1 POP SWAP3 SWAP6 SWAP9 SWAP2 SWAP5 SWAP8 POP SWAP3 SWAP6 POP JUMP JUMPDEST PUSH1 0x0 DUP2 MLOAD DUP1 DUP5 MSTORE PUSH1 0x20 DUP1 DUP6 ADD DUP1 DUP2 SWAP7 POP DUP4 PUSH1 0x5 SHL DUP2 ADD SWAP2 POP DUP3 DUP7 ADD PUSH1 0x0 JUMPDEST DUP6 DUP2 LT ISZERO PUSH2 0x3C9C JUMPI DUP3 DUP5 SUB DUP10 MSTORE PUSH2 0x3C8A DUP5 DUP4 MLOAD PUSH2 0x38CE JUMP JUMPDEST SWAP9 DUP6 ADD SWAP9 SWAP4 POP SWAP1 DUP5 ADD SWAP1 PUSH1 0x1 ADD PUSH2 0x3C72 JUMP JUMPDEST POP SWAP2 SWAP8 SWAP7 POP POP POP POP POP POP POP JUMP JUMPDEST PUSH1 0x0 PUSH1 0x80 DUP3 ADD DUP7 DUP4 MSTORE PUSH1 0x20 PUSH1 0x80 DUP2 DUP6 ADD MSTORE DUP2 DUP8 MLOAD DUP1 DUP5 MSTORE PUSH1 0xA0 DUP7 ADD SWAP2 POP DUP3 DUP10 ADD SWAP4 POP PUSH1 0x0 JUMPDEST DUP2 DUP2 LT ISZERO PUSH2 0x3CEA JUMPI DUP5 MLOAD DUP4 MSTORE SWAP4 DUP4 ADD SWAP4 SWAP2 DUP4 ADD SWAP2 PUSH1 0x1 ADD PUSH2 0x3CCE JUMP JUMPDEST POP POP DUP5 DUP2 SUB PUSH1 0x40 DUP7 ADD MSTORE DUP7 MLOAD DUP1 DUP3 MSTORE DUP3 DUP3 ADD SWAP4 POP PUSH1 0x5 DUP2 SWAP1 SHL DUP3 ADD DUP4 ADD DUP4 DUP10 ADD PUSH1 0x0 JUMPDEST DUP4 DUP2 LT ISZERO PUSH2 0x3D3B JUMPI PUSH1 0x1F NOT DUP6 DUP5 SUB ADD DUP8 MSTORE PUSH2 0x3D29 DUP4 DUP4 MLOAD PUSH2 0x38CE JUMP JUMPDEST SWAP7 DUP7 ADD SWAP7 SWAP3 POP SWAP1 DUP6 ADD SWAP1 PUSH1 0x1 ADD PUSH2 0x3D0D JUMP JUMPDEST POP POP DUP7 DUP2 SUB PUSH1 0x60 DUP9 ADD MSTORE PUSH2 0x2109 DUP2 DUP10 PUSH2 0x3C54 JUMP JUMPDEST PUSH1 0x0 DUP1 PUSH1 0x40 DUP4 DUP6 SUB SLT ISZERO PUSH2 0x3D62 JUMPI PUSH1 0x0 DUP1 REVERT JUMPDEST DUP3 CALLDATALOAD PUSH8 0xFFFFFFFFFFFFFFFF DUP1 DUP3 GT ISZERO PUSH2 0x3D7A JUMPI PUSH1 0x0 DUP1 REVERT JUMPDEST PUSH2 0x3D86 DUP7 DUP4 DUP8 ADD PUSH2 0x36F2 JUMP JUMPDEST SWAP4 POP PUSH1 0x20 DUP6 ADD CALLDATALOAD SWAP2 POP DUP1 DUP3 GT ISZERO PUSH2 0x3D9C JUMPI PUSH1 0x0 DUP1 REVERT JUMPDEST POP PUSH2 0x3DA9 DUP6 DUP3 DUP7 ADD PUSH2 0x36F2 JUMP JUMPDEST SWAP2 POP POP SWAP3 POP SWAP3 SWAP1 POP JUMP JUMPDEST DUP3 DUP2 MSTORE PUSH1 0x40 PUSH1 0x20 DUP3 ADD MSTORE PUSH1 0x0 PUSH2 0x3006 PUSH1 0x40 DUP4 ADD DUP5 PUSH2 0x38CE JUMP JUMPDEST DUP1 MLOAD DUP1 ISZERO ISZERO DUP2 EQ PUSH2 0x3DDC JUMPI PUSH1 0x0 DUP1 REVERT JUMPDEST SWAP2 SWAP1 POP JUMP JUMPDEST PUSH1 0x0 PUSH1 0x20 DUP3 DUP5 SUB SLT ISZERO PUSH2 0x3DF3 JUMPI PUSH1 0x0 DUP1 REVERT JUMPDEST PUSH2 0x281D DUP3 PUSH2 0x3DCC JUMP JUMPDEST PUSH1 0x0 PUSH8 0xFFFFFFFFFFFFFFFF DUP3 GT ISZERO PUSH2 0x3E16 JUMPI PUSH2 0x3E16 PUSH2 0x366A JUMP JUMPDEST POP PUSH1 0x5 SHL PUSH1 0x20 ADD SWAP1 JUMP JUMPDEST PUSH1 0x0 DUP3 PUSH1 0x1F DUP4 ADD SLT PUSH2 0x3E31 JUMPI PUSH1 0x0 DUP1 REVERT JUMPDEST DUP2 MLOAD PUSH1 0x20 PUSH2 0x3E41 PUSH2 0x3711 DUP4 PUSH2 0x3DFC JUMP JUMPDEST DUP3 DUP2 MSTORE PUSH1 0x5 SWAP3 SWAP1 SWAP3 SHL DUP5 ADD DUP2 ADD SWAP2 DUP2 DUP2 ADD SWAP1 DUP7 DUP5 GT ISZERO PUSH2 0x3E60 JUMPI PUSH1 0x0 DUP1 REVERT JUMPDEST DUP3 DUP7 ADD JUMPDEST DUP5 DUP2 LT ISZERO PUSH2 0x14D5 JUMPI DUP1 MLOAD DUP4 MSTORE SWAP2 DUP4 ADD SWAP2 DUP4 ADD PUSH2 0x3E64 JUMP JUMPDEST PUSH1 0x0 PUSH2 0x3E89 PUSH2 0x3711 DUP5 PUSH2 0x36CA JUMP JUMPDEST SWAP1 POP DUP3 DUP2 MSTORE DUP4 DUP4 DUP4 ADD GT ISZERO PUSH2 0x3E9D JUMPI PUSH1 0x0 DUP1 REVERT JUMPDEST PUSH2 0x281D DUP4 PUSH1 0x20 DUP4 ADD DUP5 PUSH2 0x38A2 JUMP JUMPDEST PUSH1 0x0 DUP3 PUSH1 0x1F DUP4 ADD SLT PUSH2 0x3EBC JUMPI PUSH1 0x0 DUP1 REVERT JUMPDEST DUP2 MLOAD PUSH1 0x20 PUSH2 0x3ECC PUSH2 0x3711 DUP4 PUSH2 0x3DFC JUMP JUMPDEST DUP3 DUP2 MSTORE PUSH1 0x5 SWAP3 SWAP1 SWAP3 SHL DUP5 ADD DUP2 ADD SWAP2 DUP2 DUP2 ADD SWAP1 DUP7 DUP5 GT ISZERO PUSH2 0x3EEB JUMPI PUSH1 0x0 DUP1 REVERT JUMPDEST DUP3 DUP7 ADD JUMPDEST DUP5 DUP2 LT ISZERO PUSH2 0x14D5 JUMPI DUP1 MLOAD PUSH8 0xFFFFFFFFFFFFFFFF DUP2 GT ISZERO PUSH2 0x3F0F JUMPI PUSH1 0x0 DUP1 DUP2 REVERT JUMPDEST DUP8 ADD PUSH1 0x3F DUP2 ADD DUP10 SGT PUSH2 0x3F21 JUMPI PUSH1 0x0 DUP1 DUP2 REVERT JUMPDEST PUSH2 0x3F32 DUP10 DUP7 DUP4 ADD MLOAD PUSH1 0x40 DUP5 ADD PUSH2 0x3E7B JUMP JUMPDEST DUP5 MSTORE POP SWAP2 DUP4 ADD SWAP2 DUP4 ADD PUSH2 0x3EEF JUMP JUMPDEST PUSH1 0x0 DUP3 PUSH1 0x1F DUP4 ADD SLT PUSH2 0x3F51 JUMPI PUSH1 0x0 DUP1 REVERT JUMPDEST PUSH2 0x281D DUP4 DUP4 MLOAD PUSH1 0x20 DUP6 ADD PUSH2 0x3E7B JUMP JUMPDEST PUSH1 0x0 DUP3 PUSH1 0x1F DUP4 ADD SLT PUSH2 0x3F71 JUMPI PUSH1 0x0 DUP1 REVERT JUMPDEST DUP2 MLOAD PUSH1 0x20 PUSH2 0x3F81 PUSH2 0x3711 DUP4 PUSH2 0x3DFC JUMP JUMPDEST DUP3 DUP2 MSTORE PUSH1 0x5 SWAP3 SWAP1 SWAP3 SHL DUP5 ADD DUP2 ADD SWAP2 DUP2 DUP2 ADD SWAP1 DUP7 DUP5 GT ISZERO PUSH2 0x3FA0 JUMPI PUSH1 0x0 DUP1 REVERT JUMPDEST DUP3 DUP7 ADD JUMPDEST DUP5 DUP2 LT ISZERO PUSH2 0x14D5 JUMPI DUP1 MLOAD PUSH8 0xFFFFFFFFFFFFFFFF DUP2 GT ISZERO PUSH2 0x3FC4 JUMPI PUSH1 0x0 DUP1 DUP2 REVERT JUMPDEST PUSH2 0x3FD2 DUP10 DUP7 DUP4 DUP12 ADD ADD PUSH2 0x3F40 JUMP JUMPDEST DUP5 MSTORE POP SWAP2 DUP4 ADD SWAP2 DUP4 ADD PUSH2 0x3FA4 JUMP JUMPDEST PUSH1 0x0 DUP1 PUSH1 0x0 DUP1 PUSH1 0x80 DUP6 DUP8 SUB SLT ISZERO PUSH2 0x3FF6 JUMPI PUSH1 0x0 DUP1 REVERT JUMPDEST DUP5 MLOAD SWAP4 POP PUSH1 0x20 DUP6 ADD MLOAD PUSH8 0xFFFFFFFFFFFFFFFF DUP1 DUP3 GT ISZERO PUSH2 0x4015 JUMPI PUSH1 0x0 DUP1 REVERT JUMPDEST PUSH2 0x4021 DUP9 DUP4 DUP10 ADD PUSH2 0x3E20 JUMP JUMPDEST SWAP5 POP PUSH1 0x40 DUP8 ADD MLOAD SWAP2 POP DUP1 DUP3 GT ISZERO PUSH2 0x4037 JUMPI PUSH1 0x0 DUP1 REVERT JUMPDEST PUSH2 0x4043 DUP9 DUP4 DUP10 ADD PUSH2 0x3EAB JUMP JUMPDEST SWAP4 POP PUSH1 0x60 DUP8 ADD MLOAD SWAP2 POP DUP1 DUP3 GT ISZERO PUSH2 0x4059 JUMPI PUSH1 0x0 DUP1 REVERT JUMPDEST POP PUSH2 0x4066 DUP8 DUP3 DUP9 ADD PUSH2 0x3F60 JUMP JUMPDEST SWAP2 POP POP SWAP3 SWAP6 SWAP2 SWAP5 POP SWAP3 POP JUMP JUMPDEST PUSH32 0x4E487B7100000000000000000000000000000000000000000000000000000000 PUSH1 0x0 MSTORE PUSH1 0x32 PUSH1 0x4 MSTORE PUSH1 0x24 PUSH1 0x0 REVERT JUMPDEST PUSH1 0x0 DUP3 MLOAD PUSH2 0x40B3 DUP2 DUP5 PUSH1 0x20 DUP8 ADD PUSH2 0x38A2 JUMP JUMPDEST SWAP2 SWAP1 SWAP2 ADD SWAP3 SWAP2 POP POP JUMP JUMPDEST PUSH1 0x40 DUP2 MSTORE PUSH1 0x0 PUSH2 0x40D0 PUSH1 0x40 DUP4 ADD DUP6 PUSH2 0x38CE JUMP JUMPDEST SWAP1 POP DUP3 PUSH1 0x20 DUP4 ADD MSTORE SWAP4 SWAP3 POP POP POP JUMP JUMPDEST PUSH32 0x4E487B7100000000000000000000000000000000000000000000000000000000 PUSH1 0x0 MSTORE PUSH1 0x11 PUSH1 0x4 MSTORE PUSH1 0x24 PUSH1 0x0 REVERT JUMPDEST PUSH1 0x0 PUSH32 0xFFFFFFFFFFFFFFFFFFFFFFFFFFFFFFFFFFFFFFFFFFFFFFFFFFFFFFFFFFFFFFFF DUP3 EQ ISZERO PUSH2 0x4140 JUMPI PUSH2 0x4140 PUSH2 0x40DF JUMP JUMPDEST POP PUSH1 0x1 ADD SWAP1 JUMP JUMPDEST DUP1 CALLDATALOAD PUSH2 0x3DDC DUP2 PUSH2 0x390D JUMP JUMPDEST PUSH1 0x0 DUP1 PUSH1 0x0 PUSH1 0x60 DUP5 DUP7 SUB SLT ISZERO PUSH2 0x4167 JUMPI PUSH1 0x0 DUP1 REVERT JUMPDEST DUP4 CALLDATALOAD PUSH8 0xFFFFFFFFFFFFFFFF DUP2 GT ISZERO PUSH2 0x417E JUMPI PUSH1 0x0 DUP1 REVERT JUMPDEST PUSH2 0x418A DUP7 DUP3 DUP8 ADD PUSH2 0x36F2 JUMP JUMPDEST SWAP4 POP POP PUSH1 0x20 DUP5 ADD CALLDATALOAD PUSH2 0x419B DUP2 PUSH2 0x390D JUMP JUMPDEST SWAP3 SWAP6 SWAP3 SWAP5 POP POP POP PUSH1 0x40 SWAP2 SWAP1 SWAP2 ADD CALLDATALOAD SWAP1 JUMP JUMPDEST DUP2 DUP4 DUP3 CALLDATACOPY PUSH1 0x0 SWAP2 ADD SWAP1 DUP2 MSTORE SWAP2 SWAP1 POP JUMP JUMPDEST DUP2 DUP4 MSTORE DUP2 DUP2 PUSH1 0x20 DUP6 ADD CALLDATACOPY POP PUSH1 0x0 PUSH1 0x20 DUP3 DUP5 ADD ADD MSTORE PUSH1 0x0 PUSH1 0x20 PUSH1 0x1F NOT PUSH1 0x1F DUP5 ADD AND DUP5 ADD ADD SWAP1 POP SWAP3 SWAP2 POP POP JUMP JUMPDEST PUSH1 0x60 DUP2 MSTORE PUSH1 0x0 PUSH2 0x41FB PUSH1 0x60 DUP4 ADD DUP9 DUP11 PUSH2 0x41BC JUMP JUMPDEST DUP3 DUP2 SUB PUSH1 0x20 DUP5 ADD MSTORE PUSH2 0x420E DUP2 DUP8 DUP10 PUSH2 0x41BC JUMP JUMPDEST SWAP1 POP DUP3 DUP2 SUB PUSH1 0x40 DUP5 ADD MSTORE PUSH2 0x4223 DUP2 DUP6 DUP8 PUSH2 0x41BC JUMP JUMPDEST SWAP10 SWAP9 POP POP POP POP POP POP POP POP POP JUMP JUMPDEST PUSH1 0x0 DUP3 PUSH2 0x4266 JUMPI PUSH32 0x4E487B7100000000000000000000000000000000000000000000000000000000 PUSH1 0x0 MSTORE PUSH1 0x12 PUSH1 0x4 MSTORE PUSH1 0x24 PUSH1 0x0 REVERT JUMPDEST POP DIV SWAP1 JUMP JUMPDEST PUSH1 0x80 DUP2 MSTORE PUSH1 0x0 PUSH2 0x427F PUSH1 0x80 DUP4 ADD DUP10 DUP12 PUSH2 0x41BC JUMP JUMPDEST DUP3 DUP2 SUB PUSH1 0x20 DUP5 ADD MSTORE PUSH2 0x4292 DUP2 DUP9 DUP11 PUSH2 0x41BC JUMP JUMPDEST SWAP1 POP DUP3 DUP2 SUB PUSH1 0x40 DUP5 ADD MSTORE PUSH2 0x42A7 DUP2 DUP7 DUP9 PUSH2 0x41BC JUMP JUMPDEST SWAP2 POP POP DUP3 PUSH1 0x60 DUP4 ADD MSTORE SWAP9 SWAP8 POP POP POP POP POP POP POP POP JUMP JUMPDEST PUSH1 0x0 DUP1 PUSH1 0x40 DUP4 DUP6 SUB SLT ISZERO PUSH2 0x42CF JUMPI PUSH1 0x0 DUP1 REVERT JUMPDEST DUP3 CALLDATALOAD PUSH8 0xFFFFFFFFFFFFFFFF DUP2 GT ISZERO PUSH2 0x42E6 JUMPI PUSH1 0x0 DUP1 REVERT JUMPDEST PUSH2 0x42F2 DUP6 DUP3 DUP7 ADD PUSH2 0x36F2 JUMP JUMPDEST SWAP6 PUSH1 0x20 SWAP5 SWAP1 SWAP5 ADD CALLDATALOAD SWAP5 POP POP POP POP JUMP JUMPDEST PUSH32 0x4E487B7100000000000000000000000000000000000000000000000000000000 PUSH1 0x0 MSTORE PUSH1 0x21 PUSH1 0x4 MSTORE PUSH1 0x24 PUSH1 0x0 REVERT JUMPDEST PUSH1 0x0 PUSH1 0x20 DUP3 DUP5 SUB SLT ISZERO PUSH2 0x4342 JUMPI PUSH1 0x0 DUP1 REVERT JUMPDEST POP MLOAD SWAP2 SWAP1 POP JUMP JUMPDEST PUSH1 0x1 PUSH1 0x1 PUSH1 0xA0 SHL SUB DUP4 AND DUP2 MSTORE PUSH1 0x40 PUSH1 0x20 DUP3 ADD MSTORE PUSH1 0x0 PUSH2 0x3006 PUSH1 0x40 DUP4 ADD DUP5 PUSH2 0x38CE JUMP JUMPDEST PUSH1 0x0 DUP1 PUSH1 0x40 DUP4 DUP6 SUB SLT ISZERO PUSH2 0x437E JUMPI PUSH1 0x0 DUP1 REVERT JUMPDEST PUSH2 0x4387 DUP4 PUSH2 0x3DCC JUMP JUMPDEST SWAP2 POP PUSH1 0x20 DUP4 ADD MLOAD PUSH8 0xFFFFFFFFFFFFFFFF DUP2 GT ISZERO PUSH2 0x43A3 JUMPI PUSH1 0x0 DUP1 REVERT JUMPDEST PUSH2 0x3DA9 DUP6 DUP3 DUP7 ADD PUSH2 0x3F40 JUMP JUMPDEST PUSH1 0x0 DUP1 PUSH1 0x0 DUP1 PUSH1 0x0 DUP1 PUSH1 0x0 DUP1 PUSH2 0x100 DUP10 DUP12 SUB SLT ISZERO PUSH2 0x43CC JUMPI PUSH1 0x0 DUP1 REVERT JUMPDEST DUP9 CALLDATALOAD PUSH8 0xFFFFFFFFFFFFFFFF DUP1 DUP3 GT ISZERO PUSH2 0x43E4 JUMPI PUSH1 0x0 DUP1 REVERT JUMPDEST PUSH2 0x43F0 DUP13 DUP4 DUP14 ADD PUSH2 0x36F2 JUMP JUMPDEST SWAP10 POP PUSH1 0x20 DUP12 ADD CALLDATALOAD SWAP2 POP DUP1 DUP3 GT ISZERO PUSH2 0x4406 JUMPI PUSH1 0x0 DUP1 REVERT JUMPDEST PUSH2 0x4412 DUP13 DUP4 DUP14 ADD PUSH2 0x36F2 JUMP JUMPDEST SWAP9 POP PUSH2 0x4420 PUSH1 0x40 DUP13 ADD PUSH2 0x4147 JUMP JUMPDEST SWAP8 POP PUSH1 0x60 DUP12 ADD CALLDATALOAD SWAP7 POP PUSH1 0x80 DUP12 ADD CALLDATALOAD SWAP2 POP DUP1 DUP3 GT ISZERO PUSH2 0x443D JUMPI PUSH1 0x0 DUP1 REVERT JUMPDEST POP PUSH2 0x444A DUP12 DUP3 DUP13 ADD PUSH2 0x36F2 JUMP JUMPDEST SWAP9 SWAP12 SWAP8 SWAP11 POP SWAP6 SWAP9 SWAP5 SWAP8 SWAP7 PUSH1 0xA0 DUP7 ADD CALLDATALOAD SWAP7 POP PUSH1 0xC0 DUP7 ADD CALLDATALOAD SWAP6 PUSH1 0xE0 ADD CALLDATALOAD SWAP5 POP SWAP3 POP POP POP JUMP JUMPDEST PUSH1 0xC0 DUP2 MSTORE PUSH1 0x0 PUSH2 0x4480 PUSH1 0xC0 DUP4 ADD DUP10 PUSH2 0x38CE JUMP JUMPDEST DUP3 DUP2 SUB PUSH1 0x20 DUP5 ADD MSTORE PUSH2 0x4492 DUP2 DUP10 PUSH2 0x38CE JUMP JUMPDEST SWAP1 POP DUP3 DUP2 SUB PUSH1 0x40 DUP5 ADD MSTORE PUSH2 0x44A6 DUP2 DUP9 PUSH2 0x38CE JUMP JUMPDEST PUSH1 0x60 DUP5 ADD SWAP7 SWAP1 SWAP7 MSTORE POP POP PUSH1 0x80 DUP2 ADD SWAP3 SWAP1 SWAP3 MSTORE PUSH1 0xA0 SWAP1 SWAP2 ADD MSTORE SWAP4 SWAP3 POP POP POP JUMP JUMPDEST PUSH1 0x0 DUP1 PUSH1 0x0 DUP1 PUSH1 0x0 DUP1 PUSH1 0xC0 DUP8 DUP10 SUB SLT ISZERO PUSH2 0x44DE JUMPI PUSH1 0x0 DUP1 REVERT JUMPDEST DUP7 CALLDATALOAD PUSH8 0xFFFFFFFFFFFFFFFF DUP1 DUP3 GT ISZERO PUSH2 0x44F6 JUMPI PUSH1 0x0 DUP1 REVERT JUMPDEST PUSH2 0x4502 DUP11 DUP4 DUP12 ADD PUSH2 0x36F2 JUMP JUMPDEST SWAP8 POP PUSH1 0x20 DUP10 ADD CALLDATALOAD SWAP2 POP DUP1 DUP3 GT ISZERO PUSH2 0x4518 JUMPI PUSH1 0x0 DUP1 REVERT JUMPDEST POP PUSH2 0x4525 DUP10 DUP3 DUP11 ADD PUSH2 0x36F2 JUMP JUMPDEST SWAP6 POP POP PUSH1 0x40 DUP8 ADD CALLDATALOAD PUSH1 0xFF DUP2 AND DUP2 EQ PUSH2 0x453C JUMPI PUSH1 0x0 DUP1 REVERT JUMPDEST SWAP4 POP PUSH1 0x60 DUP8 ADD CALLDATALOAD SWAP3 POP PUSH1 0x80 DUP8 ADD CALLDATALOAD PUSH2 0x4553 DUP2 PUSH2 0x390D JUMP JUMPDEST DUP1 SWAP3 POP POP PUSH1 0xA0 DUP8 ADD CALLDATALOAD SWAP1 POP SWAP3 SWAP6 POP SWAP3 SWAP6 POP SWAP3 SWAP6 JUMP JUMPDEST PUSH1 0xA0 DUP2 MSTORE PUSH1 0x0 PUSH2 0x457B PUSH1 0xA0 DUP4 ADD DUP9 PUSH2 0x38CE JUMP JUMPDEST DUP3 DUP2 SUB PUSH1 0x20 DUP5 ADD MSTORE PUSH2 0x458D DUP2 DUP9 PUSH2 0x38CE JUMP JUMPDEST PUSH1 0xFF SWAP7 SWAP1 SWAP7 AND PUSH1 0x40 DUP5 ADD MSTORE POP POP PUSH1 0x60 DUP2 ADD SWAP3 SWAP1 SWAP3 MSTORE PUSH1 0x80 SWAP1 SWAP2 ADD MSTORE SWAP3 SWAP2 POP POP JUMP JUMPDEST PUSH1 0x0 PUSH1 0x20 DUP3 DUP5 SUB SLT ISZERO PUSH2 0x45C0 JUMPI PUSH1 0x0 DUP1 REVERT JUMPDEST DUP2 MLOAD PUSH2 0x281D DUP2 PUSH2 0x390D JUMP JUMPDEST PUSH1 0x40 DUP2 MSTORE PUSH1 0x0 PUSH2 0x45DE PUSH1 0x40 DUP4 ADD DUP6 PUSH2 0x38CE JUMP JUMPDEST SWAP1 POP PUSH1 0x1 PUSH1 0x1 PUSH1 0xA0 SHL SUB DUP4 AND PUSH1 0x20 DUP4 ADD MSTORE SWAP4 SWAP3 POP POP POP JUMP JUMPDEST PUSH1 0x20 DUP2 MSTORE PUSH1 0x0 PUSH2 0x3006 PUSH1 0x20 DUP4 ADD DUP5 DUP7 PUSH2 0x41BC JUMP JUMPDEST PUSH1 0x1 DUP2 DUP2 SHR SWAP1 DUP3 AND DUP1 PUSH2 0x461E JUMPI PUSH1 0x7F DUP3 AND SWAP2 POP JUMPDEST PUSH1 0x20 DUP3 LT DUP2 EQ ISZERO PUSH2 0x4658 JUMPI PUSH32 0x4E487B7100000000000000000000000000000000000000000000000000000000 PUSH1 0x0 MSTORE PUSH1 0x22 PUSH1 0x4 MSTORE PUSH1 0x24 PUSH1 0x0 REVERT JUMPDEST POP SWAP2 SWAP1 POP JUMP JUMPDEST PUSH1 0x0 DUP1 PUSH1 0x0 PUSH1 0x60 DUP5 DUP7 SUB SLT ISZERO PUSH2 0x4673 JUMPI PUSH1 0x0 DUP1 REVERT JUMPDEST DUP4 CALLDATALOAD PUSH8 0xFFFFFFFFFFFFFFFF DUP1 DUP3 GT ISZERO PUSH2 0x468B JUMPI PUSH1 0x0 DUP1 REVERT JUMPDEST DUP2 DUP7 ADD SWAP2 POP DUP7 PUSH1 0x1F DUP4 ADD SLT PUSH2 0x469F JUMPI PUSH1 0x0 DUP1 REVERT JUMPDEST DUP2 CALLDATALOAD PUSH1 0x20 PUSH2 0x46AF PUSH2 0x3711 DUP4 PUSH2 0x3DFC JUMP JUMPDEST DUP3 DUP2 MSTORE PUSH1 0x5 SWAP3 SWAP1 SWAP3 SHL DUP5 ADD DUP2 ADD SWAP2 DUP2 DUP2 ADD SWAP1 DUP11 DUP5 GT ISZERO PUSH2 0x46CE JUMPI PUSH1 0x0 DUP1 REVERT JUMPDEST SWAP5 DUP3 ADD SWAP5 JUMPDEST DUP4 DUP7 LT ISZERO PUSH2 0x46F5 JUMPI DUP6 CALLDATALOAD PUSH2 0x46E6 DUP2 PUSH2 0x390D JUMP JUMPDEST DUP3 MSTORE SWAP5 DUP3 ADD SWAP5 SWAP1 DUP3 ADD SWAP1 PUSH2 0x46D3 JUMP JUMPDEST SWAP8 POP POP DUP8 ADD CALLDATALOAD SWAP5 POP POP PUSH1 0x40 DUP7 ADD CALLDATALOAD SWAP2 POP DUP1 DUP3 GT ISZERO PUSH2 0x4712 JUMPI PUSH1 0x0 DUP1 REVERT JUMPDEST POP PUSH2 0x471F DUP7 DUP3 DUP8 ADD PUSH2 0x36F2 JUMP JUMPDEST SWAP2 POP POP SWAP3 POP SWAP3 POP SWAP3 JUMP JUMPDEST PUSH1 0x0 DUP3 NOT DUP3 GT ISZERO PUSH2 0x473C JUMPI PUSH2 0x473C PUSH2 0x40DF JUMP JUMPDEST POP ADD SWAP1 JUMP JUMPDEST PUSH1 0xA0 DUP2 MSTORE PUSH1 0x0 PUSH2 0x4755 PUSH1 0xA0 DUP4 ADD DUP12 DUP14 PUSH2 0x41BC JUMP JUMPDEST DUP3 DUP2 SUB PUSH1 0x20 DUP5 ADD MSTORE PUSH2 0x4768 DUP2 DUP11 DUP13 PUSH2 0x41BC JUMP JUMPDEST SWAP1 POP DUP3 DUP2 SUB PUSH1 0x40 DUP5 ADD MSTORE PUSH2 0x477D DUP2 DUP9 DUP11 PUSH2 0x41BC JUMP JUMPDEST SWAP1 POP DUP3 DUP2 SUB PUSH1 0x60 DUP5 ADD MSTORE PUSH2 0x4792 DUP2 DUP7 DUP9 PUSH2 0x41BC JUMP JUMPDEST SWAP2 POP POP DUP3 PUSH1 0x80 DUP4 ADD MSTORE SWAP11 SWAP10 POP POP POP POP POP POP POP POP POP POP JUMP JUMPDEST PUSH1 0x0 DUP1 DUP4 CALLDATALOAD PUSH32 0xFFFFFFFFFFFFFFFFFFFFFFFFFFFFFFFFFFFFFFFFFFFFFFFFFFFFFFFFFFFFFFE1 DUP5 CALLDATASIZE SUB ADD DUP2 SLT PUSH2 0x47DE JUMPI PUSH1 0x0 DUP1 REVERT JUMPDEST DUP4 ADD DUP1 CALLDATALOAD SWAP2 POP PUSH8 0xFFFFFFFFFFFFFFFF DUP3 GT ISZERO PUSH2 0x47F9 JUMPI PUSH1 0x0 DUP1 REVERT JUMPDEST PUSH1 0x20 ADD SWAP2 POP CALLDATASIZE DUP2 SWAP1 SUB DUP3 SGT ISZERO PUSH2 0x3420 JUMPI PUSH1 0x0 DUP1 REVERT JUMPDEST PUSH1 0x0 DUP1 PUSH1 0x0 DUP1 PUSH1 0x0 PUSH1 0xA0 DUP7 DUP9 SUB SLT ISZERO PUSH2 0x4826 JUMPI PUSH1 0x0 DUP1 REVERT JUMPDEST DUP6 MLOAD SWAP5 POP PUSH1 0x20 DUP7 ADD MLOAD SWAP4 POP PUSH1 0x40 DUP7 ADD MLOAD PUSH8 0xFFFFFFFFFFFFFFFF DUP1 DUP3 GT ISZERO PUSH2 0x484C JUMPI PUSH1 0x0 DUP1 REVERT JUMPDEST PUSH2 0x4858 DUP10 DUP4 DUP11 ADD PUSH2 0x3E20 JUMP JUMPDEST SWAP5 POP PUSH1 0x60 DUP9 ADD MLOAD SWAP2 POP DUP1 DUP3 GT ISZERO PUSH2 0x486E JUMPI PUSH1 0x0 DUP1 REVERT JUMPDEST PUSH2 0x487A DUP10 DUP4 DUP11 ADD PUSH2 0x3EAB JUMP JUMPDEST SWAP4 POP PUSH1 0x80 DUP9 ADD MLOAD SWAP2 POP DUP1 DUP3 GT ISZERO PUSH2 0x4890 JUMPI PUSH1 0x0 DUP1 REVERT JUMPDEST POP PUSH2 0x489D DUP9 DUP3 DUP10 ADD PUSH2 0x3F60 JUMP JUMPDEST SWAP2 POP POP SWAP3 SWAP6 POP SWAP3 SWAP6 SWAP1 SWAP4 POP JUMP JUMPDEST PUSH1 0x0 DUP1 PUSH1 0x0 DUP1 PUSH1 0x0 DUP1 PUSH1 0xC0 DUP8 DUP10 SUB SLT ISZERO PUSH2 0x48C3 JUMPI PUSH1 0x0 DUP1 REVERT JUMPDEST DUP7 CALLDATALOAD PUSH8 0xFFFFFFFFFFFFFFFF DUP1 DUP3 GT ISZERO PUSH2 0x48DB JUMPI PUSH1 0x0 DUP1 REVERT JUMPDEST PUSH2 0x48E7 DUP11 DUP4 DUP12 ADD PUSH2 0x36F2 JUMP JUMPDEST SWAP8 POP PUSH1 0x20 DUP10 ADD CALLDATALOAD SWAP2 POP DUP1 DUP3 GT ISZERO PUSH2 0x48FD JUMPI PUSH1 0x0 DUP1 REVERT JUMPDEST POP PUSH2 0x490A DUP10 DUP3 DUP11 ADD PUSH2 0x36F2 JUMP JUMPDEST SWAP6 POP POP PUSH1 0x40 DUP8 ADD CALLDATALOAD PUSH2 0x491B DUP2 PUSH2 0x390D JUMP JUMPDEST SWAP6 SWAP9 SWAP5 SWAP8 POP SWAP5 SWAP6 PUSH1 0x60 DUP2 ADD CALLDATALOAD SWAP6 POP PUSH1 0x80 DUP2 ADD CALLDATALOAD SWAP5 PUSH1 0xA0 SWAP1 SWAP2 ADD CALLDATALOAD SWAP4 POP SWAP2 POP POP JUMP JUMPDEST PUSH1 0x80 DUP2 MSTORE PUSH1 0x0 PUSH2 0x494F PUSH1 0x80 DUP4 ADD DUP8 PUSH2 0x38CE JUMP JUMPDEST DUP3 DUP2 SUB PUSH1 0x20 DUP5 ADD MSTORE PUSH2 0x4961 DUP2 DUP8 PUSH2 0x38CE JUMP JUMPDEST PUSH1 0x40 DUP5 ADD SWAP6 SWAP1 SWAP6 MSTORE POP POP PUSH1 0x60 ADD MSTORE SWAP3 SWAP2 POP POP JUMP JUMPDEST PUSH1 0x0 PUSH2 0x100 DUP11 DUP4 MSTORE DUP10 PUSH1 0x20 DUP5 ADD MSTORE DUP1 PUSH1 0x40 DUP5 ADD MSTORE PUSH2 0x4995 DUP2 DUP5 ADD DUP11 PUSH2 0x38CE JUMP JUMPDEST SWAP1 POP DUP3 DUP2 SUB PUSH1 0x60 DUP5 ADD MSTORE PUSH2 0x49A9 DUP2 DUP10 PUSH2 0x38CE JUMP JUMPDEST SWAP1 POP PUSH1 0x1 PUSH1 0x1 PUSH1 0xA0 SHL SUB DUP8 AND PUSH1 0x80 DUP5 ADD MSTORE DUP6 PUSH1 0xA0 DUP5 ADD MSTORE DUP3 DUP2 SUB PUSH1 0xC0 DUP5 ADD MSTORE PUSH2 0x49D2 DUP2 DUP7 PUSH2 0x38CE JUMP JUMPDEST SWAP2 POP POP DUP3 PUSH1 0xE0 DUP4 ADD MSTORE SWAP10 SWAP9 POP POP POP POP POP POP POP POP POP JUMP JUMPDEST DUP4 DUP2 MSTORE PUSH1 0x0 DUP4 MLOAD PUSH2 0x4A00 DUP2 PUSH1 0x20 DUP6 ADD PUSH1 0x20 DUP9 ADD PUSH2 0x38A2 JUMP JUMPDEST PUSH1 0x20 SWAP3 ADD SWAP2 DUP3 ADD SWAP3 SWAP1 SWAP3 MSTORE PUSH1 0x40 ADD SWAP4 SWAP3 POP POP POP JUMP JUMPDEST DUP3 DUP2 MSTORE PUSH1 0x0 DUP3 MLOAD PUSH2 0x4A2D DUP2 PUSH1 0x20 DUP6 ADD PUSH1 0x20 DUP8 ADD PUSH2 0x38A2 JUMP JUMPDEST SWAP2 SWAP1 SWAP2 ADD PUSH1 0x20 ADD SWAP4 SWAP3 POP POP POP JUMP JUMPDEST DUP7 DUP2 MSTORE DUP6 PUSH1 0x20 DUP3 ADD MSTORE PUSH1 0xC0 PUSH1 0x40 DUP3 ADD MSTORE PUSH1 0x0 PUSH2 0x4A5A PUSH1 0xC0 DUP4 ADD DUP8 PUSH2 0x38CE JUMP JUMPDEST DUP3 DUP2 SUB PUSH1 0x60 DUP5 ADD MSTORE PUSH2 0x4A6C DUP2 DUP8 PUSH2 0x38CE JUMP JUMPDEST PUSH1 0x1 PUSH1 0x1 PUSH1 0xA0 SHL SUB SWAP6 SWAP1 SWAP6 AND PUSH1 0x80 DUP5 ADD MSTORE POP POP PUSH1 0xA0 ADD MSTORE SWAP5 SWAP4 POP POP POP POP JUMP INVALID PUSH1 0x80 PUSH1 0x40 MSTORE PUSH1 0x1 PUSH1 0x0 SSTORE CALLVALUE DUP1 ISZERO PUSH2 0x15 JUMPI PUSH1 0x0 DUP1 REVERT JUMPDEST POP PUSH2 0x374 DUP1 PUSH2 0x25 PUSH1 0x0 CODECOPY PUSH1 0x0 RETURN INVALID PUSH1 0x80 PUSH1 0x40 MSTORE CALLVALUE DUP1 ISZERO PUSH2 0x10 JUMPI PUSH1 0x0 DUP1 REVERT JUMPDEST POP PUSH1 0x4 CALLDATASIZE LT PUSH2 0x35 JUMPI PUSH1 0x0 CALLDATALOAD PUSH1 0xE0 SHR DUP1 PUSH3 0xF55D9D EQ PUSH2 0x3A JUMPI DUP1 PUSH4 0x1CFF79CD EQ PUSH2 0x4F JUMPI JUMPDEST PUSH1 0x0 DUP1 REVERT JUMPDEST PUSH2 0x4D PUSH2 0x48 CALLDATASIZE PUSH1 0x4 PUSH2 0x20C JUMP JUMPDEST PUSH2 0x79 JUMP JUMPDEST STOP JUMPDEST PUSH2 0x62 PUSH2 0x5D CALLDATASIZE PUSH1 0x4 PUSH2 0x22E JUMP JUMPDEST PUSH2 0xD4 JUMP JUMPDEST PUSH1 0x40 MLOAD PUSH2 0x70 SWAP3 SWAP2 SWAP1 PUSH2 0x2B1 JUMP JUMPDEST PUSH1 0x40 MLOAD DUP1 SWAP2 SUB SWAP1 RETURN JUMPDEST PUSH1 0x2 PUSH1 0x0 SLOAD EQ ISZERO PUSH2 0xB6 JUMPI PUSH1 0x40 MLOAD PUSH32 0xCAA30F5500000000000000000000000000000000000000000000000000000000 DUP2 MSTORE PUSH1 0x4 ADD PUSH1 0x40 MLOAD DUP1 SWAP2 SUB SWAP1 REVERT JUMPDEST PUSH1 0x2 PUSH1 0x0 SSTORE PUSH20 0xFFFFFFFFFFFFFFFFFFFFFFFFFFFFFFFFFFFFFFFF DUP2 AND SELFDESTRUCT JUMPDEST PUSH1 0x0 PUSH1 0x60 PUSH1 0x2 PUSH1 0x0 SLOAD EQ ISZERO PUSH2 0x115 JUMPI PUSH1 0x40 MLOAD PUSH32 0xCAA30F5500000000000000000000000000000000000000000000000000000000 DUP2 MSTORE PUSH1 0x4 ADD PUSH1 0x40 MLOAD DUP1 SWAP2 SUB SWAP1 REVERT JUMPDEST PUSH1 0x2 PUSH1 0x0 SSTORE PUSH20 0xFFFFFFFFFFFFFFFFFFFFFFFFFFFFFFFFFFFFFFFF DUP6 AND EXTCODESIZE PUSH2 0x168 JUMPI PUSH1 0x40 MLOAD PUSH32 0x6F7C43F100000000000000000000000000000000000000000000000000000000 DUP2 MSTORE PUSH1 0x4 ADD PUSH1 0x40 MLOAD DUP1 SWAP2 SUB SWAP1 REVERT JUMPDEST DUP5 PUSH20 0xFFFFFFFFFFFFFFFFFFFFFFFFFFFFFFFFFFFFFFFF AND DUP5 DUP5 PUSH1 0x40 MLOAD PUSH2 0x18F SWAP3 SWAP2 SWAP1 PUSH2 0x32E JUMP JUMPDEST PUSH1 0x0 PUSH1 0x40 MLOAD DUP1 DUP4 SUB DUP2 PUSH1 0x0 DUP7 GAS CALL SWAP2 POP POP RETURNDATASIZE DUP1 PUSH1 0x0 DUP2 EQ PUSH2 0x1CC JUMPI PUSH1 0x40 MLOAD SWAP2 POP PUSH1 0x1F NOT PUSH1 0x3F RETURNDATASIZE ADD AND DUP3 ADD PUSH1 0x40 MSTORE RETURNDATASIZE DUP3 MSTORE RETURNDATASIZE PUSH1 0x0 PUSH1 0x20 DUP5 ADD RETURNDATACOPY PUSH2 0x1D1 JUMP JUMPDEST PUSH1 0x60 SWAP2 POP JUMPDEST POP PUSH1 0x1 PUSH1 0x0 SSTORE SWAP1 SWAP7 SWAP1 SWAP6 POP SWAP4 POP POP POP POP JUMP JUMPDEST DUP1 CALLDATALOAD PUSH20 0xFFFFFFFFFFFFFFFFFFFFFFFFFFFFFFFFFFFFFFFF DUP2 AND DUP2 EQ PUSH2 0x207 JUMPI PUSH1 0x0 DUP1 REVERT JUMPDEST SWAP2 SWAP1 POP JUMP JUMPDEST PUSH1 0x0 PUSH1 0x20 DUP3 DUP5 SUB SLT ISZERO PUSH2 0x21E JUMPI PUSH1 0x0 DUP1 REVERT JUMPDEST PUSH2 0x227 DUP3 PUSH2 0x1E3 JUMP JUMPDEST SWAP4 SWAP3 POP POP POP JUMP JUMPDEST PUSH1 0x0 DUP1 PUSH1 0x0 PUSH1 0x40 DUP5 DUP7 SUB SLT ISZERO PUSH2 0x243 JUMPI PUSH1 0x0 DUP1 REVERT JUMPDEST PUSH2 0x24C DUP5 PUSH2 0x1E3 JUMP JUMPDEST SWAP3 POP PUSH1 0x20 DUP5 ADD CALLDATALOAD PUSH8 0xFFFFFFFFFFFFFFFF DUP1 DUP3 GT ISZERO PUSH2 0x269 JUMPI PUSH1 0x0 DUP1 REVERT JUMPDEST DUP2 DUP7 ADD SWAP2 POP DUP7 PUSH1 0x1F DUP4 ADD SLT PUSH2 0x27D JUMPI PUSH1 0x0 DUP1 REVERT JUMPDEST DUP2 CALLDATALOAD DUP2 DUP2 GT ISZERO PUSH2 0x28C JUMPI PUSH1 0x0 DUP1 REVERT JUMPDEST DUP8 PUSH1 0x20 DUP3 DUP6 ADD ADD GT ISZERO PUSH2 0x29E JUMPI PUSH1 0x0 DUP1 REVERT JUMPDEST PUSH1 0x20 DUP4 ADD SWAP5 POP DUP1 SWAP4 POP POP POP POP SWAP3 POP SWAP3 POP SWAP3 JUMP JUMPDEST DUP3 ISZERO ISZERO DUP2 MSTORE PUSH1 0x0 PUSH1 0x20 PUSH1 0x40 DUP2 DUP5 ADD MSTORE DUP4 MLOAD DUP1 PUSH1 0x40 DUP6 ADD MSTORE PUSH1 0x0 JUMPDEST DUP2 DUP2 LT ISZERO PUSH2 0x2E7 JUMPI DUP6 DUP2 ADD DUP4 ADD MLOAD DUP6 DUP3 ADD PUSH1 0x60 ADD MSTORE DUP3 ADD PUSH2 0x2CB JUMP JUMPDEST DUP2 DUP2 GT ISZERO PUSH2 0x2F9 JUMPI PUSH1 0x0 PUSH1 0x60 DUP4 DUP8 ADD ADD MSTORE JUMPDEST POP PUSH1 0x1F ADD PUSH32 0xFFFFFFFFFFFFFFFFFFFFFFFFFFFFFFFFFFFFFFFFFFFFFFFFFFFFFFFFFFFFFFE0 AND SWAP3 SWAP1 SWAP3 ADD PUSH1 0x60 ADD SWAP5 SWAP4 POP POP POP POP JUMP JUMPDEST DUP2 DUP4 DUP3 CALLDATACOPY PUSH1 0x0 SWAP2 ADD SWAP1 DUP2 MSTORE SWAP2 SWAP1 POP JUMP INVALID LOG2 PUSH5 0x6970667358 0x22 SLT KECCAK256 SMOD 0xDB RETURN 0x2A 0x1F 0xD8 SWAP14 SWAP3 SLOAD POP 0xCA 0xC8 EXTCODECOPY 0xEC PUSH7 0xD3A4155C454E51 0xD1 0x26 STOP 0x1F PUSH13 0x4DDC00F70764736F6C63430008 MULMOD STOP CALLER LOG2 PUSH5 0x6970667358 0x22 SLT KECCAK256 0xE8 RETURN CODESIZE 0xCA 0xB8 COINBASE ORIGIN SWAP6 PUSH32 0x59444BC6C6E8F955DDD332E32E60CB7A9C5BFB84CBF14C64736F6C6343000809 STOP CALLER "
    }
  }
}