{
  "abi": [
    {
      "inputs": [
        {
          "internalType": "address",
          "name": "tokenDeployer",
          "type": "address"
        }
      ],
      "stateMutability": "nonpayable",
      "type": "constructor"
    },
    {
      "anonymous": false,
      "inputs": [
        {
          "indexed": true,
          "internalType": "address",
          "name": "account",
          "type": "address"
        }
      ],
      "name": "AccountBlacklisted",
      "type": "event"
    },
    {
      "anonymous": false,
      "inputs": [
        {
          "indexed": true,
          "internalType": "address",
          "name": "account",
          "type": "address"
        }
      ],
      "name": "AccountWhitelisted",
      "type": "event"
    },
    {
      "anonymous": false,
      "inputs": [],
      "name": "AllTokensFrozen",
      "type": "event"
    },
    {
      "anonymous": false,
      "inputs": [],
      "name": "AllTokensUnfrozen",
      "type": "event"
    },
    {
      "anonymous": false,
      "inputs": [
        {
          "indexed": true,
          "internalType": "address",
          "name": "sender",
          "type": "address"
        },
        {
          "indexed": false,
          "internalType": "string",
          "name": "destinationChain",
          "type": "string"
        },
        {
          "indexed": true,
          "internalType": "string",
          "name": "contractAddress",
          "type": "string"
        },
        {
          "indexed": true,
          "internalType": "bytes32",
          "name": "payloadHash",
          "type": "bytes32"
        },
        {
          "indexed": false,
          "internalType": "bytes",
          "name": "payload",
          "type": "bytes"
        }
      ],
      "name": "ContractCall",
      "type": "event"
    },
    {
      "anonymous": false,
      "inputs": [
        {
          "indexed": true,
          "internalType": "bytes32",
          "name": "commandId",
          "type": "bytes32"
        },
        {
          "indexed": false,
          "internalType": "string",
          "name": "sourceChain",
          "type": "string"
        },
        {
          "indexed": false,
          "internalType": "string",
          "name": "sourceAddress",
          "type": "string"
        },
        {
          "indexed": true,
          "internalType": "address",
          "name": "contractAddress",
          "type": "address"
        },
        {
          "indexed": true,
          "internalType": "bytes32",
          "name": "payloadHash",
          "type": "bytes32"
        }
      ],
      "name": "ContractCallApproved",
      "type": "event"
    },
    {
      "anonymous": false,
      "inputs": [
        {
          "indexed": true,
          "internalType": "bytes32",
          "name": "commandId",
          "type": "bytes32"
        },
        {
          "indexed": false,
          "internalType": "string",
          "name": "sourceChain",
          "type": "string"
        },
        {
          "indexed": false,
          "internalType": "string",
          "name": "sourceAddress",
          "type": "string"
        },
        {
          "indexed": true,
          "internalType": "address",
          "name": "contractAddress",
          "type": "address"
        },
        {
          "indexed": true,
          "internalType": "bytes32",
          "name": "payloadHash",
          "type": "bytes32"
        },
        {
          "indexed": false,
          "internalType": "string",
          "name": "symbol",
          "type": "string"
        },
        {
          "indexed": false,
          "internalType": "uint256",
          "name": "amount",
          "type": "uint256"
        }
      ],
      "name": "ContractCallApprovedWithMint",
      "type": "event"
    },
    {
      "anonymous": false,
      "inputs": [
        {
          "indexed": true,
          "internalType": "address",
          "name": "sender",
          "type": "address"
        },
        {
          "indexed": false,
          "internalType": "string",
          "name": "destinationChain",
          "type": "string"
        },
        {
          "indexed": true,
          "internalType": "string",
          "name": "contractAddress",
          "type": "string"
        },
        {
          "indexed": true,
          "internalType": "bytes32",
          "name": "payloadHash",
          "type": "bytes32"
        },
        {
          "indexed": false,
          "internalType": "bytes",
          "name": "payload",
          "type": "bytes"
        },
        {
          "indexed": false,
          "internalType": "string",
          "name": "symbol",
          "type": "string"
        },
        {
          "indexed": false,
          "internalType": "uint256",
          "name": "amount",
          "type": "uint256"
        }
      ],
      "name": "ContractCallWithToken",
      "type": "event"
    },
    {
      "anonymous": false,
      "inputs": [
        {
          "indexed": true,
          "internalType": "bytes32",
          "name": "commandId",
          "type": "bytes32"
        }
      ],
      "name": "Executed",
      "type": "event"
    },
    {
      "anonymous": false,
      "inputs": [
        {
          "indexed": false,
          "internalType": "address[]",
          "name": "preOperators",
          "type": "address[]"
        },
        {
          "indexed": false,
          "internalType": "uint256",
          "name": "prevThreshold",
          "type": "uint256"
        },
        {
          "indexed": false,
          "internalType": "address[]",
          "name": "newOperators",
          "type": "address[]"
        },
        {
          "indexed": false,
          "internalType": "uint256",
          "name": "newThreshold",
          "type": "uint256"
        }
      ],
      "name": "OperatorshipTransferred",
      "type": "event"
    },
    {
      "anonymous": false,
      "inputs": [
        {
          "indexed": false,
          "internalType": "address[]",
          "name": "preOwners",
          "type": "address[]"
        },
        {
          "indexed": false,
          "internalType": "uint256",
          "name": "prevThreshold",
          "type": "uint256"
        },
        {
          "indexed": false,
          "internalType": "address[]",
          "name": "newOwners",
          "type": "address[]"
        },
        {
          "indexed": false,
          "internalType": "uint256",
          "name": "newThreshold",
          "type": "uint256"
        }
      ],
      "name": "OwnershipTransferred",
      "type": "event"
    },
    {
      "anonymous": false,
      "inputs": [
        {
          "indexed": false,
          "internalType": "string",
          "name": "symbol",
          "type": "string"
        },
        {
          "indexed": false,
          "internalType": "address",
          "name": "tokenAddresses",
          "type": "address"
        }
      ],
      "name": "TokenDeployed",
      "type": "event"
    },
    {
      "anonymous": false,
      "inputs": [
        {
          "indexed": true,
          "internalType": "string",
          "name": "symbol",
          "type": "string"
        }
      ],
      "name": "TokenFrozen",
      "type": "event"
    },
    {
      "anonymous": false,
      "inputs": [
        {
          "indexed": true,
          "internalType": "address",
          "name": "sender",
          "type": "address"
        },
        {
          "indexed": false,
          "internalType": "string",
          "name": "destinationChain",
          "type": "string"
        },
        {
          "indexed": true,
          "internalType": "string",
          "name": "destinationAddress",
          "type": "string"
        },
        {
          "indexed": false,
          "internalType": "string",
          "name": "symbol",
          "type": "string"
        },
        {
          "indexed": false,
          "internalType": "uint256",
          "name": "amount",
          "type": "uint256"
        }
      ],
      "name": "TokenSent",
      "type": "event"
    },
    {
      "anonymous": false,
      "inputs": [
        {
          "indexed": true,
          "internalType": "string",
          "name": "symbol",
          "type": "string"
        }
      ],
      "name": "TokenUnfrozen",
      "type": "event"
    },
    {
      "anonymous": false,
      "inputs": [
        {
          "indexed": true,
          "internalType": "address",
          "name": "implementation",
          "type": "address"
        }
      ],
      "name": "Upgraded",
      "type": "event"
    },
    {
      "inputs": [],
      "name": "allTokensFrozen",
      "outputs": [
        {
          "internalType": "bool",
          "name": "",
          "type": "bool"
        }
      ],
      "stateMutability": "view",
      "type": "function"
    },
    {
      "inputs": [
        {
          "internalType": "bytes",
          "name": "params",
          "type": "bytes"
        },
        {
          "internalType": "bytes32",
          "name": "commandId",
          "type": "bytes32"
        }
      ],
      "name": "approveContractCall",
      "outputs": [],
      "stateMutability": "nonpayable",
      "type": "function"
    },
    {
      "inputs": [
        {
          "internalType": "bytes",
          "name": "params",
          "type": "bytes"
        },
        {
          "internalType": "bytes32",
          "name": "commandId",
          "type": "bytes32"
        }
      ],
      "name": "approveContractCallWithMint",
      "outputs": [],
      "stateMutability": "nonpayable",
      "type": "function"
    },
    {
      "inputs": [
        {
          "internalType": "bytes",
          "name": "params",
          "type": "bytes"
        },
        {
          "internalType": "bytes32",
          "name": "",
          "type": "bytes32"
        }
      ],
      "name": "burnToken",
      "outputs": [],
      "stateMutability": "nonpayable",
      "type": "function"
    },
    {
      "inputs": [
        {
          "internalType": "string",
          "name": "destinationChain",
          "type": "string"
        },
        {
          "internalType": "string",
          "name": "contractAddress",
          "type": "string"
        },
        {
          "internalType": "bytes",
          "name": "payload",
          "type": "bytes"
        }
      ],
      "name": "callContract",
      "outputs": [],
      "stateMutability": "nonpayable",
      "type": "function"
    },
    {
      "inputs": [
        {
          "internalType": "string",
          "name": "destinationChain",
          "type": "string"
        },
        {
          "internalType": "string",
          "name": "destinationAddress",
          "type": "string"
        },
        {
          "internalType": "bytes",
          "name": "payload",
          "type": "bytes"
        },
        {
          "internalType": "string",
          "name": "symbol",
          "type": "string"
        },
        {
          "internalType": "uint256",
          "name": "amount",
          "type": "uint256"
        }
      ],
      "name": "callContractWithToken",
      "outputs": [],
      "stateMutability": "nonpayable",
      "type": "function"
    },
    {
      "inputs": [
        {
          "internalType": "bytes",
          "name": "params",
          "type": "bytes"
        },
        {
          "internalType": "bytes32",
          "name": "",
          "type": "bytes32"
        }
      ],
      "name": "deployToken",
      "outputs": [],
      "stateMutability": "nonpayable",
      "type": "function"
    },
    {
      "inputs": [
        {
          "internalType": "bytes",
          "name": "input",
          "type": "bytes"
        }
      ],
      "name": "execute",
      "outputs": [],
      "stateMutability": "nonpayable",
      "type": "function"
    },
    {
      "inputs": [],
      "name": "freezeAllTokens",
      "outputs": [],
      "stateMutability": "nonpayable",
      "type": "function"
    },
    {
      "inputs": [
        {
          "internalType": "string",
          "name": "symbol",
          "type": "string"
        }
      ],
      "name": "freezeToken",
      "outputs": [],
      "stateMutability": "nonpayable",
      "type": "function"
    },
    {
      "inputs": [
        {
          "internalType": "bytes32",
          "name": "key",
          "type": "bytes32"
        }
      ],
      "name": "getAddress",
      "outputs": [
        {
          "internalType": "address",
          "name": "",
          "type": "address"
        }
      ],
      "stateMutability": "view",
      "type": "function"
    },
    {
      "inputs": [
        {
          "internalType": "bytes32",
          "name": "key",
          "type": "bytes32"
        }
      ],
      "name": "getBool",
      "outputs": [
        {
          "internalType": "bool",
          "name": "",
          "type": "bool"
        }
      ],
      "stateMutability": "view",
      "type": "function"
    },
    {
      "inputs": [
        {
          "internalType": "bytes32",
          "name": "key",
          "type": "bytes32"
        }
      ],
      "name": "getBytes",
      "outputs": [
        {
          "internalType": "bytes",
          "name": "",
          "type": "bytes"
        }
      ],
      "stateMutability": "view",
      "type": "function"
    },
    {
      "inputs": [
        {
          "internalType": "bytes32",
          "name": "key",
          "type": "bytes32"
        }
      ],
      "name": "getInt",
      "outputs": [
        {
          "internalType": "int256",
          "name": "",
          "type": "int256"
        }
      ],
      "stateMutability": "view",
      "type": "function"
    },
    {
      "inputs": [
        {
          "internalType": "bytes32",
          "name": "key",
          "type": "bytes32"
        }
      ],
      "name": "getString",
      "outputs": [
        {
          "internalType": "string",
          "name": "",
          "type": "string"
        }
      ],
      "stateMutability": "view",
      "type": "function"
    },
    {
      "inputs": [
        {
          "internalType": "bytes32",
          "name": "key",
          "type": "bytes32"
        }
      ],
      "name": "getUint",
      "outputs": [
        {
          "internalType": "uint256",
          "name": "",
          "type": "uint256"
        }
      ],
      "stateMutability": "view",
      "type": "function"
    },
    {
      "inputs": [],
      "name": "implementation",
      "outputs": [
        {
          "internalType": "address",
          "name": "",
          "type": "address"
        }
      ],
      "stateMutability": "view",
      "type": "function"
    },
    {
      "inputs": [
        {
          "internalType": "bytes32",
          "name": "commandId",
          "type": "bytes32"
        }
      ],
      "name": "isCommandExecuted",
      "outputs": [
        {
          "internalType": "bool",
          "name": "",
          "type": "bool"
        }
      ],
      "stateMutability": "view",
      "type": "function"
    },
    {
      "inputs": [
        {
          "internalType": "bytes",
          "name": "params",
          "type": "bytes"
        },
        {
          "internalType": "bytes32",
          "name": "",
          "type": "bytes32"
        }
      ],
      "name": "mintToken",
      "outputs": [],
      "stateMutability": "nonpayable",
      "type": "function"
    },
    {
      "inputs": [],
      "name": "operators",
      "outputs": [
        {
          "internalType": "address[]",
          "name": "results",
          "type": "address[]"
        }
      ],
      "stateMutability": "view",
      "type": "function"
    },
    {
      "inputs": [],
      "name": "owners",
      "outputs": [
        {
          "internalType": "address[]",
          "name": "results",
          "type": "address[]"
        }
      ],
      "stateMutability": "view",
      "type": "function"
    },
    {
      "inputs": [
        {
          "internalType": "string",
          "name": "destinationChain",
          "type": "string"
        },
        {
          "internalType": "string",
          "name": "destinationAddress",
          "type": "string"
        },
        {
          "internalType": "string",
          "name": "symbol",
          "type": "string"
        },
        {
          "internalType": "uint256",
          "name": "amount",
          "type": "uint256"
        }
      ],
      "name": "sendToken",
      "outputs": [],
      "stateMutability": "nonpayable",
      "type": "function"
    },
    {
      "inputs": [
        {
          "internalType": "bytes",
          "name": "params",
          "type": "bytes"
        }
      ],
      "name": "setup",
      "outputs": [],
      "stateMutability": "nonpayable",
      "type": "function"
    },
    {
      "inputs": [
        {
          "internalType": "string",
          "name": "symbol",
          "type": "string"
        }
      ],
      "name": "tokenAddresses",
      "outputs": [
        {
          "internalType": "address",
          "name": "",
          "type": "address"
        }
      ],
      "stateMutability": "view",
      "type": "function"
    },
    {
      "inputs": [
        {
          "internalType": "string",
          "name": "symbol",
          "type": "string"
        }
      ],
      "name": "tokenFrozen",
      "outputs": [
        {
          "internalType": "bool",
          "name": "",
          "type": "bool"
        }
      ],
      "stateMutability": "view",
      "type": "function"
    },
    {
      "inputs": [
        {
          "internalType": "bytes",
          "name": "params",
          "type": "bytes"
        },
        {
          "internalType": "bytes32",
          "name": "",
          "type": "bytes32"
        }
      ],
      "name": "transferOperatorship",
      "outputs": [],
      "stateMutability": "nonpayable",
      "type": "function"
    },
    {
      "inputs": [
        {
          "internalType": "bytes",
          "name": "params",
          "type": "bytes"
        },
        {
          "internalType": "bytes32",
          "name": "",
          "type": "bytes32"
        }
      ],
      "name": "transferOwnership",
      "outputs": [],
      "stateMutability": "nonpayable",
      "type": "function"
    },
    {
      "inputs": [],
      "name": "unfreezeAllTokens",
      "outputs": [],
      "stateMutability": "nonpayable",
      "type": "function"
    },
    {
      "inputs": [
        {
          "internalType": "string",
          "name": "symbol",
          "type": "string"
        }
      ],
      "name": "unfreezeToken",
      "outputs": [],
      "stateMutability": "nonpayable",
      "type": "function"
    },
    {
      "inputs": [
        {
          "internalType": "address",
          "name": "newImplementation",
          "type": "address"
        },
        {
          "internalType": "bytes32",
          "name": "newImplementationCodeHash",
          "type": "bytes32"
        },
        {
          "internalType": "bytes",
          "name": "setupParams",
          "type": "bytes"
        }
      ],
      "name": "upgrade",
      "outputs": [],
      "stateMutability": "nonpayable",
      "type": "function"
    },
    {
      "inputs": [
        {
          "internalType": "bytes32",
          "name": "commandId",
          "type": "bytes32"
        },
        {
          "internalType": "string",
          "name": "sourceChain",
          "type": "string"
        },
        {
          "internalType": "string",
          "name": "sourceAddress",
          "type": "string"
        },
        {
          "internalType": "bytes32",
          "name": "payloadHash",
          "type": "bytes32"
        }
      ],
      "name": "validateContractCall",
      "outputs": [
        {
          "internalType": "bool",
          "name": "valid",
          "type": "bool"
        }
      ],
      "stateMutability": "nonpayable",
      "type": "function"
    },
    {
      "inputs": [
        {
          "internalType": "bytes32",
          "name": "commandId",
          "type": "bytes32"
        },
        {
          "internalType": "string",
          "name": "sourceChain",
          "type": "string"
        },
        {
          "internalType": "string",
          "name": "sourceAddress",
          "type": "string"
        },
        {
          "internalType": "bytes32",
          "name": "payloadHash",
          "type": "bytes32"
        },
        {
          "internalType": "string",
          "name": "symbol",
          "type": "string"
        },
        {
          "internalType": "uint256",
          "name": "amount",
          "type": "uint256"
        }
      ],
      "name": "validateContractCallAndMint",
      "outputs": [
        {
          "internalType": "bool",
          "name": "valid",
          "type": "bool"
        }
      ],
      "stateMutability": "nonpayable",
      "type": "function"
    }
  ],
  "evm": {
    "bytecode": {
      "linkReferences": {},
      "object": "60a06040523480156200001157600080fd5b5060405162005e5c38038062005e5c833981016040819052620000349162000046565b6001600160a01b031660805262000078565b6000602082840312156200005957600080fd5b81516001600160a01b03811681146200007157600080fd5b9392505050565b608051615dc862000094600039600061366b0152615dc86000f3fe608060405234801561001057600080fd5b50600436106101f05760003560e01c8063935b13f61161010f578063bd02d0f5116100a2578063dc97d96211610071578063dc97d9621461052a578063e3dfa2991461054a578063e673df8a14610552578063fbe0a31b1461055a57600080fd5b8063bd02d0f5146104ce578063c031a180146104fc578063d26ff2101461050f578063d2bc37f81461052257600080fd5b8063a3499c73116100de578063a3499c7314610440578063aa1e1f0a14610453578063affe39c1146104a6578063b5417084146104bb57600080fd5b8063935b13f6146103e757806397b87ba6146103fa578063986e791a1461040d5780639ded06df1461042d57600080fd5b8063585a9fd4116101875780637ae1cfca116101565780637ae1cfca1461038b5780637b1b769e146103ae5780637e8c8118146103c1578063886a625d146103d457600080fd5b8063585a9fd4146102ec5780635c60da1b146102ff5780635f6970c314610365578063646c5d341461037857600080fd5b806321f8a721116101c357806321f8a7211461025857806326ef699d146102b357806334ff6983146102c65780634656ae2e146102d957600080fd5b806309c5eabe146101f5578063146e2d781461020a5780631876eed91461021d5780631c92115f14610245575b600080fd5b6102086102033660046148ba565b61056d565b005b6102086102183660046148fc565b610590565b61023061022b366004614a26565b61060d565b60405190151581526020015b60405180910390f35b610208610253366004614aca565b610667565b61028e610266366004614b52565b60009081526002602052604090205473ffffffffffffffffffffffffffffffffffffffff1690565b60405173ffffffffffffffffffffffffffffffffffffffff909116815260200161023c565b6102086102c1366004614b6b565b6106d9565b6102086102d4366004614bfb565b610752565b6102086102e73660046148fc565b610967565b6102086102fa3660046148fc565b6109da565b7f360894a13ba1a3210667c828492db98dca3e2076cc3735a920a3ca505d382bbc60005260026020527f11141f466c69fd409e1990e063b49cd6d61ed2ecff27a2e402e259ca6b9a01a35473ffffffffffffffffffffffffffffffffffffffff1661028e565b610230610373366004614c30565b610a62565b610208610386366004614bfb565b610aae565b610230610399366004614b52565b60009081526004602052604090205460ff1690565b6102306103bc366004614bfb565b610cbf565b6102086103cf3660046148fc565b610cd3565b6102086103e23660046148fc565b610e3d565b61028e6103f5366004614bfb565b610ebf565b6102086104083660046148fc565b610ecd565b61042061041b366004614b52565b611095565b60405161023c9190614cbd565b61020861043b3660046148ba565b611137565b61020861044e366004614cf2565b6114fb565b7f75a31d1ce8e5f9892188befc328d3b9bd3fa5037457e881abc21f388471b8d9660005260046020527fa0b596b8942d6ef5cc77ce0ad89a75f0bfcc7f0132cd8db58e8449dcf04a858a5460ff16610230565b6104ae611917565b60405161023c9190614d9f565b6102086104c9366004614db2565b611a24565b6104ee6104dc366004614b52565b60009081526020819052604090205490565b60405190815260200161023c565b61042061050a366004614b52565b611aa7565b61023061051d366004614b52565b611ac4565b610208611ad2565b6104ee610538366004614b52565b60009081526005602052604090205490565b610208611cfb565b6104ae611f21565b6102086105683660046148fc565b612028565b60008061057c83850185614e8b565b9150915061058a828261209d565b50505050565b3330146105e45760405162461bcd60e51b815260206004820152600860248201527f4e4f545f53454c4600000000000000000000000000000000000000000000000060448201526064015b60405180910390fd5b600080806105f485870187614f60565b9250925092506106058383836127f6565b505050505050565b60008061061f888888338989896129d0565b60008181526004602052604090205460ff1692509050811561065c576000818152600460205260409020805460ff1916905561065c8433856127f6565b509695505050505050565b8051602082012060405161067c908490614fba565b60405180910390203373ffffffffffffffffffffffffffffffffffffffff167f30ae6cc78c27e651745bf2ad08a11de83910ac1e347a52f7ac898c0fbef94dae86856040516106cc929190614fd6565b60405180910390a4505050565b6106e4338383612a34565b826040516106f29190614fba565b60405180910390203373ffffffffffffffffffffffffffffffffffffffff167f651d93f66c4329630e8d0f62488eff599e3be484da587335e8dc0fcf4606272686858560405161074493929190615004565b60405180910390a350505050565b60006107a57fd51dc9b187568bb94760866e1d0d066ca470037d2d331afb1a02ec74bfb8990c60009081526020527ff8d0c05cd32e3272241fdc9d5839565f8bcf94139cb4bd09e230e1b57a60ddc25490565b90506107b18133612db4565b6107fd5760405162461bcd60e51b815260206004820152600960248201527f4e4f545f41444d494e000000000000000000000000000000000000000000000060448201526064016105db565b6000803660405161080f92919061503a565b60405180910390209050610824828233612dca565b156108715760405162461bcd60e51b815260206004820152600560248201527f564f54454400000000000000000000000000000000000000000000000000000060448201526064016105db565b61087e8282336001612e5b565b6000600161088c8484612ef9565b6108969190615079565b90506108a3838383612f08565b6108ac83612f2d565b8110156108b95750505050565b6108dd6108c585612f3b565b6000908152600460205260409020805460ff19169055565b836040516108eb9190614fba565b604051908190038120907f5327e3af9cd2d5c19a8dff23ef487d7a4d5f6fc985464f1792a33c212057598990600090a261092783836000612f08565b600061093284612f8d565b905060005b8181101561060557610955858561094e8885612f9b565b6000612e5b565b8061095f81615091565b915050610937565b3330146109b65760405162461bcd60e51b815260206004820152600860248201527f4e4f545f53454c4600000000000000000000000000000000000000000000000060448201526064016105db565b6000806109c5848601866150ca565b915091506109d38282612faa565b5050505050565b333014610a295760405162461bcd60e51b815260206004820152600860248201527f4e4f545f53454c4600000000000000000000000000000000000000000000000060448201526064016105db565b60008080808080610a3c888a018a61510f565b955095509550955095509550610a5787878787878787613375565b505050505050505050565b600080610a7286868633876133e3565b60008181526004602052604090205460ff16925090508115610aa5576000818152600460205260409020805460ff191690555b50949350505050565b6000610b017fd51dc9b187568bb94760866e1d0d066ca470037d2d331afb1a02ec74bfb8990c60009081526020527ff8d0c05cd32e3272241fdc9d5839565f8bcf94139cb4bd09e230e1b57a60ddc25490565b9050610b0d8133612db4565b610b595760405162461bcd60e51b815260206004820152600960248201527f4e4f545f41444d494e000000000000000000000000000000000000000000000060448201526064016105db565b60008036604051610b6b92919061503a565b60405180910390209050610b80828233612dca565b15610bcd5760405162461bcd60e51b815260206004820152600560248201527f564f54454400000000000000000000000000000000000000000000000000000060448201526064016105db565b610bda8282336001612e5b565b60006001610be88484612ef9565b610bf29190615079565b9050610bff838383612f08565b610c0883612f2d565b811015610c155750505050565b610c3c610c2185612f3b565b6000908152600460205260409020805460ff19166001179055565b83604051610c4a9190614fba565b604051908190038120907f11260c92ecb021c33706db3a9699410f343d5f2175201a4551fe7634347a0cf190600090a2610c8683836000612f08565b6000610c9184612f8d565b905060005b8181101561060557610cad858561094e8885612f9b565b80610cb781615091565b915050610c96565b6000610ccd61039983612f3b565b92915050565b333014610d225760405162461bcd60e51b815260206004820152600860248201527f4e4f545f53454c4600000000000000000000000000000000000000000000000060448201526064016105db565b600080610d3184860186615201565b915091506000610d887f67cbdff49954077d2dd5637524b03bfe3e6506d456859017a888fad567e1af0360009081526020527f06f01c2f096e745c2a207fbf93babd5e7ee6acfd26f0f34a0e4ac68373c21d0e5490565b90507fd167b96814cd24898418cc293e8d47d54afe6dcf0631283f0830e1eae621f6bd610db3611917565b610dbc83613441565b8585604051610dce9493929190615237565b60405180910390a1610e32610de282615091565b9150817f67cbdff49954077d2dd5637524b03bfe3e6506d456859017a888fad567e1af0360009081526020527f06f01c2f096e745c2a207fbf93babd5e7ee6acfd26f0f34a0e4ac68373c21d0e55565b610605818484613452565b333014610e8c5760405162461bcd60e51b815260206004820152600860248201527f4e4f545f53454c4600000000000000000000000000000000000000000000000060448201526064016105db565b600080808080610e9e87890189615274565b94509450945094509450610eb585858585856135b2565b5050505050505050565b6000610ccd610266836138a0565b333014610f1c5760405162461bcd60e51b815260206004820152600860248201527f4e4f545f53454c4600000000000000000000000000000000000000000000000060448201526064016105db565b600080610f2b84860186615201565b915091506000610f827f67cbdff49954077d2dd5637524b03bfe3e6506d456859017a888fad567e1af0360009081526020527f06f01c2f096e745c2a207fbf93babd5e7ee6acfd26f0f34a0e4ac68373c21d0e5490565b90507fe7475da747ead33c03118a4b2cca5e521e930dd8ddc556751fe12d1e8395db2c610fad611f21565b610fb6836138d5565b8585604051610fc89493929190615237565b60405180910390a160006110237f5369fb791f26307f8e69b07625302ccac6930af09ab22d753b17d2042e9992e760009081526020527f07174c149a4f7627ac1dd39b679bd42f12fc4e8d7e850b055662bbee7188da105490565b905061108161103182615091565b9150817f5369fb791f26307f8e69b07625302ccac6930af09ab22d753b17d2042e9992e760009081526020527f07174c149a4f7627ac1dd39b679bd42f12fc4e8d7e850b055662bbee7188da1055565b61108c8185856138e3565b50505050505050565b60008181526001602052604090208054606091906110b29061530f565b80601f01602080910402602001604051908101604052809291908181526020018280546110de9061530f565b801561112b5780601f106111005761010080835404028352916020019161112b565b820191906000526020600020905b81548152906001019060200180831161110e57829003601f168201915b50505050509050919050565b60006111a07f360894a13ba1a3210667c828492db98dca3e2076cc3735a920a3ca505d382bbc60005260026020527f11141f466c69fd409e1990e063b49cd6d61ed2ecff27a2e402e259ca6b9a01a35473ffffffffffffffffffffffffffffffffffffffff1690565b73ffffffffffffffffffffffffffffffffffffffff1614156112045760405162461bcd60e51b815260206004820152600960248201527f4e4f545f50524f5859000000000000000000000000000000000000000000000060448201526064016105db565b6000808080808061121787890189615363565b955095509550955095509550600060016112787fd51dc9b187568bb94760866e1d0d066ca470037d2d331afb1a02ec74bfb8990c60009081526020527ff8d0c05cd32e3272241fdc9d5839565f8bcf94139cb4bd09e230e1b57a60ddc25490565b6112829190615079565b90506112d5817fd51dc9b187568bb94760866e1d0d066ca470037d2d331afb1a02ec74bfb8990c60009081526020527ff8d0c05cd32e3272241fdc9d5839565f8bcf94139cb4bd09e230e1b57a60ddc255565b6112e0818888613a43565b600060016113357f67cbdff49954077d2dd5637524b03bfe3e6506d456859017a888fad567e1af0360009081526020527f06f01c2f096e745c2a207fbf93babd5e7ee6acfd26f0f34a0e4ac68373c21d0e5490565b61133f9190615079565b9050611392817f67cbdff49954077d2dd5637524b03bfe3e6506d456859017a888fad567e1af0360009081526020527f06f01c2f096e745c2a207fbf93babd5e7ee6acfd26f0f34a0e4ac68373c21d0e55565b61139d818787613452565b600060016113f27f5369fb791f26307f8e69b07625302ccac6930af09ab22d753b17d2042e9992e760009081526020527f07174c149a4f7627ac1dd39b679bd42f12fc4e8d7e850b055662bbee7188da105490565b6113fc9190615079565b905061144f817f5369fb791f26307f8e69b07625302ccac6930af09ab22d753b17d2042e9992e760009081526020527f07174c149a4f7627ac1dd39b679bd42f12fc4e8d7e850b055662bbee7188da1055565b61145a8186866138e3565b60408051600080825260208201928390527fd167b96814cd24898418cc293e8d47d54afe6dcf0631283f0830e1eae621f6bd9261149c9291908b908b90615237565b60405180910390a160408051600080825260208201928390527fe7475da747ead33c03118a4b2cca5e521e930dd8ddc556751fe12d1e8395db2c926114e692919089908990615237565b60405180910390a15050505050505050505050565b600061154e7fd51dc9b187568bb94760866e1d0d066ca470037d2d331afb1a02ec74bfb8990c60009081526020527ff8d0c05cd32e3272241fdc9d5839565f8bcf94139cb4bd09e230e1b57a60ddc25490565b905061155a8133612db4565b6115a65760405162461bcd60e51b815260206004820152600960248201527f4e4f545f41444d494e000000000000000000000000000000000000000000000060448201526064016105db565b600080366040516115b892919061503a565b604051809103902090506115cd828233612dca565b1561161a5760405162461bcd60e51b815260206004820152600560248201527f564f54454400000000000000000000000000000000000000000000000000000060448201526064016105db565b6116278282336001612e5b565b600060016116358484612ef9565b61163f9190615079565b905061164c838383612f08565b61165583612f2d565b8110156116645750505061058a565b8673ffffffffffffffffffffffffffffffffffffffff163f86146116ca5760405162461bcd60e51b815260206004820152600c60248201527f494e565f434f444548415348000000000000000000000000000000000000000060448201526064016105db565b60405173ffffffffffffffffffffffffffffffffffffffff8816907fbc7cd75a20ee27fd9adebab32041f755214dbc6bffa90cc0225b39da2e5c2d3b90600090a283156118435760008773ffffffffffffffffffffffffffffffffffffffff16639ded06df60e01b87876040516024016117459291906153f3565b60408051601f198184030181529181526020820180517bffffffffffffffffffffffffffffffffffffffffffffffffffffffff167fffffffff000000000000000000000000000000000000000000000000000000009094169390931790925290516117b09190614fba565b600060405180830381855af49150503d80600081146117eb576040519150601f19603f3d011682016040523d82523d6000602084013e6117f0565b606091505b50509050806118415760405162461bcd60e51b815260206004820152600c60248201527f53455455505f4641494c4544000000000000000000000000000000000000000060448201526064016105db565b505b6118d2877f360894a13ba1a3210667c828492db98dca3e2076cc3735a920a3ca505d382bbc60005260026020527f11141f466c69fd409e1990e063b49cd6d61ed2ecff27a2e402e259ca6b9a01a380547fffffffffffffffffffffffff00000000000000000000000000000000000000001673ffffffffffffffffffffffffffffffffffffffff831617905550565b6118de83836000612f08565b60006118e984612f8d565b905060005b81811015610a5757611905858561094e8885612f9b565b8061190f81615091565b9150506118ee565b6060600061196c7f67cbdff49954077d2dd5637524b03bfe3e6506d456859017a888fad567e1af0360009081526020527f06f01c2f096e745c2a207fbf93babd5e7ee6acfd26f0f34a0e4ac68373c21d0e5490565b9050600061197982613ba3565b90508067ffffffffffffffff81111561199457611994614948565b6040519080825280602002602001820160405280156119bd578160200160208202803683370190505b50925060005b81811015611a1e576119d58382613bb1565b8482815181106119e7576119e7615422565b73ffffffffffffffffffffffffffffffffffffffff9092166020928302919091019091015280611a1681615091565b9150506119c3565b50505090565b611a2f338383612a34565b82516020840120604051611a44908690614fba565b60405180910390203373ffffffffffffffffffffffffffffffffffffffff167f7e50569d26be643bda7757722291ec66b1be66d8283474ae3fab5a98f878a7a288878787604051611a989493929190615451565b60405180910390a45050505050565b60008181526003602052604090208054606091906110b29061530f565b6000610ccd61039983613bc0565b6000611b257fd51dc9b187568bb94760866e1d0d066ca470037d2d331afb1a02ec74bfb8990c60009081526020527ff8d0c05cd32e3272241fdc9d5839565f8bcf94139cb4bd09e230e1b57a60ddc25490565b9050611b318133612db4565b611b7d5760405162461bcd60e51b815260206004820152600960248201527f4e4f545f41444d494e000000000000000000000000000000000000000000000060448201526064016105db565b60008036604051611b8f92919061503a565b60405180910390209050611ba4828233612dca565b15611bf15760405162461bcd60e51b815260206004820152600560248201527f564f54454400000000000000000000000000000000000000000000000000000060448201526064016105db565b611bfe8282336001612e5b565b60006001611c0c8484612ef9565b611c169190615079565b9050611c23838383612f08565b611c2c83612f2d565b811015611c3857505050565b7f75a31d1ce8e5f9892188befc328d3b9bd3fa5037457e881abc21f388471b8d9660005260046020527fa0b596b8942d6ef5cc77ce0ad89a75f0bfcc7f0132cd8db58e8449dcf04a858a805460ff191660011790556040517f9f428b56ca209118783db391e8a5a62827b6b218add33411061060d308af6ead90600090a1611cc283836000612f08565b6000611ccd84612f8d565b905060005b818110156109d357611ce9858561094e8885612f9b565b80611cf381615091565b915050611cd2565b6000611d4e7fd51dc9b187568bb94760866e1d0d066ca470037d2d331afb1a02ec74bfb8990c60009081526020527ff8d0c05cd32e3272241fdc9d5839565f8bcf94139cb4bd09e230e1b57a60ddc25490565b9050611d5a8133612db4565b611da65760405162461bcd60e51b815260206004820152600960248201527f4e4f545f41444d494e000000000000000000000000000000000000000000000060448201526064016105db565b60008036604051611db892919061503a565b60405180910390209050611dcd828233612dca565b15611e1a5760405162461bcd60e51b815260206004820152600560248201527f564f54454400000000000000000000000000000000000000000000000000000060448201526064016105db565b611e278282336001612e5b565b60006001611e358484612ef9565b611e3f9190615079565b9050611e4c838383612f08565b611e5583612f2d565b811015611e6157505050565b7f75a31d1ce8e5f9892188befc328d3b9bd3fa5037457e881abc21f388471b8d9660005260046020527fa0b596b8942d6ef5cc77ce0ad89a75f0bfcc7f0132cd8db58e8449dcf04a858a805460ff191690556040517f0e821ff109470f6aa1aebb161aa0e7328b1a8552aa48e09ed2d03184ecece9a690600090a1611ee883836000612f08565b6000611ef384612f8d565b905060005b818110156109d357611f0f858561094e8885612f9b565b80611f1981615091565b915050611ef8565b60606000611f767f5369fb791f26307f8e69b07625302ccac6930af09ab22d753b17d2042e9992e760009081526020527f07174c149a4f7627ac1dd39b679bd42f12fc4e8d7e850b055662bbee7188da105490565b90506000611f8382613bfb565b90508067ffffffffffffffff811115611f9e57611f9e614948565b604051908082528060200260200182016040528015611fc7578160200160208202803683370190505b50925060005b81811015611a1e57611fdf8382613c09565b848281518110611ff157611ff1615422565b73ffffffffffffffffffffffffffffffffffffffff909216602092830291909101909101528061202081615091565b915050611fcd565b3330146120775760405162461bcd60e51b815260206004820152600860248201527f4e4f545f53454c4600000000000000000000000000000000000000000000000060448201526064016105db565b60008080806120888688018861548a565b935093509350935061108c8585858585613c18565b805160008167ffffffffffffffff8111156120ba576120ba614948565b6040519080825280602002602001820160405280156120e3578160200160208202803683370190505b50905060005b8281101561216c576121236121048680519060200120613c6f565b85838151811061211657612116615422565b6020026020010151613caa565b82828151811061213557612135615422565b73ffffffffffffffffffffffffffffffffffffffff909216602092830291909101909101528061216481615091565b9150506120e9565b50600080600080600088806020019051810190612189919061566d565b945094509450945094504685146121e25760405162461bcd60e51b815260206004820152600960248201527f494e565f434841494e000000000000000000000000000000000000000000000060448201526064016105db565b6121eb86613eae565b6122375760405162461bcd60e51b815260206004820152600b60248201527f4455505f5349474e45525300000000000000000000000000000000000000000060448201526064016105db565b82518251811480156122495750815181145b6122955760405162461bcd60e51b815260206004820152600860248201527f494e565f434d445300000000000000000000000000000000000000000000000060448201526064016105db565b6000808060018860028111156122ad576122ad61576f565b14156123265761230d6123077f67cbdff49954077d2dd5637524b03bfe3e6506d456859017a888fad567e1af0360009081526020527f06f01c2f096e745c2a207fbf93babd5e7ee6acfd26f0f34a0e4ac68373c21d0e5490565b8b613f58565b9250828061231f575061231f8a613fdc565b915061234c565b600288600281111561233a5761233a61576f565b141561234c576123498a6140a7565b90505b60005b848110156127e657600088828151811061236b5761236b615422565b6020026020010151905061237e81611ac4565b1561238957506127d4565b60008089848151811061239e5761239e615422565b60200260200101516040516020016123b69190614fba565b6040516020818303038152906040528051906020012090507f5763814b98a3aa86f212797af3273868b5dd6e2a532d764a79b98ca859e7bbad81141561242b5785612403575050506127d4565b7f886a625d000000000000000000000000000000000000000000000000000000009150612691565b7fec78d9c22c08bb9f0ecd5d95571ae83e3f22219c5a9278c3270691d50abfd91b811415612494578415801561245f575085155b1561246c575050506127d4565b7f146e2d78000000000000000000000000000000000000000000000000000000009150612691565b7f37ac16aabc4d87540e53151b2b716265cfd6b195db96a9daf8e893c829bbd2338114156124fd57841580156124c8575085155b156124d5575050506127d4565b7ffbe0a31b000000000000000000000000000000000000000000000000000000009150612691565b7ff41504255b911b3042ee4f8786fdf7cf4bcf24ace033fa16af3c8574e025e4368114156125665784158015612531575085155b1561253e575050506127d4565b7f585a9fd4000000000000000000000000000000000000000000000000000000009150612691565b7fda199c0e76f665e0450020791c7f8eacc75f3cdbace313272c28f93e5390b62c8114156125cf578415801561259a575085155b156125a7575050506127d4565b7f4656ae2e000000000000000000000000000000000000000000000000000000009150612691565b7f1d4a390f291e2e1f29874769efdef47ddad94d76f77ff516fad206a385e8995f81141561262c5786612604575050506127d4565b7f7e8c8118000000000000000000000000000000000000000000000000000000009150612691565b7fb460dcb6fd5797fc0e7ea0f13406c80d30702ba7f73a42bd91394775dcbca7188114156126895786612661575050506127d4565b7f97b87ba6000000000000000000000000000000000000000000000000000000009150612691565b5050506127d4565b61269c83600161415c565b60003073ffffffffffffffffffffffffffffffffffffffff16838b87815181106126c8576126c8615422565b6020026020010151866040516024016126e292919061579e565b60408051601f198184030181529181526020820180517bffffffffffffffffffffffffffffffffffffffffffffffffffffffff167fffffffff0000000000000000000000000000000000000000000000000000000090941693909317909252905161274d9190614fba565b6000604051808303816000865af19150503d806000811461278a576040519150601f19603f3d011682016040523d82523d6000602084013e61278f565b606091505b5050905061279d848261415c565b80156127cf5760405184907fa74c8847d513feba22a0f0cb38d53081abf97562cdb293926ba243689e7c41ca90600090a25b505050505b806127de81615091565b91505061234f565b5050505050505050505050505050565b600061280184610ebf565b905073ffffffffffffffffffffffffffffffffffffffff81166128665760405162461bcd60e51b815260206004820152600f60248201527f544f4b454e5f4e4f545f4558495354000000000000000000000000000000000060448201526064016105db565b60026128718561416c565b60028111156128825761288261576f565b141561294c576040805173ffffffffffffffffffffffffffffffffffffffff8516602482015260448082018590528251808303909101815260649091018252602080820180517bffffffffffffffffffffffffffffffffffffffffffffffffffffffff167fa9059cbb000000000000000000000000000000000000000000000000000000001790528251808401909352600983527f4d494e545f4641494c0000000000000000000000000000000000000000000000908301526129479183919061418b565b61058a565b6040517f40c10f1900000000000000000000000000000000000000000000000000000000815273ffffffffffffffffffffffffffffffffffffffff8481166004830152602482018490528216906340c10f1990604401600060405180830381600087803b1580156129bc57600080fd5b505af1158015610eb5573d6000803e3d6000fd5b60007fb7ad972b71475860613db3ba1fe699b886c878f9002a09250dc25e769eb19a1088888888888888604051602001612a119897969594939291906157c0565b604051602081830303815290604052805190602001209050979650505050505050565b6000612a3f83610ebf565b905073ffffffffffffffffffffffffffffffffffffffff8116612aa45760405162461bcd60e51b815260206004820152600f60248201527f544f4b454e5f4e4f545f4558495354000000000000000000000000000000000060448201526064016105db565b6000612aaf8461416c565b60408051808201909152600981527f4255524e5f4641494c000000000000000000000000000000000000000000000060208201529091506002826002811115612afa57612afa61576f565b1415612bbd5760405173ffffffffffffffffffffffffffffffffffffffff87166024820152306044820152606481018590526106059084907f23b872dd00000000000000000000000000000000000000000000000000000000906084015b60408051601f198184030181529190526020810180517bffffffffffffffffffffffffffffffffffffffffffffffffffffffff167fffffffff00000000000000000000000000000000000000000000000000000000909316929092179091528361418b565b6001826002811115612bd157612bd161576f565b1415612c2d5760405173ffffffffffffffffffffffffffffffffffffffff87166024820152604481018590526106059084907f79cc67900000000000000000000000000000000000000000000000000000000090606401612b58565b6040517f31eecaf400000000000000000000000000000000000000000000000000000000815260006004820152612d2b9084907f23b872dd0000000000000000000000000000000000000000000000000000000090899073ffffffffffffffffffffffffffffffffffffffff8416906331eecaf49060240160206040518083038186803b158015612cbd57600080fd5b505afa158015612cd1573d6000803e3d6000fd5b505050506040513d601f19601f82011682018060405250810190612cf59190615858565b60405173ffffffffffffffffffffffffffffffffffffffff92831660248201529116604482015260648101889052608401612b58565b6040517f08a1eee10000000000000000000000000000000000000000000000000000000081526000600482015273ffffffffffffffffffffffffffffffffffffffff8416906308a1eee1906024015b600060405180830381600087803b158015612d9457600080fd5b505af1158015612da8573d6000803e3d6000fd5b50505050505050505050565b6000612dc3610399848461423e565b9392505050565b604080517f3ced7a8caf1111e0fbf4b784c5b41aebd0f2389d9f2f64d5c3424aeed3adbd3c602080830191909152818301869052606080830186905284901b7fffffffffffffffffffffffffffffffffffffffff0000000000000000000000001660808301528251808303607401815260949092019092528051910120600090612e5390610399565b949350505050565b604080517f3ced7a8caf1111e0fbf4b784c5b41aebd0f2389d9f2f64d5c3424aeed3adbd3c602080830191909152818301879052606080830187905285901b7fffffffffffffffffffffffffffffffffffffffff000000000000000000000000166080830152825180830360740181526094909201909252805191012061058a905b6000908152600460205260409020805460ff1916831515179055565b6000612dc36104dc84846142be565b612f28612f1584846142be565b8260009182526020829052604090912055565b505050565b6000610ccd6104dc83614300565b60007f1a7261d3a36c4ce4235d10859911c9444a6963a3591ec5725b96871d9810626b82604051602001612f70929190615875565b604051602081830303815290604052805190602001209050919050565b6000610ccd6104dc8361433b565b6000612dc36102668484614376565b6000612fb583610ebf565b905073ffffffffffffffffffffffffffffffffffffffff811661301a5760405162461bcd60e51b815260206004820152600f60248201527f544f4b454e5f4e4f545f4558495354000000000000000000000000000000000060448201526064016105db565b60026130258461416c565b60028111156130365761303661576f565b14156132f95760008260405161304b90614864565b8190604051809103906000f590508015801561306b573d6000803e3d6000fd5b506040517f70a0823100000000000000000000000000000000000000000000000000000000815273ffffffffffffffffffffffffffffffffffffffff8083166004830181905292935060009283929091631cff79cd9187917fa9059cbb000000000000000000000000000000000000000000000000000000009130918416906370a082319060240160206040518083038186803b15801561310b57600080fd5b505afa15801561311f573d6000803e3d6000fd5b505050506040513d601f19601f82011682018060405250810190613143919061589b565b60405173ffffffffffffffffffffffffffffffffffffffff9092166024830152604482015260640160408051601f198184030181529181526020820180517bffffffffffffffffffffffffffffffffffffffffffffffffffffffff167fffffffff000000000000000000000000000000000000000000000000000000009485161790525160e085901b90921682526131de92916004016158b4565b600060405180830381600087803b1580156131f857600080fd5b505af115801561320c573d6000803e3d6000fd5b505050506040513d6000823e601f3d908101601f1916820160405261323491908101906158f8565b9150915081801561325d57508051158061325d57508080602001905181019061325d9190615946565b6132a95760405162461bcd60e51b815260206004820152600960248201527f4255524e5f4641494c000000000000000000000000000000000000000000000060448201526064016105db565b6040517ef55d9d00000000000000000000000000000000000000000000000000000000815230600482015273ffffffffffffffffffffffffffffffffffffffff84169062f55d9d90602401612d7a565b6040517f08a1eee10000000000000000000000000000000000000000000000000000000081526004810183905273ffffffffffffffffffffffffffffffffffffffff8216906308a1eee190602401600060405180830381600087803b15801561336157600080fd5b505af115801561108c573d6000803e3d6000fd5b613384878787878787876143b8565b828473ffffffffffffffffffffffffffffffffffffffff16887f6ed33765b13ac61cbdf2151a3b6d40f7884af98645bfad1ed3897c08e18c4806898987876040516133d29493929190615451565b60405180910390a450505050505050565b60007f07b0d4304f82012bd3b70b1d531c160e326067c90829e2a3d386722ad10b89c3868686868660405160200161342096959493929190615961565b60405160208183030381529060405280519060200120905095945050505050565b6000610ccd6104dc836143ca565b50565b8151818110156134a45760405162461bcd60e51b815260206004820152600a60248201527f494e565f4f574e4552530000000000000000000000000000000000000000000060448201526064016105db565b600082116134f45760405162461bcd60e51b815260206004820152600e60248201527f494e565f4f574e45525f54484c4400000000000000000000000000000000000060448201526064016105db565b6134fe8483614405565b6135088482614411565b60005b818110156109d357600084828151811061352757613527615422565b6020026020010151905061353b868261441d565b156135885760405162461bcd60e51b815260206004820152600960248201527f4455505f4f574e4552000000000000000000000000000000000000000000000060448201526064016105db565b61359386838361442c565b61359f868260016144ea565b50806135aa81615091565b91505061350b565b60006135bd85610ebf565b73ffffffffffffffffffffffffffffffffffffffff16146136205760405162461bcd60e51b815260206004820152600b60248201527f544f4b454e5f455849535400000000000000000000000000000000000000000060448201526064016105db565b73ffffffffffffffffffffffffffffffffffffffff81166137e75760008460405160200161364e9190614fba565b6040516020818303038152906040528051906020012090506000807f000000000000000000000000000000000000000000000000000000000000000073ffffffffffffffffffffffffffffffffffffffff16636fc95b3460e01b89898989886040516024016136c19594939291906159dd565b60408051601f198184030181529181526020820180517bffffffffffffffffffffffffffffffffffffffffffffffffffffffff167fffffffff0000000000000000000000000000000000000000000000000000000090941693909317909252905161372c9190614fba565b600060405180830381855af49150503d8060008114613767576040519150601f19603f3d011682016040523d82523d6000602084013e61376c565b606091505b5091509150816137be5760405162461bcd60e51b815260206004820152601360248201527f544f4b454e5f4445504c4f595f4641494c45440000000000000000000000000060448201526064016105db565b808060200190518101906137d29190615858565b93506137df8760016144f7565b505050613856565b73ffffffffffffffffffffffffffffffffffffffff81163b61384b5760405162461bcd60e51b815260206004820152600960248201527f4e4f545f544f4b454e000000000000000000000000000000000000000000000060448201526064016105db565b6138568460026144f7565b6138608482614527565b7fbf90b5a1ec9763e8bf4b9245cef0c28db92bab309fc2c5177f17814f382469388482604051613891929190615a23565b60405180910390a15050505050565b60007fc4e632779a6a7838736dd7e5e6a0eadf171dd37dfb6230720e265576dfcf42bb82604051602001612f70929190615875565b6000610ccd6104dc83614533565b8151818110156139355760405162461bcd60e51b815260206004820152600d60248201527f494e565f4f50455241544f52530000000000000000000000000000000000000060448201526064016105db565b600082116139855760405162461bcd60e51b815260206004820152601160248201527f494e565f4f50455241544f525f54484c4400000000000000000000000000000060448201526064016105db565b61398f848361456e565b613999848261457a565b60005b818110156109d35760008482815181106139b8576139b8615422565b602002602001015190506139cc8682614586565b15613a195760405162461bcd60e51b815260206004820152600c60248201527f4455505f4f50455241544f52000000000000000000000000000000000000000060448201526064016105db565b613a24868383614595565b613a30868260016145a2565b5080613a3b81615091565b91505061399c565b815181811015613a955760405162461bcd60e51b815260206004820152600a60248201527f494e565f41444d494e530000000000000000000000000000000000000000000060448201526064016105db565b60008211613ae55760405162461bcd60e51b815260206004820152600e60248201527f494e565f41444d494e5f54484c4400000000000000000000000000000000000060448201526064016105db565b613aef84836145af565b613af984826145bb565b60005b818110156109d3576000848281518110613b1857613b18615422565b60200260200101519050613b2c8682612db4565b15613b795760405162461bcd60e51b815260206004820152600960248201527f4455505f41444d494e000000000000000000000000000000000000000000000060448201526064016105db565b613b848683836145c7565b613b90868260016145d4565b5080613b9b81615091565b915050613afc565b6000610ccd6104dc836145e1565b6000612dc3610266848461461c565b604080517f957705a374326b30f4a1069c936d736cc9993ed6c820b4e0e2fd94a8beca0d1d6020820152908101829052600090606001612f70565b6000610ccd6104dc8361465e565b6000612dc36102668484614699565b613c2585858585856146db565b808273ffffffffffffffffffffffffffffffffffffffff16867f335f6ae6f72f239a7a96a1953b2726347d41fc037f103531a304923297733df08787604051611a98929190614fd6565b6040517f19457468657265756d205369676e6564204d6573736167653a0a3332000000006020820152603c8101829052600090605c01612f70565b60008151604114613cfd5760405162461bcd60e51b815260206004820152600760248201527f494e565f4c454e0000000000000000000000000000000000000000000000000060448201526064016105db565b60208201516040830151606084015160001a7f7fffffffffffffffffffffffffffffff5d576e7357a4501ddfe92f46681b20a0821115613d7f5760405162461bcd60e51b815260206004820152600560248201527f494e565f5300000000000000000000000000000000000000000000000000000060448201526064016105db565b8060ff16601b1480613d9457508060ff16601c145b613de05760405162461bcd60e51b815260206004820152600560248201527f494e565f5600000000000000000000000000000000000000000000000000000060448201526064016105db565b6040805160008082526020820180845289905260ff841692820192909252606081018590526080810184905260019060a0016020604051602081039080840390855afa158015613e34573d6000803e3d6000fd5b5050506020604051035194508473ffffffffffffffffffffffffffffffffffffffff161415613ea55760405162461bcd60e51b815260206004820152600760248201527f494e565f5349470000000000000000000000000000000000000000000000000060448201526064016105db565b50505092915050565b6000805b60018351613ec09190615a5b565b811015613f4f5782613ed3826001615079565b81518110613ee357613ee3615422565b602002602001015173ffffffffffffffffffffffffffffffffffffffff16838281518110613f1357613f13615422565b602002602001015173ffffffffffffffffffffffffffffffffffffffff1610613f3f5750600092915050565b613f4881615091565b9050613eb2565b50600192915050565b600080613f6484613441565b90506000805b8451811015613fd057613f9686868381518110613f8957613f89615422565b602002602001015161441d565b8015613fad575082613fa783615091565b92508210155b15613fbe5760019350505050610ccd565b80613fc881615091565b915050613f6a565b50600095945050505050565b6000806140307f67cbdff49954077d2dd5637524b03bfe3e6506d456859017a888fad567e1af0360009081526020527f06f01c2f096e745c2a207fbf93babd5e7ee6acfd26f0f34a0e4ac68373c21d0e5490565b9050600061404060016010615079565b9050600081831161405257600061405c565b61405c8284615a5b565b905061406783615a72565b92505b8083111561409c576140878361407f81615a72565b945086613f58565b1561409757506001949350505050565b61406a565b506000949350505050565b6000806140fb7f5369fb791f26307f8e69b07625302ccac6930af09ab22d753b17d2042e9992e760009081526020527f07174c149a4f7627ac1dd39b679bd42f12fc4e8d7e850b055662bbee7188da105490565b9050600061410b60016010615079565b9050600081831161411d576000614127565b6141278284615a5b565b90505b8083111561409c576141478361413f81615a72565b9450866146eb565b1561415757506001949350505050565b61412a565b614168612edd83613bc0565b5050565b600061417a6104dc83614763565b6002811115610ccd57610ccd61576f565b6000808473ffffffffffffffffffffffffffffffffffffffff16846040516141b39190614fba565b6000604051808303816000865af19150503d80600081146141f0576040519150601f19603f3d011682016040523d82523d6000602084013e6141f5565b606091505b509150915081801561421f57508051158061421f57508080602001905181019061421f9190615946565b83906106055760405162461bcd60e51b81526004016105db9190614cbd565b604080517f63fa879cb478fddf1de08d49e29115fb768866711bc799ff9ab419a7f16c9afb6020820152908101839052606082811b7fffffffffffffffffffffffffffffffffffffffff00000000000000000000000016908201526000906074015b60405160208183030381529060405280519060200120905092915050565b604080517fbaea1c6c0f16a0a340b10a9e980806696a68ddbb5e8361fd64630dd21abf515f6020820152908101839052606081018290526000906080016142a0565b604080517f79bd914addd90bd67ad800bf0230bb85ffdef5aeba5fd8249f116d3f17f4fb4b6020820152908101829052600090606001612f70565b604080517f05112ef894367de1270cfae12afcd2285c225830eb8f74e7e938f721bb510cba6020820152908101829052600090606001612f70565b604080517ff23ec0bb4210edd5cba85afd05127efcd2fc6a781bfed49188da1081670b22d86020820152908101839052606081018290526000906080016142a0565b61108c610c21888888888888886129d0565b604080517f2bd864201f87ce8cc2d875453b39cc3e981d8ee12e4b7d4b7492fd9404bd82296020820152908101829052600090606001612f70565b614168612f15836143ca565b614168612f15836145e1565b6000612dc36103998484614798565b73ffffffffffffffffffffffffffffffffffffffff811661448f5760405162461bcd60e51b815260206004820152600960248201527f5a45524f5f41444452000000000000000000000000000000000000000000000060448201526064016105db565b612f2861449c848461461c565b600090815260026020526040902080547fffffffffffffffffffffffff00000000000000000000000000000000000000001673ffffffffffffffffffffffffffffffffffffffff8416179055565b612f28612edd8484614798565b61416861450383614763565b8260028111156145155761451561576f565b60009182526020829052604090912055565b61416861449c836138a0565b604080517fc0e594a04ce768761133f7238cd95a55441f8ee2d50a03e7d5c44fb26c04d76f6020820152908101829052600090606001612f70565b614168612f1583614533565b614168612f158361465e565b6000612dc361039984846147fe565b612f2861449c8484614699565b612f28612edd84846147fe565b614168612f1583614300565b614168612f158361433b565b612f2861449c8484614376565b612f28612edd848461423e565b604080517f4ededbb904acd1258c7b9a6b12f5a8a8870a8ec295809cf35dc1f098018d4d206020820152908101829052600090606001612f70565b604080517f02016836a56b71f0d02689e69e326f4f4c1b9057164ef592671cf0d37c8040c06020820152908101839052606081018290526000906080016142a0565b604080517f6199febc552b750a8cf661862e77cb2dbed9f3fb6fcc10bd34f8ff9e1992362b6020820152908101829052600090606001612f70565b604080517f46a52cf33029de9f84853745a87af28464c80bf0346df1b32e205fc73319f6226020820152908101839052606081018290526000906080016142a0565b6109d3610c2186868686866133e3565b6000806146f7846138d5565b90506000805b8451811015613fd0576147298686838151811061471c5761471c615422565b6020026020010151614586565b801561474057508261473a83615091565b92508210155b156147515760019350505050610ccd565b8061475b81615091565b9150506146fd565b60007fa80d2259af55890618ec2eeb3ac72de4bdba22529bb14845d8a3d712d1c3f62182604051602001612f70929190615875565b604080517fffbbd206dad2a77ed223a0ff3d2dcac502bc8c9a91fa18140757561e84f365c06020820152908101839052606082811b7fffffffffffffffffffffffffffffffffffffffff00000000000000000000000016908201526000906074016142a0565b604080517f934404a25b467ba4b73107cf91baadb1313f82988678493324b44221699535866020820152908101839052606082811b7fffffffffffffffffffffffffffffffffffffffff00000000000000000000000016908201526000906074016142a0565b6102eb80615aa883390190565b60008083601f84011261488357600080fd5b50813567ffffffffffffffff81111561489b57600080fd5b6020830191508360208285010111156148b357600080fd5b9250929050565b600080602083850312156148cd57600080fd5b823567ffffffffffffffff8111156148e457600080fd5b6148f085828601614871565b90969095509350505050565b60008060006040848603121561491157600080fd5b833567ffffffffffffffff81111561492857600080fd5b61493486828701614871565b909790965060209590950135949350505050565b7f4e487b7100000000000000000000000000000000000000000000000000000000600052604160045260246000fd5b604051601f8201601f1916810167ffffffffffffffff811182821017156149a0576149a0614948565b604052919050565b600067ffffffffffffffff8211156149c2576149c2614948565b50601f01601f191660200190565b600082601f8301126149e157600080fd5b81356149f46149ef826149a8565b614977565b818152846020838601011115614a0957600080fd5b816020850160208301376000918101602001919091529392505050565b60008060008060008060c08789031215614a3f57600080fd5b86359550602087013567ffffffffffffffff80821115614a5e57600080fd5b614a6a8a838b016149d0565b96506040890135915080821115614a8057600080fd5b614a8c8a838b016149d0565b9550606089013594506080890135915080821115614aa957600080fd5b50614ab689828a016149d0565b92505060a087013590509295509295509295565b600080600060608486031215614adf57600080fd5b833567ffffffffffffffff80821115614af757600080fd5b614b03878388016149d0565b94506020860135915080821115614b1957600080fd5b614b25878388016149d0565b93506040860135915080821115614b3b57600080fd5b50614b48868287016149d0565b9150509250925092565b600060208284031215614b6457600080fd5b5035919050565b60008060008060808587031215614b8157600080fd5b843567ffffffffffffffff80821115614b9957600080fd5b614ba5888389016149d0565b95506020870135915080821115614bbb57600080fd5b614bc7888389016149d0565b94506040870135915080821115614bdd57600080fd5b50614bea878288016149d0565b949793965093946060013593505050565b600060208284031215614c0d57600080fd5b813567ffffffffffffffff811115614c2457600080fd5b612e53848285016149d0565b60008060008060808587031215614c4657600080fd5b84359350602085013567ffffffffffffffff80821115614bbb57600080fd5b60005b83811015614c80578181015183820152602001614c68565b8381111561058a5750506000910152565b60008151808452614ca9816020860160208601614c65565b601f01601f19169290920160200192915050565b602081526000612dc36020830184614c91565b73ffffffffffffffffffffffffffffffffffffffff8116811461344f57600080fd5b60008060008060608587031215614d0857600080fd5b8435614d1381614cd0565b935060208501359250604085013567ffffffffffffffff811115614d3657600080fd5b614d4287828801614871565b95989497509550505050565b600081518084526020808501945080840160005b83811015614d9457815173ffffffffffffffffffffffffffffffffffffffff1687529582019590820190600101614d62565b509495945050505050565b602081526000612dc36020830184614d4e565b600080600080600060a08688031215614dca57600080fd5b853567ffffffffffffffff80821115614de257600080fd5b614dee89838a016149d0565b96506020880135915080821115614e0457600080fd5b614e1089838a016149d0565b95506040880135915080821115614e2657600080fd5b614e3289838a016149d0565b94506060880135915080821115614e4857600080fd5b50614e55888289016149d0565b95989497509295608001359392505050565b600067ffffffffffffffff821115614e8157614e81614948565b5060051b60200190565b60008060408385031215614e9e57600080fd5b823567ffffffffffffffff80821115614eb657600080fd5b614ec2868387016149d0565b9350602091508185013581811115614ed957600080fd5b8501601f81018713614eea57600080fd5b8035614ef86149ef82614e67565b81815260059190911b82018401908481019089831115614f1757600080fd5b8584015b83811015614f4f57803586811115614f335760008081fd5b614f418c89838901016149d0565b845250918601918601614f1b565b508096505050505050509250929050565b600080600060608486031215614f7557600080fd5b833567ffffffffffffffff811115614f8c57600080fd5b614f98868287016149d0565b9350506020840135614fa981614cd0565b929592945050506040919091013590565b60008251614fcc818460208701614c65565b9190910192915050565b604081526000614fe96040830185614c91565b8281036020840152614ffb8185614c91565b95945050505050565b6060815260006150176060830186614c91565b82810360208401526150298186614c91565b915050826040830152949350505050565b8183823760009101908152919050565b7f4e487b7100000000000000000000000000000000000000000000000000000000600052601160045260246000fd5b6000821982111561508c5761508c61504a565b500190565b60007fffffffffffffffffffffffffffffffffffffffffffffffffffffffffffffffff8214156150c3576150c361504a565b5060010190565b600080604083850312156150dd57600080fd5b823567ffffffffffffffff8111156150f457600080fd5b615100858286016149d0565b95602094909401359450505050565b60008060008060008060c0878903121561512857600080fd5b863567ffffffffffffffff8082111561514057600080fd5b61514c8a838b016149d0565b9750602089013591508082111561516257600080fd5b61516e8a838b016149d0565b96506040890135915061518082614cd0565b9094506060880135935060808801359080821115614aa957600080fd5b600082601f8301126151ae57600080fd5b813560206151be6149ef83614e67565b82815260059290921b840181019181810190868411156151dd57600080fd5b8286015b8481101561065c5780356151f481614cd0565b83529183019183016151e1565b6000806040838503121561521457600080fd5b823567ffffffffffffffff81111561522b57600080fd5b6151008582860161519d565b60808152600061524a6080830187614d4e565b85602084015282810360408401526152628186614d4e565b91505082606083015295945050505050565b600080600080600060a0868803121561528c57600080fd5b853567ffffffffffffffff808211156152a457600080fd5b6152b089838a016149d0565b965060208801359150808211156152c657600080fd5b506152d3888289016149d0565b945050604086013560ff811681146152ea57600080fd5b925060608601359150608086013561530181614cd0565b809150509295509295909350565b600181811c9082168061532357607f821691505b6020821081141561535d577f4e487b7100000000000000000000000000000000000000000000000000000000600052602260045260246000fd5b50919050565b60008060008060008060c0878903121561537c57600080fd5b863567ffffffffffffffff8082111561539457600080fd5b6153a08a838b0161519d565b97506020890135965060408901359150808211156153bd57600080fd5b6153c98a838b0161519d565b95506060890135945060808901359150808211156153e657600080fd5b50614ab689828a0161519d565b60208152816020820152818360408301376000818301604090810191909152601f909201601f19160101919050565b7f4e487b7100000000000000000000000000000000000000000000000000000000600052603260045260246000fd5b6080815260006154646080830187614c91565b82810360208401526154768187614c91565b905082810360408401526152628186614c91565b600080600080608085870312156154a057600080fd5b843567ffffffffffffffff808211156154b857600080fd5b6154c4888389016149d0565b955060208701359150808211156154da57600080fd5b506154e7878288016149d0565b93505060408501356154f881614cd0565b9396929550929360600135925050565b60006155166149ef846149a8565b905082815283838301111561552a57600080fd5b612dc3836020830184614c65565b600082601f83011261554957600080fd5b815160206155596149ef83614e67565b82815260059290921b8401810191818101908684111561557857600080fd5b8286015b8481101561065c57805167ffffffffffffffff81111561559c5760008081fd5b8701603f810189136155ae5760008081fd5b6155bf898683015160408401615508565b84525091830191830161557c565b600082601f8301126155de57600080fd5b612dc383835160208501615508565b600082601f8301126155fe57600080fd5b8151602061560e6149ef83614e67565b82815260059290921b8401810191818101908684111561562d57600080fd5b8286015b8481101561065c57805167ffffffffffffffff8111156156515760008081fd5b61565f8986838b01016155cd565b845250918301918301615631565b600080600080600060a0868803121561568557600080fd5b855194506020808701516003811061569c57600080fd5b604088015190955067ffffffffffffffff808211156156ba57600080fd5b818901915089601f8301126156ce57600080fd5b81516156dc6149ef82614e67565b81815260059190911b8301840190848101908c8311156156fb57600080fd5b938501935b8285101561571957845182529385019390850190615700565b60608c0151909850945050508083111561573257600080fd5b61573e8a848b01615538565b9450608089015192508083111561575457600080fd5b5050615762888289016155ed565b9150509295509295909350565b7f4e487b7100000000000000000000000000000000000000000000000000000000600052602160045260246000fd5b6040815260006157b16040830185614c91565b90508260208301529392505050565b888152876020820152600087516157de816040850160208c01614c65565b8751908301906157f5816040840160208c01614c65565b8082019150507fffffffffffffffffffffffffffffffffffffffff0000000000000000000000008760601b166040820152856054820152845161583f816074840160208901614c65565b0160748101939093525050609401979650505050505050565b60006020828403121561586a57600080fd5b8151612dc381614cd0565b8281526000825161588d816020850160208701614c65565b919091016020019392505050565b6000602082840312156158ad57600080fd5b5051919050565b73ffffffffffffffffffffffffffffffffffffffff83168152604060208201526000612e536040830184614c91565b805180151581146158f357600080fd5b919050565b6000806040838503121561590b57600080fd5b615914836158e3565b9150602083015167ffffffffffffffff81111561593057600080fd5b61593c858286016155cd565b9150509250929050565b60006020828403121561595857600080fd5b612dc3826158e3565b8681528560208201526000855161597f816040850160208a01614c65565b855190830190615996816040840160208a01614c65565b60609590951b7fffffffffffffffffffffffffffffffffffffffff000000000000000000000000166040919095019081019490945250506054820152607401949350505050565b60a0815260006159f060a0830188614c91565b8281036020840152615a028188614c91565b60ff9690961660408401525050606081019290925260809091015292915050565b604081526000615a366040830185614c91565b905073ffffffffffffffffffffffffffffffffffffffff831660208301529392505050565b600082821015615a6d57615a6d61504a565b500390565b600081615a8157615a8161504a565b507fffffffffffffffffffffffffffffffffffffffffffffffffffffffffffffffff019056fe60806040526000805534801561001457600080fd5b506102c7806100246000396000f3fe608060405234801561001057600080fd5b50600436106100355760003560e01c8062f55d9d1461003a5780631cff79cd1461004f575b600080fd5b61004d61004836600461015f565b610079565b005b61006261005d366004610181565b6100a4565b604051610070929190610204565b60405180910390f35b6000541561008657600080fd5b600160005573ffffffffffffffffffffffffffffffffffffffff8116ff5b6000606060008054146100b657600080fd5b600160005560405173ffffffffffffffffffffffffffffffffffffffff8616906100e39086908690610281565b6000604051808303816000865af19150503d8060008114610120576040519150601f19603f3d011682016040523d82523d6000602084013e610125565b606091505b506000805590969095509350505050565b803573ffffffffffffffffffffffffffffffffffffffff8116811461015a57600080fd5b919050565b60006020828403121561017157600080fd5b61017a82610136565b9392505050565b60008060006040848603121561019657600080fd5b61019f84610136565b9250602084013567ffffffffffffffff808211156101bc57600080fd5b818601915086601f8301126101d057600080fd5b8135818111156101df57600080fd5b8760208285010111156101f157600080fd5b6020830194508093505050509250925092565b821515815260006020604081840152835180604085015260005b8181101561023a5785810183015185820160600152820161021e565b8181111561024c576000606083870101525b50601f017fffffffffffffffffffffffffffffffffffffffffffffffffffffffffffffffe01692909201606001949350505050565b818382376000910190815291905056fea2646970667358221220fdd6db5bba0afd251fcefcec3913650b375890325fd2d7152affa2da7bd2749664736f6c63430008090033a2646970667358221220ee3ed86bfa5b9d577fca6c51dc5fc35ee93aefbfa5b1201450416704c8678fea64736f6c63430008090033",
      "opcodes": "PUSH1 0xA0 PUSH1 0x40 MSTORE CALLVALUE DUP1 ISZERO PUSH3 0x11 JUMPI PUSH1 0x0 DUP1 REVERT JUMPDEST POP PUSH1 0x40 MLOAD PUSH3 0x5E5C CODESIZE SUB DUP1 PUSH3 0x5E5C DUP4 CODECOPY DUP2 ADD PUSH1 0x40 DUP2 SWAP1 MSTORE PUSH3 0x34 SWAP2 PUSH3 0x46 JUMP JUMPDEST PUSH1 0x1 PUSH1 0x1 PUSH1 0xA0 SHL SUB AND PUSH1 0x80 MSTORE PUSH3 0x78 JUMP JUMPDEST PUSH1 0x0 PUSH1 0x20 DUP3 DUP5 SUB SLT ISZERO PUSH3 0x59 JUMPI PUSH1 0x0 DUP1 REVERT JUMPDEST DUP2 MLOAD PUSH1 0x1 PUSH1 0x1 PUSH1 0xA0 SHL SUB DUP2 AND DUP2 EQ PUSH3 0x71 JUMPI PUSH1 0x0 DUP1 REVERT JUMPDEST SWAP4 SWAP3 POP POP POP JUMP JUMPDEST PUSH1 0x80 MLOAD PUSH2 0x5DC8 PUSH3 0x94 PUSH1 0x0 CODECOPY PUSH1 0x0 PUSH2 0x366B ADD MSTORE PUSH2 0x5DC8 PUSH1 0x0 RETURN INVALID PUSH1 0x80 PUSH1 0x40 MSTORE CALLVALUE DUP1 ISZERO PUSH2 0x10 JUMPI PUSH1 0x0 DUP1 REVERT JUMPDEST POP PUSH1 0x4 CALLDATASIZE LT PUSH2 0x1F0 JUMPI PUSH1 0x0 CALLDATALOAD PUSH1 0xE0 SHR DUP1 PUSH4 0x935B13F6 GT PUSH2 0x10F JUMPI DUP1 PUSH4 0xBD02D0F5 GT PUSH2 0xA2 JUMPI DUP1 PUSH4 0xDC97D962 GT PUSH2 0x71 JUMPI DUP1 PUSH4 0xDC97D962 EQ PUSH2 0x52A JUMPI DUP1 PUSH4 0xE3DFA299 EQ PUSH2 0x54A JUMPI DUP1 PUSH4 0xE673DF8A EQ PUSH2 0x552 JUMPI DUP1 PUSH4 0xFBE0A31B EQ PUSH2 0x55A JUMPI PUSH1 0x0 DUP1 REVERT JUMPDEST DUP1 PUSH4 0xBD02D0F5 EQ PUSH2 0x4CE JUMPI DUP1 PUSH4 0xC031A180 EQ PUSH2 0x4FC JUMPI DUP1 PUSH4 0xD26FF210 EQ PUSH2 0x50F JUMPI DUP1 PUSH4 0xD2BC37F8 EQ PUSH2 0x522 JUMPI PUSH1 0x0 DUP1 REVERT JUMPDEST DUP1 PUSH4 0xA3499C73 GT PUSH2 0xDE JUMPI DUP1 PUSH4 0xA3499C73 EQ PUSH2 0x440 JUMPI DUP1 PUSH4 0xAA1E1F0A EQ PUSH2 0x453 JUMPI DUP1 PUSH4 0xAFFE39C1 EQ PUSH2 0x4A6 JUMPI DUP1 PUSH4 0xB5417084 EQ PUSH2 0x4BB JUMPI PUSH1 0x0 DUP1 REVERT JUMPDEST DUP1 PUSH4 0x935B13F6 EQ PUSH2 0x3E7 JUMPI DUP1 PUSH4 0x97B87BA6 EQ PUSH2 0x3FA JUMPI DUP1 PUSH4 0x986E791A EQ PUSH2 0x40D JUMPI DUP1 PUSH4 0x9DED06DF EQ PUSH2 0x42D JUMPI PUSH1 0x0 DUP1 REVERT JUMPDEST DUP1 PUSH4 0x585A9FD4 GT PUSH2 0x187 JUMPI DUP1 PUSH4 0x7AE1CFCA GT PUSH2 0x156 JUMPI DUP1 PUSH4 0x7AE1CFCA EQ PUSH2 0x38B JUMPI DUP1 PUSH4 0x7B1B769E EQ PUSH2 0x3AE JUMPI DUP1 PUSH4 0x7E8C8118 EQ PUSH2 0x3C1 JUMPI DUP1 PUSH4 0x886A625D EQ PUSH2 0x3D4 JUMPI PUSH1 0x0 DUP1 REVERT JUMPDEST DUP1 PUSH4 0x585A9FD4 EQ PUSH2 0x2EC JUMPI DUP1 PUSH4 0x5C60DA1B EQ PUSH2 0x2FF JUMPI DUP1 PUSH4 0x5F6970C3 EQ PUSH2 0x365 JUMPI DUP1 PUSH4 0x646C5D34 EQ PUSH2 0x378 JUMPI PUSH1 0x0 DUP1 REVERT JUMPDEST DUP1 PUSH4 0x21F8A721 GT PUSH2 0x1C3 JUMPI DUP1 PUSH4 0x21F8A721 EQ PUSH2 0x258 JUMPI DUP1 PUSH4 0x26EF699D EQ PUSH2 0x2B3 JUMPI DUP1 PUSH4 0x34FF6983 EQ PUSH2 0x2C6 JUMPI DUP1 PUSH4 0x4656AE2E EQ PUSH2 0x2D9 JUMPI PUSH1 0x0 DUP1 REVERT JUMPDEST DUP1 PUSH4 0x9C5EABE EQ PUSH2 0x1F5 JUMPI DUP1 PUSH4 0x146E2D78 EQ PUSH2 0x20A JUMPI DUP1 PUSH4 0x1876EED9 EQ PUSH2 0x21D JUMPI DUP1 PUSH4 0x1C92115F EQ PUSH2 0x245 JUMPI JUMPDEST PUSH1 0x0 DUP1 REVERT JUMPDEST PUSH2 0x208 PUSH2 0x203 CALLDATASIZE PUSH1 0x4 PUSH2 0x48BA JUMP JUMPDEST PUSH2 0x56D JUMP JUMPDEST STOP JUMPDEST PUSH2 0x208 PUSH2 0x218 CALLDATASIZE PUSH1 0x4 PUSH2 0x48FC JUMP JUMPDEST PUSH2 0x590 JUMP JUMPDEST PUSH2 0x230 PUSH2 0x22B CALLDATASIZE PUSH1 0x4 PUSH2 0x4A26 JUMP JUMPDEST PUSH2 0x60D JUMP JUMPDEST PUSH1 0x40 MLOAD SWAP1 ISZERO ISZERO DUP2 MSTORE PUSH1 0x20 ADD JUMPDEST PUSH1 0x40 MLOAD DUP1 SWAP2 SUB SWAP1 RETURN JUMPDEST PUSH2 0x208 PUSH2 0x253 CALLDATASIZE PUSH1 0x4 PUSH2 0x4ACA JUMP JUMPDEST PUSH2 0x667 JUMP JUMPDEST PUSH2 0x28E PUSH2 0x266 CALLDATASIZE PUSH1 0x4 PUSH2 0x4B52 JUMP JUMPDEST PUSH1 0x0 SWAP1 DUP2 MSTORE PUSH1 0x2 PUSH1 0x20 MSTORE PUSH1 0x40 SWAP1 KECCAK256 SLOAD PUSH20 0xFFFFFFFFFFFFFFFFFFFFFFFFFFFFFFFFFFFFFFFF AND SWAP1 JUMP JUMPDEST PUSH1 0x40 MLOAD PUSH20 0xFFFFFFFFFFFFFFFFFFFFFFFFFFFFFFFFFFFFFFFF SWAP1 SWAP2 AND DUP2 MSTORE PUSH1 0x20 ADD PUSH2 0x23C JUMP JUMPDEST PUSH2 0x208 PUSH2 0x2C1 CALLDATASIZE PUSH1 0x4 PUSH2 0x4B6B JUMP JUMPDEST PUSH2 0x6D9 JUMP JUMPDEST PUSH2 0x208 PUSH2 0x2D4 CALLDATASIZE PUSH1 0x4 PUSH2 0x4BFB JUMP JUMPDEST PUSH2 0x752 JUMP JUMPDEST PUSH2 0x208 PUSH2 0x2E7 CALLDATASIZE PUSH1 0x4 PUSH2 0x48FC JUMP JUMPDEST PUSH2 0x967 JUMP JUMPDEST PUSH2 0x208 PUSH2 0x2FA CALLDATASIZE PUSH1 0x4 PUSH2 0x48FC JUMP JUMPDEST PUSH2 0x9DA JUMP JUMPDEST PUSH32 0x360894A13BA1A3210667C828492DB98DCA3E2076CC3735A920A3CA505D382BBC PUSH1 0x0 MSTORE PUSH1 0x2 PUSH1 0x20 MSTORE PUSH32 0x11141F466C69FD409E1990E063B49CD6D61ED2ECFF27A2E402E259CA6B9A01A3 SLOAD PUSH20 0xFFFFFFFFFFFFFFFFFFFFFFFFFFFFFFFFFFFFFFFF AND PUSH2 0x28E JUMP JUMPDEST PUSH2 0x230 PUSH2 0x373 CALLDATASIZE PUSH1 0x4 PUSH2 0x4C30 JUMP JUMPDEST PUSH2 0xA62 JUMP JUMPDEST PUSH2 0x208 PUSH2 0x386 CALLDATASIZE PUSH1 0x4 PUSH2 0x4BFB JUMP JUMPDEST PUSH2 0xAAE JUMP JUMPDEST PUSH2 0x230 PUSH2 0x399 CALLDATASIZE PUSH1 0x4 PUSH2 0x4B52 JUMP JUMPDEST PUSH1 0x0 SWAP1 DUP2 MSTORE PUSH1 0x4 PUSH1 0x20 MSTORE PUSH1 0x40 SWAP1 KECCAK256 SLOAD PUSH1 0xFF AND SWAP1 JUMP JUMPDEST PUSH2 0x230 PUSH2 0x3BC CALLDATASIZE PUSH1 0x4 PUSH2 0x4BFB JUMP JUMPDEST PUSH2 0xCBF JUMP JUMPDEST PUSH2 0x208 PUSH2 0x3CF CALLDATASIZE PUSH1 0x4 PUSH2 0x48FC JUMP JUMPDEST PUSH2 0xCD3 JUMP JUMPDEST PUSH2 0x208 PUSH2 0x3E2 CALLDATASIZE PUSH1 0x4 PUSH2 0x48FC JUMP JUMPDEST PUSH2 0xE3D JUMP JUMPDEST PUSH2 0x28E PUSH2 0x3F5 CALLDATASIZE PUSH1 0x4 PUSH2 0x4BFB JUMP JUMPDEST PUSH2 0xEBF JUMP JUMPDEST PUSH2 0x208 PUSH2 0x408 CALLDATASIZE PUSH1 0x4 PUSH2 0x48FC JUMP JUMPDEST PUSH2 0xECD JUMP JUMPDEST PUSH2 0x420 PUSH2 0x41B CALLDATASIZE PUSH1 0x4 PUSH2 0x4B52 JUMP JUMPDEST PUSH2 0x1095 JUMP JUMPDEST PUSH1 0x40 MLOAD PUSH2 0x23C SWAP2 SWAP1 PUSH2 0x4CBD JUMP JUMPDEST PUSH2 0x208 PUSH2 0x43B CALLDATASIZE PUSH1 0x4 PUSH2 0x48BA JUMP JUMPDEST PUSH2 0x1137 JUMP JUMPDEST PUSH2 0x208 PUSH2 0x44E CALLDATASIZE PUSH1 0x4 PUSH2 0x4CF2 JUMP JUMPDEST PUSH2 0x14FB JUMP JUMPDEST PUSH32 0x75A31D1CE8E5F9892188BEFC328D3B9BD3FA5037457E881ABC21F388471B8D96 PUSH1 0x0 MSTORE PUSH1 0x4 PUSH1 0x20 MSTORE PUSH32 0xA0B596B8942D6EF5CC77CE0AD89A75F0BFCC7F0132CD8DB58E8449DCF04A858A SLOAD PUSH1 0xFF AND PUSH2 0x230 JUMP JUMPDEST PUSH2 0x4AE PUSH2 0x1917 JUMP JUMPDEST PUSH1 0x40 MLOAD PUSH2 0x23C SWAP2 SWAP1 PUSH2 0x4D9F JUMP JUMPDEST PUSH2 0x208 PUSH2 0x4C9 CALLDATASIZE PUSH1 0x4 PUSH2 0x4DB2 JUMP JUMPDEST PUSH2 0x1A24 JUMP JUMPDEST PUSH2 0x4EE PUSH2 0x4DC CALLDATASIZE PUSH1 0x4 PUSH2 0x4B52 JUMP JUMPDEST PUSH1 0x0 SWAP1 DUP2 MSTORE PUSH1 0x20 DUP2 SWAP1 MSTORE PUSH1 0x40 SWAP1 KECCAK256 SLOAD SWAP1 JUMP JUMPDEST PUSH1 0x40 MLOAD SWAP1 DUP2 MSTORE PUSH1 0x20 ADD PUSH2 0x23C JUMP JUMPDEST PUSH2 0x420 PUSH2 0x50A CALLDATASIZE PUSH1 0x4 PUSH2 0x4B52 JUMP JUMPDEST PUSH2 0x1AA7 JUMP JUMPDEST PUSH2 0x230 PUSH2 0x51D CALLDATASIZE PUSH1 0x4 PUSH2 0x4B52 JUMP JUMPDEST PUSH2 0x1AC4 JUMP JUMPDEST PUSH2 0x208 PUSH2 0x1AD2 JUMP JUMPDEST PUSH2 0x4EE PUSH2 0x538 CALLDATASIZE PUSH1 0x4 PUSH2 0x4B52 JUMP JUMPDEST PUSH1 0x0 SWAP1 DUP2 MSTORE PUSH1 0x5 PUSH1 0x20 MSTORE PUSH1 0x40 SWAP1 KECCAK256 SLOAD SWAP1 JUMP JUMPDEST PUSH2 0x208 PUSH2 0x1CFB JUMP JUMPDEST PUSH2 0x4AE PUSH2 0x1F21 JUMP JUMPDEST PUSH2 0x208 PUSH2 0x568 CALLDATASIZE PUSH1 0x4 PUSH2 0x48FC JUMP JUMPDEST PUSH2 0x2028 JUMP JUMPDEST PUSH1 0x0 DUP1 PUSH2 0x57C DUP4 DUP6 ADD DUP6 PUSH2 0x4E8B JUMP JUMPDEST SWAP2 POP SWAP2 POP PUSH2 0x58A DUP3 DUP3 PUSH2 0x209D JUMP JUMPDEST POP POP POP POP JUMP JUMPDEST CALLER ADDRESS EQ PUSH2 0x5E4 JUMPI PUSH1 0x40 MLOAD PUSH3 0x461BCD PUSH1 0xE5 SHL DUP2 MSTORE PUSH1 0x20 PUSH1 0x4 DUP3 ADD MSTORE PUSH1 0x8 PUSH1 0x24 DUP3 ADD MSTORE PUSH32 0x4E4F545F53454C46000000000000000000000000000000000000000000000000 PUSH1 0x44 DUP3 ADD MSTORE PUSH1 0x64 ADD JUMPDEST PUSH1 0x40 MLOAD DUP1 SWAP2 SUB SWAP1 REVERT JUMPDEST PUSH1 0x0 DUP1 DUP1 PUSH2 0x5F4 DUP6 DUP8 ADD DUP8 PUSH2 0x4F60 JUMP JUMPDEST SWAP3 POP SWAP3 POP SWAP3 POP PUSH2 0x605 DUP4 DUP4 DUP4 PUSH2 0x27F6 JUMP JUMPDEST POP POP POP POP POP POP JUMP JUMPDEST PUSH1 0x0 DUP1 PUSH2 0x61F DUP9 DUP9 DUP9 CALLER DUP10 DUP10 DUP10 PUSH2 0x29D0 JUMP JUMPDEST PUSH1 0x0 DUP2 DUP2 MSTORE PUSH1 0x4 PUSH1 0x20 MSTORE PUSH1 0x40 SWAP1 KECCAK256 SLOAD PUSH1 0xFF AND SWAP3 POP SWAP1 POP DUP2 ISZERO PUSH2 0x65C JUMPI PUSH1 0x0 DUP2 DUP2 MSTORE PUSH1 0x4 PUSH1 0x20 MSTORE PUSH1 0x40 SWAP1 KECCAK256 DUP1 SLOAD PUSH1 0xFF NOT AND SWAP1 SSTORE PUSH2 0x65C DUP5 CALLER DUP6 PUSH2 0x27F6 JUMP JUMPDEST POP SWAP7 SWAP6 POP POP POP POP POP POP JUMP JUMPDEST DUP1 MLOAD PUSH1 0x20 DUP3 ADD KECCAK256 PUSH1 0x40 MLOAD PUSH2 0x67C SWAP1 DUP5 SWAP1 PUSH2 0x4FBA JUMP JUMPDEST PUSH1 0x40 MLOAD DUP1 SWAP2 SUB SWAP1 KECCAK256 CALLER PUSH20 0xFFFFFFFFFFFFFFFFFFFFFFFFFFFFFFFFFFFFFFFF AND PUSH32 0x30AE6CC78C27E651745BF2AD08A11DE83910AC1E347A52F7AC898C0FBEF94DAE DUP7 DUP6 PUSH1 0x40 MLOAD PUSH2 0x6CC SWAP3 SWAP2 SWAP1 PUSH2 0x4FD6 JUMP JUMPDEST PUSH1 0x40 MLOAD DUP1 SWAP2 SUB SWAP1 LOG4 POP POP POP JUMP JUMPDEST PUSH2 0x6E4 CALLER DUP4 DUP4 PUSH2 0x2A34 JUMP JUMPDEST DUP3 PUSH1 0x40 MLOAD PUSH2 0x6F2 SWAP2 SWAP1 PUSH2 0x4FBA JUMP JUMPDEST PUSH1 0x40 MLOAD DUP1 SWAP2 SUB SWAP1 KECCAK256 CALLER PUSH20 0xFFFFFFFFFFFFFFFFFFFFFFFFFFFFFFFFFFFFFFFF AND PUSH32 0x651D93F66C4329630E8D0F62488EFF599E3BE484DA587335E8DC0FCF46062726 DUP7 DUP6 DUP6 PUSH1 0x40 MLOAD PUSH2 0x744 SWAP4 SWAP3 SWAP2 SWAP1 PUSH2 0x5004 JUMP JUMPDEST PUSH1 0x40 MLOAD DUP1 SWAP2 SUB SWAP1 LOG3 POP POP POP POP JUMP JUMPDEST PUSH1 0x0 PUSH2 0x7A5 PUSH32 0xD51DC9B187568BB94760866E1D0D066CA470037D2D331AFB1A02EC74BFB8990C PUSH1 0x0 SWAP1 DUP2 MSTORE PUSH1 0x20 MSTORE PUSH32 0xF8D0C05CD32E3272241FDC9D5839565F8BCF94139CB4BD09E230E1B57A60DDC2 SLOAD SWAP1 JUMP JUMPDEST SWAP1 POP PUSH2 0x7B1 DUP2 CALLER PUSH2 0x2DB4 JUMP JUMPDEST PUSH2 0x7FD JUMPI PUSH1 0x40 MLOAD PUSH3 0x461BCD PUSH1 0xE5 SHL DUP2 MSTORE PUSH1 0x20 PUSH1 0x4 DUP3 ADD MSTORE PUSH1 0x9 PUSH1 0x24 DUP3 ADD MSTORE PUSH32 0x4E4F545F41444D494E0000000000000000000000000000000000000000000000 PUSH1 0x44 DUP3 ADD MSTORE PUSH1 0x64 ADD PUSH2 0x5DB JUMP JUMPDEST PUSH1 0x0 DUP1 CALLDATASIZE PUSH1 0x40 MLOAD PUSH2 0x80F SWAP3 SWAP2 SWAP1 PUSH2 0x503A JUMP JUMPDEST PUSH1 0x40 MLOAD DUP1 SWAP2 SUB SWAP1 KECCAK256 SWAP1 POP PUSH2 0x824 DUP3 DUP3 CALLER PUSH2 0x2DCA JUMP JUMPDEST ISZERO PUSH2 0x871 JUMPI PUSH1 0x40 MLOAD PUSH3 0x461BCD PUSH1 0xE5 SHL DUP2 MSTORE PUSH1 0x20 PUSH1 0x4 DUP3 ADD MSTORE PUSH1 0x5 PUSH1 0x24 DUP3 ADD MSTORE PUSH32 0x564F544544000000000000000000000000000000000000000000000000000000 PUSH1 0x44 DUP3 ADD MSTORE PUSH1 0x64 ADD PUSH2 0x5DB JUMP JUMPDEST PUSH2 0x87E DUP3 DUP3 CALLER PUSH1 0x1 PUSH2 0x2E5B JUMP JUMPDEST PUSH1 0x0 PUSH1 0x1 PUSH2 0x88C DUP5 DUP5 PUSH2 0x2EF9 JUMP JUMPDEST PUSH2 0x896 SWAP2 SWAP1 PUSH2 0x5079 JUMP JUMPDEST SWAP1 POP PUSH2 0x8A3 DUP4 DUP4 DUP4 PUSH2 0x2F08 JUMP JUMPDEST PUSH2 0x8AC DUP4 PUSH2 0x2F2D JUMP JUMPDEST DUP2 LT ISZERO PUSH2 0x8B9 JUMPI POP POP POP POP JUMP JUMPDEST PUSH2 0x8DD PUSH2 0x8C5 DUP6 PUSH2 0x2F3B JUMP JUMPDEST PUSH1 0x0 SWAP1 DUP2 MSTORE PUSH1 0x4 PUSH1 0x20 MSTORE PUSH1 0x40 SWAP1 KECCAK256 DUP1 SLOAD PUSH1 0xFF NOT AND SWAP1 SSTORE JUMP JUMPDEST DUP4 PUSH1 0x40 MLOAD PUSH2 0x8EB SWAP2 SWAP1 PUSH2 0x4FBA JUMP JUMPDEST PUSH1 0x40 MLOAD SWAP1 DUP2 SWAP1 SUB DUP2 KECCAK256 SWAP1 PUSH32 0x5327E3AF9CD2D5C19A8DFF23EF487D7A4D5F6FC985464F1792A33C2120575989 SWAP1 PUSH1 0x0 SWAP1 LOG2 PUSH2 0x927 DUP4 DUP4 PUSH1 0x0 PUSH2 0x2F08 JUMP JUMPDEST PUSH1 0x0 PUSH2 0x932 DUP5 PUSH2 0x2F8D JUMP JUMPDEST SWAP1 POP PUSH1 0x0 JUMPDEST DUP2 DUP2 LT ISZERO PUSH2 0x605 JUMPI PUSH2 0x955 DUP6 DUP6 PUSH2 0x94E DUP9 DUP6 PUSH2 0x2F9B JUMP JUMPDEST PUSH1 0x0 PUSH2 0x2E5B JUMP JUMPDEST DUP1 PUSH2 0x95F DUP2 PUSH2 0x5091 JUMP JUMPDEST SWAP2 POP POP PUSH2 0x937 JUMP JUMPDEST CALLER ADDRESS EQ PUSH2 0x9B6 JUMPI PUSH1 0x40 MLOAD PUSH3 0x461BCD PUSH1 0xE5 SHL DUP2 MSTORE PUSH1 0x20 PUSH1 0x4 DUP3 ADD MSTORE PUSH1 0x8 PUSH1 0x24 DUP3 ADD MSTORE PUSH32 0x4E4F545F53454C46000000000000000000000000000000000000000000000000 PUSH1 0x44 DUP3 ADD MSTORE PUSH1 0x64 ADD PUSH2 0x5DB JUMP JUMPDEST PUSH1 0x0 DUP1 PUSH2 0x9C5 DUP5 DUP7 ADD DUP7 PUSH2 0x50CA JUMP JUMPDEST SWAP2 POP SWAP2 POP PUSH2 0x9D3 DUP3 DUP3 PUSH2 0x2FAA JUMP JUMPDEST POP POP POP POP POP JUMP JUMPDEST CALLER ADDRESS EQ PUSH2 0xA29 JUMPI PUSH1 0x40 MLOAD PUSH3 0x461BCD PUSH1 0xE5 SHL DUP2 MSTORE PUSH1 0x20 PUSH1 0x4 DUP3 ADD MSTORE PUSH1 0x8 PUSH1 0x24 DUP3 ADD MSTORE PUSH32 0x4E4F545F53454C46000000000000000000000000000000000000000000000000 PUSH1 0x44 DUP3 ADD MSTORE PUSH1 0x64 ADD PUSH2 0x5DB JUMP JUMPDEST PUSH1 0x0 DUP1 DUP1 DUP1 DUP1 DUP1 PUSH2 0xA3C DUP9 DUP11 ADD DUP11 PUSH2 0x510F JUMP JUMPDEST SWAP6 POP SWAP6 POP SWAP6 POP SWAP6 POP SWAP6 POP SWAP6 POP PUSH2 0xA57 DUP8 DUP8 DUP8 DUP8 DUP8 DUP8 DUP8 PUSH2 0x3375 JUMP JUMPDEST POP POP POP POP POP POP POP POP POP JUMP JUMPDEST PUSH1 0x0 DUP1 PUSH2 0xA72 DUP7 DUP7 DUP7 CALLER DUP8 PUSH2 0x33E3 JUMP JUMPDEST PUSH1 0x0 DUP2 DUP2 MSTORE PUSH1 0x4 PUSH1 0x20 MSTORE PUSH1 0x40 SWAP1 KECCAK256 SLOAD PUSH1 0xFF AND SWAP3 POP SWAP1 POP DUP2 ISZERO PUSH2 0xAA5 JUMPI PUSH1 0x0 DUP2 DUP2 MSTORE PUSH1 0x4 PUSH1 0x20 MSTORE PUSH1 0x40 SWAP1 KECCAK256 DUP1 SLOAD PUSH1 0xFF NOT AND SWAP1 SSTORE JUMPDEST POP SWAP5 SWAP4 POP POP POP POP JUMP JUMPDEST PUSH1 0x0 PUSH2 0xB01 PUSH32 0xD51DC9B187568BB94760866E1D0D066CA470037D2D331AFB1A02EC74BFB8990C PUSH1 0x0 SWAP1 DUP2 MSTORE PUSH1 0x20 MSTORE PUSH32 0xF8D0C05CD32E3272241FDC9D5839565F8BCF94139CB4BD09E230E1B57A60DDC2 SLOAD SWAP1 JUMP JUMPDEST SWAP1 POP PUSH2 0xB0D DUP2 CALLER PUSH2 0x2DB4 JUMP JUMPDEST PUSH2 0xB59 JUMPI PUSH1 0x40 MLOAD PUSH3 0x461BCD PUSH1 0xE5 SHL DUP2 MSTORE PUSH1 0x20 PUSH1 0x4 DUP3 ADD MSTORE PUSH1 0x9 PUSH1 0x24 DUP3 ADD MSTORE PUSH32 0x4E4F545F41444D494E0000000000000000000000000000000000000000000000 PUSH1 0x44 DUP3 ADD MSTORE PUSH1 0x64 ADD PUSH2 0x5DB JUMP JUMPDEST PUSH1 0x0 DUP1 CALLDATASIZE PUSH1 0x40 MLOAD PUSH2 0xB6B SWAP3 SWAP2 SWAP1 PUSH2 0x503A JUMP JUMPDEST PUSH1 0x40 MLOAD DUP1 SWAP2 SUB SWAP1 KECCAK256 SWAP1 POP PUSH2 0xB80 DUP3 DUP3 CALLER PUSH2 0x2DCA JUMP JUMPDEST ISZERO PUSH2 0xBCD JUMPI PUSH1 0x40 MLOAD PUSH3 0x461BCD PUSH1 0xE5 SHL DUP2 MSTORE PUSH1 0x20 PUSH1 0x4 DUP3 ADD MSTORE PUSH1 0x5 PUSH1 0x24 DUP3 ADD MSTORE PUSH32 0x564F544544000000000000000000000000000000000000000000000000000000 PUSH1 0x44 DUP3 ADD MSTORE PUSH1 0x64 ADD PUSH2 0x5DB JUMP JUMPDEST PUSH2 0xBDA DUP3 DUP3 CALLER PUSH1 0x1 PUSH2 0x2E5B JUMP JUMPDEST PUSH1 0x0 PUSH1 0x1 PUSH2 0xBE8 DUP5 DUP5 PUSH2 0x2EF9 JUMP JUMPDEST PUSH2 0xBF2 SWAP2 SWAP1 PUSH2 0x5079 JUMP JUMPDEST SWAP1 POP PUSH2 0xBFF DUP4 DUP4 DUP4 PUSH2 0x2F08 JUMP JUMPDEST PUSH2 0xC08 DUP4 PUSH2 0x2F2D JUMP JUMPDEST DUP2 LT ISZERO PUSH2 0xC15 JUMPI POP POP POP POP JUMP JUMPDEST PUSH2 0xC3C PUSH2 0xC21 DUP6 PUSH2 0x2F3B JUMP JUMPDEST PUSH1 0x0 SWAP1 DUP2 MSTORE PUSH1 0x4 PUSH1 0x20 MSTORE PUSH1 0x40 SWAP1 KECCAK256 DUP1 SLOAD PUSH1 0xFF NOT AND PUSH1 0x1 OR SWAP1 SSTORE JUMP JUMPDEST DUP4 PUSH1 0x40 MLOAD PUSH2 0xC4A SWAP2 SWAP1 PUSH2 0x4FBA JUMP JUMPDEST PUSH1 0x40 MLOAD SWAP1 DUP2 SWAP1 SUB DUP2 KECCAK256 SWAP1 PUSH32 0x11260C92ECB021C33706DB3A9699410F343D5F2175201A4551FE7634347A0CF1 SWAP1 PUSH1 0x0 SWAP1 LOG2 PUSH2 0xC86 DUP4 DUP4 PUSH1 0x0 PUSH2 0x2F08 JUMP JUMPDEST PUSH1 0x0 PUSH2 0xC91 DUP5 PUSH2 0x2F8D JUMP JUMPDEST SWAP1 POP PUSH1 0x0 JUMPDEST DUP2 DUP2 LT ISZERO PUSH2 0x605 JUMPI PUSH2 0xCAD DUP6 DUP6 PUSH2 0x94E DUP9 DUP6 PUSH2 0x2F9B JUMP JUMPDEST DUP1 PUSH2 0xCB7 DUP2 PUSH2 0x5091 JUMP JUMPDEST SWAP2 POP POP PUSH2 0xC96 JUMP JUMPDEST PUSH1 0x0 PUSH2 0xCCD PUSH2 0x399 DUP4 PUSH2 0x2F3B JUMP JUMPDEST SWAP3 SWAP2 POP POP JUMP JUMPDEST CALLER ADDRESS EQ PUSH2 0xD22 JUMPI PUSH1 0x40 MLOAD PUSH3 0x461BCD PUSH1 0xE5 SHL DUP2 MSTORE PUSH1 0x20 PUSH1 0x4 DUP3 ADD MSTORE PUSH1 0x8 PUSH1 0x24 DUP3 ADD MSTORE PUSH32 0x4E4F545F53454C46000000000000000000000000000000000000000000000000 PUSH1 0x44 DUP3 ADD MSTORE PUSH1 0x64 ADD PUSH2 0x5DB JUMP JUMPDEST PUSH1 0x0 DUP1 PUSH2 0xD31 DUP5 DUP7 ADD DUP7 PUSH2 0x5201 JUMP JUMPDEST SWAP2 POP SWAP2 POP PUSH1 0x0 PUSH2 0xD88 PUSH32 0x67CBDFF49954077D2DD5637524B03BFE3E6506D456859017A888FAD567E1AF03 PUSH1 0x0 SWAP1 DUP2 MSTORE PUSH1 0x20 MSTORE PUSH32 0x6F01C2F096E745C2A207FBF93BABD5E7EE6ACFD26F0F34A0E4AC68373C21D0E SLOAD SWAP1 JUMP JUMPDEST SWAP1 POP PUSH32 0xD167B96814CD24898418CC293E8D47D54AFE6DCF0631283F0830E1EAE621F6BD PUSH2 0xDB3 PUSH2 0x1917 JUMP JUMPDEST PUSH2 0xDBC DUP4 PUSH2 0x3441 JUMP JUMPDEST DUP6 DUP6 PUSH1 0x40 MLOAD PUSH2 0xDCE SWAP5 SWAP4 SWAP3 SWAP2 SWAP1 PUSH2 0x5237 JUMP JUMPDEST PUSH1 0x40 MLOAD DUP1 SWAP2 SUB SWAP1 LOG1 PUSH2 0xE32 PUSH2 0xDE2 DUP3 PUSH2 0x5091 JUMP JUMPDEST SWAP2 POP DUP2 PUSH32 0x67CBDFF49954077D2DD5637524B03BFE3E6506D456859017A888FAD567E1AF03 PUSH1 0x0 SWAP1 DUP2 MSTORE PUSH1 0x20 MSTORE PUSH32 0x6F01C2F096E745C2A207FBF93BABD5E7EE6ACFD26F0F34A0E4AC68373C21D0E SSTORE JUMP JUMPDEST PUSH2 0x605 DUP2 DUP5 DUP5 PUSH2 0x3452 JUMP JUMPDEST CALLER ADDRESS EQ PUSH2 0xE8C JUMPI PUSH1 0x40 MLOAD PUSH3 0x461BCD PUSH1 0xE5 SHL DUP2 MSTORE PUSH1 0x20 PUSH1 0x4 DUP3 ADD MSTORE PUSH1 0x8 PUSH1 0x24 DUP3 ADD MSTORE PUSH32 0x4E4F545F53454C46000000000000000000000000000000000000000000000000 PUSH1 0x44 DUP3 ADD MSTORE PUSH1 0x64 ADD PUSH2 0x5DB JUMP JUMPDEST PUSH1 0x0 DUP1 DUP1 DUP1 DUP1 PUSH2 0xE9E DUP8 DUP10 ADD DUP10 PUSH2 0x5274 JUMP JUMPDEST SWAP5 POP SWAP5 POP SWAP5 POP SWAP5 POP SWAP5 POP PUSH2 0xEB5 DUP6 DUP6 DUP6 DUP6 DUP6 PUSH2 0x35B2 JUMP JUMPDEST POP POP POP POP POP POP POP POP JUMP JUMPDEST PUSH1 0x0 PUSH2 0xCCD PUSH2 0x266 DUP4 PUSH2 0x38A0 JUMP JUMPDEST CALLER ADDRESS EQ PUSH2 0xF1C JUMPI PUSH1 0x40 MLOAD PUSH3 0x461BCD PUSH1 0xE5 SHL DUP2 MSTORE PUSH1 0x20 PUSH1 0x4 DUP3 ADD MSTORE PUSH1 0x8 PUSH1 0x24 DUP3 ADD MSTORE PUSH32 0x4E4F545F53454C46000000000000000000000000000000000000000000000000 PUSH1 0x44 DUP3 ADD MSTORE PUSH1 0x64 ADD PUSH2 0x5DB JUMP JUMPDEST PUSH1 0x0 DUP1 PUSH2 0xF2B DUP5 DUP7 ADD DUP7 PUSH2 0x5201 JUMP JUMPDEST SWAP2 POP SWAP2 POP PUSH1 0x0 PUSH2 0xF82 PUSH32 0x67CBDFF49954077D2DD5637524B03BFE3E6506D456859017A888FAD567E1AF03 PUSH1 0x0 SWAP1 DUP2 MSTORE PUSH1 0x20 MSTORE PUSH32 0x6F01C2F096E745C2A207FBF93BABD5E7EE6ACFD26F0F34A0E4AC68373C21D0E SLOAD SWAP1 JUMP JUMPDEST SWAP1 POP PUSH32 0xE7475DA747EAD33C03118A4B2CCA5E521E930DD8DDC556751FE12D1E8395DB2C PUSH2 0xFAD PUSH2 0x1F21 JUMP JUMPDEST PUSH2 0xFB6 DUP4 PUSH2 0x38D5 JUMP JUMPDEST DUP6 DUP6 PUSH1 0x40 MLOAD PUSH2 0xFC8 SWAP5 SWAP4 SWAP3 SWAP2 SWAP1 PUSH2 0x5237 JUMP JUMPDEST PUSH1 0x40 MLOAD DUP1 SWAP2 SUB SWAP1 LOG1 PUSH1 0x0 PUSH2 0x1023 PUSH32 0x5369FB791F26307F8E69B07625302CCAC6930AF09AB22D753B17D2042E9992E7 PUSH1 0x0 SWAP1 DUP2 MSTORE PUSH1 0x20 MSTORE PUSH32 0x7174C149A4F7627AC1DD39B679BD42F12FC4E8D7E850B055662BBEE7188DA10 SLOAD SWAP1 JUMP JUMPDEST SWAP1 POP PUSH2 0x1081 PUSH2 0x1031 DUP3 PUSH2 0x5091 JUMP JUMPDEST SWAP2 POP DUP2 PUSH32 0x5369FB791F26307F8E69B07625302CCAC6930AF09AB22D753B17D2042E9992E7 PUSH1 0x0 SWAP1 DUP2 MSTORE PUSH1 0x20 MSTORE PUSH32 0x7174C149A4F7627AC1DD39B679BD42F12FC4E8D7E850B055662BBEE7188DA10 SSTORE JUMP JUMPDEST PUSH2 0x108C DUP2 DUP6 DUP6 PUSH2 0x38E3 JUMP JUMPDEST POP POP POP POP POP POP POP JUMP JUMPDEST PUSH1 0x0 DUP2 DUP2 MSTORE PUSH1 0x1 PUSH1 0x20 MSTORE PUSH1 0x40 SWAP1 KECCAK256 DUP1 SLOAD PUSH1 0x60 SWAP2 SWAP1 PUSH2 0x10B2 SWAP1 PUSH2 0x530F JUMP JUMPDEST DUP1 PUSH1 0x1F ADD PUSH1 0x20 DUP1 SWAP2 DIV MUL PUSH1 0x20 ADD PUSH1 0x40 MLOAD SWAP1 DUP2 ADD PUSH1 0x40 MSTORE DUP1 SWAP3 SWAP2 SWAP1 DUP2 DUP2 MSTORE PUSH1 0x20 ADD DUP3 DUP1 SLOAD PUSH2 0x10DE SWAP1 PUSH2 0x530F JUMP JUMPDEST DUP1 ISZERO PUSH2 0x112B JUMPI DUP1 PUSH1 0x1F LT PUSH2 0x1100 JUMPI PUSH2 0x100 DUP1 DUP4 SLOAD DIV MUL DUP4 MSTORE SWAP2 PUSH1 0x20 ADD SWAP2 PUSH2 0x112B JUMP JUMPDEST DUP3 ADD SWAP2 SWAP1 PUSH1 0x0 MSTORE PUSH1 0x20 PUSH1 0x0 KECCAK256 SWAP1 JUMPDEST DUP2 SLOAD DUP2 MSTORE SWAP1 PUSH1 0x1 ADD SWAP1 PUSH1 0x20 ADD DUP1 DUP4 GT PUSH2 0x110E JUMPI DUP3 SWAP1 SUB PUSH1 0x1F AND DUP3 ADD SWAP2 JUMPDEST POP POP POP POP POP SWAP1 POP SWAP2 SWAP1 POP JUMP JUMPDEST PUSH1 0x0 PUSH2 0x11A0 PUSH32 0x360894A13BA1A3210667C828492DB98DCA3E2076CC3735A920A3CA505D382BBC PUSH1 0x0 MSTORE PUSH1 0x2 PUSH1 0x20 MSTORE PUSH32 0x11141F466C69FD409E1990E063B49CD6D61ED2ECFF27A2E402E259CA6B9A01A3 SLOAD PUSH20 0xFFFFFFFFFFFFFFFFFFFFFFFFFFFFFFFFFFFFFFFF AND SWAP1 JUMP JUMPDEST PUSH20 0xFFFFFFFFFFFFFFFFFFFFFFFFFFFFFFFFFFFFFFFF AND EQ ISZERO PUSH2 0x1204 JUMPI PUSH1 0x40 MLOAD PUSH3 0x461BCD PUSH1 0xE5 SHL DUP2 MSTORE PUSH1 0x20 PUSH1 0x4 DUP3 ADD MSTORE PUSH1 0x9 PUSH1 0x24 DUP3 ADD MSTORE PUSH32 0x4E4F545F50524F58590000000000000000000000000000000000000000000000 PUSH1 0x44 DUP3 ADD MSTORE PUSH1 0x64 ADD PUSH2 0x5DB JUMP JUMPDEST PUSH1 0x0 DUP1 DUP1 DUP1 DUP1 DUP1 PUSH2 0x1217 DUP8 DUP10 ADD DUP10 PUSH2 0x5363 JUMP JUMPDEST SWAP6 POP SWAP6 POP SWAP6 POP SWAP6 POP SWAP6 POP SWAP6 POP PUSH1 0x0 PUSH1 0x1 PUSH2 0x1278 PUSH32 0xD51DC9B187568BB94760866E1D0D066CA470037D2D331AFB1A02EC74BFB8990C PUSH1 0x0 SWAP1 DUP2 MSTORE PUSH1 0x20 MSTORE PUSH32 0xF8D0C05CD32E3272241FDC9D5839565F8BCF94139CB4BD09E230E1B57A60DDC2 SLOAD SWAP1 JUMP JUMPDEST PUSH2 0x1282 SWAP2 SWAP1 PUSH2 0x5079 JUMP JUMPDEST SWAP1 POP PUSH2 0x12D5 DUP2 PUSH32 0xD51DC9B187568BB94760866E1D0D066CA470037D2D331AFB1A02EC74BFB8990C PUSH1 0x0 SWAP1 DUP2 MSTORE PUSH1 0x20 MSTORE PUSH32 0xF8D0C05CD32E3272241FDC9D5839565F8BCF94139CB4BD09E230E1B57A60DDC2 SSTORE JUMP JUMPDEST PUSH2 0x12E0 DUP2 DUP9 DUP9 PUSH2 0x3A43 JUMP JUMPDEST PUSH1 0x0 PUSH1 0x1 PUSH2 0x1335 PUSH32 0x67CBDFF49954077D2DD5637524B03BFE3E6506D456859017A888FAD567E1AF03 PUSH1 0x0 SWAP1 DUP2 MSTORE PUSH1 0x20 MSTORE PUSH32 0x6F01C2F096E745C2A207FBF93BABD5E7EE6ACFD26F0F34A0E4AC68373C21D0E SLOAD SWAP1 JUMP JUMPDEST PUSH2 0x133F SWAP2 SWAP1 PUSH2 0x5079 JUMP JUMPDEST SWAP1 POP PUSH2 0x1392 DUP2 PUSH32 0x67CBDFF49954077D2DD5637524B03BFE3E6506D456859017A888FAD567E1AF03 PUSH1 0x0 SWAP1 DUP2 MSTORE PUSH1 0x20 MSTORE PUSH32 0x6F01C2F096E745C2A207FBF93BABD5E7EE6ACFD26F0F34A0E4AC68373C21D0E SSTORE JUMP JUMPDEST PUSH2 0x139D DUP2 DUP8 DUP8 PUSH2 0x3452 JUMP JUMPDEST PUSH1 0x0 PUSH1 0x1 PUSH2 0x13F2 PUSH32 0x5369FB791F26307F8E69B07625302CCAC6930AF09AB22D753B17D2042E9992E7 PUSH1 0x0 SWAP1 DUP2 MSTORE PUSH1 0x20 MSTORE PUSH32 0x7174C149A4F7627AC1DD39B679BD42F12FC4E8D7E850B055662BBEE7188DA10 SLOAD SWAP1 JUMP JUMPDEST PUSH2 0x13FC SWAP2 SWAP1 PUSH2 0x5079 JUMP JUMPDEST SWAP1 POP PUSH2 0x144F DUP2 PUSH32 0x5369FB791F26307F8E69B07625302CCAC6930AF09AB22D753B17D2042E9992E7 PUSH1 0x0 SWAP1 DUP2 MSTORE PUSH1 0x20 MSTORE PUSH32 0x7174C149A4F7627AC1DD39B679BD42F12FC4E8D7E850B055662BBEE7188DA10 SSTORE JUMP JUMPDEST PUSH2 0x145A DUP2 DUP7 DUP7 PUSH2 0x38E3 JUMP JUMPDEST PUSH1 0x40 DUP1 MLOAD PUSH1 0x0 DUP1 DUP3 MSTORE PUSH1 0x20 DUP3 ADD SWAP3 DUP4 SWAP1 MSTORE PUSH32 0xD167B96814CD24898418CC293E8D47D54AFE6DCF0631283F0830E1EAE621F6BD SWAP3 PUSH2 0x149C SWAP3 SWAP2 SWAP1 DUP12 SWAP1 DUP12 SWAP1 PUSH2 0x5237 JUMP JUMPDEST PUSH1 0x40 MLOAD DUP1 SWAP2 SUB SWAP1 LOG1 PUSH1 0x40 DUP1 MLOAD PUSH1 0x0 DUP1 DUP3 MSTORE PUSH1 0x20 DUP3 ADD SWAP3 DUP4 SWAP1 MSTORE PUSH32 0xE7475DA747EAD33C03118A4B2CCA5E521E930DD8DDC556751FE12D1E8395DB2C SWAP3 PUSH2 0x14E6 SWAP3 SWAP2 SWAP1 DUP10 SWAP1 DUP10 SWAP1 PUSH2 0x5237 JUMP JUMPDEST PUSH1 0x40 MLOAD DUP1 SWAP2 SUB SWAP1 LOG1 POP POP POP POP POP POP POP POP POP POP POP JUMP JUMPDEST PUSH1 0x0 PUSH2 0x154E PUSH32 0xD51DC9B187568BB94760866E1D0D066CA470037D2D331AFB1A02EC74BFB8990C PUSH1 0x0 SWAP1 DUP2 MSTORE PUSH1 0x20 MSTORE PUSH32 0xF8D0C05CD32E3272241FDC9D5839565F8BCF94139CB4BD09E230E1B57A60DDC2 SLOAD SWAP1 JUMP JUMPDEST SWAP1 POP PUSH2 0x155A DUP2 CALLER PUSH2 0x2DB4 JUMP JUMPDEST PUSH2 0x15A6 JUMPI PUSH1 0x40 MLOAD PUSH3 0x461BCD PUSH1 0xE5 SHL DUP2 MSTORE PUSH1 0x20 PUSH1 0x4 DUP3 ADD MSTORE PUSH1 0x9 PUSH1 0x24 DUP3 ADD MSTORE PUSH32 0x4E4F545F41444D494E0000000000000000000000000000000000000000000000 PUSH1 0x44 DUP3 ADD MSTORE PUSH1 0x64 ADD PUSH2 0x5DB JUMP JUMPDEST PUSH1 0x0 DUP1 CALLDATASIZE PUSH1 0x40 MLOAD PUSH2 0x15B8 SWAP3 SWAP2 SWAP1 PUSH2 0x503A JUMP JUMPDEST PUSH1 0x40 MLOAD DUP1 SWAP2 SUB SWAP1 KECCAK256 SWAP1 POP PUSH2 0x15CD DUP3 DUP3 CALLER PUSH2 0x2DCA JUMP JUMPDEST ISZERO PUSH2 0x161A JUMPI PUSH1 0x40 MLOAD PUSH3 0x461BCD PUSH1 0xE5 SHL DUP2 MSTORE PUSH1 0x20 PUSH1 0x4 DUP3 ADD MSTORE PUSH1 0x5 PUSH1 0x24 DUP3 ADD MSTORE PUSH32 0x564F544544000000000000000000000000000000000000000000000000000000 PUSH1 0x44 DUP3 ADD MSTORE PUSH1 0x64 ADD PUSH2 0x5DB JUMP JUMPDEST PUSH2 0x1627 DUP3 DUP3 CALLER PUSH1 0x1 PUSH2 0x2E5B JUMP JUMPDEST PUSH1 0x0 PUSH1 0x1 PUSH2 0x1635 DUP5 DUP5 PUSH2 0x2EF9 JUMP JUMPDEST PUSH2 0x163F SWAP2 SWAP1 PUSH2 0x5079 JUMP JUMPDEST SWAP1 POP PUSH2 0x164C DUP4 DUP4 DUP4 PUSH2 0x2F08 JUMP JUMPDEST PUSH2 0x1655 DUP4 PUSH2 0x2F2D JUMP JUMPDEST DUP2 LT ISZERO PUSH2 0x1664 JUMPI POP POP POP PUSH2 0x58A JUMP JUMPDEST DUP7 PUSH20 0xFFFFFFFFFFFFFFFFFFFFFFFFFFFFFFFFFFFFFFFF AND EXTCODEHASH DUP7 EQ PUSH2 0x16CA JUMPI PUSH1 0x40 MLOAD PUSH3 0x461BCD PUSH1 0xE5 SHL DUP2 MSTORE PUSH1 0x20 PUSH1 0x4 DUP3 ADD MSTORE PUSH1 0xC PUSH1 0x24 DUP3 ADD MSTORE PUSH32 0x494E565F434F4445484153480000000000000000000000000000000000000000 PUSH1 0x44 DUP3 ADD MSTORE PUSH1 0x64 ADD PUSH2 0x5DB JUMP JUMPDEST PUSH1 0x40 MLOAD PUSH20 0xFFFFFFFFFFFFFFFFFFFFFFFFFFFFFFFFFFFFFFFF DUP9 AND SWAP1 PUSH32 0xBC7CD75A20EE27FD9ADEBAB32041F755214DBC6BFFA90CC0225B39DA2E5C2D3B SWAP1 PUSH1 0x0 SWAP1 LOG2 DUP4 ISZERO PUSH2 0x1843 JUMPI PUSH1 0x0 DUP8 PUSH20 0xFFFFFFFFFFFFFFFFFFFFFFFFFFFFFFFFFFFFFFFF AND PUSH4 0x9DED06DF PUSH1 0xE0 SHL DUP8 DUP8 PUSH1 0x40 MLOAD PUSH1 0x24 ADD PUSH2 0x1745 SWAP3 SWAP2 SWAP1 PUSH2 0x53F3 JUMP JUMPDEST PUSH1 0x40 DUP1 MLOAD PUSH1 0x1F NOT DUP2 DUP5 SUB ADD DUP2 MSTORE SWAP2 DUP2 MSTORE PUSH1 0x20 DUP3 ADD DUP1 MLOAD PUSH28 0xFFFFFFFFFFFFFFFFFFFFFFFFFFFFFFFFFFFFFFFFFFFFFFFFFFFFFFFF AND PUSH32 0xFFFFFFFF00000000000000000000000000000000000000000000000000000000 SWAP1 SWAP5 AND SWAP4 SWAP1 SWAP4 OR SWAP1 SWAP3 MSTORE SWAP1 MLOAD PUSH2 0x17B0 SWAP2 SWAP1 PUSH2 0x4FBA JUMP JUMPDEST PUSH1 0x0 PUSH1 0x40 MLOAD DUP1 DUP4 SUB DUP2 DUP6 GAS DELEGATECALL SWAP2 POP POP RETURNDATASIZE DUP1 PUSH1 0x0 DUP2 EQ PUSH2 0x17EB JUMPI PUSH1 0x40 MLOAD SWAP2 POP PUSH1 0x1F NOT PUSH1 0x3F RETURNDATASIZE ADD AND DUP3 ADD PUSH1 0x40 MSTORE RETURNDATASIZE DUP3 MSTORE RETURNDATASIZE PUSH1 0x0 PUSH1 0x20 DUP5 ADD RETURNDATACOPY PUSH2 0x17F0 JUMP JUMPDEST PUSH1 0x60 SWAP2 POP JUMPDEST POP POP SWAP1 POP DUP1 PUSH2 0x1841 JUMPI PUSH1 0x40 MLOAD PUSH3 0x461BCD PUSH1 0xE5 SHL DUP2 MSTORE PUSH1 0x20 PUSH1 0x4 DUP3 ADD MSTORE PUSH1 0xC PUSH1 0x24 DUP3 ADD MSTORE PUSH32 0x53455455505F4641494C45440000000000000000000000000000000000000000 PUSH1 0x44 DUP3 ADD MSTORE PUSH1 0x64 ADD PUSH2 0x5DB JUMP JUMPDEST POP JUMPDEST PUSH2 0x18D2 DUP8 PUSH32 0x360894A13BA1A3210667C828492DB98DCA3E2076CC3735A920A3CA505D382BBC PUSH1 0x0 MSTORE PUSH1 0x2 PUSH1 0x20 MSTORE PUSH32 0x11141F466C69FD409E1990E063B49CD6D61ED2ECFF27A2E402E259CA6B9A01A3 DUP1 SLOAD PUSH32 0xFFFFFFFFFFFFFFFFFFFFFFFF0000000000000000000000000000000000000000 AND PUSH20 0xFFFFFFFFFFFFFFFFFFFFFFFFFFFFFFFFFFFFFFFF DUP4 AND OR SWAP1 SSTORE POP JUMP JUMPDEST PUSH2 0x18DE DUP4 DUP4 PUSH1 0x0 PUSH2 0x2F08 JUMP JUMPDEST PUSH1 0x0 PUSH2 0x18E9 DUP5 PUSH2 0x2F8D JUMP JUMPDEST SWAP1 POP PUSH1 0x0 JUMPDEST DUP2 DUP2 LT ISZERO PUSH2 0xA57 JUMPI PUSH2 0x1905 DUP6 DUP6 PUSH2 0x94E DUP9 DUP6 PUSH2 0x2F9B JUMP JUMPDEST DUP1 PUSH2 0x190F DUP2 PUSH2 0x5091 JUMP JUMPDEST SWAP2 POP POP PUSH2 0x18EE JUMP JUMPDEST PUSH1 0x60 PUSH1 0x0 PUSH2 0x196C PUSH32 0x67CBDFF49954077D2DD5637524B03BFE3E6506D456859017A888FAD567E1AF03 PUSH1 0x0 SWAP1 DUP2 MSTORE PUSH1 0x20 MSTORE PUSH32 0x6F01C2F096E745C2A207FBF93BABD5E7EE6ACFD26F0F34A0E4AC68373C21D0E SLOAD SWAP1 JUMP JUMPDEST SWAP1 POP PUSH1 0x0 PUSH2 0x1979 DUP3 PUSH2 0x3BA3 JUMP JUMPDEST SWAP1 POP DUP1 PUSH8 0xFFFFFFFFFFFFFFFF DUP2 GT ISZERO PUSH2 0x1994 JUMPI PUSH2 0x1994 PUSH2 0x4948 JUMP JUMPDEST PUSH1 0x40 MLOAD SWAP1 DUP1 DUP3 MSTORE DUP1 PUSH1 0x20 MUL PUSH1 0x20 ADD DUP3 ADD PUSH1 0x40 MSTORE DUP1 ISZERO PUSH2 0x19BD JUMPI DUP2 PUSH1 0x20 ADD PUSH1 0x20 DUP3 MUL DUP1 CALLDATASIZE DUP4 CALLDATACOPY ADD SWAP1 POP JUMPDEST POP SWAP3 POP PUSH1 0x0 JUMPDEST DUP2 DUP2 LT ISZERO PUSH2 0x1A1E JUMPI PUSH2 0x19D5 DUP4 DUP3 PUSH2 0x3BB1 JUMP JUMPDEST DUP5 DUP3 DUP2 MLOAD DUP2 LT PUSH2 0x19E7 JUMPI PUSH2 0x19E7 PUSH2 0x5422 JUMP JUMPDEST PUSH20 0xFFFFFFFFFFFFFFFFFFFFFFFFFFFFFFFFFFFFFFFF SWAP1 SWAP3 AND PUSH1 0x20 SWAP3 DUP4 MUL SWAP2 SWAP1 SWAP2 ADD SWAP1 SWAP2 ADD MSTORE DUP1 PUSH2 0x1A16 DUP2 PUSH2 0x5091 JUMP JUMPDEST SWAP2 POP POP PUSH2 0x19C3 JUMP JUMPDEST POP POP POP SWAP1 JUMP JUMPDEST PUSH2 0x1A2F CALLER DUP4 DUP4 PUSH2 0x2A34 JUMP JUMPDEST DUP3 MLOAD PUSH1 0x20 DUP5 ADD KECCAK256 PUSH1 0x40 MLOAD PUSH2 0x1A44 SWAP1 DUP7 SWAP1 PUSH2 0x4FBA JUMP JUMPDEST PUSH1 0x40 MLOAD DUP1 SWAP2 SUB SWAP1 KECCAK256 CALLER PUSH20 0xFFFFFFFFFFFFFFFFFFFFFFFFFFFFFFFFFFFFFFFF AND PUSH32 0x7E50569D26BE643BDA7757722291EC66B1BE66D8283474AE3FAB5A98F878A7A2 DUP9 DUP8 DUP8 DUP8 PUSH1 0x40 MLOAD PUSH2 0x1A98 SWAP5 SWAP4 SWAP3 SWAP2 SWAP1 PUSH2 0x5451 JUMP JUMPDEST PUSH1 0x40 MLOAD DUP1 SWAP2 SUB SWAP1 LOG4 POP POP POP POP POP JUMP JUMPDEST PUSH1 0x0 DUP2 DUP2 MSTORE PUSH1 0x3 PUSH1 0x20 MSTORE PUSH1 0x40 SWAP1 KECCAK256 DUP1 SLOAD PUSH1 0x60 SWAP2 SWAP1 PUSH2 0x10B2 SWAP1 PUSH2 0x530F JUMP JUMPDEST PUSH1 0x0 PUSH2 0xCCD PUSH2 0x399 DUP4 PUSH2 0x3BC0 JUMP JUMPDEST PUSH1 0x0 PUSH2 0x1B25 PUSH32 0xD51DC9B187568BB94760866E1D0D066CA470037D2D331AFB1A02EC74BFB8990C PUSH1 0x0 SWAP1 DUP2 MSTORE PUSH1 0x20 MSTORE PUSH32 0xF8D0C05CD32E3272241FDC9D5839565F8BCF94139CB4BD09E230E1B57A60DDC2 SLOAD SWAP1 JUMP JUMPDEST SWAP1 POP PUSH2 0x1B31 DUP2 CALLER PUSH2 0x2DB4 JUMP JUMPDEST PUSH2 0x1B7D JUMPI PUSH1 0x40 MLOAD PUSH3 0x461BCD PUSH1 0xE5 SHL DUP2 MSTORE PUSH1 0x20 PUSH1 0x4 DUP3 ADD MSTORE PUSH1 0x9 PUSH1 0x24 DUP3 ADD MSTORE PUSH32 0x4E4F545F41444D494E0000000000000000000000000000000000000000000000 PUSH1 0x44 DUP3 ADD MSTORE PUSH1 0x64 ADD PUSH2 0x5DB JUMP JUMPDEST PUSH1 0x0 DUP1 CALLDATASIZE PUSH1 0x40 MLOAD PUSH2 0x1B8F SWAP3 SWAP2 SWAP1 PUSH2 0x503A JUMP JUMPDEST PUSH1 0x40 MLOAD DUP1 SWAP2 SUB SWAP1 KECCAK256 SWAP1 POP PUSH2 0x1BA4 DUP3 DUP3 CALLER PUSH2 0x2DCA JUMP JUMPDEST ISZERO PUSH2 0x1BF1 JUMPI PUSH1 0x40 MLOAD PUSH3 0x461BCD PUSH1 0xE5 SHL DUP2 MSTORE PUSH1 0x20 PUSH1 0x4 DUP3 ADD MSTORE PUSH1 0x5 PUSH1 0x24 DUP3 ADD MSTORE PUSH32 0x564F544544000000000000000000000000000000000000000000000000000000 PUSH1 0x44 DUP3 ADD MSTORE PUSH1 0x64 ADD PUSH2 0x5DB JUMP JUMPDEST PUSH2 0x1BFE DUP3 DUP3 CALLER PUSH1 0x1 PUSH2 0x2E5B JUMP JUMPDEST PUSH1 0x0 PUSH1 0x1 PUSH2 0x1C0C DUP5 DUP5 PUSH2 0x2EF9 JUMP JUMPDEST PUSH2 0x1C16 SWAP2 SWAP1 PUSH2 0x5079 JUMP JUMPDEST SWAP1 POP PUSH2 0x1C23 DUP4 DUP4 DUP4 PUSH2 0x2F08 JUMP JUMPDEST PUSH2 0x1C2C DUP4 PUSH2 0x2F2D JUMP JUMPDEST DUP2 LT ISZERO PUSH2 0x1C38 JUMPI POP POP POP JUMP JUMPDEST PUSH32 0x75A31D1CE8E5F9892188BEFC328D3B9BD3FA5037457E881ABC21F388471B8D96 PUSH1 0x0 MSTORE PUSH1 0x4 PUSH1 0x20 MSTORE PUSH32 0xA0B596B8942D6EF5CC77CE0AD89A75F0BFCC7F0132CD8DB58E8449DCF04A858A DUP1 SLOAD PUSH1 0xFF NOT AND PUSH1 0x1 OR SWAP1 SSTORE PUSH1 0x40 MLOAD PUSH32 0x9F428B56CA209118783DB391E8A5A62827B6B218ADD33411061060D308AF6EAD SWAP1 PUSH1 0x0 SWAP1 LOG1 PUSH2 0x1CC2 DUP4 DUP4 PUSH1 0x0 PUSH2 0x2F08 JUMP JUMPDEST PUSH1 0x0 PUSH2 0x1CCD DUP5 PUSH2 0x2F8D JUMP JUMPDEST SWAP1 POP PUSH1 0x0 JUMPDEST DUP2 DUP2 LT ISZERO PUSH2 0x9D3 JUMPI PUSH2 0x1CE9 DUP6 DUP6 PUSH2 0x94E DUP9 DUP6 PUSH2 0x2F9B JUMP JUMPDEST DUP1 PUSH2 0x1CF3 DUP2 PUSH2 0x5091 JUMP JUMPDEST SWAP2 POP POP PUSH2 0x1CD2 JUMP JUMPDEST PUSH1 0x0 PUSH2 0x1D4E PUSH32 0xD51DC9B187568BB94760866E1D0D066CA470037D2D331AFB1A02EC74BFB8990C PUSH1 0x0 SWAP1 DUP2 MSTORE PUSH1 0x20 MSTORE PUSH32 0xF8D0C05CD32E3272241FDC9D5839565F8BCF94139CB4BD09E230E1B57A60DDC2 SLOAD SWAP1 JUMP JUMPDEST SWAP1 POP PUSH2 0x1D5A DUP2 CALLER PUSH2 0x2DB4 JUMP JUMPDEST PUSH2 0x1DA6 JUMPI PUSH1 0x40 MLOAD PUSH3 0x461BCD PUSH1 0xE5 SHL DUP2 MSTORE PUSH1 0x20 PUSH1 0x4 DUP3 ADD MSTORE PUSH1 0x9 PUSH1 0x24 DUP3 ADD MSTORE PUSH32 0x4E4F545F41444D494E0000000000000000000000000000000000000000000000 PUSH1 0x44 DUP3 ADD MSTORE PUSH1 0x64 ADD PUSH2 0x5DB JUMP JUMPDEST PUSH1 0x0 DUP1 CALLDATASIZE PUSH1 0x40 MLOAD PUSH2 0x1DB8 SWAP3 SWAP2 SWAP1 PUSH2 0x503A JUMP JUMPDEST PUSH1 0x40 MLOAD DUP1 SWAP2 SUB SWAP1 KECCAK256 SWAP1 POP PUSH2 0x1DCD DUP3 DUP3 CALLER PUSH2 0x2DCA JUMP JUMPDEST ISZERO PUSH2 0x1E1A JUMPI PUSH1 0x40 MLOAD PUSH3 0x461BCD PUSH1 0xE5 SHL DUP2 MSTORE PUSH1 0x20 PUSH1 0x4 DUP3 ADD MSTORE PUSH1 0x5 PUSH1 0x24 DUP3 ADD MSTORE PUSH32 0x564F544544000000000000000000000000000000000000000000000000000000 PUSH1 0x44 DUP3 ADD MSTORE PUSH1 0x64 ADD PUSH2 0x5DB JUMP JUMPDEST PUSH2 0x1E27 DUP3 DUP3 CALLER PUSH1 0x1 PUSH2 0x2E5B JUMP JUMPDEST PUSH1 0x0 PUSH1 0x1 PUSH2 0x1E35 DUP5 DUP5 PUSH2 0x2EF9 JUMP JUMPDEST PUSH2 0x1E3F SWAP2 SWAP1 PUSH2 0x5079 JUMP JUMPDEST SWAP1 POP PUSH2 0x1E4C DUP4 DUP4 DUP4 PUSH2 0x2F08 JUMP JUMPDEST PUSH2 0x1E55 DUP4 PUSH2 0x2F2D JUMP JUMPDEST DUP2 LT ISZERO PUSH2 0x1E61 JUMPI POP POP POP JUMP JUMPDEST PUSH32 0x75A31D1CE8E5F9892188BEFC328D3B9BD3FA5037457E881ABC21F388471B8D96 PUSH1 0x0 MSTORE PUSH1 0x4 PUSH1 0x20 MSTORE PUSH32 0xA0B596B8942D6EF5CC77CE0AD89A75F0BFCC7F0132CD8DB58E8449DCF04A858A DUP1 SLOAD PUSH1 0xFF NOT AND SWAP1 SSTORE PUSH1 0x40 MLOAD PUSH32 0xE821FF109470F6AA1AEBB161AA0E7328B1A8552AA48E09ED2D03184ECECE9A6 SWAP1 PUSH1 0x0 SWAP1 LOG1 PUSH2 0x1EE8 DUP4 DUP4 PUSH1 0x0 PUSH2 0x2F08 JUMP JUMPDEST PUSH1 0x0 PUSH2 0x1EF3 DUP5 PUSH2 0x2F8D JUMP JUMPDEST SWAP1 POP PUSH1 0x0 JUMPDEST DUP2 DUP2 LT ISZERO PUSH2 0x9D3 JUMPI PUSH2 0x1F0F DUP6 DUP6 PUSH2 0x94E DUP9 DUP6 PUSH2 0x2F9B JUMP JUMPDEST DUP1 PUSH2 0x1F19 DUP2 PUSH2 0x5091 JUMP JUMPDEST SWAP2 POP POP PUSH2 0x1EF8 JUMP JUMPDEST PUSH1 0x60 PUSH1 0x0 PUSH2 0x1F76 PUSH32 0x5369FB791F26307F8E69B07625302CCAC6930AF09AB22D753B17D2042E9992E7 PUSH1 0x0 SWAP1 DUP2 MSTORE PUSH1 0x20 MSTORE PUSH32 0x7174C149A4F7627AC1DD39B679BD42F12FC4E8D7E850B055662BBEE7188DA10 SLOAD SWAP1 JUMP JUMPDEST SWAP1 POP PUSH1 0x0 PUSH2 0x1F83 DUP3 PUSH2 0x3BFB JUMP JUMPDEST SWAP1 POP DUP1 PUSH8 0xFFFFFFFFFFFFFFFF DUP2 GT ISZERO PUSH2 0x1F9E JUMPI PUSH2 0x1F9E PUSH2 0x4948 JUMP JUMPDEST PUSH1 0x40 MLOAD SWAP1 DUP1 DUP3 MSTORE DUP1 PUSH1 0x20 MUL PUSH1 0x20 ADD DUP3 ADD PUSH1 0x40 MSTORE DUP1 ISZERO PUSH2 0x1FC7 JUMPI DUP2 PUSH1 0x20 ADD PUSH1 0x20 DUP3 MUL DUP1 CALLDATASIZE DUP4 CALLDATACOPY ADD SWAP1 POP JUMPDEST POP SWAP3 POP PUSH1 0x0 JUMPDEST DUP2 DUP2 LT ISZERO PUSH2 0x1A1E JUMPI PUSH2 0x1FDF DUP4 DUP3 PUSH2 0x3C09 JUMP JUMPDEST DUP5 DUP3 DUP2 MLOAD DUP2 LT PUSH2 0x1FF1 JUMPI PUSH2 0x1FF1 PUSH2 0x5422 JUMP JUMPDEST PUSH20 0xFFFFFFFFFFFFFFFFFFFFFFFFFFFFFFFFFFFFFFFF SWAP1 SWAP3 AND PUSH1 0x20 SWAP3 DUP4 MUL SWAP2 SWAP1 SWAP2 ADD SWAP1 SWAP2 ADD MSTORE DUP1 PUSH2 0x2020 DUP2 PUSH2 0x5091 JUMP JUMPDEST SWAP2 POP POP PUSH2 0x1FCD JUMP JUMPDEST CALLER ADDRESS EQ PUSH2 0x2077 JUMPI PUSH1 0x40 MLOAD PUSH3 0x461BCD PUSH1 0xE5 SHL DUP2 MSTORE PUSH1 0x20 PUSH1 0x4 DUP3 ADD MSTORE PUSH1 0x8 PUSH1 0x24 DUP3 ADD MSTORE PUSH32 0x4E4F545F53454C46000000000000000000000000000000000000000000000000 PUSH1 0x44 DUP3 ADD MSTORE PUSH1 0x64 ADD PUSH2 0x5DB JUMP JUMPDEST PUSH1 0x0 DUP1 DUP1 DUP1 PUSH2 0x2088 DUP7 DUP9 ADD DUP9 PUSH2 0x548A JUMP JUMPDEST SWAP4 POP SWAP4 POP SWAP4 POP SWAP4 POP PUSH2 0x108C DUP6 DUP6 DUP6 DUP6 DUP6 PUSH2 0x3C18 JUMP JUMPDEST DUP1 MLOAD PUSH1 0x0 DUP2 PUSH8 0xFFFFFFFFFFFFFFFF DUP2 GT ISZERO PUSH2 0x20BA JUMPI PUSH2 0x20BA PUSH2 0x4948 JUMP JUMPDEST PUSH1 0x40 MLOAD SWAP1 DUP1 DUP3 MSTORE DUP1 PUSH1 0x20 MUL PUSH1 0x20 ADD DUP3 ADD PUSH1 0x40 MSTORE DUP1 ISZERO PUSH2 0x20E3 JUMPI DUP2 PUSH1 0x20 ADD PUSH1 0x20 DUP3 MUL DUP1 CALLDATASIZE DUP4 CALLDATACOPY ADD SWAP1 POP JUMPDEST POP SWAP1 POP PUSH1 0x0 JUMPDEST DUP3 DUP2 LT ISZERO PUSH2 0x216C JUMPI PUSH2 0x2123 PUSH2 0x2104 DUP7 DUP1 MLOAD SWAP1 PUSH1 0x20 ADD KECCAK256 PUSH2 0x3C6F JUMP JUMPDEST DUP6 DUP4 DUP2 MLOAD DUP2 LT PUSH2 0x2116 JUMPI PUSH2 0x2116 PUSH2 0x5422 JUMP JUMPDEST PUSH1 0x20 MUL PUSH1 0x20 ADD ADD MLOAD PUSH2 0x3CAA JUMP JUMPDEST DUP3 DUP3 DUP2 MLOAD DUP2 LT PUSH2 0x2135 JUMPI PUSH2 0x2135 PUSH2 0x5422 JUMP JUMPDEST PUSH20 0xFFFFFFFFFFFFFFFFFFFFFFFFFFFFFFFFFFFFFFFF SWAP1 SWAP3 AND PUSH1 0x20 SWAP3 DUP4 MUL SWAP2 SWAP1 SWAP2 ADD SWAP1 SWAP2 ADD MSTORE DUP1 PUSH2 0x2164 DUP2 PUSH2 0x5091 JUMP JUMPDEST SWAP2 POP POP PUSH2 0x20E9 JUMP JUMPDEST POP PUSH1 0x0 DUP1 PUSH1 0x0 DUP1 PUSH1 0x0 DUP9 DUP1 PUSH1 0x20 ADD SWAP1 MLOAD DUP2 ADD SWAP1 PUSH2 0x2189 SWAP2 SWAP1 PUSH2 0x566D JUMP JUMPDEST SWAP5 POP SWAP5 POP SWAP5 POP SWAP5 POP SWAP5 POP CHAINID DUP6 EQ PUSH2 0x21E2 JUMPI PUSH1 0x40 MLOAD PUSH3 0x461BCD PUSH1 0xE5 SHL DUP2 MSTORE PUSH1 0x20 PUSH1 0x4 DUP3 ADD MSTORE PUSH1 0x9 PUSH1 0x24 DUP3 ADD MSTORE PUSH32 0x494E565F434841494E0000000000000000000000000000000000000000000000 PUSH1 0x44 DUP3 ADD MSTORE PUSH1 0x64 ADD PUSH2 0x5DB JUMP JUMPDEST PUSH2 0x21EB DUP7 PUSH2 0x3EAE JUMP JUMPDEST PUSH2 0x2237 JUMPI PUSH1 0x40 MLOAD PUSH3 0x461BCD PUSH1 0xE5 SHL DUP2 MSTORE PUSH1 0x20 PUSH1 0x4 DUP3 ADD MSTORE PUSH1 0xB PUSH1 0x24 DUP3 ADD MSTORE PUSH32 0x4455505F5349474E455253000000000000000000000000000000000000000000 PUSH1 0x44 DUP3 ADD MSTORE PUSH1 0x64 ADD PUSH2 0x5DB JUMP JUMPDEST DUP3 MLOAD DUP3 MLOAD DUP2 EQ DUP1 ISZERO PUSH2 0x2249 JUMPI POP DUP2 MLOAD DUP2 EQ JUMPDEST PUSH2 0x2295 JUMPI PUSH1 0x40 MLOAD PUSH3 0x461BCD PUSH1 0xE5 SHL DUP2 MSTORE PUSH1 0x20 PUSH1 0x4 DUP3 ADD MSTORE PUSH1 0x8 PUSH1 0x24 DUP3 ADD MSTORE PUSH32 0x494E565F434D4453000000000000000000000000000000000000000000000000 PUSH1 0x44 DUP3 ADD MSTORE PUSH1 0x64 ADD PUSH2 0x5DB JUMP JUMPDEST PUSH1 0x0 DUP1 DUP1 PUSH1 0x1 DUP9 PUSH1 0x2 DUP2 GT ISZERO PUSH2 0x22AD JUMPI PUSH2 0x22AD PUSH2 0x576F JUMP JUMPDEST EQ ISZERO PUSH2 0x2326 JUMPI PUSH2 0x230D PUSH2 0x2307 PUSH32 0x67CBDFF49954077D2DD5637524B03BFE3E6506D456859017A888FAD567E1AF03 PUSH1 0x0 SWAP1 DUP2 MSTORE PUSH1 0x20 MSTORE PUSH32 0x6F01C2F096E745C2A207FBF93BABD5E7EE6ACFD26F0F34A0E4AC68373C21D0E SLOAD SWAP1 JUMP JUMPDEST DUP12 PUSH2 0x3F58 JUMP JUMPDEST SWAP3 POP DUP3 DUP1 PUSH2 0x231F JUMPI POP PUSH2 0x231F DUP11 PUSH2 0x3FDC JUMP JUMPDEST SWAP2 POP PUSH2 0x234C JUMP JUMPDEST PUSH1 0x2 DUP9 PUSH1 0x2 DUP2 GT ISZERO PUSH2 0x233A JUMPI PUSH2 0x233A PUSH2 0x576F JUMP JUMPDEST EQ ISZERO PUSH2 0x234C JUMPI PUSH2 0x2349 DUP11 PUSH2 0x40A7 JUMP JUMPDEST SWAP1 POP JUMPDEST PUSH1 0x0 JUMPDEST DUP5 DUP2 LT ISZERO PUSH2 0x27E6 JUMPI PUSH1 0x0 DUP9 DUP3 DUP2 MLOAD DUP2 LT PUSH2 0x236B JUMPI PUSH2 0x236B PUSH2 0x5422 JUMP JUMPDEST PUSH1 0x20 MUL PUSH1 0x20 ADD ADD MLOAD SWAP1 POP PUSH2 0x237E DUP2 PUSH2 0x1AC4 JUMP JUMPDEST ISZERO PUSH2 0x2389 JUMPI POP PUSH2 0x27D4 JUMP JUMPDEST PUSH1 0x0 DUP1 DUP10 DUP5 DUP2 MLOAD DUP2 LT PUSH2 0x239E JUMPI PUSH2 0x239E PUSH2 0x5422 JUMP JUMPDEST PUSH1 0x20 MUL PUSH1 0x20 ADD ADD MLOAD PUSH1 0x40 MLOAD PUSH1 0x20 ADD PUSH2 0x23B6 SWAP2 SWAP1 PUSH2 0x4FBA JUMP JUMPDEST PUSH1 0x40 MLOAD PUSH1 0x20 DUP2 DUP4 SUB SUB DUP2 MSTORE SWAP1 PUSH1 0x40 MSTORE DUP1 MLOAD SWAP1 PUSH1 0x20 ADD KECCAK256 SWAP1 POP PUSH32 0x5763814B98A3AA86F212797AF3273868B5DD6E2A532D764A79B98CA859E7BBAD DUP2 EQ ISZERO PUSH2 0x242B JUMPI DUP6 PUSH2 0x2403 JUMPI POP POP POP PUSH2 0x27D4 JUMP JUMPDEST PUSH32 0x886A625D00000000000000000000000000000000000000000000000000000000 SWAP2 POP PUSH2 0x2691 JUMP JUMPDEST PUSH32 0xEC78D9C22C08BB9F0ECD5D95571AE83E3F22219C5A9278C3270691D50ABFD91B DUP2 EQ ISZERO PUSH2 0x2494 JUMPI DUP5 ISZERO DUP1 ISZERO PUSH2 0x245F JUMPI POP DUP6 ISZERO JUMPDEST ISZERO PUSH2 0x246C JUMPI POP POP POP PUSH2 0x27D4 JUMP JUMPDEST PUSH32 0x146E2D7800000000000000000000000000000000000000000000000000000000 SWAP2 POP PUSH2 0x2691 JUMP JUMPDEST PUSH32 0x37AC16AABC4D87540E53151B2B716265CFD6B195DB96A9DAF8E893C829BBD233 DUP2 EQ ISZERO PUSH2 0x24FD JUMPI DUP5 ISZERO DUP1 ISZERO PUSH2 0x24C8 JUMPI POP DUP6 ISZERO JUMPDEST ISZERO PUSH2 0x24D5 JUMPI POP POP POP PUSH2 0x27D4 JUMP JUMPDEST PUSH32 0xFBE0A31B00000000000000000000000000000000000000000000000000000000 SWAP2 POP PUSH2 0x2691 JUMP JUMPDEST PUSH32 0xF41504255B911B3042EE4F8786FDF7CF4BCF24ACE033FA16AF3C8574E025E436 DUP2 EQ ISZERO PUSH2 0x2566 JUMPI DUP5 ISZERO DUP1 ISZERO PUSH2 0x2531 JUMPI POP DUP6 ISZERO JUMPDEST ISZERO PUSH2 0x253E JUMPI POP POP POP PUSH2 0x27D4 JUMP JUMPDEST PUSH32 0x585A9FD400000000000000000000000000000000000000000000000000000000 SWAP2 POP PUSH2 0x2691 JUMP JUMPDEST PUSH32 0xDA199C0E76F665E0450020791C7F8EACC75F3CDBACE313272C28F93E5390B62C DUP2 EQ ISZERO PUSH2 0x25CF JUMPI DUP5 ISZERO DUP1 ISZERO PUSH2 0x259A JUMPI POP DUP6 ISZERO JUMPDEST ISZERO PUSH2 0x25A7 JUMPI POP POP POP PUSH2 0x27D4 JUMP JUMPDEST PUSH32 0x4656AE2E00000000000000000000000000000000000000000000000000000000 SWAP2 POP PUSH2 0x2691 JUMP JUMPDEST PUSH32 0x1D4A390F291E2E1F29874769EFDEF47DDAD94D76F77FF516FAD206A385E8995F DUP2 EQ ISZERO PUSH2 0x262C JUMPI DUP7 PUSH2 0x2604 JUMPI POP POP POP PUSH2 0x27D4 JUMP JUMPDEST PUSH32 0x7E8C811800000000000000000000000000000000000000000000000000000000 SWAP2 POP PUSH2 0x2691 JUMP JUMPDEST PUSH32 0xB460DCB6FD5797FC0E7EA0F13406C80D30702BA7F73A42BD91394775DCBCA718 DUP2 EQ ISZERO PUSH2 0x2689 JUMPI DUP7 PUSH2 0x2661 JUMPI POP POP POP PUSH2 0x27D4 JUMP JUMPDEST PUSH32 0x97B87BA600000000000000000000000000000000000000000000000000000000 SWAP2 POP PUSH2 0x2691 JUMP JUMPDEST POP POP POP PUSH2 0x27D4 JUMP JUMPDEST PUSH2 0x269C DUP4 PUSH1 0x1 PUSH2 0x415C JUMP JUMPDEST PUSH1 0x0 ADDRESS PUSH20 0xFFFFFFFFFFFFFFFFFFFFFFFFFFFFFFFFFFFFFFFF AND DUP4 DUP12 DUP8 DUP2 MLOAD DUP2 LT PUSH2 0x26C8 JUMPI PUSH2 0x26C8 PUSH2 0x5422 JUMP JUMPDEST PUSH1 0x20 MUL PUSH1 0x20 ADD ADD MLOAD DUP7 PUSH1 0x40 MLOAD PUSH1 0x24 ADD PUSH2 0x26E2 SWAP3 SWAP2 SWAP1 PUSH2 0x579E JUMP JUMPDEST PUSH1 0x40 DUP1 MLOAD PUSH1 0x1F NOT DUP2 DUP5 SUB ADD DUP2 MSTORE SWAP2 DUP2 MSTORE PUSH1 0x20 DUP3 ADD DUP1 MLOAD PUSH28 0xFFFFFFFFFFFFFFFFFFFFFFFFFFFFFFFFFFFFFFFFFFFFFFFFFFFFFFFF AND PUSH32 0xFFFFFFFF00000000000000000000000000000000000000000000000000000000 SWAP1 SWAP5 AND SWAP4 SWAP1 SWAP4 OR SWAP1 SWAP3 MSTORE SWAP1 MLOAD PUSH2 0x274D SWAP2 SWAP1 PUSH2 0x4FBA JUMP JUMPDEST PUSH1 0x0 PUSH1 0x40 MLOAD DUP1 DUP4 SUB DUP2 PUSH1 0x0 DUP7 GAS CALL SWAP2 POP POP RETURNDATASIZE DUP1 PUSH1 0x0 DUP2 EQ PUSH2 0x278A JUMPI PUSH1 0x40 MLOAD SWAP2 POP PUSH1 0x1F NOT PUSH1 0x3F RETURNDATASIZE ADD AND DUP3 ADD PUSH1 0x40 MSTORE RETURNDATASIZE DUP3 MSTORE RETURNDATASIZE PUSH1 0x0 PUSH1 0x20 DUP5 ADD RETURNDATACOPY PUSH2 0x278F JUMP JUMPDEST PUSH1 0x60 SWAP2 POP JUMPDEST POP POP SWAP1 POP PUSH2 0x279D DUP5 DUP3 PUSH2 0x415C JUMP JUMPDEST DUP1 ISZERO PUSH2 0x27CF JUMPI PUSH1 0x40 MLOAD DUP5 SWAP1 PUSH32 0xA74C8847D513FEBA22A0F0CB38D53081ABF97562CDB293926BA243689E7C41CA SWAP1 PUSH1 0x0 SWAP1 LOG2 JUMPDEST POP POP POP POP JUMPDEST DUP1 PUSH2 0x27DE DUP2 PUSH2 0x5091 JUMP JUMPDEST SWAP2 POP POP PUSH2 0x234F JUMP JUMPDEST POP POP POP POP POP POP POP POP POP POP POP POP POP POP JUMP JUMPDEST PUSH1 0x0 PUSH2 0x2801 DUP5 PUSH2 0xEBF JUMP JUMPDEST SWAP1 POP PUSH20 0xFFFFFFFFFFFFFFFFFFFFFFFFFFFFFFFFFFFFFFFF DUP2 AND PUSH2 0x2866 JUMPI PUSH1 0x40 MLOAD PUSH3 0x461BCD PUSH1 0xE5 SHL DUP2 MSTORE PUSH1 0x20 PUSH1 0x4 DUP3 ADD MSTORE PUSH1 0xF PUSH1 0x24 DUP3 ADD MSTORE PUSH32 0x544F4B454E5F4E4F545F45584953540000000000000000000000000000000000 PUSH1 0x44 DUP3 ADD MSTORE PUSH1 0x64 ADD PUSH2 0x5DB JUMP JUMPDEST PUSH1 0x2 PUSH2 0x2871 DUP6 PUSH2 0x416C JUMP JUMPDEST PUSH1 0x2 DUP2 GT ISZERO PUSH2 0x2882 JUMPI PUSH2 0x2882 PUSH2 0x576F JUMP JUMPDEST EQ ISZERO PUSH2 0x294C JUMPI PUSH1 0x40 DUP1 MLOAD PUSH20 0xFFFFFFFFFFFFFFFFFFFFFFFFFFFFFFFFFFFFFFFF DUP6 AND PUSH1 0x24 DUP3 ADD MSTORE PUSH1 0x44 DUP1 DUP3 ADD DUP6 SWAP1 MSTORE DUP3 MLOAD DUP1 DUP4 SUB SWAP1 SWAP2 ADD DUP2 MSTORE PUSH1 0x64 SWAP1 SWAP2 ADD DUP3 MSTORE PUSH1 0x20 DUP1 DUP3 ADD DUP1 MLOAD PUSH28 0xFFFFFFFFFFFFFFFFFFFFFFFFFFFFFFFFFFFFFFFFFFFFFFFFFFFFFFFF AND PUSH32 0xA9059CBB00000000000000000000000000000000000000000000000000000000 OR SWAP1 MSTORE DUP3 MLOAD DUP1 DUP5 ADD SWAP1 SWAP4 MSTORE PUSH1 0x9 DUP4 MSTORE PUSH32 0x4D494E545F4641494C0000000000000000000000000000000000000000000000 SWAP1 DUP4 ADD MSTORE PUSH2 0x2947 SWAP2 DUP4 SWAP2 SWAP1 PUSH2 0x418B JUMP JUMPDEST PUSH2 0x58A JUMP JUMPDEST PUSH1 0x40 MLOAD PUSH32 0x40C10F1900000000000000000000000000000000000000000000000000000000 DUP2 MSTORE PUSH20 0xFFFFFFFFFFFFFFFFFFFFFFFFFFFFFFFFFFFFFFFF DUP5 DUP2 AND PUSH1 0x4 DUP4 ADD MSTORE PUSH1 0x24 DUP3 ADD DUP5 SWAP1 MSTORE DUP3 AND SWAP1 PUSH4 0x40C10F19 SWAP1 PUSH1 0x44 ADD PUSH1 0x0 PUSH1 0x40 MLOAD DUP1 DUP4 SUB DUP2 PUSH1 0x0 DUP8 DUP1 EXTCODESIZE ISZERO DUP1 ISZERO PUSH2 0x29BC JUMPI PUSH1 0x0 DUP1 REVERT JUMPDEST POP GAS CALL ISZERO DUP1 ISZERO PUSH2 0xEB5 JUMPI RETURNDATASIZE PUSH1 0x0 DUP1 RETURNDATACOPY RETURNDATASIZE PUSH1 0x0 REVERT JUMPDEST PUSH1 0x0 PUSH32 0xB7AD972B71475860613DB3BA1FE699B886C878F9002A09250DC25E769EB19A10 DUP9 DUP9 DUP9 DUP9 DUP9 DUP9 DUP9 PUSH1 0x40 MLOAD PUSH1 0x20 ADD PUSH2 0x2A11 SWAP9 SWAP8 SWAP7 SWAP6 SWAP5 SWAP4 SWAP3 SWAP2 SWAP1 PUSH2 0x57C0 JUMP JUMPDEST PUSH1 0x40 MLOAD PUSH1 0x20 DUP2 DUP4 SUB SUB DUP2 MSTORE SWAP1 PUSH1 0x40 MSTORE DUP1 MLOAD SWAP1 PUSH1 0x20 ADD KECCAK256 SWAP1 POP SWAP8 SWAP7 POP POP POP POP POP POP POP JUMP JUMPDEST PUSH1 0x0 PUSH2 0x2A3F DUP4 PUSH2 0xEBF JUMP JUMPDEST SWAP1 POP PUSH20 0xFFFFFFFFFFFFFFFFFFFFFFFFFFFFFFFFFFFFFFFF DUP2 AND PUSH2 0x2AA4 JUMPI PUSH1 0x40 MLOAD PUSH3 0x461BCD PUSH1 0xE5 SHL DUP2 MSTORE PUSH1 0x20 PUSH1 0x4 DUP3 ADD MSTORE PUSH1 0xF PUSH1 0x24 DUP3 ADD MSTORE PUSH32 0x544F4B454E5F4E4F545F45584953540000000000000000000000000000000000 PUSH1 0x44 DUP3 ADD MSTORE PUSH1 0x64 ADD PUSH2 0x5DB JUMP JUMPDEST PUSH1 0x0 PUSH2 0x2AAF DUP5 PUSH2 0x416C JUMP JUMPDEST PUSH1 0x40 DUP1 MLOAD DUP1 DUP3 ADD SWAP1 SWAP2 MSTORE PUSH1 0x9 DUP2 MSTORE PUSH32 0x4255524E5F4641494C0000000000000000000000000000000000000000000000 PUSH1 0x20 DUP3 ADD MSTORE SWAP1 SWAP2 POP PUSH1 0x2 DUP3 PUSH1 0x2 DUP2 GT ISZERO PUSH2 0x2AFA JUMPI PUSH2 0x2AFA PUSH2 0x576F JUMP JUMPDEST EQ ISZERO PUSH2 0x2BBD JUMPI PUSH1 0x40 MLOAD PUSH20 0xFFFFFFFFFFFFFFFFFFFFFFFFFFFFFFFFFFFFFFFF DUP8 AND PUSH1 0x24 DUP3 ADD MSTORE ADDRESS PUSH1 0x44 DUP3 ADD MSTORE PUSH1 0x64 DUP2 ADD DUP6 SWAP1 MSTORE PUSH2 0x605 SWAP1 DUP5 SWAP1 PUSH32 0x23B872DD00000000000000000000000000000000000000000000000000000000 SWAP1 PUSH1 0x84 ADD JUMPDEST PUSH1 0x40 DUP1 MLOAD PUSH1 0x1F NOT DUP2 DUP5 SUB ADD DUP2 MSTORE SWAP2 SWAP1 MSTORE PUSH1 0x20 DUP2 ADD DUP1 MLOAD PUSH28 0xFFFFFFFFFFFFFFFFFFFFFFFFFFFFFFFFFFFFFFFFFFFFFFFFFFFFFFFF AND PUSH32 0xFFFFFFFF00000000000000000000000000000000000000000000000000000000 SWAP1 SWAP4 AND SWAP3 SWAP1 SWAP3 OR SWAP1 SWAP2 MSTORE DUP4 PUSH2 0x418B JUMP JUMPDEST PUSH1 0x1 DUP3 PUSH1 0x2 DUP2 GT ISZERO PUSH2 0x2BD1 JUMPI PUSH2 0x2BD1 PUSH2 0x576F JUMP JUMPDEST EQ ISZERO PUSH2 0x2C2D JUMPI PUSH1 0x40 MLOAD PUSH20 0xFFFFFFFFFFFFFFFFFFFFFFFFFFFFFFFFFFFFFFFF DUP8 AND PUSH1 0x24 DUP3 ADD MSTORE PUSH1 0x44 DUP2 ADD DUP6 SWAP1 MSTORE PUSH2 0x605 SWAP1 DUP5 SWAP1 PUSH32 0x79CC679000000000000000000000000000000000000000000000000000000000 SWAP1 PUSH1 0x64 ADD PUSH2 0x2B58 JUMP JUMPDEST PUSH1 0x40 MLOAD PUSH32 0x31EECAF400000000000000000000000000000000000000000000000000000000 DUP2 MSTORE PUSH1 0x0 PUSH1 0x4 DUP3 ADD MSTORE PUSH2 0x2D2B SWAP1 DUP5 SWAP1 PUSH32 0x23B872DD00000000000000000000000000000000000000000000000000000000 SWAP1 DUP10 SWAP1 PUSH20 0xFFFFFFFFFFFFFFFFFFFFFFFFFFFFFFFFFFFFFFFF DUP5 AND SWAP1 PUSH4 0x31EECAF4 SWAP1 PUSH1 0x24 ADD PUSH1 0x20 PUSH1 0x40 MLOAD DUP1 DUP4 SUB DUP2 DUP7 DUP1 EXTCODESIZE ISZERO DUP1 ISZERO PUSH2 0x2CBD JUMPI PUSH1 0x0 DUP1 REVERT JUMPDEST POP GAS STATICCALL ISZERO DUP1 ISZERO PUSH2 0x2CD1 JUMPI RETURNDATASIZE PUSH1 0x0 DUP1 RETURNDATACOPY RETURNDATASIZE PUSH1 0x0 REVERT JUMPDEST POP POP POP POP PUSH1 0x40 MLOAD RETURNDATASIZE PUSH1 0x1F NOT PUSH1 0x1F DUP3 ADD AND DUP3 ADD DUP1 PUSH1 0x40 MSTORE POP DUP2 ADD SWAP1 PUSH2 0x2CF5 SWAP2 SWAP1 PUSH2 0x5858 JUMP JUMPDEST PUSH1 0x40 MLOAD PUSH20 0xFFFFFFFFFFFFFFFFFFFFFFFFFFFFFFFFFFFFFFFF SWAP3 DUP4 AND PUSH1 0x24 DUP3 ADD MSTORE SWAP2 AND PUSH1 0x44 DUP3 ADD MSTORE PUSH1 0x64 DUP2 ADD DUP9 SWAP1 MSTORE PUSH1 0x84 ADD PUSH2 0x2B58 JUMP JUMPDEST PUSH1 0x40 MLOAD PUSH32 0x8A1EEE100000000000000000000000000000000000000000000000000000000 DUP2 MSTORE PUSH1 0x0 PUSH1 0x4 DUP3 ADD MSTORE PUSH20 0xFFFFFFFFFFFFFFFFFFFFFFFFFFFFFFFFFFFFFFFF DUP5 AND SWAP1 PUSH4 0x8A1EEE1 SWAP1 PUSH1 0x24 ADD JUMPDEST PUSH1 0x0 PUSH1 0x40 MLOAD DUP1 DUP4 SUB DUP2 PUSH1 0x0 DUP8 DUP1 EXTCODESIZE ISZERO DUP1 ISZERO PUSH2 0x2D94 JUMPI PUSH1 0x0 DUP1 REVERT JUMPDEST POP GAS CALL ISZERO DUP1 ISZERO PUSH2 0x2DA8 JUMPI RETURNDATASIZE PUSH1 0x0 DUP1 RETURNDATACOPY RETURNDATASIZE PUSH1 0x0 REVERT JUMPDEST POP POP POP POP POP POP POP POP POP POP JUMP JUMPDEST PUSH1 0x0 PUSH2 0x2DC3 PUSH2 0x399 DUP5 DUP5 PUSH2 0x423E JUMP JUMPDEST SWAP4 SWAP3 POP POP POP JUMP JUMPDEST PUSH1 0x40 DUP1 MLOAD PUSH32 0x3CED7A8CAF1111E0FBF4B784C5B41AEBD0F2389D9F2F64D5C3424AEED3ADBD3C PUSH1 0x20 DUP1 DUP4 ADD SWAP2 SWAP1 SWAP2 MSTORE DUP2 DUP4 ADD DUP7 SWAP1 MSTORE PUSH1 0x60 DUP1 DUP4 ADD DUP7 SWAP1 MSTORE DUP5 SWAP1 SHL PUSH32 0xFFFFFFFFFFFFFFFFFFFFFFFFFFFFFFFFFFFFFFFF000000000000000000000000 AND PUSH1 0x80 DUP4 ADD MSTORE DUP3 MLOAD DUP1 DUP4 SUB PUSH1 0x74 ADD DUP2 MSTORE PUSH1 0x94 SWAP1 SWAP3 ADD SWAP1 SWAP3 MSTORE DUP1 MLOAD SWAP2 ADD KECCAK256 PUSH1 0x0 SWAP1 PUSH2 0x2E53 SWAP1 PUSH2 0x399 JUMP JUMPDEST SWAP5 SWAP4 POP POP POP POP JUMP JUMPDEST PUSH1 0x40 DUP1 MLOAD PUSH32 0x3CED7A8CAF1111E0FBF4B784C5B41AEBD0F2389D9F2F64D5C3424AEED3ADBD3C PUSH1 0x20 DUP1 DUP4 ADD SWAP2 SWAP1 SWAP2 MSTORE DUP2 DUP4 ADD DUP8 SWAP1 MSTORE PUSH1 0x60 DUP1 DUP4 ADD DUP8 SWAP1 MSTORE DUP6 SWAP1 SHL PUSH32 0xFFFFFFFFFFFFFFFFFFFFFFFFFFFFFFFFFFFFFFFF000000000000000000000000 AND PUSH1 0x80 DUP4 ADD MSTORE DUP3 MLOAD DUP1 DUP4 SUB PUSH1 0x74 ADD DUP2 MSTORE PUSH1 0x94 SWAP1 SWAP3 ADD SWAP1 SWAP3 MSTORE DUP1 MLOAD SWAP2 ADD KECCAK256 PUSH2 0x58A SWAP1 JUMPDEST PUSH1 0x0 SWAP1 DUP2 MSTORE PUSH1 0x4 PUSH1 0x20 MSTORE PUSH1 0x40 SWAP1 KECCAK256 DUP1 SLOAD PUSH1 0xFF NOT AND DUP4 ISZERO ISZERO OR SWAP1 SSTORE JUMP JUMPDEST PUSH1 0x0 PUSH2 0x2DC3 PUSH2 0x4DC DUP5 DUP5 PUSH2 0x42BE JUMP JUMPDEST PUSH2 0x2F28 PUSH2 0x2F15 DUP5 DUP5 PUSH2 0x42BE JUMP JUMPDEST DUP3 PUSH1 0x0 SWAP2 DUP3 MSTORE PUSH1 0x20 DUP3 SWAP1 MSTORE PUSH1 0x40 SWAP1 SWAP2 KECCAK256 SSTORE JUMP JUMPDEST POP POP POP JUMP JUMPDEST PUSH1 0x0 PUSH2 0xCCD PUSH2 0x4DC DUP4 PUSH2 0x4300 JUMP JUMPDEST PUSH1 0x0 PUSH32 0x1A7261D3A36C4CE4235D10859911C9444A6963A3591EC5725B96871D9810626B DUP3 PUSH1 0x40 MLOAD PUSH1 0x20 ADD PUSH2 0x2F70 SWAP3 SWAP2 SWAP1 PUSH2 0x5875 JUMP JUMPDEST PUSH1 0x40 MLOAD PUSH1 0x20 DUP2 DUP4 SUB SUB DUP2 MSTORE SWAP1 PUSH1 0x40 MSTORE DUP1 MLOAD SWAP1 PUSH1 0x20 ADD KECCAK256 SWAP1 POP SWAP2 SWAP1 POP JUMP JUMPDEST PUSH1 0x0 PUSH2 0xCCD PUSH2 0x4DC DUP4 PUSH2 0x433B JUMP JUMPDEST PUSH1 0x0 PUSH2 0x2DC3 PUSH2 0x266 DUP5 DUP5 PUSH2 0x4376 JUMP JUMPDEST PUSH1 0x0 PUSH2 0x2FB5 DUP4 PUSH2 0xEBF JUMP JUMPDEST SWAP1 POP PUSH20 0xFFFFFFFFFFFFFFFFFFFFFFFFFFFFFFFFFFFFFFFF DUP2 AND PUSH2 0x301A JUMPI PUSH1 0x40 MLOAD PUSH3 0x461BCD PUSH1 0xE5 SHL DUP2 MSTORE PUSH1 0x20 PUSH1 0x4 DUP3 ADD MSTORE PUSH1 0xF PUSH1 0x24 DUP3 ADD MSTORE PUSH32 0x544F4B454E5F4E4F545F45584953540000000000000000000000000000000000 PUSH1 0x44 DUP3 ADD MSTORE PUSH1 0x64 ADD PUSH2 0x5DB JUMP JUMPDEST PUSH1 0x2 PUSH2 0x3025 DUP5 PUSH2 0x416C JUMP JUMPDEST PUSH1 0x2 DUP2 GT ISZERO PUSH2 0x3036 JUMPI PUSH2 0x3036 PUSH2 0x576F JUMP JUMPDEST EQ ISZERO PUSH2 0x32F9 JUMPI PUSH1 0x0 DUP3 PUSH1 0x40 MLOAD PUSH2 0x304B SWAP1 PUSH2 0x4864 JUMP JUMPDEST DUP2 SWAP1 PUSH1 0x40 MLOAD DUP1 SWAP2 SUB SWAP1 PUSH1 0x0 CREATE2 SWAP1 POP DUP1 ISZERO DUP1 ISZERO PUSH2 0x306B JUMPI RETURNDATASIZE PUSH1 0x0 DUP1 RETURNDATACOPY RETURNDATASIZE PUSH1 0x0 REVERT JUMPDEST POP PUSH1 0x40 MLOAD PUSH32 0x70A0823100000000000000000000000000000000000000000000000000000000 DUP2 MSTORE PUSH20 0xFFFFFFFFFFFFFFFFFFFFFFFFFFFFFFFFFFFFFFFF DUP1 DUP4 AND PUSH1 0x4 DUP4 ADD DUP2 SWAP1 MSTORE SWAP3 SWAP4 POP PUSH1 0x0 SWAP3 DUP4 SWAP3 SWAP1 SWAP2 PUSH4 0x1CFF79CD SWAP2 DUP8 SWAP2 PUSH32 0xA9059CBB00000000000000000000000000000000000000000000000000000000 SWAP2 ADDRESS SWAP2 DUP5 AND SWAP1 PUSH4 0x70A08231 SWAP1 PUSH1 0x24 ADD PUSH1 0x20 PUSH1 0x40 MLOAD DUP1 DUP4 SUB DUP2 DUP7 DUP1 EXTCODESIZE ISZERO DUP1 ISZERO PUSH2 0x310B JUMPI PUSH1 0x0 DUP1 REVERT JUMPDEST POP GAS STATICCALL ISZERO DUP1 ISZERO PUSH2 0x311F JUMPI RETURNDATASIZE PUSH1 0x0 DUP1 RETURNDATACOPY RETURNDATASIZE PUSH1 0x0 REVERT JUMPDEST POP POP POP POP PUSH1 0x40 MLOAD RETURNDATASIZE PUSH1 0x1F NOT PUSH1 0x1F DUP3 ADD AND DUP3 ADD DUP1 PUSH1 0x40 MSTORE POP DUP2 ADD SWAP1 PUSH2 0x3143 SWAP2 SWAP1 PUSH2 0x589B JUMP JUMPDEST PUSH1 0x40 MLOAD PUSH20 0xFFFFFFFFFFFFFFFFFFFFFFFFFFFFFFFFFFFFFFFF SWAP1 SWAP3 AND PUSH1 0x24 DUP4 ADD MSTORE PUSH1 0x44 DUP3 ADD MSTORE PUSH1 0x64 ADD PUSH1 0x40 DUP1 MLOAD PUSH1 0x1F NOT DUP2 DUP5 SUB ADD DUP2 MSTORE SWAP2 DUP2 MSTORE PUSH1 0x20 DUP3 ADD DUP1 MLOAD PUSH28 0xFFFFFFFFFFFFFFFFFFFFFFFFFFFFFFFFFFFFFFFFFFFFFFFFFFFFFFFF AND PUSH32 0xFFFFFFFF00000000000000000000000000000000000000000000000000000000 SWAP5 DUP6 AND OR SWAP1 MSTORE MLOAD PUSH1 0xE0 DUP6 SWAP1 SHL SWAP1 SWAP3 AND DUP3 MSTORE PUSH2 0x31DE SWAP3 SWAP2 PUSH1 0x4 ADD PUSH2 0x58B4 JUMP JUMPDEST PUSH1 0x0 PUSH1 0x40 MLOAD DUP1 DUP4 SUB DUP2 PUSH1 0x0 DUP8 DUP1 EXTCODESIZE ISZERO DUP1 ISZERO PUSH2 0x31F8 JUMPI PUSH1 0x0 DUP1 REVERT JUMPDEST POP GAS CALL ISZERO DUP1 ISZERO PUSH2 0x320C JUMPI RETURNDATASIZE PUSH1 0x0 DUP1 RETURNDATACOPY RETURNDATASIZE PUSH1 0x0 REVERT JUMPDEST POP POP POP POP PUSH1 0x40 MLOAD RETURNDATASIZE PUSH1 0x0 DUP3 RETURNDATACOPY PUSH1 0x1F RETURNDATASIZE SWAP1 DUP2 ADD PUSH1 0x1F NOT AND DUP3 ADD PUSH1 0x40 MSTORE PUSH2 0x3234 SWAP2 SWAP1 DUP2 ADD SWAP1 PUSH2 0x58F8 JUMP JUMPDEST SWAP2 POP SWAP2 POP DUP2 DUP1 ISZERO PUSH2 0x325D JUMPI POP DUP1 MLOAD ISZERO DUP1 PUSH2 0x325D JUMPI POP DUP1 DUP1 PUSH1 0x20 ADD SWAP1 MLOAD DUP2 ADD SWAP1 PUSH2 0x325D SWAP2 SWAP1 PUSH2 0x5946 JUMP JUMPDEST PUSH2 0x32A9 JUMPI PUSH1 0x40 MLOAD PUSH3 0x461BCD PUSH1 0xE5 SHL DUP2 MSTORE PUSH1 0x20 PUSH1 0x4 DUP3 ADD MSTORE PUSH1 0x9 PUSH1 0x24 DUP3 ADD MSTORE PUSH32 0x4255524E5F4641494C0000000000000000000000000000000000000000000000 PUSH1 0x44 DUP3 ADD MSTORE PUSH1 0x64 ADD PUSH2 0x5DB JUMP JUMPDEST PUSH1 0x40 MLOAD PUSH31 0xF55D9D00000000000000000000000000000000000000000000000000000000 DUP2 MSTORE ADDRESS PUSH1 0x4 DUP3 ADD MSTORE PUSH20 0xFFFFFFFFFFFFFFFFFFFFFFFFFFFFFFFFFFFFFFFF DUP5 AND SWAP1 PUSH3 0xF55D9D SWAP1 PUSH1 0x24 ADD PUSH2 0x2D7A JUMP JUMPDEST PUSH1 0x40 MLOAD PUSH32 0x8A1EEE100000000000000000000000000000000000000000000000000000000 DUP2 MSTORE PUSH1 0x4 DUP2 ADD DUP4 SWAP1 MSTORE PUSH20 0xFFFFFFFFFFFFFFFFFFFFFFFFFFFFFFFFFFFFFFFF DUP3 AND SWAP1 PUSH4 0x8A1EEE1 SWAP1 PUSH1 0x24 ADD PUSH1 0x0 PUSH1 0x40 MLOAD DUP1 DUP4 SUB DUP2 PUSH1 0x0 DUP8 DUP1 EXTCODESIZE ISZERO DUP1 ISZERO PUSH2 0x3361 JUMPI PUSH1 0x0 DUP1 REVERT JUMPDEST POP GAS CALL ISZERO DUP1 ISZERO PUSH2 0x108C JUMPI RETURNDATASIZE PUSH1 0x0 DUP1 RETURNDATACOPY RETURNDATASIZE PUSH1 0x0 REVERT JUMPDEST PUSH2 0x3384 DUP8 DUP8 DUP8 DUP8 DUP8 DUP8 DUP8 PUSH2 0x43B8 JUMP JUMPDEST DUP3 DUP5 PUSH20 0xFFFFFFFFFFFFFFFFFFFFFFFFFFFFFFFFFFFFFFFF AND DUP9 PUSH32 0x6ED33765B13AC61CBDF2151A3B6D40F7884AF98645BFAD1ED3897C08E18C4806 DUP10 DUP10 DUP8 DUP8 PUSH1 0x40 MLOAD PUSH2 0x33D2 SWAP5 SWAP4 SWAP3 SWAP2 SWAP1 PUSH2 0x5451 JUMP JUMPDEST PUSH1 0x40 MLOAD DUP1 SWAP2 SUB SWAP1 LOG4 POP POP POP POP POP POP POP JUMP JUMPDEST PUSH1 0x0 PUSH32 0x7B0D4304F82012BD3B70B1D531C160E326067C90829E2A3D386722AD10B89C3 DUP7 DUP7 DUP7 DUP7 DUP7 PUSH1 0x40 MLOAD PUSH1 0x20 ADD PUSH2 0x3420 SWAP7 SWAP6 SWAP5 SWAP4 SWAP3 SWAP2 SWAP1 PUSH2 0x5961 JUMP JUMPDEST PUSH1 0x40 MLOAD PUSH1 0x20 DUP2 DUP4 SUB SUB DUP2 MSTORE SWAP1 PUSH1 0x40 MSTORE DUP1 MLOAD SWAP1 PUSH1 0x20 ADD KECCAK256 SWAP1 POP SWAP6 SWAP5 POP POP POP POP POP JUMP JUMPDEST PUSH1 0x0 PUSH2 0xCCD PUSH2 0x4DC DUP4 PUSH2 0x43CA JUMP JUMPDEST POP JUMP JUMPDEST DUP2 MLOAD DUP2 DUP2 LT ISZERO PUSH2 0x34A4 JUMPI PUSH1 0x40 MLOAD PUSH3 0x461BCD PUSH1 0xE5 SHL DUP2 MSTORE PUSH1 0x20 PUSH1 0x4 DUP3 ADD MSTORE PUSH1 0xA PUSH1 0x24 DUP3 ADD MSTORE PUSH32 0x494E565F4F574E45525300000000000000000000000000000000000000000000 PUSH1 0x44 DUP3 ADD MSTORE PUSH1 0x64 ADD PUSH2 0x5DB JUMP JUMPDEST PUSH1 0x0 DUP3 GT PUSH2 0x34F4 JUMPI PUSH1 0x40 MLOAD PUSH3 0x461BCD PUSH1 0xE5 SHL DUP2 MSTORE PUSH1 0x20 PUSH1 0x4 DUP3 ADD MSTORE PUSH1 0xE PUSH1 0x24 DUP3 ADD MSTORE PUSH32 0x494E565F4F574E45525F54484C44000000000000000000000000000000000000 PUSH1 0x44 DUP3 ADD MSTORE PUSH1 0x64 ADD PUSH2 0x5DB JUMP JUMPDEST PUSH2 0x34FE DUP5 DUP4 PUSH2 0x4405 JUMP JUMPDEST PUSH2 0x3508 DUP5 DUP3 PUSH2 0x4411 JUMP JUMPDEST PUSH1 0x0 JUMPDEST DUP2 DUP2 LT ISZERO PUSH2 0x9D3 JUMPI PUSH1 0x0 DUP5 DUP3 DUP2 MLOAD DUP2 LT PUSH2 0x3527 JUMPI PUSH2 0x3527 PUSH2 0x5422 JUMP JUMPDEST PUSH1 0x20 MUL PUSH1 0x20 ADD ADD MLOAD SWAP1 POP PUSH2 0x353B DUP7 DUP3 PUSH2 0x441D JUMP JUMPDEST ISZERO PUSH2 0x3588 JUMPI PUSH1 0x40 MLOAD PUSH3 0x461BCD PUSH1 0xE5 SHL DUP2 MSTORE PUSH1 0x20 PUSH1 0x4 DUP3 ADD MSTORE PUSH1 0x9 PUSH1 0x24 DUP3 ADD MSTORE PUSH32 0x4455505F4F574E45520000000000000000000000000000000000000000000000 PUSH1 0x44 DUP3 ADD MSTORE PUSH1 0x64 ADD PUSH2 0x5DB JUMP JUMPDEST PUSH2 0x3593 DUP7 DUP4 DUP4 PUSH2 0x442C JUMP JUMPDEST PUSH2 0x359F DUP7 DUP3 PUSH1 0x1 PUSH2 0x44EA JUMP JUMPDEST POP DUP1 PUSH2 0x35AA DUP2 PUSH2 0x5091 JUMP JUMPDEST SWAP2 POP POP PUSH2 0x350B JUMP JUMPDEST PUSH1 0x0 PUSH2 0x35BD DUP6 PUSH2 0xEBF JUMP JUMPDEST PUSH20 0xFFFFFFFFFFFFFFFFFFFFFFFFFFFFFFFFFFFFFFFF AND EQ PUSH2 0x3620 JUMPI PUSH1 0x40 MLOAD PUSH3 0x461BCD PUSH1 0xE5 SHL DUP2 MSTORE PUSH1 0x20 PUSH1 0x4 DUP3 ADD MSTORE PUSH1 0xB PUSH1 0x24 DUP3 ADD MSTORE PUSH32 0x544F4B454E5F4558495354000000000000000000000000000000000000000000 PUSH1 0x44 DUP3 ADD MSTORE PUSH1 0x64 ADD PUSH2 0x5DB JUMP JUMPDEST PUSH20 0xFFFFFFFFFFFFFFFFFFFFFFFFFFFFFFFFFFFFFFFF DUP2 AND PUSH2 0x37E7 JUMPI PUSH1 0x0 DUP5 PUSH1 0x40 MLOAD PUSH1 0x20 ADD PUSH2 0x364E SWAP2 SWAP1 PUSH2 0x4FBA JUMP JUMPDEST PUSH1 0x40 MLOAD PUSH1 0x20 DUP2 DUP4 SUB SUB DUP2 MSTORE SWAP1 PUSH1 0x40 MSTORE DUP1 MLOAD SWAP1 PUSH1 0x20 ADD KECCAK256 SWAP1 POP PUSH1 0x0 DUP1 PUSH32 0x0 PUSH20 0xFFFFFFFFFFFFFFFFFFFFFFFFFFFFFFFFFFFFFFFF AND PUSH4 0x6FC95B34 PUSH1 0xE0 SHL DUP10 DUP10 DUP10 DUP10 DUP9 PUSH1 0x40 MLOAD PUSH1 0x24 ADD PUSH2 0x36C1 SWAP6 SWAP5 SWAP4 SWAP3 SWAP2 SWAP1 PUSH2 0x59DD JUMP JUMPDEST PUSH1 0x40 DUP1 MLOAD PUSH1 0x1F NOT DUP2 DUP5 SUB ADD DUP2 MSTORE SWAP2 DUP2 MSTORE PUSH1 0x20 DUP3 ADD DUP1 MLOAD PUSH28 0xFFFFFFFFFFFFFFFFFFFFFFFFFFFFFFFFFFFFFFFFFFFFFFFFFFFFFFFF AND PUSH32 0xFFFFFFFF00000000000000000000000000000000000000000000000000000000 SWAP1 SWAP5 AND SWAP4 SWAP1 SWAP4 OR SWAP1 SWAP3 MSTORE SWAP1 MLOAD PUSH2 0x372C SWAP2 SWAP1 PUSH2 0x4FBA JUMP JUMPDEST PUSH1 0x0 PUSH1 0x40 MLOAD DUP1 DUP4 SUB DUP2 DUP6 GAS DELEGATECALL SWAP2 POP POP RETURNDATASIZE DUP1 PUSH1 0x0 DUP2 EQ PUSH2 0x3767 JUMPI PUSH1 0x40 MLOAD SWAP2 POP PUSH1 0x1F NOT PUSH1 0x3F RETURNDATASIZE ADD AND DUP3 ADD PUSH1 0x40 MSTORE RETURNDATASIZE DUP3 MSTORE RETURNDATASIZE PUSH1 0x0 PUSH1 0x20 DUP5 ADD RETURNDATACOPY PUSH2 0x376C JUMP JUMPDEST PUSH1 0x60 SWAP2 POP JUMPDEST POP SWAP2 POP SWAP2 POP DUP2 PUSH2 0x37BE JUMPI PUSH1 0x40 MLOAD PUSH3 0x461BCD PUSH1 0xE5 SHL DUP2 MSTORE PUSH1 0x20 PUSH1 0x4 DUP3 ADD MSTORE PUSH1 0x13 PUSH1 0x24 DUP3 ADD MSTORE PUSH32 0x544F4B454E5F4445504C4F595F4641494C454400000000000000000000000000 PUSH1 0x44 DUP3 ADD MSTORE PUSH1 0x64 ADD PUSH2 0x5DB JUMP JUMPDEST DUP1 DUP1 PUSH1 0x20 ADD SWAP1 MLOAD DUP2 ADD SWAP1 PUSH2 0x37D2 SWAP2 SWAP1 PUSH2 0x5858 JUMP JUMPDEST SWAP4 POP PUSH2 0x37DF DUP8 PUSH1 0x1 PUSH2 0x44F7 JUMP JUMPDEST POP POP POP PUSH2 0x3856 JUMP JUMPDEST PUSH20 0xFFFFFFFFFFFFFFFFFFFFFFFFFFFFFFFFFFFFFFFF DUP2 AND EXTCODESIZE PUSH2 0x384B JUMPI PUSH1 0x40 MLOAD PUSH3 0x461BCD PUSH1 0xE5 SHL DUP2 MSTORE PUSH1 0x20 PUSH1 0x4 DUP3 ADD MSTORE PUSH1 0x9 PUSH1 0x24 DUP3 ADD MSTORE PUSH32 0x4E4F545F544F4B454E0000000000000000000000000000000000000000000000 PUSH1 0x44 DUP3 ADD MSTORE PUSH1 0x64 ADD PUSH2 0x5DB JUMP JUMPDEST PUSH2 0x3856 DUP5 PUSH1 0x2 PUSH2 0x44F7 JUMP JUMPDEST PUSH2 0x3860 DUP5 DUP3 PUSH2 0x4527 JUMP JUMPDEST PUSH32 0xBF90B5A1EC9763E8BF4B9245CEF0C28DB92BAB309FC2C5177F17814F38246938 DUP5 DUP3 PUSH1 0x40 MLOAD PUSH2 0x3891 SWAP3 SWAP2 SWAP1 PUSH2 0x5A23 JUMP JUMPDEST PUSH1 0x40 MLOAD DUP1 SWAP2 SUB SWAP1 LOG1 POP POP POP POP POP JUMP JUMPDEST PUSH1 0x0 PUSH32 0xC4E632779A6A7838736DD7E5E6A0EADF171DD37DFB6230720E265576DFCF42BB DUP3 PUSH1 0x40 MLOAD PUSH1 0x20 ADD PUSH2 0x2F70 SWAP3 SWAP2 SWAP1 PUSH2 0x5875 JUMP JUMPDEST PUSH1 0x0 PUSH2 0xCCD PUSH2 0x4DC DUP4 PUSH2 0x4533 JUMP JUMPDEST DUP2 MLOAD DUP2 DUP2 LT ISZERO PUSH2 0x3935 JUMPI PUSH1 0x40 MLOAD PUSH3 0x461BCD PUSH1 0xE5 SHL DUP2 MSTORE PUSH1 0x20 PUSH1 0x4 DUP3 ADD MSTORE PUSH1 0xD PUSH1 0x24 DUP3 ADD MSTORE PUSH32 0x494E565F4F50455241544F525300000000000000000000000000000000000000 PUSH1 0x44 DUP3 ADD MSTORE PUSH1 0x64 ADD PUSH2 0x5DB JUMP JUMPDEST PUSH1 0x0 DUP3 GT PUSH2 0x3985 JUMPI PUSH1 0x40 MLOAD PUSH3 0x461BCD PUSH1 0xE5 SHL DUP2 MSTORE PUSH1 0x20 PUSH1 0x4 DUP3 ADD MSTORE PUSH1 0x11 PUSH1 0x24 DUP3 ADD MSTORE PUSH32 0x494E565F4F50455241544F525F54484C44000000000000000000000000000000 PUSH1 0x44 DUP3 ADD MSTORE PUSH1 0x64 ADD PUSH2 0x5DB JUMP JUMPDEST PUSH2 0x398F DUP5 DUP4 PUSH2 0x456E JUMP JUMPDEST PUSH2 0x3999 DUP5 DUP3 PUSH2 0x457A JUMP JUMPDEST PUSH1 0x0 JUMPDEST DUP2 DUP2 LT ISZERO PUSH2 0x9D3 JUMPI PUSH1 0x0 DUP5 DUP3 DUP2 MLOAD DUP2 LT PUSH2 0x39B8 JUMPI PUSH2 0x39B8 PUSH2 0x5422 JUMP JUMPDEST PUSH1 0x20 MUL PUSH1 0x20 ADD ADD MLOAD SWAP1 POP PUSH2 0x39CC DUP7 DUP3 PUSH2 0x4586 JUMP JUMPDEST ISZERO PUSH2 0x3A19 JUMPI PUSH1 0x40 MLOAD PUSH3 0x461BCD PUSH1 0xE5 SHL DUP2 MSTORE PUSH1 0x20 PUSH1 0x4 DUP3 ADD MSTORE PUSH1 0xC PUSH1 0x24 DUP3 ADD MSTORE PUSH32 0x4455505F4F50455241544F520000000000000000000000000000000000000000 PUSH1 0x44 DUP3 ADD MSTORE PUSH1 0x64 ADD PUSH2 0x5DB JUMP JUMPDEST PUSH2 0x3A24 DUP7 DUP4 DUP4 PUSH2 0x4595 JUMP JUMPDEST PUSH2 0x3A30 DUP7 DUP3 PUSH1 0x1 PUSH2 0x45A2 JUMP JUMPDEST POP DUP1 PUSH2 0x3A3B DUP2 PUSH2 0x5091 JUMP JUMPDEST SWAP2 POP POP PUSH2 0x399C JUMP JUMPDEST DUP2 MLOAD DUP2 DUP2 LT ISZERO PUSH2 0x3A95 JUMPI PUSH1 0x40 MLOAD PUSH3 0x461BCD PUSH1 0xE5 SHL DUP2 MSTORE PUSH1 0x20 PUSH1 0x4 DUP3 ADD MSTORE PUSH1 0xA PUSH1 0x24 DUP3 ADD MSTORE PUSH32 0x494E565F41444D494E5300000000000000000000000000000000000000000000 PUSH1 0x44 DUP3 ADD MSTORE PUSH1 0x64 ADD PUSH2 0x5DB JUMP JUMPDEST PUSH1 0x0 DUP3 GT PUSH2 0x3AE5 JUMPI PUSH1 0x40 MLOAD PUSH3 0x461BCD PUSH1 0xE5 SHL DUP2 MSTORE PUSH1 0x20 PUSH1 0x4 DUP3 ADD MSTORE PUSH1 0xE PUSH1 0x24 DUP3 ADD MSTORE PUSH32 0x494E565F41444D494E5F54484C44000000000000000000000000000000000000 PUSH1 0x44 DUP3 ADD MSTORE PUSH1 0x64 ADD PUSH2 0x5DB JUMP JUMPDEST PUSH2 0x3AEF DUP5 DUP4 PUSH2 0x45AF JUMP JUMPDEST PUSH2 0x3AF9 DUP5 DUP3 PUSH2 0x45BB JUMP JUMPDEST PUSH1 0x0 JUMPDEST DUP2 DUP2 LT ISZERO PUSH2 0x9D3 JUMPI PUSH1 0x0 DUP5 DUP3 DUP2 MLOAD DUP2 LT PUSH2 0x3B18 JUMPI PUSH2 0x3B18 PUSH2 0x5422 JUMP JUMPDEST PUSH1 0x20 MUL PUSH1 0x20 ADD ADD MLOAD SWAP1 POP PUSH2 0x3B2C DUP7 DUP3 PUSH2 0x2DB4 JUMP JUMPDEST ISZERO PUSH2 0x3B79 JUMPI PUSH1 0x40 MLOAD PUSH3 0x461BCD PUSH1 0xE5 SHL DUP2 MSTORE PUSH1 0x20 PUSH1 0x4 DUP3 ADD MSTORE PUSH1 0x9 PUSH1 0x24 DUP3 ADD MSTORE PUSH32 0x4455505F41444D494E0000000000000000000000000000000000000000000000 PUSH1 0x44 DUP3 ADD MSTORE PUSH1 0x64 ADD PUSH2 0x5DB JUMP JUMPDEST PUSH2 0x3B84 DUP7 DUP4 DUP4 PUSH2 0x45C7 JUMP JUMPDEST PUSH2 0x3B90 DUP7 DUP3 PUSH1 0x1 PUSH2 0x45D4 JUMP JUMPDEST POP DUP1 PUSH2 0x3B9B DUP2 PUSH2 0x5091 JUMP JUMPDEST SWAP2 POP POP PUSH2 0x3AFC JUMP JUMPDEST PUSH1 0x0 PUSH2 0xCCD PUSH2 0x4DC DUP4 PUSH2 0x45E1 JUMP JUMPDEST PUSH1 0x0 PUSH2 0x2DC3 PUSH2 0x266 DUP5 DUP5 PUSH2 0x461C JUMP JUMPDEST PUSH1 0x40 DUP1 MLOAD PUSH32 0x957705A374326B30F4A1069C936D736CC9993ED6C820B4E0E2FD94A8BECA0D1D PUSH1 0x20 DUP3 ADD MSTORE SWAP1 DUP2 ADD DUP3 SWAP1 MSTORE PUSH1 0x0 SWAP1 PUSH1 0x60 ADD PUSH2 0x2F70 JUMP JUMPDEST PUSH1 0x0 PUSH2 0xCCD PUSH2 0x4DC DUP4 PUSH2 0x465E JUMP JUMPDEST PUSH1 0x0 PUSH2 0x2DC3 PUSH2 0x266 DUP5 DUP5 PUSH2 0x4699 JUMP JUMPDEST PUSH2 0x3C25 DUP6 DUP6 DUP6 DUP6 DUP6 PUSH2 0x46DB JUMP JUMPDEST DUP1 DUP3 PUSH20 0xFFFFFFFFFFFFFFFFFFFFFFFFFFFFFFFFFFFFFFFF AND DUP7 PUSH32 0x335F6AE6F72F239A7A96A1953B2726347D41FC037F103531A304923297733DF0 DUP8 DUP8 PUSH1 0x40 MLOAD PUSH2 0x1A98 SWAP3 SWAP2 SWAP1 PUSH2 0x4FD6 JUMP JUMPDEST PUSH1 0x40 MLOAD PUSH32 0x19457468657265756D205369676E6564204D6573736167653A0A333200000000 PUSH1 0x20 DUP3 ADD MSTORE PUSH1 0x3C DUP2 ADD DUP3 SWAP1 MSTORE PUSH1 0x0 SWAP1 PUSH1 0x5C ADD PUSH2 0x2F70 JUMP JUMPDEST PUSH1 0x0 DUP2 MLOAD PUSH1 0x41 EQ PUSH2 0x3CFD JUMPI PUSH1 0x40 MLOAD PUSH3 0x461BCD PUSH1 0xE5 SHL DUP2 MSTORE PUSH1 0x20 PUSH1 0x4 DUP3 ADD MSTORE PUSH1 0x7 PUSH1 0x24 DUP3 ADD MSTORE PUSH32 0x494E565F4C454E00000000000000000000000000000000000000000000000000 PUSH1 0x44 DUP3 ADD MSTORE PUSH1 0x64 ADD PUSH2 0x5DB JUMP JUMPDEST PUSH1 0x20 DUP3 ADD MLOAD PUSH1 0x40 DUP4 ADD MLOAD PUSH1 0x60 DUP5 ADD MLOAD PUSH1 0x0 BYTE PUSH32 0x7FFFFFFFFFFFFFFFFFFFFFFFFFFFFFFF5D576E7357A4501DDFE92F46681B20A0 DUP3 GT ISZERO PUSH2 0x3D7F JUMPI PUSH1 0x40 MLOAD PUSH3 0x461BCD PUSH1 0xE5 SHL DUP2 MSTORE PUSH1 0x20 PUSH1 0x4 DUP3 ADD MSTORE PUSH1 0x5 PUSH1 0x24 DUP3 ADD MSTORE PUSH32 0x494E565F53000000000000000000000000000000000000000000000000000000 PUSH1 0x44 DUP3 ADD MSTORE PUSH1 0x64 ADD PUSH2 0x5DB JUMP JUMPDEST DUP1 PUSH1 0xFF AND PUSH1 0x1B EQ DUP1 PUSH2 0x3D94 JUMPI POP DUP1 PUSH1 0xFF AND PUSH1 0x1C EQ JUMPDEST PUSH2 0x3DE0 JUMPI PUSH1 0x40 MLOAD PUSH3 0x461BCD PUSH1 0xE5 SHL DUP2 MSTORE PUSH1 0x20 PUSH1 0x4 DUP3 ADD MSTORE PUSH1 0x5 PUSH1 0x24 DUP3 ADD MSTORE PUSH32 0x494E565F56000000000000000000000000000000000000000000000000000000 PUSH1 0x44 DUP3 ADD MSTORE PUSH1 0x64 ADD PUSH2 0x5DB JUMP JUMPDEST PUSH1 0x40 DUP1 MLOAD PUSH1 0x0 DUP1 DUP3 MSTORE PUSH1 0x20 DUP3 ADD DUP1 DUP5 MSTORE DUP10 SWAP1 MSTORE PUSH1 0xFF DUP5 AND SWAP3 DUP3 ADD SWAP3 SWAP1 SWAP3 MSTORE PUSH1 0x60 DUP2 ADD DUP6 SWAP1 MSTORE PUSH1 0x80 DUP2 ADD DUP5 SWAP1 MSTORE PUSH1 0x1 SWAP1 PUSH1 0xA0 ADD PUSH1 0x20 PUSH1 0x40 MLOAD PUSH1 0x20 DUP2 SUB SWAP1 DUP1 DUP5 SUB SWAP1 DUP6 GAS STATICCALL ISZERO DUP1 ISZERO PUSH2 0x3E34 JUMPI RETURNDATASIZE PUSH1 0x0 DUP1 RETURNDATACOPY RETURNDATASIZE PUSH1 0x0 REVERT JUMPDEST POP POP POP PUSH1 0x20 PUSH1 0x40 MLOAD SUB MLOAD SWAP5 POP DUP5 PUSH20 0xFFFFFFFFFFFFFFFFFFFFFFFFFFFFFFFFFFFFFFFF AND EQ ISZERO PUSH2 0x3EA5 JUMPI PUSH1 0x40 MLOAD PUSH3 0x461BCD PUSH1 0xE5 SHL DUP2 MSTORE PUSH1 0x20 PUSH1 0x4 DUP3 ADD MSTORE PUSH1 0x7 PUSH1 0x24 DUP3 ADD MSTORE PUSH32 0x494E565F53494700000000000000000000000000000000000000000000000000 PUSH1 0x44 DUP3 ADD MSTORE PUSH1 0x64 ADD PUSH2 0x5DB JUMP JUMPDEST POP POP POP SWAP3 SWAP2 POP POP JUMP JUMPDEST PUSH1 0x0 DUP1 JUMPDEST PUSH1 0x1 DUP4 MLOAD PUSH2 0x3EC0 SWAP2 SWAP1 PUSH2 0x5A5B JUMP JUMPDEST DUP2 LT ISZERO PUSH2 0x3F4F JUMPI DUP3 PUSH2 0x3ED3 DUP3 PUSH1 0x1 PUSH2 0x5079 JUMP JUMPDEST DUP2 MLOAD DUP2 LT PUSH2 0x3EE3 JUMPI PUSH2 0x3EE3 PUSH2 0x5422 JUMP JUMPDEST PUSH1 0x20 MUL PUSH1 0x20 ADD ADD MLOAD PUSH20 0xFFFFFFFFFFFFFFFFFFFFFFFFFFFFFFFFFFFFFFFF AND DUP4 DUP3 DUP2 MLOAD DUP2 LT PUSH2 0x3F13 JUMPI PUSH2 0x3F13 PUSH2 0x5422 JUMP JUMPDEST PUSH1 0x20 MUL PUSH1 0x20 ADD ADD MLOAD PUSH20 0xFFFFFFFFFFFFFFFFFFFFFFFFFFFFFFFFFFFFFFFF AND LT PUSH2 0x3F3F JUMPI POP PUSH1 0x0 SWAP3 SWAP2 POP POP JUMP JUMPDEST PUSH2 0x3F48 DUP2 PUSH2 0x5091 JUMP JUMPDEST SWAP1 POP PUSH2 0x3EB2 JUMP JUMPDEST POP PUSH1 0x1 SWAP3 SWAP2 POP POP JUMP JUMPDEST PUSH1 0x0 DUP1 PUSH2 0x3F64 DUP5 PUSH2 0x3441 JUMP JUMPDEST SWAP1 POP PUSH1 0x0 DUP1 JUMPDEST DUP5 MLOAD DUP2 LT ISZERO PUSH2 0x3FD0 JUMPI PUSH2 0x3F96 DUP7 DUP7 DUP4 DUP2 MLOAD DUP2 LT PUSH2 0x3F89 JUMPI PUSH2 0x3F89 PUSH2 0x5422 JUMP JUMPDEST PUSH1 0x20 MUL PUSH1 0x20 ADD ADD MLOAD PUSH2 0x441D JUMP JUMPDEST DUP1 ISZERO PUSH2 0x3FAD JUMPI POP DUP3 PUSH2 0x3FA7 DUP4 PUSH2 0x5091 JUMP JUMPDEST SWAP3 POP DUP3 LT ISZERO JUMPDEST ISZERO PUSH2 0x3FBE JUMPI PUSH1 0x1 SWAP4 POP POP POP POP PUSH2 0xCCD JUMP JUMPDEST DUP1 PUSH2 0x3FC8 DUP2 PUSH2 0x5091 JUMP JUMPDEST SWAP2 POP POP PUSH2 0x3F6A JUMP JUMPDEST POP PUSH1 0x0 SWAP6 SWAP5 POP POP POP POP POP JUMP JUMPDEST PUSH1 0x0 DUP1 PUSH2 0x4030 PUSH32 0x67CBDFF49954077D2DD5637524B03BFE3E6506D456859017A888FAD567E1AF03 PUSH1 0x0 SWAP1 DUP2 MSTORE PUSH1 0x20 MSTORE PUSH32 0x6F01C2F096E745C2A207FBF93BABD5E7EE6ACFD26F0F34A0E4AC68373C21D0E SLOAD SWAP1 JUMP JUMPDEST SWAP1 POP PUSH1 0x0 PUSH2 0x4040 PUSH1 0x1 PUSH1 0x10 PUSH2 0x5079 JUMP JUMPDEST SWAP1 POP PUSH1 0x0 DUP2 DUP4 GT PUSH2 0x4052 JUMPI PUSH1 0x0 PUSH2 0x405C JUMP JUMPDEST PUSH2 0x405C DUP3 DUP5 PUSH2 0x5A5B JUMP JUMPDEST SWAP1 POP PUSH2 0x4067 DUP4 PUSH2 0x5A72 JUMP JUMPDEST SWAP3 POP JUMPDEST DUP1 DUP4 GT ISZERO PUSH2 0x409C JUMPI PUSH2 0x4087 DUP4 PUSH2 0x407F DUP2 PUSH2 0x5A72 JUMP JUMPDEST SWAP5 POP DUP7 PUSH2 0x3F58 JUMP JUMPDEST ISZERO PUSH2 0x4097 JUMPI POP PUSH1 0x1 SWAP5 SWAP4 POP POP POP POP JUMP JUMPDEST PUSH2 0x406A JUMP JUMPDEST POP PUSH1 0x0 SWAP5 SWAP4 POP POP POP POP JUMP JUMPDEST PUSH1 0x0 DUP1 PUSH2 0x40FB PUSH32 0x5369FB791F26307F8E69B07625302CCAC6930AF09AB22D753B17D2042E9992E7 PUSH1 0x0 SWAP1 DUP2 MSTORE PUSH1 0x20 MSTORE PUSH32 0x7174C149A4F7627AC1DD39B679BD42F12FC4E8D7E850B055662BBEE7188DA10 SLOAD SWAP1 JUMP JUMPDEST SWAP1 POP PUSH1 0x0 PUSH2 0x410B PUSH1 0x1 PUSH1 0x10 PUSH2 0x5079 JUMP JUMPDEST SWAP1 POP PUSH1 0x0 DUP2 DUP4 GT PUSH2 0x411D JUMPI PUSH1 0x0 PUSH2 0x4127 JUMP JUMPDEST PUSH2 0x4127 DUP3 DUP5 PUSH2 0x5A5B JUMP JUMPDEST SWAP1 POP JUMPDEST DUP1 DUP4 GT ISZERO PUSH2 0x409C JUMPI PUSH2 0x4147 DUP4 PUSH2 0x413F DUP2 PUSH2 0x5A72 JUMP JUMPDEST SWAP5 POP DUP7 PUSH2 0x46EB JUMP JUMPDEST ISZERO PUSH2 0x4157 JUMPI POP PUSH1 0x1 SWAP5 SWAP4 POP POP POP POP JUMP JUMPDEST PUSH2 0x412A JUMP JUMPDEST PUSH2 0x4168 PUSH2 0x2EDD DUP4 PUSH2 0x3BC0 JUMP JUMPDEST POP POP JUMP JUMPDEST PUSH1 0x0 PUSH2 0x417A PUSH2 0x4DC DUP4 PUSH2 0x4763 JUMP JUMPDEST PUSH1 0x2 DUP2 GT ISZERO PUSH2 0xCCD JUMPI PUSH2 0xCCD PUSH2 0x576F JUMP JUMPDEST PUSH1 0x0 DUP1 DUP5 PUSH20 0xFFFFFFFFFFFFFFFFFFFFFFFFFFFFFFFFFFFFFFFF AND DUP5 PUSH1 0x40 MLOAD PUSH2 0x41B3 SWAP2 SWAP1 PUSH2 0x4FBA JUMP JUMPDEST PUSH1 0x0 PUSH1 0x40 MLOAD DUP1 DUP4 SUB DUP2 PUSH1 0x0 DUP7 GAS CALL SWAP2 POP POP RETURNDATASIZE DUP1 PUSH1 0x0 DUP2 EQ PUSH2 0x41F0 JUMPI PUSH1 0x40 MLOAD SWAP2 POP PUSH1 0x1F NOT PUSH1 0x3F RETURNDATASIZE ADD AND DUP3 ADD PUSH1 0x40 MSTORE RETURNDATASIZE DUP3 MSTORE RETURNDATASIZE PUSH1 0x0 PUSH1 0x20 DUP5 ADD RETURNDATACOPY PUSH2 0x41F5 JUMP JUMPDEST PUSH1 0x60 SWAP2 POP JUMPDEST POP SWAP2 POP SWAP2 POP DUP2 DUP1 ISZERO PUSH2 0x421F JUMPI POP DUP1 MLOAD ISZERO DUP1 PUSH2 0x421F JUMPI POP DUP1 DUP1 PUSH1 0x20 ADD SWAP1 MLOAD DUP2 ADD SWAP1 PUSH2 0x421F SWAP2 SWAP1 PUSH2 0x5946 JUMP JUMPDEST DUP4 SWAP1 PUSH2 0x605 JUMPI PUSH1 0x40 MLOAD PUSH3 0x461BCD PUSH1 0xE5 SHL DUP2 MSTORE PUSH1 0x4 ADD PUSH2 0x5DB SWAP2 SWAP1 PUSH2 0x4CBD JUMP JUMPDEST PUSH1 0x40 DUP1 MLOAD PUSH32 0x63FA879CB478FDDF1DE08D49E29115FB768866711BC799FF9AB419A7F16C9AFB PUSH1 0x20 DUP3 ADD MSTORE SWAP1 DUP2 ADD DUP4 SWAP1 MSTORE PUSH1 0x60 DUP3 DUP2 SHL PUSH32 0xFFFFFFFFFFFFFFFFFFFFFFFFFFFFFFFFFFFFFFFF000000000000000000000000 AND SWAP1 DUP3 ADD MSTORE PUSH1 0x0 SWAP1 PUSH1 0x74 ADD JUMPDEST PUSH1 0x40 MLOAD PUSH1 0x20 DUP2 DUP4 SUB SUB DUP2 MSTORE SWAP1 PUSH1 0x40 MSTORE DUP1 MLOAD SWAP1 PUSH1 0x20 ADD KECCAK256 SWAP1 POP SWAP3 SWAP2 POP POP JUMP JUMPDEST PUSH1 0x40 DUP1 MLOAD PUSH32 0xBAEA1C6C0F16A0A340B10A9E980806696A68DDBB5E8361FD64630DD21ABF515F PUSH1 0x20 DUP3 ADD MSTORE SWAP1 DUP2 ADD DUP4 SWAP1 MSTORE PUSH1 0x60 DUP2 ADD DUP3 SWAP1 MSTORE PUSH1 0x0 SWAP1 PUSH1 0x80 ADD PUSH2 0x42A0 JUMP JUMPDEST PUSH1 0x40 DUP1 MLOAD PUSH32 0x79BD914ADDD90BD67AD800BF0230BB85FFDEF5AEBA5FD8249F116D3F17F4FB4B PUSH1 0x20 DUP3 ADD MSTORE SWAP1 DUP2 ADD DUP3 SWAP1 MSTORE PUSH1 0x0 SWAP1 PUSH1 0x60 ADD PUSH2 0x2F70 JUMP JUMPDEST PUSH1 0x40 DUP1 MLOAD PUSH32 0x5112EF894367DE1270CFAE12AFCD2285C225830EB8F74E7E938F721BB510CBA PUSH1 0x20 DUP3 ADD MSTORE SWAP1 DUP2 ADD DUP3 SWAP1 MSTORE PUSH1 0x0 SWAP1 PUSH1 0x60 ADD PUSH2 0x2F70 JUMP JUMPDEST PUSH1 0x40 DUP1 MLOAD PUSH32 0xF23EC0BB4210EDD5CBA85AFD05127EFCD2FC6A781BFED49188DA1081670B22D8 PUSH1 0x20 DUP3 ADD MSTORE SWAP1 DUP2 ADD DUP4 SWAP1 MSTORE PUSH1 0x60 DUP2 ADD DUP3 SWAP1 MSTORE PUSH1 0x0 SWAP1 PUSH1 0x80 ADD PUSH2 0x42A0 JUMP JUMPDEST PUSH2 0x108C PUSH2 0xC21 DUP9 DUP9 DUP9 DUP9 DUP9 DUP9 DUP9 PUSH2 0x29D0 JUMP JUMPDEST PUSH1 0x40 DUP1 MLOAD PUSH32 0x2BD864201F87CE8CC2D875453B39CC3E981D8EE12E4B7D4B7492FD9404BD8229 PUSH1 0x20 DUP3 ADD MSTORE SWAP1 DUP2 ADD DUP3 SWAP1 MSTORE PUSH1 0x0 SWAP1 PUSH1 0x60 ADD PUSH2 0x2F70 JUMP JUMPDEST PUSH2 0x4168 PUSH2 0x2F15 DUP4 PUSH2 0x43CA JUMP JUMPDEST PUSH2 0x4168 PUSH2 0x2F15 DUP4 PUSH2 0x45E1 JUMP JUMPDEST PUSH1 0x0 PUSH2 0x2DC3 PUSH2 0x399 DUP5 DUP5 PUSH2 0x4798 JUMP JUMPDEST PUSH20 0xFFFFFFFFFFFFFFFFFFFFFFFFFFFFFFFFFFFFFFFF DUP2 AND PUSH2 0x448F JUMPI PUSH1 0x40 MLOAD PUSH3 0x461BCD PUSH1 0xE5 SHL DUP2 MSTORE PUSH1 0x20 PUSH1 0x4 DUP3 ADD MSTORE PUSH1 0x9 PUSH1 0x24 DUP3 ADD MSTORE PUSH32 0x5A45524F5F414444520000000000000000000000000000000000000000000000 PUSH1 0x44 DUP3 ADD MSTORE PUSH1 0x64 ADD PUSH2 0x5DB JUMP JUMPDEST PUSH2 0x2F28 PUSH2 0x449C DUP5 DUP5 PUSH2 0x461C JUMP JUMPDEST PUSH1 0x0 SWAP1 DUP2 MSTORE PUSH1 0x2 PUSH1 0x20 MSTORE PUSH1 0x40 SWAP1 KECCAK256 DUP1 SLOAD PUSH32 0xFFFFFFFFFFFFFFFFFFFFFFFF0000000000000000000000000000000000000000 AND PUSH20 0xFFFFFFFFFFFFFFFFFFFFFFFFFFFFFFFFFFFFFFFF DUP5 AND OR SWAP1 SSTORE JUMP JUMPDEST PUSH2 0x2F28 PUSH2 0x2EDD DUP5 DUP5 PUSH2 0x4798 JUMP JUMPDEST PUSH2 0x4168 PUSH2 0x4503 DUP4 PUSH2 0x4763 JUMP JUMPDEST DUP3 PUSH1 0x2 DUP2 GT ISZERO PUSH2 0x4515 JUMPI PUSH2 0x4515 PUSH2 0x576F JUMP JUMPDEST PUSH1 0x0 SWAP2 DUP3 MSTORE PUSH1 0x20 DUP3 SWAP1 MSTORE PUSH1 0x40 SWAP1 SWAP2 KECCAK256 SSTORE JUMP JUMPDEST PUSH2 0x4168 PUSH2 0x449C DUP4 PUSH2 0x38A0 JUMP JUMPDEST PUSH1 0x40 DUP1 MLOAD PUSH32 0xC0E594A04CE768761133F7238CD95A55441F8EE2D50A03E7D5C44FB26C04D76F PUSH1 0x20 DUP3 ADD MSTORE SWAP1 DUP2 ADD DUP3 SWAP1 MSTORE PUSH1 0x0 SWAP1 PUSH1 0x60 ADD PUSH2 0x2F70 JUMP JUMPDEST PUSH2 0x4168 PUSH2 0x2F15 DUP4 PUSH2 0x4533 JUMP JUMPDEST PUSH2 0x4168 PUSH2 0x2F15 DUP4 PUSH2 0x465E JUMP JUMPDEST PUSH1 0x0 PUSH2 0x2DC3 PUSH2 0x399 DUP5 DUP5 PUSH2 0x47FE JUMP JUMPDEST PUSH2 0x2F28 PUSH2 0x449C DUP5 DUP5 PUSH2 0x4699 JUMP JUMPDEST PUSH2 0x2F28 PUSH2 0x2EDD DUP5 DUP5 PUSH2 0x47FE JUMP JUMPDEST PUSH2 0x4168 PUSH2 0x2F15 DUP4 PUSH2 0x4300 JUMP JUMPDEST PUSH2 0x4168 PUSH2 0x2F15 DUP4 PUSH2 0x433B JUMP JUMPDEST PUSH2 0x2F28 PUSH2 0x449C DUP5 DUP5 PUSH2 0x4376 JUMP JUMPDEST PUSH2 0x2F28 PUSH2 0x2EDD DUP5 DUP5 PUSH2 0x423E JUMP JUMPDEST PUSH1 0x40 DUP1 MLOAD PUSH32 0x4EDEDBB904ACD1258C7B9A6B12F5A8A8870A8EC295809CF35DC1F098018D4D20 PUSH1 0x20 DUP3 ADD MSTORE SWAP1 DUP2 ADD DUP3 SWAP1 MSTORE PUSH1 0x0 SWAP1 PUSH1 0x60 ADD PUSH2 0x2F70 JUMP JUMPDEST PUSH1 0x40 DUP1 MLOAD PUSH32 0x2016836A56B71F0D02689E69E326F4F4C1B9057164EF592671CF0D37C8040C0 PUSH1 0x20 DUP3 ADD MSTORE SWAP1 DUP2 ADD DUP4 SWAP1 MSTORE PUSH1 0x60 DUP2 ADD DUP3 SWAP1 MSTORE PUSH1 0x0 SWAP1 PUSH1 0x80 ADD PUSH2 0x42A0 JUMP JUMPDEST PUSH1 0x40 DUP1 MLOAD PUSH32 0x6199FEBC552B750A8CF661862E77CB2DBED9F3FB6FCC10BD34F8FF9E1992362B PUSH1 0x20 DUP3 ADD MSTORE SWAP1 DUP2 ADD DUP3 SWAP1 MSTORE PUSH1 0x0 SWAP1 PUSH1 0x60 ADD PUSH2 0x2F70 JUMP JUMPDEST PUSH1 0x40 DUP1 MLOAD PUSH32 0x46A52CF33029DE9F84853745A87AF28464C80BF0346DF1B32E205FC73319F622 PUSH1 0x20 DUP3 ADD MSTORE SWAP1 DUP2 ADD DUP4 SWAP1 MSTORE PUSH1 0x60 DUP2 ADD DUP3 SWAP1 MSTORE PUSH1 0x0 SWAP1 PUSH1 0x80 ADD PUSH2 0x42A0 JUMP JUMPDEST PUSH2 0x9D3 PUSH2 0xC21 DUP7 DUP7 DUP7 DUP7 DUP7 PUSH2 0x33E3 JUMP JUMPDEST PUSH1 0x0 DUP1 PUSH2 0x46F7 DUP5 PUSH2 0x38D5 JUMP JUMPDEST SWAP1 POP PUSH1 0x0 DUP1 JUMPDEST DUP5 MLOAD DUP2 LT ISZERO PUSH2 0x3FD0 JUMPI PUSH2 0x4729 DUP7 DUP7 DUP4 DUP2 MLOAD DUP2 LT PUSH2 0x471C JUMPI PUSH2 0x471C PUSH2 0x5422 JUMP JUMPDEST PUSH1 0x20 MUL PUSH1 0x20 ADD ADD MLOAD PUSH2 0x4586 JUMP JUMPDEST DUP1 ISZERO PUSH2 0x4740 JUMPI POP DUP3 PUSH2 0x473A DUP4 PUSH2 0x5091 JUMP JUMPDEST SWAP3 POP DUP3 LT ISZERO JUMPDEST ISZERO PUSH2 0x4751 JUMPI PUSH1 0x1 SWAP4 POP POP POP POP PUSH2 0xCCD JUMP JUMPDEST DUP1 PUSH2 0x475B DUP2 PUSH2 0x5091 JUMP JUMPDEST SWAP2 POP POP PUSH2 0x46FD JUMP JUMPDEST PUSH1 0x0 PUSH32 0xA80D2259AF55890618EC2EEB3AC72DE4BDBA22529BB14845D8A3D712D1C3F621 DUP3 PUSH1 0x40 MLOAD PUSH1 0x20 ADD PUSH2 0x2F70 SWAP3 SWAP2 SWAP1 PUSH2 0x5875 JUMP JUMPDEST PUSH1 0x40 DUP1 MLOAD PUSH32 0xFFBBD206DAD2A77ED223A0FF3D2DCAC502BC8C9A91FA18140757561E84F365C0 PUSH1 0x20 DUP3 ADD MSTORE SWAP1 DUP2 ADD DUP4 SWAP1 MSTORE PUSH1 0x60 DUP3 DUP2 SHL PUSH32 0xFFFFFFFFFFFFFFFFFFFFFFFFFFFFFFFFFFFFFFFF000000000000000000000000 AND SWAP1 DUP3 ADD MSTORE PUSH1 0x0 SWAP1 PUSH1 0x74 ADD PUSH2 0x42A0 JUMP JUMPDEST PUSH1 0x40 DUP1 MLOAD PUSH32 0x934404A25B467BA4B73107CF91BAADB1313F82988678493324B4422169953586 PUSH1 0x20 DUP3 ADD MSTORE SWAP1 DUP2 ADD DUP4 SWAP1 MSTORE PUSH1 0x60 DUP3 DUP2 SHL PUSH32 0xFFFFFFFFFFFFFFFFFFFFFFFFFFFFFFFFFFFFFFFF000000000000000000000000 AND SWAP1 DUP3 ADD MSTORE PUSH1 0x0 SWAP1 PUSH1 0x74 ADD PUSH2 0x42A0 JUMP JUMPDEST PUSH2 0x2EB DUP1 PUSH2 0x5AA8 DUP4 CODECOPY ADD SWAP1 JUMP JUMPDEST PUSH1 0x0 DUP1 DUP4 PUSH1 0x1F DUP5 ADD SLT PUSH2 0x4883 JUMPI PUSH1 0x0 DUP1 REVERT JUMPDEST POP DUP2 CALLDATALOAD PUSH8 0xFFFFFFFFFFFFFFFF DUP2 GT ISZERO PUSH2 0x489B JUMPI PUSH1 0x0 DUP1 REVERT JUMPDEST PUSH1 0x20 DUP4 ADD SWAP2 POP DUP4 PUSH1 0x20 DUP3 DUP6 ADD ADD GT ISZERO PUSH2 0x48B3 JUMPI PUSH1 0x0 DUP1 REVERT JUMPDEST SWAP3 POP SWAP3 SWAP1 POP JUMP JUMPDEST PUSH1 0x0 DUP1 PUSH1 0x20 DUP4 DUP6 SUB SLT ISZERO PUSH2 0x48CD JUMPI PUSH1 0x0 DUP1 REVERT JUMPDEST DUP3 CALLDATALOAD PUSH8 0xFFFFFFFFFFFFFFFF DUP2 GT ISZERO PUSH2 0x48E4 JUMPI PUSH1 0x0 DUP1 REVERT JUMPDEST PUSH2 0x48F0 DUP6 DUP3 DUP7 ADD PUSH2 0x4871 JUMP JUMPDEST SWAP1 SWAP7 SWAP1 SWAP6 POP SWAP4 POP POP POP POP JUMP JUMPDEST PUSH1 0x0 DUP1 PUSH1 0x0 PUSH1 0x40 DUP5 DUP7 SUB SLT ISZERO PUSH2 0x4911 JUMPI PUSH1 0x0 DUP1 REVERT JUMPDEST DUP4 CALLDATALOAD PUSH8 0xFFFFFFFFFFFFFFFF DUP2 GT ISZERO PUSH2 0x4928 JUMPI PUSH1 0x0 DUP1 REVERT JUMPDEST PUSH2 0x4934 DUP7 DUP3 DUP8 ADD PUSH2 0x4871 JUMP JUMPDEST SWAP1 SWAP8 SWAP1 SWAP7 POP PUSH1 0x20 SWAP6 SWAP1 SWAP6 ADD CALLDATALOAD SWAP5 SWAP4 POP POP POP POP JUMP JUMPDEST PUSH32 0x4E487B7100000000000000000000000000000000000000000000000000000000 PUSH1 0x0 MSTORE PUSH1 0x41 PUSH1 0x4 MSTORE PUSH1 0x24 PUSH1 0x0 REVERT JUMPDEST PUSH1 0x40 MLOAD PUSH1 0x1F DUP3 ADD PUSH1 0x1F NOT AND DUP2 ADD PUSH8 0xFFFFFFFFFFFFFFFF DUP2 GT DUP3 DUP3 LT OR ISZERO PUSH2 0x49A0 JUMPI PUSH2 0x49A0 PUSH2 0x4948 JUMP JUMPDEST PUSH1 0x40 MSTORE SWAP2 SWAP1 POP JUMP JUMPDEST PUSH1 0x0 PUSH8 0xFFFFFFFFFFFFFFFF DUP3 GT ISZERO PUSH2 0x49C2 JUMPI PUSH2 0x49C2 PUSH2 0x4948 JUMP JUMPDEST POP PUSH1 0x1F ADD PUSH1 0x1F NOT AND PUSH1 0x20 ADD SWAP1 JUMP JUMPDEST PUSH1 0x0 DUP3 PUSH1 0x1F DUP4 ADD SLT PUSH2 0x49E1 JUMPI PUSH1 0x0 DUP1 REVERT JUMPDEST DUP2 CALLDATALOAD PUSH2 0x49F4 PUSH2 0x49EF DUP3 PUSH2 0x49A8 JUMP JUMPDEST PUSH2 0x4977 JUMP JUMPDEST DUP2 DUP2 MSTORE DUP5 PUSH1 0x20 DUP4 DUP7 ADD ADD GT ISZERO PUSH2 0x4A09 JUMPI PUSH1 0x0 DUP1 REVERT JUMPDEST DUP2 PUSH1 0x20 DUP6 ADD PUSH1 0x20 DUP4 ADD CALLDATACOPY PUSH1 0x0 SWAP2 DUP2 ADD PUSH1 0x20 ADD SWAP2 SWAP1 SWAP2 MSTORE SWAP4 SWAP3 POP POP POP JUMP JUMPDEST PUSH1 0x0 DUP1 PUSH1 0x0 DUP1 PUSH1 0x0 DUP1 PUSH1 0xC0 DUP8 DUP10 SUB SLT ISZERO PUSH2 0x4A3F JUMPI PUSH1 0x0 DUP1 REVERT JUMPDEST DUP7 CALLDATALOAD SWAP6 POP PUSH1 0x20 DUP8 ADD CALLDATALOAD PUSH8 0xFFFFFFFFFFFFFFFF DUP1 DUP3 GT ISZERO PUSH2 0x4A5E JUMPI PUSH1 0x0 DUP1 REVERT JUMPDEST PUSH2 0x4A6A DUP11 DUP4 DUP12 ADD PUSH2 0x49D0 JUMP JUMPDEST SWAP7 POP PUSH1 0x40 DUP10 ADD CALLDATALOAD SWAP2 POP DUP1 DUP3 GT ISZERO PUSH2 0x4A80 JUMPI PUSH1 0x0 DUP1 REVERT JUMPDEST PUSH2 0x4A8C DUP11 DUP4 DUP12 ADD PUSH2 0x49D0 JUMP JUMPDEST SWAP6 POP PUSH1 0x60 DUP10 ADD CALLDATALOAD SWAP5 POP PUSH1 0x80 DUP10 ADD CALLDATALOAD SWAP2 POP DUP1 DUP3 GT ISZERO PUSH2 0x4AA9 JUMPI PUSH1 0x0 DUP1 REVERT JUMPDEST POP PUSH2 0x4AB6 DUP10 DUP3 DUP11 ADD PUSH2 0x49D0 JUMP JUMPDEST SWAP3 POP POP PUSH1 0xA0 DUP8 ADD CALLDATALOAD SWAP1 POP SWAP3 SWAP6 POP SWAP3 SWAP6 POP SWAP3 SWAP6 JUMP JUMPDEST PUSH1 0x0 DUP1 PUSH1 0x0 PUSH1 0x60 DUP5 DUP7 SUB SLT ISZERO PUSH2 0x4ADF JUMPI PUSH1 0x0 DUP1 REVERT JUMPDEST DUP4 CALLDATALOAD PUSH8 0xFFFFFFFFFFFFFFFF DUP1 DUP3 GT ISZERO PUSH2 0x4AF7 JUMPI PUSH1 0x0 DUP1 REVERT JUMPDEST PUSH2 0x4B03 DUP8 DUP4 DUP9 ADD PUSH2 0x49D0 JUMP JUMPDEST SWAP5 POP PUSH1 0x20 DUP7 ADD CALLDATALOAD SWAP2 POP DUP1 DUP3 GT ISZERO PUSH2 0x4B19 JUMPI PUSH1 0x0 DUP1 REVERT JUMPDEST PUSH2 0x4B25 DUP8 DUP4 DUP9 ADD PUSH2 0x49D0 JUMP JUMPDEST SWAP4 POP PUSH1 0x40 DUP7 ADD CALLDATALOAD SWAP2 POP DUP1 DUP3 GT ISZERO PUSH2 0x4B3B JUMPI PUSH1 0x0 DUP1 REVERT JUMPDEST POP PUSH2 0x4B48 DUP7 DUP3 DUP8 ADD PUSH2 0x49D0 JUMP JUMPDEST SWAP2 POP POP SWAP3 POP SWAP3 POP SWAP3 JUMP JUMPDEST PUSH1 0x0 PUSH1 0x20 DUP3 DUP5 SUB SLT ISZERO PUSH2 0x4B64 JUMPI PUSH1 0x0 DUP1 REVERT JUMPDEST POP CALLDATALOAD SWAP2 SWAP1 POP JUMP JUMPDEST PUSH1 0x0 DUP1 PUSH1 0x0 DUP1 PUSH1 0x80 DUP6 DUP8 SUB SLT ISZERO PUSH2 0x4B81 JUMPI PUSH1 0x0 DUP1 REVERT JUMPDEST DUP5 CALLDATALOAD PUSH8 0xFFFFFFFFFFFFFFFF DUP1 DUP3 GT ISZERO PUSH2 0x4B99 JUMPI PUSH1 0x0 DUP1 REVERT JUMPDEST PUSH2 0x4BA5 DUP9 DUP4 DUP10 ADD PUSH2 0x49D0 JUMP JUMPDEST SWAP6 POP PUSH1 0x20 DUP8 ADD CALLDATALOAD SWAP2 POP DUP1 DUP3 GT ISZERO PUSH2 0x4BBB JUMPI PUSH1 0x0 DUP1 REVERT JUMPDEST PUSH2 0x4BC7 DUP9 DUP4 DUP10 ADD PUSH2 0x49D0 JUMP JUMPDEST SWAP5 POP PUSH1 0x40 DUP8 ADD CALLDATALOAD SWAP2 POP DUP1 DUP3 GT ISZERO PUSH2 0x4BDD JUMPI PUSH1 0x0 DUP1 REVERT JUMPDEST POP PUSH2 0x4BEA DUP8 DUP3 DUP9 ADD PUSH2 0x49D0 JUMP JUMPDEST SWAP5 SWAP8 SWAP4 SWAP7 POP SWAP4 SWAP5 PUSH1 0x60 ADD CALLDATALOAD SWAP4 POP POP POP JUMP JUMPDEST PUSH1 0x0 PUSH1 0x20 DUP3 DUP5 SUB SLT ISZERO PUSH2 0x4C0D JUMPI PUSH1 0x0 DUP1 REVERT JUMPDEST DUP2 CALLDATALOAD PUSH8 0xFFFFFFFFFFFFFFFF DUP2 GT ISZERO PUSH2 0x4C24 JUMPI PUSH1 0x0 DUP1 REVERT JUMPDEST PUSH2 0x2E53 DUP5 DUP3 DUP6 ADD PUSH2 0x49D0 JUMP JUMPDEST PUSH1 0x0 DUP1 PUSH1 0x0 DUP1 PUSH1 0x80 DUP6 DUP8 SUB SLT ISZERO PUSH2 0x4C46 JUMPI PUSH1 0x0 DUP1 REVERT JUMPDEST DUP5 CALLDATALOAD SWAP4 POP PUSH1 0x20 DUP6 ADD CALLDATALOAD PUSH8 0xFFFFFFFFFFFFFFFF DUP1 DUP3 GT ISZERO PUSH2 0x4BBB JUMPI PUSH1 0x0 DUP1 REVERT JUMPDEST PUSH1 0x0 JUMPDEST DUP4 DUP2 LT ISZERO PUSH2 0x4C80 JUMPI DUP2 DUP2 ADD MLOAD DUP4 DUP3 ADD MSTORE PUSH1 0x20 ADD PUSH2 0x4C68 JUMP JUMPDEST DUP4 DUP2 GT ISZERO PUSH2 0x58A JUMPI POP POP PUSH1 0x0 SWAP2 ADD MSTORE JUMP JUMPDEST PUSH1 0x0 DUP2 MLOAD DUP1 DUP5 MSTORE PUSH2 0x4CA9 DUP2 PUSH1 0x20 DUP7 ADD PUSH1 0x20 DUP7 ADD PUSH2 0x4C65 JUMP JUMPDEST PUSH1 0x1F ADD PUSH1 0x1F NOT AND SWAP3 SWAP1 SWAP3 ADD PUSH1 0x20 ADD SWAP3 SWAP2 POP POP JUMP JUMPDEST PUSH1 0x20 DUP2 MSTORE PUSH1 0x0 PUSH2 0x2DC3 PUSH1 0x20 DUP4 ADD DUP5 PUSH2 0x4C91 JUMP JUMPDEST PUSH20 0xFFFFFFFFFFFFFFFFFFFFFFFFFFFFFFFFFFFFFFFF DUP2 AND DUP2 EQ PUSH2 0x344F JUMPI PUSH1 0x0 DUP1 REVERT JUMPDEST PUSH1 0x0 DUP1 PUSH1 0x0 DUP1 PUSH1 0x60 DUP6 DUP8 SUB SLT ISZERO PUSH2 0x4D08 JUMPI PUSH1 0x0 DUP1 REVERT JUMPDEST DUP5 CALLDATALOAD PUSH2 0x4D13 DUP2 PUSH2 0x4CD0 JUMP JUMPDEST SWAP4 POP PUSH1 0x20 DUP6 ADD CALLDATALOAD SWAP3 POP PUSH1 0x40 DUP6 ADD CALLDATALOAD PUSH8 0xFFFFFFFFFFFFFFFF DUP2 GT ISZERO PUSH2 0x4D36 JUMPI PUSH1 0x0 DUP1 REVERT JUMPDEST PUSH2 0x4D42 DUP8 DUP3 DUP9 ADD PUSH2 0x4871 JUMP JUMPDEST SWAP6 SWAP9 SWAP5 SWAP8 POP SWAP6 POP POP POP POP JUMP JUMPDEST PUSH1 0x0 DUP2 MLOAD DUP1 DUP5 MSTORE PUSH1 0x20 DUP1 DUP6 ADD SWAP5 POP DUP1 DUP5 ADD PUSH1 0x0 JUMPDEST DUP4 DUP2 LT ISZERO PUSH2 0x4D94 JUMPI DUP2 MLOAD PUSH20 0xFFFFFFFFFFFFFFFFFFFFFFFFFFFFFFFFFFFFFFFF AND DUP8 MSTORE SWAP6 DUP3 ADD SWAP6 SWAP1 DUP3 ADD SWAP1 PUSH1 0x1 ADD PUSH2 0x4D62 JUMP JUMPDEST POP SWAP5 SWAP6 SWAP5 POP POP POP POP POP JUMP JUMPDEST PUSH1 0x20 DUP2 MSTORE PUSH1 0x0 PUSH2 0x2DC3 PUSH1 0x20 DUP4 ADD DUP5 PUSH2 0x4D4E JUMP JUMPDEST PUSH1 0x0 DUP1 PUSH1 0x0 DUP1 PUSH1 0x0 PUSH1 0xA0 DUP7 DUP9 SUB SLT ISZERO PUSH2 0x4DCA JUMPI PUSH1 0x0 DUP1 REVERT JUMPDEST DUP6 CALLDATALOAD PUSH8 0xFFFFFFFFFFFFFFFF DUP1 DUP3 GT ISZERO PUSH2 0x4DE2 JUMPI PUSH1 0x0 DUP1 REVERT JUMPDEST PUSH2 0x4DEE DUP10 DUP4 DUP11 ADD PUSH2 0x49D0 JUMP JUMPDEST SWAP7 POP PUSH1 0x20 DUP9 ADD CALLDATALOAD SWAP2 POP DUP1 DUP3 GT ISZERO PUSH2 0x4E04 JUMPI PUSH1 0x0 DUP1 REVERT JUMPDEST PUSH2 0x4E10 DUP10 DUP4 DUP11 ADD PUSH2 0x49D0 JUMP JUMPDEST SWAP6 POP PUSH1 0x40 DUP9 ADD CALLDATALOAD SWAP2 POP DUP1 DUP3 GT ISZERO PUSH2 0x4E26 JUMPI PUSH1 0x0 DUP1 REVERT JUMPDEST PUSH2 0x4E32 DUP10 DUP4 DUP11 ADD PUSH2 0x49D0 JUMP JUMPDEST SWAP5 POP PUSH1 0x60 DUP9 ADD CALLDATALOAD SWAP2 POP DUP1 DUP3 GT ISZERO PUSH2 0x4E48 JUMPI PUSH1 0x0 DUP1 REVERT JUMPDEST POP PUSH2 0x4E55 DUP9 DUP3 DUP10 ADD PUSH2 0x49D0 JUMP JUMPDEST SWAP6 SWAP9 SWAP5 SWAP8 POP SWAP3 SWAP6 PUSH1 0x80 ADD CALLDATALOAD SWAP4 SWAP3 POP POP POP JUMP JUMPDEST PUSH1 0x0 PUSH8 0xFFFFFFFFFFFFFFFF DUP3 GT ISZERO PUSH2 0x4E81 JUMPI PUSH2 0x4E81 PUSH2 0x4948 JUMP JUMPDEST POP PUSH1 0x5 SHL PUSH1 0x20 ADD SWAP1 JUMP JUMPDEST PUSH1 0x0 DUP1 PUSH1 0x40 DUP4 DUP6 SUB SLT ISZERO PUSH2 0x4E9E JUMPI PUSH1 0x0 DUP1 REVERT JUMPDEST DUP3 CALLDATALOAD PUSH8 0xFFFFFFFFFFFFFFFF DUP1 DUP3 GT ISZERO PUSH2 0x4EB6 JUMPI PUSH1 0x0 DUP1 REVERT JUMPDEST PUSH2 0x4EC2 DUP7 DUP4 DUP8 ADD PUSH2 0x49D0 JUMP JUMPDEST SWAP4 POP PUSH1 0x20 SWAP2 POP DUP2 DUP6 ADD CALLDATALOAD DUP2 DUP2 GT ISZERO PUSH2 0x4ED9 JUMPI PUSH1 0x0 DUP1 REVERT JUMPDEST DUP6 ADD PUSH1 0x1F DUP2 ADD DUP8 SGT PUSH2 0x4EEA JUMPI PUSH1 0x0 DUP1 REVERT JUMPDEST DUP1 CALLDATALOAD PUSH2 0x4EF8 PUSH2 0x49EF DUP3 PUSH2 0x4E67 JUMP JUMPDEST DUP2 DUP2 MSTORE PUSH1 0x5 SWAP2 SWAP1 SWAP2 SHL DUP3 ADD DUP5 ADD SWAP1 DUP5 DUP2 ADD SWAP1 DUP10 DUP4 GT ISZERO PUSH2 0x4F17 JUMPI PUSH1 0x0 DUP1 REVERT JUMPDEST DUP6 DUP5 ADD JUMPDEST DUP4 DUP2 LT ISZERO PUSH2 0x4F4F JUMPI DUP1 CALLDATALOAD DUP7 DUP2 GT ISZERO PUSH2 0x4F33 JUMPI PUSH1 0x0 DUP1 DUP2 REVERT JUMPDEST PUSH2 0x4F41 DUP13 DUP10 DUP4 DUP10 ADD ADD PUSH2 0x49D0 JUMP JUMPDEST DUP5 MSTORE POP SWAP2 DUP7 ADD SWAP2 DUP7 ADD PUSH2 0x4F1B JUMP JUMPDEST POP DUP1 SWAP7 POP POP POP POP POP POP POP SWAP3 POP SWAP3 SWAP1 POP JUMP JUMPDEST PUSH1 0x0 DUP1 PUSH1 0x0 PUSH1 0x60 DUP5 DUP7 SUB SLT ISZERO PUSH2 0x4F75 JUMPI PUSH1 0x0 DUP1 REVERT JUMPDEST DUP4 CALLDATALOAD PUSH8 0xFFFFFFFFFFFFFFFF DUP2 GT ISZERO PUSH2 0x4F8C JUMPI PUSH1 0x0 DUP1 REVERT JUMPDEST PUSH2 0x4F98 DUP7 DUP3 DUP8 ADD PUSH2 0x49D0 JUMP JUMPDEST SWAP4 POP POP PUSH1 0x20 DUP5 ADD CALLDATALOAD PUSH2 0x4FA9 DUP2 PUSH2 0x4CD0 JUMP JUMPDEST SWAP3 SWAP6 SWAP3 SWAP5 POP POP POP PUSH1 0x40 SWAP2 SWAP1 SWAP2 ADD CALLDATALOAD SWAP1 JUMP JUMPDEST PUSH1 0x0 DUP3 MLOAD PUSH2 0x4FCC DUP2 DUP5 PUSH1 0x20 DUP8 ADD PUSH2 0x4C65 JUMP JUMPDEST SWAP2 SWAP1 SWAP2 ADD SWAP3 SWAP2 POP POP JUMP JUMPDEST PUSH1 0x40 DUP2 MSTORE PUSH1 0x0 PUSH2 0x4FE9 PUSH1 0x40 DUP4 ADD DUP6 PUSH2 0x4C91 JUMP JUMPDEST DUP3 DUP2 SUB PUSH1 0x20 DUP5 ADD MSTORE PUSH2 0x4FFB DUP2 DUP6 PUSH2 0x4C91 JUMP JUMPDEST SWAP6 SWAP5 POP POP POP POP POP JUMP JUMPDEST PUSH1 0x60 DUP2 MSTORE PUSH1 0x0 PUSH2 0x5017 PUSH1 0x60 DUP4 ADD DUP7 PUSH2 0x4C91 JUMP JUMPDEST DUP3 DUP2 SUB PUSH1 0x20 DUP5 ADD MSTORE PUSH2 0x5029 DUP2 DUP7 PUSH2 0x4C91 JUMP JUMPDEST SWAP2 POP POP DUP3 PUSH1 0x40 DUP4 ADD MSTORE SWAP5 SWAP4 POP POP POP POP JUMP JUMPDEST DUP2 DUP4 DUP3 CALLDATACOPY PUSH1 0x0 SWAP2 ADD SWAP1 DUP2 MSTORE SWAP2 SWAP1 POP JUMP JUMPDEST PUSH32 0x4E487B7100000000000000000000000000000000000000000000000000000000 PUSH1 0x0 MSTORE PUSH1 0x11 PUSH1 0x4 MSTORE PUSH1 0x24 PUSH1 0x0 REVERT JUMPDEST PUSH1 0x0 DUP3 NOT DUP3 GT ISZERO PUSH2 0x508C JUMPI PUSH2 0x508C PUSH2 0x504A JUMP JUMPDEST POP ADD SWAP1 JUMP JUMPDEST PUSH1 0x0 PUSH32 0xFFFFFFFFFFFFFFFFFFFFFFFFFFFFFFFFFFFFFFFFFFFFFFFFFFFFFFFFFFFFFFFF DUP3 EQ ISZERO PUSH2 0x50C3 JUMPI PUSH2 0x50C3 PUSH2 0x504A JUMP JUMPDEST POP PUSH1 0x1 ADD SWAP1 JUMP JUMPDEST PUSH1 0x0 DUP1 PUSH1 0x40 DUP4 DUP6 SUB SLT ISZERO PUSH2 0x50DD JUMPI PUSH1 0x0 DUP1 REVERT JUMPDEST DUP3 CALLDATALOAD PUSH8 0xFFFFFFFFFFFFFFFF DUP2 GT ISZERO PUSH2 0x50F4 JUMPI PUSH1 0x0 DUP1 REVERT JUMPDEST PUSH2 0x5100 DUP6 DUP3 DUP7 ADD PUSH2 0x49D0 JUMP JUMPDEST SWAP6 PUSH1 0x20 SWAP5 SWAP1 SWAP5 ADD CALLDATALOAD SWAP5 POP POP POP POP JUMP JUMPDEST PUSH1 0x0 DUP1 PUSH1 0x0 DUP1 PUSH1 0x0 DUP1 PUSH1 0xC0 DUP8 DUP10 SUB SLT ISZERO PUSH2 0x5128 JUMPI PUSH1 0x0 DUP1 REVERT JUMPDEST DUP7 CALLDATALOAD PUSH8 0xFFFFFFFFFFFFFFFF DUP1 DUP3 GT ISZERO PUSH2 0x5140 JUMPI PUSH1 0x0 DUP1 REVERT JUMPDEST PUSH2 0x514C DUP11 DUP4 DUP12 ADD PUSH2 0x49D0 JUMP JUMPDEST SWAP8 POP PUSH1 0x20 DUP10 ADD CALLDATALOAD SWAP2 POP DUP1 DUP3 GT ISZERO PUSH2 0x5162 JUMPI PUSH1 0x0 DUP1 REVERT JUMPDEST PUSH2 0x516E DUP11 DUP4 DUP12 ADD PUSH2 0x49D0 JUMP JUMPDEST SWAP7 POP PUSH1 0x40 DUP10 ADD CALLDATALOAD SWAP2 POP PUSH2 0x5180 DUP3 PUSH2 0x4CD0 JUMP JUMPDEST SWAP1 SWAP5 POP PUSH1 0x60 DUP9 ADD CALLDATALOAD SWAP4 POP PUSH1 0x80 DUP9 ADD CALLDATALOAD SWAP1 DUP1 DUP3 GT ISZERO PUSH2 0x4AA9 JUMPI PUSH1 0x0 DUP1 REVERT JUMPDEST PUSH1 0x0 DUP3 PUSH1 0x1F DUP4 ADD SLT PUSH2 0x51AE JUMPI PUSH1 0x0 DUP1 REVERT JUMPDEST DUP2 CALLDATALOAD PUSH1 0x20 PUSH2 0x51BE PUSH2 0x49EF DUP4 PUSH2 0x4E67 JUMP JUMPDEST DUP3 DUP2 MSTORE PUSH1 0x5 SWAP3 SWAP1 SWAP3 SHL DUP5 ADD DUP2 ADD SWAP2 DUP2 DUP2 ADD SWAP1 DUP7 DUP5 GT ISZERO PUSH2 0x51DD JUMPI PUSH1 0x0 DUP1 REVERT JUMPDEST DUP3 DUP7 ADD JUMPDEST DUP5 DUP2 LT ISZERO PUSH2 0x65C JUMPI DUP1 CALLDATALOAD PUSH2 0x51F4 DUP2 PUSH2 0x4CD0 JUMP JUMPDEST DUP4 MSTORE SWAP2 DUP4 ADD SWAP2 DUP4 ADD PUSH2 0x51E1 JUMP JUMPDEST PUSH1 0x0 DUP1 PUSH1 0x40 DUP4 DUP6 SUB SLT ISZERO PUSH2 0x5214 JUMPI PUSH1 0x0 DUP1 REVERT JUMPDEST DUP3 CALLDATALOAD PUSH8 0xFFFFFFFFFFFFFFFF DUP2 GT ISZERO PUSH2 0x522B JUMPI PUSH1 0x0 DUP1 REVERT JUMPDEST PUSH2 0x5100 DUP6 DUP3 DUP7 ADD PUSH2 0x519D JUMP JUMPDEST PUSH1 0x80 DUP2 MSTORE PUSH1 0x0 PUSH2 0x524A PUSH1 0x80 DUP4 ADD DUP8 PUSH2 0x4D4E JUMP JUMPDEST DUP6 PUSH1 0x20 DUP5 ADD MSTORE DUP3 DUP2 SUB PUSH1 0x40 DUP5 ADD MSTORE PUSH2 0x5262 DUP2 DUP7 PUSH2 0x4D4E JUMP JUMPDEST SWAP2 POP POP DUP3 PUSH1 0x60 DUP4 ADD MSTORE SWAP6 SWAP5 POP POP POP POP POP JUMP JUMPDEST PUSH1 0x0 DUP1 PUSH1 0x0 DUP1 PUSH1 0x0 PUSH1 0xA0 DUP7 DUP9 SUB SLT ISZERO PUSH2 0x528C JUMPI PUSH1 0x0 DUP1 REVERT JUMPDEST DUP6 CALLDATALOAD PUSH8 0xFFFFFFFFFFFFFFFF DUP1 DUP3 GT ISZERO PUSH2 0x52A4 JUMPI PUSH1 0x0 DUP1 REVERT JUMPDEST PUSH2 0x52B0 DUP10 DUP4 DUP11 ADD PUSH2 0x49D0 JUMP JUMPDEST SWAP7 POP PUSH1 0x20 DUP9 ADD CALLDATALOAD SWAP2 POP DUP1 DUP3 GT ISZERO PUSH2 0x52C6 JUMPI PUSH1 0x0 DUP1 REVERT JUMPDEST POP PUSH2 0x52D3 DUP9 DUP3 DUP10 ADD PUSH2 0x49D0 JUMP JUMPDEST SWAP5 POP POP PUSH1 0x40 DUP7 ADD CALLDATALOAD PUSH1 0xFF DUP2 AND DUP2 EQ PUSH2 0x52EA JUMPI PUSH1 0x0 DUP1 REVERT JUMPDEST SWAP3 POP PUSH1 0x60 DUP7 ADD CALLDATALOAD SWAP2 POP PUSH1 0x80 DUP7 ADD CALLDATALOAD PUSH2 0x5301 DUP2 PUSH2 0x4CD0 JUMP JUMPDEST DUP1 SWAP2 POP POP SWAP3 SWAP6 POP SWAP3 SWAP6 SWAP1 SWAP4 POP JUMP JUMPDEST PUSH1 0x1 DUP2 DUP2 SHR SWAP1 DUP3 AND DUP1 PUSH2 0x5323 JUMPI PUSH1 0x7F DUP3 AND SWAP2 POP JUMPDEST PUSH1 0x20 DUP3 LT DUP2 EQ ISZERO PUSH2 0x535D JUMPI PUSH32 0x4E487B7100000000000000000000000000000000000000000000000000000000 PUSH1 0x0 MSTORE PUSH1 0x22 PUSH1 0x4 MSTORE PUSH1 0x24 PUSH1 0x0 REVERT JUMPDEST POP SWAP2 SWAP1 POP JUMP JUMPDEST PUSH1 0x0 DUP1 PUSH1 0x0 DUP1 PUSH1 0x0 DUP1 PUSH1 0xC0 DUP8 DUP10 SUB SLT ISZERO PUSH2 0x537C JUMPI PUSH1 0x0 DUP1 REVERT JUMPDEST DUP7 CALLDATALOAD PUSH8 0xFFFFFFFFFFFFFFFF DUP1 DUP3 GT ISZERO PUSH2 0x5394 JUMPI PUSH1 0x0 DUP1 REVERT JUMPDEST PUSH2 0x53A0 DUP11 DUP4 DUP12 ADD PUSH2 0x519D JUMP JUMPDEST SWAP8 POP PUSH1 0x20 DUP10 ADD CALLDATALOAD SWAP7 POP PUSH1 0x40 DUP10 ADD CALLDATALOAD SWAP2 POP DUP1 DUP3 GT ISZERO PUSH2 0x53BD JUMPI PUSH1 0x0 DUP1 REVERT JUMPDEST PUSH2 0x53C9 DUP11 DUP4 DUP12 ADD PUSH2 0x519D JUMP JUMPDEST SWAP6 POP PUSH1 0x60 DUP10 ADD CALLDATALOAD SWAP5 POP PUSH1 0x80 DUP10 ADD CALLDATALOAD SWAP2 POP DUP1 DUP3 GT ISZERO PUSH2 0x53E6 JUMPI PUSH1 0x0 DUP1 REVERT JUMPDEST POP PUSH2 0x4AB6 DUP10 DUP3 DUP11 ADD PUSH2 0x519D JUMP JUMPDEST PUSH1 0x20 DUP2 MSTORE DUP2 PUSH1 0x20 DUP3 ADD MSTORE DUP2 DUP4 PUSH1 0x40 DUP4 ADD CALLDATACOPY PUSH1 0x0 DUP2 DUP4 ADD PUSH1 0x40 SWAP1 DUP2 ADD SWAP2 SWAP1 SWAP2 MSTORE PUSH1 0x1F SWAP1 SWAP3 ADD PUSH1 0x1F NOT AND ADD ADD SWAP2 SWAP1 POP JUMP JUMPDEST PUSH32 0x4E487B7100000000000000000000000000000000000000000000000000000000 PUSH1 0x0 MSTORE PUSH1 0x32 PUSH1 0x4 MSTORE PUSH1 0x24 PUSH1 0x0 REVERT JUMPDEST PUSH1 0x80 DUP2 MSTORE PUSH1 0x0 PUSH2 0x5464 PUSH1 0x80 DUP4 ADD DUP8 PUSH2 0x4C91 JUMP JUMPDEST DUP3 DUP2 SUB PUSH1 0x20 DUP5 ADD MSTORE PUSH2 0x5476 DUP2 DUP8 PUSH2 0x4C91 JUMP JUMPDEST SWAP1 POP DUP3 DUP2 SUB PUSH1 0x40 DUP5 ADD MSTORE PUSH2 0x5262 DUP2 DUP7 PUSH2 0x4C91 JUMP JUMPDEST PUSH1 0x0 DUP1 PUSH1 0x0 DUP1 PUSH1 0x80 DUP6 DUP8 SUB SLT ISZERO PUSH2 0x54A0 JUMPI PUSH1 0x0 DUP1 REVERT JUMPDEST DUP5 CALLDATALOAD PUSH8 0xFFFFFFFFFFFFFFFF DUP1 DUP3 GT ISZERO PUSH2 0x54B8 JUMPI PUSH1 0x0 DUP1 REVERT JUMPDEST PUSH2 0x54C4 DUP9 DUP4 DUP10 ADD PUSH2 0x49D0 JUMP JUMPDEST SWAP6 POP PUSH1 0x20 DUP8 ADD CALLDATALOAD SWAP2 POP DUP1 DUP3 GT ISZERO PUSH2 0x54DA JUMPI PUSH1 0x0 DUP1 REVERT JUMPDEST POP PUSH2 0x54E7 DUP8 DUP3 DUP9 ADD PUSH2 0x49D0 JUMP JUMPDEST SWAP4 POP POP PUSH1 0x40 DUP6 ADD CALLDATALOAD PUSH2 0x54F8 DUP2 PUSH2 0x4CD0 JUMP JUMPDEST SWAP4 SWAP7 SWAP3 SWAP6 POP SWAP3 SWAP4 PUSH1 0x60 ADD CALLDATALOAD SWAP3 POP POP JUMP JUMPDEST PUSH1 0x0 PUSH2 0x5516 PUSH2 0x49EF DUP5 PUSH2 0x49A8 JUMP JUMPDEST SWAP1 POP DUP3 DUP2 MSTORE DUP4 DUP4 DUP4 ADD GT ISZERO PUSH2 0x552A JUMPI PUSH1 0x0 DUP1 REVERT JUMPDEST PUSH2 0x2DC3 DUP4 PUSH1 0x20 DUP4 ADD DUP5 PUSH2 0x4C65 JUMP JUMPDEST PUSH1 0x0 DUP3 PUSH1 0x1F DUP4 ADD SLT PUSH2 0x5549 JUMPI PUSH1 0x0 DUP1 REVERT JUMPDEST DUP2 MLOAD PUSH1 0x20 PUSH2 0x5559 PUSH2 0x49EF DUP4 PUSH2 0x4E67 JUMP JUMPDEST DUP3 DUP2 MSTORE PUSH1 0x5 SWAP3 SWAP1 SWAP3 SHL DUP5 ADD DUP2 ADD SWAP2 DUP2 DUP2 ADD SWAP1 DUP7 DUP5 GT ISZERO PUSH2 0x5578 JUMPI PUSH1 0x0 DUP1 REVERT JUMPDEST DUP3 DUP7 ADD JUMPDEST DUP5 DUP2 LT ISZERO PUSH2 0x65C JUMPI DUP1 MLOAD PUSH8 0xFFFFFFFFFFFFFFFF DUP2 GT ISZERO PUSH2 0x559C JUMPI PUSH1 0x0 DUP1 DUP2 REVERT JUMPDEST DUP8 ADD PUSH1 0x3F DUP2 ADD DUP10 SGT PUSH2 0x55AE JUMPI PUSH1 0x0 DUP1 DUP2 REVERT JUMPDEST PUSH2 0x55BF DUP10 DUP7 DUP4 ADD MLOAD PUSH1 0x40 DUP5 ADD PUSH2 0x5508 JUMP JUMPDEST DUP5 MSTORE POP SWAP2 DUP4 ADD SWAP2 DUP4 ADD PUSH2 0x557C JUMP JUMPDEST PUSH1 0x0 DUP3 PUSH1 0x1F DUP4 ADD SLT PUSH2 0x55DE JUMPI PUSH1 0x0 DUP1 REVERT JUMPDEST PUSH2 0x2DC3 DUP4 DUP4 MLOAD PUSH1 0x20 DUP6 ADD PUSH2 0x5508 JUMP JUMPDEST PUSH1 0x0 DUP3 PUSH1 0x1F DUP4 ADD SLT PUSH2 0x55FE JUMPI PUSH1 0x0 DUP1 REVERT JUMPDEST DUP2 MLOAD PUSH1 0x20 PUSH2 0x560E PUSH2 0x49EF DUP4 PUSH2 0x4E67 JUMP JUMPDEST DUP3 DUP2 MSTORE PUSH1 0x5 SWAP3 SWAP1 SWAP3 SHL DUP5 ADD DUP2 ADD SWAP2 DUP2 DUP2 ADD SWAP1 DUP7 DUP5 GT ISZERO PUSH2 0x562D JUMPI PUSH1 0x0 DUP1 REVERT JUMPDEST DUP3 DUP7 ADD JUMPDEST DUP5 DUP2 LT ISZERO PUSH2 0x65C JUMPI DUP1 MLOAD PUSH8 0xFFFFFFFFFFFFFFFF DUP2 GT ISZERO PUSH2 0x5651 JUMPI PUSH1 0x0 DUP1 DUP2 REVERT JUMPDEST PUSH2 0x565F DUP10 DUP7 DUP4 DUP12 ADD ADD PUSH2 0x55CD JUMP JUMPDEST DUP5 MSTORE POP SWAP2 DUP4 ADD SWAP2 DUP4 ADD PUSH2 0x5631 JUMP JUMPDEST PUSH1 0x0 DUP1 PUSH1 0x0 DUP1 PUSH1 0x0 PUSH1 0xA0 DUP7 DUP9 SUB SLT ISZERO PUSH2 0x5685 JUMPI PUSH1 0x0 DUP1 REVERT JUMPDEST DUP6 MLOAD SWAP5 POP PUSH1 0x20 DUP1 DUP8 ADD MLOAD PUSH1 0x3 DUP2 LT PUSH2 0x569C JUMPI PUSH1 0x0 DUP1 REVERT JUMPDEST PUSH1 0x40 DUP9 ADD MLOAD SWAP1 SWAP6 POP PUSH8 0xFFFFFFFFFFFFFFFF DUP1 DUP3 GT ISZERO PUSH2 0x56BA JUMPI PUSH1 0x0 DUP1 REVERT JUMPDEST DUP2 DUP10 ADD SWAP2 POP DUP10 PUSH1 0x1F DUP4 ADD SLT PUSH2 0x56CE JUMPI PUSH1 0x0 DUP1 REVERT JUMPDEST DUP2 MLOAD PUSH2 0x56DC PUSH2 0x49EF DUP3 PUSH2 0x4E67 JUMP JUMPDEST DUP2 DUP2 MSTORE PUSH1 0x5 SWAP2 SWAP1 SWAP2 SHL DUP4 ADD DUP5 ADD SWAP1 DUP5 DUP2 ADD SWAP1 DUP13 DUP4 GT ISZERO PUSH2 0x56FB JUMPI PUSH1 0x0 DUP1 REVERT JUMPDEST SWAP4 DUP6 ADD SWAP4 JUMPDEST DUP3 DUP6 LT ISZERO PUSH2 0x5719 JUMPI DUP5 MLOAD DUP3 MSTORE SWAP4 DUP6 ADD SWAP4 SWAP1 DUP6 ADD SWAP1 PUSH2 0x5700 JUMP JUMPDEST PUSH1 0x60 DUP13 ADD MLOAD SWAP1 SWAP9 POP SWAP5 POP POP POP DUP1 DUP4 GT ISZERO PUSH2 0x5732 JUMPI PUSH1 0x0 DUP1 REVERT JUMPDEST PUSH2 0x573E DUP11 DUP5 DUP12 ADD PUSH2 0x5538 JUMP JUMPDEST SWAP5 POP PUSH1 0x80 DUP10 ADD MLOAD SWAP3 POP DUP1 DUP4 GT ISZERO PUSH2 0x5754 JUMPI PUSH1 0x0 DUP1 REVERT JUMPDEST POP POP PUSH2 0x5762 DUP9 DUP3 DUP10 ADD PUSH2 0x55ED JUMP JUMPDEST SWAP2 POP POP SWAP3 SWAP6 POP SWAP3 SWAP6 SWAP1 SWAP4 POP JUMP JUMPDEST PUSH32 0x4E487B7100000000000000000000000000000000000000000000000000000000 PUSH1 0x0 MSTORE PUSH1 0x21 PUSH1 0x4 MSTORE PUSH1 0x24 PUSH1 0x0 REVERT JUMPDEST PUSH1 0x40 DUP2 MSTORE PUSH1 0x0 PUSH2 0x57B1 PUSH1 0x40 DUP4 ADD DUP6 PUSH2 0x4C91 JUMP JUMPDEST SWAP1 POP DUP3 PUSH1 0x20 DUP4 ADD MSTORE SWAP4 SWAP3 POP POP POP JUMP JUMPDEST DUP9 DUP2 MSTORE DUP8 PUSH1 0x20 DUP3 ADD MSTORE PUSH1 0x0 DUP8 MLOAD PUSH2 0x57DE DUP2 PUSH1 0x40 DUP6 ADD PUSH1 0x20 DUP13 ADD PUSH2 0x4C65 JUMP JUMPDEST DUP8 MLOAD SWAP1 DUP4 ADD SWAP1 PUSH2 0x57F5 DUP2 PUSH1 0x40 DUP5 ADD PUSH1 0x20 DUP13 ADD PUSH2 0x4C65 JUMP JUMPDEST DUP1 DUP3 ADD SWAP2 POP POP PUSH32 0xFFFFFFFFFFFFFFFFFFFFFFFFFFFFFFFFFFFFFFFF000000000000000000000000 DUP8 PUSH1 0x60 SHL AND PUSH1 0x40 DUP3 ADD MSTORE DUP6 PUSH1 0x54 DUP3 ADD MSTORE DUP5 MLOAD PUSH2 0x583F DUP2 PUSH1 0x74 DUP5 ADD PUSH1 0x20 DUP10 ADD PUSH2 0x4C65 JUMP JUMPDEST ADD PUSH1 0x74 DUP2 ADD SWAP4 SWAP1 SWAP4 MSTORE POP POP PUSH1 0x94 ADD SWAP8 SWAP7 POP POP POP POP POP POP POP JUMP JUMPDEST PUSH1 0x0 PUSH1 0x20 DUP3 DUP5 SUB SLT ISZERO PUSH2 0x586A JUMPI PUSH1 0x0 DUP1 REVERT JUMPDEST DUP2 MLOAD PUSH2 0x2DC3 DUP2 PUSH2 0x4CD0 JUMP JUMPDEST DUP3 DUP2 MSTORE PUSH1 0x0 DUP3 MLOAD PUSH2 0x588D DUP2 PUSH1 0x20 DUP6 ADD PUSH1 0x20 DUP8 ADD PUSH2 0x4C65 JUMP JUMPDEST SWAP2 SWAP1 SWAP2 ADD PUSH1 0x20 ADD SWAP4 SWAP3 POP POP POP JUMP JUMPDEST PUSH1 0x0 PUSH1 0x20 DUP3 DUP5 SUB SLT ISZERO PUSH2 0x58AD JUMPI PUSH1 0x0 DUP1 REVERT JUMPDEST POP MLOAD SWAP2 SWAP1 POP JUMP JUMPDEST PUSH20 0xFFFFFFFFFFFFFFFFFFFFFFFFFFFFFFFFFFFFFFFF DUP4 AND DUP2 MSTORE PUSH1 0x40 PUSH1 0x20 DUP3 ADD MSTORE PUSH1 0x0 PUSH2 0x2E53 PUSH1 0x40 DUP4 ADD DUP5 PUSH2 0x4C91 JUMP JUMPDEST DUP1 MLOAD DUP1 ISZERO ISZERO DUP2 EQ PUSH2 0x58F3 JUMPI PUSH1 0x0 DUP1 REVERT JUMPDEST SWAP2 SWAP1 POP JUMP JUMPDEST PUSH1 0x0 DUP1 PUSH1 0x40 DUP4 DUP6 SUB SLT ISZERO PUSH2 0x590B JUMPI PUSH1 0x0 DUP1 REVERT JUMPDEST PUSH2 0x5914 DUP4 PUSH2 0x58E3 JUMP JUMPDEST SWAP2 POP PUSH1 0x20 DUP4 ADD MLOAD PUSH8 0xFFFFFFFFFFFFFFFF DUP2 GT ISZERO PUSH2 0x5930 JUMPI PUSH1 0x0 DUP1 REVERT JUMPDEST PUSH2 0x593C DUP6 DUP3 DUP7 ADD PUSH2 0x55CD JUMP JUMPDEST SWAP2 POP POP SWAP3 POP SWAP3 SWAP1 POP JUMP JUMPDEST PUSH1 0x0 PUSH1 0x20 DUP3 DUP5 SUB SLT ISZERO PUSH2 0x5958 JUMPI PUSH1 0x0 DUP1 REVERT JUMPDEST PUSH2 0x2DC3 DUP3 PUSH2 0x58E3 JUMP JUMPDEST DUP7 DUP2 MSTORE DUP6 PUSH1 0x20 DUP3 ADD MSTORE PUSH1 0x0 DUP6 MLOAD PUSH2 0x597F DUP2 PUSH1 0x40 DUP6 ADD PUSH1 0x20 DUP11 ADD PUSH2 0x4C65 JUMP JUMPDEST DUP6 MLOAD SWAP1 DUP4 ADD SWAP1 PUSH2 0x5996 DUP2 PUSH1 0x40 DUP5 ADD PUSH1 0x20 DUP11 ADD PUSH2 0x4C65 JUMP JUMPDEST PUSH1 0x60 SWAP6 SWAP1 SWAP6 SHL PUSH32 0xFFFFFFFFFFFFFFFFFFFFFFFFFFFFFFFFFFFFFFFF000000000000000000000000 AND PUSH1 0x40 SWAP2 SWAP1 SWAP6 ADD SWAP1 DUP2 ADD SWAP5 SWAP1 SWAP5 MSTORE POP POP PUSH1 0x54 DUP3 ADD MSTORE PUSH1 0x74 ADD SWAP5 SWAP4 POP POP POP POP JUMP JUMPDEST PUSH1 0xA0 DUP2 MSTORE PUSH1 0x0 PUSH2 0x59F0 PUSH1 0xA0 DUP4 ADD DUP9 PUSH2 0x4C91 JUMP JUMPDEST DUP3 DUP2 SUB PUSH1 0x20 DUP5 ADD MSTORE PUSH2 0x5A02 DUP2 DUP9 PUSH2 0x4C91 JUMP JUMPDEST PUSH1 0xFF SWAP7 SWAP1 SWAP7 AND PUSH1 0x40 DUP5 ADD MSTORE POP POP PUSH1 0x60 DUP2 ADD SWAP3 SWAP1 SWAP3 MSTORE PUSH1 0x80 SWAP1 SWAP2 ADD MSTORE SWAP3 SWAP2 POP POP JUMP JUMPDEST PUSH1 0x40 DUP2 MSTORE PUSH1 0x0 PUSH2 0x5A36 PUSH1 0x40 DUP4 ADD DUP6 PUSH2 0x4C91 JUMP JUMPDEST SWAP1 POP PUSH20 0xFFFFFFFFFFFFFFFFFFFFFFFFFFFFFFFFFFFFFFFF DUP4 AND PUSH1 0x20 DUP4 ADD MSTORE SWAP4 SWAP3 POP POP POP JUMP JUMPDEST PUSH1 0x0 DUP3 DUP3 LT ISZERO PUSH2 0x5A6D JUMPI PUSH2 0x5A6D PUSH2 0x504A JUMP JUMPDEST POP SUB SWAP1 JUMP JUMPDEST PUSH1 0x0 DUP2 PUSH2 0x5A81 JUMPI PUSH2 0x5A81 PUSH2 0x504A JUMP JUMPDEST POP PUSH32 0xFFFFFFFFFFFFFFFFFFFFFFFFFFFFFFFFFFFFFFFFFFFFFFFFFFFFFFFFFFFFFFFF ADD SWAP1 JUMP INVALID PUSH1 0x80 PUSH1 0x40 MSTORE PUSH1 0x0 DUP1 SSTORE CALLVALUE DUP1 ISZERO PUSH2 0x14 JUMPI PUSH1 0x0 DUP1 REVERT JUMPDEST POP PUSH2 0x2C7 DUP1 PUSH2 0x24 PUSH1 0x0 CODECOPY PUSH1 0x0 RETURN INVALID PUSH1 0x80 PUSH1 0x40 MSTORE CALLVALUE DUP1 ISZERO PUSH2 0x10 JUMPI PUSH1 0x0 DUP1 REVERT JUMPDEST POP PUSH1 0x4 CALLDATASIZE LT PUSH2 0x35 JUMPI PUSH1 0x0 CALLDATALOAD PUSH1 0xE0 SHR DUP1 PUSH3 0xF55D9D EQ PUSH2 0x3A JUMPI DUP1 PUSH4 0x1CFF79CD EQ PUSH2 0x4F JUMPI JUMPDEST PUSH1 0x0 DUP1 REVERT JUMPDEST PUSH2 0x4D PUSH2 0x48 CALLDATASIZE PUSH1 0x4 PUSH2 0x15F JUMP JUMPDEST PUSH2 0x79 JUMP JUMPDEST STOP JUMPDEST PUSH2 0x62 PUSH2 0x5D CALLDATASIZE PUSH1 0x4 PUSH2 0x181 JUMP JUMPDEST PUSH2 0xA4 JUMP JUMPDEST PUSH1 0x40 MLOAD PUSH2 0x70 SWAP3 SWAP2 SWAP1 PUSH2 0x204 JUMP JUMPDEST PUSH1 0x40 MLOAD DUP1 SWAP2 SUB SWAP1 RETURN JUMPDEST PUSH1 0x0 SLOAD ISZERO PUSH2 0x86 JUMPI PUSH1 0x0 DUP1 REVERT JUMPDEST PUSH1 0x1 PUSH1 0x0 SSTORE PUSH20 0xFFFFFFFFFFFFFFFFFFFFFFFFFFFFFFFFFFFFFFFF DUP2 AND SELFDESTRUCT JUMPDEST PUSH1 0x0 PUSH1 0x60 PUSH1 0x0 DUP1 SLOAD EQ PUSH2 0xB6 JUMPI PUSH1 0x0 DUP1 REVERT JUMPDEST PUSH1 0x1 PUSH1 0x0 SSTORE PUSH1 0x40 MLOAD PUSH20 0xFFFFFFFFFFFFFFFFFFFFFFFFFFFFFFFFFFFFFFFF DUP7 AND SWAP1 PUSH2 0xE3 SWAP1 DUP7 SWAP1 DUP7 SWAP1 PUSH2 0x281 JUMP JUMPDEST PUSH1 0x0 PUSH1 0x40 MLOAD DUP1 DUP4 SUB DUP2 PUSH1 0x0 DUP7 GAS CALL SWAP2 POP POP RETURNDATASIZE DUP1 PUSH1 0x0 DUP2 EQ PUSH2 0x120 JUMPI PUSH1 0x40 MLOAD SWAP2 POP PUSH1 0x1F NOT PUSH1 0x3F RETURNDATASIZE ADD AND DUP3 ADD PUSH1 0x40 MSTORE RETURNDATASIZE DUP3 MSTORE RETURNDATASIZE PUSH1 0x0 PUSH1 0x20 DUP5 ADD RETURNDATACOPY PUSH2 0x125 JUMP JUMPDEST PUSH1 0x60 SWAP2 POP JUMPDEST POP PUSH1 0x0 DUP1 SSTORE SWAP1 SWAP7 SWAP1 SWAP6 POP SWAP4 POP POP POP POP JUMP JUMPDEST DUP1 CALLDATALOAD PUSH20 0xFFFFFFFFFFFFFFFFFFFFFFFFFFFFFFFFFFFFFFFF DUP2 AND DUP2 EQ PUSH2 0x15A JUMPI PUSH1 0x0 DUP1 REVERT JUMPDEST SWAP2 SWAP1 POP JUMP JUMPDEST PUSH1 0x0 PUSH1 0x20 DUP3 DUP5 SUB SLT ISZERO PUSH2 0x171 JUMPI PUSH1 0x0 DUP1 REVERT JUMPDEST PUSH2 0x17A DUP3 PUSH2 0x136 JUMP JUMPDEST SWAP4 SWAP3 POP POP POP JUMP JUMPDEST PUSH1 0x0 DUP1 PUSH1 0x0 PUSH1 0x40 DUP5 DUP7 SUB SLT ISZERO PUSH2 0x196 JUMPI PUSH1 0x0 DUP1 REVERT JUMPDEST PUSH2 0x19F DUP5 PUSH2 0x136 JUMP JUMPDEST SWAP3 POP PUSH1 0x20 DUP5 ADD CALLDATALOAD PUSH8 0xFFFFFFFFFFFFFFFF DUP1 DUP3 GT ISZERO PUSH2 0x1BC JUMPI PUSH1 0x0 DUP1 REVERT JUMPDEST DUP2 DUP7 ADD SWAP2 POP DUP7 PUSH1 0x1F DUP4 ADD SLT PUSH2 0x1D0 JUMPI PUSH1 0x0 DUP1 REVERT JUMPDEST DUP2 CALLDATALOAD DUP2 DUP2 GT ISZERO PUSH2 0x1DF JUMPI PUSH1 0x0 DUP1 REVERT JUMPDEST DUP8 PUSH1 0x20 DUP3 DUP6 ADD ADD GT ISZERO PUSH2 0x1F1 JUMPI PUSH1 0x0 DUP1 REVERT JUMPDEST PUSH1 0x20 DUP4 ADD SWAP5 POP DUP1 SWAP4 POP POP POP POP SWAP3 POP SWAP3 POP SWAP3 JUMP JUMPDEST DUP3 ISZERO ISZERO DUP2 MSTORE PUSH1 0x0 PUSH1 0x20 PUSH1 0x40 DUP2 DUP5 ADD MSTORE DUP4 MLOAD DUP1 PUSH1 0x40 DUP6 ADD MSTORE PUSH1 0x0 JUMPDEST DUP2 DUP2 LT ISZERO PUSH2 0x23A JUMPI DUP6 DUP2 ADD DUP4 ADD MLOAD DUP6 DUP3 ADD PUSH1 0x60 ADD MSTORE DUP3 ADD PUSH2 0x21E JUMP JUMPDEST DUP2 DUP2 GT ISZERO PUSH2 0x24C JUMPI PUSH1 0x0 PUSH1 0x60 DUP4 DUP8 ADD ADD MSTORE JUMPDEST POP PUSH1 0x1F ADD PUSH32 0xFFFFFFFFFFFFFFFFFFFFFFFFFFFFFFFFFFFFFFFFFFFFFFFFFFFFFFFFFFFFFFE0 AND SWAP3 SWAP1 SWAP3 ADD PUSH1 0x60 ADD SWAP5 SWAP4 POP POP POP POP JUMP JUMPDEST DUP2 DUP4 DUP3 CALLDATACOPY PUSH1 0x0 SWAP2 ADD SWAP1 DUP2 MSTORE SWAP2 SWAP1 POP JUMP INVALID LOG2 PUSH5 0x6970667358 0x22 SLT KECCAK256 REVERT 0xD6 0xDB JUMPDEST 0xBA EXP REVERT 0x25 0x1F 0xCE 0xFC 0xEC CODECOPY SGT PUSH6 0xB375890325F 0xD2 0xD7 ISZERO 0x2A SELFDESTRUCT LOG2 0xDA PUSH28 0xD2749664736F6C63430008090033A2646970667358221220EE3ED86B STATICCALL JUMPDEST SWAP14 JUMPI PUSH32 0xCA6C51DC5FC35EE93AEFBFA5B1201450416704C8678FEA64736F6C6343000809 STOP CALLER "
    }
  }
}