{
  "abi": [
    {
      "inputs": [
        {
          "internalType": "address",
          "name": "tokenDeployer",
          "type": "address"
        }
      ],
      "stateMutability": "nonpayable",
      "type": "constructor"
    },
    {
      "anonymous": false,
      "inputs": [
        {
          "indexed": true,
          "internalType": "address",
          "name": "account",
          "type": "address"
        }
      ],
      "name": "AccountBlacklisted",
      "type": "event"
    },
    {
      "anonymous": false,
      "inputs": [
        {
          "indexed": true,
          "internalType": "address",
          "name": "account",
          "type": "address"
        }
      ],
      "name": "AccountWhitelisted",
      "type": "event"
    },
    {
      "anonymous": false,
      "inputs": [],
      "name": "AllTokensFrozen",
      "type": "event"
    },
    {
      "anonymous": false,
      "inputs": [],
      "name": "AllTokensUnfrozen",
      "type": "event"
    },
    {
      "anonymous": false,
      "inputs": [
        {
          "indexed": true,
          "internalType": "address",
          "name": "sender",
          "type": "address"
        },
        {
          "indexed": false,
          "internalType": "string",
          "name": "destinationChain",
          "type": "string"
        },
        {
          "indexed": true,
          "internalType": "string",
          "name": "contractAddress",
          "type": "string"
        },
        {
          "indexed": true,
          "internalType": "bytes32",
          "name": "payloadHash",
          "type": "bytes32"
        },
        {
          "indexed": false,
          "internalType": "bytes",
          "name": "payload",
          "type": "bytes"
        }
      ],
      "name": "ContractCall",
      "type": "event"
    },
    {
      "anonymous": false,
      "inputs": [
        {
          "indexed": true,
          "internalType": "bytes32",
          "name": "commandId",
          "type": "bytes32"
        },
        {
          "indexed": false,
          "internalType": "string",
          "name": "sourceChain",
          "type": "string"
        },
        {
          "indexed": false,
          "internalType": "string",
          "name": "sourceAddress",
          "type": "string"
        },
        {
          "indexed": true,
          "internalType": "address",
          "name": "contractAddress",
          "type": "address"
        },
        {
          "indexed": true,
          "internalType": "bytes32",
          "name": "payloadHash",
          "type": "bytes32"
        }
      ],
      "name": "ContractCallApproved",
      "type": "event"
    },
    {
      "anonymous": false,
      "inputs": [
        {
          "indexed": true,
          "internalType": "bytes32",
          "name": "commandId",
          "type": "bytes32"
        },
        {
          "indexed": false,
          "internalType": "string",
          "name": "sourceChain",
          "type": "string"
        },
        {
          "indexed": false,
          "internalType": "string",
          "name": "sourceAddress",
          "type": "string"
        },
        {
          "indexed": true,
          "internalType": "address",
          "name": "contractAddress",
          "type": "address"
        },
        {
          "indexed": true,
          "internalType": "bytes32",
          "name": "payloadHash",
          "type": "bytes32"
        },
        {
          "indexed": false,
          "internalType": "string",
          "name": "symbol",
          "type": "string"
        },
        {
          "indexed": false,
          "internalType": "uint256",
          "name": "amount",
          "type": "uint256"
        }
      ],
      "name": "ContractCallApprovedWithMint",
      "type": "event"
    },
    {
      "anonymous": false,
      "inputs": [
        {
          "indexed": true,
          "internalType": "address",
          "name": "sender",
          "type": "address"
        },
        {
          "indexed": false,
          "internalType": "string",
          "name": "destinationChain",
          "type": "string"
        },
        {
          "indexed": true,
          "internalType": "string",
          "name": "contractAddress",
          "type": "string"
        },
        {
          "indexed": true,
          "internalType": "bytes32",
          "name": "payloadHash",
          "type": "bytes32"
        },
        {
          "indexed": false,
          "internalType": "bytes",
          "name": "payload",
          "type": "bytes"
        },
        {
          "indexed": false,
          "internalType": "string",
          "name": "symbol",
          "type": "string"
        },
        {
          "indexed": false,
          "internalType": "uint256",
          "name": "amount",
          "type": "uint256"
        }
      ],
      "name": "ContractCallWithToken",
      "type": "event"
    },
    {
      "anonymous": false,
      "inputs": [
        {
          "indexed": true,
          "internalType": "bytes32",
          "name": "commandId",
          "type": "bytes32"
        }
      ],
      "name": "Executed",
      "type": "event"
    },
    {
      "anonymous": false,
      "inputs": [
        {
          "indexed": true,
          "internalType": "address",
          "name": "previousOperator",
          "type": "address"
        },
        {
          "indexed": true,
          "internalType": "address",
          "name": "newOperator",
          "type": "address"
        }
      ],
      "name": "OperatorshipTransferred",
      "type": "event"
    },
    {
      "anonymous": false,
      "inputs": [
        {
          "indexed": true,
          "internalType": "address",
          "name": "previousOwner",
          "type": "address"
        },
        {
          "indexed": true,
          "internalType": "address",
          "name": "newOwner",
          "type": "address"
        }
      ],
      "name": "OwnershipTransferred",
      "type": "event"
    },
    {
      "anonymous": false,
      "inputs": [
        {
          "indexed": false,
          "internalType": "string",
          "name": "symbol",
          "type": "string"
        },
        {
          "indexed": false,
          "internalType": "address",
          "name": "tokenAddresses",
          "type": "address"
        }
      ],
      "name": "TokenDeployed",
      "type": "event"
    },
    {
      "anonymous": false,
      "inputs": [
        {
          "indexed": true,
          "internalType": "string",
          "name": "symbol",
          "type": "string"
        }
      ],
      "name": "TokenFrozen",
      "type": "event"
    },
    {
      "anonymous": false,
      "inputs": [
        {
          "indexed": true,
          "internalType": "address",
          "name": "sender",
          "type": "address"
        },
        {
          "indexed": false,
          "internalType": "string",
          "name": "destinationChain",
          "type": "string"
        },
        {
          "indexed": true,
          "internalType": "string",
          "name": "destinationAddress",
          "type": "string"
        },
        {
          "indexed": false,
          "internalType": "string",
          "name": "symbol",
          "type": "string"
        },
        {
          "indexed": false,
          "internalType": "uint256",
          "name": "amount",
          "type": "uint256"
        }
      ],
      "name": "TokenSent",
      "type": "event"
    },
    {
      "anonymous": false,
      "inputs": [
        {
          "indexed": true,
          "internalType": "string",
          "name": "symbol",
          "type": "string"
        }
      ],
      "name": "TokenUnfrozen",
      "type": "event"
    },
    {
      "anonymous": false,
      "inputs": [
        {
          "indexed": true,
          "internalType": "address",
          "name": "implementation",
          "type": "address"
        }
      ],
      "name": "Upgraded",
      "type": "event"
    },
    {
      "inputs": [],
      "name": "allTokensFrozen",
      "outputs": [
        {
          "internalType": "bool",
          "name": "",
          "type": "bool"
        }
      ],
      "stateMutability": "view",
      "type": "function"
    },
    {
      "inputs": [
        {
          "internalType": "bytes",
          "name": "params",
          "type": "bytes"
        },
        {
          "internalType": "bytes32",
          "name": "commandId",
          "type": "bytes32"
        }
      ],
      "name": "approveContractCall",
      "outputs": [],
      "stateMutability": "nonpayable",
      "type": "function"
    },
    {
      "inputs": [
        {
          "internalType": "bytes",
          "name": "params",
          "type": "bytes"
        },
        {
          "internalType": "bytes32",
          "name": "commandId",
          "type": "bytes32"
        }
      ],
      "name": "approveContractCallWithMint",
      "outputs": [],
      "stateMutability": "nonpayable",
      "type": "function"
    },
    {
      "inputs": [
        {
          "internalType": "bytes",
          "name": "params",
          "type": "bytes"
        },
        {
          "internalType": "bytes32",
          "name": "",
          "type": "bytes32"
        }
      ],
      "name": "burnToken",
      "outputs": [],
      "stateMutability": "nonpayable",
      "type": "function"
    },
    {
      "inputs": [
        {
          "internalType": "string",
          "name": "destinationChain",
          "type": "string"
        },
        {
          "internalType": "string",
          "name": "contractAddress",
          "type": "string"
        },
        {
          "internalType": "bytes",
          "name": "payload",
          "type": "bytes"
        }
      ],
      "name": "callContract",
      "outputs": [],
      "stateMutability": "nonpayable",
      "type": "function"
    },
    {
      "inputs": [
        {
          "internalType": "string",
          "name": "destinationChain",
          "type": "string"
        },
        {
          "internalType": "string",
          "name": "destinationAddress",
          "type": "string"
        },
        {
          "internalType": "bytes",
          "name": "payload",
          "type": "bytes"
        },
        {
          "internalType": "string",
          "name": "symbol",
          "type": "string"
        },
        {
          "internalType": "uint256",
          "name": "amount",
          "type": "uint256"
        }
      ],
      "name": "callContractWithToken",
      "outputs": [],
      "stateMutability": "nonpayable",
      "type": "function"
    },
    {
      "inputs": [
        {
          "internalType": "bytes",
          "name": "params",
          "type": "bytes"
        },
        {
          "internalType": "bytes32",
          "name": "",
          "type": "bytes32"
        }
      ],
      "name": "deployToken",
      "outputs": [],
      "stateMutability": "nonpayable",
      "type": "function"
    },
    {
      "inputs": [
        {
          "internalType": "bytes",
          "name": "input",
          "type": "bytes"
        }
      ],
      "name": "execute",
      "outputs": [],
      "stateMutability": "nonpayable",
      "type": "function"
    },
    {
      "inputs": [],
      "name": "freezeAllTokens",
      "outputs": [],
      "stateMutability": "nonpayable",
      "type": "function"
    },
    {
      "inputs": [
        {
          "internalType": "string",
          "name": "symbol",
          "type": "string"
        }
      ],
      "name": "freezeToken",
      "outputs": [],
      "stateMutability": "nonpayable",
      "type": "function"
    },
    {
      "inputs": [
        {
          "internalType": "bytes32",
          "name": "key",
          "type": "bytes32"
        }
      ],
      "name": "getAddress",
      "outputs": [
        {
          "internalType": "address",
          "name": "",
          "type": "address"
        }
      ],
      "stateMutability": "view",
      "type": "function"
    },
    {
      "inputs": [
        {
          "internalType": "bytes32",
          "name": "key",
          "type": "bytes32"
        }
      ],
      "name": "getBool",
      "outputs": [
        {
          "internalType": "bool",
          "name": "",
          "type": "bool"
        }
      ],
      "stateMutability": "view",
      "type": "function"
    },
    {
      "inputs": [
        {
          "internalType": "bytes32",
          "name": "key",
          "type": "bytes32"
        }
      ],
      "name": "getBytes",
      "outputs": [
        {
          "internalType": "bytes",
          "name": "",
          "type": "bytes"
        }
      ],
      "stateMutability": "view",
      "type": "function"
    },
    {
      "inputs": [
        {
          "internalType": "bytes32",
          "name": "key",
          "type": "bytes32"
        }
      ],
      "name": "getInt",
      "outputs": [
        {
          "internalType": "int256",
          "name": "",
          "type": "int256"
        }
      ],
      "stateMutability": "view",
      "type": "function"
    },
    {
      "inputs": [
        {
          "internalType": "bytes32",
          "name": "key",
          "type": "bytes32"
        }
      ],
      "name": "getString",
      "outputs": [
        {
          "internalType": "string",
          "name": "",
          "type": "string"
        }
      ],
      "stateMutability": "view",
      "type": "function"
    },
    {
      "inputs": [
        {
          "internalType": "bytes32",
          "name": "key",
          "type": "bytes32"
        }
      ],
      "name": "getUint",
      "outputs": [
        {
          "internalType": "uint256",
          "name": "",
          "type": "uint256"
        }
      ],
      "stateMutability": "view",
      "type": "function"
    },
    {
      "inputs": [],
      "name": "implementation",
      "outputs": [
        {
          "internalType": "address",
          "name": "",
          "type": "address"
        }
      ],
      "stateMutability": "view",
      "type": "function"
    },
    {
      "inputs": [
        {
          "internalType": "bytes32",
          "name": "commandId",
          "type": "bytes32"
        }
      ],
      "name": "isCommandExecuted",
      "outputs": [
        {
          "internalType": "bool",
          "name": "",
          "type": "bool"
        }
      ],
      "stateMutability": "view",
      "type": "function"
    },
    {
      "inputs": [
        {
          "internalType": "bytes",
          "name": "params",
          "type": "bytes"
        },
        {
          "internalType": "bytes32",
          "name": "",
          "type": "bytes32"
        }
      ],
      "name": "mintToken",
      "outputs": [],
      "stateMutability": "nonpayable",
      "type": "function"
    },
    {
      "inputs": [],
      "name": "operator",
      "outputs": [
        {
          "internalType": "address",
          "name": "",
          "type": "address"
        }
      ],
      "stateMutability": "view",
      "type": "function"
    },
    {
      "inputs": [],
      "name": "owner",
      "outputs": [
        {
          "internalType": "address",
          "name": "",
          "type": "address"
        }
      ],
      "stateMutability": "view",
      "type": "function"
    },
    {
      "inputs": [
        {
          "internalType": "string",
          "name": "destinationChain",
          "type": "string"
        },
        {
          "internalType": "string",
          "name": "destinationAddress",
          "type": "string"
        },
        {
          "internalType": "string",
          "name": "symbol",
          "type": "string"
        },
        {
          "internalType": "uint256",
          "name": "amount",
          "type": "uint256"
        }
      ],
      "name": "sendToken",
      "outputs": [],
      "stateMutability": "nonpayable",
      "type": "function"
    },
    {
      "inputs": [
        {
          "internalType": "bytes",
          "name": "params",
          "type": "bytes"
        }
      ],
      "name": "setup",
      "outputs": [],
      "stateMutability": "nonpayable",
      "type": "function"
    },
    {
      "inputs": [
        {
          "internalType": "string",
          "name": "symbol",
          "type": "string"
        }
      ],
      "name": "tokenAddresses",
      "outputs": [
        {
          "internalType": "address",
          "name": "",
          "type": "address"
        }
      ],
      "stateMutability": "view",
      "type": "function"
    },
    {
      "inputs": [
        {
          "internalType": "string",
          "name": "symbol",
          "type": "string"
        }
      ],
      "name": "tokenFrozen",
      "outputs": [
        {
          "internalType": "bool",
          "name": "",
          "type": "bool"
        }
      ],
      "stateMutability": "view",
      "type": "function"
    },
    {
      "inputs": [
        {
          "internalType": "bytes",
          "name": "params",
          "type": "bytes"
        },
        {
          "internalType": "bytes32",
          "name": "",
          "type": "bytes32"
        }
      ],
      "name": "transferOperatorship",
      "outputs": [],
      "stateMutability": "nonpayable",
      "type": "function"
    },
    {
      "inputs": [
        {
          "internalType": "bytes",
          "name": "params",
          "type": "bytes"
        },
        {
          "internalType": "bytes32",
          "name": "",
          "type": "bytes32"
        }
      ],
      "name": "transferOwnership",
      "outputs": [],
      "stateMutability": "nonpayable",
      "type": "function"
    },
    {
      "inputs": [],
      "name": "unfreezeAllTokens",
      "outputs": [],
      "stateMutability": "nonpayable",
      "type": "function"
    },
    {
      "inputs": [
        {
          "internalType": "string",
          "name": "symbol",
          "type": "string"
        }
      ],
      "name": "unfreezeToken",
      "outputs": [],
      "stateMutability": "nonpayable",
      "type": "function"
    },
    {
      "inputs": [
        {
          "internalType": "address",
          "name": "newImplementation",
          "type": "address"
        },
        {
          "internalType": "bytes32",
          "name": "newImplementationCodeHash",
          "type": "bytes32"
        },
        {
          "internalType": "bytes",
          "name": "setupParams",
          "type": "bytes"
        }
      ],
      "name": "upgrade",
      "outputs": [],
      "stateMutability": "nonpayable",
      "type": "function"
    },
    {
      "inputs": [
        {
          "internalType": "bytes32",
          "name": "commandId",
          "type": "bytes32"
        },
        {
          "internalType": "string",
          "name": "sourceChain",
          "type": "string"
        },
        {
          "internalType": "string",
          "name": "sourceAddress",
          "type": "string"
        },
        {
          "internalType": "bytes32",
          "name": "payloadHash",
          "type": "bytes32"
        }
      ],
      "name": "validateContractCall",
      "outputs": [
        {
          "internalType": "bool",
          "name": "valid",
          "type": "bool"
        }
      ],
      "stateMutability": "nonpayable",
      "type": "function"
    },
    {
      "inputs": [
        {
          "internalType": "bytes32",
          "name": "commandId",
          "type": "bytes32"
        },
        {
          "internalType": "string",
          "name": "sourceChain",
          "type": "string"
        },
        {
          "internalType": "string",
          "name": "sourceAddress",
          "type": "string"
        },
        {
          "internalType": "bytes32",
          "name": "payloadHash",
          "type": "bytes32"
        },
        {
          "internalType": "string",
          "name": "symbol",
          "type": "string"
        },
        {
          "internalType": "uint256",
          "name": "amount",
          "type": "uint256"
        }
      ],
      "name": "validateContractCallAndMint",
      "outputs": [
        {
          "internalType": "bool",
          "name": "valid",
          "type": "bool"
        }
      ],
      "stateMutability": "nonpayable",
      "type": "function"
    }
  ],
  "evm": {
    "bytecode": {
      "linkReferences": {},
      "object": "60a06040523480156200001157600080fd5b506040516200517338038062005173833981016040819052620000349162000046565b6001600160a01b031660805262000078565b6000602082840312156200005957600080fd5b81516001600160a01b03811681146200007157600080fd5b9392505050565b6080516150df62000094600039600061314b01526150df6000f3fe608060405234801561001057600080fd5b50600436106101f05760003560e01c8063886a625d1161010f578063b5417084116100a2578063d2bc37f811610071578063d2bc37f8146104f6578063dc97d962146104fe578063e3dfa2991461051e578063fbe0a31b1461052657600080fd5b8063b54170841461048f578063bd02d0f5146104a2578063c031a180146104d0578063d26ff210146104e357600080fd5b8063986e791a116100de578063986e791a146103f65780639ded06df14610416578063a3499c7314610429578063aa1e1f0a1461043c57600080fd5b8063886a625d146103b55780638da5cb5b146103c8578063935b13f6146103d057806397b87ba6146103e357600080fd5b8063570ca73511610187578063646c5d3411610156578063646c5d34146103595780637ae1cfca1461036c5780637b1b769e1461038f5780637e8c8118146103a257600080fd5b8063570ca735146102d2578063585a9fd4146102da5780635c60da1b146102ed5780635f6970c31461034657600080fd5b806321f8a721116101c357806321f8a7211461025857806326ef699d1461029957806334ff6983146102ac5780634656ae2e146102bf57600080fd5b806309c5eabe146101f5578063146e2d781461020a5780631876eed91461021d5780631c92115f14610245575b600080fd5b610208610203366004613d40565b610539565b005b610208610218366004613d82565b61055c565b61023061022b366004613eac565b6105d9565b60405190151581526020015b60405180910390f35b610208610253366004613f50565b610633565b610281610266366004613fd8565b6000908152600260205260409020546001600160a01b031690565b6040516001600160a01b03909116815260200161023c565b6102086102a7366004613ff1565b610698565b6102086102ba366004614081565b610704565b6102086102cd366004613d82565b610919565b61028161098c565b6102086102e8366004613d82565b6109ec565b7f360894a13ba1a3210667c828492db98dca3e2076cc3735a920a3ca505d382bbc60005260026020527f11141f466c69fd409e1990e063b49cd6d61ed2ecff27a2e402e259ca6b9a01a3546001600160a01b0316610281565b6102306103543660046140b6565b610a74565b610208610367366004614081565b610ac0565b61023061037a366004613fd8565b60009081526004602052604090205460ff1690565b61023061039d366004614081565b610cd1565b6102086103b0366004613d82565b610ce5565b6102086103c3366004613d82565b610e9d565b610281610f1f565b6102816103de366004614081565b610f7a565b6102086103f1366004613d82565b610f88565b610409610404366004613fd8565b61113f565b60405161023c9190614143565b610208610424366004613d40565b6111e1565b61020861043736600461416b565b611559565b7f75a31d1ce8e5f9892188befc328d3b9bd3fa5037457e881abc21f388471b8d9660005260046020527fa0b596b8942d6ef5cc77ce0ad89a75f0bfcc7f0132cd8db58e8449dcf04a858a5460ff16610230565b61020861049d3660046141c7565b611941565b6104c26104b0366004613fd8565b60009081526020819052604090205490565b60405190815260200161023c565b6104096104de366004613fd8565b6119b7565b6102306104f1366004613fd8565b6119d4565b6102086119e2565b6104c261050c366004613fd8565b60009081526005602052604090205490565b610208611c0b565b610208610534366004613d82565b611e31565b6000806105488385018561427c565b915091506105568282611eaf565b50505050565b3330146105b05760405162461bcd60e51b815260206004820152600860248201527f4e4f545f53454c4600000000000000000000000000000000000000000000000060448201526064015b60405180910390fd5b600080806105c0858701876142f0565b9250925092506105d18383836124b4565b505050505050565b6000806105eb88888833898989612667565b60008181526004602052604090205460ff16925090508115610628576000818152600460205260409020805460ff191690556106288433856124b4565b509695505050505050565b8051602082012060405161064890849061434a565b6040518091039020336001600160a01b03167f30ae6cc78c27e651745bf2ad08a11de83910ac1e347a52f7ac898c0fbef94dae868560405161068b929190614366565b60405180910390a4505050565b6106a33383836126cb565b826040516106b1919061434a565b6040518091039020336001600160a01b03167f651d93f66c4329630e8d0f62488eff599e3be484da587335e8dc0fcf460627268685856040516106f693929190614394565b60405180910390a350505050565b60006107577fd51dc9b187568bb94760866e1d0d066ca470037d2d331afb1a02ec74bfb8990c60009081526020527ff8d0c05cd32e3272241fdc9d5839565f8bcf94139cb4bd09e230e1b57a60ddc25490565b905061076381336129fd565b6107af5760405162461bcd60e51b815260206004820152600960248201527f4e4f545f41444d494e000000000000000000000000000000000000000000000060448201526064016105a7565b600080366040516107c19291906143ca565b604051809103902090506107d6828233612a13565b156108235760405162461bcd60e51b815260206004820152600560248201527f564f54454400000000000000000000000000000000000000000000000000000060448201526064016105a7565b6108308282336001612aa4565b6000600161083e8484612b42565b6108489190614409565b9050610855838383612b51565b61085e83612b76565b81101561086b5750505050565b61088f61087785612b84565b6000908152600460205260409020805460ff19169055565b8360405161089d919061434a565b604051908190038120907f5327e3af9cd2d5c19a8dff23ef487d7a4d5f6fc985464f1792a33c212057598990600090a26108d983836000612b51565b60006108e484612bd6565b905060005b818110156105d15761090785856109008885612be4565b6000612aa4565b8061091181614421565b9150506108e9565b3330146109685760405162461bcd60e51b815260206004820152600860248201527f4e4f545f53454c4600000000000000000000000000000000000000000000000060448201526064016105a7565b6000806109778486018661445a565b915091506109858282612bf3565b5050505050565b60006109e76109e27f5369fb791f26307f8e69b07625302ccac6930af09ab22d753b17d2042e9992e760009081526020527f07174c149a4f7627ac1dd39b679bd42f12fc4e8d7e850b055662bbee7188da105490565b612f7d565b905090565b333014610a3b5760405162461bcd60e51b815260206004820152600860248201527f4e4f545f53454c4600000000000000000000000000000000000000000000000060448201526064016105a7565b60008080808080610a4e888a018a61449f565b955095509550955095509550610a6987878787878787612f8b565b505050505050505050565b600080610a848686863387612fec565b60008181526004602052604090205460ff16925090508115610ab7576000818152600460205260409020805460ff191690555b50949350505050565b6000610b137fd51dc9b187568bb94760866e1d0d066ca470037d2d331afb1a02ec74bfb8990c60009081526020527ff8d0c05cd32e3272241fdc9d5839565f8bcf94139cb4bd09e230e1b57a60ddc25490565b9050610b1f81336129fd565b610b6b5760405162461bcd60e51b815260206004820152600960248201527f4e4f545f41444d494e000000000000000000000000000000000000000000000060448201526064016105a7565b60008036604051610b7d9291906143ca565b60405180910390209050610b92828233612a13565b15610bdf5760405162461bcd60e51b815260206004820152600560248201527f564f54454400000000000000000000000000000000000000000000000000000060448201526064016105a7565b610bec8282336001612aa4565b60006001610bfa8484612b42565b610c049190614409565b9050610c11838383612b51565b610c1a83612b76565b811015610c275750505050565b610c4e610c3385612b84565b6000908152600460205260409020805460ff19166001179055565b83604051610c5c919061434a565b604051908190038120907f11260c92ecb021c33706db3a9699410f343d5f2175201a4551fe7634347a0cf190600090a2610c9883836000612b51565b6000610ca384612bd6565b905060005b818110156105d157610cbf85856109008885612be4565b80610cc981614421565b915050610ca8565b6000610cdf61037a83612b84565b92915050565b333014610d345760405162461bcd60e51b815260206004820152600860248201527f4e4f545f53454c4600000000000000000000000000000000000000000000000060448201526064016105a7565b6000610d428385018561452d565b90506000610d977f67cbdff49954077d2dd5637524b03bfe3e6506d456859017a888fad567e1af0360009081526020527f06f01c2f096e745c2a207fbf93babd5e7ee6acfd26f0f34a0e4ac68373c21d0e5490565b90506001600160a01b038216610def5760405162461bcd60e51b815260206004820152600960248201527f5a45524f5f41444452000000000000000000000000000000000000000000000060448201526064016105a7565b816001600160a01b0316610e028261304a565b6001600160a01b03167f8be0079c531659141344cd1fd0a4f28419497f9722a3daafe3b4186f6b6457e060405160405180910390a3610e93610e4382614421565b9150817f67cbdff49954077d2dd5637524b03bfe3e6506d456859017a888fad567e1af0360009081526020527f06f01c2f096e745c2a207fbf93babd5e7ee6acfd26f0f34a0e4ac68373c21d0e55565b610985818361305b565b333014610eec5760405162461bcd60e51b815260206004820152600860248201527f4e4f545f53454c4600000000000000000000000000000000000000000000000060448201526064016105a7565b600080808080610efe8789018961454a565b94509450945094509450610f1585858585856130ac565b5050505050505050565b60006109e7610f757f67cbdff49954077d2dd5637524b03bfe3e6506d456859017a888fad567e1af0360009081526020527f06f01c2f096e745c2a207fbf93babd5e7ee6acfd26f0f34a0e4ac68373c21d0e5490565b61304a565b6000610cdf61026683613366565b333014610fd75760405162461bcd60e51b815260206004820152600860248201527f4e4f545f53454c4600000000000000000000000000000000000000000000000060448201526064016105a7565b6000610fe58385018561452d565b90506001600160a01b03811661103d5760405162461bcd60e51b815260206004820152600960248201527f5a45524f5f41444452000000000000000000000000000000000000000000000060448201526064016105a7565b806001600160a01b031661104f61098c565b6001600160a01b03167fb37ff92c23eca455dbbd028d9cb869f69e16485d5ef15286fc394c721a5d5dc160405160405180910390a360006110d77f5369fb791f26307f8e69b07625302ccac6930af09ab22d753b17d2042e9992e760009081526020527f07174c149a4f7627ac1dd39b679bd42f12fc4e8d7e850b055662bbee7188da105490565b90506111356110e582614421565b9150817f5369fb791f26307f8e69b07625302ccac6930af09ab22d753b17d2042e9992e760009081526020527f07174c149a4f7627ac1dd39b679bd42f12fc4e8d7e850b055662bbee7188da1055565b610985818361339b565b600081815260016020526040902080546060919061115c906145e5565b80601f0160208091040260200160405190810160405280929190818152602001828054611188906145e5565b80156111d55780601f106111aa576101008083540402835291602001916111d5565b820191906000526020600020905b8154815290600101906020018083116111b857829003601f168201915b50505050509050919050565b600061123d7f360894a13ba1a3210667c828492db98dca3e2076cc3735a920a3ca505d382bbc60005260026020527f11141f466c69fd409e1990e063b49cd6d61ed2ecff27a2e402e259ca6b9a01a3546001600160a01b031690565b6001600160a01b031614156112945760405162461bcd60e51b815260206004820152600960248201527f4e4f545f50524f5859000000000000000000000000000000000000000000000060448201526064016105a7565b60008080806112a58587018761465d565b9350935093509350600060016113027fd51dc9b187568bb94760866e1d0d066ca470037d2d331afb1a02ec74bfb8990c60009081526020527ff8d0c05cd32e3272241fdc9d5839565f8bcf94139cb4bd09e230e1b57a60ddc25490565b61130c9190614409565b905061135f817fd51dc9b187568bb94760866e1d0d066ca470037d2d331afb1a02ec74bfb8990c60009081526020527ff8d0c05cd32e3272241fdc9d5839565f8bcf94139cb4bd09e230e1b57a60ddc255565b61136a8186866133a7565b600060016113bf7f67cbdff49954077d2dd5637524b03bfe3e6506d456859017a888fad567e1af0360009081526020527f06f01c2f096e745c2a207fbf93babd5e7ee6acfd26f0f34a0e4ac68373c21d0e5490565b6113c99190614409565b905061141c817f67cbdff49954077d2dd5637524b03bfe3e6506d456859017a888fad567e1af0360009081526020527f06f01c2f096e745c2a207fbf93babd5e7ee6acfd26f0f34a0e4ac68373c21d0e55565b611426818561305b565b6000600161147b7f5369fb791f26307f8e69b07625302ccac6930af09ab22d753b17d2042e9992e760009081526020527f07174c149a4f7627ac1dd39b679bd42f12fc4e8d7e850b055662bbee7188da105490565b6114859190614409565b90506114d8817f5369fb791f26307f8e69b07625302ccac6930af09ab22d753b17d2042e9992e760009081526020527f07174c149a4f7627ac1dd39b679bd42f12fc4e8d7e850b055662bbee7188da1055565b6114e2818561339b565b6040516001600160a01b038616906000907f8be0079c531659141344cd1fd0a4f28419497f9722a3daafe3b4186f6b6457e0908290a36040516001600160a01b038516906000907fb37ff92c23eca455dbbd028d9cb869f69e16485d5ef15286fc394c721a5d5dc1908290a3505050505050505050565b60006115ac7fd51dc9b187568bb94760866e1d0d066ca470037d2d331afb1a02ec74bfb8990c60009081526020527ff8d0c05cd32e3272241fdc9d5839565f8bcf94139cb4bd09e230e1b57a60ddc25490565b90506115b881336129fd565b6116045760405162461bcd60e51b815260206004820152600960248201527f4e4f545f41444d494e000000000000000000000000000000000000000000000060448201526064016105a7565b600080366040516116169291906143ca565b6040518091039020905061162b828233612a13565b156116785760405162461bcd60e51b815260206004820152600560248201527f564f54454400000000000000000000000000000000000000000000000000000060448201526064016105a7565b6116858282336001612aa4565b600060016116938484612b42565b61169d9190614409565b90506116aa838383612b51565b6116b383612b76565b8110156116c257505050610556565b866001600160a01b03163f861461171b5760405162461bcd60e51b815260206004820152600c60248201527f494e565f434f444548415348000000000000000000000000000000000000000060448201526064016105a7565b6040516001600160a01b038816907fbc7cd75a20ee27fd9adebab32041f755214dbc6bffa90cc0225b39da2e5c2d3b90600090a2831561187a576000876001600160a01b0316639ded06df60e01b878760405160240161177c929190614721565b60408051601f198184030181529181526020820180517bffffffffffffffffffffffffffffffffffffffffffffffffffffffff167fffffffff000000000000000000000000000000000000000000000000000000009094169390931790925290516117e7919061434a565b600060405180830381855af49150503d8060008114611822576040519150601f19603f3d011682016040523d82523d6000602084013e611827565b606091505b50509050806118785760405162461bcd60e51b815260206004820152600c60248201527f53455455505f4641494c4544000000000000000000000000000000000000000060448201526064016105a7565b505b6118fc877f360894a13ba1a3210667c828492db98dca3e2076cc3735a920a3ca505d382bbc60005260026020527f11141f466c69fd409e1990e063b49cd6d61ed2ecff27a2e402e259ca6b9a01a380547fffffffffffffffffffffffff0000000000000000000000000000000000000000166001600160a01b03831617905550565b61190883836000612b51565b600061191384612bd6565b905060005b81811015610a695761192f85856109008885612be4565b8061193981614421565b915050611918565b61194c3383836126cb565b8251602084012060405161196190869061434a565b6040518091039020336001600160a01b03167f7e50569d26be643bda7757722291ec66b1be66d8283474ae3fab5a98f878a7a2888787876040516119a89493929190614750565b60405180910390a45050505050565b600081815260036020526040902080546060919061115c906145e5565b6000610cdf61037a83613507565b6000611a357fd51dc9b187568bb94760866e1d0d066ca470037d2d331afb1a02ec74bfb8990c60009081526020527ff8d0c05cd32e3272241fdc9d5839565f8bcf94139cb4bd09e230e1b57a60ddc25490565b9050611a4181336129fd565b611a8d5760405162461bcd60e51b815260206004820152600960248201527f4e4f545f41444d494e000000000000000000000000000000000000000000000060448201526064016105a7565b60008036604051611a9f9291906143ca565b60405180910390209050611ab4828233612a13565b15611b015760405162461bcd60e51b815260206004820152600560248201527f564f54454400000000000000000000000000000000000000000000000000000060448201526064016105a7565b611b0e8282336001612aa4565b60006001611b1c8484612b42565b611b269190614409565b9050611b33838383612b51565b611b3c83612b76565b811015611b4857505050565b7f75a31d1ce8e5f9892188befc328d3b9bd3fa5037457e881abc21f388471b8d9660005260046020527fa0b596b8942d6ef5cc77ce0ad89a75f0bfcc7f0132cd8db58e8449dcf04a858a805460ff191660011790556040517f9f428b56ca209118783db391e8a5a62827b6b218add33411061060d308af6ead90600090a1611bd283836000612b51565b6000611bdd84612bd6565b905060005b8181101561098557611bf985856109008885612be4565b80611c0381614421565b915050611be2565b6000611c5e7fd51dc9b187568bb94760866e1d0d066ca470037d2d331afb1a02ec74bfb8990c60009081526020527ff8d0c05cd32e3272241fdc9d5839565f8bcf94139cb4bd09e230e1b57a60ddc25490565b9050611c6a81336129fd565b611cb65760405162461bcd60e51b815260206004820152600960248201527f4e4f545f41444d494e000000000000000000000000000000000000000000000060448201526064016105a7565b60008036604051611cc89291906143ca565b60405180910390209050611cdd828233612a13565b15611d2a5760405162461bcd60e51b815260206004820152600560248201527f564f54454400000000000000000000000000000000000000000000000000000060448201526064016105a7565b611d378282336001612aa4565b60006001611d458484612b42565b611d4f9190614409565b9050611d5c838383612b51565b611d6583612b76565b811015611d7157505050565b7f75a31d1ce8e5f9892188befc328d3b9bd3fa5037457e881abc21f388471b8d9660005260046020527fa0b596b8942d6ef5cc77ce0ad89a75f0bfcc7f0132cd8db58e8449dcf04a858a805460ff191690556040517f0e821ff109470f6aa1aebb161aa0e7328b1a8552aa48e09ed2d03184ecece9a690600090a1611df883836000612b51565b6000611e0384612bd6565b905060005b8181101561098557611e1f85856109008885612be4565b80611e2981614421565b915050611e08565b333014611e805760405162461bcd60e51b815260206004820152600860248201527f4e4f545f53454c4600000000000000000000000000000000000000000000000060448201526064016105a7565b6000808080611e918688018861479b565b9350935093509350611ea68585858585613542565b50505050505050565b6000611eca611ec4848051906020012061358c565b836135c7565b9050600080600080600087806020019051810190611ee8919061497e565b94509450945094509450468514611f415760405162461bcd60e51b815260206004820152600960248201527f494e565f434841494e000000000000000000000000000000000000000000000060448201526064016105a7565b8251825181148015611f535750815181145b611f9f5760405162461bcd60e51b815260206004820152600860248201527f494e565f434d445300000000000000000000000000000000000000000000000060448201526064016105a7565b600080806001886002811115611fb757611fb7614a80565b1415611ff257611fc5610f1f565b6001600160a01b03168a6001600160a01b03161492508280611feb5750611feb8a6137be565b9150612018565b600288600281111561200657612006614a80565b1415612018576120158a61389c565b90505b60005b848110156124a557600088828151811061203757612037614aaf565b6020026020010151905061204a816119d4565b156120555750612493565b60008089848151811061206a5761206a614aaf565b6020026020010151604051602001612082919061434a565b6040516020818303038152906040528051906020012090507f5763814b98a3aa86f212797af3273868b5dd6e2a532d764a79b98ca859e7bbad8114156120f757856120cf57505050612493565b7f886a625d00000000000000000000000000000000000000000000000000000000915061235d565b7fec78d9c22c08bb9f0ecd5d95571ae83e3f22219c5a9278c3270691d50abfd91b811415612160578415801561212b575085155b1561213857505050612493565b7f146e2d7800000000000000000000000000000000000000000000000000000000915061235d565b7f37ac16aabc4d87540e53151b2b716265cfd6b195db96a9daf8e893c829bbd2338114156121c95784158015612194575085155b156121a157505050612493565b7ffbe0a31b00000000000000000000000000000000000000000000000000000000915061235d565b7ff41504255b911b3042ee4f8786fdf7cf4bcf24ace033fa16af3c8574e025e43681141561223257841580156121fd575085155b1561220a57505050612493565b7f585a9fd400000000000000000000000000000000000000000000000000000000915061235d565b7fda199c0e76f665e0450020791c7f8eacc75f3cdbace313272c28f93e5390b62c81141561229b5784158015612266575085155b1561227357505050612493565b7f4656ae2e00000000000000000000000000000000000000000000000000000000915061235d565b7f1d4a390f291e2e1f29874769efdef47ddad94d76f77ff516fad206a385e8995f8114156122f857866122d057505050612493565b7f7e8c811800000000000000000000000000000000000000000000000000000000915061235d565b7fb460dcb6fd5797fc0e7ea0f13406c80d30702ba7f73a42bd91394775dcbca718811415612355578661232d57505050612493565b7f97b87ba600000000000000000000000000000000000000000000000000000000915061235d565b505050612493565b612368836001613964565b6000306001600160a01b0316838b878151811061238757612387614aaf565b6020026020010151866040516024016123a1929190614ade565b60408051601f198184030181529181526020820180517bffffffffffffffffffffffffffffffffffffffffffffffffffffffff167fffffffff0000000000000000000000000000000000000000000000000000000090941693909317909252905161240c919061434a565b6000604051808303816000865af19150503d8060008114612449576040519150601f19603f3d011682016040523d82523d6000602084013e61244e565b606091505b5050905061245c8482613964565b801561248e5760405184907fa74c8847d513feba22a0f0cb38d53081abf97562cdb293926ba243689e7c41ca90600090a25b505050505b8061249d81614421565b91505061201b565b50505050505050505050505050565b60006124bf84610f7a565b90506001600160a01b0381166125175760405162461bcd60e51b815260206004820152600f60248201527f544f4b454e5f4e4f545f4558495354000000000000000000000000000000000060448201526064016105a7565b600261252285613970565b600281111561253357612533614a80565b14156125f057604080516001600160a01b038516602482015260448082018590528251808303909101815260649091018252602080820180517bffffffffffffffffffffffffffffffffffffffffffffffffffffffff167fa9059cbb000000000000000000000000000000000000000000000000000000001790528251808401909352600983527f4d494e545f4641494c0000000000000000000000000000000000000000000000908301526125eb9183919061398f565b610556565b6040517f40c10f190000000000000000000000000000000000000000000000000000000081526001600160a01b038481166004830152602482018490528216906340c10f1990604401600060405180830381600087803b15801561265357600080fd5b505af1158015610f15573d6000803e3d6000fd5b60007fb7ad972b71475860613db3ba1fe699b886c878f9002a09250dc25e769eb19a10888888888888886040516020016126a8989796959493929190614b00565b604051602081830303815290604052805190602001209050979650505050505050565b60006126d683610f7a565b90506001600160a01b03811661272e5760405162461bcd60e51b815260206004820152600f60248201527f544f4b454e5f4e4f545f4558495354000000000000000000000000000000000060448201526064016105a7565b600061273984613970565b60408051808201909152600981527f4255524e5f4641494c00000000000000000000000000000000000000000000006020820152909150600282600281111561278457612784614a80565b141561283a576040516001600160a01b0387166024820152306044820152606481018590526105d19084907f23b872dd00000000000000000000000000000000000000000000000000000000906084015b60408051601f198184030181529190526020810180517bffffffffffffffffffffffffffffffffffffffffffffffffffffffff167fffffffff00000000000000000000000000000000000000000000000000000000909316929092179091528361398f565b600182600281111561284e5761284e614a80565b141561289d576040516001600160a01b0387166024820152604481018590526105d19084907f79cc679000000000000000000000000000000000000000000000000000000000906064016127d5565b6040517f31eecaf4000000000000000000000000000000000000000000000000000000008152600060048201526129819084907f23b872dd000000000000000000000000000000000000000000000000000000009089906001600160a01b038416906331eecaf49060240160206040518083038186803b15801561292057600080fd5b505afa158015612934573d6000803e3d6000fd5b505050506040513d601f19601f820116820180604052508101906129589190614b98565b6040516001600160a01b03928316602482015291166044820152606481018890526084016127d5565b6040517f08a1eee1000000000000000000000000000000000000000000000000000000008152600060048201526001600160a01b038416906308a1eee1906024015b600060405180830381600087803b1580156129dd57600080fd5b505af11580156129f1573d6000803e3d6000fd5b50505050505050505050565b6000612a0c61037a8484613a35565b9392505050565b604080517f3ced7a8caf1111e0fbf4b784c5b41aebd0f2389d9f2f64d5c3424aeed3adbd3c602080830191909152818301869052606080830186905284901b7fffffffffffffffffffffffffffffffffffffffff0000000000000000000000001660808301528251808303607401815260949092019092528051910120600090612a9c9061037a565b949350505050565b604080517f3ced7a8caf1111e0fbf4b784c5b41aebd0f2389d9f2f64d5c3424aeed3adbd3c602080830191909152818301879052606080830187905285901b7fffffffffffffffffffffffffffffffffffffffff0000000000000000000000001660808301528251808303607401815260949092019092528051910120610556905b6000908152600460205260409020805460ff1916831515179055565b6000612a0c6104b08484613ab5565b612b71612b5e8484613ab5565b8260009182526020829052604090912055565b505050565b6000610cdf6104b083613af7565b60007f1a7261d3a36c4ce4235d10859911c9444a6963a3591ec5725b96871d9810626b82604051602001612bb9929190614bb5565b604051602081830303815290604052805190602001209050919050565b6000610cdf6104b083613b32565b6000612a0c6102668484613b6d565b6000612bfe83610f7a565b90506001600160a01b038116612c565760405162461bcd60e51b815260206004820152600f60248201527f544f4b454e5f4e4f545f4558495354000000000000000000000000000000000060448201526064016105a7565b6002612c6184613970565b6002811115612c7257612c72614a80565b1415612f0e57600082604051612c8790613cea565b8190604051809103906000f5905080158015612ca7573d6000803e3d6000fd5b506040517f70a082310000000000000000000000000000000000000000000000000000000081526001600160a01b038083166004830181905292935060009283929091631cff79cd9187917fa9059cbb000000000000000000000000000000000000000000000000000000009130918416906370a082319060240160206040518083038186803b158015612d3a57600080fd5b505afa158015612d4e573d6000803e3d6000fd5b505050506040513d601f19601f82011682018060405250810190612d729190614bdb565b6040516001600160a01b039092166024830152604482015260640160408051601f198184030181529181526020820180517bffffffffffffffffffffffffffffffffffffffffffffffffffffffff167fffffffff000000000000000000000000000000000000000000000000000000009485161790525160e085901b9092168252612e009291600401614bf4565b600060405180830381600087803b158015612e1a57600080fd5b505af1158015612e2e573d6000803e3d6000fd5b505050506040513d6000823e601f3d908101601f19168201604052612e569190810190614c26565b91509150818015612e7f575080511580612e7f575080806020019051810190612e7f9190614c6a565b612ecb5760405162461bcd60e51b815260206004820152600960248201527f4255524e5f4641494c000000000000000000000000000000000000000000000060448201526064016105a7565b6040517ef55d9d0000000000000000000000000000000000000000000000000000000081523060048201526001600160a01b0384169062f55d9d906024016129c3565b6040517f08a1eee1000000000000000000000000000000000000000000000000000000008152600481018390526001600160a01b038216906308a1eee190602401600060405180830381600087803b158015612f6957600080fd5b505af1158015611ea6573d6000803e3d6000fd5b6000610cdf61026683613baf565b612f9a87878787878787613bea565b82846001600160a01b0316887f6ed33765b13ac61cbdf2151a3b6d40f7884af98645bfad1ed3897c08e18c480689898787604051612fdb9493929190614750565b60405180910390a450505050505050565b60007f07b0d4304f82012bd3b70b1d531c160e326067c90829e2a3d386722ad10b89c3868686868660405160200161302996959493929190614c85565b60405160208183030381529060405280519060200120905095945050505050565b6000610cdf61026683613bfc565b50565b6130a861306783613bfc565b600090815260026020526040902080547fffffffffffffffffffffffff0000000000000000000000000000000000000000166001600160a01b038416179055565b5050565b60006130b785610f7a565b6001600160a01b03161461310d5760405162461bcd60e51b815260206004820152600b60248201527f544f4b454e5f455849535400000000000000000000000000000000000000000060448201526064016105a7565b6001600160a01b0381166132ba5760008460405160200161312e919061434a565b6040516020818303038152906040528051906020012090506000807f00000000000000000000000000000000000000000000000000000000000000006001600160a01b0316636fc95b3460e01b8989898988604051602401613194959493929190614d01565b60408051601f198184030181529181526020820180517bffffffffffffffffffffffffffffffffffffffffffffffffffffffff167fffffffff000000000000000000000000000000000000000000000000000000009094169390931790925290516131ff919061434a565b600060405180830381855af49150503d806000811461323a576040519150601f19603f3d011682016040523d82523d6000602084013e61323f565b606091505b5091509150816132915760405162461bcd60e51b815260206004820152601360248201527f544f4b454e5f4445504c4f595f4641494c45440000000000000000000000000060448201526064016105a7565b808060200190518101906132a59190614b98565b93506132b2876001613c37565b50505061331c565b6001600160a01b0381163b6133115760405162461bcd60e51b815260206004820152600960248201527f4e4f545f544f4b454e000000000000000000000000000000000000000000000060448201526064016105a7565b61331c846002613c37565b6133268482613c67565b7fbf90b5a1ec9763e8bf4b9245cef0c28db92bab309fc2c5177f17814f382469388482604051613357929190614d47565b60405180910390a15050505050565b60007fc4e632779a6a7838736dd7e5e6a0eadf171dd37dfb6230720e265576dfcf42bb82604051602001612bb9929190614bb5565b6130a861306783613baf565b8151818110156133f95760405162461bcd60e51b815260206004820152600a60248201527f494e565f41444d494e530000000000000000000000000000000000000000000060448201526064016105a7565b600082116134495760405162461bcd60e51b815260206004820152600e60248201527f494e565f41444d494e5f54484c4400000000000000000000000000000000000060448201526064016105a7565b6134538483613c73565b61345d8482613c7f565b60005b8181101561098557600084828151811061347c5761347c614aaf565b6020026020010151905061349086826129fd565b156134dd5760405162461bcd60e51b815260206004820152600960248201527f4455505f41444d494e000000000000000000000000000000000000000000000060448201526064016105a7565b6134e8868383613c8b565b6134f486826001613c98565b50806134ff81614421565b915050613460565b604080517f957705a374326b30f4a1069c936d736cc9993ed6c820b4e0e2fd94a8beca0d1d6020820152908101829052600090606001612bb9565b61354f8585858585613ca5565b80826001600160a01b0316867f335f6ae6f72f239a7a96a1953b2726347d41fc037f103531a304923297733df087876040516119a8929190614366565b6040517f19457468657265756d205369676e6564204d6573736167653a0a3332000000006020820152603c8101829052600090605c01612bb9565b6000815160411461361a5760405162461bcd60e51b815260206004820152600760248201527f494e565f4c454e0000000000000000000000000000000000000000000000000060448201526064016105a7565b60208201516040830151606084015160001a7f7fffffffffffffffffffffffffffffff5d576e7357a4501ddfe92f46681b20a082111561369c5760405162461bcd60e51b815260206004820152600560248201527f494e565f5300000000000000000000000000000000000000000000000000000060448201526064016105a7565b8060ff16601b14806136b157508060ff16601c145b6136fd5760405162461bcd60e51b815260206004820152600560248201527f494e565f5600000000000000000000000000000000000000000000000000000060448201526064016105a7565b6040805160008082526020820180845289905260ff841692820192909252606081018590526080810184905260019060a0016020604051602081039080840390855afa158015613751573d6000803e3d6000fd5b505050602060405103519450846001600160a01b031614156137b55760405162461bcd60e51b815260206004820152600760248201527f494e565f5349470000000000000000000000000000000000000000000000000060448201526064016105a7565b50505092915050565b6000806138127f67cbdff49954077d2dd5637524b03bfe3e6506d456859017a888fad567e1af0360009081526020527f06f01c2f096e745c2a207fbf93babd5e7ee6acfd26f0f34a0e4ac68373c21d0e5490565b9050600061382260016010614409565b9050600081831161383457600061383e565b61383e8284614d72565b905061384983614d89565b92505b80831115613891576138688361386181614d89565b945061304a565b6001600160a01b0316856001600160a01b0316141561388c57506001949350505050565b61384c565b506000949350505050565b6000806138f07f5369fb791f26307f8e69b07625302ccac6930af09ab22d753b17d2042e9992e760009081526020527f07174c149a4f7627ac1dd39b679bd42f12fc4e8d7e850b055662bbee7188da105490565b9050600061390060016010614409565b9050600081831161391257600061391c565b61391c8284614d72565b90505b808311156138915761393b8361393481614d89565b9450612f7d565b6001600160a01b0316856001600160a01b0316141561395f57506001949350505050565b61391f565b6130a8612b2683613507565b600061397e6104b083613cb5565b6002811115610cdf57610cdf614a80565b600080846001600160a01b0316846040516139aa919061434a565b6000604051808303816000865af19150503d80600081146139e7576040519150601f19603f3d011682016040523d82523d6000602084013e6139ec565b606091505b5091509150818015613a16575080511580613a16575080806020019051810190613a169190614c6a565b83906105d15760405162461bcd60e51b81526004016105a79190614143565b604080517f63fa879cb478fddf1de08d49e29115fb768866711bc799ff9ab419a7f16c9afb6020820152908101839052606082811b7fffffffffffffffffffffffffffffffffffffffff00000000000000000000000016908201526000906074015b60405160208183030381529060405280519060200120905092915050565b604080517fbaea1c6c0f16a0a340b10a9e980806696a68ddbb5e8361fd64630dd21abf515f602082015290810183905260608101829052600090608001613a97565b604080517f79bd914addd90bd67ad800bf0230bb85ffdef5aeba5fd8249f116d3f17f4fb4b6020820152908101829052600090606001612bb9565b604080517f05112ef894367de1270cfae12afcd2285c225830eb8f74e7e938f721bb510cba6020820152908101829052600090606001612bb9565b604080517ff23ec0bb4210edd5cba85afd05127efcd2fc6a781bfed49188da1081670b22d8602082015290810183905260608101829052600090608001613a97565b604080517f46a52cf33029de9f84853745a87af28464c80bf0346df1b32e205fc73319f6226020820152908101829052600090606001612bb9565b611ea6610c3388888888888888612667565b604080517f02016836a56b71f0d02689e69e326f4f4c1b9057164ef592671cf0d37c8040c06020820152908101829052600090606001612bb9565b6130a8613c4383613cb5565b826002811115613c5557613c55614a80565b60009182526020829052604090912055565b6130a861306783613366565b6130a8612b5e83613af7565b6130a8612b5e83613b32565b612b716130678484613b6d565b612b71612b268484613a35565b610985610c338686868686612fec565b60007fa80d2259af55890618ec2eeb3ac72de4bdba22529bb14845d8a3d712d1c3f62182604051602001612bb9929190614bb5565b6102eb80614dbf83390190565b60008083601f840112613d0957600080fd5b50813567ffffffffffffffff811115613d2157600080fd5b602083019150836020828501011115613d3957600080fd5b9250929050565b60008060208385031215613d5357600080fd5b823567ffffffffffffffff811115613d6a57600080fd5b613d7685828601613cf7565b90969095509350505050565b600080600060408486031215613d9757600080fd5b833567ffffffffffffffff811115613dae57600080fd5b613dba86828701613cf7565b909790965060209590950135949350505050565b7f4e487b7100000000000000000000000000000000000000000000000000000000600052604160045260246000fd5b604051601f8201601f1916810167ffffffffffffffff81118282101715613e2657613e26613dce565b604052919050565b600067ffffffffffffffff821115613e4857613e48613dce565b50601f01601f191660200190565b600082601f830112613e6757600080fd5b8135613e7a613e7582613e2e565b613dfd565b818152846020838601011115613e8f57600080fd5b816020850160208301376000918101602001919091529392505050565b60008060008060008060c08789031215613ec557600080fd5b86359550602087013567ffffffffffffffff80821115613ee457600080fd5b613ef08a838b01613e56565b96506040890135915080821115613f0657600080fd5b613f128a838b01613e56565b9550606089013594506080890135915080821115613f2f57600080fd5b50613f3c89828a01613e56565b92505060a087013590509295509295509295565b600080600060608486031215613f6557600080fd5b833567ffffffffffffffff80821115613f7d57600080fd5b613f8987838801613e56565b94506020860135915080821115613f9f57600080fd5b613fab87838801613e56565b93506040860135915080821115613fc157600080fd5b50613fce86828701613e56565b9150509250925092565b600060208284031215613fea57600080fd5b5035919050565b6000806000806080858703121561400757600080fd5b843567ffffffffffffffff8082111561401f57600080fd5b61402b88838901613e56565b9550602087013591508082111561404157600080fd5b61404d88838901613e56565b9450604087013591508082111561406357600080fd5b5061407087828801613e56565b949793965093946060013593505050565b60006020828403121561409357600080fd5b813567ffffffffffffffff8111156140aa57600080fd5b612a9c84828501613e56565b600080600080608085870312156140cc57600080fd5b84359350602085013567ffffffffffffffff8082111561404157600080fd5b60005b838110156141065781810151838201526020016140ee565b838111156105565750506000910152565b6000815180845261412f8160208601602086016140eb565b601f01601f19169290920160200192915050565b602081526000612a0c6020830184614117565b6001600160a01b038116811461305857600080fd5b6000806000806060858703121561418157600080fd5b843561418c81614156565b935060208501359250604085013567ffffffffffffffff8111156141af57600080fd5b6141bb87828801613cf7565b95989497509550505050565b600080600080600060a086880312156141df57600080fd5b853567ffffffffffffffff808211156141f757600080fd5b61420389838a01613e56565b9650602088013591508082111561421957600080fd5b61422589838a01613e56565b9550604088013591508082111561423b57600080fd5b61424789838a01613e56565b9450606088013591508082111561425d57600080fd5b5061426a88828901613e56565b95989497509295608001359392505050565b6000806040838503121561428f57600080fd5b823567ffffffffffffffff808211156142a757600080fd5b6142b386838701613e56565b935060208501359150808211156142c957600080fd5b506142d685828601613e56565b9150509250929050565b80356142eb81614156565b919050565b60008060006060848603121561430557600080fd5b833567ffffffffffffffff81111561431c57600080fd5b61432886828701613e56565b935050602084013561433981614156565b929592945050506040919091013590565b6000825161435c8184602087016140eb565b9190910192915050565b6040815260006143796040830185614117565b828103602084015261438b8185614117565b95945050505050565b6060815260006143a76060830186614117565b82810360208401526143b98186614117565b915050826040830152949350505050565b8183823760009101908152919050565b7f4e487b7100000000000000000000000000000000000000000000000000000000600052601160045260246000fd5b6000821982111561441c5761441c6143da565b500190565b60007fffffffffffffffffffffffffffffffffffffffffffffffffffffffffffffffff821415614453576144536143da565b5060010190565b6000806040838503121561446d57600080fd5b823567ffffffffffffffff81111561448457600080fd5b61449085828601613e56565b95602094909401359450505050565b60008060008060008060c087890312156144b857600080fd5b863567ffffffffffffffff808211156144d057600080fd5b6144dc8a838b01613e56565b975060208901359150808211156144f257600080fd5b6144fe8a838b01613e56565b96506040890135915061451082614156565b9094506060880135935060808801359080821115613f2f57600080fd5b60006020828403121561453f57600080fd5b8135612a0c81614156565b600080600080600060a0868803121561456257600080fd5b853567ffffffffffffffff8082111561457a57600080fd5b61458689838a01613e56565b9650602088013591508082111561459c57600080fd5b506145a988828901613e56565b945050604086013560ff811681146145c057600080fd5b92506060860135915060808601356145d781614156565b809150509295509295909350565b600181811c908216806145f957607f821691505b60208210811415614633577f4e487b7100000000000000000000000000000000000000000000000000000000600052602260045260246000fd5b50919050565b600067ffffffffffffffff82111561465357614653613dce565b5060051b60200190565b6000806000806080858703121561467357600080fd5b843567ffffffffffffffff81111561468a57600080fd5b8501601f8101871361469b57600080fd5b803560206146ab613e7583614639565b82815260059290921b8301810191818101908a8411156146ca57600080fd5b938201935b838510156146f15784356146e281614156565b825293820193908201906146cf565b9750508701359450614708915050604086016142e0565b9150614716606086016142e0565b905092959194509250565b60208152816020820152818360408301376000818301604090810191909152601f909201601f19160101919050565b6080815260006147636080830187614117565b82810360208401526147758187614117565b905082810360408401526147898186614117565b91505082606083015295945050505050565b600080600080608085870312156147b157600080fd5b843567ffffffffffffffff808211156147c957600080fd5b6147d588838901613e56565b955060208701359150808211156147eb57600080fd5b506147f887828801613e56565b935050604085013561480981614156565b9396929550929360600135925050565b6000614827613e7584613e2e565b905082815283838301111561483b57600080fd5b612a0c8360208301846140eb565b600082601f83011261485a57600080fd5b8151602061486a613e7583614639565b82815260059290921b8401810191818101908684111561488957600080fd5b8286015b8481101561062857805167ffffffffffffffff8111156148ad5760008081fd5b8701603f810189136148bf5760008081fd5b6148d0898683015160408401614819565b84525091830191830161488d565b600082601f8301126148ef57600080fd5b612a0c83835160208501614819565b600082601f83011261490f57600080fd5b8151602061491f613e7583614639565b82815260059290921b8401810191818101908684111561493e57600080fd5b8286015b8481101561062857805167ffffffffffffffff8111156149625760008081fd5b6149708986838b01016148de565b845250918301918301614942565b600080600080600060a0868803121561499657600080fd5b85519450602080870151600381106149ad57600080fd5b604088015190955067ffffffffffffffff808211156149cb57600080fd5b818901915089601f8301126149df57600080fd5b81516149ed613e7582614639565b81815260059190911b8301840190848101908c831115614a0c57600080fd5b938501935b82851015614a2a57845182529385019390850190614a11565b60608c01519098509450505080831115614a4357600080fd5b614a4f8a848b01614849565b94506080890151925080831115614a6557600080fd5b5050614a73888289016148fe565b9150509295509295909350565b7f4e487b7100000000000000000000000000000000000000000000000000000000600052602160045260246000fd5b7f4e487b7100000000000000000000000000000000000000000000000000000000600052603260045260246000fd5b604081526000614af16040830185614117565b90508260208301529392505050565b88815287602082015260008751614b1e816040850160208c016140eb565b875190830190614b35816040840160208c016140eb565b8082019150507fffffffffffffffffffffffffffffffffffffffff0000000000000000000000008760601b1660408201528560548201528451614b7f8160748401602089016140eb565b0160748101939093525050609401979650505050505050565b600060208284031215614baa57600080fd5b8151612a0c81614156565b82815260008251614bcd8160208501602087016140eb565b919091016020019392505050565b600060208284031215614bed57600080fd5b5051919050565b6001600160a01b0383168152604060208201526000612a9c6040830184614117565b805180151581146142eb57600080fd5b60008060408385031215614c3957600080fd5b614c4283614c16565b9150602083015167ffffffffffffffff811115614c5e57600080fd5b6142d6858286016148de565b600060208284031215614c7c57600080fd5b612a0c82614c16565b86815285602082015260008551614ca3816040850160208a016140eb565b855190830190614cba816040840160208a016140eb565b60609590951b7fffffffffffffffffffffffffffffffffffffffff000000000000000000000000166040919095019081019490945250506054820152607401949350505050565b60a081526000614d1460a0830188614117565b8281036020840152614d268188614117565b60ff9690961660408401525050606081019290925260809091015292915050565b604081526000614d5a6040830185614117565b90506001600160a01b03831660208301529392505050565b600082821015614d8457614d846143da565b500390565b600081614d9857614d986143da565b507fffffffffffffffffffffffffffffffffffffffffffffffffffffffffffffffff019056fe60806040526000805534801561001457600080fd5b506102c7806100246000396000f3fe608060405234801561001057600080fd5b50600436106100355760003560e01c8062f55d9d1461003a5780631cff79cd1461004f575b600080fd5b61004d61004836600461015f565b610079565b005b61006261005d366004610181565b6100a4565b604051610070929190610204565b60405180910390f35b6000541561008657600080fd5b600160005573ffffffffffffffffffffffffffffffffffffffff8116ff5b6000606060008054146100b657600080fd5b600160005560405173ffffffffffffffffffffffffffffffffffffffff8616906100e39086908690610281565b6000604051808303816000865af19150503d8060008114610120576040519150601f19603f3d011682016040523d82523d6000602084013e610125565b606091505b506000805590969095509350505050565b803573ffffffffffffffffffffffffffffffffffffffff8116811461015a57600080fd5b919050565b60006020828403121561017157600080fd5b61017a82610136565b9392505050565b60008060006040848603121561019657600080fd5b61019f84610136565b9250602084013567ffffffffffffffff808211156101bc57600080fd5b818601915086601f8301126101d057600080fd5b8135818111156101df57600080fd5b8760208285010111156101f157600080fd5b6020830194508093505050509250925092565b821515815260006020604081840152835180604085015260005b8181101561023a5785810183015185820160600152820161021e565b8181111561024c576000606083870101525b50601f017fffffffffffffffffffffffffffffffffffffffffffffffffffffffffffffffe01692909201606001949350505050565b818382376000910190815291905056fea2646970667358221220fdd6db5bba0afd251fcefcec3913650b375890325fd2d7152affa2da7bd2749664736f6c63430008090033a26469706673582212204a5785158847879928ba377af5b98c439dcbaa26725eb24b8d4e0181d179bc4264736f6c63430008090033",
      "opcodes": "PUSH1 0xA0 PUSH1 0x40 MSTORE CALLVALUE DUP1 ISZERO PUSH3 0x11 JUMPI PUSH1 0x0 DUP1 REVERT JUMPDEST POP PUSH1 0x40 MLOAD PUSH3 0x5173 CODESIZE SUB DUP1 PUSH3 0x5173 DUP4 CODECOPY DUP2 ADD PUSH1 0x40 DUP2 SWAP1 MSTORE PUSH3 0x34 SWAP2 PUSH3 0x46 JUMP JUMPDEST PUSH1 0x1 PUSH1 0x1 PUSH1 0xA0 SHL SUB AND PUSH1 0x80 MSTORE PUSH3 0x78 JUMP JUMPDEST PUSH1 0x0 PUSH1 0x20 DUP3 DUP5 SUB SLT ISZERO PUSH3 0x59 JUMPI PUSH1 0x0 DUP1 REVERT JUMPDEST DUP2 MLOAD PUSH1 0x1 PUSH1 0x1 PUSH1 0xA0 SHL SUB DUP2 AND DUP2 EQ PUSH3 0x71 JUMPI PUSH1 0x0 DUP1 REVERT JUMPDEST SWAP4 SWAP3 POP POP POP JUMP JUMPDEST PUSH1 0x80 MLOAD PUSH2 0x50DF PUSH3 0x94 PUSH1 0x0 CODECOPY PUSH1 0x0 PUSH2 0x314B ADD MSTORE PUSH2 0x50DF PUSH1 0x0 RETURN INVALID PUSH1 0x80 PUSH1 0x40 MSTORE CALLVALUE DUP1 ISZERO PUSH2 0x10 JUMPI PUSH1 0x0 DUP1 REVERT JUMPDEST POP PUSH1 0x4 CALLDATASIZE LT PUSH2 0x1F0 JUMPI PUSH1 0x0 CALLDATALOAD PUSH1 0xE0 SHR DUP1 PUSH4 0x886A625D GT PUSH2 0x10F JUMPI DUP1 PUSH4 0xB5417084 GT PUSH2 0xA2 JUMPI DUP1 PUSH4 0xD2BC37F8 GT PUSH2 0x71 JUMPI DUP1 PUSH4 0xD2BC37F8 EQ PUSH2 0x4F6 JUMPI DUP1 PUSH4 0xDC97D962 EQ PUSH2 0x4FE JUMPI DUP1 PUSH4 0xE3DFA299 EQ PUSH2 0x51E JUMPI DUP1 PUSH4 0xFBE0A31B EQ PUSH2 0x526 JUMPI PUSH1 0x0 DUP1 REVERT JUMPDEST DUP1 PUSH4 0xB5417084 EQ PUSH2 0x48F JUMPI DUP1 PUSH4 0xBD02D0F5 EQ PUSH2 0x4A2 JUMPI DUP1 PUSH4 0xC031A180 EQ PUSH2 0x4D0 JUMPI DUP1 PUSH4 0xD26FF210 EQ PUSH2 0x4E3 JUMPI PUSH1 0x0 DUP1 REVERT JUMPDEST DUP1 PUSH4 0x986E791A GT PUSH2 0xDE JUMPI DUP1 PUSH4 0x986E791A EQ PUSH2 0x3F6 JUMPI DUP1 PUSH4 0x9DED06DF EQ PUSH2 0x416 JUMPI DUP1 PUSH4 0xA3499C73 EQ PUSH2 0x429 JUMPI DUP1 PUSH4 0xAA1E1F0A EQ PUSH2 0x43C JUMPI PUSH1 0x0 DUP1 REVERT JUMPDEST DUP1 PUSH4 0x886A625D EQ PUSH2 0x3B5 JUMPI DUP1 PUSH4 0x8DA5CB5B EQ PUSH2 0x3C8 JUMPI DUP1 PUSH4 0x935B13F6 EQ PUSH2 0x3D0 JUMPI DUP1 PUSH4 0x97B87BA6 EQ PUSH2 0x3E3 JUMPI PUSH1 0x0 DUP1 REVERT JUMPDEST DUP1 PUSH4 0x570CA735 GT PUSH2 0x187 JUMPI DUP1 PUSH4 0x646C5D34 GT PUSH2 0x156 JUMPI DUP1 PUSH4 0x646C5D34 EQ PUSH2 0x359 JUMPI DUP1 PUSH4 0x7AE1CFCA EQ PUSH2 0x36C JUMPI DUP1 PUSH4 0x7B1B769E EQ PUSH2 0x38F JUMPI DUP1 PUSH4 0x7E8C8118 EQ PUSH2 0x3A2 JUMPI PUSH1 0x0 DUP1 REVERT JUMPDEST DUP1 PUSH4 0x570CA735 EQ PUSH2 0x2D2 JUMPI DUP1 PUSH4 0x585A9FD4 EQ PUSH2 0x2DA JUMPI DUP1 PUSH4 0x5C60DA1B EQ PUSH2 0x2ED JUMPI DUP1 PUSH4 0x5F6970C3 EQ PUSH2 0x346 JUMPI PUSH1 0x0 DUP1 REVERT JUMPDEST DUP1 PUSH4 0x21F8A721 GT PUSH2 0x1C3 JUMPI DUP1 PUSH4 0x21F8A721 EQ PUSH2 0x258 JUMPI DUP1 PUSH4 0x26EF699D EQ PUSH2 0x299 JUMPI DUP1 PUSH4 0x34FF6983 EQ PUSH2 0x2AC JUMPI DUP1 PUSH4 0x4656AE2E EQ PUSH2 0x2BF JUMPI PUSH1 0x0 DUP1 REVERT JUMPDEST DUP1 PUSH4 0x9C5EABE EQ PUSH2 0x1F5 JUMPI DUP1 PUSH4 0x146E2D78 EQ PUSH2 0x20A JUMPI DUP1 PUSH4 0x1876EED9 EQ PUSH2 0x21D JUMPI DUP1 PUSH4 0x1C92115F EQ PUSH2 0x245 JUMPI JUMPDEST PUSH1 0x0 DUP1 REVERT JUMPDEST PUSH2 0x208 PUSH2 0x203 CALLDATASIZE PUSH1 0x4 PUSH2 0x3D40 JUMP JUMPDEST PUSH2 0x539 JUMP JUMPDEST STOP JUMPDEST PUSH2 0x208 PUSH2 0x218 CALLDATASIZE PUSH1 0x4 PUSH2 0x3D82 JUMP JUMPDEST PUSH2 0x55C JUMP JUMPDEST PUSH2 0x230 PUSH2 0x22B CALLDATASIZE PUSH1 0x4 PUSH2 0x3EAC JUMP JUMPDEST PUSH2 0x5D9 JUMP JUMPDEST PUSH1 0x40 MLOAD SWAP1 ISZERO ISZERO DUP2 MSTORE PUSH1 0x20 ADD JUMPDEST PUSH1 0x40 MLOAD DUP1 SWAP2 SUB SWAP1 RETURN JUMPDEST PUSH2 0x208 PUSH2 0x253 CALLDATASIZE PUSH1 0x4 PUSH2 0x3F50 JUMP JUMPDEST PUSH2 0x633 JUMP JUMPDEST PUSH2 0x281 PUSH2 0x266 CALLDATASIZE PUSH1 0x4 PUSH2 0x3FD8 JUMP JUMPDEST PUSH1 0x0 SWAP1 DUP2 MSTORE PUSH1 0x2 PUSH1 0x20 MSTORE PUSH1 0x40 SWAP1 KECCAK256 SLOAD PUSH1 0x1 PUSH1 0x1 PUSH1 0xA0 SHL SUB AND SWAP1 JUMP JUMPDEST PUSH1 0x40 MLOAD PUSH1 0x1 PUSH1 0x1 PUSH1 0xA0 SHL SUB SWAP1 SWAP2 AND DUP2 MSTORE PUSH1 0x20 ADD PUSH2 0x23C JUMP JUMPDEST PUSH2 0x208 PUSH2 0x2A7 CALLDATASIZE PUSH1 0x4 PUSH2 0x3FF1 JUMP JUMPDEST PUSH2 0x698 JUMP JUMPDEST PUSH2 0x208 PUSH2 0x2BA CALLDATASIZE PUSH1 0x4 PUSH2 0x4081 JUMP JUMPDEST PUSH2 0x704 JUMP JUMPDEST PUSH2 0x208 PUSH2 0x2CD CALLDATASIZE PUSH1 0x4 PUSH2 0x3D82 JUMP JUMPDEST PUSH2 0x919 JUMP JUMPDEST PUSH2 0x281 PUSH2 0x98C JUMP JUMPDEST PUSH2 0x208 PUSH2 0x2E8 CALLDATASIZE PUSH1 0x4 PUSH2 0x3D82 JUMP JUMPDEST PUSH2 0x9EC JUMP JUMPDEST PUSH32 0x360894A13BA1A3210667C828492DB98DCA3E2076CC3735A920A3CA505D382BBC PUSH1 0x0 MSTORE PUSH1 0x2 PUSH1 0x20 MSTORE PUSH32 0x11141F466C69FD409E1990E063B49CD6D61ED2ECFF27A2E402E259CA6B9A01A3 SLOAD PUSH1 0x1 PUSH1 0x1 PUSH1 0xA0 SHL SUB AND PUSH2 0x281 JUMP JUMPDEST PUSH2 0x230 PUSH2 0x354 CALLDATASIZE PUSH1 0x4 PUSH2 0x40B6 JUMP JUMPDEST PUSH2 0xA74 JUMP JUMPDEST PUSH2 0x208 PUSH2 0x367 CALLDATASIZE PUSH1 0x4 PUSH2 0x4081 JUMP JUMPDEST PUSH2 0xAC0 JUMP JUMPDEST PUSH2 0x230 PUSH2 0x37A CALLDATASIZE PUSH1 0x4 PUSH2 0x3FD8 JUMP JUMPDEST PUSH1 0x0 SWAP1 DUP2 MSTORE PUSH1 0x4 PUSH1 0x20 MSTORE PUSH1 0x40 SWAP1 KECCAK256 SLOAD PUSH1 0xFF AND SWAP1 JUMP JUMPDEST PUSH2 0x230 PUSH2 0x39D CALLDATASIZE PUSH1 0x4 PUSH2 0x4081 JUMP JUMPDEST PUSH2 0xCD1 JUMP JUMPDEST PUSH2 0x208 PUSH2 0x3B0 CALLDATASIZE PUSH1 0x4 PUSH2 0x3D82 JUMP JUMPDEST PUSH2 0xCE5 JUMP JUMPDEST PUSH2 0x208 PUSH2 0x3C3 CALLDATASIZE PUSH1 0x4 PUSH2 0x3D82 JUMP JUMPDEST PUSH2 0xE9D JUMP JUMPDEST PUSH2 0x281 PUSH2 0xF1F JUMP JUMPDEST PUSH2 0x281 PUSH2 0x3DE CALLDATASIZE PUSH1 0x4 PUSH2 0x4081 JUMP JUMPDEST PUSH2 0xF7A JUMP JUMPDEST PUSH2 0x208 PUSH2 0x3F1 CALLDATASIZE PUSH1 0x4 PUSH2 0x3D82 JUMP JUMPDEST PUSH2 0xF88 JUMP JUMPDEST PUSH2 0x409 PUSH2 0x404 CALLDATASIZE PUSH1 0x4 PUSH2 0x3FD8 JUMP JUMPDEST PUSH2 0x113F JUMP JUMPDEST PUSH1 0x40 MLOAD PUSH2 0x23C SWAP2 SWAP1 PUSH2 0x4143 JUMP JUMPDEST PUSH2 0x208 PUSH2 0x424 CALLDATASIZE PUSH1 0x4 PUSH2 0x3D40 JUMP JUMPDEST PUSH2 0x11E1 JUMP JUMPDEST PUSH2 0x208 PUSH2 0x437 CALLDATASIZE PUSH1 0x4 PUSH2 0x416B JUMP JUMPDEST PUSH2 0x1559 JUMP JUMPDEST PUSH32 0x75A31D1CE8E5F9892188BEFC328D3B9BD3FA5037457E881ABC21F388471B8D96 PUSH1 0x0 MSTORE PUSH1 0x4 PUSH1 0x20 MSTORE PUSH32 0xA0B596B8942D6EF5CC77CE0AD89A75F0BFCC7F0132CD8DB58E8449DCF04A858A SLOAD PUSH1 0xFF AND PUSH2 0x230 JUMP JUMPDEST PUSH2 0x208 PUSH2 0x49D CALLDATASIZE PUSH1 0x4 PUSH2 0x41C7 JUMP JUMPDEST PUSH2 0x1941 JUMP JUMPDEST PUSH2 0x4C2 PUSH2 0x4B0 CALLDATASIZE PUSH1 0x4 PUSH2 0x3FD8 JUMP JUMPDEST PUSH1 0x0 SWAP1 DUP2 MSTORE PUSH1 0x20 DUP2 SWAP1 MSTORE PUSH1 0x40 SWAP1 KECCAK256 SLOAD SWAP1 JUMP JUMPDEST PUSH1 0x40 MLOAD SWAP1 DUP2 MSTORE PUSH1 0x20 ADD PUSH2 0x23C JUMP JUMPDEST PUSH2 0x409 PUSH2 0x4DE CALLDATASIZE PUSH1 0x4 PUSH2 0x3FD8 JUMP JUMPDEST PUSH2 0x19B7 JUMP JUMPDEST PUSH2 0x230 PUSH2 0x4F1 CALLDATASIZE PUSH1 0x4 PUSH2 0x3FD8 JUMP JUMPDEST PUSH2 0x19D4 JUMP JUMPDEST PUSH2 0x208 PUSH2 0x19E2 JUMP JUMPDEST PUSH2 0x4C2 PUSH2 0x50C CALLDATASIZE PUSH1 0x4 PUSH2 0x3FD8 JUMP JUMPDEST PUSH1 0x0 SWAP1 DUP2 MSTORE PUSH1 0x5 PUSH1 0x20 MSTORE PUSH1 0x40 SWAP1 KECCAK256 SLOAD SWAP1 JUMP JUMPDEST PUSH2 0x208 PUSH2 0x1C0B JUMP JUMPDEST PUSH2 0x208 PUSH2 0x534 CALLDATASIZE PUSH1 0x4 PUSH2 0x3D82 JUMP JUMPDEST PUSH2 0x1E31 JUMP JUMPDEST PUSH1 0x0 DUP1 PUSH2 0x548 DUP4 DUP6 ADD DUP6 PUSH2 0x427C JUMP JUMPDEST SWAP2 POP SWAP2 POP PUSH2 0x556 DUP3 DUP3 PUSH2 0x1EAF JUMP JUMPDEST POP POP POP POP JUMP JUMPDEST CALLER ADDRESS EQ PUSH2 0x5B0 JUMPI PUSH1 0x40 MLOAD PUSH3 0x461BCD PUSH1 0xE5 SHL DUP2 MSTORE PUSH1 0x20 PUSH1 0x4 DUP3 ADD MSTORE PUSH1 0x8 PUSH1 0x24 DUP3 ADD MSTORE PUSH32 0x4E4F545F53454C46000000000000000000000000000000000000000000000000 PUSH1 0x44 DUP3 ADD MSTORE PUSH1 0x64 ADD JUMPDEST PUSH1 0x40 MLOAD DUP1 SWAP2 SUB SWAP1 REVERT JUMPDEST PUSH1 0x0 DUP1 DUP1 PUSH2 0x5C0 DUP6 DUP8 ADD DUP8 PUSH2 0x42F0 JUMP JUMPDEST SWAP3 POP SWAP3 POP SWAP3 POP PUSH2 0x5D1 DUP4 DUP4 DUP4 PUSH2 0x24B4 JUMP JUMPDEST POP POP POP POP POP POP JUMP JUMPDEST PUSH1 0x0 DUP1 PUSH2 0x5EB DUP9 DUP9 DUP9 CALLER DUP10 DUP10 DUP10 PUSH2 0x2667 JUMP JUMPDEST PUSH1 0x0 DUP2 DUP2 MSTORE PUSH1 0x4 PUSH1 0x20 MSTORE PUSH1 0x40 SWAP1 KECCAK256 SLOAD PUSH1 0xFF AND SWAP3 POP SWAP1 POP DUP2 ISZERO PUSH2 0x628 JUMPI PUSH1 0x0 DUP2 DUP2 MSTORE PUSH1 0x4 PUSH1 0x20 MSTORE PUSH1 0x40 SWAP1 KECCAK256 DUP1 SLOAD PUSH1 0xFF NOT AND SWAP1 SSTORE PUSH2 0x628 DUP5 CALLER DUP6 PUSH2 0x24B4 JUMP JUMPDEST POP SWAP7 SWAP6 POP POP POP POP POP POP JUMP JUMPDEST DUP1 MLOAD PUSH1 0x20 DUP3 ADD KECCAK256 PUSH1 0x40 MLOAD PUSH2 0x648 SWAP1 DUP5 SWAP1 PUSH2 0x434A JUMP JUMPDEST PUSH1 0x40 MLOAD DUP1 SWAP2 SUB SWAP1 KECCAK256 CALLER PUSH1 0x1 PUSH1 0x1 PUSH1 0xA0 SHL SUB AND PUSH32 0x30AE6CC78C27E651745BF2AD08A11DE83910AC1E347A52F7AC898C0FBEF94DAE DUP7 DUP6 PUSH1 0x40 MLOAD PUSH2 0x68B SWAP3 SWAP2 SWAP1 PUSH2 0x4366 JUMP JUMPDEST PUSH1 0x40 MLOAD DUP1 SWAP2 SUB SWAP1 LOG4 POP POP POP JUMP JUMPDEST PUSH2 0x6A3 CALLER DUP4 DUP4 PUSH2 0x26CB JUMP JUMPDEST DUP3 PUSH1 0x40 MLOAD PUSH2 0x6B1 SWAP2 SWAP1 PUSH2 0x434A JUMP JUMPDEST PUSH1 0x40 MLOAD DUP1 SWAP2 SUB SWAP1 KECCAK256 CALLER PUSH1 0x1 PUSH1 0x1 PUSH1 0xA0 SHL SUB AND PUSH32 0x651D93F66C4329630E8D0F62488EFF599E3BE484DA587335E8DC0FCF46062726 DUP7 DUP6 DUP6 PUSH1 0x40 MLOAD PUSH2 0x6F6 SWAP4 SWAP3 SWAP2 SWAP1 PUSH2 0x4394 JUMP JUMPDEST PUSH1 0x40 MLOAD DUP1 SWAP2 SUB SWAP1 LOG3 POP POP POP POP JUMP JUMPDEST PUSH1 0x0 PUSH2 0x757 PUSH32 0xD51DC9B187568BB94760866E1D0D066CA470037D2D331AFB1A02EC74BFB8990C PUSH1 0x0 SWAP1 DUP2 MSTORE PUSH1 0x20 MSTORE PUSH32 0xF8D0C05CD32E3272241FDC9D5839565F8BCF94139CB4BD09E230E1B57A60DDC2 SLOAD SWAP1 JUMP JUMPDEST SWAP1 POP PUSH2 0x763 DUP2 CALLER PUSH2 0x29FD JUMP JUMPDEST PUSH2 0x7AF JUMPI PUSH1 0x40 MLOAD PUSH3 0x461BCD PUSH1 0xE5 SHL DUP2 MSTORE PUSH1 0x20 PUSH1 0x4 DUP3 ADD MSTORE PUSH1 0x9 PUSH1 0x24 DUP3 ADD MSTORE PUSH32 0x4E4F545F41444D494E0000000000000000000000000000000000000000000000 PUSH1 0x44 DUP3 ADD MSTORE PUSH1 0x64 ADD PUSH2 0x5A7 JUMP JUMPDEST PUSH1 0x0 DUP1 CALLDATASIZE PUSH1 0x40 MLOAD PUSH2 0x7C1 SWAP3 SWAP2 SWAP1 PUSH2 0x43CA JUMP JUMPDEST PUSH1 0x40 MLOAD DUP1 SWAP2 SUB SWAP1 KECCAK256 SWAP1 POP PUSH2 0x7D6 DUP3 DUP3 CALLER PUSH2 0x2A13 JUMP JUMPDEST ISZERO PUSH2 0x823 JUMPI PUSH1 0x40 MLOAD PUSH3 0x461BCD PUSH1 0xE5 SHL DUP2 MSTORE PUSH1 0x20 PUSH1 0x4 DUP3 ADD MSTORE PUSH1 0x5 PUSH1 0x24 DUP3 ADD MSTORE PUSH32 0x564F544544000000000000000000000000000000000000000000000000000000 PUSH1 0x44 DUP3 ADD MSTORE PUSH1 0x64 ADD PUSH2 0x5A7 JUMP JUMPDEST PUSH2 0x830 DUP3 DUP3 CALLER PUSH1 0x1 PUSH2 0x2AA4 JUMP JUMPDEST PUSH1 0x0 PUSH1 0x1 PUSH2 0x83E DUP5 DUP5 PUSH2 0x2B42 JUMP JUMPDEST PUSH2 0x848 SWAP2 SWAP1 PUSH2 0x4409 JUMP JUMPDEST SWAP1 POP PUSH2 0x855 DUP4 DUP4 DUP4 PUSH2 0x2B51 JUMP JUMPDEST PUSH2 0x85E DUP4 PUSH2 0x2B76 JUMP JUMPDEST DUP2 LT ISZERO PUSH2 0x86B JUMPI POP POP POP POP JUMP JUMPDEST PUSH2 0x88F PUSH2 0x877 DUP6 PUSH2 0x2B84 JUMP JUMPDEST PUSH1 0x0 SWAP1 DUP2 MSTORE PUSH1 0x4 PUSH1 0x20 MSTORE PUSH1 0x40 SWAP1 KECCAK256 DUP1 SLOAD PUSH1 0xFF NOT AND SWAP1 SSTORE JUMP JUMPDEST DUP4 PUSH1 0x40 MLOAD PUSH2 0x89D SWAP2 SWAP1 PUSH2 0x434A JUMP JUMPDEST PUSH1 0x40 MLOAD SWAP1 DUP2 SWAP1 SUB DUP2 KECCAK256 SWAP1 PUSH32 0x5327E3AF9CD2D5C19A8DFF23EF487D7A4D5F6FC985464F1792A33C2120575989 SWAP1 PUSH1 0x0 SWAP1 LOG2 PUSH2 0x8D9 DUP4 DUP4 PUSH1 0x0 PUSH2 0x2B51 JUMP JUMPDEST PUSH1 0x0 PUSH2 0x8E4 DUP5 PUSH2 0x2BD6 JUMP JUMPDEST SWAP1 POP PUSH1 0x0 JUMPDEST DUP2 DUP2 LT ISZERO PUSH2 0x5D1 JUMPI PUSH2 0x907 DUP6 DUP6 PUSH2 0x900 DUP9 DUP6 PUSH2 0x2BE4 JUMP JUMPDEST PUSH1 0x0 PUSH2 0x2AA4 JUMP JUMPDEST DUP1 PUSH2 0x911 DUP2 PUSH2 0x4421 JUMP JUMPDEST SWAP2 POP POP PUSH2 0x8E9 JUMP JUMPDEST CALLER ADDRESS EQ PUSH2 0x968 JUMPI PUSH1 0x40 MLOAD PUSH3 0x461BCD PUSH1 0xE5 SHL DUP2 MSTORE PUSH1 0x20 PUSH1 0x4 DUP3 ADD MSTORE PUSH1 0x8 PUSH1 0x24 DUP3 ADD MSTORE PUSH32 0x4E4F545F53454C46000000000000000000000000000000000000000000000000 PUSH1 0x44 DUP3 ADD MSTORE PUSH1 0x64 ADD PUSH2 0x5A7 JUMP JUMPDEST PUSH1 0x0 DUP1 PUSH2 0x977 DUP5 DUP7 ADD DUP7 PUSH2 0x445A JUMP JUMPDEST SWAP2 POP SWAP2 POP PUSH2 0x985 DUP3 DUP3 PUSH2 0x2BF3 JUMP JUMPDEST POP POP POP POP POP JUMP JUMPDEST PUSH1 0x0 PUSH2 0x9E7 PUSH2 0x9E2 PUSH32 0x5369FB791F26307F8E69B07625302CCAC6930AF09AB22D753B17D2042E9992E7 PUSH1 0x0 SWAP1 DUP2 MSTORE PUSH1 0x20 MSTORE PUSH32 0x7174C149A4F7627AC1DD39B679BD42F12FC4E8D7E850B055662BBEE7188DA10 SLOAD SWAP1 JUMP JUMPDEST PUSH2 0x2F7D JUMP JUMPDEST SWAP1 POP SWAP1 JUMP JUMPDEST CALLER ADDRESS EQ PUSH2 0xA3B JUMPI PUSH1 0x40 MLOAD PUSH3 0x461BCD PUSH1 0xE5 SHL DUP2 MSTORE PUSH1 0x20 PUSH1 0x4 DUP3 ADD MSTORE PUSH1 0x8 PUSH1 0x24 DUP3 ADD MSTORE PUSH32 0x4E4F545F53454C46000000000000000000000000000000000000000000000000 PUSH1 0x44 DUP3 ADD MSTORE PUSH1 0x64 ADD PUSH2 0x5A7 JUMP JUMPDEST PUSH1 0x0 DUP1 DUP1 DUP1 DUP1 DUP1 PUSH2 0xA4E DUP9 DUP11 ADD DUP11 PUSH2 0x449F JUMP JUMPDEST SWAP6 POP SWAP6 POP SWAP6 POP SWAP6 POP SWAP6 POP SWAP6 POP PUSH2 0xA69 DUP8 DUP8 DUP8 DUP8 DUP8 DUP8 DUP8 PUSH2 0x2F8B JUMP JUMPDEST POP POP POP POP POP POP POP POP POP JUMP JUMPDEST PUSH1 0x0 DUP1 PUSH2 0xA84 DUP7 DUP7 DUP7 CALLER DUP8 PUSH2 0x2FEC JUMP JUMPDEST PUSH1 0x0 DUP2 DUP2 MSTORE PUSH1 0x4 PUSH1 0x20 MSTORE PUSH1 0x40 SWAP1 KECCAK256 SLOAD PUSH1 0xFF AND SWAP3 POP SWAP1 POP DUP2 ISZERO PUSH2 0xAB7 JUMPI PUSH1 0x0 DUP2 DUP2 MSTORE PUSH1 0x4 PUSH1 0x20 MSTORE PUSH1 0x40 SWAP1 KECCAK256 DUP1 SLOAD PUSH1 0xFF NOT AND SWAP1 SSTORE JUMPDEST POP SWAP5 SWAP4 POP POP POP POP JUMP JUMPDEST PUSH1 0x0 PUSH2 0xB13 PUSH32 0xD51DC9B187568BB94760866E1D0D066CA470037D2D331AFB1A02EC74BFB8990C PUSH1 0x0 SWAP1 DUP2 MSTORE PUSH1 0x20 MSTORE PUSH32 0xF8D0C05CD32E3272241FDC9D5839565F8BCF94139CB4BD09E230E1B57A60DDC2 SLOAD SWAP1 JUMP JUMPDEST SWAP1 POP PUSH2 0xB1F DUP2 CALLER PUSH2 0x29FD JUMP JUMPDEST PUSH2 0xB6B JUMPI PUSH1 0x40 MLOAD PUSH3 0x461BCD PUSH1 0xE5 SHL DUP2 MSTORE PUSH1 0x20 PUSH1 0x4 DUP3 ADD MSTORE PUSH1 0x9 PUSH1 0x24 DUP3 ADD MSTORE PUSH32 0x4E4F545F41444D494E0000000000000000000000000000000000000000000000 PUSH1 0x44 DUP3 ADD MSTORE PUSH1 0x64 ADD PUSH2 0x5A7 JUMP JUMPDEST PUSH1 0x0 DUP1 CALLDATASIZE PUSH1 0x40 MLOAD PUSH2 0xB7D SWAP3 SWAP2 SWAP1 PUSH2 0x43CA JUMP JUMPDEST PUSH1 0x40 MLOAD DUP1 SWAP2 SUB SWAP1 KECCAK256 SWAP1 POP PUSH2 0xB92 DUP3 DUP3 CALLER PUSH2 0x2A13 JUMP JUMPDEST ISZERO PUSH2 0xBDF JUMPI PUSH1 0x40 MLOAD PUSH3 0x461BCD PUSH1 0xE5 SHL DUP2 MSTORE PUSH1 0x20 PUSH1 0x4 DUP3 ADD MSTORE PUSH1 0x5 PUSH1 0x24 DUP3 ADD MSTORE PUSH32 0x564F544544000000000000000000000000000000000000000000000000000000 PUSH1 0x44 DUP3 ADD MSTORE PUSH1 0x64 ADD PUSH2 0x5A7 JUMP JUMPDEST PUSH2 0xBEC DUP3 DUP3 CALLER PUSH1 0x1 PUSH2 0x2AA4 JUMP JUMPDEST PUSH1 0x0 PUSH1 0x1 PUSH2 0xBFA DUP5 DUP5 PUSH2 0x2B42 JUMP JUMPDEST PUSH2 0xC04 SWAP2 SWAP1 PUSH2 0x4409 JUMP JUMPDEST SWAP1 POP PUSH2 0xC11 DUP4 DUP4 DUP4 PUSH2 0x2B51 JUMP JUMPDEST PUSH2 0xC1A DUP4 PUSH2 0x2B76 JUMP JUMPDEST DUP2 LT ISZERO PUSH2 0xC27 JUMPI POP POP POP POP JUMP JUMPDEST PUSH2 0xC4E PUSH2 0xC33 DUP6 PUSH2 0x2B84 JUMP JUMPDEST PUSH1 0x0 SWAP1 DUP2 MSTORE PUSH1 0x4 PUSH1 0x20 MSTORE PUSH1 0x40 SWAP1 KECCAK256 DUP1 SLOAD PUSH1 0xFF NOT AND PUSH1 0x1 OR SWAP1 SSTORE JUMP JUMPDEST DUP4 PUSH1 0x40 MLOAD PUSH2 0xC5C SWAP2 SWAP1 PUSH2 0x434A JUMP JUMPDEST PUSH1 0x40 MLOAD SWAP1 DUP2 SWAP1 SUB DUP2 KECCAK256 SWAP1 PUSH32 0x11260C92ECB021C33706DB3A9699410F343D5F2175201A4551FE7634347A0CF1 SWAP1 PUSH1 0x0 SWAP1 LOG2 PUSH2 0xC98 DUP4 DUP4 PUSH1 0x0 PUSH2 0x2B51 JUMP JUMPDEST PUSH1 0x0 PUSH2 0xCA3 DUP5 PUSH2 0x2BD6 JUMP JUMPDEST SWAP1 POP PUSH1 0x0 JUMPDEST DUP2 DUP2 LT ISZERO PUSH2 0x5D1 JUMPI PUSH2 0xCBF DUP6 DUP6 PUSH2 0x900 DUP9 DUP6 PUSH2 0x2BE4 JUMP JUMPDEST DUP1 PUSH2 0xCC9 DUP2 PUSH2 0x4421 JUMP JUMPDEST SWAP2 POP POP PUSH2 0xCA8 JUMP JUMPDEST PUSH1 0x0 PUSH2 0xCDF PUSH2 0x37A DUP4 PUSH2 0x2B84 JUMP JUMPDEST SWAP3 SWAP2 POP POP JUMP JUMPDEST CALLER ADDRESS EQ PUSH2 0xD34 JUMPI PUSH1 0x40 MLOAD PUSH3 0x461BCD PUSH1 0xE5 SHL DUP2 MSTORE PUSH1 0x20 PUSH1 0x4 DUP3 ADD MSTORE PUSH1 0x8 PUSH1 0x24 DUP3 ADD MSTORE PUSH32 0x4E4F545F53454C46000000000000000000000000000000000000000000000000 PUSH1 0x44 DUP3 ADD MSTORE PUSH1 0x64 ADD PUSH2 0x5A7 JUMP JUMPDEST PUSH1 0x0 PUSH2 0xD42 DUP4 DUP6 ADD DUP6 PUSH2 0x452D JUMP JUMPDEST SWAP1 POP PUSH1 0x0 PUSH2 0xD97 PUSH32 0x67CBDFF49954077D2DD5637524B03BFE3E6506D456859017A888FAD567E1AF03 PUSH1 0x0 SWAP1 DUP2 MSTORE PUSH1 0x20 MSTORE PUSH32 0x6F01C2F096E745C2A207FBF93BABD5E7EE6ACFD26F0F34A0E4AC68373C21D0E SLOAD SWAP1 JUMP JUMPDEST SWAP1 POP PUSH1 0x1 PUSH1 0x1 PUSH1 0xA0 SHL SUB DUP3 AND PUSH2 0xDEF JUMPI PUSH1 0x40 MLOAD PUSH3 0x461BCD PUSH1 0xE5 SHL DUP2 MSTORE PUSH1 0x20 PUSH1 0x4 DUP3 ADD MSTORE PUSH1 0x9 PUSH1 0x24 DUP3 ADD MSTORE PUSH32 0x5A45524F5F414444520000000000000000000000000000000000000000000000 PUSH1 0x44 DUP3 ADD MSTORE PUSH1 0x64 ADD PUSH2 0x5A7 JUMP JUMPDEST DUP2 PUSH1 0x1 PUSH1 0x1 PUSH1 0xA0 SHL SUB AND PUSH2 0xE02 DUP3 PUSH2 0x304A JUMP JUMPDEST PUSH1 0x1 PUSH1 0x1 PUSH1 0xA0 SHL SUB AND PUSH32 0x8BE0079C531659141344CD1FD0A4F28419497F9722A3DAAFE3B4186F6B6457E0 PUSH1 0x40 MLOAD PUSH1 0x40 MLOAD DUP1 SWAP2 SUB SWAP1 LOG3 PUSH2 0xE93 PUSH2 0xE43 DUP3 PUSH2 0x4421 JUMP JUMPDEST SWAP2 POP DUP2 PUSH32 0x67CBDFF49954077D2DD5637524B03BFE3E6506D456859017A888FAD567E1AF03 PUSH1 0x0 SWAP1 DUP2 MSTORE PUSH1 0x20 MSTORE PUSH32 0x6F01C2F096E745C2A207FBF93BABD5E7EE6ACFD26F0F34A0E4AC68373C21D0E SSTORE JUMP JUMPDEST PUSH2 0x985 DUP2 DUP4 PUSH2 0x305B JUMP JUMPDEST CALLER ADDRESS EQ PUSH2 0xEEC JUMPI PUSH1 0x40 MLOAD PUSH3 0x461BCD PUSH1 0xE5 SHL DUP2 MSTORE PUSH1 0x20 PUSH1 0x4 DUP3 ADD MSTORE PUSH1 0x8 PUSH1 0x24 DUP3 ADD MSTORE PUSH32 0x4E4F545F53454C46000000000000000000000000000000000000000000000000 PUSH1 0x44 DUP3 ADD MSTORE PUSH1 0x64 ADD PUSH2 0x5A7 JUMP JUMPDEST PUSH1 0x0 DUP1 DUP1 DUP1 DUP1 PUSH2 0xEFE DUP8 DUP10 ADD DUP10 PUSH2 0x454A JUMP JUMPDEST SWAP5 POP SWAP5 POP SWAP5 POP SWAP5 POP SWAP5 POP PUSH2 0xF15 DUP6 DUP6 DUP6 DUP6 DUP6 PUSH2 0x30AC JUMP JUMPDEST POP POP POP POP POP POP POP POP JUMP JUMPDEST PUSH1 0x0 PUSH2 0x9E7 PUSH2 0xF75 PUSH32 0x67CBDFF49954077D2DD5637524B03BFE3E6506D456859017A888FAD567E1AF03 PUSH1 0x0 SWAP1 DUP2 MSTORE PUSH1 0x20 MSTORE PUSH32 0x6F01C2F096E745C2A207FBF93BABD5E7EE6ACFD26F0F34A0E4AC68373C21D0E SLOAD SWAP1 JUMP JUMPDEST PUSH2 0x304A JUMP JUMPDEST PUSH1 0x0 PUSH2 0xCDF PUSH2 0x266 DUP4 PUSH2 0x3366 JUMP JUMPDEST CALLER ADDRESS EQ PUSH2 0xFD7 JUMPI PUSH1 0x40 MLOAD PUSH3 0x461BCD PUSH1 0xE5 SHL DUP2 MSTORE PUSH1 0x20 PUSH1 0x4 DUP3 ADD MSTORE PUSH1 0x8 PUSH1 0x24 DUP3 ADD MSTORE PUSH32 0x4E4F545F53454C46000000000000000000000000000000000000000000000000 PUSH1 0x44 DUP3 ADD MSTORE PUSH1 0x64 ADD PUSH2 0x5A7 JUMP JUMPDEST PUSH1 0x0 PUSH2 0xFE5 DUP4 DUP6 ADD DUP6 PUSH2 0x452D JUMP JUMPDEST SWAP1 POP PUSH1 0x1 PUSH1 0x1 PUSH1 0xA0 SHL SUB DUP2 AND PUSH2 0x103D JUMPI PUSH1 0x40 MLOAD PUSH3 0x461BCD PUSH1 0xE5 SHL DUP2 MSTORE PUSH1 0x20 PUSH1 0x4 DUP3 ADD MSTORE PUSH1 0x9 PUSH1 0x24 DUP3 ADD MSTORE PUSH32 0x5A45524F5F414444520000000000000000000000000000000000000000000000 PUSH1 0x44 DUP3 ADD MSTORE PUSH1 0x64 ADD PUSH2 0x5A7 JUMP JUMPDEST DUP1 PUSH1 0x1 PUSH1 0x1 PUSH1 0xA0 SHL SUB AND PUSH2 0x104F PUSH2 0x98C JUMP JUMPDEST PUSH1 0x1 PUSH1 0x1 PUSH1 0xA0 SHL SUB AND PUSH32 0xB37FF92C23ECA455DBBD028D9CB869F69E16485D5EF15286FC394C721A5D5DC1 PUSH1 0x40 MLOAD PUSH1 0x40 MLOAD DUP1 SWAP2 SUB SWAP1 LOG3 PUSH1 0x0 PUSH2 0x10D7 PUSH32 0x5369FB791F26307F8E69B07625302CCAC6930AF09AB22D753B17D2042E9992E7 PUSH1 0x0 SWAP1 DUP2 MSTORE PUSH1 0x20 MSTORE PUSH32 0x7174C149A4F7627AC1DD39B679BD42F12FC4E8D7E850B055662BBEE7188DA10 SLOAD SWAP1 JUMP JUMPDEST SWAP1 POP PUSH2 0x1135 PUSH2 0x10E5 DUP3 PUSH2 0x4421 JUMP JUMPDEST SWAP2 POP DUP2 PUSH32 0x5369FB791F26307F8E69B07625302CCAC6930AF09AB22D753B17D2042E9992E7 PUSH1 0x0 SWAP1 DUP2 MSTORE PUSH1 0x20 MSTORE PUSH32 0x7174C149A4F7627AC1DD39B679BD42F12FC4E8D7E850B055662BBEE7188DA10 SSTORE JUMP JUMPDEST PUSH2 0x985 DUP2 DUP4 PUSH2 0x339B JUMP JUMPDEST PUSH1 0x0 DUP2 DUP2 MSTORE PUSH1 0x1 PUSH1 0x20 MSTORE PUSH1 0x40 SWAP1 KECCAK256 DUP1 SLOAD PUSH1 0x60 SWAP2 SWAP1 PUSH2 0x115C SWAP1 PUSH2 0x45E5 JUMP JUMPDEST DUP1 PUSH1 0x1F ADD PUSH1 0x20 DUP1 SWAP2 DIV MUL PUSH1 0x20 ADD PUSH1 0x40 MLOAD SWAP1 DUP2 ADD PUSH1 0x40 MSTORE DUP1 SWAP3 SWAP2 SWAP1 DUP2 DUP2 MSTORE PUSH1 0x20 ADD DUP3 DUP1 SLOAD PUSH2 0x1188 SWAP1 PUSH2 0x45E5 JUMP JUMPDEST DUP1 ISZERO PUSH2 0x11D5 JUMPI DUP1 PUSH1 0x1F LT PUSH2 0x11AA JUMPI PUSH2 0x100 DUP1 DUP4 SLOAD DIV MUL DUP4 MSTORE SWAP2 PUSH1 0x20 ADD SWAP2 PUSH2 0x11D5 JUMP JUMPDEST DUP3 ADD SWAP2 SWAP1 PUSH1 0x0 MSTORE PUSH1 0x20 PUSH1 0x0 KECCAK256 SWAP1 JUMPDEST DUP2 SLOAD DUP2 MSTORE SWAP1 PUSH1 0x1 ADD SWAP1 PUSH1 0x20 ADD DUP1 DUP4 GT PUSH2 0x11B8 JUMPI DUP3 SWAP1 SUB PUSH1 0x1F AND DUP3 ADD SWAP2 JUMPDEST POP POP POP POP POP SWAP1 POP SWAP2 SWAP1 POP JUMP JUMPDEST PUSH1 0x0 PUSH2 0x123D PUSH32 0x360894A13BA1A3210667C828492DB98DCA3E2076CC3735A920A3CA505D382BBC PUSH1 0x0 MSTORE PUSH1 0x2 PUSH1 0x20 MSTORE PUSH32 0x11141F466C69FD409E1990E063B49CD6D61ED2ECFF27A2E402E259CA6B9A01A3 SLOAD PUSH1 0x1 PUSH1 0x1 PUSH1 0xA0 SHL SUB AND SWAP1 JUMP JUMPDEST PUSH1 0x1 PUSH1 0x1 PUSH1 0xA0 SHL SUB AND EQ ISZERO PUSH2 0x1294 JUMPI PUSH1 0x40 MLOAD PUSH3 0x461BCD PUSH1 0xE5 SHL DUP2 MSTORE PUSH1 0x20 PUSH1 0x4 DUP3 ADD MSTORE PUSH1 0x9 PUSH1 0x24 DUP3 ADD MSTORE PUSH32 0x4E4F545F50524F58590000000000000000000000000000000000000000000000 PUSH1 0x44 DUP3 ADD MSTORE PUSH1 0x64 ADD PUSH2 0x5A7 JUMP JUMPDEST PUSH1 0x0 DUP1 DUP1 DUP1 PUSH2 0x12A5 DUP6 DUP8 ADD DUP8 PUSH2 0x465D JUMP JUMPDEST SWAP4 POP SWAP4 POP SWAP4 POP SWAP4 POP PUSH1 0x0 PUSH1 0x1 PUSH2 0x1302 PUSH32 0xD51DC9B187568BB94760866E1D0D066CA470037D2D331AFB1A02EC74BFB8990C PUSH1 0x0 SWAP1 DUP2 MSTORE PUSH1 0x20 MSTORE PUSH32 0xF8D0C05CD32E3272241FDC9D5839565F8BCF94139CB4BD09E230E1B57A60DDC2 SLOAD SWAP1 JUMP JUMPDEST PUSH2 0x130C SWAP2 SWAP1 PUSH2 0x4409 JUMP JUMPDEST SWAP1 POP PUSH2 0x135F DUP2 PUSH32 0xD51DC9B187568BB94760866E1D0D066CA470037D2D331AFB1A02EC74BFB8990C PUSH1 0x0 SWAP1 DUP2 MSTORE PUSH1 0x20 MSTORE PUSH32 0xF8D0C05CD32E3272241FDC9D5839565F8BCF94139CB4BD09E230E1B57A60DDC2 SSTORE JUMP JUMPDEST PUSH2 0x136A DUP2 DUP7 DUP7 PUSH2 0x33A7 JUMP JUMPDEST PUSH1 0x0 PUSH1 0x1 PUSH2 0x13BF PUSH32 0x67CBDFF49954077D2DD5637524B03BFE3E6506D456859017A888FAD567E1AF03 PUSH1 0x0 SWAP1 DUP2 MSTORE PUSH1 0x20 MSTORE PUSH32 0x6F01C2F096E745C2A207FBF93BABD5E7EE6ACFD26F0F34A0E4AC68373C21D0E SLOAD SWAP1 JUMP JUMPDEST PUSH2 0x13C9 SWAP2 SWAP1 PUSH2 0x4409 JUMP JUMPDEST SWAP1 POP PUSH2 0x141C DUP2 PUSH32 0x67CBDFF49954077D2DD5637524B03BFE3E6506D456859017A888FAD567E1AF03 PUSH1 0x0 SWAP1 DUP2 MSTORE PUSH1 0x20 MSTORE PUSH32 0x6F01C2F096E745C2A207FBF93BABD5E7EE6ACFD26F0F34A0E4AC68373C21D0E SSTORE JUMP JUMPDEST PUSH2 0x1426 DUP2 DUP6 PUSH2 0x305B JUMP JUMPDEST PUSH1 0x0 PUSH1 0x1 PUSH2 0x147B PUSH32 0x5369FB791F26307F8E69B07625302CCAC6930AF09AB22D753B17D2042E9992E7 PUSH1 0x0 SWAP1 DUP2 MSTORE PUSH1 0x20 MSTORE PUSH32 0x7174C149A4F7627AC1DD39B679BD42F12FC4E8D7E850B055662BBEE7188DA10 SLOAD SWAP1 JUMP JUMPDEST PUSH2 0x1485 SWAP2 SWAP1 PUSH2 0x4409 JUMP JUMPDEST SWAP1 POP PUSH2 0x14D8 DUP2 PUSH32 0x5369FB791F26307F8E69B07625302CCAC6930AF09AB22D753B17D2042E9992E7 PUSH1 0x0 SWAP1 DUP2 MSTORE PUSH1 0x20 MSTORE PUSH32 0x7174C149A4F7627AC1DD39B679BD42F12FC4E8D7E850B055662BBEE7188DA10 SSTORE JUMP JUMPDEST PUSH2 0x14E2 DUP2 DUP6 PUSH2 0x339B JUMP JUMPDEST PUSH1 0x40 MLOAD PUSH1 0x1 PUSH1 0x1 PUSH1 0xA0 SHL SUB DUP7 AND SWAP1 PUSH1 0x0 SWAP1 PUSH32 0x8BE0079C531659141344CD1FD0A4F28419497F9722A3DAAFE3B4186F6B6457E0 SWAP1 DUP3 SWAP1 LOG3 PUSH1 0x40 MLOAD PUSH1 0x1 PUSH1 0x1 PUSH1 0xA0 SHL SUB DUP6 AND SWAP1 PUSH1 0x0 SWAP1 PUSH32 0xB37FF92C23ECA455DBBD028D9CB869F69E16485D5EF15286FC394C721A5D5DC1 SWAP1 DUP3 SWAP1 LOG3 POP POP POP POP POP POP POP POP POP JUMP JUMPDEST PUSH1 0x0 PUSH2 0x15AC PUSH32 0xD51DC9B187568BB94760866E1D0D066CA470037D2D331AFB1A02EC74BFB8990C PUSH1 0x0 SWAP1 DUP2 MSTORE PUSH1 0x20 MSTORE PUSH32 0xF8D0C05CD32E3272241FDC9D5839565F8BCF94139CB4BD09E230E1B57A60DDC2 SLOAD SWAP1 JUMP JUMPDEST SWAP1 POP PUSH2 0x15B8 DUP2 CALLER PUSH2 0x29FD JUMP JUMPDEST PUSH2 0x1604 JUMPI PUSH1 0x40 MLOAD PUSH3 0x461BCD PUSH1 0xE5 SHL DUP2 MSTORE PUSH1 0x20 PUSH1 0x4 DUP3 ADD MSTORE PUSH1 0x9 PUSH1 0x24 DUP3 ADD MSTORE PUSH32 0x4E4F545F41444D494E0000000000000000000000000000000000000000000000 PUSH1 0x44 DUP3 ADD MSTORE PUSH1 0x64 ADD PUSH2 0x5A7 JUMP JUMPDEST PUSH1 0x0 DUP1 CALLDATASIZE PUSH1 0x40 MLOAD PUSH2 0x1616 SWAP3 SWAP2 SWAP1 PUSH2 0x43CA JUMP JUMPDEST PUSH1 0x40 MLOAD DUP1 SWAP2 SUB SWAP1 KECCAK256 SWAP1 POP PUSH2 0x162B DUP3 DUP3 CALLER PUSH2 0x2A13 JUMP JUMPDEST ISZERO PUSH2 0x1678 JUMPI PUSH1 0x40 MLOAD PUSH3 0x461BCD PUSH1 0xE5 SHL DUP2 MSTORE PUSH1 0x20 PUSH1 0x4 DUP3 ADD MSTORE PUSH1 0x5 PUSH1 0x24 DUP3 ADD MSTORE PUSH32 0x564F544544000000000000000000000000000000000000000000000000000000 PUSH1 0x44 DUP3 ADD MSTORE PUSH1 0x64 ADD PUSH2 0x5A7 JUMP JUMPDEST PUSH2 0x1685 DUP3 DUP3 CALLER PUSH1 0x1 PUSH2 0x2AA4 JUMP JUMPDEST PUSH1 0x0 PUSH1 0x1 PUSH2 0x1693 DUP5 DUP5 PUSH2 0x2B42 JUMP JUMPDEST PUSH2 0x169D SWAP2 SWAP1 PUSH2 0x4409 JUMP JUMPDEST SWAP1 POP PUSH2 0x16AA DUP4 DUP4 DUP4 PUSH2 0x2B51 JUMP JUMPDEST PUSH2 0x16B3 DUP4 PUSH2 0x2B76 JUMP JUMPDEST DUP2 LT ISZERO PUSH2 0x16C2 JUMPI POP POP POP PUSH2 0x556 JUMP JUMPDEST DUP7 PUSH1 0x1 PUSH1 0x1 PUSH1 0xA0 SHL SUB AND EXTCODEHASH DUP7 EQ PUSH2 0x171B JUMPI PUSH1 0x40 MLOAD PUSH3 0x461BCD PUSH1 0xE5 SHL DUP2 MSTORE PUSH1 0x20 PUSH1 0x4 DUP3 ADD MSTORE PUSH1 0xC PUSH1 0x24 DUP3 ADD MSTORE PUSH32 0x494E565F434F4445484153480000000000000000000000000000000000000000 PUSH1 0x44 DUP3 ADD MSTORE PUSH1 0x64 ADD PUSH2 0x5A7 JUMP JUMPDEST PUSH1 0x40 MLOAD PUSH1 0x1 PUSH1 0x1 PUSH1 0xA0 SHL SUB DUP9 AND SWAP1 PUSH32 0xBC7CD75A20EE27FD9ADEBAB32041F755214DBC6BFFA90CC0225B39DA2E5C2D3B SWAP1 PUSH1 0x0 SWAP1 LOG2 DUP4 ISZERO PUSH2 0x187A JUMPI PUSH1 0x0 DUP8 PUSH1 0x1 PUSH1 0x1 PUSH1 0xA0 SHL SUB AND PUSH4 0x9DED06DF PUSH1 0xE0 SHL DUP8 DUP8 PUSH1 0x40 MLOAD PUSH1 0x24 ADD PUSH2 0x177C SWAP3 SWAP2 SWAP1 PUSH2 0x4721 JUMP JUMPDEST PUSH1 0x40 DUP1 MLOAD PUSH1 0x1F NOT DUP2 DUP5 SUB ADD DUP2 MSTORE SWAP2 DUP2 MSTORE PUSH1 0x20 DUP3 ADD DUP1 MLOAD PUSH28 0xFFFFFFFFFFFFFFFFFFFFFFFFFFFFFFFFFFFFFFFFFFFFFFFFFFFFFFFF AND PUSH32 0xFFFFFFFF00000000000000000000000000000000000000000000000000000000 SWAP1 SWAP5 AND SWAP4 SWAP1 SWAP4 OR SWAP1 SWAP3 MSTORE SWAP1 MLOAD PUSH2 0x17E7 SWAP2 SWAP1 PUSH2 0x434A JUMP JUMPDEST PUSH1 0x0 PUSH1 0x40 MLOAD DUP1 DUP4 SUB DUP2 DUP6 GAS DELEGATECALL SWAP2 POP POP RETURNDATASIZE DUP1 PUSH1 0x0 DUP2 EQ PUSH2 0x1822 JUMPI PUSH1 0x40 MLOAD SWAP2 POP PUSH1 0x1F NOT PUSH1 0x3F RETURNDATASIZE ADD AND DUP3 ADD PUSH1 0x40 MSTORE RETURNDATASIZE DUP3 MSTORE RETURNDATASIZE PUSH1 0x0 PUSH1 0x20 DUP5 ADD RETURNDATACOPY PUSH2 0x1827 JUMP JUMPDEST PUSH1 0x60 SWAP2 POP JUMPDEST POP POP SWAP1 POP DUP1 PUSH2 0x1878 JUMPI PUSH1 0x40 MLOAD PUSH3 0x461BCD PUSH1 0xE5 SHL DUP2 MSTORE PUSH1 0x20 PUSH1 0x4 DUP3 ADD MSTORE PUSH1 0xC PUSH1 0x24 DUP3 ADD MSTORE PUSH32 0x53455455505F4641494C45440000000000000000000000000000000000000000 PUSH1 0x44 DUP3 ADD MSTORE PUSH1 0x64 ADD PUSH2 0x5A7 JUMP JUMPDEST POP JUMPDEST PUSH2 0x18FC DUP8 PUSH32 0x360894A13BA1A3210667C828492DB98DCA3E2076CC3735A920A3CA505D382BBC PUSH1 0x0 MSTORE PUSH1 0x2 PUSH1 0x20 MSTORE PUSH32 0x11141F466C69FD409E1990E063B49CD6D61ED2ECFF27A2E402E259CA6B9A01A3 DUP1 SLOAD PUSH32 0xFFFFFFFFFFFFFFFFFFFFFFFF0000000000000000000000000000000000000000 AND PUSH1 0x1 PUSH1 0x1 PUSH1 0xA0 SHL SUB DUP4 AND OR SWAP1 SSTORE POP JUMP JUMPDEST PUSH2 0x1908 DUP4 DUP4 PUSH1 0x0 PUSH2 0x2B51 JUMP JUMPDEST PUSH1 0x0 PUSH2 0x1913 DUP5 PUSH2 0x2BD6 JUMP JUMPDEST SWAP1 POP PUSH1 0x0 JUMPDEST DUP2 DUP2 LT ISZERO PUSH2 0xA69 JUMPI PUSH2 0x192F DUP6 DUP6 PUSH2 0x900 DUP9 DUP6 PUSH2 0x2BE4 JUMP JUMPDEST DUP1 PUSH2 0x1939 DUP2 PUSH2 0x4421 JUMP JUMPDEST SWAP2 POP POP PUSH2 0x1918 JUMP JUMPDEST PUSH2 0x194C CALLER DUP4 DUP4 PUSH2 0x26CB JUMP JUMPDEST DUP3 MLOAD PUSH1 0x20 DUP5 ADD KECCAK256 PUSH1 0x40 MLOAD PUSH2 0x1961 SWAP1 DUP7 SWAP1 PUSH2 0x434A JUMP JUMPDEST PUSH1 0x40 MLOAD DUP1 SWAP2 SUB SWAP1 KECCAK256 CALLER PUSH1 0x1 PUSH1 0x1 PUSH1 0xA0 SHL SUB AND PUSH32 0x7E50569D26BE643BDA7757722291EC66B1BE66D8283474AE3FAB5A98F878A7A2 DUP9 DUP8 DUP8 DUP8 PUSH1 0x40 MLOAD PUSH2 0x19A8 SWAP5 SWAP4 SWAP3 SWAP2 SWAP1 PUSH2 0x4750 JUMP JUMPDEST PUSH1 0x40 MLOAD DUP1 SWAP2 SUB SWAP1 LOG4 POP POP POP POP POP JUMP JUMPDEST PUSH1 0x0 DUP2 DUP2 MSTORE PUSH1 0x3 PUSH1 0x20 MSTORE PUSH1 0x40 SWAP1 KECCAK256 DUP1 SLOAD PUSH1 0x60 SWAP2 SWAP1 PUSH2 0x115C SWAP1 PUSH2 0x45E5 JUMP JUMPDEST PUSH1 0x0 PUSH2 0xCDF PUSH2 0x37A DUP4 PUSH2 0x3507 JUMP JUMPDEST PUSH1 0x0 PUSH2 0x1A35 PUSH32 0xD51DC9B187568BB94760866E1D0D066CA470037D2D331AFB1A02EC74BFB8990C PUSH1 0x0 SWAP1 DUP2 MSTORE PUSH1 0x20 MSTORE PUSH32 0xF8D0C05CD32E3272241FDC9D5839565F8BCF94139CB4BD09E230E1B57A60DDC2 SLOAD SWAP1 JUMP JUMPDEST SWAP1 POP PUSH2 0x1A41 DUP2 CALLER PUSH2 0x29FD JUMP JUMPDEST PUSH2 0x1A8D JUMPI PUSH1 0x40 MLOAD PUSH3 0x461BCD PUSH1 0xE5 SHL DUP2 MSTORE PUSH1 0x20 PUSH1 0x4 DUP3 ADD MSTORE PUSH1 0x9 PUSH1 0x24 DUP3 ADD MSTORE PUSH32 0x4E4F545F41444D494E0000000000000000000000000000000000000000000000 PUSH1 0x44 DUP3 ADD MSTORE PUSH1 0x64 ADD PUSH2 0x5A7 JUMP JUMPDEST PUSH1 0x0 DUP1 CALLDATASIZE PUSH1 0x40 MLOAD PUSH2 0x1A9F SWAP3 SWAP2 SWAP1 PUSH2 0x43CA JUMP JUMPDEST PUSH1 0x40 MLOAD DUP1 SWAP2 SUB SWAP1 KECCAK256 SWAP1 POP PUSH2 0x1AB4 DUP3 DUP3 CALLER PUSH2 0x2A13 JUMP JUMPDEST ISZERO PUSH2 0x1B01 JUMPI PUSH1 0x40 MLOAD PUSH3 0x461BCD PUSH1 0xE5 SHL DUP2 MSTORE PUSH1 0x20 PUSH1 0x4 DUP3 ADD MSTORE PUSH1 0x5 PUSH1 0x24 DUP3 ADD MSTORE PUSH32 0x564F544544000000000000000000000000000000000000000000000000000000 PUSH1 0x44 DUP3 ADD MSTORE PUSH1 0x64 ADD PUSH2 0x5A7 JUMP JUMPDEST PUSH2 0x1B0E DUP3 DUP3 CALLER PUSH1 0x1 PUSH2 0x2AA4 JUMP JUMPDEST PUSH1 0x0 PUSH1 0x1 PUSH2 0x1B1C DUP5 DUP5 PUSH2 0x2B42 JUMP JUMPDEST PUSH2 0x1B26 SWAP2 SWAP1 PUSH2 0x4409 JUMP JUMPDEST SWAP1 POP PUSH2 0x1B33 DUP4 DUP4 DUP4 PUSH2 0x2B51 JUMP JUMPDEST PUSH2 0x1B3C DUP4 PUSH2 0x2B76 JUMP JUMPDEST DUP2 LT ISZERO PUSH2 0x1B48 JUMPI POP POP POP JUMP JUMPDEST PUSH32 0x75A31D1CE8E5F9892188BEFC328D3B9BD3FA5037457E881ABC21F388471B8D96 PUSH1 0x0 MSTORE PUSH1 0x4 PUSH1 0x20 MSTORE PUSH32 0xA0B596B8942D6EF5CC77CE0AD89A75F0BFCC7F0132CD8DB58E8449DCF04A858A DUP1 SLOAD PUSH1 0xFF NOT AND PUSH1 0x1 OR SWAP1 SSTORE PUSH1 0x40 MLOAD PUSH32 0x9F428B56CA209118783DB391E8A5A62827B6B218ADD33411061060D308AF6EAD SWAP1 PUSH1 0x0 SWAP1 LOG1 PUSH2 0x1BD2 DUP4 DUP4 PUSH1 0x0 PUSH2 0x2B51 JUMP JUMPDEST PUSH1 0x0 PUSH2 0x1BDD DUP5 PUSH2 0x2BD6 JUMP JUMPDEST SWAP1 POP PUSH1 0x0 JUMPDEST DUP2 DUP2 LT ISZERO PUSH2 0x985 JUMPI PUSH2 0x1BF9 DUP6 DUP6 PUSH2 0x900 DUP9 DUP6 PUSH2 0x2BE4 JUMP JUMPDEST DUP1 PUSH2 0x1C03 DUP2 PUSH2 0x4421 JUMP JUMPDEST SWAP2 POP POP PUSH2 0x1BE2 JUMP JUMPDEST PUSH1 0x0 PUSH2 0x1C5E PUSH32 0xD51DC9B187568BB94760866E1D0D066CA470037D2D331AFB1A02EC74BFB8990C PUSH1 0x0 SWAP1 DUP2 MSTORE PUSH1 0x20 MSTORE PUSH32 0xF8D0C05CD32E3272241FDC9D5839565F8BCF94139CB4BD09E230E1B57A60DDC2 SLOAD SWAP1 JUMP JUMPDEST SWAP1 POP PUSH2 0x1C6A DUP2 CALLER PUSH2 0x29FD JUMP JUMPDEST PUSH2 0x1CB6 JUMPI PUSH1 0x40 MLOAD PUSH3 0x461BCD PUSH1 0xE5 SHL DUP2 MSTORE PUSH1 0x20 PUSH1 0x4 DUP3 ADD MSTORE PUSH1 0x9 PUSH1 0x24 DUP3 ADD MSTORE PUSH32 0x4E4F545F41444D494E0000000000000000000000000000000000000000000000 PUSH1 0x44 DUP3 ADD MSTORE PUSH1 0x64 ADD PUSH2 0x5A7 JUMP JUMPDEST PUSH1 0x0 DUP1 CALLDATASIZE PUSH1 0x40 MLOAD PUSH2 0x1CC8 SWAP3 SWAP2 SWAP1 PUSH2 0x43CA JUMP JUMPDEST PUSH1 0x40 MLOAD DUP1 SWAP2 SUB SWAP1 KECCAK256 SWAP1 POP PUSH2 0x1CDD DUP3 DUP3 CALLER PUSH2 0x2A13 JUMP JUMPDEST ISZERO PUSH2 0x1D2A JUMPI PUSH1 0x40 MLOAD PUSH3 0x461BCD PUSH1 0xE5 SHL DUP2 MSTORE PUSH1 0x20 PUSH1 0x4 DUP3 ADD MSTORE PUSH1 0x5 PUSH1 0x24 DUP3 ADD MSTORE PUSH32 0x564F544544000000000000000000000000000000000000000000000000000000 PUSH1 0x44 DUP3 ADD MSTORE PUSH1 0x64 ADD PUSH2 0x5A7 JUMP JUMPDEST PUSH2 0x1D37 DUP3 DUP3 CALLER PUSH1 0x1 PUSH2 0x2AA4 JUMP JUMPDEST PUSH1 0x0 PUSH1 0x1 PUSH2 0x1D45 DUP5 DUP5 PUSH2 0x2B42 JUMP JUMPDEST PUSH2 0x1D4F SWAP2 SWAP1 PUSH2 0x4409 JUMP JUMPDEST SWAP1 POP PUSH2 0x1D5C DUP4 DUP4 DUP4 PUSH2 0x2B51 JUMP JUMPDEST PUSH2 0x1D65 DUP4 PUSH2 0x2B76 JUMP JUMPDEST DUP2 LT ISZERO PUSH2 0x1D71 JUMPI POP POP POP JUMP JUMPDEST PUSH32 0x75A31D1CE8E5F9892188BEFC328D3B9BD3FA5037457E881ABC21F388471B8D96 PUSH1 0x0 MSTORE PUSH1 0x4 PUSH1 0x20 MSTORE PUSH32 0xA0B596B8942D6EF5CC77CE0AD89A75F0BFCC7F0132CD8DB58E8449DCF04A858A DUP1 SLOAD PUSH1 0xFF NOT AND SWAP1 SSTORE PUSH1 0x40 MLOAD PUSH32 0xE821FF109470F6AA1AEBB161AA0E7328B1A8552AA48E09ED2D03184ECECE9A6 SWAP1 PUSH1 0x0 SWAP1 LOG1 PUSH2 0x1DF8 DUP4 DUP4 PUSH1 0x0 PUSH2 0x2B51 JUMP JUMPDEST PUSH1 0x0 PUSH2 0x1E03 DUP5 PUSH2 0x2BD6 JUMP JUMPDEST SWAP1 POP PUSH1 0x0 JUMPDEST DUP2 DUP2 LT ISZERO PUSH2 0x985 JUMPI PUSH2 0x1E1F DUP6 DUP6 PUSH2 0x900 DUP9 DUP6 PUSH2 0x2BE4 JUMP JUMPDEST DUP1 PUSH2 0x1E29 DUP2 PUSH2 0x4421 JUMP JUMPDEST SWAP2 POP POP PUSH2 0x1E08 JUMP JUMPDEST CALLER ADDRESS EQ PUSH2 0x1E80 JUMPI PUSH1 0x40 MLOAD PUSH3 0x461BCD PUSH1 0xE5 SHL DUP2 MSTORE PUSH1 0x20 PUSH1 0x4 DUP3 ADD MSTORE PUSH1 0x8 PUSH1 0x24 DUP3 ADD MSTORE PUSH32 0x4E4F545F53454C46000000000000000000000000000000000000000000000000 PUSH1 0x44 DUP3 ADD MSTORE PUSH1 0x64 ADD PUSH2 0x5A7 JUMP JUMPDEST PUSH1 0x0 DUP1 DUP1 DUP1 PUSH2 0x1E91 DUP7 DUP9 ADD DUP9 PUSH2 0x479B JUMP JUMPDEST SWAP4 POP SWAP4 POP SWAP4 POP SWAP4 POP PUSH2 0x1EA6 DUP6 DUP6 DUP6 DUP6 DUP6 PUSH2 0x3542 JUMP JUMPDEST POP POP POP POP POP POP POP JUMP JUMPDEST PUSH1 0x0 PUSH2 0x1ECA PUSH2 0x1EC4 DUP5 DUP1 MLOAD SWAP1 PUSH1 0x20 ADD KECCAK256 PUSH2 0x358C JUMP JUMPDEST DUP4 PUSH2 0x35C7 JUMP JUMPDEST SWAP1 POP PUSH1 0x0 DUP1 PUSH1 0x0 DUP1 PUSH1 0x0 DUP8 DUP1 PUSH1 0x20 ADD SWAP1 MLOAD DUP2 ADD SWAP1 PUSH2 0x1EE8 SWAP2 SWAP1 PUSH2 0x497E JUMP JUMPDEST SWAP5 POP SWAP5 POP SWAP5 POP SWAP5 POP SWAP5 POP CHAINID DUP6 EQ PUSH2 0x1F41 JUMPI PUSH1 0x40 MLOAD PUSH3 0x461BCD PUSH1 0xE5 SHL DUP2 MSTORE PUSH1 0x20 PUSH1 0x4 DUP3 ADD MSTORE PUSH1 0x9 PUSH1 0x24 DUP3 ADD MSTORE PUSH32 0x494E565F434841494E0000000000000000000000000000000000000000000000 PUSH1 0x44 DUP3 ADD MSTORE PUSH1 0x64 ADD PUSH2 0x5A7 JUMP JUMPDEST DUP3 MLOAD DUP3 MLOAD DUP2 EQ DUP1 ISZERO PUSH2 0x1F53 JUMPI POP DUP2 MLOAD DUP2 EQ JUMPDEST PUSH2 0x1F9F JUMPI PUSH1 0x40 MLOAD PUSH3 0x461BCD PUSH1 0xE5 SHL DUP2 MSTORE PUSH1 0x20 PUSH1 0x4 DUP3 ADD MSTORE PUSH1 0x8 PUSH1 0x24 DUP3 ADD MSTORE PUSH32 0x494E565F434D4453000000000000000000000000000000000000000000000000 PUSH1 0x44 DUP3 ADD MSTORE PUSH1 0x64 ADD PUSH2 0x5A7 JUMP JUMPDEST PUSH1 0x0 DUP1 DUP1 PUSH1 0x1 DUP9 PUSH1 0x2 DUP2 GT ISZERO PUSH2 0x1FB7 JUMPI PUSH2 0x1FB7 PUSH2 0x4A80 JUMP JUMPDEST EQ ISZERO PUSH2 0x1FF2 JUMPI PUSH2 0x1FC5 PUSH2 0xF1F JUMP JUMPDEST PUSH1 0x1 PUSH1 0x1 PUSH1 0xA0 SHL SUB AND DUP11 PUSH1 0x1 PUSH1 0x1 PUSH1 0xA0 SHL SUB AND EQ SWAP3 POP DUP3 DUP1 PUSH2 0x1FEB JUMPI POP PUSH2 0x1FEB DUP11 PUSH2 0x37BE JUMP JUMPDEST SWAP2 POP PUSH2 0x2018 JUMP JUMPDEST PUSH1 0x2 DUP9 PUSH1 0x2 DUP2 GT ISZERO PUSH2 0x2006 JUMPI PUSH2 0x2006 PUSH2 0x4A80 JUMP JUMPDEST EQ ISZERO PUSH2 0x2018 JUMPI PUSH2 0x2015 DUP11 PUSH2 0x389C JUMP JUMPDEST SWAP1 POP JUMPDEST PUSH1 0x0 JUMPDEST DUP5 DUP2 LT ISZERO PUSH2 0x24A5 JUMPI PUSH1 0x0 DUP9 DUP3 DUP2 MLOAD DUP2 LT PUSH2 0x2037 JUMPI PUSH2 0x2037 PUSH2 0x4AAF JUMP JUMPDEST PUSH1 0x20 MUL PUSH1 0x20 ADD ADD MLOAD SWAP1 POP PUSH2 0x204A DUP2 PUSH2 0x19D4 JUMP JUMPDEST ISZERO PUSH2 0x2055 JUMPI POP PUSH2 0x2493 JUMP JUMPDEST PUSH1 0x0 DUP1 DUP10 DUP5 DUP2 MLOAD DUP2 LT PUSH2 0x206A JUMPI PUSH2 0x206A PUSH2 0x4AAF JUMP JUMPDEST PUSH1 0x20 MUL PUSH1 0x20 ADD ADD MLOAD PUSH1 0x40 MLOAD PUSH1 0x20 ADD PUSH2 0x2082 SWAP2 SWAP1 PUSH2 0x434A JUMP JUMPDEST PUSH1 0x40 MLOAD PUSH1 0x20 DUP2 DUP4 SUB SUB DUP2 MSTORE SWAP1 PUSH1 0x40 MSTORE DUP1 MLOAD SWAP1 PUSH1 0x20 ADD KECCAK256 SWAP1 POP PUSH32 0x5763814B98A3AA86F212797AF3273868B5DD6E2A532D764A79B98CA859E7BBAD DUP2 EQ ISZERO PUSH2 0x20F7 JUMPI DUP6 PUSH2 0x20CF JUMPI POP POP POP PUSH2 0x2493 JUMP JUMPDEST PUSH32 0x886A625D00000000000000000000000000000000000000000000000000000000 SWAP2 POP PUSH2 0x235D JUMP JUMPDEST PUSH32 0xEC78D9C22C08BB9F0ECD5D95571AE83E3F22219C5A9278C3270691D50ABFD91B DUP2 EQ ISZERO PUSH2 0x2160 JUMPI DUP5 ISZERO DUP1 ISZERO PUSH2 0x212B JUMPI POP DUP6 ISZERO JUMPDEST ISZERO PUSH2 0x2138 JUMPI POP POP POP PUSH2 0x2493 JUMP JUMPDEST PUSH32 0x146E2D7800000000000000000000000000000000000000000000000000000000 SWAP2 POP PUSH2 0x235D JUMP JUMPDEST PUSH32 0x37AC16AABC4D87540E53151B2B716265CFD6B195DB96A9DAF8E893C829BBD233 DUP2 EQ ISZERO PUSH2 0x21C9 JUMPI DUP5 ISZERO DUP1 ISZERO PUSH2 0x2194 JUMPI POP DUP6 ISZERO JUMPDEST ISZERO PUSH2 0x21A1 JUMPI POP POP POP PUSH2 0x2493 JUMP JUMPDEST PUSH32 0xFBE0A31B00000000000000000000000000000000000000000000000000000000 SWAP2 POP PUSH2 0x235D JUMP JUMPDEST PUSH32 0xF41504255B911B3042EE4F8786FDF7CF4BCF24ACE033FA16AF3C8574E025E436 DUP2 EQ ISZERO PUSH2 0x2232 JUMPI DUP5 ISZERO DUP1 ISZERO PUSH2 0x21FD JUMPI POP DUP6 ISZERO JUMPDEST ISZERO PUSH2 0x220A JUMPI POP POP POP PUSH2 0x2493 JUMP JUMPDEST PUSH32 0x585A9FD400000000000000000000000000000000000000000000000000000000 SWAP2 POP PUSH2 0x235D JUMP JUMPDEST PUSH32 0xDA199C0E76F665E0450020791C7F8EACC75F3CDBACE313272C28F93E5390B62C DUP2 EQ ISZERO PUSH2 0x229B JUMPI DUP5 ISZERO DUP1 ISZERO PUSH2 0x2266 JUMPI POP DUP6 ISZERO JUMPDEST ISZERO PUSH2 0x2273 JUMPI POP POP POP PUSH2 0x2493 JUMP JUMPDEST PUSH32 0x4656AE2E00000000000000000000000000000000000000000000000000000000 SWAP2 POP PUSH2 0x235D JUMP JUMPDEST PUSH32 0x1D4A390F291E2E1F29874769EFDEF47DDAD94D76F77FF516FAD206A385E8995F DUP2 EQ ISZERO PUSH2 0x22F8 JUMPI DUP7 PUSH2 0x22D0 JUMPI POP POP POP PUSH2 0x2493 JUMP JUMPDEST PUSH32 0x7E8C811800000000000000000000000000000000000000000000000000000000 SWAP2 POP PUSH2 0x235D JUMP JUMPDEST PUSH32 0xB460DCB6FD5797FC0E7EA0F13406C80D30702BA7F73A42BD91394775DCBCA718 DUP2 EQ ISZERO PUSH2 0x2355 JUMPI DUP7 PUSH2 0x232D JUMPI POP POP POP PUSH2 0x2493 JUMP JUMPDEST PUSH32 0x97B87BA600000000000000000000000000000000000000000000000000000000 SWAP2 POP PUSH2 0x235D JUMP JUMPDEST POP POP POP PUSH2 0x2493 JUMP JUMPDEST PUSH2 0x2368 DUP4 PUSH1 0x1 PUSH2 0x3964 JUMP JUMPDEST PUSH1 0x0 ADDRESS PUSH1 0x1 PUSH1 0x1 PUSH1 0xA0 SHL SUB AND DUP4 DUP12 DUP8 DUP2 MLOAD DUP2 LT PUSH2 0x2387 JUMPI PUSH2 0x2387 PUSH2 0x4AAF JUMP JUMPDEST PUSH1 0x20 MUL PUSH1 0x20 ADD ADD MLOAD DUP7 PUSH1 0x40 MLOAD PUSH1 0x24 ADD PUSH2 0x23A1 SWAP3 SWAP2 SWAP1 PUSH2 0x4ADE JUMP JUMPDEST PUSH1 0x40 DUP1 MLOAD PUSH1 0x1F NOT DUP2 DUP5 SUB ADD DUP2 MSTORE SWAP2 DUP2 MSTORE PUSH1 0x20 DUP3 ADD DUP1 MLOAD PUSH28 0xFFFFFFFFFFFFFFFFFFFFFFFFFFFFFFFFFFFFFFFFFFFFFFFFFFFFFFFF AND PUSH32 0xFFFFFFFF00000000000000000000000000000000000000000000000000000000 SWAP1 SWAP5 AND SWAP4 SWAP1 SWAP4 OR SWAP1 SWAP3 MSTORE SWAP1 MLOAD PUSH2 0x240C SWAP2 SWAP1 PUSH2 0x434A JUMP JUMPDEST PUSH1 0x0 PUSH1 0x40 MLOAD DUP1 DUP4 SUB DUP2 PUSH1 0x0 DUP7 GAS CALL SWAP2 POP POP RETURNDATASIZE DUP1 PUSH1 0x0 DUP2 EQ PUSH2 0x2449 JUMPI PUSH1 0x40 MLOAD SWAP2 POP PUSH1 0x1F NOT PUSH1 0x3F RETURNDATASIZE ADD AND DUP3 ADD PUSH1 0x40 MSTORE RETURNDATASIZE DUP3 MSTORE RETURNDATASIZE PUSH1 0x0 PUSH1 0x20 DUP5 ADD RETURNDATACOPY PUSH2 0x244E JUMP JUMPDEST PUSH1 0x60 SWAP2 POP JUMPDEST POP POP SWAP1 POP PUSH2 0x245C DUP5 DUP3 PUSH2 0x3964 JUMP JUMPDEST DUP1 ISZERO PUSH2 0x248E JUMPI PUSH1 0x40 MLOAD DUP5 SWAP1 PUSH32 0xA74C8847D513FEBA22A0F0CB38D53081ABF97562CDB293926BA243689E7C41CA SWAP1 PUSH1 0x0 SWAP1 LOG2 JUMPDEST POP POP POP POP JUMPDEST DUP1 PUSH2 0x249D DUP2 PUSH2 0x4421 JUMP JUMPDEST SWAP2 POP POP PUSH2 0x201B JUMP JUMPDEST POP POP POP POP POP POP POP POP POP POP POP POP POP JUMP JUMPDEST PUSH1 0x0 PUSH2 0x24BF DUP5 PUSH2 0xF7A JUMP JUMPDEST SWAP1 POP PUSH1 0x1 PUSH1 0x1 PUSH1 0xA0 SHL SUB DUP2 AND PUSH2 0x2517 JUMPI PUSH1 0x40 MLOAD PUSH3 0x461BCD PUSH1 0xE5 SHL DUP2 MSTORE PUSH1 0x20 PUSH1 0x4 DUP3 ADD MSTORE PUSH1 0xF PUSH1 0x24 DUP3 ADD MSTORE PUSH32 0x544F4B454E5F4E4F545F45584953540000000000000000000000000000000000 PUSH1 0x44 DUP3 ADD MSTORE PUSH1 0x64 ADD PUSH2 0x5A7 JUMP JUMPDEST PUSH1 0x2 PUSH2 0x2522 DUP6 PUSH2 0x3970 JUMP JUMPDEST PUSH1 0x2 DUP2 GT ISZERO PUSH2 0x2533 JUMPI PUSH2 0x2533 PUSH2 0x4A80 JUMP JUMPDEST EQ ISZERO PUSH2 0x25F0 JUMPI PUSH1 0x40 DUP1 MLOAD PUSH1 0x1 PUSH1 0x1 PUSH1 0xA0 SHL SUB DUP6 AND PUSH1 0x24 DUP3 ADD MSTORE PUSH1 0x44 DUP1 DUP3 ADD DUP6 SWAP1 MSTORE DUP3 MLOAD DUP1 DUP4 SUB SWAP1 SWAP2 ADD DUP2 MSTORE PUSH1 0x64 SWAP1 SWAP2 ADD DUP3 MSTORE PUSH1 0x20 DUP1 DUP3 ADD DUP1 MLOAD PUSH28 0xFFFFFFFFFFFFFFFFFFFFFFFFFFFFFFFFFFFFFFFFFFFFFFFFFFFFFFFF AND PUSH32 0xA9059CBB00000000000000000000000000000000000000000000000000000000 OR SWAP1 MSTORE DUP3 MLOAD DUP1 DUP5 ADD SWAP1 SWAP4 MSTORE PUSH1 0x9 DUP4 MSTORE PUSH32 0x4D494E545F4641494C0000000000000000000000000000000000000000000000 SWAP1 DUP4 ADD MSTORE PUSH2 0x25EB SWAP2 DUP4 SWAP2 SWAP1 PUSH2 0x398F JUMP JUMPDEST PUSH2 0x556 JUMP JUMPDEST PUSH1 0x40 MLOAD PUSH32 0x40C10F1900000000000000000000000000000000000000000000000000000000 DUP2 MSTORE PUSH1 0x1 PUSH1 0x1 PUSH1 0xA0 SHL SUB DUP5 DUP2 AND PUSH1 0x4 DUP4 ADD MSTORE PUSH1 0x24 DUP3 ADD DUP5 SWAP1 MSTORE DUP3 AND SWAP1 PUSH4 0x40C10F19 SWAP1 PUSH1 0x44 ADD PUSH1 0x0 PUSH1 0x40 MLOAD DUP1 DUP4 SUB DUP2 PUSH1 0x0 DUP8 DUP1 EXTCODESIZE ISZERO DUP1 ISZERO PUSH2 0x2653 JUMPI PUSH1 0x0 DUP1 REVERT JUMPDEST POP GAS CALL ISZERO DUP1 ISZERO PUSH2 0xF15 JUMPI RETURNDATASIZE PUSH1 0x0 DUP1 RETURNDATACOPY RETURNDATASIZE PUSH1 0x0 REVERT JUMPDEST PUSH1 0x0 PUSH32 0xB7AD972B71475860613DB3BA1FE699B886C878F9002A09250DC25E769EB19A10 DUP9 DUP9 DUP9 DUP9 DUP9 DUP9 DUP9 PUSH1 0x40 MLOAD PUSH1 0x20 ADD PUSH2 0x26A8 SWAP9 SWAP8 SWAP7 SWAP6 SWAP5 SWAP4 SWAP3 SWAP2 SWAP1 PUSH2 0x4B00 JUMP JUMPDEST PUSH1 0x40 MLOAD PUSH1 0x20 DUP2 DUP4 SUB SUB DUP2 MSTORE SWAP1 PUSH1 0x40 MSTORE DUP1 MLOAD SWAP1 PUSH1 0x20 ADD KECCAK256 SWAP1 POP SWAP8 SWAP7 POP POP POP POP POP POP POP JUMP JUMPDEST PUSH1 0x0 PUSH2 0x26D6 DUP4 PUSH2 0xF7A JUMP JUMPDEST SWAP1 POP PUSH1 0x1 PUSH1 0x1 PUSH1 0xA0 SHL SUB DUP2 AND PUSH2 0x272E JUMPI PUSH1 0x40 MLOAD PUSH3 0x461BCD PUSH1 0xE5 SHL DUP2 MSTORE PUSH1 0x20 PUSH1 0x4 DUP3 ADD MSTORE PUSH1 0xF PUSH1 0x24 DUP3 ADD MSTORE PUSH32 0x544F4B454E5F4E4F545F45584953540000000000000000000000000000000000 PUSH1 0x44 DUP3 ADD MSTORE PUSH1 0x64 ADD PUSH2 0x5A7 JUMP JUMPDEST PUSH1 0x0 PUSH2 0x2739 DUP5 PUSH2 0x3970 JUMP JUMPDEST PUSH1 0x40 DUP1 MLOAD DUP1 DUP3 ADD SWAP1 SWAP2 MSTORE PUSH1 0x9 DUP2 MSTORE PUSH32 0x4255524E5F4641494C0000000000000000000000000000000000000000000000 PUSH1 0x20 DUP3 ADD MSTORE SWAP1 SWAP2 POP PUSH1 0x2 DUP3 PUSH1 0x2 DUP2 GT ISZERO PUSH2 0x2784 JUMPI PUSH2 0x2784 PUSH2 0x4A80 JUMP JUMPDEST EQ ISZERO PUSH2 0x283A JUMPI PUSH1 0x40 MLOAD PUSH1 0x1 PUSH1 0x1 PUSH1 0xA0 SHL SUB DUP8 AND PUSH1 0x24 DUP3 ADD MSTORE ADDRESS PUSH1 0x44 DUP3 ADD MSTORE PUSH1 0x64 DUP2 ADD DUP6 SWAP1 MSTORE PUSH2 0x5D1 SWAP1 DUP5 SWAP1 PUSH32 0x23B872DD00000000000000000000000000000000000000000000000000000000 SWAP1 PUSH1 0x84 ADD JUMPDEST PUSH1 0x40 DUP1 MLOAD PUSH1 0x1F NOT DUP2 DUP5 SUB ADD DUP2 MSTORE SWAP2 SWAP1 MSTORE PUSH1 0x20 DUP2 ADD DUP1 MLOAD PUSH28 0xFFFFFFFFFFFFFFFFFFFFFFFFFFFFFFFFFFFFFFFFFFFFFFFFFFFFFFFF AND PUSH32 0xFFFFFFFF00000000000000000000000000000000000000000000000000000000 SWAP1 SWAP4 AND SWAP3 SWAP1 SWAP3 OR SWAP1 SWAP2 MSTORE DUP4 PUSH2 0x398F JUMP JUMPDEST PUSH1 0x1 DUP3 PUSH1 0x2 DUP2 GT ISZERO PUSH2 0x284E JUMPI PUSH2 0x284E PUSH2 0x4A80 JUMP JUMPDEST EQ ISZERO PUSH2 0x289D JUMPI PUSH1 0x40 MLOAD PUSH1 0x1 PUSH1 0x1 PUSH1 0xA0 SHL SUB DUP8 AND PUSH1 0x24 DUP3 ADD MSTORE PUSH1 0x44 DUP2 ADD DUP6 SWAP1 MSTORE PUSH2 0x5D1 SWAP1 DUP5 SWAP1 PUSH32 0x79CC679000000000000000000000000000000000000000000000000000000000 SWAP1 PUSH1 0x64 ADD PUSH2 0x27D5 JUMP JUMPDEST PUSH1 0x40 MLOAD PUSH32 0x31EECAF400000000000000000000000000000000000000000000000000000000 DUP2 MSTORE PUSH1 0x0 PUSH1 0x4 DUP3 ADD MSTORE PUSH2 0x2981 SWAP1 DUP5 SWAP1 PUSH32 0x23B872DD00000000000000000000000000000000000000000000000000000000 SWAP1 DUP10 SWAP1 PUSH1 0x1 PUSH1 0x1 PUSH1 0xA0 SHL SUB DUP5 AND SWAP1 PUSH4 0x31EECAF4 SWAP1 PUSH1 0x24 ADD PUSH1 0x20 PUSH1 0x40 MLOAD DUP1 DUP4 SUB DUP2 DUP7 DUP1 EXTCODESIZE ISZERO DUP1 ISZERO PUSH2 0x2920 JUMPI PUSH1 0x0 DUP1 REVERT JUMPDEST POP GAS STATICCALL ISZERO DUP1 ISZERO PUSH2 0x2934 JUMPI RETURNDATASIZE PUSH1 0x0 DUP1 RETURNDATACOPY RETURNDATASIZE PUSH1 0x0 REVERT JUMPDEST POP POP POP POP PUSH1 0x40 MLOAD RETURNDATASIZE PUSH1 0x1F NOT PUSH1 0x1F DUP3 ADD AND DUP3 ADD DUP1 PUSH1 0x40 MSTORE POP DUP2 ADD SWAP1 PUSH2 0x2958 SWAP2 SWAP1 PUSH2 0x4B98 JUMP JUMPDEST PUSH1 0x40 MLOAD PUSH1 0x1 PUSH1 0x1 PUSH1 0xA0 SHL SUB SWAP3 DUP4 AND PUSH1 0x24 DUP3 ADD MSTORE SWAP2 AND PUSH1 0x44 DUP3 ADD MSTORE PUSH1 0x64 DUP2 ADD DUP9 SWAP1 MSTORE PUSH1 0x84 ADD PUSH2 0x27D5 JUMP JUMPDEST PUSH1 0x40 MLOAD PUSH32 0x8A1EEE100000000000000000000000000000000000000000000000000000000 DUP2 MSTORE PUSH1 0x0 PUSH1 0x4 DUP3 ADD MSTORE PUSH1 0x1 PUSH1 0x1 PUSH1 0xA0 SHL SUB DUP5 AND SWAP1 PUSH4 0x8A1EEE1 SWAP1 PUSH1 0x24 ADD JUMPDEST PUSH1 0x0 PUSH1 0x40 MLOAD DUP1 DUP4 SUB DUP2 PUSH1 0x0 DUP8 DUP1 EXTCODESIZE ISZERO DUP1 ISZERO PUSH2 0x29DD JUMPI PUSH1 0x0 DUP1 REVERT JUMPDEST POP GAS CALL ISZERO DUP1 ISZERO PUSH2 0x29F1 JUMPI RETURNDATASIZE PUSH1 0x0 DUP1 RETURNDATACOPY RETURNDATASIZE PUSH1 0x0 REVERT JUMPDEST POP POP POP POP POP POP POP POP POP POP JUMP JUMPDEST PUSH1 0x0 PUSH2 0x2A0C PUSH2 0x37A DUP5 DUP5 PUSH2 0x3A35 JUMP JUMPDEST SWAP4 SWAP3 POP POP POP JUMP JUMPDEST PUSH1 0x40 DUP1 MLOAD PUSH32 0x3CED7A8CAF1111E0FBF4B784C5B41AEBD0F2389D9F2F64D5C3424AEED3ADBD3C PUSH1 0x20 DUP1 DUP4 ADD SWAP2 SWAP1 SWAP2 MSTORE DUP2 DUP4 ADD DUP7 SWAP1 MSTORE PUSH1 0x60 DUP1 DUP4 ADD DUP7 SWAP1 MSTORE DUP5 SWAP1 SHL PUSH32 0xFFFFFFFFFFFFFFFFFFFFFFFFFFFFFFFFFFFFFFFF000000000000000000000000 AND PUSH1 0x80 DUP4 ADD MSTORE DUP3 MLOAD DUP1 DUP4 SUB PUSH1 0x74 ADD DUP2 MSTORE PUSH1 0x94 SWAP1 SWAP3 ADD SWAP1 SWAP3 MSTORE DUP1 MLOAD SWAP2 ADD KECCAK256 PUSH1 0x0 SWAP1 PUSH2 0x2A9C SWAP1 PUSH2 0x37A JUMP JUMPDEST SWAP5 SWAP4 POP POP POP POP JUMP JUMPDEST PUSH1 0x40 DUP1 MLOAD PUSH32 0x3CED7A8CAF1111E0FBF4B784C5B41AEBD0F2389D9F2F64D5C3424AEED3ADBD3C PUSH1 0x20 DUP1 DUP4 ADD SWAP2 SWAP1 SWAP2 MSTORE DUP2 DUP4 ADD DUP8 SWAP1 MSTORE PUSH1 0x60 DUP1 DUP4 ADD DUP8 SWAP1 MSTORE DUP6 SWAP1 SHL PUSH32 0xFFFFFFFFFFFFFFFFFFFFFFFFFFFFFFFFFFFFFFFF000000000000000000000000 AND PUSH1 0x80 DUP4 ADD MSTORE DUP3 MLOAD DUP1 DUP4 SUB PUSH1 0x74 ADD DUP2 MSTORE PUSH1 0x94 SWAP1 SWAP3 ADD SWAP1 SWAP3 MSTORE DUP1 MLOAD SWAP2 ADD KECCAK256 PUSH2 0x556 SWAP1 JUMPDEST PUSH1 0x0 SWAP1 DUP2 MSTORE PUSH1 0x4 PUSH1 0x20 MSTORE PUSH1 0x40 SWAP1 KECCAK256 DUP1 SLOAD PUSH1 0xFF NOT AND DUP4 ISZERO ISZERO OR SWAP1 SSTORE JUMP JUMPDEST PUSH1 0x0 PUSH2 0x2A0C PUSH2 0x4B0 DUP5 DUP5 PUSH2 0x3AB5 JUMP JUMPDEST PUSH2 0x2B71 PUSH2 0x2B5E DUP5 DUP5 PUSH2 0x3AB5 JUMP JUMPDEST DUP3 PUSH1 0x0 SWAP2 DUP3 MSTORE PUSH1 0x20 DUP3 SWAP1 MSTORE PUSH1 0x40 SWAP1 SWAP2 KECCAK256 SSTORE JUMP JUMPDEST POP POP POP JUMP JUMPDEST PUSH1 0x0 PUSH2 0xCDF PUSH2 0x4B0 DUP4 PUSH2 0x3AF7 JUMP JUMPDEST PUSH1 0x0 PUSH32 0x1A7261D3A36C4CE4235D10859911C9444A6963A3591EC5725B96871D9810626B DUP3 PUSH1 0x40 MLOAD PUSH1 0x20 ADD PUSH2 0x2BB9 SWAP3 SWAP2 SWAP1 PUSH2 0x4BB5 JUMP JUMPDEST PUSH1 0x40 MLOAD PUSH1 0x20 DUP2 DUP4 SUB SUB DUP2 MSTORE SWAP1 PUSH1 0x40 MSTORE DUP1 MLOAD SWAP1 PUSH1 0x20 ADD KECCAK256 SWAP1 POP SWAP2 SWAP1 POP JUMP JUMPDEST PUSH1 0x0 PUSH2 0xCDF PUSH2 0x4B0 DUP4 PUSH2 0x3B32 JUMP JUMPDEST PUSH1 0x0 PUSH2 0x2A0C PUSH2 0x266 DUP5 DUP5 PUSH2 0x3B6D JUMP JUMPDEST PUSH1 0x0 PUSH2 0x2BFE DUP4 PUSH2 0xF7A JUMP JUMPDEST SWAP1 POP PUSH1 0x1 PUSH1 0x1 PUSH1 0xA0 SHL SUB DUP2 AND PUSH2 0x2C56 JUMPI PUSH1 0x40 MLOAD PUSH3 0x461BCD PUSH1 0xE5 SHL DUP2 MSTORE PUSH1 0x20 PUSH1 0x4 DUP3 ADD MSTORE PUSH1 0xF PUSH1 0x24 DUP3 ADD MSTORE PUSH32 0x544F4B454E5F4E4F545F45584953540000000000000000000000000000000000 PUSH1 0x44 DUP3 ADD MSTORE PUSH1 0x64 ADD PUSH2 0x5A7 JUMP JUMPDEST PUSH1 0x2 PUSH2 0x2C61 DUP5 PUSH2 0x3970 JUMP JUMPDEST PUSH1 0x2 DUP2 GT ISZERO PUSH2 0x2C72 JUMPI PUSH2 0x2C72 PUSH2 0x4A80 JUMP JUMPDEST EQ ISZERO PUSH2 0x2F0E JUMPI PUSH1 0x0 DUP3 PUSH1 0x40 MLOAD PUSH2 0x2C87 SWAP1 PUSH2 0x3CEA JUMP JUMPDEST DUP2 SWAP1 PUSH1 0x40 MLOAD DUP1 SWAP2 SUB SWAP1 PUSH1 0x0 CREATE2 SWAP1 POP DUP1 ISZERO DUP1 ISZERO PUSH2 0x2CA7 JUMPI RETURNDATASIZE PUSH1 0x0 DUP1 RETURNDATACOPY RETURNDATASIZE PUSH1 0x0 REVERT JUMPDEST POP PUSH1 0x40 MLOAD PUSH32 0x70A0823100000000000000000000000000000000000000000000000000000000 DUP2 MSTORE PUSH1 0x1 PUSH1 0x1 PUSH1 0xA0 SHL SUB DUP1 DUP4 AND PUSH1 0x4 DUP4 ADD DUP2 SWAP1 MSTORE SWAP3 SWAP4 POP PUSH1 0x0 SWAP3 DUP4 SWAP3 SWAP1 SWAP2 PUSH4 0x1CFF79CD SWAP2 DUP8 SWAP2 PUSH32 0xA9059CBB00000000000000000000000000000000000000000000000000000000 SWAP2 ADDRESS SWAP2 DUP5 AND SWAP1 PUSH4 0x70A08231 SWAP1 PUSH1 0x24 ADD PUSH1 0x20 PUSH1 0x40 MLOAD DUP1 DUP4 SUB DUP2 DUP7 DUP1 EXTCODESIZE ISZERO DUP1 ISZERO PUSH2 0x2D3A JUMPI PUSH1 0x0 DUP1 REVERT JUMPDEST POP GAS STATICCALL ISZERO DUP1 ISZERO PUSH2 0x2D4E JUMPI RETURNDATASIZE PUSH1 0x0 DUP1 RETURNDATACOPY RETURNDATASIZE PUSH1 0x0 REVERT JUMPDEST POP POP POP POP PUSH1 0x40 MLOAD RETURNDATASIZE PUSH1 0x1F NOT PUSH1 0x1F DUP3 ADD AND DUP3 ADD DUP1 PUSH1 0x40 MSTORE POP DUP2 ADD SWAP1 PUSH2 0x2D72 SWAP2 SWAP1 PUSH2 0x4BDB JUMP JUMPDEST PUSH1 0x40 MLOAD PUSH1 0x1 PUSH1 0x1 PUSH1 0xA0 SHL SUB SWAP1 SWAP3 AND PUSH1 0x24 DUP4 ADD MSTORE PUSH1 0x44 DUP3 ADD MSTORE PUSH1 0x64 ADD PUSH1 0x40 DUP1 MLOAD PUSH1 0x1F NOT DUP2 DUP5 SUB ADD DUP2 MSTORE SWAP2 DUP2 MSTORE PUSH1 0x20 DUP3 ADD DUP1 MLOAD PUSH28 0xFFFFFFFFFFFFFFFFFFFFFFFFFFFFFFFFFFFFFFFFFFFFFFFFFFFFFFFF AND PUSH32 0xFFFFFFFF00000000000000000000000000000000000000000000000000000000 SWAP5 DUP6 AND OR SWAP1 MSTORE MLOAD PUSH1 0xE0 DUP6 SWAP1 SHL SWAP1 SWAP3 AND DUP3 MSTORE PUSH2 0x2E00 SWAP3 SWAP2 PUSH1 0x4 ADD PUSH2 0x4BF4 JUMP JUMPDEST PUSH1 0x0 PUSH1 0x40 MLOAD DUP1 DUP4 SUB DUP2 PUSH1 0x0 DUP8 DUP1 EXTCODESIZE ISZERO DUP1 ISZERO PUSH2 0x2E1A JUMPI PUSH1 0x0 DUP1 REVERT JUMPDEST POP GAS CALL ISZERO DUP1 ISZERO PUSH2 0x2E2E JUMPI RETURNDATASIZE PUSH1 0x0 DUP1 RETURNDATACOPY RETURNDATASIZE PUSH1 0x0 REVERT JUMPDEST POP POP POP POP PUSH1 0x40 MLOAD RETURNDATASIZE PUSH1 0x0 DUP3 RETURNDATACOPY PUSH1 0x1F RETURNDATASIZE SWAP1 DUP2 ADD PUSH1 0x1F NOT AND DUP3 ADD PUSH1 0x40 MSTORE PUSH2 0x2E56 SWAP2 SWAP1 DUP2 ADD SWAP1 PUSH2 0x4C26 JUMP JUMPDEST SWAP2 POP SWAP2 POP DUP2 DUP1 ISZERO PUSH2 0x2E7F JUMPI POP DUP1 MLOAD ISZERO DUP1 PUSH2 0x2E7F JUMPI POP DUP1 DUP1 PUSH1 0x20 ADD SWAP1 MLOAD DUP2 ADD SWAP1 PUSH2 0x2E7F SWAP2 SWAP1 PUSH2 0x4C6A JUMP JUMPDEST PUSH2 0x2ECB JUMPI PUSH1 0x40 MLOAD PUSH3 0x461BCD PUSH1 0xE5 SHL DUP2 MSTORE PUSH1 0x20 PUSH1 0x4 DUP3 ADD MSTORE PUSH1 0x9 PUSH1 0x24 DUP3 ADD MSTORE PUSH32 0x4255524E5F4641494C0000000000000000000000000000000000000000000000 PUSH1 0x44 DUP3 ADD MSTORE PUSH1 0x64 ADD PUSH2 0x5A7 JUMP JUMPDEST PUSH1 0x40 MLOAD PUSH31 0xF55D9D00000000000000000000000000000000000000000000000000000000 DUP2 MSTORE ADDRESS PUSH1 0x4 DUP3 ADD MSTORE PUSH1 0x1 PUSH1 0x1 PUSH1 0xA0 SHL SUB DUP5 AND SWAP1 PUSH3 0xF55D9D SWAP1 PUSH1 0x24 ADD PUSH2 0x29C3 JUMP JUMPDEST PUSH1 0x40 MLOAD PUSH32 0x8A1EEE100000000000000000000000000000000000000000000000000000000 DUP2 MSTORE PUSH1 0x4 DUP2 ADD DUP4 SWAP1 MSTORE PUSH1 0x1 PUSH1 0x1 PUSH1 0xA0 SHL SUB DUP3 AND SWAP1 PUSH4 0x8A1EEE1 SWAP1 PUSH1 0x24 ADD PUSH1 0x0 PUSH1 0x40 MLOAD DUP1 DUP4 SUB DUP2 PUSH1 0x0 DUP8 DUP1 EXTCODESIZE ISZERO DUP1 ISZERO PUSH2 0x2F69 JUMPI PUSH1 0x0 DUP1 REVERT JUMPDEST POP GAS CALL ISZERO DUP1 ISZERO PUSH2 0x1EA6 JUMPI RETURNDATASIZE PUSH1 0x0 DUP1 RETURNDATACOPY RETURNDATASIZE PUSH1 0x0 REVERT JUMPDEST PUSH1 0x0 PUSH2 0xCDF PUSH2 0x266 DUP4 PUSH2 0x3BAF JUMP JUMPDEST PUSH2 0x2F9A DUP8 DUP8 DUP8 DUP8 DUP8 DUP8 DUP8 PUSH2 0x3BEA JUMP JUMPDEST DUP3 DUP5 PUSH1 0x1 PUSH1 0x1 PUSH1 0xA0 SHL SUB AND DUP9 PUSH32 0x6ED33765B13AC61CBDF2151A3B6D40F7884AF98645BFAD1ED3897C08E18C4806 DUP10 DUP10 DUP8 DUP8 PUSH1 0x40 MLOAD PUSH2 0x2FDB SWAP5 SWAP4 SWAP3 SWAP2 SWAP1 PUSH2 0x4750 JUMP JUMPDEST PUSH1 0x40 MLOAD DUP1 SWAP2 SUB SWAP1 LOG4 POP POP POP POP POP POP POP JUMP JUMPDEST PUSH1 0x0 PUSH32 0x7B0D4304F82012BD3B70B1D531C160E326067C90829E2A3D386722AD10B89C3 DUP7 DUP7 DUP7 DUP7 DUP7 PUSH1 0x40 MLOAD PUSH1 0x20 ADD PUSH2 0x3029 SWAP7 SWAP6 SWAP5 SWAP4 SWAP3 SWAP2 SWAP1 PUSH2 0x4C85 JUMP JUMPDEST PUSH1 0x40 MLOAD PUSH1 0x20 DUP2 DUP4 SUB SUB DUP2 MSTORE SWAP1 PUSH1 0x40 MSTORE DUP1 MLOAD SWAP1 PUSH1 0x20 ADD KECCAK256 SWAP1 POP SWAP6 SWAP5 POP POP POP POP POP JUMP JUMPDEST PUSH1 0x0 PUSH2 0xCDF PUSH2 0x266 DUP4 PUSH2 0x3BFC JUMP JUMPDEST POP JUMP JUMPDEST PUSH2 0x30A8 PUSH2 0x3067 DUP4 PUSH2 0x3BFC JUMP JUMPDEST PUSH1 0x0 SWAP1 DUP2 MSTORE PUSH1 0x2 PUSH1 0x20 MSTORE PUSH1 0x40 SWAP1 KECCAK256 DUP1 SLOAD PUSH32 0xFFFFFFFFFFFFFFFFFFFFFFFF0000000000000000000000000000000000000000 AND PUSH1 0x1 PUSH1 0x1 PUSH1 0xA0 SHL SUB DUP5 AND OR SWAP1 SSTORE JUMP JUMPDEST POP POP JUMP JUMPDEST PUSH1 0x0 PUSH2 0x30B7 DUP6 PUSH2 0xF7A JUMP JUMPDEST PUSH1 0x1 PUSH1 0x1 PUSH1 0xA0 SHL SUB AND EQ PUSH2 0x310D JUMPI PUSH1 0x40 MLOAD PUSH3 0x461BCD PUSH1 0xE5 SHL DUP2 MSTORE PUSH1 0x20 PUSH1 0x4 DUP3 ADD MSTORE PUSH1 0xB PUSH1 0x24 DUP3 ADD MSTORE PUSH32 0x544F4B454E5F4558495354000000000000000000000000000000000000000000 PUSH1 0x44 DUP3 ADD MSTORE PUSH1 0x64 ADD PUSH2 0x5A7 JUMP JUMPDEST PUSH1 0x1 PUSH1 0x1 PUSH1 0xA0 SHL SUB DUP2 AND PUSH2 0x32BA JUMPI PUSH1 0x0 DUP5 PUSH1 0x40 MLOAD PUSH1 0x20 ADD PUSH2 0x312E SWAP2 SWAP1 PUSH2 0x434A JUMP JUMPDEST PUSH1 0x40 MLOAD PUSH1 0x20 DUP2 DUP4 SUB SUB DUP2 MSTORE SWAP1 PUSH1 0x40 MSTORE DUP1 MLOAD SWAP1 PUSH1 0x20 ADD KECCAK256 SWAP1 POP PUSH1 0x0 DUP1 PUSH32 0x0 PUSH1 0x1 PUSH1 0x1 PUSH1 0xA0 SHL SUB AND PUSH4 0x6FC95B34 PUSH1 0xE0 SHL DUP10 DUP10 DUP10 DUP10 DUP9 PUSH1 0x40 MLOAD PUSH1 0x24 ADD PUSH2 0x3194 SWAP6 SWAP5 SWAP4 SWAP3 SWAP2 SWAP1 PUSH2 0x4D01 JUMP JUMPDEST PUSH1 0x40 DUP1 MLOAD PUSH1 0x1F NOT DUP2 DUP5 SUB ADD DUP2 MSTORE SWAP2 DUP2 MSTORE PUSH1 0x20 DUP3 ADD DUP1 MLOAD PUSH28 0xFFFFFFFFFFFFFFFFFFFFFFFFFFFFFFFFFFFFFFFFFFFFFFFFFFFFFFFF AND PUSH32 0xFFFFFFFF00000000000000000000000000000000000000000000000000000000 SWAP1 SWAP5 AND SWAP4 SWAP1 SWAP4 OR SWAP1 SWAP3 MSTORE SWAP1 MLOAD PUSH2 0x31FF SWAP2 SWAP1 PUSH2 0x434A JUMP JUMPDEST PUSH1 0x0 PUSH1 0x40 MLOAD DUP1 DUP4 SUB DUP2 DUP6 GAS DELEGATECALL SWAP2 POP POP RETURNDATASIZE DUP1 PUSH1 0x0 DUP2 EQ PUSH2 0x323A JUMPI PUSH1 0x40 MLOAD SWAP2 POP PUSH1 0x1F NOT PUSH1 0x3F RETURNDATASIZE ADD AND DUP3 ADD PUSH1 0x40 MSTORE RETURNDATASIZE DUP3 MSTORE RETURNDATASIZE PUSH1 0x0 PUSH1 0x20 DUP5 ADD RETURNDATACOPY PUSH2 0x323F JUMP JUMPDEST PUSH1 0x60 SWAP2 POP JUMPDEST POP SWAP2 POP SWAP2 POP DUP2 PUSH2 0x3291 JUMPI PUSH1 0x40 MLOAD PUSH3 0x461BCD PUSH1 0xE5 SHL DUP2 MSTORE PUSH1 0x20 PUSH1 0x4 DUP3 ADD MSTORE PUSH1 0x13 PUSH1 0x24 DUP3 ADD MSTORE PUSH32 0x544F4B454E5F4445504C4F595F4641494C454400000000000000000000000000 PUSH1 0x44 DUP3 ADD MSTORE PUSH1 0x64 ADD PUSH2 0x5A7 JUMP JUMPDEST DUP1 DUP1 PUSH1 0x20 ADD SWAP1 MLOAD DUP2 ADD SWAP1 PUSH2 0x32A5 SWAP2 SWAP1 PUSH2 0x4B98 JUMP JUMPDEST SWAP4 POP PUSH2 0x32B2 DUP8 PUSH1 0x1 PUSH2 0x3C37 JUMP JUMPDEST POP POP POP PUSH2 0x331C JUMP JUMPDEST PUSH1 0x1 PUSH1 0x1 PUSH1 0xA0 SHL SUB DUP2 AND EXTCODESIZE PUSH2 0x3311 JUMPI PUSH1 0x40 MLOAD PUSH3 0x461BCD PUSH1 0xE5 SHL DUP2 MSTORE PUSH1 0x20 PUSH1 0x4 DUP3 ADD MSTORE PUSH1 0x9 PUSH1 0x24 DUP3 ADD MSTORE PUSH32 0x4E4F545F544F4B454E0000000000000000000000000000000000000000000000 PUSH1 0x44 DUP3 ADD MSTORE PUSH1 0x64 ADD PUSH2 0x5A7 JUMP JUMPDEST PUSH2 0x331C DUP5 PUSH1 0x2 PUSH2 0x3C37 JUMP JUMPDEST PUSH2 0x3326 DUP5 DUP3 PUSH2 0x3C67 JUMP JUMPDEST PUSH32 0xBF90B5A1EC9763E8BF4B9245CEF0C28DB92BAB309FC2C5177F17814F38246938 DUP5 DUP3 PUSH1 0x40 MLOAD PUSH2 0x3357 SWAP3 SWAP2 SWAP1 PUSH2 0x4D47 JUMP JUMPDEST PUSH1 0x40 MLOAD DUP1 SWAP2 SUB SWAP1 LOG1 POP POP POP POP POP JUMP JUMPDEST PUSH1 0x0 PUSH32 0xC4E632779A6A7838736DD7E5E6A0EADF171DD37DFB6230720E265576DFCF42BB DUP3 PUSH1 0x40 MLOAD PUSH1 0x20 ADD PUSH2 0x2BB9 SWAP3 SWAP2 SWAP1 PUSH2 0x4BB5 JUMP JUMPDEST PUSH2 0x30A8 PUSH2 0x3067 DUP4 PUSH2 0x3BAF JUMP JUMPDEST DUP2 MLOAD DUP2 DUP2 LT ISZERO PUSH2 0x33F9 JUMPI PUSH1 0x40 MLOAD PUSH3 0x461BCD PUSH1 0xE5 SHL DUP2 MSTORE PUSH1 0x20 PUSH1 0x4 DUP3 ADD MSTORE PUSH1 0xA PUSH1 0x24 DUP3 ADD MSTORE PUSH32 0x494E565F41444D494E5300000000000000000000000000000000000000000000 PUSH1 0x44 DUP3 ADD MSTORE PUSH1 0x64 ADD PUSH2 0x5A7 JUMP JUMPDEST PUSH1 0x0 DUP3 GT PUSH2 0x3449 JUMPI PUSH1 0x40 MLOAD PUSH3 0x461BCD PUSH1 0xE5 SHL DUP2 MSTORE PUSH1 0x20 PUSH1 0x4 DUP3 ADD MSTORE PUSH1 0xE PUSH1 0x24 DUP3 ADD MSTORE PUSH32 0x494E565F41444D494E5F54484C44000000000000000000000000000000000000 PUSH1 0x44 DUP3 ADD MSTORE PUSH1 0x64 ADD PUSH2 0x5A7 JUMP JUMPDEST PUSH2 0x3453 DUP5 DUP4 PUSH2 0x3C73 JUMP JUMPDEST PUSH2 0x345D DUP5 DUP3 PUSH2 0x3C7F JUMP JUMPDEST PUSH1 0x0 JUMPDEST DUP2 DUP2 LT ISZERO PUSH2 0x985 JUMPI PUSH1 0x0 DUP5 DUP3 DUP2 MLOAD DUP2 LT PUSH2 0x347C JUMPI PUSH2 0x347C PUSH2 0x4AAF JUMP JUMPDEST PUSH1 0x20 MUL PUSH1 0x20 ADD ADD MLOAD SWAP1 POP PUSH2 0x3490 DUP7 DUP3 PUSH2 0x29FD JUMP JUMPDEST ISZERO PUSH2 0x34DD JUMPI PUSH1 0x40 MLOAD PUSH3 0x461BCD PUSH1 0xE5 SHL DUP2 MSTORE PUSH1 0x20 PUSH1 0x4 DUP3 ADD MSTORE PUSH1 0x9 PUSH1 0x24 DUP3 ADD MSTORE PUSH32 0x4455505F41444D494E0000000000000000000000000000000000000000000000 PUSH1 0x44 DUP3 ADD MSTORE PUSH1 0x64 ADD PUSH2 0x5A7 JUMP JUMPDEST PUSH2 0x34E8 DUP7 DUP4 DUP4 PUSH2 0x3C8B JUMP JUMPDEST PUSH2 0x34F4 DUP7 DUP3 PUSH1 0x1 PUSH2 0x3C98 JUMP JUMPDEST POP DUP1 PUSH2 0x34FF DUP2 PUSH2 0x4421 JUMP JUMPDEST SWAP2 POP POP PUSH2 0x3460 JUMP JUMPDEST PUSH1 0x40 DUP1 MLOAD PUSH32 0x957705A374326B30F4A1069C936D736CC9993ED6C820B4E0E2FD94A8BECA0D1D PUSH1 0x20 DUP3 ADD MSTORE SWAP1 DUP2 ADD DUP3 SWAP1 MSTORE PUSH1 0x0 SWAP1 PUSH1 0x60 ADD PUSH2 0x2BB9 JUMP JUMPDEST PUSH2 0x354F DUP6 DUP6 DUP6 DUP6 DUP6 PUSH2 0x3CA5 JUMP JUMPDEST DUP1 DUP3 PUSH1 0x1 PUSH1 0x1 PUSH1 0xA0 SHL SUB AND DUP7 PUSH32 0x335F6AE6F72F239A7A96A1953B2726347D41FC037F103531A304923297733DF0 DUP8 DUP8 PUSH1 0x40 MLOAD PUSH2 0x19A8 SWAP3 SWAP2 SWAP1 PUSH2 0x4366 JUMP JUMPDEST PUSH1 0x40 MLOAD PUSH32 0x19457468657265756D205369676E6564204D6573736167653A0A333200000000 PUSH1 0x20 DUP3 ADD MSTORE PUSH1 0x3C DUP2 ADD DUP3 SWAP1 MSTORE PUSH1 0x0 SWAP1 PUSH1 0x5C ADD PUSH2 0x2BB9 JUMP JUMPDEST PUSH1 0x0 DUP2 MLOAD PUSH1 0x41 EQ PUSH2 0x361A JUMPI PUSH1 0x40 MLOAD PUSH3 0x461BCD PUSH1 0xE5 SHL DUP2 MSTORE PUSH1 0x20 PUSH1 0x4 DUP3 ADD MSTORE PUSH1 0x7 PUSH1 0x24 DUP3 ADD MSTORE PUSH32 0x494E565F4C454E00000000000000000000000000000000000000000000000000 PUSH1 0x44 DUP3 ADD MSTORE PUSH1 0x64 ADD PUSH2 0x5A7 JUMP JUMPDEST PUSH1 0x20 DUP3 ADD MLOAD PUSH1 0x40 DUP4 ADD MLOAD PUSH1 0x60 DUP5 ADD MLOAD PUSH1 0x0 BYTE PUSH32 0x7FFFFFFFFFFFFFFFFFFFFFFFFFFFFFFF5D576E7357A4501DDFE92F46681B20A0 DUP3 GT ISZERO PUSH2 0x369C JUMPI PUSH1 0x40 MLOAD PUSH3 0x461BCD PUSH1 0xE5 SHL DUP2 MSTORE PUSH1 0x20 PUSH1 0x4 DUP3 ADD MSTORE PUSH1 0x5 PUSH1 0x24 DUP3 ADD MSTORE PUSH32 0x494E565F53000000000000000000000000000000000000000000000000000000 PUSH1 0x44 DUP3 ADD MSTORE PUSH1 0x64 ADD PUSH2 0x5A7 JUMP JUMPDEST DUP1 PUSH1 0xFF AND PUSH1 0x1B EQ DUP1 PUSH2 0x36B1 JUMPI POP DUP1 PUSH1 0xFF AND PUSH1 0x1C EQ JUMPDEST PUSH2 0x36FD JUMPI PUSH1 0x40 MLOAD PUSH3 0x461BCD PUSH1 0xE5 SHL DUP2 MSTORE PUSH1 0x20 PUSH1 0x4 DUP3 ADD MSTORE PUSH1 0x5 PUSH1 0x24 DUP3 ADD MSTORE PUSH32 0x494E565F56000000000000000000000000000000000000000000000000000000 PUSH1 0x44 DUP3 ADD MSTORE PUSH1 0x64 ADD PUSH2 0x5A7 JUMP JUMPDEST PUSH1 0x40 DUP1 MLOAD PUSH1 0x0 DUP1 DUP3 MSTORE PUSH1 0x20 DUP3 ADD DUP1 DUP5 MSTORE DUP10 SWAP1 MSTORE PUSH1 0xFF DUP5 AND SWAP3 DUP3 ADD SWAP3 SWAP1 SWAP3 MSTORE PUSH1 0x60 DUP2 ADD DUP6 SWAP1 MSTORE PUSH1 0x80 DUP2 ADD DUP5 SWAP1 MSTORE PUSH1 0x1 SWAP1 PUSH1 0xA0 ADD PUSH1 0x20 PUSH1 0x40 MLOAD PUSH1 0x20 DUP2 SUB SWAP1 DUP1 DUP5 SUB SWAP1 DUP6 GAS STATICCALL ISZERO DUP1 ISZERO PUSH2 0x3751 JUMPI RETURNDATASIZE PUSH1 0x0 DUP1 RETURNDATACOPY RETURNDATASIZE PUSH1 0x0 REVERT JUMPDEST POP POP POP PUSH1 0x20 PUSH1 0x40 MLOAD SUB MLOAD SWAP5 POP DUP5 PUSH1 0x1 PUSH1 0x1 PUSH1 0xA0 SHL SUB AND EQ ISZERO PUSH2 0x37B5 JUMPI PUSH1 0x40 MLOAD PUSH3 0x461BCD PUSH1 0xE5 SHL DUP2 MSTORE PUSH1 0x20 PUSH1 0x4 DUP3 ADD MSTORE PUSH1 0x7 PUSH1 0x24 DUP3 ADD MSTORE PUSH32 0x494E565F53494700000000000000000000000000000000000000000000000000 PUSH1 0x44 DUP3 ADD MSTORE PUSH1 0x64 ADD PUSH2 0x5A7 JUMP JUMPDEST POP POP POP SWAP3 SWAP2 POP POP JUMP JUMPDEST PUSH1 0x0 DUP1 PUSH2 0x3812 PUSH32 0x67CBDFF49954077D2DD5637524B03BFE3E6506D456859017A888FAD567E1AF03 PUSH1 0x0 SWAP1 DUP2 MSTORE PUSH1 0x20 MSTORE PUSH32 0x6F01C2F096E745C2A207FBF93BABD5E7EE6ACFD26F0F34A0E4AC68373C21D0E SLOAD SWAP1 JUMP JUMPDEST SWAP1 POP PUSH1 0x0 PUSH2 0x3822 PUSH1 0x1 PUSH1 0x10 PUSH2 0x4409 JUMP JUMPDEST SWAP1 POP PUSH1 0x0 DUP2 DUP4 GT PUSH2 0x3834 JUMPI PUSH1 0x0 PUSH2 0x383E JUMP JUMPDEST PUSH2 0x383E DUP3 DUP5 PUSH2 0x4D72 JUMP JUMPDEST SWAP1 POP PUSH2 0x3849 DUP4 PUSH2 0x4D89 JUMP JUMPDEST SWAP3 POP JUMPDEST DUP1 DUP4 GT ISZERO PUSH2 0x3891 JUMPI PUSH2 0x3868 DUP4 PUSH2 0x3861 DUP2 PUSH2 0x4D89 JUMP JUMPDEST SWAP5 POP PUSH2 0x304A JUMP JUMPDEST PUSH1 0x1 PUSH1 0x1 PUSH1 0xA0 SHL SUB AND DUP6 PUSH1 0x1 PUSH1 0x1 PUSH1 0xA0 SHL SUB AND EQ ISZERO PUSH2 0x388C JUMPI POP PUSH1 0x1 SWAP5 SWAP4 POP POP POP POP JUMP JUMPDEST PUSH2 0x384C JUMP JUMPDEST POP PUSH1 0x0 SWAP5 SWAP4 POP POP POP POP JUMP JUMPDEST PUSH1 0x0 DUP1 PUSH2 0x38F0 PUSH32 0x5369FB791F26307F8E69B07625302CCAC6930AF09AB22D753B17D2042E9992E7 PUSH1 0x0 SWAP1 DUP2 MSTORE PUSH1 0x20 MSTORE PUSH32 0x7174C149A4F7627AC1DD39B679BD42F12FC4E8D7E850B055662BBEE7188DA10 SLOAD SWAP1 JUMP JUMPDEST SWAP1 POP PUSH1 0x0 PUSH2 0x3900 PUSH1 0x1 PUSH1 0x10 PUSH2 0x4409 JUMP JUMPDEST SWAP1 POP PUSH1 0x0 DUP2 DUP4 GT PUSH2 0x3912 JUMPI PUSH1 0x0 PUSH2 0x391C JUMP JUMPDEST PUSH2 0x391C DUP3 DUP5 PUSH2 0x4D72 JUMP JUMPDEST SWAP1 POP JUMPDEST DUP1 DUP4 GT ISZERO PUSH2 0x3891 JUMPI PUSH2 0x393B DUP4 PUSH2 0x3934 DUP2 PUSH2 0x4D89 JUMP JUMPDEST SWAP5 POP PUSH2 0x2F7D JUMP JUMPDEST PUSH1 0x1 PUSH1 0x1 PUSH1 0xA0 SHL SUB AND DUP6 PUSH1 0x1 PUSH1 0x1 PUSH1 0xA0 SHL SUB AND EQ ISZERO PUSH2 0x395F JUMPI POP PUSH1 0x1 SWAP5 SWAP4 POP POP POP POP JUMP JUMPDEST PUSH2 0x391F JUMP JUMPDEST PUSH2 0x30A8 PUSH2 0x2B26 DUP4 PUSH2 0x3507 JUMP JUMPDEST PUSH1 0x0 PUSH2 0x397E PUSH2 0x4B0 DUP4 PUSH2 0x3CB5 JUMP JUMPDEST PUSH1 0x2 DUP2 GT ISZERO PUSH2 0xCDF JUMPI PUSH2 0xCDF PUSH2 0x4A80 JUMP JUMPDEST PUSH1 0x0 DUP1 DUP5 PUSH1 0x1 PUSH1 0x1 PUSH1 0xA0 SHL SUB AND DUP5 PUSH1 0x40 MLOAD PUSH2 0x39AA SWAP2 SWAP1 PUSH2 0x434A JUMP JUMPDEST PUSH1 0x0 PUSH1 0x40 MLOAD DUP1 DUP4 SUB DUP2 PUSH1 0x0 DUP7 GAS CALL SWAP2 POP POP RETURNDATASIZE DUP1 PUSH1 0x0 DUP2 EQ PUSH2 0x39E7 JUMPI PUSH1 0x40 MLOAD SWAP2 POP PUSH1 0x1F NOT PUSH1 0x3F RETURNDATASIZE ADD AND DUP3 ADD PUSH1 0x40 MSTORE RETURNDATASIZE DUP3 MSTORE RETURNDATASIZE PUSH1 0x0 PUSH1 0x20 DUP5 ADD RETURNDATACOPY PUSH2 0x39EC JUMP JUMPDEST PUSH1 0x60 SWAP2 POP JUMPDEST POP SWAP2 POP SWAP2 POP DUP2 DUP1 ISZERO PUSH2 0x3A16 JUMPI POP DUP1 MLOAD ISZERO DUP1 PUSH2 0x3A16 JUMPI POP DUP1 DUP1 PUSH1 0x20 ADD SWAP1 MLOAD DUP2 ADD SWAP1 PUSH2 0x3A16 SWAP2 SWAP1 PUSH2 0x4C6A JUMP JUMPDEST DUP4 SWAP1 PUSH2 0x5D1 JUMPI PUSH1 0x40 MLOAD PUSH3 0x461BCD PUSH1 0xE5 SHL DUP2 MSTORE PUSH1 0x4 ADD PUSH2 0x5A7 SWAP2 SWAP1 PUSH2 0x4143 JUMP JUMPDEST PUSH1 0x40 DUP1 MLOAD PUSH32 0x63FA879CB478FDDF1DE08D49E29115FB768866711BC799FF9AB419A7F16C9AFB PUSH1 0x20 DUP3 ADD MSTORE SWAP1 DUP2 ADD DUP4 SWAP1 MSTORE PUSH1 0x60 DUP3 DUP2 SHL PUSH32 0xFFFFFFFFFFFFFFFFFFFFFFFFFFFFFFFFFFFFFFFF000000000000000000000000 AND SWAP1 DUP3 ADD MSTORE PUSH1 0x0 SWAP1 PUSH1 0x74 ADD JUMPDEST PUSH1 0x40 MLOAD PUSH1 0x20 DUP2 DUP4 SUB SUB DUP2 MSTORE SWAP1 PUSH1 0x40 MSTORE DUP1 MLOAD SWAP1 PUSH1 0x20 ADD KECCAK256 SWAP1 POP SWAP3 SWAP2 POP POP JUMP JUMPDEST PUSH1 0x40 DUP1 MLOAD PUSH32 0xBAEA1C6C0F16A0A340B10A9E980806696A68DDBB5E8361FD64630DD21ABF515F PUSH1 0x20 DUP3 ADD MSTORE SWAP1 DUP2 ADD DUP4 SWAP1 MSTORE PUSH1 0x60 DUP2 ADD DUP3 SWAP1 MSTORE PUSH1 0x0 SWAP1 PUSH1 0x80 ADD PUSH2 0x3A97 JUMP JUMPDEST PUSH1 0x40 DUP1 MLOAD PUSH32 0x79BD914ADDD90BD67AD800BF0230BB85FFDEF5AEBA5FD8249F116D3F17F4FB4B PUSH1 0x20 DUP3 ADD MSTORE SWAP1 DUP2 ADD DUP3 SWAP1 MSTORE PUSH1 0x0 SWAP1 PUSH1 0x60 ADD PUSH2 0x2BB9 JUMP JUMPDEST PUSH1 0x40 DUP1 MLOAD PUSH32 0x5112EF894367DE1270CFAE12AFCD2285C225830EB8F74E7E938F721BB510CBA PUSH1 0x20 DUP3 ADD MSTORE SWAP1 DUP2 ADD DUP3 SWAP1 MSTORE PUSH1 0x0 SWAP1 PUSH1 0x60 ADD PUSH2 0x2BB9 JUMP JUMPDEST PUSH1 0x40 DUP1 MLOAD PUSH32 0xF23EC0BB4210EDD5CBA85AFD05127EFCD2FC6A781BFED49188DA1081670B22D8 PUSH1 0x20 DUP3 ADD MSTORE SWAP1 DUP2 ADD DUP4 SWAP1 MSTORE PUSH1 0x60 DUP2 ADD DUP3 SWAP1 MSTORE PUSH1 0x0 SWAP1 PUSH1 0x80 ADD PUSH2 0x3A97 JUMP JUMPDEST PUSH1 0x40 DUP1 MLOAD PUSH32 0x46A52CF33029DE9F84853745A87AF28464C80BF0346DF1B32E205FC73319F622 PUSH1 0x20 DUP3 ADD MSTORE SWAP1 DUP2 ADD DUP3 SWAP1 MSTORE PUSH1 0x0 SWAP1 PUSH1 0x60 ADD PUSH2 0x2BB9 JUMP JUMPDEST PUSH2 0x1EA6 PUSH2 0xC33 DUP9 DUP9 DUP9 DUP9 DUP9 DUP9 DUP9 PUSH2 0x2667 JUMP JUMPDEST PUSH1 0x40 DUP1 MLOAD PUSH32 0x2016836A56B71F0D02689E69E326F4F4C1B9057164EF592671CF0D37C8040C0 PUSH1 0x20 DUP3 ADD MSTORE SWAP1 DUP2 ADD DUP3 SWAP1 MSTORE PUSH1 0x0 SWAP1 PUSH1 0x60 ADD PUSH2 0x2BB9 JUMP JUMPDEST PUSH2 0x30A8 PUSH2 0x3C43 DUP4 PUSH2 0x3CB5 JUMP JUMPDEST DUP3 PUSH1 0x2 DUP2 GT ISZERO PUSH2 0x3C55 JUMPI PUSH2 0x3C55 PUSH2 0x4A80 JUMP JUMPDEST PUSH1 0x0 SWAP2 DUP3 MSTORE PUSH1 0x20 DUP3 SWAP1 MSTORE PUSH1 0x40 SWAP1 SWAP2 KECCAK256 SSTORE JUMP JUMPDEST PUSH2 0x30A8 PUSH2 0x3067 DUP4 PUSH2 0x3366 JUMP JUMPDEST PUSH2 0x30A8 PUSH2 0x2B5E DUP4 PUSH2 0x3AF7 JUMP JUMPDEST PUSH2 0x30A8 PUSH2 0x2B5E DUP4 PUSH2 0x3B32 JUMP JUMPDEST PUSH2 0x2B71 PUSH2 0x3067 DUP5 DUP5 PUSH2 0x3B6D JUMP JUMPDEST PUSH2 0x2B71 PUSH2 0x2B26 DUP5 DUP5 PUSH2 0x3A35 JUMP JUMPDEST PUSH2 0x985 PUSH2 0xC33 DUP7 DUP7 DUP7 DUP7 DUP7 PUSH2 0x2FEC JUMP JUMPDEST PUSH1 0x0 PUSH32 0xA80D2259AF55890618EC2EEB3AC72DE4BDBA22529BB14845D8A3D712D1C3F621 DUP3 PUSH1 0x40 MLOAD PUSH1 0x20 ADD PUSH2 0x2BB9 SWAP3 SWAP2 SWAP1 PUSH2 0x4BB5 JUMP JUMPDEST PUSH2 0x2EB DUP1 PUSH2 0x4DBF DUP4 CODECOPY ADD SWAP1 JUMP JUMPDEST PUSH1 0x0 DUP1 DUP4 PUSH1 0x1F DUP5 ADD SLT PUSH2 0x3D09 JUMPI PUSH1 0x0 DUP1 REVERT JUMPDEST POP DUP2 CALLDATALOAD PUSH8 0xFFFFFFFFFFFFFFFF DUP2 GT ISZERO PUSH2 0x3D21 JUMPI PUSH1 0x0 DUP1 REVERT JUMPDEST PUSH1 0x20 DUP4 ADD SWAP2 POP DUP4 PUSH1 0x20 DUP3 DUP6 ADD ADD GT ISZERO PUSH2 0x3D39 JUMPI PUSH1 0x0 DUP1 REVERT JUMPDEST SWAP3 POP SWAP3 SWAP1 POP JUMP JUMPDEST PUSH1 0x0 DUP1 PUSH1 0x20 DUP4 DUP6 SUB SLT ISZERO PUSH2 0x3D53 JUMPI PUSH1 0x0 DUP1 REVERT JUMPDEST DUP3 CALLDATALOAD PUSH8 0xFFFFFFFFFFFFFFFF DUP2 GT ISZERO PUSH2 0x3D6A JUMPI PUSH1 0x0 DUP1 REVERT JUMPDEST PUSH2 0x3D76 DUP6 DUP3 DUP7 ADD PUSH2 0x3CF7 JUMP JUMPDEST SWAP1 SWAP7 SWAP1 SWAP6 POP SWAP4 POP POP POP POP JUMP JUMPDEST PUSH1 0x0 DUP1 PUSH1 0x0 PUSH1 0x40 DUP5 DUP7 SUB SLT ISZERO PUSH2 0x3D97 JUMPI PUSH1 0x0 DUP1 REVERT JUMPDEST DUP4 CALLDATALOAD PUSH8 0xFFFFFFFFFFFFFFFF DUP2 GT ISZERO PUSH2 0x3DAE JUMPI PUSH1 0x0 DUP1 REVERT JUMPDEST PUSH2 0x3DBA DUP7 DUP3 DUP8 ADD PUSH2 0x3CF7 JUMP JUMPDEST SWAP1 SWAP8 SWAP1 SWAP7 POP PUSH1 0x20 SWAP6 SWAP1 SWAP6 ADD CALLDATALOAD SWAP5 SWAP4 POP POP POP POP JUMP JUMPDEST PUSH32 0x4E487B7100000000000000000000000000000000000000000000000000000000 PUSH1 0x0 MSTORE PUSH1 0x41 PUSH1 0x4 MSTORE PUSH1 0x24 PUSH1 0x0 REVERT JUMPDEST PUSH1 0x40 MLOAD PUSH1 0x1F DUP3 ADD PUSH1 0x1F NOT AND DUP2 ADD PUSH8 0xFFFFFFFFFFFFFFFF DUP2 GT DUP3 DUP3 LT OR ISZERO PUSH2 0x3E26 JUMPI PUSH2 0x3E26 PUSH2 0x3DCE JUMP JUMPDEST PUSH1 0x40 MSTORE SWAP2 SWAP1 POP JUMP JUMPDEST PUSH1 0x0 PUSH8 0xFFFFFFFFFFFFFFFF DUP3 GT ISZERO PUSH2 0x3E48 JUMPI PUSH2 0x3E48 PUSH2 0x3DCE JUMP JUMPDEST POP PUSH1 0x1F ADD PUSH1 0x1F NOT AND PUSH1 0x20 ADD SWAP1 JUMP JUMPDEST PUSH1 0x0 DUP3 PUSH1 0x1F DUP4 ADD SLT PUSH2 0x3E67 JUMPI PUSH1 0x0 DUP1 REVERT JUMPDEST DUP2 CALLDATALOAD PUSH2 0x3E7A PUSH2 0x3E75 DUP3 PUSH2 0x3E2E JUMP JUMPDEST PUSH2 0x3DFD JUMP JUMPDEST DUP2 DUP2 MSTORE DUP5 PUSH1 0x20 DUP4 DUP7 ADD ADD GT ISZERO PUSH2 0x3E8F JUMPI PUSH1 0x0 DUP1 REVERT JUMPDEST DUP2 PUSH1 0x20 DUP6 ADD PUSH1 0x20 DUP4 ADD CALLDATACOPY PUSH1 0x0 SWAP2 DUP2 ADD PUSH1 0x20 ADD SWAP2 SWAP1 SWAP2 MSTORE SWAP4 SWAP3 POP POP POP JUMP JUMPDEST PUSH1 0x0 DUP1 PUSH1 0x0 DUP1 PUSH1 0x0 DUP1 PUSH1 0xC0 DUP8 DUP10 SUB SLT ISZERO PUSH2 0x3EC5 JUMPI PUSH1 0x0 DUP1 REVERT JUMPDEST DUP7 CALLDATALOAD SWAP6 POP PUSH1 0x20 DUP8 ADD CALLDATALOAD PUSH8 0xFFFFFFFFFFFFFFFF DUP1 DUP3 GT ISZERO PUSH2 0x3EE4 JUMPI PUSH1 0x0 DUP1 REVERT JUMPDEST PUSH2 0x3EF0 DUP11 DUP4 DUP12 ADD PUSH2 0x3E56 JUMP JUMPDEST SWAP7 POP PUSH1 0x40 DUP10 ADD CALLDATALOAD SWAP2 POP DUP1 DUP3 GT ISZERO PUSH2 0x3F06 JUMPI PUSH1 0x0 DUP1 REVERT JUMPDEST PUSH2 0x3F12 DUP11 DUP4 DUP12 ADD PUSH2 0x3E56 JUMP JUMPDEST SWAP6 POP PUSH1 0x60 DUP10 ADD CALLDATALOAD SWAP5 POP PUSH1 0x80 DUP10 ADD CALLDATALOAD SWAP2 POP DUP1 DUP3 GT ISZERO PUSH2 0x3F2F JUMPI PUSH1 0x0 DUP1 REVERT JUMPDEST POP PUSH2 0x3F3C DUP10 DUP3 DUP11 ADD PUSH2 0x3E56 JUMP JUMPDEST SWAP3 POP POP PUSH1 0xA0 DUP8 ADD CALLDATALOAD SWAP1 POP SWAP3 SWAP6 POP SWAP3 SWAP6 POP SWAP3 SWAP6 JUMP JUMPDEST PUSH1 0x0 DUP1 PUSH1 0x0 PUSH1 0x60 DUP5 DUP7 SUB SLT ISZERO PUSH2 0x3F65 JUMPI PUSH1 0x0 DUP1 REVERT JUMPDEST DUP4 CALLDATALOAD PUSH8 0xFFFFFFFFFFFFFFFF DUP1 DUP3 GT ISZERO PUSH2 0x3F7D JUMPI PUSH1 0x0 DUP1 REVERT JUMPDEST PUSH2 0x3F89 DUP8 DUP4 DUP9 ADD PUSH2 0x3E56 JUMP JUMPDEST SWAP5 POP PUSH1 0x20 DUP7 ADD CALLDATALOAD SWAP2 POP DUP1 DUP3 GT ISZERO PUSH2 0x3F9F JUMPI PUSH1 0x0 DUP1 REVERT JUMPDEST PUSH2 0x3FAB DUP8 DUP4 DUP9 ADD PUSH2 0x3E56 JUMP JUMPDEST SWAP4 POP PUSH1 0x40 DUP7 ADD CALLDATALOAD SWAP2 POP DUP1 DUP3 GT ISZERO PUSH2 0x3FC1 JUMPI PUSH1 0x0 DUP1 REVERT JUMPDEST POP PUSH2 0x3FCE DUP7 DUP3 DUP8 ADD PUSH2 0x3E56 JUMP JUMPDEST SWAP2 POP POP SWAP3 POP SWAP3 POP SWAP3 JUMP JUMPDEST PUSH1 0x0 PUSH1 0x20 DUP3 DUP5 SUB SLT ISZERO PUSH2 0x3FEA JUMPI PUSH1 0x0 DUP1 REVERT JUMPDEST POP CALLDATALOAD SWAP2 SWAP1 POP JUMP JUMPDEST PUSH1 0x0 DUP1 PUSH1 0x0 DUP1 PUSH1 0x80 DUP6 DUP8 SUB SLT ISZERO PUSH2 0x4007 JUMPI PUSH1 0x0 DUP1 REVERT JUMPDEST DUP5 CALLDATALOAD PUSH8 0xFFFFFFFFFFFFFFFF DUP1 DUP3 GT ISZERO PUSH2 0x401F JUMPI PUSH1 0x0 DUP1 REVERT JUMPDEST PUSH2 0x402B DUP9 DUP4 DUP10 ADD PUSH2 0x3E56 JUMP JUMPDEST SWAP6 POP PUSH1 0x20 DUP8 ADD CALLDATALOAD SWAP2 POP DUP1 DUP3 GT ISZERO PUSH2 0x4041 JUMPI PUSH1 0x0 DUP1 REVERT JUMPDEST PUSH2 0x404D DUP9 DUP4 DUP10 ADD PUSH2 0x3E56 JUMP JUMPDEST SWAP5 POP PUSH1 0x40 DUP8 ADD CALLDATALOAD SWAP2 POP DUP1 DUP3 GT ISZERO PUSH2 0x4063 JUMPI PUSH1 0x0 DUP1 REVERT JUMPDEST POP PUSH2 0x4070 DUP8 DUP3 DUP9 ADD PUSH2 0x3E56 JUMP JUMPDEST SWAP5 SWAP8 SWAP4 SWAP7 POP SWAP4 SWAP5 PUSH1 0x60 ADD CALLDATALOAD SWAP4 POP POP POP JUMP JUMPDEST PUSH1 0x0 PUSH1 0x20 DUP3 DUP5 SUB SLT ISZERO PUSH2 0x4093 JUMPI PUSH1 0x0 DUP1 REVERT JUMPDEST DUP2 CALLDATALOAD PUSH8 0xFFFFFFFFFFFFFFFF DUP2 GT ISZERO PUSH2 0x40AA JUMPI PUSH1 0x0 DUP1 REVERT JUMPDEST PUSH2 0x2A9C DUP5 DUP3 DUP6 ADD PUSH2 0x3E56 JUMP JUMPDEST PUSH1 0x0 DUP1 PUSH1 0x0 DUP1 PUSH1 0x80 DUP6 DUP8 SUB SLT ISZERO PUSH2 0x40CC JUMPI PUSH1 0x0 DUP1 REVERT JUMPDEST DUP5 CALLDATALOAD SWAP4 POP PUSH1 0x20 DUP6 ADD CALLDATALOAD PUSH8 0xFFFFFFFFFFFFFFFF DUP1 DUP3 GT ISZERO PUSH2 0x4041 JUMPI PUSH1 0x0 DUP1 REVERT JUMPDEST PUSH1 0x0 JUMPDEST DUP4 DUP2 LT ISZERO PUSH2 0x4106 JUMPI DUP2 DUP2 ADD MLOAD DUP4 DUP3 ADD MSTORE PUSH1 0x20 ADD PUSH2 0x40EE JUMP JUMPDEST DUP4 DUP2 GT ISZERO PUSH2 0x556 JUMPI POP POP PUSH1 0x0 SWAP2 ADD MSTORE JUMP JUMPDEST PUSH1 0x0 DUP2 MLOAD DUP1 DUP5 MSTORE PUSH2 0x412F DUP2 PUSH1 0x20 DUP7 ADD PUSH1 0x20 DUP7 ADD PUSH2 0x40EB JUMP JUMPDEST PUSH1 0x1F ADD PUSH1 0x1F NOT AND SWAP3 SWAP1 SWAP3 ADD PUSH1 0x20 ADD SWAP3 SWAP2 POP POP JUMP JUMPDEST PUSH1 0x20 DUP2 MSTORE PUSH1 0x0 PUSH2 0x2A0C PUSH1 0x20 DUP4 ADD DUP5 PUSH2 0x4117 JUMP JUMPDEST PUSH1 0x1 PUSH1 0x1 PUSH1 0xA0 SHL SUB DUP2 AND DUP2 EQ PUSH2 0x3058 JUMPI PUSH1 0x0 DUP1 REVERT JUMPDEST PUSH1 0x0 DUP1 PUSH1 0x0 DUP1 PUSH1 0x60 DUP6 DUP8 SUB SLT ISZERO PUSH2 0x4181 JUMPI PUSH1 0x0 DUP1 REVERT JUMPDEST DUP5 CALLDATALOAD PUSH2 0x418C DUP2 PUSH2 0x4156 JUMP JUMPDEST SWAP4 POP PUSH1 0x20 DUP6 ADD CALLDATALOAD SWAP3 POP PUSH1 0x40 DUP6 ADD CALLDATALOAD PUSH8 0xFFFFFFFFFFFFFFFF DUP2 GT ISZERO PUSH2 0x41AF JUMPI PUSH1 0x0 DUP1 REVERT JUMPDEST PUSH2 0x41BB DUP8 DUP3 DUP9 ADD PUSH2 0x3CF7 JUMP JUMPDEST SWAP6 SWAP9 SWAP5 SWAP8 POP SWAP6 POP POP POP POP JUMP JUMPDEST PUSH1 0x0 DUP1 PUSH1 0x0 DUP1 PUSH1 0x0 PUSH1 0xA0 DUP7 DUP9 SUB SLT ISZERO PUSH2 0x41DF JUMPI PUSH1 0x0 DUP1 REVERT JUMPDEST DUP6 CALLDATALOAD PUSH8 0xFFFFFFFFFFFFFFFF DUP1 DUP3 GT ISZERO PUSH2 0x41F7 JUMPI PUSH1 0x0 DUP1 REVERT JUMPDEST PUSH2 0x4203 DUP10 DUP4 DUP11 ADD PUSH2 0x3E56 JUMP JUMPDEST SWAP7 POP PUSH1 0x20 DUP9 ADD CALLDATALOAD SWAP2 POP DUP1 DUP3 GT ISZERO PUSH2 0x4219 JUMPI PUSH1 0x0 DUP1 REVERT JUMPDEST PUSH2 0x4225 DUP10 DUP4 DUP11 ADD PUSH2 0x3E56 JUMP JUMPDEST SWAP6 POP PUSH1 0x40 DUP9 ADD CALLDATALOAD SWAP2 POP DUP1 DUP3 GT ISZERO PUSH2 0x423B JUMPI PUSH1 0x0 DUP1 REVERT JUMPDEST PUSH2 0x4247 DUP10 DUP4 DUP11 ADD PUSH2 0x3E56 JUMP JUMPDEST SWAP5 POP PUSH1 0x60 DUP9 ADD CALLDATALOAD SWAP2 POP DUP1 DUP3 GT ISZERO PUSH2 0x425D JUMPI PUSH1 0x0 DUP1 REVERT JUMPDEST POP PUSH2 0x426A DUP9 DUP3 DUP10 ADD PUSH2 0x3E56 JUMP JUMPDEST SWAP6 SWAP9 SWAP5 SWAP8 POP SWAP3 SWAP6 PUSH1 0x80 ADD CALLDATALOAD SWAP4 SWAP3 POP POP POP JUMP JUMPDEST PUSH1 0x0 DUP1 PUSH1 0x40 DUP4 DUP6 SUB SLT ISZERO PUSH2 0x428F JUMPI PUSH1 0x0 DUP1 REVERT JUMPDEST DUP3 CALLDATALOAD PUSH8 0xFFFFFFFFFFFFFFFF DUP1 DUP3 GT ISZERO PUSH2 0x42A7 JUMPI PUSH1 0x0 DUP1 REVERT JUMPDEST PUSH2 0x42B3 DUP7 DUP4 DUP8 ADD PUSH2 0x3E56 JUMP JUMPDEST SWAP4 POP PUSH1 0x20 DUP6 ADD CALLDATALOAD SWAP2 POP DUP1 DUP3 GT ISZERO PUSH2 0x42C9 JUMPI PUSH1 0x0 DUP1 REVERT JUMPDEST POP PUSH2 0x42D6 DUP6 DUP3 DUP7 ADD PUSH2 0x3E56 JUMP JUMPDEST SWAP2 POP POP SWAP3 POP SWAP3 SWAP1 POP JUMP JUMPDEST DUP1 CALLDATALOAD PUSH2 0x42EB DUP2 PUSH2 0x4156 JUMP JUMPDEST SWAP2 SWAP1 POP JUMP JUMPDEST PUSH1 0x0 DUP1 PUSH1 0x0 PUSH1 0x60 DUP5 DUP7 SUB SLT ISZERO PUSH2 0x4305 JUMPI PUSH1 0x0 DUP1 REVERT JUMPDEST DUP4 CALLDATALOAD PUSH8 0xFFFFFFFFFFFFFFFF DUP2 GT ISZERO PUSH2 0x431C JUMPI PUSH1 0x0 DUP1 REVERT JUMPDEST PUSH2 0x4328 DUP7 DUP3 DUP8 ADD PUSH2 0x3E56 JUMP JUMPDEST SWAP4 POP POP PUSH1 0x20 DUP5 ADD CALLDATALOAD PUSH2 0x4339 DUP2 PUSH2 0x4156 JUMP JUMPDEST SWAP3 SWAP6 SWAP3 SWAP5 POP POP POP PUSH1 0x40 SWAP2 SWAP1 SWAP2 ADD CALLDATALOAD SWAP1 JUMP JUMPDEST PUSH1 0x0 DUP3 MLOAD PUSH2 0x435C DUP2 DUP5 PUSH1 0x20 DUP8 ADD PUSH2 0x40EB JUMP JUMPDEST SWAP2 SWAP1 SWAP2 ADD SWAP3 SWAP2 POP POP JUMP JUMPDEST PUSH1 0x40 DUP2 MSTORE PUSH1 0x0 PUSH2 0x4379 PUSH1 0x40 DUP4 ADD DUP6 PUSH2 0x4117 JUMP JUMPDEST DUP3 DUP2 SUB PUSH1 0x20 DUP5 ADD MSTORE PUSH2 0x438B DUP2 DUP6 PUSH2 0x4117 JUMP JUMPDEST SWAP6 SWAP5 POP POP POP POP POP JUMP JUMPDEST PUSH1 0x60 DUP2 MSTORE PUSH1 0x0 PUSH2 0x43A7 PUSH1 0x60 DUP4 ADD DUP7 PUSH2 0x4117 JUMP JUMPDEST DUP3 DUP2 SUB PUSH1 0x20 DUP5 ADD MSTORE PUSH2 0x43B9 DUP2 DUP7 PUSH2 0x4117 JUMP JUMPDEST SWAP2 POP POP DUP3 PUSH1 0x40 DUP4 ADD MSTORE SWAP5 SWAP4 POP POP POP POP JUMP JUMPDEST DUP2 DUP4 DUP3 CALLDATACOPY PUSH1 0x0 SWAP2 ADD SWAP1 DUP2 MSTORE SWAP2 SWAP1 POP JUMP JUMPDEST PUSH32 0x4E487B7100000000000000000000000000000000000000000000000000000000 PUSH1 0x0 MSTORE PUSH1 0x11 PUSH1 0x4 MSTORE PUSH1 0x24 PUSH1 0x0 REVERT JUMPDEST PUSH1 0x0 DUP3 NOT DUP3 GT ISZERO PUSH2 0x441C JUMPI PUSH2 0x441C PUSH2 0x43DA JUMP JUMPDEST POP ADD SWAP1 JUMP JUMPDEST PUSH1 0x0 PUSH32 0xFFFFFFFFFFFFFFFFFFFFFFFFFFFFFFFFFFFFFFFFFFFFFFFFFFFFFFFFFFFFFFFF DUP3 EQ ISZERO PUSH2 0x4453 JUMPI PUSH2 0x4453 PUSH2 0x43DA JUMP JUMPDEST POP PUSH1 0x1 ADD SWAP1 JUMP JUMPDEST PUSH1 0x0 DUP1 PUSH1 0x40 DUP4 DUP6 SUB SLT ISZERO PUSH2 0x446D JUMPI PUSH1 0x0 DUP1 REVERT JUMPDEST DUP3 CALLDATALOAD PUSH8 0xFFFFFFFFFFFFFFFF DUP2 GT ISZERO PUSH2 0x4484 JUMPI PUSH1 0x0 DUP1 REVERT JUMPDEST PUSH2 0x4490 DUP6 DUP3 DUP7 ADD PUSH2 0x3E56 JUMP JUMPDEST SWAP6 PUSH1 0x20 SWAP5 SWAP1 SWAP5 ADD CALLDATALOAD SWAP5 POP POP POP POP JUMP JUMPDEST PUSH1 0x0 DUP1 PUSH1 0x0 DUP1 PUSH1 0x0 DUP1 PUSH1 0xC0 DUP8 DUP10 SUB SLT ISZERO PUSH2 0x44B8 JUMPI PUSH1 0x0 DUP1 REVERT JUMPDEST DUP7 CALLDATALOAD PUSH8 0xFFFFFFFFFFFFFFFF DUP1 DUP3 GT ISZERO PUSH2 0x44D0 JUMPI PUSH1 0x0 DUP1 REVERT JUMPDEST PUSH2 0x44DC DUP11 DUP4 DUP12 ADD PUSH2 0x3E56 JUMP JUMPDEST SWAP8 POP PUSH1 0x20 DUP10 ADD CALLDATALOAD SWAP2 POP DUP1 DUP3 GT ISZERO PUSH2 0x44F2 JUMPI PUSH1 0x0 DUP1 REVERT JUMPDEST PUSH2 0x44FE DUP11 DUP4 DUP12 ADD PUSH2 0x3E56 JUMP JUMPDEST SWAP7 POP PUSH1 0x40 DUP10 ADD CALLDATALOAD SWAP2 POP PUSH2 0x4510 DUP3 PUSH2 0x4156 JUMP JUMPDEST SWAP1 SWAP5 POP PUSH1 0x60 DUP9 ADD CALLDATALOAD SWAP4 POP PUSH1 0x80 DUP9 ADD CALLDATALOAD SWAP1 DUP1 DUP3 GT ISZERO PUSH2 0x3F2F JUMPI PUSH1 0x0 DUP1 REVERT JUMPDEST PUSH1 0x0 PUSH1 0x20 DUP3 DUP5 SUB SLT ISZERO PUSH2 0x453F JUMPI PUSH1 0x0 DUP1 REVERT JUMPDEST DUP2 CALLDATALOAD PUSH2 0x2A0C DUP2 PUSH2 0x4156 JUMP JUMPDEST PUSH1 0x0 DUP1 PUSH1 0x0 DUP1 PUSH1 0x0 PUSH1 0xA0 DUP7 DUP9 SUB SLT ISZERO PUSH2 0x4562 JUMPI PUSH1 0x0 DUP1 REVERT JUMPDEST DUP6 CALLDATALOAD PUSH8 0xFFFFFFFFFFFFFFFF DUP1 DUP3 GT ISZERO PUSH2 0x457A JUMPI PUSH1 0x0 DUP1 REVERT JUMPDEST PUSH2 0x4586 DUP10 DUP4 DUP11 ADD PUSH2 0x3E56 JUMP JUMPDEST SWAP7 POP PUSH1 0x20 DUP9 ADD CALLDATALOAD SWAP2 POP DUP1 DUP3 GT ISZERO PUSH2 0x459C JUMPI PUSH1 0x0 DUP1 REVERT JUMPDEST POP PUSH2 0x45A9 DUP9 DUP3 DUP10 ADD PUSH2 0x3E56 JUMP JUMPDEST SWAP5 POP POP PUSH1 0x40 DUP7 ADD CALLDATALOAD PUSH1 0xFF DUP2 AND DUP2 EQ PUSH2 0x45C0 JUMPI PUSH1 0x0 DUP1 REVERT JUMPDEST SWAP3 POP PUSH1 0x60 DUP7 ADD CALLDATALOAD SWAP2 POP PUSH1 0x80 DUP7 ADD CALLDATALOAD PUSH2 0x45D7 DUP2 PUSH2 0x4156 JUMP JUMPDEST DUP1 SWAP2 POP POP SWAP3 SWAP6 POP SWAP3 SWAP6 SWAP1 SWAP4 POP JUMP JUMPDEST PUSH1 0x1 DUP2 DUP2 SHR SWAP1 DUP3 AND DUP1 PUSH2 0x45F9 JUMPI PUSH1 0x7F DUP3 AND SWAP2 POP JUMPDEST PUSH1 0x20 DUP3 LT DUP2 EQ ISZERO PUSH2 0x4633 JUMPI PUSH32 0x4E487B7100000000000000000000000000000000000000000000000000000000 PUSH1 0x0 MSTORE PUSH1 0x22 PUSH1 0x4 MSTORE PUSH1 0x24 PUSH1 0x0 REVERT JUMPDEST POP SWAP2 SWAP1 POP JUMP JUMPDEST PUSH1 0x0 PUSH8 0xFFFFFFFFFFFFFFFF DUP3 GT ISZERO PUSH2 0x4653 JUMPI PUSH2 0x4653 PUSH2 0x3DCE JUMP JUMPDEST POP PUSH1 0x5 SHL PUSH1 0x20 ADD SWAP1 JUMP JUMPDEST PUSH1 0x0 DUP1 PUSH1 0x0 DUP1 PUSH1 0x80 DUP6 DUP8 SUB SLT ISZERO PUSH2 0x4673 JUMPI PUSH1 0x0 DUP1 REVERT JUMPDEST DUP5 CALLDATALOAD PUSH8 0xFFFFFFFFFFFFFFFF DUP2 GT ISZERO PUSH2 0x468A JUMPI PUSH1 0x0 DUP1 REVERT JUMPDEST DUP6 ADD PUSH1 0x1F DUP2 ADD DUP8 SGT PUSH2 0x469B JUMPI PUSH1 0x0 DUP1 REVERT JUMPDEST DUP1 CALLDATALOAD PUSH1 0x20 PUSH2 0x46AB PUSH2 0x3E75 DUP4 PUSH2 0x4639 JUMP JUMPDEST DUP3 DUP2 MSTORE PUSH1 0x5 SWAP3 SWAP1 SWAP3 SHL DUP4 ADD DUP2 ADD SWAP2 DUP2 DUP2 ADD SWAP1 DUP11 DUP5 GT ISZERO PUSH2 0x46CA JUMPI PUSH1 0x0 DUP1 REVERT JUMPDEST SWAP4 DUP3 ADD SWAP4 JUMPDEST DUP4 DUP6 LT ISZERO PUSH2 0x46F1 JUMPI DUP5 CALLDATALOAD PUSH2 0x46E2 DUP2 PUSH2 0x4156 JUMP JUMPDEST DUP3 MSTORE SWAP4 DUP3 ADD SWAP4 SWAP1 DUP3 ADD SWAP1 PUSH2 0x46CF JUMP JUMPDEST SWAP8 POP POP DUP8 ADD CALLDATALOAD SWAP5 POP PUSH2 0x4708 SWAP2 POP POP PUSH1 0x40 DUP7 ADD PUSH2 0x42E0 JUMP JUMPDEST SWAP2 POP PUSH2 0x4716 PUSH1 0x60 DUP7 ADD PUSH2 0x42E0 JUMP JUMPDEST SWAP1 POP SWAP3 SWAP6 SWAP2 SWAP5 POP SWAP3 POP JUMP JUMPDEST PUSH1 0x20 DUP2 MSTORE DUP2 PUSH1 0x20 DUP3 ADD MSTORE DUP2 DUP4 PUSH1 0x40 DUP4 ADD CALLDATACOPY PUSH1 0x0 DUP2 DUP4 ADD PUSH1 0x40 SWAP1 DUP2 ADD SWAP2 SWAP1 SWAP2 MSTORE PUSH1 0x1F SWAP1 SWAP3 ADD PUSH1 0x1F NOT AND ADD ADD SWAP2 SWAP1 POP JUMP JUMPDEST PUSH1 0x80 DUP2 MSTORE PUSH1 0x0 PUSH2 0x4763 PUSH1 0x80 DUP4 ADD DUP8 PUSH2 0x4117 JUMP JUMPDEST DUP3 DUP2 SUB PUSH1 0x20 DUP5 ADD MSTORE PUSH2 0x4775 DUP2 DUP8 PUSH2 0x4117 JUMP JUMPDEST SWAP1 POP DUP3 DUP2 SUB PUSH1 0x40 DUP5 ADD MSTORE PUSH2 0x4789 DUP2 DUP7 PUSH2 0x4117 JUMP JUMPDEST SWAP2 POP POP DUP3 PUSH1 0x60 DUP4 ADD MSTORE SWAP6 SWAP5 POP POP POP POP POP JUMP JUMPDEST PUSH1 0x0 DUP1 PUSH1 0x0 DUP1 PUSH1 0x80 DUP6 DUP8 SUB SLT ISZERO PUSH2 0x47B1 JUMPI PUSH1 0x0 DUP1 REVERT JUMPDEST DUP5 CALLDATALOAD PUSH8 0xFFFFFFFFFFFFFFFF DUP1 DUP3 GT ISZERO PUSH2 0x47C9 JUMPI PUSH1 0x0 DUP1 REVERT JUMPDEST PUSH2 0x47D5 DUP9 DUP4 DUP10 ADD PUSH2 0x3E56 JUMP JUMPDEST SWAP6 POP PUSH1 0x20 DUP8 ADD CALLDATALOAD SWAP2 POP DUP1 DUP3 GT ISZERO PUSH2 0x47EB JUMPI PUSH1 0x0 DUP1 REVERT JUMPDEST POP PUSH2 0x47F8 DUP8 DUP3 DUP9 ADD PUSH2 0x3E56 JUMP JUMPDEST SWAP4 POP POP PUSH1 0x40 DUP6 ADD CALLDATALOAD PUSH2 0x4809 DUP2 PUSH2 0x4156 JUMP JUMPDEST SWAP4 SWAP7 SWAP3 SWAP6 POP SWAP3 SWAP4 PUSH1 0x60 ADD CALLDATALOAD SWAP3 POP POP JUMP JUMPDEST PUSH1 0x0 PUSH2 0x4827 PUSH2 0x3E75 DUP5 PUSH2 0x3E2E JUMP JUMPDEST SWAP1 POP DUP3 DUP2 MSTORE DUP4 DUP4 DUP4 ADD GT ISZERO PUSH2 0x483B JUMPI PUSH1 0x0 DUP1 REVERT JUMPDEST PUSH2 0x2A0C DUP4 PUSH1 0x20 DUP4 ADD DUP5 PUSH2 0x40EB JUMP JUMPDEST PUSH1 0x0 DUP3 PUSH1 0x1F DUP4 ADD SLT PUSH2 0x485A JUMPI PUSH1 0x0 DUP1 REVERT JUMPDEST DUP2 MLOAD PUSH1 0x20 PUSH2 0x486A PUSH2 0x3E75 DUP4 PUSH2 0x4639 JUMP JUMPDEST DUP3 DUP2 MSTORE PUSH1 0x5 SWAP3 SWAP1 SWAP3 SHL DUP5 ADD DUP2 ADD SWAP2 DUP2 DUP2 ADD SWAP1 DUP7 DUP5 GT ISZERO PUSH2 0x4889 JUMPI PUSH1 0x0 DUP1 REVERT JUMPDEST DUP3 DUP7 ADD JUMPDEST DUP5 DUP2 LT ISZERO PUSH2 0x628 JUMPI DUP1 MLOAD PUSH8 0xFFFFFFFFFFFFFFFF DUP2 GT ISZERO PUSH2 0x48AD JUMPI PUSH1 0x0 DUP1 DUP2 REVERT JUMPDEST DUP8 ADD PUSH1 0x3F DUP2 ADD DUP10 SGT PUSH2 0x48BF JUMPI PUSH1 0x0 DUP1 DUP2 REVERT JUMPDEST PUSH2 0x48D0 DUP10 DUP7 DUP4 ADD MLOAD PUSH1 0x40 DUP5 ADD PUSH2 0x4819 JUMP JUMPDEST DUP5 MSTORE POP SWAP2 DUP4 ADD SWAP2 DUP4 ADD PUSH2 0x488D JUMP JUMPDEST PUSH1 0x0 DUP3 PUSH1 0x1F DUP4 ADD SLT PUSH2 0x48EF JUMPI PUSH1 0x0 DUP1 REVERT JUMPDEST PUSH2 0x2A0C DUP4 DUP4 MLOAD PUSH1 0x20 DUP6 ADD PUSH2 0x4819 JUMP JUMPDEST PUSH1 0x0 DUP3 PUSH1 0x1F DUP4 ADD SLT PUSH2 0x490F JUMPI PUSH1 0x0 DUP1 REVERT JUMPDEST DUP2 MLOAD PUSH1 0x20 PUSH2 0x491F PUSH2 0x3E75 DUP4 PUSH2 0x4639 JUMP JUMPDEST DUP3 DUP2 MSTORE PUSH1 0x5 SWAP3 SWAP1 SWAP3 SHL DUP5 ADD DUP2 ADD SWAP2 DUP2 DUP2 ADD SWAP1 DUP7 DUP5 GT ISZERO PUSH2 0x493E JUMPI PUSH1 0x0 DUP1 REVERT JUMPDEST DUP3 DUP7 ADD JUMPDEST DUP5 DUP2 LT ISZERO PUSH2 0x628 JUMPI DUP1 MLOAD PUSH8 0xFFFFFFFFFFFFFFFF DUP2 GT ISZERO PUSH2 0x4962 JUMPI PUSH1 0x0 DUP1 DUP2 REVERT JUMPDEST PUSH2 0x4970 DUP10 DUP7 DUP4 DUP12 ADD ADD PUSH2 0x48DE JUMP JUMPDEST DUP5 MSTORE POP SWAP2 DUP4 ADD SWAP2 DUP4 ADD PUSH2 0x4942 JUMP JUMPDEST PUSH1 0x0 DUP1 PUSH1 0x0 DUP1 PUSH1 0x0 PUSH1 0xA0 DUP7 DUP9 SUB SLT ISZERO PUSH2 0x4996 JUMPI PUSH1 0x0 DUP1 REVERT JUMPDEST DUP6 MLOAD SWAP5 POP PUSH1 0x20 DUP1 DUP8 ADD MLOAD PUSH1 0x3 DUP2 LT PUSH2 0x49AD JUMPI PUSH1 0x0 DUP1 REVERT JUMPDEST PUSH1 0x40 DUP9 ADD MLOAD SWAP1 SWAP6 POP PUSH8 0xFFFFFFFFFFFFFFFF DUP1 DUP3 GT ISZERO PUSH2 0x49CB JUMPI PUSH1 0x0 DUP1 REVERT JUMPDEST DUP2 DUP10 ADD SWAP2 POP DUP10 PUSH1 0x1F DUP4 ADD SLT PUSH2 0x49DF JUMPI PUSH1 0x0 DUP1 REVERT JUMPDEST DUP2 MLOAD PUSH2 0x49ED PUSH2 0x3E75 DUP3 PUSH2 0x4639 JUMP JUMPDEST DUP2 DUP2 MSTORE PUSH1 0x5 SWAP2 SWAP1 SWAP2 SHL DUP4 ADD DUP5 ADD SWAP1 DUP5 DUP2 ADD SWAP1 DUP13 DUP4 GT ISZERO PUSH2 0x4A0C JUMPI PUSH1 0x0 DUP1 REVERT JUMPDEST SWAP4 DUP6 ADD SWAP4 JUMPDEST DUP3 DUP6 LT ISZERO PUSH2 0x4A2A JUMPI DUP5 MLOAD DUP3 MSTORE SWAP4 DUP6 ADD SWAP4 SWAP1 DUP6 ADD SWAP1 PUSH2 0x4A11 JUMP JUMPDEST PUSH1 0x60 DUP13 ADD MLOAD SWAP1 SWAP9 POP SWAP5 POP POP POP DUP1 DUP4 GT ISZERO PUSH2 0x4A43 JUMPI PUSH1 0x0 DUP1 REVERT JUMPDEST PUSH2 0x4A4F DUP11 DUP5 DUP12 ADD PUSH2 0x4849 JUMP JUMPDEST SWAP5 POP PUSH1 0x80 DUP10 ADD MLOAD SWAP3 POP DUP1 DUP4 GT ISZERO PUSH2 0x4A65 JUMPI PUSH1 0x0 DUP1 REVERT JUMPDEST POP POP PUSH2 0x4A73 DUP9 DUP3 DUP10 ADD PUSH2 0x48FE JUMP JUMPDEST SWAP2 POP POP SWAP3 SWAP6 POP SWAP3 SWAP6 SWAP1 SWAP4 POP JUMP JUMPDEST PUSH32 0x4E487B7100000000000000000000000000000000000000000000000000000000 PUSH1 0x0 MSTORE PUSH1 0x21 PUSH1 0x4 MSTORE PUSH1 0x24 PUSH1 0x0 REVERT JUMPDEST PUSH32 0x4E487B7100000000000000000000000000000000000000000000000000000000 PUSH1 0x0 MSTORE PUSH1 0x32 PUSH1 0x4 MSTORE PUSH1 0x24 PUSH1 0x0 REVERT JUMPDEST PUSH1 0x40 DUP2 MSTORE PUSH1 0x0 PUSH2 0x4AF1 PUSH1 0x40 DUP4 ADD DUP6 PUSH2 0x4117 JUMP JUMPDEST SWAP1 POP DUP3 PUSH1 0x20 DUP4 ADD MSTORE SWAP4 SWAP3 POP POP POP JUMP JUMPDEST DUP9 DUP2 MSTORE DUP8 PUSH1 0x20 DUP3 ADD MSTORE PUSH1 0x0 DUP8 MLOAD PUSH2 0x4B1E DUP2 PUSH1 0x40 DUP6 ADD PUSH1 0x20 DUP13 ADD PUSH2 0x40EB JUMP JUMPDEST DUP8 MLOAD SWAP1 DUP4 ADD SWAP1 PUSH2 0x4B35 DUP2 PUSH1 0x40 DUP5 ADD PUSH1 0x20 DUP13 ADD PUSH2 0x40EB JUMP JUMPDEST DUP1 DUP3 ADD SWAP2 POP POP PUSH32 0xFFFFFFFFFFFFFFFFFFFFFFFFFFFFFFFFFFFFFFFF000000000000000000000000 DUP8 PUSH1 0x60 SHL AND PUSH1 0x40 DUP3 ADD MSTORE DUP6 PUSH1 0x54 DUP3 ADD MSTORE DUP5 MLOAD PUSH2 0x4B7F DUP2 PUSH1 0x74 DUP5 ADD PUSH1 0x20 DUP10 ADD PUSH2 0x40EB JUMP JUMPDEST ADD PUSH1 0x74 DUP2 ADD SWAP4 SWAP1 SWAP4 MSTORE POP POP PUSH1 0x94 ADD SWAP8 SWAP7 POP POP POP POP POP POP POP JUMP JUMPDEST PUSH1 0x0 PUSH1 0x20 DUP3 DUP5 SUB SLT ISZERO PUSH2 0x4BAA JUMPI PUSH1 0x0 DUP1 REVERT JUMPDEST DUP2 MLOAD PUSH2 0x2A0C DUP2 PUSH2 0x4156 JUMP JUMPDEST DUP3 DUP2 MSTORE PUSH1 0x0 DUP3 MLOAD PUSH2 0x4BCD DUP2 PUSH1 0x20 DUP6 ADD PUSH1 0x20 DUP8 ADD PUSH2 0x40EB JUMP JUMPDEST SWAP2 SWAP1 SWAP2 ADD PUSH1 0x20 ADD SWAP4 SWAP3 POP POP POP JUMP JUMPDEST PUSH1 0x0 PUSH1 0x20 DUP3 DUP5 SUB SLT ISZERO PUSH2 0x4BED JUMPI PUSH1 0x0 DUP1 REVERT JUMPDEST POP MLOAD SWAP2 SWAP1 POP JUMP JUMPDEST PUSH1 0x1 PUSH1 0x1 PUSH1 0xA0 SHL SUB DUP4 AND DUP2 MSTORE PUSH1 0x40 PUSH1 0x20 DUP3 ADD MSTORE PUSH1 0x0 PUSH2 0x2A9C PUSH1 0x40 DUP4 ADD DUP5 PUSH2 0x4117 JUMP JUMPDEST DUP1 MLOAD DUP1 ISZERO ISZERO DUP2 EQ PUSH2 0x42EB JUMPI PUSH1 0x0 DUP1 REVERT JUMPDEST PUSH1 0x0 DUP1 PUSH1 0x40 DUP4 DUP6 SUB SLT ISZERO PUSH2 0x4C39 JUMPI PUSH1 0x0 DUP1 REVERT JUMPDEST PUSH2 0x4C42 DUP4 PUSH2 0x4C16 JUMP JUMPDEST SWAP2 POP PUSH1 0x20 DUP4 ADD MLOAD PUSH8 0xFFFFFFFFFFFFFFFF DUP2 GT ISZERO PUSH2 0x4C5E JUMPI PUSH1 0x0 DUP1 REVERT JUMPDEST PUSH2 0x42D6 DUP6 DUP3 DUP7 ADD PUSH2 0x48DE JUMP JUMPDEST PUSH1 0x0 PUSH1 0x20 DUP3 DUP5 SUB SLT ISZERO PUSH2 0x4C7C JUMPI PUSH1 0x0 DUP1 REVERT JUMPDEST PUSH2 0x2A0C DUP3 PUSH2 0x4C16 JUMP JUMPDEST DUP7 DUP2 MSTORE DUP6 PUSH1 0x20 DUP3 ADD MSTORE PUSH1 0x0 DUP6 MLOAD PUSH2 0x4CA3 DUP2 PUSH1 0x40 DUP6 ADD PUSH1 0x20 DUP11 ADD PUSH2 0x40EB JUMP JUMPDEST DUP6 MLOAD SWAP1 DUP4 ADD SWAP1 PUSH2 0x4CBA DUP2 PUSH1 0x40 DUP5 ADD PUSH1 0x20 DUP11 ADD PUSH2 0x40EB JUMP JUMPDEST PUSH1 0x60 SWAP6 SWAP1 SWAP6 SHL PUSH32 0xFFFFFFFFFFFFFFFFFFFFFFFFFFFFFFFFFFFFFFFF000000000000000000000000 AND PUSH1 0x40 SWAP2 SWAP1 SWAP6 ADD SWAP1 DUP2 ADD SWAP5 SWAP1 SWAP5 MSTORE POP POP PUSH1 0x54 DUP3 ADD MSTORE PUSH1 0x74 ADD SWAP5 SWAP4 POP POP POP POP JUMP JUMPDEST PUSH1 0xA0 DUP2 MSTORE PUSH1 0x0 PUSH2 0x4D14 PUSH1 0xA0 DUP4 ADD DUP9 PUSH2 0x4117 JUMP JUMPDEST DUP3 DUP2 SUB PUSH1 0x20 DUP5 ADD MSTORE PUSH2 0x4D26 DUP2 DUP9 PUSH2 0x4117 JUMP JUMPDEST PUSH1 0xFF SWAP7 SWAP1 SWAP7 AND PUSH1 0x40 DUP5 ADD MSTORE POP POP PUSH1 0x60 DUP2 ADD SWAP3 SWAP1 SWAP3 MSTORE PUSH1 0x80 SWAP1 SWAP2 ADD MSTORE SWAP3 SWAP2 POP POP JUMP JUMPDEST PUSH1 0x40 DUP2 MSTORE PUSH1 0x0 PUSH2 0x4D5A PUSH1 0x40 DUP4 ADD DUP6 PUSH2 0x4117 JUMP JUMPDEST SWAP1 POP PUSH1 0x1 PUSH1 0x1 PUSH1 0xA0 SHL SUB DUP4 AND PUSH1 0x20 DUP4 ADD MSTORE SWAP4 SWAP3 POP POP POP JUMP JUMPDEST PUSH1 0x0 DUP3 DUP3 LT ISZERO PUSH2 0x4D84 JUMPI PUSH2 0x4D84 PUSH2 0x43DA JUMP JUMPDEST POP SUB SWAP1 JUMP JUMPDEST PUSH1 0x0 DUP2 PUSH2 0x4D98 JUMPI PUSH2 0x4D98 PUSH2 0x43DA JUMP JUMPDEST POP PUSH32 0xFFFFFFFFFFFFFFFFFFFFFFFFFFFFFFFFFFFFFFFFFFFFFFFFFFFFFFFFFFFFFFFF ADD SWAP1 JUMP INVALID PUSH1 0x80 PUSH1 0x40 MSTORE PUSH1 0x0 DUP1 SSTORE CALLVALUE DUP1 ISZERO PUSH2 0x14 JUMPI PUSH1 0x0 DUP1 REVERT JUMPDEST POP PUSH2 0x2C7 DUP1 PUSH2 0x24 PUSH1 0x0 CODECOPY PUSH1 0x0 RETURN INVALID PUSH1 0x80 PUSH1 0x40 MSTORE CALLVALUE DUP1 ISZERO PUSH2 0x10 JUMPI PUSH1 0x0 DUP1 REVERT JUMPDEST POP PUSH1 0x4 CALLDATASIZE LT PUSH2 0x35 JUMPI PUSH1 0x0 CALLDATALOAD PUSH1 0xE0 SHR DUP1 PUSH3 0xF55D9D EQ PUSH2 0x3A JUMPI DUP1 PUSH4 0x1CFF79CD EQ PUSH2 0x4F JUMPI JUMPDEST PUSH1 0x0 DUP1 REVERT JUMPDEST PUSH2 0x4D PUSH2 0x48 CALLDATASIZE PUSH1 0x4 PUSH2 0x15F JUMP JUMPDEST PUSH2 0x79 JUMP JUMPDEST STOP JUMPDEST PUSH2 0x62 PUSH2 0x5D CALLDATASIZE PUSH1 0x4 PUSH2 0x181 JUMP JUMPDEST PUSH2 0xA4 JUMP JUMPDEST PUSH1 0x40 MLOAD PUSH2 0x70 SWAP3 SWAP2 SWAP1 PUSH2 0x204 JUMP JUMPDEST PUSH1 0x40 MLOAD DUP1 SWAP2 SUB SWAP1 RETURN JUMPDEST PUSH1 0x0 SLOAD ISZERO PUSH2 0x86 JUMPI PUSH1 0x0 DUP1 REVERT JUMPDEST PUSH1 0x1 PUSH1 0x0 SSTORE PUSH20 0xFFFFFFFFFFFFFFFFFFFFFFFFFFFFFFFFFFFFFFFF DUP2 AND SELFDESTRUCT JUMPDEST PUSH1 0x0 PUSH1 0x60 PUSH1 0x0 DUP1 SLOAD EQ PUSH2 0xB6 JUMPI PUSH1 0x0 DUP1 REVERT JUMPDEST PUSH1 0x1 PUSH1 0x0 SSTORE PUSH1 0x40 MLOAD PUSH20 0xFFFFFFFFFFFFFFFFFFFFFFFFFFFFFFFFFFFFFFFF DUP7 AND SWAP1 PUSH2 0xE3 SWAP1 DUP7 SWAP1 DUP7 SWAP1 PUSH2 0x281 JUMP JUMPDEST PUSH1 0x0 PUSH1 0x40 MLOAD DUP1 DUP4 SUB DUP2 PUSH1 0x0 DUP7 GAS CALL SWAP2 POP POP RETURNDATASIZE DUP1 PUSH1 0x0 DUP2 EQ PUSH2 0x120 JUMPI PUSH1 0x40 MLOAD SWAP2 POP PUSH1 0x1F NOT PUSH1 0x3F RETURNDATASIZE ADD AND DUP3 ADD PUSH1 0x40 MSTORE RETURNDATASIZE DUP3 MSTORE RETURNDATASIZE PUSH1 0x0 PUSH1 0x20 DUP5 ADD RETURNDATACOPY PUSH2 0x125 JUMP JUMPDEST PUSH1 0x60 SWAP2 POP JUMPDEST POP PUSH1 0x0 DUP1 SSTORE SWAP1 SWAP7 SWAP1 SWAP6 POP SWAP4 POP POP POP POP JUMP JUMPDEST DUP1 CALLDATALOAD PUSH20 0xFFFFFFFFFFFFFFFFFFFFFFFFFFFFFFFFFFFFFFFF DUP2 AND DUP2 EQ PUSH2 0x15A JUMPI PUSH1 0x0 DUP1 REVERT JUMPDEST SWAP2 SWAP1 POP JUMP JUMPDEST PUSH1 0x0 PUSH1 0x20 DUP3 DUP5 SUB SLT ISZERO PUSH2 0x171 JUMPI PUSH1 0x0 DUP1 REVERT JUMPDEST PUSH2 0x17A DUP3 PUSH2 0x136 JUMP JUMPDEST SWAP4 SWAP3 POP POP POP JUMP JUMPDEST PUSH1 0x0 DUP1 PUSH1 0x0 PUSH1 0x40 DUP5 DUP7 SUB SLT ISZERO PUSH2 0x196 JUMPI PUSH1 0x0 DUP1 REVERT JUMPDEST PUSH2 0x19F DUP5 PUSH2 0x136 JUMP JUMPDEST SWAP3 POP PUSH1 0x20 DUP5 ADD CALLDATALOAD PUSH8 0xFFFFFFFFFFFFFFFF DUP1 DUP3 GT ISZERO PUSH2 0x1BC JUMPI PUSH1 0x0 DUP1 REVERT JUMPDEST DUP2 DUP7 ADD SWAP2 POP DUP7 PUSH1 0x1F DUP4 ADD SLT PUSH2 0x1D0 JUMPI PUSH1 0x0 DUP1 REVERT JUMPDEST DUP2 CALLDATALOAD DUP2 DUP2 GT ISZERO PUSH2 0x1DF JUMPI PUSH1 0x0 DUP1 REVERT JUMPDEST DUP8 PUSH1 0x20 DUP3 DUP6 ADD ADD GT ISZERO PUSH2 0x1F1 JUMPI PUSH1 0x0 DUP1 REVERT JUMPDEST PUSH1 0x20 DUP4 ADD SWAP5 POP DUP1 SWAP4 POP POP POP POP SWAP3 POP SWAP3 POP SWAP3 JUMP JUMPDEST DUP3 ISZERO ISZERO DUP2 MSTORE PUSH1 0x0 PUSH1 0x20 PUSH1 0x40 DUP2 DUP5 ADD MSTORE DUP4 MLOAD DUP1 PUSH1 0x40 DUP6 ADD MSTORE PUSH1 0x0 JUMPDEST DUP2 DUP2 LT ISZERO PUSH2 0x23A JUMPI DUP6 DUP2 ADD DUP4 ADD MLOAD DUP6 DUP3 ADD PUSH1 0x60 ADD MSTORE DUP3 ADD PUSH2 0x21E JUMP JUMPDEST DUP2 DUP2 GT ISZERO PUSH2 0x24C JUMPI PUSH1 0x0 PUSH1 0x60 DUP4 DUP8 ADD ADD MSTORE JUMPDEST POP PUSH1 0x1F ADD PUSH32 0xFFFFFFFFFFFFFFFFFFFFFFFFFFFFFFFFFFFFFFFFFFFFFFFFFFFFFFFFFFFFFFE0 AND SWAP3 SWAP1 SWAP3 ADD PUSH1 0x60 ADD SWAP5 SWAP4 POP POP POP POP JUMP JUMPDEST DUP2 DUP4 DUP3 CALLDATACOPY PUSH1 0x0 SWAP2 ADD SWAP1 DUP2 MSTORE SWAP2 SWAP1 POP JUMP INVALID LOG2 PUSH5 0x6970667358 0x22 SLT KECCAK256 REVERT 0xD6 0xDB JUMPDEST 0xBA EXP REVERT 0x25 0x1F 0xCE 0xFC 0xEC CODECOPY SGT PUSH6 0xB375890325F 0xD2 0xD7 ISZERO 0x2A SELFDESTRUCT LOG2 0xDA PUSH28 0xD2749664736F6C63430008090033A26469706673582212204A578515 DUP9 SELFBALANCE DUP8 SWAP10 0x28 0xBA CALLDATACOPY PUSH27 0xF5B98C439DCBAA26725EB24B8D4E0181D179BC4264736F6C634300 ADDMOD MULMOD STOP CALLER "
    }
  }
}