{
  "abi": [
    {
      "inputs": [
        {
          "internalType": "address",
          "name": "tokenDeployer",
          "type": "address"
        }
      ],
      "stateMutability": "nonpayable",
      "type": "constructor"
    },
    {
      "inputs": [],
      "name": "AlreadyVoted",
      "type": "error"
    },
    {
      "inputs": [
        {
          "internalType": "string",
          "name": "symbol",
          "type": "string"
        }
      ],
      "name": "BurnFailed",
      "type": "error"
    },
    {
      "inputs": [
        {
          "internalType": "address",
          "name": "admin",
          "type": "address"
        }
      ],
      "name": "DuplicateAdmin",
      "type": "error"
    },
    {
      "inputs": [],
      "name": "InvalidAddress",
      "type": "error"
    },
    {
      "inputs": [],
      "name": "InvalidAdminThreshold",
      "type": "error"
    },
    {
      "inputs": [],
      "name": "InvalidAdmins",
      "type": "error"
    },
    {
      "inputs": [],
      "name": "InvalidAmount",
      "type": "error"
    },
    {
      "inputs": [],
      "name": "InvalidChainId",
      "type": "error"
    },
    {
      "inputs": [],
      "name": "InvalidCodeHash",
      "type": "error"
    },
    {
      "inputs": [],
      "name": "InvalidCommands",
      "type": "error"
    },
    {
      "inputs": [],
      "name": "InvalidS",
      "type": "error"
    },
    {
      "inputs": [],
      "name": "InvalidSignature",
      "type": "error"
    },
    {
      "inputs": [],
      "name": "InvalidSignatureLength",
      "type": "error"
    },
    {
      "inputs": [],
      "name": "InvalidTokenDeployer",
      "type": "error"
    },
    {
      "inputs": [],
      "name": "InvalidV",
      "type": "error"
    },
    {
      "inputs": [
        {
          "internalType": "string",
          "name": "symbol",
          "type": "string"
        }
      ],
      "name": "MintFailed",
      "type": "error"
    },
    {
      "inputs": [],
      "name": "NotAdmin",
      "type": "error"
    },
    {
      "inputs": [],
      "name": "NotProxy",
      "type": "error"
    },
    {
      "inputs": [],
      "name": "NotSelf",
      "type": "error"
    },
    {
      "inputs": [],
      "name": "SetupFailed",
      "type": "error"
    },
    {
      "inputs": [
        {
          "internalType": "string",
          "name": "symbol",
          "type": "string"
        }
      ],
      "name": "TokenAlreadyExists",
      "type": "error"
    },
    {
      "inputs": [
        {
          "internalType": "address",
          "name": "token",
          "type": "address"
        }
      ],
      "name": "TokenContractDoesNotExist",
      "type": "error"
    },
    {
      "inputs": [
        {
          "internalType": "string",
          "name": "symbol",
          "type": "string"
        }
      ],
      "name": "TokenDeployFailed",
      "type": "error"
    },
    {
      "inputs": [
        {
          "internalType": "string",
          "name": "symbol",
          "type": "string"
        }
      ],
      "name": "TokenDoesNotExist",
      "type": "error"
    },
    {
      "inputs": [
        {
          "internalType": "string",
          "name": "symbol",
          "type": "string"
        }
      ],
      "name": "TokenIsFrozen",
      "type": "error"
    },
    {
      "anonymous": false,
      "inputs": [
        {
          "indexed": true,
          "internalType": "address",
          "name": "account",
          "type": "address"
        }
      ],
      "name": "AccountBlacklisted",
      "type": "event"
    },
    {
      "anonymous": false,
      "inputs": [
        {
          "indexed": true,
          "internalType": "address",
          "name": "account",
          "type": "address"
        }
      ],
      "name": "AccountWhitelisted",
      "type": "event"
    },
    {
      "anonymous": false,
      "inputs": [],
      "name": "AllTokensFrozen",
      "type": "event"
    },
    {
      "anonymous": false,
      "inputs": [],
      "name": "AllTokensUnfrozen",
      "type": "event"
    },
    {
      "anonymous": false,
      "inputs": [
        {
          "indexed": true,
          "internalType": "address",
          "name": "sender",
          "type": "address"
        },
        {
          "indexed": false,
          "internalType": "string",
          "name": "destinationChain",
          "type": "string"
        },
        {
          "indexed": false,
          "internalType": "string",
          "name": "destinationContractAddress",
          "type": "string"
        },
        {
          "indexed": true,
          "internalType": "bytes32",
          "name": "payloadHash",
          "type": "bytes32"
        },
        {
          "indexed": false,
          "internalType": "bytes",
          "name": "payload",
          "type": "bytes"
        }
      ],
      "name": "ContractCall",
      "type": "event"
    },
    {
      "anonymous": false,
      "inputs": [
        {
          "indexed": true,
          "internalType": "bytes32",
          "name": "commandId",
          "type": "bytes32"
        },
        {
          "indexed": false,
          "internalType": "string",
          "name": "sourceChain",
          "type": "string"
        },
        {
          "indexed": false,
          "internalType": "string",
          "name": "sourceAddress",
          "type": "string"
        },
        {
          "indexed": true,
          "internalType": "address",
          "name": "contractAddress",
          "type": "address"
        },
        {
          "indexed": true,
          "internalType": "bytes32",
          "name": "payloadHash",
          "type": "bytes32"
        },
        {
          "indexed": false,
          "internalType": "bytes32",
          "name": "sourceTxHash",
          "type": "bytes32"
        },
        {
          "indexed": false,
          "internalType": "uint256",
          "name": "sourceEventIndex",
          "type": "uint256"
        }
      ],
      "name": "ContractCallApproved",
      "type": "event"
    },
    {
      "anonymous": false,
      "inputs": [
        {
          "indexed": true,
          "internalType": "bytes32",
          "name": "commandId",
          "type": "bytes32"
        },
        {
          "indexed": false,
          "internalType": "string",
          "name": "sourceChain",
          "type": "string"
        },
        {
          "indexed": false,
          "internalType": "string",
          "name": "sourceAddress",
          "type": "string"
        },
        {
          "indexed": true,
          "internalType": "address",
          "name": "contractAddress",
          "type": "address"
        },
        {
          "indexed": true,
          "internalType": "bytes32",
          "name": "payloadHash",
          "type": "bytes32"
        },
        {
          "indexed": false,
          "internalType": "string",
          "name": "symbol",
          "type": "string"
        },
        {
          "indexed": false,
          "internalType": "uint256",
          "name": "amount",
          "type": "uint256"
        },
        {
          "indexed": false,
          "internalType": "bytes32",
          "name": "sourceTxHash",
          "type": "bytes32"
        },
        {
          "indexed": false,
          "internalType": "uint256",
          "name": "sourceEventIndex",
          "type": "uint256"
        }
      ],
      "name": "ContractCallApprovedWithMint",
      "type": "event"
    },
    {
      "anonymous": false,
      "inputs": [
        {
          "indexed": true,
          "internalType": "address",
          "name": "sender",
          "type": "address"
        },
        {
          "indexed": false,
          "internalType": "string",
          "name": "destinationChain",
          "type": "string"
        },
        {
          "indexed": false,
          "internalType": "string",
          "name": "destinationContractAddress",
          "type": "string"
        },
        {
          "indexed": true,
          "internalType": "bytes32",
          "name": "payloadHash",
          "type": "bytes32"
        },
        {
          "indexed": false,
          "internalType": "bytes",
          "name": "payload",
          "type": "bytes"
        },
        {
          "indexed": false,
          "internalType": "string",
          "name": "symbol",
          "type": "string"
        },
        {
          "indexed": false,
          "internalType": "uint256",
          "name": "amount",
          "type": "uint256"
        }
      ],
      "name": "ContractCallWithToken",
      "type": "event"
    },
    {
      "anonymous": false,
      "inputs": [
        {
          "indexed": true,
          "internalType": "bytes32",
          "name": "commandId",
          "type": "bytes32"
        }
      ],
      "name": "Executed",
      "type": "event"
    },
    {
      "anonymous": false,
      "inputs": [
        {
          "indexed": true,
          "internalType": "address",
          "name": "previousOperator",
          "type": "address"
        },
        {
          "indexed": true,
          "internalType": "address",
          "name": "newOperator",
          "type": "address"
        }
      ],
      "name": "OperatorshipTransferred",
      "type": "event"
    },
    {
      "anonymous": false,
      "inputs": [
        {
          "indexed": true,
          "internalType": "address",
          "name": "previousOwner",
          "type": "address"
        },
        {
          "indexed": true,
          "internalType": "address",
          "name": "newOwner",
          "type": "address"
        }
      ],
      "name": "OwnershipTransferred",
      "type": "event"
    },
    {
      "anonymous": false,
      "inputs": [
        {
          "indexed": false,
          "internalType": "string",
          "name": "symbol",
          "type": "string"
        },
        {
          "indexed": false,
          "internalType": "address",
          "name": "tokenAddresses",
          "type": "address"
        }
      ],
      "name": "TokenDeployed",
      "type": "event"
    },
    {
      "anonymous": false,
      "inputs": [
        {
          "indexed": false,
          "internalType": "string",
          "name": "symbol",
          "type": "string"
        }
      ],
      "name": "TokenFrozen",
      "type": "event"
    },
    {
      "anonymous": false,
      "inputs": [
        {
          "indexed": true,
          "internalType": "address",
          "name": "sender",
          "type": "address"
        },
        {
          "indexed": false,
          "internalType": "string",
          "name": "destinationChain",
          "type": "string"
        },
        {
          "indexed": false,
          "internalType": "string",
          "name": "destinationAddress",
          "type": "string"
        },
        {
          "indexed": false,
          "internalType": "string",
          "name": "symbol",
          "type": "string"
        },
        {
          "indexed": false,
          "internalType": "uint256",
          "name": "amount",
          "type": "uint256"
        }
      ],
      "name": "TokenSent",
      "type": "event"
    },
    {
      "anonymous": false,
      "inputs": [
        {
          "indexed": false,
          "internalType": "string",
          "name": "symbol",
          "type": "string"
        }
      ],
      "name": "TokenUnfrozen",
      "type": "event"
    },
    {
      "anonymous": false,
      "inputs": [
        {
          "indexed": true,
          "internalType": "address",
          "name": "implementation",
          "type": "address"
        }
      ],
      "name": "Upgraded",
      "type": "event"
    },
    {
      "inputs": [],
      "name": "adminEpoch",
      "outputs": [
        {
          "internalType": "uint256",
          "name": "",
          "type": "uint256"
        }
      ],
      "stateMutability": "view",
      "type": "function"
    },
    {
      "inputs": [
        {
          "internalType": "uint256",
          "name": "epoch",
          "type": "uint256"
        }
      ],
      "name": "adminThreshold",
      "outputs": [
        {
          "internalType": "uint256",
          "name": "",
          "type": "uint256"
        }
      ],
      "stateMutability": "view",
      "type": "function"
    },
    {
      "inputs": [
        {
          "internalType": "uint256",
          "name": "epoch",
          "type": "uint256"
        }
      ],
      "name": "admins",
      "outputs": [
        {
          "internalType": "address[]",
          "name": "results",
          "type": "address[]"
        }
      ],
      "stateMutability": "view",
      "type": "function"
    },
    {
      "inputs": [],
      "name": "allTokensFrozen",
      "outputs": [
        {
          "internalType": "bool",
          "name": "",
          "type": "bool"
        }
      ],
      "stateMutability": "view",
      "type": "function"
    },
    {
      "inputs": [
        {
          "internalType": "bytes",
          "name": "params",
          "type": "bytes"
        },
        {
          "internalType": "bytes32",
          "name": "commandId",
          "type": "bytes32"
        }
      ],
      "name": "approveContractCall",
      "outputs": [],
      "stateMutability": "nonpayable",
      "type": "function"
    },
    {
      "inputs": [
        {
          "internalType": "bytes",
          "name": "params",
          "type": "bytes"
        },
        {
          "internalType": "bytes32",
          "name": "commandId",
          "type": "bytes32"
        }
      ],
      "name": "approveContractCallWithMint",
      "outputs": [],
      "stateMutability": "nonpayable",
      "type": "function"
    },
    {
      "inputs": [
        {
          "internalType": "bytes",
          "name": "params",
          "type": "bytes"
        },
        {
          "internalType": "bytes32",
          "name": "",
          "type": "bytes32"
        }
      ],
      "name": "burnToken",
      "outputs": [],
      "stateMutability": "nonpayable",
      "type": "function"
    },
    {
      "inputs": [
        {
          "internalType": "string",
          "name": "destinationChain",
          "type": "string"
        },
        {
          "internalType": "string",
          "name": "destinationContractAddress",
          "type": "string"
        },
        {
          "internalType": "bytes",
          "name": "payload",
          "type": "bytes"
        }
      ],
      "name": "callContract",
      "outputs": [],
      "stateMutability": "nonpayable",
      "type": "function"
    },
    {
      "inputs": [
        {
          "internalType": "string",
          "name": "destinationChain",
          "type": "string"
        },
        {
          "internalType": "string",
          "name": "destinationContractAddress",
          "type": "string"
        },
        {
          "internalType": "bytes",
          "name": "payload",
          "type": "bytes"
        },
        {
          "internalType": "string",
          "name": "symbol",
          "type": "string"
        },
        {
          "internalType": "uint256",
          "name": "amount",
          "type": "uint256"
        }
      ],
      "name": "callContractWithToken",
      "outputs": [],
      "stateMutability": "nonpayable",
      "type": "function"
    },
    {
      "inputs": [
        {
          "internalType": "bytes",
          "name": "params",
          "type": "bytes"
        },
        {
          "internalType": "bytes32",
          "name": "",
          "type": "bytes32"
        }
      ],
      "name": "deployToken",
      "outputs": [],
      "stateMutability": "nonpayable",
      "type": "function"
    },
    {
      "inputs": [
        {
          "internalType": "bytes",
          "name": "input",
          "type": "bytes"
        }
      ],
      "name": "execute",
      "outputs": [],
      "stateMutability": "nonpayable",
      "type": "function"
    },
    {
      "inputs": [],
      "name": "freezeAllTokens",
      "outputs": [],
      "stateMutability": "nonpayable",
      "type": "function"
    },
    {
      "inputs": [
        {
          "internalType": "string",
          "name": "symbol",
          "type": "string"
        }
      ],
      "name": "freezeToken",
      "outputs": [],
      "stateMutability": "nonpayable",
      "type": "function"
    },
    {
      "inputs": [
        {
          "internalType": "bytes32",
          "name": "key",
          "type": "bytes32"
        }
      ],
      "name": "getAddress",
      "outputs": [
        {
          "internalType": "address",
          "name": "",
          "type": "address"
        }
      ],
      "stateMutability": "view",
      "type": "function"
    },
    {
      "inputs": [
        {
          "internalType": "bytes32",
          "name": "key",
          "type": "bytes32"
        }
      ],
      "name": "getBool",
      "outputs": [
        {
          "internalType": "bool",
          "name": "",
          "type": "bool"
        }
      ],
      "stateMutability": "view",
      "type": "function"
    },
    {
      "inputs": [
        {
          "internalType": "bytes32",
          "name": "key",
          "type": "bytes32"
        }
      ],
      "name": "getBytes",
      "outputs": [
        {
          "internalType": "bytes",
          "name": "",
          "type": "bytes"
        }
      ],
      "stateMutability": "view",
      "type": "function"
    },
    {
      "inputs": [
        {
          "internalType": "bytes32",
          "name": "key",
          "type": "bytes32"
        }
      ],
      "name": "getInt",
      "outputs": [
        {
          "internalType": "int256",
          "name": "",
          "type": "int256"
        }
      ],
      "stateMutability": "view",
      "type": "function"
    },
    {
      "inputs": [
        {
          "internalType": "bytes32",
          "name": "key",
          "type": "bytes32"
        }
      ],
      "name": "getString",
      "outputs": [
        {
          "internalType": "string",
          "name": "",
          "type": "string"
        }
      ],
      "stateMutability": "view",
      "type": "function"
    },
    {
      "inputs": [
        {
          "internalType": "bytes32",
          "name": "key",
          "type": "bytes32"
        }
      ],
      "name": "getUint",
      "outputs": [
        {
          "internalType": "uint256",
          "name": "",
          "type": "uint256"
        }
      ],
      "stateMutability": "view",
      "type": "function"
    },
    {
      "inputs": [],
      "name": "implementation",
      "outputs": [
        {
          "internalType": "address",
          "name": "",
          "type": "address"
        }
      ],
      "stateMutability": "view",
      "type": "function"
    },
    {
      "inputs": [
        {
          "internalType": "bytes32",
          "name": "commandId",
          "type": "bytes32"
        }
      ],
      "name": "isCommandExecuted",
      "outputs": [
        {
          "internalType": "bool",
          "name": "",
          "type": "bool"
        }
      ],
      "stateMutability": "view",
      "type": "function"
    },
    {
      "inputs": [
        {
          "internalType": "bytes32",
          "name": "commandId",
          "type": "bytes32"
        },
        {
          "internalType": "string",
          "name": "sourceChain",
          "type": "string"
        },
        {
          "internalType": "string",
          "name": "sourceAddress",
          "type": "string"
        },
        {
          "internalType": "address",
          "name": "contractAddress",
          "type": "address"
        },
        {
          "internalType": "bytes32",
          "name": "payloadHash",
          "type": "bytes32"
        },
        {
          "internalType": "string",
          "name": "symbol",
          "type": "string"
        },
        {
          "internalType": "uint256",
          "name": "amount",
          "type": "uint256"
        }
      ],
      "name": "isContractCallAndMintApproved",
      "outputs": [
        {
          "internalType": "bool",
          "name": "",
          "type": "bool"
        }
      ],
      "stateMutability": "view",
      "type": "function"
    },
    {
      "inputs": [
        {
          "internalType": "bytes32",
          "name": "commandId",
          "type": "bytes32"
        },
        {
          "internalType": "string",
          "name": "sourceChain",
          "type": "string"
        },
        {
          "internalType": "string",
          "name": "sourceAddress",
          "type": "string"
        },
        {
          "internalType": "address",
          "name": "contractAddress",
          "type": "address"
        },
        {
          "internalType": "bytes32",
          "name": "payloadHash",
          "type": "bytes32"
        }
      ],
      "name": "isContractCallApproved",
      "outputs": [
        {
          "internalType": "bool",
          "name": "",
          "type": "bool"
        }
      ],
      "stateMutability": "view",
      "type": "function"
    },
    {
      "inputs": [
        {
          "internalType": "bytes",
          "name": "params",
          "type": "bytes"
        },
        {
          "internalType": "bytes32",
          "name": "",
          "type": "bytes32"
        }
      ],
      "name": "mintToken",
      "outputs": [],
      "stateMutability": "nonpayable",
      "type": "function"
    },
    {
      "inputs": [],
      "name": "operator",
      "outputs": [
        {
          "internalType": "address",
          "name": "",
          "type": "address"
        }
      ],
      "stateMutability": "view",
      "type": "function"
    },
    {
      "inputs": [],
      "name": "owner",
      "outputs": [
        {
          "internalType": "address",
          "name": "",
          "type": "address"
        }
      ],
      "stateMutability": "view",
      "type": "function"
    },
    {
      "inputs": [
        {
          "internalType": "string",
          "name": "destinationChain",
          "type": "string"
        },
        {
          "internalType": "string",
          "name": "destinationAddress",
          "type": "string"
        },
        {
          "internalType": "string",
          "name": "symbol",
          "type": "string"
        },
        {
          "internalType": "uint256",
          "name": "amount",
          "type": "uint256"
        }
      ],
      "name": "sendToken",
      "outputs": [],
      "stateMutability": "nonpayable",
      "type": "function"
    },
    {
      "inputs": [
        {
          "internalType": "bytes",
          "name": "params",
          "type": "bytes"
        }
      ],
      "name": "setup",
      "outputs": [],
      "stateMutability": "nonpayable",
      "type": "function"
    },
    {
      "inputs": [
        {
          "internalType": "string",
          "name": "symbol",
          "type": "string"
        }
      ],
      "name": "tokenAddresses",
      "outputs": [
        {
          "internalType": "address",
          "name": "",
          "type": "address"
        }
      ],
      "stateMutability": "view",
      "type": "function"
    },
    {
      "inputs": [
        {
          "internalType": "string",
          "name": "symbol",
          "type": "string"
        }
      ],
      "name": "tokenFrozen",
      "outputs": [
        {
          "internalType": "bool",
          "name": "",
          "type": "bool"
        }
      ],
      "stateMutability": "view",
      "type": "function"
    },
    {
      "inputs": [
        {
          "internalType": "bytes",
          "name": "params",
          "type": "bytes"
        },
        {
          "internalType": "bytes32",
          "name": "",
          "type": "bytes32"
        }
      ],
      "name": "transferOperatorship",
      "outputs": [],
      "stateMutability": "nonpayable",
      "type": "function"
    },
    {
      "inputs": [
        {
          "internalType": "bytes",
          "name": "params",
          "type": "bytes"
        },
        {
          "internalType": "bytes32",
          "name": "",
          "type": "bytes32"
        }
      ],
      "name": "transferOwnership",
      "outputs": [],
      "stateMutability": "nonpayable",
      "type": "function"
    },
    {
      "inputs": [],
      "name": "unfreezeAllTokens",
      "outputs": [],
      "stateMutability": "nonpayable",
      "type": "function"
    },
    {
      "inputs": [
        {
          "internalType": "string",
          "name": "symbol",
          "type": "string"
        }
      ],
      "name": "unfreezeToken",
      "outputs": [],
      "stateMutability": "nonpayable",
      "type": "function"
    },
    {
      "inputs": [
        {
          "internalType": "address",
          "name": "newImplementation",
          "type": "address"
        },
        {
          "internalType": "bytes32",
          "name": "newImplementationCodeHash",
          "type": "bytes32"
        },
        {
          "internalType": "bytes",
          "name": "setupParams",
          "type": "bytes"
        }
      ],
      "name": "upgrade",
      "outputs": [],
      "stateMutability": "nonpayable",
      "type": "function"
    },
    {
      "inputs": [
        {
          "internalType": "bytes32",
          "name": "commandId",
          "type": "bytes32"
        },
        {
          "internalType": "string",
          "name": "sourceChain",
          "type": "string"
        },
        {
          "internalType": "string",
          "name": "sourceAddress",
          "type": "string"
        },
        {
          "internalType": "bytes32",
          "name": "payloadHash",
          "type": "bytes32"
        }
      ],
      "name": "validateContractCall",
      "outputs": [
        {
          "internalType": "bool",
          "name": "valid",
          "type": "bool"
        }
      ],
      "stateMutability": "nonpayable",
      "type": "function"
    },
    {
      "inputs": [
        {
          "internalType": "bytes32",
          "name": "commandId",
          "type": "bytes32"
        },
        {
          "internalType": "string",
          "name": "sourceChain",
          "type": "string"
        },
        {
          "internalType": "string",
          "name": "sourceAddress",
          "type": "string"
        },
        {
          "internalType": "bytes32",
          "name": "payloadHash",
          "type": "bytes32"
        },
        {
          "internalType": "string",
          "name": "symbol",
          "type": "string"
        },
        {
          "internalType": "uint256",
          "name": "amount",
          "type": "uint256"
        }
      ],
      "name": "validateContractCallAndMint",
      "outputs": [
        {
          "internalType": "bool",
          "name": "valid",
          "type": "bool"
        }
      ],
      "stateMutability": "nonpayable",
      "type": "function"
    }
  ],
  "evm": {
    "bytecode": {
      "linkReferences": {},
      "object": "60a06040523480156200001157600080fd5b506040516200590038038062005900833981016040819052620000349162000071565b806001600160a01b0381163b6200005e57604051630c84dabf60e31b815260040160405180910390fd5b6001600160a01b031660805250620000a3565b6000602082840312156200008457600080fd5b81516001600160a01b03811681146200009c57600080fd5b9392505050565b608051615841620000bf60003960006134d001526158416000f3fe608060405234801561001057600080fd5b50600436106102775760003560e01c8063886a625d11610160578063b5417084116100d8578063d2bc37f81161008c578063e3dfa29911610071578063e3dfa299146105f7578063f6a5f9f5146105ff578063fbe0a31b1461061257600080fd5b8063d2bc37f8146105cf578063dc97d962146105d757600080fd5b8063bd02d0f5116100bd578063bd02d0f514610589578063c031a180146105a9578063d26ff210146105bc57600080fd5b8063b541708414610563578063bc00c2161461057657600080fd5b806397b87ba61161012f5780639ded06df116101145780639ded06df146104ea578063a3499c73146104fd578063aa1e1f0a1461051057600080fd5b806397b87ba6146104b7578063986e791a146104ca57600080fd5b8063886a625d1461047657806388b30587146104895780638da5cb5b1461049c578063935b13f6146104a457600080fd5b80634656ae2e116101f35780635f6970c3116101c25780637ae1cfca116101a75780637ae1cfca1461042d5780637b1b769e146104505780637e8c81181461046357600080fd5b80635f6970c314610407578063646c5d341461041a57600080fd5b80634656ae2e14610380578063570ca73514610393578063585a9fd41461039b5780635c60da1b146103ae57600080fd5b80631c92115f1161024a57806326ef699d1161022f57806326ef699d1461034457806334ff698314610357578063364940d81461036a57600080fd5b80631c92115f146102f057806321f8a7211461030357600080fd5b806309c5eabe1461027c578063146e2d781461029157806314bfd6d0146102a45780631876eed9146102cd575b600080fd5b61028f61028a3660046140ee565b610625565b005b61028f61029f366004614130565b610648565b6102b76102b236600461417c565b6106aa565b6040516102c49190614195565b60405180910390f35b6102e06102db3660046141e2565b610754565b60405190151581526020016102c4565b61028f6102fe366004614297565b610888565b61032c61031136600461417c565b6000908152600260205260409020546001600160a01b031690565b6040516001600160a01b0390911681526020016102c4565b61028f610352366004614331565b6108f3565b61028f6103653660046140ee565b61098b565b610372610bad565b6040519081526020016102c4565b61028f61038e366004614130565b610c05565b61032c610c62565b61028f6103a9366004614130565b610cbd565b7f360894a13ba1a3210667c828492db98dca3e2076cc3735a920a3ca505d382bbc60005260026020527f11141f466c69fd409e1990e063b49cd6d61ed2ecff27a2e402e259ca6b9a01a3546001600160a01b031661032c565b6102e06104153660046143d4565b610d39565b61028f6104283660046140ee565b610df2565b6102e061043b36600461417c565b60009081526004602052604090205460ff1690565b6102e061045e366004614534565b611007565b61028f610471366004614130565b61101b565b61028f610484366004614130565b6111a7565b61037261049736600461417c565b611213565b61032c61121e565b61032c6104b2366004614534565b611279565b61028f6104c5366004614130565b611287565b6104dd6104d836600461417c565b611412565b6040516102c491906145c1565b61028f6104f83660046140ee565b6114b4565b61028f61050b3660046145e9565b611816565b7f75a31d1ce8e5f9892188befc328d3b9bd3fa5037457e881abc21f388471b8d9660005260046020527fa0b596b8942d6ef5cc77ce0ad89a75f0bfcc7f0132cd8db58e8449dcf04a858a5460ff166102e0565b61028f610571366004614645565b611baf565b6102e0610584366004614711565b611c65565b61037261059736600461417c565b60009081526020819052604090205490565b6104dd6105b736600461417c565b611d38565b6102e06105ca36600461417c565b611d55565b61028f611d63565b6103726105e536600461417c565b60009081526005602052604090205490565b61028f611f5e565b6102e061060d3660046147df565b612156565b61028f610620366004614130565b6121df565b60008061063483850185614876565b915091506106428282612246565b50505050565b333014610681576040517f29c3b7ee00000000000000000000000000000000000000000000000000000000815260040160405180910390fd5b60008080610691858701876148ea565b9250925092506106a283838361281f565b505050505050565b606060006106b783612a06565b90508067ffffffffffffffff8111156106d2576106d2614456565b6040519080825280602002602001820160405280156106fb578160200160208202803683370190505b50915060005b8181101561074d576107138482612a14565b83828151811061072557610725614944565b6001600160a01b0390921660209283029190910190910152610746816149a2565b9050610701565b5050919050565b6000806108058b8b8b8080601f01602080910402602001604051908101604052809392919081815260200183838082843760009201919091525050604080516020601f8f018190048102820181019092528d815292508d91508c908190840183828082843760009201919091525050604080516020601f8d018190048102820181019092528b81523393508d9250908c908c90819084018382808284376000920191909152508c9250612a2a915050565b60008181526004602052604090205460ff1692509050811561087a576000818152600460205260409020805460ff1916905561087a85858080601f01602080910402602001604051908101604052809392919081815260200183838082843760009201919091525033925087915061281f9050565b509998505050505050505050565b81816040516108989291906149db565b6040518091039020336001600160a01b03167f30ae6cc78c27e651745bf2ad08a11de83910ac1e347a52f7ac898c0fbef94dae8888888888886040516108e396959493929190614a16565b60405180910390a3505050505050565b6109353384848080601f016020809104026020016040519081016040528093929190818152602001838380828437600092019190915250869250612a8e915050565b336001600160a01b03167f651d93f66c4329630e8d0f62488eff599e3be484da587335e8dc0fcf460627268888888888888860405161097a9796959493929190614a5f565b60405180910390a250505050505050565b60006109de7fd51dc9b187568bb94760866e1d0d066ca470037d2d331afb1a02ec74bfb8990c60009081526020527ff8d0c05cd32e3272241fdc9d5839565f8bcf94139cb4bd09e230e1b57a60ddc25490565b90506109ea8133612dce565b610a20576040517f7bfa4b9f00000000000000000000000000000000000000000000000000000000815260040160405180910390fd5b60008036604051610a329291906149db565b60405180910390209050610a47828233612ddd565b15610a7e576040517f7c9a1cf900000000000000000000000000000000000000000000000000000000815260040160405180910390fd5b610a8b8282336001612e6e565b60006001610a998484612f0c565b610aa39190614ab0565b9050610ab0838383612f1b565b610ab983612f40565b811015610ac7575050505050565b610b21610b0986868080601f016020809104026020016040519081016040528093929190818152602001838380828437600092019190915250612f4e92505050565b6000908152600460205260409020805460ff19169055565b7f5327e3af9cd2d5c19a8dff23ef487d7a4d5f6fc985464f1792a33c21205759898585604051610b52929190614ac8565b60405180910390a1610b6683836000612f1b565b6000610b7184612a06565b905060005b81811015610ba457610b948585610b8d8885612a14565b6000612e6e565b610b9d816149a2565b9050610b76565b50505050505050565b6000610c007fd51dc9b187568bb94760866e1d0d066ca470037d2d331afb1a02ec74bfb8990c60009081526020527ff8d0c05cd32e3272241fdc9d5839565f8bcf94139cb4bd09e230e1b57a60ddc25490565b905090565b333014610c3e576040517f29c3b7ee00000000000000000000000000000000000000000000000000000000815260040160405180910390fd5b600080610c4d84860186614adc565b91509150610c5b8282612fa0565b5050505050565b6000610c00610cb87f5369fb791f26307f8e69b07625302ccac6930af09ab22d753b17d2042e9992e760009081526020527f07174c149a4f7627ac1dd39b679bd42f12fc4e8d7e850b055662bbee7188da105490565b613310565b333014610cf6576040517f29c3b7ee00000000000000000000000000000000000000000000000000000000815260040160405180910390fd5b600080808080808080610d0b8a8c018c614b21565b97509750975097509750975097509750610d2c89898989898989898961331e565b5050505050505050505050565b600080610db48888888080601f01602080910402602001604051908101604052809392919081815260200183838082843760009201919091525050604080516020601f8c018190048102820181019092528a815292508a91508990819084018382808284376000920191909152503392508991506133859050565b60008181526004602052604090205460ff16925090508115610de7576000818152600460205260409020805460ff191690555b509695505050505050565b6000610e457fd51dc9b187568bb94760866e1d0d066ca470037d2d331afb1a02ec74bfb8990c60009081526020527ff8d0c05cd32e3272241fdc9d5839565f8bcf94139cb4bd09e230e1b57a60ddc25490565b9050610e518133612dce565b610e87576040517f7bfa4b9f00000000000000000000000000000000000000000000000000000000815260040160405180910390fd5b60008036604051610e999291906149db565b60405180910390209050610eae828233612ddd565b15610ee5576040517f7c9a1cf900000000000000000000000000000000000000000000000000000000815260040160405180910390fd5b610ef28282336001612e6e565b60006001610f008484612f0c565b610f0a9190614ab0565b9050610f17838383612f1b565b610f2083612f40565b811015610f2e575050505050565b610f8b610f7086868080601f016020809104026020016040519081016040528093929190818152602001838380828437600092019190915250612f4e92505050565b6000908152600460205260409020805460ff19166001179055565b7f11260c92ecb021c33706db3a9699410f343d5f2175201a4551fe7634347a0cf18585604051610fbc929190614ac8565b60405180910390a1610fd083836000612f1b565b6000610fdb84612a06565b905060005b81811015610ba457610ff78585610b8d8885612a14565b611000816149a2565b9050610fe0565b600061101561043b83612f4e565b92915050565b333014611054576040517f29c3b7ee00000000000000000000000000000000000000000000000000000000815260040160405180910390fd5b600061106283850185614bdf565b905060006110b77f67cbdff49954077d2dd5637524b03bfe3e6506d456859017a888fad567e1af0360009081526020527f06f01c2f096e745c2a207fbf93babd5e7ee6acfd26f0f34a0e4ac68373c21d0e5490565b90506001600160a01b0382166110f9576040517fe6c4247b00000000000000000000000000000000000000000000000000000000815260040160405180910390fd5b816001600160a01b031661110c826133e3565b6001600160a01b03167f8be0079c531659141344cd1fd0a4f28419497f9722a3daafe3b4186f6b6457e060405160405180910390a361119d61114d826149a2565b9150817f67cbdff49954077d2dd5637524b03bfe3e6506d456859017a888fad567e1af0360009081526020527f06f01c2f096e745c2a207fbf93babd5e7ee6acfd26f0f34a0e4ac68373c21d0e55565b610c5b81836133f4565b3330146111e0576040517f29c3b7ee00000000000000000000000000000000000000000000000000000000815260040160405180910390fd5b6000808080806111f287890189614bfc565b945094509450945094506112098585858585613445565b5050505050505050565b600061101582612f40565b6000610c006112747f67cbdff49954077d2dd5637524b03bfe3e6506d456859017a888fad567e1af0360009081526020527f06f01c2f096e745c2a207fbf93babd5e7ee6acfd26f0f34a0e4ac68373c21d0e5490565b6133e3565b6000611015610311836136cc565b3330146112c0576040517f29c3b7ee00000000000000000000000000000000000000000000000000000000815260040160405180910390fd5b60006112ce83850185614bdf565b90506001600160a01b038116611310576040517fe6c4247b00000000000000000000000000000000000000000000000000000000815260040160405180910390fd5b806001600160a01b0316611322610c62565b6001600160a01b03167fb37ff92c23eca455dbbd028d9cb869f69e16485d5ef15286fc394c721a5d5dc160405160405180910390a360006113aa7f5369fb791f26307f8e69b07625302ccac6930af09ab22d753b17d2042e9992e760009081526020527f07174c149a4f7627ac1dd39b679bd42f12fc4e8d7e850b055662bbee7188da105490565b90506114086113b8826149a2565b9150817f5369fb791f26307f8e69b07625302ccac6930af09ab22d753b17d2042e9992e760009081526020527f07174c149a4f7627ac1dd39b679bd42f12fc4e8d7e850b055662bbee7188da1055565b610c5b8183613701565b600081815260016020526040902080546060919061142f90614c97565b80601f016020809104026020016040519081016040528092919081815260200182805461145b90614c97565b80156114a85780601f1061147d576101008083540402835291602001916114a8565b820191906000526020600020905b81548152906001019060200180831161148b57829003601f168201915b50505050509050919050565b60006115107f360894a13ba1a3210667c828492db98dca3e2076cc3735a920a3ca505d382bbc60005260026020527f11141f466c69fd409e1990e063b49cd6d61ed2ecff27a2e402e259ca6b9a01a3546001600160a01b031690565b6001600160a01b03161415611551576040517fbf10dd3a00000000000000000000000000000000000000000000000000000000815260040160405180910390fd5b600080808061156285870187614d0f565b9350935093509350600060016115bf7fd51dc9b187568bb94760866e1d0d066ca470037d2d331afb1a02ec74bfb8990c60009081526020527ff8d0c05cd32e3272241fdc9d5839565f8bcf94139cb4bd09e230e1b57a60ddc25490565b6115c99190614ab0565b905061161c817fd51dc9b187568bb94760866e1d0d066ca470037d2d331afb1a02ec74bfb8990c60009081526020527ff8d0c05cd32e3272241fdc9d5839565f8bcf94139cb4bd09e230e1b57a60ddc255565b61162781868661370d565b6000600161167c7f67cbdff49954077d2dd5637524b03bfe3e6506d456859017a888fad567e1af0360009081526020527f06f01c2f096e745c2a207fbf93babd5e7ee6acfd26f0f34a0e4ac68373c21d0e5490565b6116869190614ab0565b90506116d9817f67cbdff49954077d2dd5637524b03bfe3e6506d456859017a888fad567e1af0360009081526020527f06f01c2f096e745c2a207fbf93babd5e7ee6acfd26f0f34a0e4ac68373c21d0e55565b6116e381856133f4565b600060016117387f5369fb791f26307f8e69b07625302ccac6930af09ab22d753b17d2042e9992e760009081526020527f07174c149a4f7627ac1dd39b679bd42f12fc4e8d7e850b055662bbee7188da105490565b6117429190614ab0565b9050611795817f5369fb791f26307f8e69b07625302ccac6930af09ab22d753b17d2042e9992e760009081526020527f07174c149a4f7627ac1dd39b679bd42f12fc4e8d7e850b055662bbee7188da1055565b61179f8185613701565b6040516001600160a01b038616906000907f8be0079c531659141344cd1fd0a4f28419497f9722a3daafe3b4186f6b6457e0908290a36040516001600160a01b038516906000907fb37ff92c23eca455dbbd028d9cb869f69e16485d5ef15286fc394c721a5d5dc1908290a3505050505050505050565b60006118697fd51dc9b187568bb94760866e1d0d066ca470037d2d331afb1a02ec74bfb8990c60009081526020527ff8d0c05cd32e3272241fdc9d5839565f8bcf94139cb4bd09e230e1b57a60ddc25490565b90506118758133612dce565b6118ab576040517f7bfa4b9f00000000000000000000000000000000000000000000000000000000815260040160405180910390fd5b600080366040516118bd9291906149db565b604051809103902090506118d2828233612ddd565b15611909576040517f7c9a1cf900000000000000000000000000000000000000000000000000000000815260040160405180910390fd5b6119168282336001612e6e565b600060016119248484612f0c565b61192e9190614ab0565b905061193b838383612f1b565b61194483612f40565b81101561195357505050610642565b866001600160a01b03163f8614611996576040517f8f84fb2400000000000000000000000000000000000000000000000000000000815260040160405180910390fd5b6040516001600160a01b038816907fbc7cd75a20ee27fd9adebab32041f755214dbc6bffa90cc0225b39da2e5c2d3b90600090a28315611adf576000876001600160a01b0316639ded06df60e01b87876040516024016119f7929190614ac8565b60408051601f198184030181529181526020820180517bffffffffffffffffffffffffffffffffffffffffffffffffffffffff167fffffffff00000000000000000000000000000000000000000000000000000000909416939093179092529051611a629190614dd3565b600060405180830381855af49150503d8060008114611a9d576040519150601f19603f3d011682016040523d82523d6000602084013e611aa2565b606091505b5050905080611add576040517f97905dfb00000000000000000000000000000000000000000000000000000000815260040160405180910390fd5b505b611b61877f360894a13ba1a3210667c828492db98dca3e2076cc3735a920a3ca505d382bbc60005260026020527f11141f466c69fd409e1990e063b49cd6d61ed2ecff27a2e402e259ca6b9a01a380547fffffffffffffffffffffffff0000000000000000000000000000000000000000166001600160a01b03831617905550565b611b6d83836000612f1b565b6000611b7884612a06565b905060005b81811015611ba457611b948585610b8d8885612a14565b611b9d816149a2565b9050611b7d565b505050505050505050565b611bf13384848080601f016020809104026020016040519081016040528093929190818152602001838380828437600092019190915250869250612a8e915050565b8484604051611c019291906149db565b6040518091039020336001600160a01b03167f7e50569d26be643bda7757722291ec66b1be66d8283474ae3fab5a98f878a7a28b8b8b8b8b8b8b8b8b604051611c5299989796959493929190614def565b60405180910390a3505050505050505050565b6000611d2961043b8c8c8c8080601f016020809104026020016040519081016040528093929190818152602001838380828437600081840152601f19601f820116905080830192505050505050508b8b8080601f01602080910402602001604051908101604052809392919081815260200183838082843760009201919091525050604080516020601f8d018190048102820181019092528b81528e93508d9250908c908c90819084018382808284376000920191909152508c9250612a2a915050565b9b9a5050505050505050505050565b600081815260036020526040902080546060919061142f90614c97565b600061101561043b83613871565b6000611db67fd51dc9b187568bb94760866e1d0d066ca470037d2d331afb1a02ec74bfb8990c60009081526020527ff8d0c05cd32e3272241fdc9d5839565f8bcf94139cb4bd09e230e1b57a60ddc25490565b9050611dc28133612dce565b611df8576040517f7bfa4b9f00000000000000000000000000000000000000000000000000000000815260040160405180910390fd5b60008036604051611e0a9291906149db565b60405180910390209050611e1f828233612ddd565b15611e56576040517f7c9a1cf900000000000000000000000000000000000000000000000000000000815260040160405180910390fd5b611e638282336001612e6e565b60006001611e718484612f0c565b611e7b9190614ab0565b9050611e88838383612f1b565b611e9183612f40565b811015611e9d57505050565b7f75a31d1ce8e5f9892188befc328d3b9bd3fa5037457e881abc21f388471b8d9660005260046020527fa0b596b8942d6ef5cc77ce0ad89a75f0bfcc7f0132cd8db58e8449dcf04a858a805460ff191660011790556040517f9f428b56ca209118783db391e8a5a62827b6b218add33411061060d308af6ead90600090a1611f2783836000612f1b565b6000611f3284612a06565b905060005b81811015610c5b57611f4e8585610b8d8885612a14565b611f57816149a2565b9050611f37565b6000611fb17fd51dc9b187568bb94760866e1d0d066ca470037d2d331afb1a02ec74bfb8990c60009081526020527ff8d0c05cd32e3272241fdc9d5839565f8bcf94139cb4bd09e230e1b57a60ddc25490565b9050611fbd8133612dce565b611ff3576040517f7bfa4b9f00000000000000000000000000000000000000000000000000000000815260040160405180910390fd5b600080366040516120059291906149db565b6040518091039020905061201a828233612ddd565b15612051576040517f7c9a1cf900000000000000000000000000000000000000000000000000000000815260040160405180910390fd5b61205e8282336001612e6e565b6000600161206c8484612f0c565b6120769190614ab0565b9050612083838383612f1b565b61208c83612f40565b81101561209857505050565b7f75a31d1ce8e5f9892188befc328d3b9bd3fa5037457e881abc21f388471b8d9660005260046020527fa0b596b8942d6ef5cc77ce0ad89a75f0bfcc7f0132cd8db58e8449dcf04a858a805460ff191690556040517f0e821ff109470f6aa1aebb161aa0e7328b1a8552aa48e09ed2d03184ecece9a690600090a161211f83836000612f1b565b600061212a84612a06565b905060005b81811015610c5b576121468585610b8d8885612a14565b61214f816149a2565b905061212f565b60006121d361043b8989898080601f01602080910402602001604051908101604052809392919081815260200183838082843760009201919091525050604080516020601f8d018190048102820181019092528b815292508b91508a90819084018382808284376000920191909152508a92508991506133859050565b98975050505050505050565b333014612218576040517f29c3b7ee00000000000000000000000000000000000000000000000000000000815260040160405180910390fd5b6000808080808061222b888a018a614e57565b955095509550955095509550611ba4878787878787876138ac565b600061226161225b848051906020012061390b565b83613946565b905060008060008060008780602001905181019061227f919061504e565b945094509450945094504685146122c2576040517f7a47c9a200000000000000000000000000000000000000000000000000000000815260040160405180910390fd5b82518251811415806122d5575081518114155b1561230c576040517fca9a28f500000000000000000000000000000000000000000000000000000000815260040160405180910390fd5b60008080600188600281111561232457612324615150565b141561235f5761233261121e565b6001600160a01b03168a6001600160a01b0316149250828061235857506123588a613ae9565b9150612385565b600288600281111561237357612373615150565b1415612385576123828a613bc7565b90505b60005b848110156128105760008882815181106123a4576123a4614944565b602002602001015190506123b781611d55565b156123c25750612800565b6000808984815181106123d7576123d7614944565b60200260200101516040516020016123ef9190614dd3565b6040516020818303038152906040528051906020012090507f5763814b98a3aa86f212797af3273868b5dd6e2a532d764a79b98ca859e7bbad811415612464578561243c57505050612800565b7f886a625d0000000000000000000000000000000000000000000000000000000091506126ca565b7fec78d9c22c08bb9f0ecd5d95571ae83e3f22219c5a9278c3270691d50abfd91b8114156124cd5784158015612498575085155b156124a557505050612800565b7f146e2d780000000000000000000000000000000000000000000000000000000091506126ca565b7f37ac16aabc4d87540e53151b2b716265cfd6b195db96a9daf8e893c829bbd2338114156125365784158015612501575085155b1561250e57505050612800565b7ffbe0a31b0000000000000000000000000000000000000000000000000000000091506126ca565b7ff41504255b911b3042ee4f8786fdf7cf4bcf24ace033fa16af3c8574e025e43681141561259f578415801561256a575085155b1561257757505050612800565b7f585a9fd40000000000000000000000000000000000000000000000000000000091506126ca565b7fda199c0e76f665e0450020791c7f8eacc75f3cdbace313272c28f93e5390b62c81141561260857841580156125d3575085155b156125e057505050612800565b7f4656ae2e0000000000000000000000000000000000000000000000000000000091506126ca565b7f1d4a390f291e2e1f29874769efdef47ddad94d76f77ff516fad206a385e8995f811415612665578661263d57505050612800565b7f7e8c81180000000000000000000000000000000000000000000000000000000091506126ca565b7fb460dcb6fd5797fc0e7ea0f13406c80d30702ba7f73a42bd91394775dcbca7188114156126c2578661269a57505050612800565b7f97b87ba60000000000000000000000000000000000000000000000000000000091506126ca565b505050612800565b6126d5836001613c8f565b6000306001600160a01b0316838b87815181106126f4576126f4614944565b60200260200101518660405160240161270e92919061517f565b60408051601f198184030181529181526020820180517bffffffffffffffffffffffffffffffffffffffffffffffffffffffff167fffffffff000000000000000000000000000000000000000000000000000000009094169390931790925290516127799190614dd3565b6000604051808303816000865af19150503d80600081146127b6576040519150601f19603f3d011682016040523d82523d6000602084013e6127bb565b606091505b505090506127c98482613c8f565b80156127fb5760405184907fa74c8847d513feba22a0f0cb38d53081abf97562cdb293926ba243689e7c41ca90600090a25b505050505b612809816149a2565b9050612388565b50505050505050505050505050565b600061282a84611279565b90506001600160a01b03811661287757836040517f72ba137e00000000000000000000000000000000000000000000000000000000815260040161286e91906145c1565b60405180910390fd5b600261288285613c9b565b600281111561289357612893615150565b141561298f576128a284613cba565b6040516001600160a01b03841660248201526044810183905260009061294e9083907fa9059cbb00000000000000000000000000000000000000000000000000000000906064015b60408051601f198184030181529190526020810180517bffffffffffffffffffffffffffffffffffffffffffffffffffffffff167fffffffff0000000000000000000000000000000000000000000000000000000090931692909217909152613d51565b90508061298957846040517f90c52ed700000000000000000000000000000000000000000000000000000000815260040161286e91906145c1565b50610642565b6040517f40c10f190000000000000000000000000000000000000000000000000000000081526001600160a01b038481166004830152602482018490528216906340c10f1990604401600060405180830381600087803b1580156129f257600080fd5b505af1158015611209573d6000803e3d6000fd5b600061101561059783613de3565b6000612a236103118484613e1e565b9392505050565b60007fb7ad972b71475860613db3ba1fe699b886c878f9002a09250dc25e769eb19a1088888888888888604051602001612a6b9897969594939291906151a1565b604051602081830303815290604052805190602001209050979650505050505050565b6000612a9983611279565b90506001600160a01b038116612add57826040517f72ba137e00000000000000000000000000000000000000000000000000000000815260040161286e91906145c1565b81612b14576040517f2c5211c600000000000000000000000000000000000000000000000000000000815260040160405180910390fd5b6000612b1f84613c9b565b905060006002826002811115612b3757612b37615150565b1415612bd057612b4685613cba565b6040516001600160a01b038716602482015230604482015260648101859052612b959084907f23b872dd00000000000000000000000000000000000000000000000000000000906084016128ea565b9050806106a257846040517fe217b0ad00000000000000000000000000000000000000000000000000000000815260040161286e91906145c1565b6001826002811115612be457612be4615150565b1415612c33576040516001600160a01b038716602482015260448101859052612b959084907f79cc679000000000000000000000000000000000000000000000000000000000906064016128ea565b6040517f31eecaf400000000000000000000000000000000000000000000000000000000815260006004820152612d179084907f23b872dd000000000000000000000000000000000000000000000000000000009089906001600160a01b038416906331eecaf49060240160206040518083038186803b158015612cb657600080fd5b505afa158015612cca573d6000803e3d6000fd5b505050506040513d601f19601f82011682018060405250810190612cee9190615214565b6040516001600160a01b03928316602482015291166044820152606481018890526084016128ea565b905080612d5257846040517fe217b0ad00000000000000000000000000000000000000000000000000000000815260040161286e91906145c1565b6040517f08a1eee1000000000000000000000000000000000000000000000000000000008152600060048201526001600160a01b038416906308a1eee1906024015b600060405180830381600087803b158015612dae57600080fd5b505af1158015612dc2573d6000803e3d6000fd5b50505050505050505050565b6000612a2361043b8484613e7a565b604080517f3ced7a8caf1111e0fbf4b784c5b41aebd0f2389d9f2f64d5c3424aeed3adbd3c602080830191909152818301869052606080830186905284901b7fffffffffffffffffffffffffffffffffffffffff0000000000000000000000001660808301528251808303607401815260949092019092528051910120600090612e669061043b565b949350505050565b604080517f3ced7a8caf1111e0fbf4b784c5b41aebd0f2389d9f2f64d5c3424aeed3adbd3c602080830191909152818301879052606080830187905285901b7fffffffffffffffffffffffffffffffffffffffff0000000000000000000000001660808301528251808303607401815260949092019092528051910120610642905b6000908152600460205260409020805460ff1916831515179055565b6000612a236105978484613ee0565b612f3b612f288484613ee0565b8260009182526020829052604090912055565b505050565b600061101561059783613f22565b60007f1a7261d3a36c4ce4235d10859911c9444a6963a3591ec5725b96871d9810626b82604051602001612f83929190615231565b604051602081830303815290604052805190602001209050919050565b6000612fab83611279565b90506001600160a01b038116612fef57826040517f72ba137e00000000000000000000000000000000000000000000000000000000815260040161286e91906145c1565b6002612ffa84613c9b565b600281111561300b5761300b615150565b14156132a15761301a83613cba565b60008260405161302990614098565b8190604051809103906000f5905080158015613049573d6000803e3d6000fd5b506040517f70a082310000000000000000000000000000000000000000000000000000000081526001600160a01b038083166004830181905292935060009283929091631cff79cd9187917fa9059cbb000000000000000000000000000000000000000000000000000000009130918416906370a082319060240160206040518083038186803b1580156130dc57600080fd5b505afa1580156130f0573d6000803e3d6000fd5b505050506040513d601f19601f820116820180604052508101906131149190615257565b6040516001600160a01b039092166024830152604482015260640160408051601f198184030181529181526020820180517bffffffffffffffffffffffffffffffffffffffffffffffffffffffff167fffffffff000000000000000000000000000000000000000000000000000000009485161790525160e085901b90921682526131a29291600401615270565b600060405180830381600087803b1580156131bc57600080fd5b505af11580156131d0573d6000803e3d6000fd5b505050506040513d6000823e601f3d908101601f191682016040526131f891908101906152a2565b91509150811580613225575080511580159061322557508080602001905181019061322391906152e6565b155b1561325e57856040517fe217b0ad00000000000000000000000000000000000000000000000000000000815260040161286e91906145c1565b6040517ef55d9d0000000000000000000000000000000000000000000000000000000081523060048201526001600160a01b0384169062f55d9d90602401612d94565b6040517f08a1eee1000000000000000000000000000000000000000000000000000000008152600481018390526001600160a01b038216906308a1eee190602401600060405180830381600087803b1580156132fc57600080fd5b505af1158015610ba4573d6000803e3d6000fd5b600061101561031183613f5d565b61332d89898989898989613f98565b84866001600160a01b03168a7f9991faa1f435675159ffae64b66d7ecfdb55c29755869a18db8497b4392347e08b8b8989898960405161337296959493929190615301565b60405180910390a4505050505050505050565b60007f07b0d4304f82012bd3b70b1d531c160e326067c90829e2a3d386722ad10b89c386868686866040516020016133c296959493929190615359565b60405160208183030381529060405280519060200120905095945050505050565b600061101561031183613faa565b50565b61344161340083613faa565b600090815260026020526040902080547fffffffffffffffffffffffff0000000000000000000000000000000000000000166001600160a01b038416179055565b5050565b600061345085611279565b6001600160a01b03161461349257836040517faa7e8b3200000000000000000000000000000000000000000000000000000000815260040161286e91906145c1565b6001600160a01b03811661362b576000846040516020016134b39190614dd3565b6040516020818303038152906040528051906020012090506000807f00000000000000000000000000000000000000000000000000000000000000006001600160a01b0316636fc95b3460e01b89898989886040516024016135199594939291906153a9565b60408051601f198184030181529181526020820180517bffffffffffffffffffffffffffffffffffffffffffffffffffffffff167fffffffff000000000000000000000000000000000000000000000000000000009094169390931790925290516135849190614dd3565b600060405180830381855af49150503d80600081146135bf576040519150601f19603f3d011682016040523d82523d6000602084013e6135c4565b606091505b50915091508161360257866040517f86d5274300000000000000000000000000000000000000000000000000000000815260040161286e91906145c1565b808060200190518101906136169190615214565b9350613623876001613fe5565b505050613682565b6001600160a01b0381163b613677576040517fc5ccddde0000000000000000000000000000000000000000000000000000000081526001600160a01b038216600482015260240161286e565b613682846002613fe5565b61368c8482614015565b7fbf90b5a1ec9763e8bf4b9245cef0c28db92bab309fc2c5177f17814f3824693884826040516136bd9291906153ef565b60405180910390a15050505050565b60007fc4e632779a6a7838736dd7e5e6a0eadf171dd37dfb6230720e265576dfcf42bb82604051602001612f83929190615231565b61344161340083613f5d565b815181811015613749576040517ff1965a0700000000000000000000000000000000000000000000000000000000815260040160405180910390fd5b81613780576040517f1845300d00000000000000000000000000000000000000000000000000000000815260040160405180910390fd5b61378a8483614021565b613794848261402d565b60005b81811015610c5b5760008482815181106137b3576137b3614944565b602002602001015190506137c78682612dce565b15613809576040517f424926de0000000000000000000000000000000000000000000000000000000081526001600160a01b038216600482015260240161286e565b6001600160a01b038116613849576040517ff1965a0700000000000000000000000000000000000000000000000000000000815260040160405180910390fd5b613854868383614039565b61386086826001614046565b5061386a816149a2565b9050613797565b604080517f957705a374326b30f4a1069c936d736cc9993ed6c820b4e0e2fd94a8beca0d1d6020820152908101829052600090606001612f83565b6138b98787878787614053565b82846001600160a01b0316887f44e4f8f6bd682c5a3aeba93601ab07cb4d1f21b2aab1ae4880d9577919309aa4898987876040516138fa949392919061541a565b60405180910390a450505050505050565b6040517f19457468657265756d205369676e6564204d6573736167653a0a3332000000006020820152603c8101829052600090605c01612f83565b60008151604114613983576040517f4be6321b00000000000000000000000000000000000000000000000000000000815260040160405180910390fd5b60208201516040830151606084015160001a7f7fffffffffffffffffffffffffffffff5d576e7357a4501ddfe92f46681b20a08211156139ef576040517f40c1e74800000000000000000000000000000000000000000000000000000000815260040160405180910390fd5b8060ff16601b14158015613a0757508060ff16601c14155b15613a3e576040517f119bce3900000000000000000000000000000000000000000000000000000000815260040160405180910390fd5b6040805160008082526020820180845289905260ff841692820192909252606081018590526080810184905260019060a0016020604051602081039080840390855afa158015613a92573d6000803e3d6000fd5b505050602060405103519450846001600160a01b03161415613ae0576040517f8baa579f00000000000000000000000000000000000000000000000000000000815260040160405180910390fd5b50505092915050565b600080613b3d7f67cbdff49954077d2dd5637524b03bfe3e6506d456859017a888fad567e1af0360009081526020527f06f01c2f096e745c2a207fbf93babd5e7ee6acfd26f0f34a0e4ac68373c21d0e5490565b90506000613b4d60016010614ab0565b90506000818311613b5f576000613b69565b613b698284615453565b9050613b748361546a565b92505b80831115613bbc57613b9383613b8c8161546a565b94506133e3565b6001600160a01b0316856001600160a01b03161415613bb757506001949350505050565b613b77565b506000949350505050565b600080613c1b7f5369fb791f26307f8e69b07625302ccac6930af09ab22d753b17d2042e9992e760009081526020527f07174c149a4f7627ac1dd39b679bd42f12fc4e8d7e850b055662bbee7188da105490565b90506000613c2b60016010614ab0565b90506000818311613c3d576000613c47565b613c478284615453565b90505b80831115613bbc57613c6683613c5f8161546a565b9450613310565b6001600160a01b0316856001600160a01b03161415613c8a57506001949350505050565b613c4a565b613441612ef083613871565b6000613ca961059783614063565b600281111561101557611015615150565b613cc381611007565b80613d1857507f75a31d1ce8e5f9892188befc328d3b9bd3fa5037457e881abc21f388471b8d9660005260046020527fa0b596b8942d6ef5cc77ce0ad89a75f0bfcc7f0132cd8db58e8449dcf04a858a5460ff165b156133f157806040517f7222d30900000000000000000000000000000000000000000000000000000000815260040161286e91906145c1565b6000806000846001600160a01b031684604051613d6e9190614dd3565b6000604051808303816000865af19150503d8060008114613dab576040519150601f19603f3d011682016040523d82523d6000602084013e613db0565b606091505b5091509150818015613dda575080511580613dda575080806020019051810190613dda91906152e6565b95945050505050565b604080517f05112ef894367de1270cfae12afcd2285c225830eb8f74e7e938f721bb510cba6020820152908101829052600090606001612f83565b604080517ff23ec0bb4210edd5cba85afd05127efcd2fc6a781bfed49188da1081670b22d86020820152908101839052606081018290526000906080015b60405160208183030381529060405280519060200120905092915050565b604080517f63fa879cb478fddf1de08d49e29115fb768866711bc799ff9ab419a7f16c9afb6020820152908101839052606082811b7fffffffffffffffffffffffffffffffffffffffff0000000000000000000000001690820152600090607401613e5c565b604080517fbaea1c6c0f16a0a340b10a9e980806696a68ddbb5e8361fd64630dd21abf515f602082015290810183905260608101829052600090608001613e5c565b604080517f79bd914addd90bd67ad800bf0230bb85ffdef5aeba5fd8249f116d3f17f4fb4b6020820152908101829052600090606001612f83565b604080517f46a52cf33029de9f84853745a87af28464c80bf0346df1b32e205fc73319f6226020820152908101829052600090606001612f83565b610ba4610f7088888888888888612a2a565b604080517f02016836a56b71f0d02689e69e326f4f4c1b9057164ef592671cf0d37c8040c06020820152908101829052600090606001612f83565b613441613ff183614063565b82600281111561400357614003615150565b60009182526020829052604090912055565b613441613400836136cc565b613441612f2883613f22565b613441612f2883613de3565b612f3b6134008484613e1e565b612f3b612ef08484613e7a565b610c5b610f708686868686613385565b60007fa80d2259af55890618ec2eeb3ac72de4bdba22529bb14845d8a3d712d1c3f62182604051602001612f83929190615231565b61036c806154a083390190565b60008083601f8401126140b757600080fd5b50813567ffffffffffffffff8111156140cf57600080fd5b6020830191508360208285010111156140e757600080fd5b9250929050565b6000806020838503121561410157600080fd5b823567ffffffffffffffff81111561411857600080fd5b614124858286016140a5565b90969095509350505050565b60008060006040848603121561414557600080fd5b833567ffffffffffffffff81111561415c57600080fd5b614168868287016140a5565b909790965060209590950135949350505050565b60006020828403121561418e57600080fd5b5035919050565b6020808252825182820181905260009190848201906040850190845b818110156141d65783516001600160a01b0316835292840192918401916001016141b1565b50909695505050505050565b600080600080600080600080600060c08a8c03121561420057600080fd5b8935985060208a013567ffffffffffffffff8082111561421f57600080fd5b61422b8d838e016140a5565b909a50985060408c013591508082111561424457600080fd5b6142508d838e016140a5565b909850965060608c0135955060808c013591508082111561427057600080fd5b5061427d8c828d016140a5565b9a9d999c50979a9699959894979660a00135949350505050565b600080600080600080606087890312156142b057600080fd5b863567ffffffffffffffff808211156142c857600080fd5b6142d48a838b016140a5565b909850965060208901359150808211156142ed57600080fd5b6142f98a838b016140a5565b9096509450604089013591508082111561431257600080fd5b5061431f89828a016140a5565b979a9699509497509295939492505050565b60008060008060008060006080888a03121561434c57600080fd5b873567ffffffffffffffff8082111561436457600080fd5b6143708b838c016140a5565b909950975060208a013591508082111561438957600080fd5b6143958b838c016140a5565b909750955060408a01359150808211156143ae57600080fd5b506143bb8a828b016140a5565b989b979a50959894979596606090950135949350505050565b600080600080600080608087890312156143ed57600080fd5b86359550602087013567ffffffffffffffff8082111561440c57600080fd5b6144188a838b016140a5565b9097509550604089013591508082111561443157600080fd5b5061443e89828a016140a5565b979a9699509497949695606090950135949350505050565b7f4e487b7100000000000000000000000000000000000000000000000000000000600052604160045260246000fd5b604051601f8201601f1916810167ffffffffffffffff811182821017156144ae576144ae614456565b604052919050565b600067ffffffffffffffff8211156144d0576144d0614456565b50601f01601f191660200190565b600082601f8301126144ef57600080fd5b81356145026144fd826144b6565b614485565b81815284602083860101111561451757600080fd5b816020850160208301376000918101602001919091529392505050565b60006020828403121561454657600080fd5b813567ffffffffffffffff81111561455d57600080fd5b612e66848285016144de565b60005b8381101561458457818101518382015260200161456c565b838111156106425750506000910152565b600081518084526145ad816020860160208601614569565b601f01601f19169290920160200192915050565b602081526000612a236020830184614595565b6001600160a01b03811681146133f157600080fd5b600080600080606085870312156145ff57600080fd5b843561460a816145d4565b935060208501359250604085013567ffffffffffffffff81111561462d57600080fd5b614639878288016140a5565b95989497509550505050565b600080600080600080600080600060a08a8c03121561466357600080fd5b893567ffffffffffffffff8082111561467b57600080fd5b6146878d838e016140a5565b909b50995060208c01359150808211156146a057600080fd5b6146ac8d838e016140a5565b909950975060408c01359150808211156146c557600080fd5b6146d18d838e016140a5565b909750955060608c01359150808211156146ea57600080fd5b506146f78c828d016140a5565b9a9d999c50979a9699959894979660800135949350505050565b60008060008060008060008060008060e08b8d03121561473057600080fd5b8a35995060208b013567ffffffffffffffff8082111561474f57600080fd5b61475b8e838f016140a5565b909b50995060408d013591508082111561477457600080fd5b6147808e838f016140a5565b909950975060608d01359150614795826145d4565b90955060808c0135945060a08c013590808211156147b257600080fd5b506147bf8d828e016140a5565b9150809450508092505060c08b013590509295989b9194979a5092959850565b600080600080600080600060a0888a0312156147fa57600080fd5b87359650602088013567ffffffffffffffff8082111561481957600080fd5b6148258b838c016140a5565b909850965060408a013591508082111561483e57600080fd5b5061484b8a828b016140a5565b909550935050606088013561485f816145d4565b809250506080880135905092959891949750929550565b6000806040838503121561488957600080fd5b823567ffffffffffffffff808211156148a157600080fd5b6148ad868387016144de565b935060208501359150808211156148c357600080fd5b506148d0858286016144de565b9150509250929050565b80356148e5816145d4565b919050565b6000806000606084860312156148ff57600080fd5b833567ffffffffffffffff81111561491657600080fd5b614922868287016144de565b9350506020840135614933816145d4565b929592945050506040919091013590565b7f4e487b7100000000000000000000000000000000000000000000000000000000600052603260045260246000fd5b7f4e487b7100000000000000000000000000000000000000000000000000000000600052601160045260246000fd5b60007fffffffffffffffffffffffffffffffffffffffffffffffffffffffffffffffff8214156149d4576149d4614973565b5060010190565b8183823760009101908152919050565b818352818160208501375060006020828401015260006020601f19601f840116840101905092915050565b606081526000614a2a60608301888a6149eb565b8281036020840152614a3d8187896149eb565b90508281036040840152614a528185876149eb565b9998505050505050505050565b608081526000614a7360808301898b6149eb565b8281036020840152614a8681888a6149eb565b90508281036040840152614a9b8186886149eb565b91505082606083015298975050505050505050565b60008219821115614ac357614ac3614973565b500190565b602081526000612e666020830184866149eb565b60008060408385031215614aef57600080fd5b823567ffffffffffffffff811115614b0657600080fd5b614b12858286016144de565b95602094909401359450505050565b600080600080600080600080610100898b031215614b3e57600080fd5b883567ffffffffffffffff80821115614b5657600080fd5b614b628c838d016144de565b995060208b0135915080821115614b7857600080fd5b614b848c838d016144de565b9850614b9260408c016148da565b975060608b0135965060808b0135915080821115614baf57600080fd5b50614bbc8b828c016144de565b989b979a50959894979660a0860135965060c08601359560e00135945092505050565b600060208284031215614bf157600080fd5b8135612a23816145d4565b600080600080600060a08688031215614c1457600080fd5b853567ffffffffffffffff80821115614c2c57600080fd5b614c3889838a016144de565b96506020880135915080821115614c4e57600080fd5b50614c5b888289016144de565b945050604086013560ff81168114614c7257600080fd5b9250606086013591506080860135614c89816145d4565b809150509295509295909350565b600181811c90821680614cab57607f821691505b60208210811415614ce5577f4e487b7100000000000000000000000000000000000000000000000000000000600052602260045260246000fd5b50919050565b600067ffffffffffffffff821115614d0557614d05614456565b5060051b60200190565b60008060008060808587031215614d2557600080fd5b843567ffffffffffffffff811115614d3c57600080fd5b8501601f81018713614d4d57600080fd5b80356020614d5d6144fd83614ceb565b82815260059290921b8301810191818101908a841115614d7c57600080fd5b938201935b83851015614da3578435614d94816145d4565b82529382019390820190614d81565b9750508701359450614dba915050604086016148da565b9150614dc8606086016148da565b905092959194509250565b60008251614de5818460208701614569565b9190910192915050565b60a081526000614e0360a083018b8d6149eb565b8281036020840152614e16818a8c6149eb565b90508281036040840152614e2b81888a6149eb565b90508281036060840152614e408186886149eb565b9150508260808301529a9950505050505050505050565b60008060008060008060c08789031215614e7057600080fd5b863567ffffffffffffffff80821115614e8857600080fd5b614e948a838b016144de565b97506020890135915080821115614eaa57600080fd5b50614eb789828a016144de565b9550506040870135614ec8816145d4565b959894975094956060810135955060808101359460a0909101359350915050565b6000614ef76144fd846144b6565b9050828152838383011115614f0b57600080fd5b612a23836020830184614569565b600082601f830112614f2a57600080fd5b81516020614f3a6144fd83614ceb565b82815260059290921b84018101918181019086841115614f5957600080fd5b8286015b84811015610de757805167ffffffffffffffff811115614f7d5760008081fd5b8701603f81018913614f8f5760008081fd5b614fa0898683015160408401614ee9565b845250918301918301614f5d565b600082601f830112614fbf57600080fd5b612a2383835160208501614ee9565b600082601f830112614fdf57600080fd5b81516020614fef6144fd83614ceb565b82815260059290921b8401810191818101908684111561500e57600080fd5b8286015b84811015610de757805167ffffffffffffffff8111156150325760008081fd5b6150408986838b0101614fae565b845250918301918301615012565b600080600080600060a0868803121561506657600080fd5b855194506020808701516003811061507d57600080fd5b604088015190955067ffffffffffffffff8082111561509b57600080fd5b818901915089601f8301126150af57600080fd5b81516150bd6144fd82614ceb565b81815260059190911b8301840190848101908c8311156150dc57600080fd5b938501935b828510156150fa578451825293850193908501906150e1565b60608c0151909850945050508083111561511357600080fd5b61511f8a848b01614f19565b9450608089015192508083111561513557600080fd5b505061514388828901614fce565b9150509295509295909350565b7f4e487b7100000000000000000000000000000000000000000000000000000000600052602160045260246000fd5b6040815260006151926040830185614595565b90508260208301529392505050565b60006101008a83528960208401528060408401526151c18184018a614595565b905082810360608401526151d58189614595565b90506001600160a01b03871660808401528560a084015282810360c08401526151fe8186614595565b9150508260e08301529998505050505050505050565b60006020828403121561522657600080fd5b8151612a23816145d4565b82815260008251615249816020850160208701614569565b919091016020019392505050565b60006020828403121561526957600080fd5b5051919050565b6001600160a01b0383168152604060208201526000612e666040830184614595565b805180151581146148e557600080fd5b600080604083850312156152b557600080fd5b6152be83615292565b9150602083015167ffffffffffffffff8111156152da57600080fd5b6148d085828601614fae565b6000602082840312156152f857600080fd5b612a2382615292565b60c08152600061531460c0830189614595565b82810360208401526153268189614595565b9050828103604084015261533a8188614595565b60608401969096525050608081019290925260a0909101529392505050565b86815285602082015260c06040820152600061537860c0830187614595565b828103606084015261538a8187614595565b6001600160a01b03959095166080840152505060a00152949350505050565b60a0815260006153bc60a0830188614595565b82810360208401526153ce8188614595565b60ff9690961660408401525050606081019290925260809091015292915050565b6040815260006154026040830185614595565b90506001600160a01b03831660208301529392505050565b60808152600061542d6080830187614595565b828103602084015261543f8187614595565b604084019590955250506060015292915050565b60008282101561546557615465614973565b500390565b60008161547957615479614973565b507fffffffffffffffffffffffffffffffffffffffffffffffffffffffffffffffff019056fe6080604052600160005534801561001557600080fd5b50610347806100256000396000f3fe608060405234801561001057600080fd5b50600436106100355760003560e01c8062f55d9d1461003a5780631cff79cd1461004f575b600080fd5b61004d6100483660046101df565b610079565b005b61006261005d366004610201565b6100d4565b604051610070929190610284565b60405180910390f35b600260005414156100b6576040517fcaa30f5500000000000000000000000000000000000000000000000000000000815260040160405180910390fd5b600260005573ffffffffffffffffffffffffffffffffffffffff8116ff5b6000606060026000541415610115576040517fcaa30f5500000000000000000000000000000000000000000000000000000000815260040160405180910390fd5b600260005573ffffffffffffffffffffffffffffffffffffffff85163b156101a7578473ffffffffffffffffffffffffffffffffffffffff16848460405161015e929190610301565b6000604051808303816000865af19150503d806000811461019b576040519150601f19603f3d011682016040523d82523d6000602084013e6101a0565b606091505b5090925090505b60016000559094909350915050565b803573ffffffffffffffffffffffffffffffffffffffff811681146101da57600080fd5b919050565b6000602082840312156101f157600080fd5b6101fa826101b6565b9392505050565b60008060006040848603121561021657600080fd5b61021f846101b6565b9250602084013567ffffffffffffffff8082111561023c57600080fd5b818601915086601f83011261025057600080fd5b81358181111561025f57600080fd5b87602082850101111561027157600080fd5b6020830194508093505050509250925092565b821515815260006020604081840152835180604085015260005b818110156102ba5785810183015185820160600152820161029e565b818111156102cc576000606083870101525b50601f017fffffffffffffffffffffffffffffffffffffffffffffffffffffffffffffffe01692909201606001949350505050565b818382376000910190815291905056fea264697066735822122027ac4847339d505a02c0561a792af22d5087e4b266d50e4b96ac925ad8d170e064736f6c63430008090033a2646970667358221220b3e8f326fc3ac6bccef3b9d2c65f68c9370d04508de10b3874810f04b416a70f64736f6c63430008090033",
      "opcodes": "PUSH1 0xA0 PUSH1 0x40 MSTORE CALLVALUE DUP1 ISZERO PUSH3 0x11 JUMPI PUSH1 0x0 DUP1 REVERT JUMPDEST POP PUSH1 0x40 MLOAD PUSH3 0x5900 CODESIZE SUB DUP1 PUSH3 0x5900 DUP4 CODECOPY DUP2 ADD PUSH1 0x40 DUP2 SWAP1 MSTORE PUSH3 0x34 SWAP2 PUSH3 0x71 JUMP JUMPDEST DUP1 PUSH1 0x1 PUSH1 0x1 PUSH1 0xA0 SHL SUB DUP2 AND EXTCODESIZE PUSH3 0x5E JUMPI PUSH1 0x40 MLOAD PUSH4 0xC84DABF PUSH1 0xE3 SHL DUP2 MSTORE PUSH1 0x4 ADD PUSH1 0x40 MLOAD DUP1 SWAP2 SUB SWAP1 REVERT JUMPDEST PUSH1 0x1 PUSH1 0x1 PUSH1 0xA0 SHL SUB AND PUSH1 0x80 MSTORE POP PUSH3 0xA3 JUMP JUMPDEST PUSH1 0x0 PUSH1 0x20 DUP3 DUP5 SUB SLT ISZERO PUSH3 0x84 JUMPI PUSH1 0x0 DUP1 REVERT JUMPDEST DUP2 MLOAD PUSH1 0x1 PUSH1 0x1 PUSH1 0xA0 SHL SUB DUP2 AND DUP2 EQ PUSH3 0x9C JUMPI PUSH1 0x0 DUP1 REVERT JUMPDEST SWAP4 SWAP3 POP POP POP JUMP JUMPDEST PUSH1 0x80 MLOAD PUSH2 0x5841 PUSH3 0xBF PUSH1 0x0 CODECOPY PUSH1 0x0 PUSH2 0x34D0 ADD MSTORE PUSH2 0x5841 PUSH1 0x0 RETURN INVALID PUSH1 0x80 PUSH1 0x40 MSTORE CALLVALUE DUP1 ISZERO PUSH2 0x10 JUMPI PUSH1 0x0 DUP1 REVERT JUMPDEST POP PUSH1 0x4 CALLDATASIZE LT PUSH2 0x277 JUMPI PUSH1 0x0 CALLDATALOAD PUSH1 0xE0 SHR DUP1 PUSH4 0x886A625D GT PUSH2 0x160 JUMPI DUP1 PUSH4 0xB5417084 GT PUSH2 0xD8 JUMPI DUP1 PUSH4 0xD2BC37F8 GT PUSH2 0x8C JUMPI DUP1 PUSH4 0xE3DFA299 GT PUSH2 0x71 JUMPI DUP1 PUSH4 0xE3DFA299 EQ PUSH2 0x5F7 JUMPI DUP1 PUSH4 0xF6A5F9F5 EQ PUSH2 0x5FF JUMPI DUP1 PUSH4 0xFBE0A31B EQ PUSH2 0x612 JUMPI PUSH1 0x0 DUP1 REVERT JUMPDEST DUP1 PUSH4 0xD2BC37F8 EQ PUSH2 0x5CF JUMPI DUP1 PUSH4 0xDC97D962 EQ PUSH2 0x5D7 JUMPI PUSH1 0x0 DUP1 REVERT JUMPDEST DUP1 PUSH4 0xBD02D0F5 GT PUSH2 0xBD JUMPI DUP1 PUSH4 0xBD02D0F5 EQ PUSH2 0x589 JUMPI DUP1 PUSH4 0xC031A180 EQ PUSH2 0x5A9 JUMPI DUP1 PUSH4 0xD26FF210 EQ PUSH2 0x5BC JUMPI PUSH1 0x0 DUP1 REVERT JUMPDEST DUP1 PUSH4 0xB5417084 EQ PUSH2 0x563 JUMPI DUP1 PUSH4 0xBC00C216 EQ PUSH2 0x576 JUMPI PUSH1 0x0 DUP1 REVERT JUMPDEST DUP1 PUSH4 0x97B87BA6 GT PUSH2 0x12F JUMPI DUP1 PUSH4 0x9DED06DF GT PUSH2 0x114 JUMPI DUP1 PUSH4 0x9DED06DF EQ PUSH2 0x4EA JUMPI DUP1 PUSH4 0xA3499C73 EQ PUSH2 0x4FD JUMPI DUP1 PUSH4 0xAA1E1F0A EQ PUSH2 0x510 JUMPI PUSH1 0x0 DUP1 REVERT JUMPDEST DUP1 PUSH4 0x97B87BA6 EQ PUSH2 0x4B7 JUMPI DUP1 PUSH4 0x986E791A EQ PUSH2 0x4CA JUMPI PUSH1 0x0 DUP1 REVERT JUMPDEST DUP1 PUSH4 0x886A625D EQ PUSH2 0x476 JUMPI DUP1 PUSH4 0x88B30587 EQ PUSH2 0x489 JUMPI DUP1 PUSH4 0x8DA5CB5B EQ PUSH2 0x49C JUMPI DUP1 PUSH4 0x935B13F6 EQ PUSH2 0x4A4 JUMPI PUSH1 0x0 DUP1 REVERT JUMPDEST DUP1 PUSH4 0x4656AE2E GT PUSH2 0x1F3 JUMPI DUP1 PUSH4 0x5F6970C3 GT PUSH2 0x1C2 JUMPI DUP1 PUSH4 0x7AE1CFCA GT PUSH2 0x1A7 JUMPI DUP1 PUSH4 0x7AE1CFCA EQ PUSH2 0x42D JUMPI DUP1 PUSH4 0x7B1B769E EQ PUSH2 0x450 JUMPI DUP1 PUSH4 0x7E8C8118 EQ PUSH2 0x463 JUMPI PUSH1 0x0 DUP1 REVERT JUMPDEST DUP1 PUSH4 0x5F6970C3 EQ PUSH2 0x407 JUMPI DUP1 PUSH4 0x646C5D34 EQ PUSH2 0x41A JUMPI PUSH1 0x0 DUP1 REVERT JUMPDEST DUP1 PUSH4 0x4656AE2E EQ PUSH2 0x380 JUMPI DUP1 PUSH4 0x570CA735 EQ PUSH2 0x393 JUMPI DUP1 PUSH4 0x585A9FD4 EQ PUSH2 0x39B JUMPI DUP1 PUSH4 0x5C60DA1B EQ PUSH2 0x3AE JUMPI PUSH1 0x0 DUP1 REVERT JUMPDEST DUP1 PUSH4 0x1C92115F GT PUSH2 0x24A JUMPI DUP1 PUSH4 0x26EF699D GT PUSH2 0x22F JUMPI DUP1 PUSH4 0x26EF699D EQ PUSH2 0x344 JUMPI DUP1 PUSH4 0x34FF6983 EQ PUSH2 0x357 JUMPI DUP1 PUSH4 0x364940D8 EQ PUSH2 0x36A JUMPI PUSH1 0x0 DUP1 REVERT JUMPDEST DUP1 PUSH4 0x1C92115F EQ PUSH2 0x2F0 JUMPI DUP1 PUSH4 0x21F8A721 EQ PUSH2 0x303 JUMPI PUSH1 0x0 DUP1 REVERT JUMPDEST DUP1 PUSH4 0x9C5EABE EQ PUSH2 0x27C JUMPI DUP1 PUSH4 0x146E2D78 EQ PUSH2 0x291 JUMPI DUP1 PUSH4 0x14BFD6D0 EQ PUSH2 0x2A4 JUMPI DUP1 PUSH4 0x1876EED9 EQ PUSH2 0x2CD JUMPI JUMPDEST PUSH1 0x0 DUP1 REVERT JUMPDEST PUSH2 0x28F PUSH2 0x28A CALLDATASIZE PUSH1 0x4 PUSH2 0x40EE JUMP JUMPDEST PUSH2 0x625 JUMP JUMPDEST STOP JUMPDEST PUSH2 0x28F PUSH2 0x29F CALLDATASIZE PUSH1 0x4 PUSH2 0x4130 JUMP JUMPDEST PUSH2 0x648 JUMP JUMPDEST PUSH2 0x2B7 PUSH2 0x2B2 CALLDATASIZE PUSH1 0x4 PUSH2 0x417C JUMP JUMPDEST PUSH2 0x6AA JUMP JUMPDEST PUSH1 0x40 MLOAD PUSH2 0x2C4 SWAP2 SWAP1 PUSH2 0x4195 JUMP JUMPDEST PUSH1 0x40 MLOAD DUP1 SWAP2 SUB SWAP1 RETURN JUMPDEST PUSH2 0x2E0 PUSH2 0x2DB CALLDATASIZE PUSH1 0x4 PUSH2 0x41E2 JUMP JUMPDEST PUSH2 0x754 JUMP JUMPDEST PUSH1 0x40 MLOAD SWAP1 ISZERO ISZERO DUP2 MSTORE PUSH1 0x20 ADD PUSH2 0x2C4 JUMP JUMPDEST PUSH2 0x28F PUSH2 0x2FE CALLDATASIZE PUSH1 0x4 PUSH2 0x4297 JUMP JUMPDEST PUSH2 0x888 JUMP JUMPDEST PUSH2 0x32C PUSH2 0x311 CALLDATASIZE PUSH1 0x4 PUSH2 0x417C JUMP JUMPDEST PUSH1 0x0 SWAP1 DUP2 MSTORE PUSH1 0x2 PUSH1 0x20 MSTORE PUSH1 0x40 SWAP1 KECCAK256 SLOAD PUSH1 0x1 PUSH1 0x1 PUSH1 0xA0 SHL SUB AND SWAP1 JUMP JUMPDEST PUSH1 0x40 MLOAD PUSH1 0x1 PUSH1 0x1 PUSH1 0xA0 SHL SUB SWAP1 SWAP2 AND DUP2 MSTORE PUSH1 0x20 ADD PUSH2 0x2C4 JUMP JUMPDEST PUSH2 0x28F PUSH2 0x352 CALLDATASIZE PUSH1 0x4 PUSH2 0x4331 JUMP JUMPDEST PUSH2 0x8F3 JUMP JUMPDEST PUSH2 0x28F PUSH2 0x365 CALLDATASIZE PUSH1 0x4 PUSH2 0x40EE JUMP JUMPDEST PUSH2 0x98B JUMP JUMPDEST PUSH2 0x372 PUSH2 0xBAD JUMP JUMPDEST PUSH1 0x40 MLOAD SWAP1 DUP2 MSTORE PUSH1 0x20 ADD PUSH2 0x2C4 JUMP JUMPDEST PUSH2 0x28F PUSH2 0x38E CALLDATASIZE PUSH1 0x4 PUSH2 0x4130 JUMP JUMPDEST PUSH2 0xC05 JUMP JUMPDEST PUSH2 0x32C PUSH2 0xC62 JUMP JUMPDEST PUSH2 0x28F PUSH2 0x3A9 CALLDATASIZE PUSH1 0x4 PUSH2 0x4130 JUMP JUMPDEST PUSH2 0xCBD JUMP JUMPDEST PUSH32 0x360894A13BA1A3210667C828492DB98DCA3E2076CC3735A920A3CA505D382BBC PUSH1 0x0 MSTORE PUSH1 0x2 PUSH1 0x20 MSTORE PUSH32 0x11141F466C69FD409E1990E063B49CD6D61ED2ECFF27A2E402E259CA6B9A01A3 SLOAD PUSH1 0x1 PUSH1 0x1 PUSH1 0xA0 SHL SUB AND PUSH2 0x32C JUMP JUMPDEST PUSH2 0x2E0 PUSH2 0x415 CALLDATASIZE PUSH1 0x4 PUSH2 0x43D4 JUMP JUMPDEST PUSH2 0xD39 JUMP JUMPDEST PUSH2 0x28F PUSH2 0x428 CALLDATASIZE PUSH1 0x4 PUSH2 0x40EE JUMP JUMPDEST PUSH2 0xDF2 JUMP JUMPDEST PUSH2 0x2E0 PUSH2 0x43B CALLDATASIZE PUSH1 0x4 PUSH2 0x417C JUMP JUMPDEST PUSH1 0x0 SWAP1 DUP2 MSTORE PUSH1 0x4 PUSH1 0x20 MSTORE PUSH1 0x40 SWAP1 KECCAK256 SLOAD PUSH1 0xFF AND SWAP1 JUMP JUMPDEST PUSH2 0x2E0 PUSH2 0x45E CALLDATASIZE PUSH1 0x4 PUSH2 0x4534 JUMP JUMPDEST PUSH2 0x1007 JUMP JUMPDEST PUSH2 0x28F PUSH2 0x471 CALLDATASIZE PUSH1 0x4 PUSH2 0x4130 JUMP JUMPDEST PUSH2 0x101B JUMP JUMPDEST PUSH2 0x28F PUSH2 0x484 CALLDATASIZE PUSH1 0x4 PUSH2 0x4130 JUMP JUMPDEST PUSH2 0x11A7 JUMP JUMPDEST PUSH2 0x372 PUSH2 0x497 CALLDATASIZE PUSH1 0x4 PUSH2 0x417C JUMP JUMPDEST PUSH2 0x1213 JUMP JUMPDEST PUSH2 0x32C PUSH2 0x121E JUMP JUMPDEST PUSH2 0x32C PUSH2 0x4B2 CALLDATASIZE PUSH1 0x4 PUSH2 0x4534 JUMP JUMPDEST PUSH2 0x1279 JUMP JUMPDEST PUSH2 0x28F PUSH2 0x4C5 CALLDATASIZE PUSH1 0x4 PUSH2 0x4130 JUMP JUMPDEST PUSH2 0x1287 JUMP JUMPDEST PUSH2 0x4DD PUSH2 0x4D8 CALLDATASIZE PUSH1 0x4 PUSH2 0x417C JUMP JUMPDEST PUSH2 0x1412 JUMP JUMPDEST PUSH1 0x40 MLOAD PUSH2 0x2C4 SWAP2 SWAP1 PUSH2 0x45C1 JUMP JUMPDEST PUSH2 0x28F PUSH2 0x4F8 CALLDATASIZE PUSH1 0x4 PUSH2 0x40EE JUMP JUMPDEST PUSH2 0x14B4 JUMP JUMPDEST PUSH2 0x28F PUSH2 0x50B CALLDATASIZE PUSH1 0x4 PUSH2 0x45E9 JUMP JUMPDEST PUSH2 0x1816 JUMP JUMPDEST PUSH32 0x75A31D1CE8E5F9892188BEFC328D3B9BD3FA5037457E881ABC21F388471B8D96 PUSH1 0x0 MSTORE PUSH1 0x4 PUSH1 0x20 MSTORE PUSH32 0xA0B596B8942D6EF5CC77CE0AD89A75F0BFCC7F0132CD8DB58E8449DCF04A858A SLOAD PUSH1 0xFF AND PUSH2 0x2E0 JUMP JUMPDEST PUSH2 0x28F PUSH2 0x571 CALLDATASIZE PUSH1 0x4 PUSH2 0x4645 JUMP JUMPDEST PUSH2 0x1BAF JUMP JUMPDEST PUSH2 0x2E0 PUSH2 0x584 CALLDATASIZE PUSH1 0x4 PUSH2 0x4711 JUMP JUMPDEST PUSH2 0x1C65 JUMP JUMPDEST PUSH2 0x372 PUSH2 0x597 CALLDATASIZE PUSH1 0x4 PUSH2 0x417C JUMP JUMPDEST PUSH1 0x0 SWAP1 DUP2 MSTORE PUSH1 0x20 DUP2 SWAP1 MSTORE PUSH1 0x40 SWAP1 KECCAK256 SLOAD SWAP1 JUMP JUMPDEST PUSH2 0x4DD PUSH2 0x5B7 CALLDATASIZE PUSH1 0x4 PUSH2 0x417C JUMP JUMPDEST PUSH2 0x1D38 JUMP JUMPDEST PUSH2 0x2E0 PUSH2 0x5CA CALLDATASIZE PUSH1 0x4 PUSH2 0x417C JUMP JUMPDEST PUSH2 0x1D55 JUMP JUMPDEST PUSH2 0x28F PUSH2 0x1D63 JUMP JUMPDEST PUSH2 0x372 PUSH2 0x5E5 CALLDATASIZE PUSH1 0x4 PUSH2 0x417C JUMP JUMPDEST PUSH1 0x0 SWAP1 DUP2 MSTORE PUSH1 0x5 PUSH1 0x20 MSTORE PUSH1 0x40 SWAP1 KECCAK256 SLOAD SWAP1 JUMP JUMPDEST PUSH2 0x28F PUSH2 0x1F5E JUMP JUMPDEST PUSH2 0x2E0 PUSH2 0x60D CALLDATASIZE PUSH1 0x4 PUSH2 0x47DF JUMP JUMPDEST PUSH2 0x2156 JUMP JUMPDEST PUSH2 0x28F PUSH2 0x620 CALLDATASIZE PUSH1 0x4 PUSH2 0x4130 JUMP JUMPDEST PUSH2 0x21DF JUMP JUMPDEST PUSH1 0x0 DUP1 PUSH2 0x634 DUP4 DUP6 ADD DUP6 PUSH2 0x4876 JUMP JUMPDEST SWAP2 POP SWAP2 POP PUSH2 0x642 DUP3 DUP3 PUSH2 0x2246 JUMP JUMPDEST POP POP POP POP JUMP JUMPDEST CALLER ADDRESS EQ PUSH2 0x681 JUMPI PUSH1 0x40 MLOAD PUSH32 0x29C3B7EE00000000000000000000000000000000000000000000000000000000 DUP2 MSTORE PUSH1 0x4 ADD PUSH1 0x40 MLOAD DUP1 SWAP2 SUB SWAP1 REVERT JUMPDEST PUSH1 0x0 DUP1 DUP1 PUSH2 0x691 DUP6 DUP8 ADD DUP8 PUSH2 0x48EA JUMP JUMPDEST SWAP3 POP SWAP3 POP SWAP3 POP PUSH2 0x6A2 DUP4 DUP4 DUP4 PUSH2 0x281F JUMP JUMPDEST POP POP POP POP POP POP JUMP JUMPDEST PUSH1 0x60 PUSH1 0x0 PUSH2 0x6B7 DUP4 PUSH2 0x2A06 JUMP JUMPDEST SWAP1 POP DUP1 PUSH8 0xFFFFFFFFFFFFFFFF DUP2 GT ISZERO PUSH2 0x6D2 JUMPI PUSH2 0x6D2 PUSH2 0x4456 JUMP JUMPDEST PUSH1 0x40 MLOAD SWAP1 DUP1 DUP3 MSTORE DUP1 PUSH1 0x20 MUL PUSH1 0x20 ADD DUP3 ADD PUSH1 0x40 MSTORE DUP1 ISZERO PUSH2 0x6FB JUMPI DUP2 PUSH1 0x20 ADD PUSH1 0x20 DUP3 MUL DUP1 CALLDATASIZE DUP4 CALLDATACOPY ADD SWAP1 POP JUMPDEST POP SWAP2 POP PUSH1 0x0 JUMPDEST DUP2 DUP2 LT ISZERO PUSH2 0x74D JUMPI PUSH2 0x713 DUP5 DUP3 PUSH2 0x2A14 JUMP JUMPDEST DUP4 DUP3 DUP2 MLOAD DUP2 LT PUSH2 0x725 JUMPI PUSH2 0x725 PUSH2 0x4944 JUMP JUMPDEST PUSH1 0x1 PUSH1 0x1 PUSH1 0xA0 SHL SUB SWAP1 SWAP3 AND PUSH1 0x20 SWAP3 DUP4 MUL SWAP2 SWAP1 SWAP2 ADD SWAP1 SWAP2 ADD MSTORE PUSH2 0x746 DUP2 PUSH2 0x49A2 JUMP JUMPDEST SWAP1 POP PUSH2 0x701 JUMP JUMPDEST POP POP SWAP2 SWAP1 POP JUMP JUMPDEST PUSH1 0x0 DUP1 PUSH2 0x805 DUP12 DUP12 DUP12 DUP1 DUP1 PUSH1 0x1F ADD PUSH1 0x20 DUP1 SWAP2 DIV MUL PUSH1 0x20 ADD PUSH1 0x40 MLOAD SWAP1 DUP2 ADD PUSH1 0x40 MSTORE DUP1 SWAP4 SWAP3 SWAP2 SWAP1 DUP2 DUP2 MSTORE PUSH1 0x20 ADD DUP4 DUP4 DUP1 DUP3 DUP5 CALLDATACOPY PUSH1 0x0 SWAP3 ADD SWAP2 SWAP1 SWAP2 MSTORE POP POP PUSH1 0x40 DUP1 MLOAD PUSH1 0x20 PUSH1 0x1F DUP16 ADD DUP2 SWAP1 DIV DUP2 MUL DUP3 ADD DUP2 ADD SWAP1 SWAP3 MSTORE DUP14 DUP2 MSTORE SWAP3 POP DUP14 SWAP2 POP DUP13 SWAP1 DUP2 SWAP1 DUP5 ADD DUP4 DUP3 DUP1 DUP3 DUP5 CALLDATACOPY PUSH1 0x0 SWAP3 ADD SWAP2 SWAP1 SWAP2 MSTORE POP POP PUSH1 0x40 DUP1 MLOAD PUSH1 0x20 PUSH1 0x1F DUP14 ADD DUP2 SWAP1 DIV DUP2 MUL DUP3 ADD DUP2 ADD SWAP1 SWAP3 MSTORE DUP12 DUP2 MSTORE CALLER SWAP4 POP DUP14 SWAP3 POP SWAP1 DUP13 SWAP1 DUP13 SWAP1 DUP2 SWAP1 DUP5 ADD DUP4 DUP3 DUP1 DUP3 DUP5 CALLDATACOPY PUSH1 0x0 SWAP3 ADD SWAP2 SWAP1 SWAP2 MSTORE POP DUP13 SWAP3 POP PUSH2 0x2A2A SWAP2 POP POP JUMP JUMPDEST PUSH1 0x0 DUP2 DUP2 MSTORE PUSH1 0x4 PUSH1 0x20 MSTORE PUSH1 0x40 SWAP1 KECCAK256 SLOAD PUSH1 0xFF AND SWAP3 POP SWAP1 POP DUP2 ISZERO PUSH2 0x87A JUMPI PUSH1 0x0 DUP2 DUP2 MSTORE PUSH1 0x4 PUSH1 0x20 MSTORE PUSH1 0x40 SWAP1 KECCAK256 DUP1 SLOAD PUSH1 0xFF NOT AND SWAP1 SSTORE PUSH2 0x87A DUP6 DUP6 DUP1 DUP1 PUSH1 0x1F ADD PUSH1 0x20 DUP1 SWAP2 DIV MUL PUSH1 0x20 ADD PUSH1 0x40 MLOAD SWAP1 DUP2 ADD PUSH1 0x40 MSTORE DUP1 SWAP4 SWAP3 SWAP2 SWAP1 DUP2 DUP2 MSTORE PUSH1 0x20 ADD DUP4 DUP4 DUP1 DUP3 DUP5 CALLDATACOPY PUSH1 0x0 SWAP3 ADD SWAP2 SWAP1 SWAP2 MSTORE POP CALLER SWAP3 POP DUP8 SWAP2 POP PUSH2 0x281F SWAP1 POP JUMP JUMPDEST POP SWAP10 SWAP9 POP POP POP POP POP POP POP POP POP JUMP JUMPDEST DUP2 DUP2 PUSH1 0x40 MLOAD PUSH2 0x898 SWAP3 SWAP2 SWAP1 PUSH2 0x49DB JUMP JUMPDEST PUSH1 0x40 MLOAD DUP1 SWAP2 SUB SWAP1 KECCAK256 CALLER PUSH1 0x1 PUSH1 0x1 PUSH1 0xA0 SHL SUB AND PUSH32 0x30AE6CC78C27E651745BF2AD08A11DE83910AC1E347A52F7AC898C0FBEF94DAE DUP9 DUP9 DUP9 DUP9 DUP9 DUP9 PUSH1 0x40 MLOAD PUSH2 0x8E3 SWAP7 SWAP6 SWAP5 SWAP4 SWAP3 SWAP2 SWAP1 PUSH2 0x4A16 JUMP JUMPDEST PUSH1 0x40 MLOAD DUP1 SWAP2 SUB SWAP1 LOG3 POP POP POP POP POP POP JUMP JUMPDEST PUSH2 0x935 CALLER DUP5 DUP5 DUP1 DUP1 PUSH1 0x1F ADD PUSH1 0x20 DUP1 SWAP2 DIV MUL PUSH1 0x20 ADD PUSH1 0x40 MLOAD SWAP1 DUP2 ADD PUSH1 0x40 MSTORE DUP1 SWAP4 SWAP3 SWAP2 SWAP1 DUP2 DUP2 MSTORE PUSH1 0x20 ADD DUP4 DUP4 DUP1 DUP3 DUP5 CALLDATACOPY PUSH1 0x0 SWAP3 ADD SWAP2 SWAP1 SWAP2 MSTORE POP DUP7 SWAP3 POP PUSH2 0x2A8E SWAP2 POP POP JUMP JUMPDEST CALLER PUSH1 0x1 PUSH1 0x1 PUSH1 0xA0 SHL SUB AND PUSH32 0x651D93F66C4329630E8D0F62488EFF599E3BE484DA587335E8DC0FCF46062726 DUP9 DUP9 DUP9 DUP9 DUP9 DUP9 DUP9 PUSH1 0x40 MLOAD PUSH2 0x97A SWAP8 SWAP7 SWAP6 SWAP5 SWAP4 SWAP3 SWAP2 SWAP1 PUSH2 0x4A5F JUMP JUMPDEST PUSH1 0x40 MLOAD DUP1 SWAP2 SUB SWAP1 LOG2 POP POP POP POP POP POP POP JUMP JUMPDEST PUSH1 0x0 PUSH2 0x9DE PUSH32 0xD51DC9B187568BB94760866E1D0D066CA470037D2D331AFB1A02EC74BFB8990C PUSH1 0x0 SWAP1 DUP2 MSTORE PUSH1 0x20 MSTORE PUSH32 0xF8D0C05CD32E3272241FDC9D5839565F8BCF94139CB4BD09E230E1B57A60DDC2 SLOAD SWAP1 JUMP JUMPDEST SWAP1 POP PUSH2 0x9EA DUP2 CALLER PUSH2 0x2DCE JUMP JUMPDEST PUSH2 0xA20 JUMPI PUSH1 0x40 MLOAD PUSH32 0x7BFA4B9F00000000000000000000000000000000000000000000000000000000 DUP2 MSTORE PUSH1 0x4 ADD PUSH1 0x40 MLOAD DUP1 SWAP2 SUB SWAP1 REVERT JUMPDEST PUSH1 0x0 DUP1 CALLDATASIZE PUSH1 0x40 MLOAD PUSH2 0xA32 SWAP3 SWAP2 SWAP1 PUSH2 0x49DB JUMP JUMPDEST PUSH1 0x40 MLOAD DUP1 SWAP2 SUB SWAP1 KECCAK256 SWAP1 POP PUSH2 0xA47 DUP3 DUP3 CALLER PUSH2 0x2DDD JUMP JUMPDEST ISZERO PUSH2 0xA7E JUMPI PUSH1 0x40 MLOAD PUSH32 0x7C9A1CF900000000000000000000000000000000000000000000000000000000 DUP2 MSTORE PUSH1 0x4 ADD PUSH1 0x40 MLOAD DUP1 SWAP2 SUB SWAP1 REVERT JUMPDEST PUSH2 0xA8B DUP3 DUP3 CALLER PUSH1 0x1 PUSH2 0x2E6E JUMP JUMPDEST PUSH1 0x0 PUSH1 0x1 PUSH2 0xA99 DUP5 DUP5 PUSH2 0x2F0C JUMP JUMPDEST PUSH2 0xAA3 SWAP2 SWAP1 PUSH2 0x4AB0 JUMP JUMPDEST SWAP1 POP PUSH2 0xAB0 DUP4 DUP4 DUP4 PUSH2 0x2F1B JUMP JUMPDEST PUSH2 0xAB9 DUP4 PUSH2 0x2F40 JUMP JUMPDEST DUP2 LT ISZERO PUSH2 0xAC7 JUMPI POP POP POP POP POP JUMP JUMPDEST PUSH2 0xB21 PUSH2 0xB09 DUP7 DUP7 DUP1 DUP1 PUSH1 0x1F ADD PUSH1 0x20 DUP1 SWAP2 DIV MUL PUSH1 0x20 ADD PUSH1 0x40 MLOAD SWAP1 DUP2 ADD PUSH1 0x40 MSTORE DUP1 SWAP4 SWAP3 SWAP2 SWAP1 DUP2 DUP2 MSTORE PUSH1 0x20 ADD DUP4 DUP4 DUP1 DUP3 DUP5 CALLDATACOPY PUSH1 0x0 SWAP3 ADD SWAP2 SWAP1 SWAP2 MSTORE POP PUSH2 0x2F4E SWAP3 POP POP POP JUMP JUMPDEST PUSH1 0x0 SWAP1 DUP2 MSTORE PUSH1 0x4 PUSH1 0x20 MSTORE PUSH1 0x40 SWAP1 KECCAK256 DUP1 SLOAD PUSH1 0xFF NOT AND SWAP1 SSTORE JUMP JUMPDEST PUSH32 0x5327E3AF9CD2D5C19A8DFF23EF487D7A4D5F6FC985464F1792A33C2120575989 DUP6 DUP6 PUSH1 0x40 MLOAD PUSH2 0xB52 SWAP3 SWAP2 SWAP1 PUSH2 0x4AC8 JUMP JUMPDEST PUSH1 0x40 MLOAD DUP1 SWAP2 SUB SWAP1 LOG1 PUSH2 0xB66 DUP4 DUP4 PUSH1 0x0 PUSH2 0x2F1B JUMP JUMPDEST PUSH1 0x0 PUSH2 0xB71 DUP5 PUSH2 0x2A06 JUMP JUMPDEST SWAP1 POP PUSH1 0x0 JUMPDEST DUP2 DUP2 LT ISZERO PUSH2 0xBA4 JUMPI PUSH2 0xB94 DUP6 DUP6 PUSH2 0xB8D DUP9 DUP6 PUSH2 0x2A14 JUMP JUMPDEST PUSH1 0x0 PUSH2 0x2E6E JUMP JUMPDEST PUSH2 0xB9D DUP2 PUSH2 0x49A2 JUMP JUMPDEST SWAP1 POP PUSH2 0xB76 JUMP JUMPDEST POP POP POP POP POP POP POP JUMP JUMPDEST PUSH1 0x0 PUSH2 0xC00 PUSH32 0xD51DC9B187568BB94760866E1D0D066CA470037D2D331AFB1A02EC74BFB8990C PUSH1 0x0 SWAP1 DUP2 MSTORE PUSH1 0x20 MSTORE PUSH32 0xF8D0C05CD32E3272241FDC9D5839565F8BCF94139CB4BD09E230E1B57A60DDC2 SLOAD SWAP1 JUMP JUMPDEST SWAP1 POP SWAP1 JUMP JUMPDEST CALLER ADDRESS EQ PUSH2 0xC3E JUMPI PUSH1 0x40 MLOAD PUSH32 0x29C3B7EE00000000000000000000000000000000000000000000000000000000 DUP2 MSTORE PUSH1 0x4 ADD PUSH1 0x40 MLOAD DUP1 SWAP2 SUB SWAP1 REVERT JUMPDEST PUSH1 0x0 DUP1 PUSH2 0xC4D DUP5 DUP7 ADD DUP7 PUSH2 0x4ADC JUMP JUMPDEST SWAP2 POP SWAP2 POP PUSH2 0xC5B DUP3 DUP3 PUSH2 0x2FA0 JUMP JUMPDEST POP POP POP POP POP JUMP JUMPDEST PUSH1 0x0 PUSH2 0xC00 PUSH2 0xCB8 PUSH32 0x5369FB791F26307F8E69B07625302CCAC6930AF09AB22D753B17D2042E9992E7 PUSH1 0x0 SWAP1 DUP2 MSTORE PUSH1 0x20 MSTORE PUSH32 0x7174C149A4F7627AC1DD39B679BD42F12FC4E8D7E850B055662BBEE7188DA10 SLOAD SWAP1 JUMP JUMPDEST PUSH2 0x3310 JUMP JUMPDEST CALLER ADDRESS EQ PUSH2 0xCF6 JUMPI PUSH1 0x40 MLOAD PUSH32 0x29C3B7EE00000000000000000000000000000000000000000000000000000000 DUP2 MSTORE PUSH1 0x4 ADD PUSH1 0x40 MLOAD DUP1 SWAP2 SUB SWAP1 REVERT JUMPDEST PUSH1 0x0 DUP1 DUP1 DUP1 DUP1 DUP1 DUP1 DUP1 PUSH2 0xD0B DUP11 DUP13 ADD DUP13 PUSH2 0x4B21 JUMP JUMPDEST SWAP8 POP SWAP8 POP SWAP8 POP SWAP8 POP SWAP8 POP SWAP8 POP SWAP8 POP SWAP8 POP PUSH2 0xD2C DUP10 DUP10 DUP10 DUP10 DUP10 DUP10 DUP10 DUP10 DUP10 PUSH2 0x331E JUMP JUMPDEST POP POP POP POP POP POP POP POP POP POP POP JUMP JUMPDEST PUSH1 0x0 DUP1 PUSH2 0xDB4 DUP9 DUP9 DUP9 DUP1 DUP1 PUSH1 0x1F ADD PUSH1 0x20 DUP1 SWAP2 DIV MUL PUSH1 0x20 ADD PUSH1 0x40 MLOAD SWAP1 DUP2 ADD PUSH1 0x40 MSTORE DUP1 SWAP4 SWAP3 SWAP2 SWAP1 DUP2 DUP2 MSTORE PUSH1 0x20 ADD DUP4 DUP4 DUP1 DUP3 DUP5 CALLDATACOPY PUSH1 0x0 SWAP3 ADD SWAP2 SWAP1 SWAP2 MSTORE POP POP PUSH1 0x40 DUP1 MLOAD PUSH1 0x20 PUSH1 0x1F DUP13 ADD DUP2 SWAP1 DIV DUP2 MUL DUP3 ADD DUP2 ADD SWAP1 SWAP3 MSTORE DUP11 DUP2 MSTORE SWAP3 POP DUP11 SWAP2 POP DUP10 SWAP1 DUP2 SWAP1 DUP5 ADD DUP4 DUP3 DUP1 DUP3 DUP5 CALLDATACOPY PUSH1 0x0 SWAP3 ADD SWAP2 SWAP1 SWAP2 MSTORE POP CALLER SWAP3 POP DUP10 SWAP2 POP PUSH2 0x3385 SWAP1 POP JUMP JUMPDEST PUSH1 0x0 DUP2 DUP2 MSTORE PUSH1 0x4 PUSH1 0x20 MSTORE PUSH1 0x40 SWAP1 KECCAK256 SLOAD PUSH1 0xFF AND SWAP3 POP SWAP1 POP DUP2 ISZERO PUSH2 0xDE7 JUMPI PUSH1 0x0 DUP2 DUP2 MSTORE PUSH1 0x4 PUSH1 0x20 MSTORE PUSH1 0x40 SWAP1 KECCAK256 DUP1 SLOAD PUSH1 0xFF NOT AND SWAP1 SSTORE JUMPDEST POP SWAP7 SWAP6 POP POP POP POP POP POP JUMP JUMPDEST PUSH1 0x0 PUSH2 0xE45 PUSH32 0xD51DC9B187568BB94760866E1D0D066CA470037D2D331AFB1A02EC74BFB8990C PUSH1 0x0 SWAP1 DUP2 MSTORE PUSH1 0x20 MSTORE PUSH32 0xF8D0C05CD32E3272241FDC9D5839565F8BCF94139CB4BD09E230E1B57A60DDC2 SLOAD SWAP1 JUMP JUMPDEST SWAP1 POP PUSH2 0xE51 DUP2 CALLER PUSH2 0x2DCE JUMP JUMPDEST PUSH2 0xE87 JUMPI PUSH1 0x40 MLOAD PUSH32 0x7BFA4B9F00000000000000000000000000000000000000000000000000000000 DUP2 MSTORE PUSH1 0x4 ADD PUSH1 0x40 MLOAD DUP1 SWAP2 SUB SWAP1 REVERT JUMPDEST PUSH1 0x0 DUP1 CALLDATASIZE PUSH1 0x40 MLOAD PUSH2 0xE99 SWAP3 SWAP2 SWAP1 PUSH2 0x49DB JUMP JUMPDEST PUSH1 0x40 MLOAD DUP1 SWAP2 SUB SWAP1 KECCAK256 SWAP1 POP PUSH2 0xEAE DUP3 DUP3 CALLER PUSH2 0x2DDD JUMP JUMPDEST ISZERO PUSH2 0xEE5 JUMPI PUSH1 0x40 MLOAD PUSH32 0x7C9A1CF900000000000000000000000000000000000000000000000000000000 DUP2 MSTORE PUSH1 0x4 ADD PUSH1 0x40 MLOAD DUP1 SWAP2 SUB SWAP1 REVERT JUMPDEST PUSH2 0xEF2 DUP3 DUP3 CALLER PUSH1 0x1 PUSH2 0x2E6E JUMP JUMPDEST PUSH1 0x0 PUSH1 0x1 PUSH2 0xF00 DUP5 DUP5 PUSH2 0x2F0C JUMP JUMPDEST PUSH2 0xF0A SWAP2 SWAP1 PUSH2 0x4AB0 JUMP JUMPDEST SWAP1 POP PUSH2 0xF17 DUP4 DUP4 DUP4 PUSH2 0x2F1B JUMP JUMPDEST PUSH2 0xF20 DUP4 PUSH2 0x2F40 JUMP JUMPDEST DUP2 LT ISZERO PUSH2 0xF2E JUMPI POP POP POP POP POP JUMP JUMPDEST PUSH2 0xF8B PUSH2 0xF70 DUP7 DUP7 DUP1 DUP1 PUSH1 0x1F ADD PUSH1 0x20 DUP1 SWAP2 DIV MUL PUSH1 0x20 ADD PUSH1 0x40 MLOAD SWAP1 DUP2 ADD PUSH1 0x40 MSTORE DUP1 SWAP4 SWAP3 SWAP2 SWAP1 DUP2 DUP2 MSTORE PUSH1 0x20 ADD DUP4 DUP4 DUP1 DUP3 DUP5 CALLDATACOPY PUSH1 0x0 SWAP3 ADD SWAP2 SWAP1 SWAP2 MSTORE POP PUSH2 0x2F4E SWAP3 POP POP POP JUMP JUMPDEST PUSH1 0x0 SWAP1 DUP2 MSTORE PUSH1 0x4 PUSH1 0x20 MSTORE PUSH1 0x40 SWAP1 KECCAK256 DUP1 SLOAD PUSH1 0xFF NOT AND PUSH1 0x1 OR SWAP1 SSTORE JUMP JUMPDEST PUSH32 0x11260C92ECB021C33706DB3A9699410F343D5F2175201A4551FE7634347A0CF1 DUP6 DUP6 PUSH1 0x40 MLOAD PUSH2 0xFBC SWAP3 SWAP2 SWAP1 PUSH2 0x4AC8 JUMP JUMPDEST PUSH1 0x40 MLOAD DUP1 SWAP2 SUB SWAP1 LOG1 PUSH2 0xFD0 DUP4 DUP4 PUSH1 0x0 PUSH2 0x2F1B JUMP JUMPDEST PUSH1 0x0 PUSH2 0xFDB DUP5 PUSH2 0x2A06 JUMP JUMPDEST SWAP1 POP PUSH1 0x0 JUMPDEST DUP2 DUP2 LT ISZERO PUSH2 0xBA4 JUMPI PUSH2 0xFF7 DUP6 DUP6 PUSH2 0xB8D DUP9 DUP6 PUSH2 0x2A14 JUMP JUMPDEST PUSH2 0x1000 DUP2 PUSH2 0x49A2 JUMP JUMPDEST SWAP1 POP PUSH2 0xFE0 JUMP JUMPDEST PUSH1 0x0 PUSH2 0x1015 PUSH2 0x43B DUP4 PUSH2 0x2F4E JUMP JUMPDEST SWAP3 SWAP2 POP POP JUMP JUMPDEST CALLER ADDRESS EQ PUSH2 0x1054 JUMPI PUSH1 0x40 MLOAD PUSH32 0x29C3B7EE00000000000000000000000000000000000000000000000000000000 DUP2 MSTORE PUSH1 0x4 ADD PUSH1 0x40 MLOAD DUP1 SWAP2 SUB SWAP1 REVERT JUMPDEST PUSH1 0x0 PUSH2 0x1062 DUP4 DUP6 ADD DUP6 PUSH2 0x4BDF JUMP JUMPDEST SWAP1 POP PUSH1 0x0 PUSH2 0x10B7 PUSH32 0x67CBDFF49954077D2DD5637524B03BFE3E6506D456859017A888FAD567E1AF03 PUSH1 0x0 SWAP1 DUP2 MSTORE PUSH1 0x20 MSTORE PUSH32 0x6F01C2F096E745C2A207FBF93BABD5E7EE6ACFD26F0F34A0E4AC68373C21D0E SLOAD SWAP1 JUMP JUMPDEST SWAP1 POP PUSH1 0x1 PUSH1 0x1 PUSH1 0xA0 SHL SUB DUP3 AND PUSH2 0x10F9 JUMPI PUSH1 0x40 MLOAD PUSH32 0xE6C4247B00000000000000000000000000000000000000000000000000000000 DUP2 MSTORE PUSH1 0x4 ADD PUSH1 0x40 MLOAD DUP1 SWAP2 SUB SWAP1 REVERT JUMPDEST DUP2 PUSH1 0x1 PUSH1 0x1 PUSH1 0xA0 SHL SUB AND PUSH2 0x110C DUP3 PUSH2 0x33E3 JUMP JUMPDEST PUSH1 0x1 PUSH1 0x1 PUSH1 0xA0 SHL SUB AND PUSH32 0x8BE0079C531659141344CD1FD0A4F28419497F9722A3DAAFE3B4186F6B6457E0 PUSH1 0x40 MLOAD PUSH1 0x40 MLOAD DUP1 SWAP2 SUB SWAP1 LOG3 PUSH2 0x119D PUSH2 0x114D DUP3 PUSH2 0x49A2 JUMP JUMPDEST SWAP2 POP DUP2 PUSH32 0x67CBDFF49954077D2DD5637524B03BFE3E6506D456859017A888FAD567E1AF03 PUSH1 0x0 SWAP1 DUP2 MSTORE PUSH1 0x20 MSTORE PUSH32 0x6F01C2F096E745C2A207FBF93BABD5E7EE6ACFD26F0F34A0E4AC68373C21D0E SSTORE JUMP JUMPDEST PUSH2 0xC5B DUP2 DUP4 PUSH2 0x33F4 JUMP JUMPDEST CALLER ADDRESS EQ PUSH2 0x11E0 JUMPI PUSH1 0x40 MLOAD PUSH32 0x29C3B7EE00000000000000000000000000000000000000000000000000000000 DUP2 MSTORE PUSH1 0x4 ADD PUSH1 0x40 MLOAD DUP1 SWAP2 SUB SWAP1 REVERT JUMPDEST PUSH1 0x0 DUP1 DUP1 DUP1 DUP1 PUSH2 0x11F2 DUP8 DUP10 ADD DUP10 PUSH2 0x4BFC JUMP JUMPDEST SWAP5 POP SWAP5 POP SWAP5 POP SWAP5 POP SWAP5 POP PUSH2 0x1209 DUP6 DUP6 DUP6 DUP6 DUP6 PUSH2 0x3445 JUMP JUMPDEST POP POP POP POP POP POP POP POP JUMP JUMPDEST PUSH1 0x0 PUSH2 0x1015 DUP3 PUSH2 0x2F40 JUMP JUMPDEST PUSH1 0x0 PUSH2 0xC00 PUSH2 0x1274 PUSH32 0x67CBDFF49954077D2DD5637524B03BFE3E6506D456859017A888FAD567E1AF03 PUSH1 0x0 SWAP1 DUP2 MSTORE PUSH1 0x20 MSTORE PUSH32 0x6F01C2F096E745C2A207FBF93BABD5E7EE6ACFD26F0F34A0E4AC68373C21D0E SLOAD SWAP1 JUMP JUMPDEST PUSH2 0x33E3 JUMP JUMPDEST PUSH1 0x0 PUSH2 0x1015 PUSH2 0x311 DUP4 PUSH2 0x36CC JUMP JUMPDEST CALLER ADDRESS EQ PUSH2 0x12C0 JUMPI PUSH1 0x40 MLOAD PUSH32 0x29C3B7EE00000000000000000000000000000000000000000000000000000000 DUP2 MSTORE PUSH1 0x4 ADD PUSH1 0x40 MLOAD DUP1 SWAP2 SUB SWAP1 REVERT JUMPDEST PUSH1 0x0 PUSH2 0x12CE DUP4 DUP6 ADD DUP6 PUSH2 0x4BDF JUMP JUMPDEST SWAP1 POP PUSH1 0x1 PUSH1 0x1 PUSH1 0xA0 SHL SUB DUP2 AND PUSH2 0x1310 JUMPI PUSH1 0x40 MLOAD PUSH32 0xE6C4247B00000000000000000000000000000000000000000000000000000000 DUP2 MSTORE PUSH1 0x4 ADD PUSH1 0x40 MLOAD DUP1 SWAP2 SUB SWAP1 REVERT JUMPDEST DUP1 PUSH1 0x1 PUSH1 0x1 PUSH1 0xA0 SHL SUB AND PUSH2 0x1322 PUSH2 0xC62 JUMP JUMPDEST PUSH1 0x1 PUSH1 0x1 PUSH1 0xA0 SHL SUB AND PUSH32 0xB37FF92C23ECA455DBBD028D9CB869F69E16485D5EF15286FC394C721A5D5DC1 PUSH1 0x40 MLOAD PUSH1 0x40 MLOAD DUP1 SWAP2 SUB SWAP1 LOG3 PUSH1 0x0 PUSH2 0x13AA PUSH32 0x5369FB791F26307F8E69B07625302CCAC6930AF09AB22D753B17D2042E9992E7 PUSH1 0x0 SWAP1 DUP2 MSTORE PUSH1 0x20 MSTORE PUSH32 0x7174C149A4F7627AC1DD39B679BD42F12FC4E8D7E850B055662BBEE7188DA10 SLOAD SWAP1 JUMP JUMPDEST SWAP1 POP PUSH2 0x1408 PUSH2 0x13B8 DUP3 PUSH2 0x49A2 JUMP JUMPDEST SWAP2 POP DUP2 PUSH32 0x5369FB791F26307F8E69B07625302CCAC6930AF09AB22D753B17D2042E9992E7 PUSH1 0x0 SWAP1 DUP2 MSTORE PUSH1 0x20 MSTORE PUSH32 0x7174C149A4F7627AC1DD39B679BD42F12FC4E8D7E850B055662BBEE7188DA10 SSTORE JUMP JUMPDEST PUSH2 0xC5B DUP2 DUP4 PUSH2 0x3701 JUMP JUMPDEST PUSH1 0x0 DUP2 DUP2 MSTORE PUSH1 0x1 PUSH1 0x20 MSTORE PUSH1 0x40 SWAP1 KECCAK256 DUP1 SLOAD PUSH1 0x60 SWAP2 SWAP1 PUSH2 0x142F SWAP1 PUSH2 0x4C97 JUMP JUMPDEST DUP1 PUSH1 0x1F ADD PUSH1 0x20 DUP1 SWAP2 DIV MUL PUSH1 0x20 ADD PUSH1 0x40 MLOAD SWAP1 DUP2 ADD PUSH1 0x40 MSTORE DUP1 SWAP3 SWAP2 SWAP1 DUP2 DUP2 MSTORE PUSH1 0x20 ADD DUP3 DUP1 SLOAD PUSH2 0x145B SWAP1 PUSH2 0x4C97 JUMP JUMPDEST DUP1 ISZERO PUSH2 0x14A8 JUMPI DUP1 PUSH1 0x1F LT PUSH2 0x147D JUMPI PUSH2 0x100 DUP1 DUP4 SLOAD DIV MUL DUP4 MSTORE SWAP2 PUSH1 0x20 ADD SWAP2 PUSH2 0x14A8 JUMP JUMPDEST DUP3 ADD SWAP2 SWAP1 PUSH1 0x0 MSTORE PUSH1 0x20 PUSH1 0x0 KECCAK256 SWAP1 JUMPDEST DUP2 SLOAD DUP2 MSTORE SWAP1 PUSH1 0x1 ADD SWAP1 PUSH1 0x20 ADD DUP1 DUP4 GT PUSH2 0x148B JUMPI DUP3 SWAP1 SUB PUSH1 0x1F AND DUP3 ADD SWAP2 JUMPDEST POP POP POP POP POP SWAP1 POP SWAP2 SWAP1 POP JUMP JUMPDEST PUSH1 0x0 PUSH2 0x1510 PUSH32 0x360894A13BA1A3210667C828492DB98DCA3E2076CC3735A920A3CA505D382BBC PUSH1 0x0 MSTORE PUSH1 0x2 PUSH1 0x20 MSTORE PUSH32 0x11141F466C69FD409E1990E063B49CD6D61ED2ECFF27A2E402E259CA6B9A01A3 SLOAD PUSH1 0x1 PUSH1 0x1 PUSH1 0xA0 SHL SUB AND SWAP1 JUMP JUMPDEST PUSH1 0x1 PUSH1 0x1 PUSH1 0xA0 SHL SUB AND EQ ISZERO PUSH2 0x1551 JUMPI PUSH1 0x40 MLOAD PUSH32 0xBF10DD3A00000000000000000000000000000000000000000000000000000000 DUP2 MSTORE PUSH1 0x4 ADD PUSH1 0x40 MLOAD DUP1 SWAP2 SUB SWAP1 REVERT JUMPDEST PUSH1 0x0 DUP1 DUP1 DUP1 PUSH2 0x1562 DUP6 DUP8 ADD DUP8 PUSH2 0x4D0F JUMP JUMPDEST SWAP4 POP SWAP4 POP SWAP4 POP SWAP4 POP PUSH1 0x0 PUSH1 0x1 PUSH2 0x15BF PUSH32 0xD51DC9B187568BB94760866E1D0D066CA470037D2D331AFB1A02EC74BFB8990C PUSH1 0x0 SWAP1 DUP2 MSTORE PUSH1 0x20 MSTORE PUSH32 0xF8D0C05CD32E3272241FDC9D5839565F8BCF94139CB4BD09E230E1B57A60DDC2 SLOAD SWAP1 JUMP JUMPDEST PUSH2 0x15C9 SWAP2 SWAP1 PUSH2 0x4AB0 JUMP JUMPDEST SWAP1 POP PUSH2 0x161C DUP2 PUSH32 0xD51DC9B187568BB94760866E1D0D066CA470037D2D331AFB1A02EC74BFB8990C PUSH1 0x0 SWAP1 DUP2 MSTORE PUSH1 0x20 MSTORE PUSH32 0xF8D0C05CD32E3272241FDC9D5839565F8BCF94139CB4BD09E230E1B57A60DDC2 SSTORE JUMP JUMPDEST PUSH2 0x1627 DUP2 DUP7 DUP7 PUSH2 0x370D JUMP JUMPDEST PUSH1 0x0 PUSH1 0x1 PUSH2 0x167C PUSH32 0x67CBDFF49954077D2DD5637524B03BFE3E6506D456859017A888FAD567E1AF03 PUSH1 0x0 SWAP1 DUP2 MSTORE PUSH1 0x20 MSTORE PUSH32 0x6F01C2F096E745C2A207FBF93BABD5E7EE6ACFD26F0F34A0E4AC68373C21D0E SLOAD SWAP1 JUMP JUMPDEST PUSH2 0x1686 SWAP2 SWAP1 PUSH2 0x4AB0 JUMP JUMPDEST SWAP1 POP PUSH2 0x16D9 DUP2 PUSH32 0x67CBDFF49954077D2DD5637524B03BFE3E6506D456859017A888FAD567E1AF03 PUSH1 0x0 SWAP1 DUP2 MSTORE PUSH1 0x20 MSTORE PUSH32 0x6F01C2F096E745C2A207FBF93BABD5E7EE6ACFD26F0F34A0E4AC68373C21D0E SSTORE JUMP JUMPDEST PUSH2 0x16E3 DUP2 DUP6 PUSH2 0x33F4 JUMP JUMPDEST PUSH1 0x0 PUSH1 0x1 PUSH2 0x1738 PUSH32 0x5369FB791F26307F8E69B07625302CCAC6930AF09AB22D753B17D2042E9992E7 PUSH1 0x0 SWAP1 DUP2 MSTORE PUSH1 0x20 MSTORE PUSH32 0x7174C149A4F7627AC1DD39B679BD42F12FC4E8D7E850B055662BBEE7188DA10 SLOAD SWAP1 JUMP JUMPDEST PUSH2 0x1742 SWAP2 SWAP1 PUSH2 0x4AB0 JUMP JUMPDEST SWAP1 POP PUSH2 0x1795 DUP2 PUSH32 0x5369FB791F26307F8E69B07625302CCAC6930AF09AB22D753B17D2042E9992E7 PUSH1 0x0 SWAP1 DUP2 MSTORE PUSH1 0x20 MSTORE PUSH32 0x7174C149A4F7627AC1DD39B679BD42F12FC4E8D7E850B055662BBEE7188DA10 SSTORE JUMP JUMPDEST PUSH2 0x179F DUP2 DUP6 PUSH2 0x3701 JUMP JUMPDEST PUSH1 0x40 MLOAD PUSH1 0x1 PUSH1 0x1 PUSH1 0xA0 SHL SUB DUP7 AND SWAP1 PUSH1 0x0 SWAP1 PUSH32 0x8BE0079C531659141344CD1FD0A4F28419497F9722A3DAAFE3B4186F6B6457E0 SWAP1 DUP3 SWAP1 LOG3 PUSH1 0x40 MLOAD PUSH1 0x1 PUSH1 0x1 PUSH1 0xA0 SHL SUB DUP6 AND SWAP1 PUSH1 0x0 SWAP1 PUSH32 0xB37FF92C23ECA455DBBD028D9CB869F69E16485D5EF15286FC394C721A5D5DC1 SWAP1 DUP3 SWAP1 LOG3 POP POP POP POP POP POP POP POP POP JUMP JUMPDEST PUSH1 0x0 PUSH2 0x1869 PUSH32 0xD51DC9B187568BB94760866E1D0D066CA470037D2D331AFB1A02EC74BFB8990C PUSH1 0x0 SWAP1 DUP2 MSTORE PUSH1 0x20 MSTORE PUSH32 0xF8D0C05CD32E3272241FDC9D5839565F8BCF94139CB4BD09E230E1B57A60DDC2 SLOAD SWAP1 JUMP JUMPDEST SWAP1 POP PUSH2 0x1875 DUP2 CALLER PUSH2 0x2DCE JUMP JUMPDEST PUSH2 0x18AB JUMPI PUSH1 0x40 MLOAD PUSH32 0x7BFA4B9F00000000000000000000000000000000000000000000000000000000 DUP2 MSTORE PUSH1 0x4 ADD PUSH1 0x40 MLOAD DUP1 SWAP2 SUB SWAP1 REVERT JUMPDEST PUSH1 0x0 DUP1 CALLDATASIZE PUSH1 0x40 MLOAD PUSH2 0x18BD SWAP3 SWAP2 SWAP1 PUSH2 0x49DB JUMP JUMPDEST PUSH1 0x40 MLOAD DUP1 SWAP2 SUB SWAP1 KECCAK256 SWAP1 POP PUSH2 0x18D2 DUP3 DUP3 CALLER PUSH2 0x2DDD JUMP JUMPDEST ISZERO PUSH2 0x1909 JUMPI PUSH1 0x40 MLOAD PUSH32 0x7C9A1CF900000000000000000000000000000000000000000000000000000000 DUP2 MSTORE PUSH1 0x4 ADD PUSH1 0x40 MLOAD DUP1 SWAP2 SUB SWAP1 REVERT JUMPDEST PUSH2 0x1916 DUP3 DUP3 CALLER PUSH1 0x1 PUSH2 0x2E6E JUMP JUMPDEST PUSH1 0x0 PUSH1 0x1 PUSH2 0x1924 DUP5 DUP5 PUSH2 0x2F0C JUMP JUMPDEST PUSH2 0x192E SWAP2 SWAP1 PUSH2 0x4AB0 JUMP JUMPDEST SWAP1 POP PUSH2 0x193B DUP4 DUP4 DUP4 PUSH2 0x2F1B JUMP JUMPDEST PUSH2 0x1944 DUP4 PUSH2 0x2F40 JUMP JUMPDEST DUP2 LT ISZERO PUSH2 0x1953 JUMPI POP POP POP PUSH2 0x642 JUMP JUMPDEST DUP7 PUSH1 0x1 PUSH1 0x1 PUSH1 0xA0 SHL SUB AND EXTCODEHASH DUP7 EQ PUSH2 0x1996 JUMPI PUSH1 0x40 MLOAD PUSH32 0x8F84FB2400000000000000000000000000000000000000000000000000000000 DUP2 MSTORE PUSH1 0x4 ADD PUSH1 0x40 MLOAD DUP1 SWAP2 SUB SWAP1 REVERT JUMPDEST PUSH1 0x40 MLOAD PUSH1 0x1 PUSH1 0x1 PUSH1 0xA0 SHL SUB DUP9 AND SWAP1 PUSH32 0xBC7CD75A20EE27FD9ADEBAB32041F755214DBC6BFFA90CC0225B39DA2E5C2D3B SWAP1 PUSH1 0x0 SWAP1 LOG2 DUP4 ISZERO PUSH2 0x1ADF JUMPI PUSH1 0x0 DUP8 PUSH1 0x1 PUSH1 0x1 PUSH1 0xA0 SHL SUB AND PUSH4 0x9DED06DF PUSH1 0xE0 SHL DUP8 DUP8 PUSH1 0x40 MLOAD PUSH1 0x24 ADD PUSH2 0x19F7 SWAP3 SWAP2 SWAP1 PUSH2 0x4AC8 JUMP JUMPDEST PUSH1 0x40 DUP1 MLOAD PUSH1 0x1F NOT DUP2 DUP5 SUB ADD DUP2 MSTORE SWAP2 DUP2 MSTORE PUSH1 0x20 DUP3 ADD DUP1 MLOAD PUSH28 0xFFFFFFFFFFFFFFFFFFFFFFFFFFFFFFFFFFFFFFFFFFFFFFFFFFFFFFFF AND PUSH32 0xFFFFFFFF00000000000000000000000000000000000000000000000000000000 SWAP1 SWAP5 AND SWAP4 SWAP1 SWAP4 OR SWAP1 SWAP3 MSTORE SWAP1 MLOAD PUSH2 0x1A62 SWAP2 SWAP1 PUSH2 0x4DD3 JUMP JUMPDEST PUSH1 0x0 PUSH1 0x40 MLOAD DUP1 DUP4 SUB DUP2 DUP6 GAS DELEGATECALL SWAP2 POP POP RETURNDATASIZE DUP1 PUSH1 0x0 DUP2 EQ PUSH2 0x1A9D JUMPI PUSH1 0x40 MLOAD SWAP2 POP PUSH1 0x1F NOT PUSH1 0x3F RETURNDATASIZE ADD AND DUP3 ADD PUSH1 0x40 MSTORE RETURNDATASIZE DUP3 MSTORE RETURNDATASIZE PUSH1 0x0 PUSH1 0x20 DUP5 ADD RETURNDATACOPY PUSH2 0x1AA2 JUMP JUMPDEST PUSH1 0x60 SWAP2 POP JUMPDEST POP POP SWAP1 POP DUP1 PUSH2 0x1ADD JUMPI PUSH1 0x40 MLOAD PUSH32 0x97905DFB00000000000000000000000000000000000000000000000000000000 DUP2 MSTORE PUSH1 0x4 ADD PUSH1 0x40 MLOAD DUP1 SWAP2 SUB SWAP1 REVERT JUMPDEST POP JUMPDEST PUSH2 0x1B61 DUP8 PUSH32 0x360894A13BA1A3210667C828492DB98DCA3E2076CC3735A920A3CA505D382BBC PUSH1 0x0 MSTORE PUSH1 0x2 PUSH1 0x20 MSTORE PUSH32 0x11141F466C69FD409E1990E063B49CD6D61ED2ECFF27A2E402E259CA6B9A01A3 DUP1 SLOAD PUSH32 0xFFFFFFFFFFFFFFFFFFFFFFFF0000000000000000000000000000000000000000 AND PUSH1 0x1 PUSH1 0x1 PUSH1 0xA0 SHL SUB DUP4 AND OR SWAP1 SSTORE POP JUMP JUMPDEST PUSH2 0x1B6D DUP4 DUP4 PUSH1 0x0 PUSH2 0x2F1B JUMP JUMPDEST PUSH1 0x0 PUSH2 0x1B78 DUP5 PUSH2 0x2A06 JUMP JUMPDEST SWAP1 POP PUSH1 0x0 JUMPDEST DUP2 DUP2 LT ISZERO PUSH2 0x1BA4 JUMPI PUSH2 0x1B94 DUP6 DUP6 PUSH2 0xB8D DUP9 DUP6 PUSH2 0x2A14 JUMP JUMPDEST PUSH2 0x1B9D DUP2 PUSH2 0x49A2 JUMP JUMPDEST SWAP1 POP PUSH2 0x1B7D JUMP JUMPDEST POP POP POP POP POP POP POP POP POP JUMP JUMPDEST PUSH2 0x1BF1 CALLER DUP5 DUP5 DUP1 DUP1 PUSH1 0x1F ADD PUSH1 0x20 DUP1 SWAP2 DIV MUL PUSH1 0x20 ADD PUSH1 0x40 MLOAD SWAP1 DUP2 ADD PUSH1 0x40 MSTORE DUP1 SWAP4 SWAP3 SWAP2 SWAP1 DUP2 DUP2 MSTORE PUSH1 0x20 ADD DUP4 DUP4 DUP1 DUP3 DUP5 CALLDATACOPY PUSH1 0x0 SWAP3 ADD SWAP2 SWAP1 SWAP2 MSTORE POP DUP7 SWAP3 POP PUSH2 0x2A8E SWAP2 POP POP JUMP JUMPDEST DUP5 DUP5 PUSH1 0x40 MLOAD PUSH2 0x1C01 SWAP3 SWAP2 SWAP1 PUSH2 0x49DB JUMP JUMPDEST PUSH1 0x40 MLOAD DUP1 SWAP2 SUB SWAP1 KECCAK256 CALLER PUSH1 0x1 PUSH1 0x1 PUSH1 0xA0 SHL SUB AND PUSH32 0x7E50569D26BE643BDA7757722291EC66B1BE66D8283474AE3FAB5A98F878A7A2 DUP12 DUP12 DUP12 DUP12 DUP12 DUP12 DUP12 DUP12 DUP12 PUSH1 0x40 MLOAD PUSH2 0x1C52 SWAP10 SWAP9 SWAP8 SWAP7 SWAP6 SWAP5 SWAP4 SWAP3 SWAP2 SWAP1 PUSH2 0x4DEF JUMP JUMPDEST PUSH1 0x40 MLOAD DUP1 SWAP2 SUB SWAP1 LOG3 POP POP POP POP POP POP POP POP POP JUMP JUMPDEST PUSH1 0x0 PUSH2 0x1D29 PUSH2 0x43B DUP13 DUP13 DUP13 DUP1 DUP1 PUSH1 0x1F ADD PUSH1 0x20 DUP1 SWAP2 DIV MUL PUSH1 0x20 ADD PUSH1 0x40 MLOAD SWAP1 DUP2 ADD PUSH1 0x40 MSTORE DUP1 SWAP4 SWAP3 SWAP2 SWAP1 DUP2 DUP2 MSTORE PUSH1 0x20 ADD DUP4 DUP4 DUP1 DUP3 DUP5 CALLDATACOPY PUSH1 0x0 DUP2 DUP5 ADD MSTORE PUSH1 0x1F NOT PUSH1 0x1F DUP3 ADD AND SWAP1 POP DUP1 DUP4 ADD SWAP3 POP POP POP POP POP POP POP DUP12 DUP12 DUP1 DUP1 PUSH1 0x1F ADD PUSH1 0x20 DUP1 SWAP2 DIV MUL PUSH1 0x20 ADD PUSH1 0x40 MLOAD SWAP1 DUP2 ADD PUSH1 0x40 MSTORE DUP1 SWAP4 SWAP3 SWAP2 SWAP1 DUP2 DUP2 MSTORE PUSH1 0x20 ADD DUP4 DUP4 DUP1 DUP3 DUP5 CALLDATACOPY PUSH1 0x0 SWAP3 ADD SWAP2 SWAP1 SWAP2 MSTORE POP POP PUSH1 0x40 DUP1 MLOAD PUSH1 0x20 PUSH1 0x1F DUP14 ADD DUP2 SWAP1 DIV DUP2 MUL DUP3 ADD DUP2 ADD SWAP1 SWAP3 MSTORE DUP12 DUP2 MSTORE DUP15 SWAP4 POP DUP14 SWAP3 POP SWAP1 DUP13 SWAP1 DUP13 SWAP1 DUP2 SWAP1 DUP5 ADD DUP4 DUP3 DUP1 DUP3 DUP5 CALLDATACOPY PUSH1 0x0 SWAP3 ADD SWAP2 SWAP1 SWAP2 MSTORE POP DUP13 SWAP3 POP PUSH2 0x2A2A SWAP2 POP POP JUMP JUMPDEST SWAP12 SWAP11 POP POP POP POP POP POP POP POP POP POP POP JUMP JUMPDEST PUSH1 0x0 DUP2 DUP2 MSTORE PUSH1 0x3 PUSH1 0x20 MSTORE PUSH1 0x40 SWAP1 KECCAK256 DUP1 SLOAD PUSH1 0x60 SWAP2 SWAP1 PUSH2 0x142F SWAP1 PUSH2 0x4C97 JUMP JUMPDEST PUSH1 0x0 PUSH2 0x1015 PUSH2 0x43B DUP4 PUSH2 0x3871 JUMP JUMPDEST PUSH1 0x0 PUSH2 0x1DB6 PUSH32 0xD51DC9B187568BB94760866E1D0D066CA470037D2D331AFB1A02EC74BFB8990C PUSH1 0x0 SWAP1 DUP2 MSTORE PUSH1 0x20 MSTORE PUSH32 0xF8D0C05CD32E3272241FDC9D5839565F8BCF94139CB4BD09E230E1B57A60DDC2 SLOAD SWAP1 JUMP JUMPDEST SWAP1 POP PUSH2 0x1DC2 DUP2 CALLER PUSH2 0x2DCE JUMP JUMPDEST PUSH2 0x1DF8 JUMPI PUSH1 0x40 MLOAD PUSH32 0x7BFA4B9F00000000000000000000000000000000000000000000000000000000 DUP2 MSTORE PUSH1 0x4 ADD PUSH1 0x40 MLOAD DUP1 SWAP2 SUB SWAP1 REVERT JUMPDEST PUSH1 0x0 DUP1 CALLDATASIZE PUSH1 0x40 MLOAD PUSH2 0x1E0A SWAP3 SWAP2 SWAP1 PUSH2 0x49DB JUMP JUMPDEST PUSH1 0x40 MLOAD DUP1 SWAP2 SUB SWAP1 KECCAK256 SWAP1 POP PUSH2 0x1E1F DUP3 DUP3 CALLER PUSH2 0x2DDD JUMP JUMPDEST ISZERO PUSH2 0x1E56 JUMPI PUSH1 0x40 MLOAD PUSH32 0x7C9A1CF900000000000000000000000000000000000000000000000000000000 DUP2 MSTORE PUSH1 0x4 ADD PUSH1 0x40 MLOAD DUP1 SWAP2 SUB SWAP1 REVERT JUMPDEST PUSH2 0x1E63 DUP3 DUP3 CALLER PUSH1 0x1 PUSH2 0x2E6E JUMP JUMPDEST PUSH1 0x0 PUSH1 0x1 PUSH2 0x1E71 DUP5 DUP5 PUSH2 0x2F0C JUMP JUMPDEST PUSH2 0x1E7B SWAP2 SWAP1 PUSH2 0x4AB0 JUMP JUMPDEST SWAP1 POP PUSH2 0x1E88 DUP4 DUP4 DUP4 PUSH2 0x2F1B JUMP JUMPDEST PUSH2 0x1E91 DUP4 PUSH2 0x2F40 JUMP JUMPDEST DUP2 LT ISZERO PUSH2 0x1E9D JUMPI POP POP POP JUMP JUMPDEST PUSH32 0x75A31D1CE8E5F9892188BEFC328D3B9BD3FA5037457E881ABC21F388471B8D96 PUSH1 0x0 MSTORE PUSH1 0x4 PUSH1 0x20 MSTORE PUSH32 0xA0B596B8942D6EF5CC77CE0AD89A75F0BFCC7F0132CD8DB58E8449DCF04A858A DUP1 SLOAD PUSH1 0xFF NOT AND PUSH1 0x1 OR SWAP1 SSTORE PUSH1 0x40 MLOAD PUSH32 0x9F428B56CA209118783DB391E8A5A62827B6B218ADD33411061060D308AF6EAD SWAP1 PUSH1 0x0 SWAP1 LOG1 PUSH2 0x1F27 DUP4 DUP4 PUSH1 0x0 PUSH2 0x2F1B JUMP JUMPDEST PUSH1 0x0 PUSH2 0x1F32 DUP5 PUSH2 0x2A06 JUMP JUMPDEST SWAP1 POP PUSH1 0x0 JUMPDEST DUP2 DUP2 LT ISZERO PUSH2 0xC5B JUMPI PUSH2 0x1F4E DUP6 DUP6 PUSH2 0xB8D DUP9 DUP6 PUSH2 0x2A14 JUMP JUMPDEST PUSH2 0x1F57 DUP2 PUSH2 0x49A2 JUMP JUMPDEST SWAP1 POP PUSH2 0x1F37 JUMP JUMPDEST PUSH1 0x0 PUSH2 0x1FB1 PUSH32 0xD51DC9B187568BB94760866E1D0D066CA470037D2D331AFB1A02EC74BFB8990C PUSH1 0x0 SWAP1 DUP2 MSTORE PUSH1 0x20 MSTORE PUSH32 0xF8D0C05CD32E3272241FDC9D5839565F8BCF94139CB4BD09E230E1B57A60DDC2 SLOAD SWAP1 JUMP JUMPDEST SWAP1 POP PUSH2 0x1FBD DUP2 CALLER PUSH2 0x2DCE JUMP JUMPDEST PUSH2 0x1FF3 JUMPI PUSH1 0x40 MLOAD PUSH32 0x7BFA4B9F00000000000000000000000000000000000000000000000000000000 DUP2 MSTORE PUSH1 0x4 ADD PUSH1 0x40 MLOAD DUP1 SWAP2 SUB SWAP1 REVERT JUMPDEST PUSH1 0x0 DUP1 CALLDATASIZE PUSH1 0x40 MLOAD PUSH2 0x2005 SWAP3 SWAP2 SWAP1 PUSH2 0x49DB JUMP JUMPDEST PUSH1 0x40 MLOAD DUP1 SWAP2 SUB SWAP1 KECCAK256 SWAP1 POP PUSH2 0x201A DUP3 DUP3 CALLER PUSH2 0x2DDD JUMP JUMPDEST ISZERO PUSH2 0x2051 JUMPI PUSH1 0x40 MLOAD PUSH32 0x7C9A1CF900000000000000000000000000000000000000000000000000000000 DUP2 MSTORE PUSH1 0x4 ADD PUSH1 0x40 MLOAD DUP1 SWAP2 SUB SWAP1 REVERT JUMPDEST PUSH2 0x205E DUP3 DUP3 CALLER PUSH1 0x1 PUSH2 0x2E6E JUMP JUMPDEST PUSH1 0x0 PUSH1 0x1 PUSH2 0x206C DUP5 DUP5 PUSH2 0x2F0C JUMP JUMPDEST PUSH2 0x2076 SWAP2 SWAP1 PUSH2 0x4AB0 JUMP JUMPDEST SWAP1 POP PUSH2 0x2083 DUP4 DUP4 DUP4 PUSH2 0x2F1B JUMP JUMPDEST PUSH2 0x208C DUP4 PUSH2 0x2F40 JUMP JUMPDEST DUP2 LT ISZERO PUSH2 0x2098 JUMPI POP POP POP JUMP JUMPDEST PUSH32 0x75A31D1CE8E5F9892188BEFC328D3B9BD3FA5037457E881ABC21F388471B8D96 PUSH1 0x0 MSTORE PUSH1 0x4 PUSH1 0x20 MSTORE PUSH32 0xA0B596B8942D6EF5CC77CE0AD89A75F0BFCC7F0132CD8DB58E8449DCF04A858A DUP1 SLOAD PUSH1 0xFF NOT AND SWAP1 SSTORE PUSH1 0x40 MLOAD PUSH32 0xE821FF109470F6AA1AEBB161AA0E7328B1A8552AA48E09ED2D03184ECECE9A6 SWAP1 PUSH1 0x0 SWAP1 LOG1 PUSH2 0x211F DUP4 DUP4 PUSH1 0x0 PUSH2 0x2F1B JUMP JUMPDEST PUSH1 0x0 PUSH2 0x212A DUP5 PUSH2 0x2A06 JUMP JUMPDEST SWAP1 POP PUSH1 0x0 JUMPDEST DUP2 DUP2 LT ISZERO PUSH2 0xC5B JUMPI PUSH2 0x2146 DUP6 DUP6 PUSH2 0xB8D DUP9 DUP6 PUSH2 0x2A14 JUMP JUMPDEST PUSH2 0x214F DUP2 PUSH2 0x49A2 JUMP JUMPDEST SWAP1 POP PUSH2 0x212F JUMP JUMPDEST PUSH1 0x0 PUSH2 0x21D3 PUSH2 0x43B DUP10 DUP10 DUP10 DUP1 DUP1 PUSH1 0x1F ADD PUSH1 0x20 DUP1 SWAP2 DIV MUL PUSH1 0x20 ADD PUSH1 0x40 MLOAD SWAP1 DUP2 ADD PUSH1 0x40 MSTORE DUP1 SWAP4 SWAP3 SWAP2 SWAP1 DUP2 DUP2 MSTORE PUSH1 0x20 ADD DUP4 DUP4 DUP1 DUP3 DUP5 CALLDATACOPY PUSH1 0x0 SWAP3 ADD SWAP2 SWAP1 SWAP2 MSTORE POP POP PUSH1 0x40 DUP1 MLOAD PUSH1 0x20 PUSH1 0x1F DUP14 ADD DUP2 SWAP1 DIV DUP2 MUL DUP3 ADD DUP2 ADD SWAP1 SWAP3 MSTORE DUP12 DUP2 MSTORE SWAP3 POP DUP12 SWAP2 POP DUP11 SWAP1 DUP2 SWAP1 DUP5 ADD DUP4 DUP3 DUP1 DUP3 DUP5 CALLDATACOPY PUSH1 0x0 SWAP3 ADD SWAP2 SWAP1 SWAP2 MSTORE POP DUP11 SWAP3 POP DUP10 SWAP2 POP PUSH2 0x3385 SWAP1 POP JUMP JUMPDEST SWAP9 SWAP8 POP POP POP POP POP POP POP POP JUMP JUMPDEST CALLER ADDRESS EQ PUSH2 0x2218 JUMPI PUSH1 0x40 MLOAD PUSH32 0x29C3B7EE00000000000000000000000000000000000000000000000000000000 DUP2 MSTORE PUSH1 0x4 ADD PUSH1 0x40 MLOAD DUP1 SWAP2 SUB SWAP1 REVERT JUMPDEST PUSH1 0x0 DUP1 DUP1 DUP1 DUP1 DUP1 PUSH2 0x222B DUP9 DUP11 ADD DUP11 PUSH2 0x4E57 JUMP JUMPDEST SWAP6 POP SWAP6 POP SWAP6 POP SWAP6 POP SWAP6 POP SWAP6 POP PUSH2 0x1BA4 DUP8 DUP8 DUP8 DUP8 DUP8 DUP8 DUP8 PUSH2 0x38AC JUMP JUMPDEST PUSH1 0x0 PUSH2 0x2261 PUSH2 0x225B DUP5 DUP1 MLOAD SWAP1 PUSH1 0x20 ADD KECCAK256 PUSH2 0x390B JUMP JUMPDEST DUP4 PUSH2 0x3946 JUMP JUMPDEST SWAP1 POP PUSH1 0x0 DUP1 PUSH1 0x0 DUP1 PUSH1 0x0 DUP8 DUP1 PUSH1 0x20 ADD SWAP1 MLOAD DUP2 ADD SWAP1 PUSH2 0x227F SWAP2 SWAP1 PUSH2 0x504E JUMP JUMPDEST SWAP5 POP SWAP5 POP SWAP5 POP SWAP5 POP SWAP5 POP CHAINID DUP6 EQ PUSH2 0x22C2 JUMPI PUSH1 0x40 MLOAD PUSH32 0x7A47C9A200000000000000000000000000000000000000000000000000000000 DUP2 MSTORE PUSH1 0x4 ADD PUSH1 0x40 MLOAD DUP1 SWAP2 SUB SWAP1 REVERT JUMPDEST DUP3 MLOAD DUP3 MLOAD DUP2 EQ ISZERO DUP1 PUSH2 0x22D5 JUMPI POP DUP2 MLOAD DUP2 EQ ISZERO JUMPDEST ISZERO PUSH2 0x230C JUMPI PUSH1 0x40 MLOAD PUSH32 0xCA9A28F500000000000000000000000000000000000000000000000000000000 DUP2 MSTORE PUSH1 0x4 ADD PUSH1 0x40 MLOAD DUP1 SWAP2 SUB SWAP1 REVERT JUMPDEST PUSH1 0x0 DUP1 DUP1 PUSH1 0x1 DUP9 PUSH1 0x2 DUP2 GT ISZERO PUSH2 0x2324 JUMPI PUSH2 0x2324 PUSH2 0x5150 JUMP JUMPDEST EQ ISZERO PUSH2 0x235F JUMPI PUSH2 0x2332 PUSH2 0x121E JUMP JUMPDEST PUSH1 0x1 PUSH1 0x1 PUSH1 0xA0 SHL SUB AND DUP11 PUSH1 0x1 PUSH1 0x1 PUSH1 0xA0 SHL SUB AND EQ SWAP3 POP DUP3 DUP1 PUSH2 0x2358 JUMPI POP PUSH2 0x2358 DUP11 PUSH2 0x3AE9 JUMP JUMPDEST SWAP2 POP PUSH2 0x2385 JUMP JUMPDEST PUSH1 0x2 DUP9 PUSH1 0x2 DUP2 GT ISZERO PUSH2 0x2373 JUMPI PUSH2 0x2373 PUSH2 0x5150 JUMP JUMPDEST EQ ISZERO PUSH2 0x2385 JUMPI PUSH2 0x2382 DUP11 PUSH2 0x3BC7 JUMP JUMPDEST SWAP1 POP JUMPDEST PUSH1 0x0 JUMPDEST DUP5 DUP2 LT ISZERO PUSH2 0x2810 JUMPI PUSH1 0x0 DUP9 DUP3 DUP2 MLOAD DUP2 LT PUSH2 0x23A4 JUMPI PUSH2 0x23A4 PUSH2 0x4944 JUMP JUMPDEST PUSH1 0x20 MUL PUSH1 0x20 ADD ADD MLOAD SWAP1 POP PUSH2 0x23B7 DUP2 PUSH2 0x1D55 JUMP JUMPDEST ISZERO PUSH2 0x23C2 JUMPI POP PUSH2 0x2800 JUMP JUMPDEST PUSH1 0x0 DUP1 DUP10 DUP5 DUP2 MLOAD DUP2 LT PUSH2 0x23D7 JUMPI PUSH2 0x23D7 PUSH2 0x4944 JUMP JUMPDEST PUSH1 0x20 MUL PUSH1 0x20 ADD ADD MLOAD PUSH1 0x40 MLOAD PUSH1 0x20 ADD PUSH2 0x23EF SWAP2 SWAP1 PUSH2 0x4DD3 JUMP JUMPDEST PUSH1 0x40 MLOAD PUSH1 0x20 DUP2 DUP4 SUB SUB DUP2 MSTORE SWAP1 PUSH1 0x40 MSTORE DUP1 MLOAD SWAP1 PUSH1 0x20 ADD KECCAK256 SWAP1 POP PUSH32 0x5763814B98A3AA86F212797AF3273868B5DD6E2A532D764A79B98CA859E7BBAD DUP2 EQ ISZERO PUSH2 0x2464 JUMPI DUP6 PUSH2 0x243C JUMPI POP POP POP PUSH2 0x2800 JUMP JUMPDEST PUSH32 0x886A625D00000000000000000000000000000000000000000000000000000000 SWAP2 POP PUSH2 0x26CA JUMP JUMPDEST PUSH32 0xEC78D9C22C08BB9F0ECD5D95571AE83E3F22219C5A9278C3270691D50ABFD91B DUP2 EQ ISZERO PUSH2 0x24CD JUMPI DUP5 ISZERO DUP1 ISZERO PUSH2 0x2498 JUMPI POP DUP6 ISZERO JUMPDEST ISZERO PUSH2 0x24A5 JUMPI POP POP POP PUSH2 0x2800 JUMP JUMPDEST PUSH32 0x146E2D7800000000000000000000000000000000000000000000000000000000 SWAP2 POP PUSH2 0x26CA JUMP JUMPDEST PUSH32 0x37AC16AABC4D87540E53151B2B716265CFD6B195DB96A9DAF8E893C829BBD233 DUP2 EQ ISZERO PUSH2 0x2536 JUMPI DUP5 ISZERO DUP1 ISZERO PUSH2 0x2501 JUMPI POP DUP6 ISZERO JUMPDEST ISZERO PUSH2 0x250E JUMPI POP POP POP PUSH2 0x2800 JUMP JUMPDEST PUSH32 0xFBE0A31B00000000000000000000000000000000000000000000000000000000 SWAP2 POP PUSH2 0x26CA JUMP JUMPDEST PUSH32 0xF41504255B911B3042EE4F8786FDF7CF4BCF24ACE033FA16AF3C8574E025E436 DUP2 EQ ISZERO PUSH2 0x259F JUMPI DUP5 ISZERO DUP1 ISZERO PUSH2 0x256A JUMPI POP DUP6 ISZERO JUMPDEST ISZERO PUSH2 0x2577 JUMPI POP POP POP PUSH2 0x2800 JUMP JUMPDEST PUSH32 0x585A9FD400000000000000000000000000000000000000000000000000000000 SWAP2 POP PUSH2 0x26CA JUMP JUMPDEST PUSH32 0xDA199C0E76F665E0450020791C7F8EACC75F3CDBACE313272C28F93E5390B62C DUP2 EQ ISZERO PUSH2 0x2608 JUMPI DUP5 ISZERO DUP1 ISZERO PUSH2 0x25D3 JUMPI POP DUP6 ISZERO JUMPDEST ISZERO PUSH2 0x25E0 JUMPI POP POP POP PUSH2 0x2800 JUMP JUMPDEST PUSH32 0x4656AE2E00000000000000000000000000000000000000000000000000000000 SWAP2 POP PUSH2 0x26CA JUMP JUMPDEST PUSH32 0x1D4A390F291E2E1F29874769EFDEF47DDAD94D76F77FF516FAD206A385E8995F DUP2 EQ ISZERO PUSH2 0x2665 JUMPI DUP7 PUSH2 0x263D JUMPI POP POP POP PUSH2 0x2800 JUMP JUMPDEST PUSH32 0x7E8C811800000000000000000000000000000000000000000000000000000000 SWAP2 POP PUSH2 0x26CA JUMP JUMPDEST PUSH32 0xB460DCB6FD5797FC0E7EA0F13406C80D30702BA7F73A42BD91394775DCBCA718 DUP2 EQ ISZERO PUSH2 0x26C2 JUMPI DUP7 PUSH2 0x269A JUMPI POP POP POP PUSH2 0x2800 JUMP JUMPDEST PUSH32 0x97B87BA600000000000000000000000000000000000000000000000000000000 SWAP2 POP PUSH2 0x26CA JUMP JUMPDEST POP POP POP PUSH2 0x2800 JUMP JUMPDEST PUSH2 0x26D5 DUP4 PUSH1 0x1 PUSH2 0x3C8F JUMP JUMPDEST PUSH1 0x0 ADDRESS PUSH1 0x1 PUSH1 0x1 PUSH1 0xA0 SHL SUB AND DUP4 DUP12 DUP8 DUP2 MLOAD DUP2 LT PUSH2 0x26F4 JUMPI PUSH2 0x26F4 PUSH2 0x4944 JUMP JUMPDEST PUSH1 0x20 MUL PUSH1 0x20 ADD ADD MLOAD DUP7 PUSH1 0x40 MLOAD PUSH1 0x24 ADD PUSH2 0x270E SWAP3 SWAP2 SWAP1 PUSH2 0x517F JUMP JUMPDEST PUSH1 0x40 DUP1 MLOAD PUSH1 0x1F NOT DUP2 DUP5 SUB ADD DUP2 MSTORE SWAP2 DUP2 MSTORE PUSH1 0x20 DUP3 ADD DUP1 MLOAD PUSH28 0xFFFFFFFFFFFFFFFFFFFFFFFFFFFFFFFFFFFFFFFFFFFFFFFFFFFFFFFF AND PUSH32 0xFFFFFFFF00000000000000000000000000000000000000000000000000000000 SWAP1 SWAP5 AND SWAP4 SWAP1 SWAP4 OR SWAP1 SWAP3 MSTORE SWAP1 MLOAD PUSH2 0x2779 SWAP2 SWAP1 PUSH2 0x4DD3 JUMP JUMPDEST PUSH1 0x0 PUSH1 0x40 MLOAD DUP1 DUP4 SUB DUP2 PUSH1 0x0 DUP7 GAS CALL SWAP2 POP POP RETURNDATASIZE DUP1 PUSH1 0x0 DUP2 EQ PUSH2 0x27B6 JUMPI PUSH1 0x40 MLOAD SWAP2 POP PUSH1 0x1F NOT PUSH1 0x3F RETURNDATASIZE ADD AND DUP3 ADD PUSH1 0x40 MSTORE RETURNDATASIZE DUP3 MSTORE RETURNDATASIZE PUSH1 0x0 PUSH1 0x20 DUP5 ADD RETURNDATACOPY PUSH2 0x27BB JUMP JUMPDEST PUSH1 0x60 SWAP2 POP JUMPDEST POP POP SWAP1 POP PUSH2 0x27C9 DUP5 DUP3 PUSH2 0x3C8F JUMP JUMPDEST DUP1 ISZERO PUSH2 0x27FB JUMPI PUSH1 0x40 MLOAD DUP5 SWAP1 PUSH32 0xA74C8847D513FEBA22A0F0CB38D53081ABF97562CDB293926BA243689E7C41CA SWAP1 PUSH1 0x0 SWAP1 LOG2 JUMPDEST POP POP POP POP JUMPDEST PUSH2 0x2809 DUP2 PUSH2 0x49A2 JUMP JUMPDEST SWAP1 POP PUSH2 0x2388 JUMP JUMPDEST POP POP POP POP POP POP POP POP POP POP POP POP POP JUMP JUMPDEST PUSH1 0x0 PUSH2 0x282A DUP5 PUSH2 0x1279 JUMP JUMPDEST SWAP1 POP PUSH1 0x1 PUSH1 0x1 PUSH1 0xA0 SHL SUB DUP2 AND PUSH2 0x2877 JUMPI DUP4 PUSH1 0x40 MLOAD PUSH32 0x72BA137E00000000000000000000000000000000000000000000000000000000 DUP2 MSTORE PUSH1 0x4 ADD PUSH2 0x286E SWAP2 SWAP1 PUSH2 0x45C1 JUMP JUMPDEST PUSH1 0x40 MLOAD DUP1 SWAP2 SUB SWAP1 REVERT JUMPDEST PUSH1 0x2 PUSH2 0x2882 DUP6 PUSH2 0x3C9B JUMP JUMPDEST PUSH1 0x2 DUP2 GT ISZERO PUSH2 0x2893 JUMPI PUSH2 0x2893 PUSH2 0x5150 JUMP JUMPDEST EQ ISZERO PUSH2 0x298F JUMPI PUSH2 0x28A2 DUP5 PUSH2 0x3CBA JUMP JUMPDEST PUSH1 0x40 MLOAD PUSH1 0x1 PUSH1 0x1 PUSH1 0xA0 SHL SUB DUP5 AND PUSH1 0x24 DUP3 ADD MSTORE PUSH1 0x44 DUP2 ADD DUP4 SWAP1 MSTORE PUSH1 0x0 SWAP1 PUSH2 0x294E SWAP1 DUP4 SWAP1 PUSH32 0xA9059CBB00000000000000000000000000000000000000000000000000000000 SWAP1 PUSH1 0x64 ADD JUMPDEST PUSH1 0x40 DUP1 MLOAD PUSH1 0x1F NOT DUP2 DUP5 SUB ADD DUP2 MSTORE SWAP2 SWAP1 MSTORE PUSH1 0x20 DUP2 ADD DUP1 MLOAD PUSH28 0xFFFFFFFFFFFFFFFFFFFFFFFFFFFFFFFFFFFFFFFFFFFFFFFFFFFFFFFF AND PUSH32 0xFFFFFFFF00000000000000000000000000000000000000000000000000000000 SWAP1 SWAP4 AND SWAP3 SWAP1 SWAP3 OR SWAP1 SWAP2 MSTORE PUSH2 0x3D51 JUMP JUMPDEST SWAP1 POP DUP1 PUSH2 0x2989 JUMPI DUP5 PUSH1 0x40 MLOAD PUSH32 0x90C52ED700000000000000000000000000000000000000000000000000000000 DUP2 MSTORE PUSH1 0x4 ADD PUSH2 0x286E SWAP2 SWAP1 PUSH2 0x45C1 JUMP JUMPDEST POP PUSH2 0x642 JUMP JUMPDEST PUSH1 0x40 MLOAD PUSH32 0x40C10F1900000000000000000000000000000000000000000000000000000000 DUP2 MSTORE PUSH1 0x1 PUSH1 0x1 PUSH1 0xA0 SHL SUB DUP5 DUP2 AND PUSH1 0x4 DUP4 ADD MSTORE PUSH1 0x24 DUP3 ADD DUP5 SWAP1 MSTORE DUP3 AND SWAP1 PUSH4 0x40C10F19 SWAP1 PUSH1 0x44 ADD PUSH1 0x0 PUSH1 0x40 MLOAD DUP1 DUP4 SUB DUP2 PUSH1 0x0 DUP8 DUP1 EXTCODESIZE ISZERO DUP1 ISZERO PUSH2 0x29F2 JUMPI PUSH1 0x0 DUP1 REVERT JUMPDEST POP GAS CALL ISZERO DUP1 ISZERO PUSH2 0x1209 JUMPI RETURNDATASIZE PUSH1 0x0 DUP1 RETURNDATACOPY RETURNDATASIZE PUSH1 0x0 REVERT JUMPDEST PUSH1 0x0 PUSH2 0x1015 PUSH2 0x597 DUP4 PUSH2 0x3DE3 JUMP JUMPDEST PUSH1 0x0 PUSH2 0x2A23 PUSH2 0x311 DUP5 DUP5 PUSH2 0x3E1E JUMP JUMPDEST SWAP4 SWAP3 POP POP POP JUMP JUMPDEST PUSH1 0x0 PUSH32 0xB7AD972B71475860613DB3BA1FE699B886C878F9002A09250DC25E769EB19A10 DUP9 DUP9 DUP9 DUP9 DUP9 DUP9 DUP9 PUSH1 0x40 MLOAD PUSH1 0x20 ADD PUSH2 0x2A6B SWAP9 SWAP8 SWAP7 SWAP6 SWAP5 SWAP4 SWAP3 SWAP2 SWAP1 PUSH2 0x51A1 JUMP JUMPDEST PUSH1 0x40 MLOAD PUSH1 0x20 DUP2 DUP4 SUB SUB DUP2 MSTORE SWAP1 PUSH1 0x40 MSTORE DUP1 MLOAD SWAP1 PUSH1 0x20 ADD KECCAK256 SWAP1 POP SWAP8 SWAP7 POP POP POP POP POP POP POP JUMP JUMPDEST PUSH1 0x0 PUSH2 0x2A99 DUP4 PUSH2 0x1279 JUMP JUMPDEST SWAP1 POP PUSH1 0x1 PUSH1 0x1 PUSH1 0xA0 SHL SUB DUP2 AND PUSH2 0x2ADD JUMPI DUP3 PUSH1 0x40 MLOAD PUSH32 0x72BA137E00000000000000000000000000000000000000000000000000000000 DUP2 MSTORE PUSH1 0x4 ADD PUSH2 0x286E SWAP2 SWAP1 PUSH2 0x45C1 JUMP JUMPDEST DUP2 PUSH2 0x2B14 JUMPI PUSH1 0x40 MLOAD PUSH32 0x2C5211C600000000000000000000000000000000000000000000000000000000 DUP2 MSTORE PUSH1 0x4 ADD PUSH1 0x40 MLOAD DUP1 SWAP2 SUB SWAP1 REVERT JUMPDEST PUSH1 0x0 PUSH2 0x2B1F DUP5 PUSH2 0x3C9B JUMP JUMPDEST SWAP1 POP PUSH1 0x0 PUSH1 0x2 DUP3 PUSH1 0x2 DUP2 GT ISZERO PUSH2 0x2B37 JUMPI PUSH2 0x2B37 PUSH2 0x5150 JUMP JUMPDEST EQ ISZERO PUSH2 0x2BD0 JUMPI PUSH2 0x2B46 DUP6 PUSH2 0x3CBA JUMP JUMPDEST PUSH1 0x40 MLOAD PUSH1 0x1 PUSH1 0x1 PUSH1 0xA0 SHL SUB DUP8 AND PUSH1 0x24 DUP3 ADD MSTORE ADDRESS PUSH1 0x44 DUP3 ADD MSTORE PUSH1 0x64 DUP2 ADD DUP6 SWAP1 MSTORE PUSH2 0x2B95 SWAP1 DUP5 SWAP1 PUSH32 0x23B872DD00000000000000000000000000000000000000000000000000000000 SWAP1 PUSH1 0x84 ADD PUSH2 0x28EA JUMP JUMPDEST SWAP1 POP DUP1 PUSH2 0x6A2 JUMPI DUP5 PUSH1 0x40 MLOAD PUSH32 0xE217B0AD00000000000000000000000000000000000000000000000000000000 DUP2 MSTORE PUSH1 0x4 ADD PUSH2 0x286E SWAP2 SWAP1 PUSH2 0x45C1 JUMP JUMPDEST PUSH1 0x1 DUP3 PUSH1 0x2 DUP2 GT ISZERO PUSH2 0x2BE4 JUMPI PUSH2 0x2BE4 PUSH2 0x5150 JUMP JUMPDEST EQ ISZERO PUSH2 0x2C33 JUMPI PUSH1 0x40 MLOAD PUSH1 0x1 PUSH1 0x1 PUSH1 0xA0 SHL SUB DUP8 AND PUSH1 0x24 DUP3 ADD MSTORE PUSH1 0x44 DUP2 ADD DUP6 SWAP1 MSTORE PUSH2 0x2B95 SWAP1 DUP5 SWAP1 PUSH32 0x79CC679000000000000000000000000000000000000000000000000000000000 SWAP1 PUSH1 0x64 ADD PUSH2 0x28EA JUMP JUMPDEST PUSH1 0x40 MLOAD PUSH32 0x31EECAF400000000000000000000000000000000000000000000000000000000 DUP2 MSTORE PUSH1 0x0 PUSH1 0x4 DUP3 ADD MSTORE PUSH2 0x2D17 SWAP1 DUP5 SWAP1 PUSH32 0x23B872DD00000000000000000000000000000000000000000000000000000000 SWAP1 DUP10 SWAP1 PUSH1 0x1 PUSH1 0x1 PUSH1 0xA0 SHL SUB DUP5 AND SWAP1 PUSH4 0x31EECAF4 SWAP1 PUSH1 0x24 ADD PUSH1 0x20 PUSH1 0x40 MLOAD DUP1 DUP4 SUB DUP2 DUP7 DUP1 EXTCODESIZE ISZERO DUP1 ISZERO PUSH2 0x2CB6 JUMPI PUSH1 0x0 DUP1 REVERT JUMPDEST POP GAS STATICCALL ISZERO DUP1 ISZERO PUSH2 0x2CCA JUMPI RETURNDATASIZE PUSH1 0x0 DUP1 RETURNDATACOPY RETURNDATASIZE PUSH1 0x0 REVERT JUMPDEST POP POP POP POP PUSH1 0x40 MLOAD RETURNDATASIZE PUSH1 0x1F NOT PUSH1 0x1F DUP3 ADD AND DUP3 ADD DUP1 PUSH1 0x40 MSTORE POP DUP2 ADD SWAP1 PUSH2 0x2CEE SWAP2 SWAP1 PUSH2 0x5214 JUMP JUMPDEST PUSH1 0x40 MLOAD PUSH1 0x1 PUSH1 0x1 PUSH1 0xA0 SHL SUB SWAP3 DUP4 AND PUSH1 0x24 DUP3 ADD MSTORE SWAP2 AND PUSH1 0x44 DUP3 ADD MSTORE PUSH1 0x64 DUP2 ADD DUP9 SWAP1 MSTORE PUSH1 0x84 ADD PUSH2 0x28EA JUMP JUMPDEST SWAP1 POP DUP1 PUSH2 0x2D52 JUMPI DUP5 PUSH1 0x40 MLOAD PUSH32 0xE217B0AD00000000000000000000000000000000000000000000000000000000 DUP2 MSTORE PUSH1 0x4 ADD PUSH2 0x286E SWAP2 SWAP1 PUSH2 0x45C1 JUMP JUMPDEST PUSH1 0x40 MLOAD PUSH32 0x8A1EEE100000000000000000000000000000000000000000000000000000000 DUP2 MSTORE PUSH1 0x0 PUSH1 0x4 DUP3 ADD MSTORE PUSH1 0x1 PUSH1 0x1 PUSH1 0xA0 SHL SUB DUP5 AND SWAP1 PUSH4 0x8A1EEE1 SWAP1 PUSH1 0x24 ADD JUMPDEST PUSH1 0x0 PUSH1 0x40 MLOAD DUP1 DUP4 SUB DUP2 PUSH1 0x0 DUP8 DUP1 EXTCODESIZE ISZERO DUP1 ISZERO PUSH2 0x2DAE JUMPI PUSH1 0x0 DUP1 REVERT JUMPDEST POP GAS CALL ISZERO DUP1 ISZERO PUSH2 0x2DC2 JUMPI RETURNDATASIZE PUSH1 0x0 DUP1 RETURNDATACOPY RETURNDATASIZE PUSH1 0x0 REVERT JUMPDEST POP POP POP POP POP POP POP POP POP POP JUMP JUMPDEST PUSH1 0x0 PUSH2 0x2A23 PUSH2 0x43B DUP5 DUP5 PUSH2 0x3E7A JUMP JUMPDEST PUSH1 0x40 DUP1 MLOAD PUSH32 0x3CED7A8CAF1111E0FBF4B784C5B41AEBD0F2389D9F2F64D5C3424AEED3ADBD3C PUSH1 0x20 DUP1 DUP4 ADD SWAP2 SWAP1 SWAP2 MSTORE DUP2 DUP4 ADD DUP7 SWAP1 MSTORE PUSH1 0x60 DUP1 DUP4 ADD DUP7 SWAP1 MSTORE DUP5 SWAP1 SHL PUSH32 0xFFFFFFFFFFFFFFFFFFFFFFFFFFFFFFFFFFFFFFFF000000000000000000000000 AND PUSH1 0x80 DUP4 ADD MSTORE DUP3 MLOAD DUP1 DUP4 SUB PUSH1 0x74 ADD DUP2 MSTORE PUSH1 0x94 SWAP1 SWAP3 ADD SWAP1 SWAP3 MSTORE DUP1 MLOAD SWAP2 ADD KECCAK256 PUSH1 0x0 SWAP1 PUSH2 0x2E66 SWAP1 PUSH2 0x43B JUMP JUMPDEST SWAP5 SWAP4 POP POP POP POP JUMP JUMPDEST PUSH1 0x40 DUP1 MLOAD PUSH32 0x3CED7A8CAF1111E0FBF4B784C5B41AEBD0F2389D9F2F64D5C3424AEED3ADBD3C PUSH1 0x20 DUP1 DUP4 ADD SWAP2 SWAP1 SWAP2 MSTORE DUP2 DUP4 ADD DUP8 SWAP1 MSTORE PUSH1 0x60 DUP1 DUP4 ADD DUP8 SWAP1 MSTORE DUP6 SWAP1 SHL PUSH32 0xFFFFFFFFFFFFFFFFFFFFFFFFFFFFFFFFFFFFFFFF000000000000000000000000 AND PUSH1 0x80 DUP4 ADD MSTORE DUP3 MLOAD DUP1 DUP4 SUB PUSH1 0x74 ADD DUP2 MSTORE PUSH1 0x94 SWAP1 SWAP3 ADD SWAP1 SWAP3 MSTORE DUP1 MLOAD SWAP2 ADD KECCAK256 PUSH2 0x642 SWAP1 JUMPDEST PUSH1 0x0 SWAP1 DUP2 MSTORE PUSH1 0x4 PUSH1 0x20 MSTORE PUSH1 0x40 SWAP1 KECCAK256 DUP1 SLOAD PUSH1 0xFF NOT AND DUP4 ISZERO ISZERO OR SWAP1 SSTORE JUMP JUMPDEST PUSH1 0x0 PUSH2 0x2A23 PUSH2 0x597 DUP5 DUP5 PUSH2 0x3EE0 JUMP JUMPDEST PUSH2 0x2F3B PUSH2 0x2F28 DUP5 DUP5 PUSH2 0x3EE0 JUMP JUMPDEST DUP3 PUSH1 0x0 SWAP2 DUP3 MSTORE PUSH1 0x20 DUP3 SWAP1 MSTORE PUSH1 0x40 SWAP1 SWAP2 KECCAK256 SSTORE JUMP JUMPDEST POP POP POP JUMP JUMPDEST PUSH1 0x0 PUSH2 0x1015 PUSH2 0x597 DUP4 PUSH2 0x3F22 JUMP JUMPDEST PUSH1 0x0 PUSH32 0x1A7261D3A36C4CE4235D10859911C9444A6963A3591EC5725B96871D9810626B DUP3 PUSH1 0x40 MLOAD PUSH1 0x20 ADD PUSH2 0x2F83 SWAP3 SWAP2 SWAP1 PUSH2 0x5231 JUMP JUMPDEST PUSH1 0x40 MLOAD PUSH1 0x20 DUP2 DUP4 SUB SUB DUP2 MSTORE SWAP1 PUSH1 0x40 MSTORE DUP1 MLOAD SWAP1 PUSH1 0x20 ADD KECCAK256 SWAP1 POP SWAP2 SWAP1 POP JUMP JUMPDEST PUSH1 0x0 PUSH2 0x2FAB DUP4 PUSH2 0x1279 JUMP JUMPDEST SWAP1 POP PUSH1 0x1 PUSH1 0x1 PUSH1 0xA0 SHL SUB DUP2 AND PUSH2 0x2FEF JUMPI DUP3 PUSH1 0x40 MLOAD PUSH32 0x72BA137E00000000000000000000000000000000000000000000000000000000 DUP2 MSTORE PUSH1 0x4 ADD PUSH2 0x286E SWAP2 SWAP1 PUSH2 0x45C1 JUMP JUMPDEST PUSH1 0x2 PUSH2 0x2FFA DUP5 PUSH2 0x3C9B JUMP JUMPDEST PUSH1 0x2 DUP2 GT ISZERO PUSH2 0x300B JUMPI PUSH2 0x300B PUSH2 0x5150 JUMP JUMPDEST EQ ISZERO PUSH2 0x32A1 JUMPI PUSH2 0x301A DUP4 PUSH2 0x3CBA JUMP JUMPDEST PUSH1 0x0 DUP3 PUSH1 0x40 MLOAD PUSH2 0x3029 SWAP1 PUSH2 0x4098 JUMP JUMPDEST DUP2 SWAP1 PUSH1 0x40 MLOAD DUP1 SWAP2 SUB SWAP1 PUSH1 0x0 CREATE2 SWAP1 POP DUP1 ISZERO DUP1 ISZERO PUSH2 0x3049 JUMPI RETURNDATASIZE PUSH1 0x0 DUP1 RETURNDATACOPY RETURNDATASIZE PUSH1 0x0 REVERT JUMPDEST POP PUSH1 0x40 MLOAD PUSH32 0x70A0823100000000000000000000000000000000000000000000000000000000 DUP2 MSTORE PUSH1 0x1 PUSH1 0x1 PUSH1 0xA0 SHL SUB DUP1 DUP4 AND PUSH1 0x4 DUP4 ADD DUP2 SWAP1 MSTORE SWAP3 SWAP4 POP PUSH1 0x0 SWAP3 DUP4 SWAP3 SWAP1 SWAP2 PUSH4 0x1CFF79CD SWAP2 DUP8 SWAP2 PUSH32 0xA9059CBB00000000000000000000000000000000000000000000000000000000 SWAP2 ADDRESS SWAP2 DUP5 AND SWAP1 PUSH4 0x70A08231 SWAP1 PUSH1 0x24 ADD PUSH1 0x20 PUSH1 0x40 MLOAD DUP1 DUP4 SUB DUP2 DUP7 DUP1 EXTCODESIZE ISZERO DUP1 ISZERO PUSH2 0x30DC JUMPI PUSH1 0x0 DUP1 REVERT JUMPDEST POP GAS STATICCALL ISZERO DUP1 ISZERO PUSH2 0x30F0 JUMPI RETURNDATASIZE PUSH1 0x0 DUP1 RETURNDATACOPY RETURNDATASIZE PUSH1 0x0 REVERT JUMPDEST POP POP POP POP PUSH1 0x40 MLOAD RETURNDATASIZE PUSH1 0x1F NOT PUSH1 0x1F DUP3 ADD AND DUP3 ADD DUP1 PUSH1 0x40 MSTORE POP DUP2 ADD SWAP1 PUSH2 0x3114 SWAP2 SWAP1 PUSH2 0x5257 JUMP JUMPDEST PUSH1 0x40 MLOAD PUSH1 0x1 PUSH1 0x1 PUSH1 0xA0 SHL SUB SWAP1 SWAP3 AND PUSH1 0x24 DUP4 ADD MSTORE PUSH1 0x44 DUP3 ADD MSTORE PUSH1 0x64 ADD PUSH1 0x40 DUP1 MLOAD PUSH1 0x1F NOT DUP2 DUP5 SUB ADD DUP2 MSTORE SWAP2 DUP2 MSTORE PUSH1 0x20 DUP3 ADD DUP1 MLOAD PUSH28 0xFFFFFFFFFFFFFFFFFFFFFFFFFFFFFFFFFFFFFFFFFFFFFFFFFFFFFFFF AND PUSH32 0xFFFFFFFF00000000000000000000000000000000000000000000000000000000 SWAP5 DUP6 AND OR SWAP1 MSTORE MLOAD PUSH1 0xE0 DUP6 SWAP1 SHL SWAP1 SWAP3 AND DUP3 MSTORE PUSH2 0x31A2 SWAP3 SWAP2 PUSH1 0x4 ADD PUSH2 0x5270 JUMP JUMPDEST PUSH1 0x0 PUSH1 0x40 MLOAD DUP1 DUP4 SUB DUP2 PUSH1 0x0 DUP8 DUP1 EXTCODESIZE ISZERO DUP1 ISZERO PUSH2 0x31BC JUMPI PUSH1 0x0 DUP1 REVERT JUMPDEST POP GAS CALL ISZERO DUP1 ISZERO PUSH2 0x31D0 JUMPI RETURNDATASIZE PUSH1 0x0 DUP1 RETURNDATACOPY RETURNDATASIZE PUSH1 0x0 REVERT JUMPDEST POP POP POP POP PUSH1 0x40 MLOAD RETURNDATASIZE PUSH1 0x0 DUP3 RETURNDATACOPY PUSH1 0x1F RETURNDATASIZE SWAP1 DUP2 ADD PUSH1 0x1F NOT AND DUP3 ADD PUSH1 0x40 MSTORE PUSH2 0x31F8 SWAP2 SWAP1 DUP2 ADD SWAP1 PUSH2 0x52A2 JUMP JUMPDEST SWAP2 POP SWAP2 POP DUP2 ISZERO DUP1 PUSH2 0x3225 JUMPI POP DUP1 MLOAD ISZERO DUP1 ISZERO SWAP1 PUSH2 0x3225 JUMPI POP DUP1 DUP1 PUSH1 0x20 ADD SWAP1 MLOAD DUP2 ADD SWAP1 PUSH2 0x3223 SWAP2 SWAP1 PUSH2 0x52E6 JUMP JUMPDEST ISZERO JUMPDEST ISZERO PUSH2 0x325E JUMPI DUP6 PUSH1 0x40 MLOAD PUSH32 0xE217B0AD00000000000000000000000000000000000000000000000000000000 DUP2 MSTORE PUSH1 0x4 ADD PUSH2 0x286E SWAP2 SWAP1 PUSH2 0x45C1 JUMP JUMPDEST PUSH1 0x40 MLOAD PUSH31 0xF55D9D00000000000000000000000000000000000000000000000000000000 DUP2 MSTORE ADDRESS PUSH1 0x4 DUP3 ADD MSTORE PUSH1 0x1 PUSH1 0x1 PUSH1 0xA0 SHL SUB DUP5 AND SWAP1 PUSH3 0xF55D9D SWAP1 PUSH1 0x24 ADD PUSH2 0x2D94 JUMP JUMPDEST PUSH1 0x40 MLOAD PUSH32 0x8A1EEE100000000000000000000000000000000000000000000000000000000 DUP2 MSTORE PUSH1 0x4 DUP2 ADD DUP4 SWAP1 MSTORE PUSH1 0x1 PUSH1 0x1 PUSH1 0xA0 SHL SUB DUP3 AND SWAP1 PUSH4 0x8A1EEE1 SWAP1 PUSH1 0x24 ADD PUSH1 0x0 PUSH1 0x40 MLOAD DUP1 DUP4 SUB DUP2 PUSH1 0x0 DUP8 DUP1 EXTCODESIZE ISZERO DUP1 ISZERO PUSH2 0x32FC JUMPI PUSH1 0x0 DUP1 REVERT JUMPDEST POP GAS CALL ISZERO DUP1 ISZERO PUSH2 0xBA4 JUMPI RETURNDATASIZE PUSH1 0x0 DUP1 RETURNDATACOPY RETURNDATASIZE PUSH1 0x0 REVERT JUMPDEST PUSH1 0x0 PUSH2 0x1015 PUSH2 0x311 DUP4 PUSH2 0x3F5D JUMP JUMPDEST PUSH2 0x332D DUP10 DUP10 DUP10 DUP10 DUP10 DUP10 DUP10 PUSH2 0x3F98 JUMP JUMPDEST DUP5 DUP7 PUSH1 0x1 PUSH1 0x1 PUSH1 0xA0 SHL SUB AND DUP11 PUSH32 0x9991FAA1F435675159FFAE64B66D7ECFDB55C29755869A18DB8497B4392347E0 DUP12 DUP12 DUP10 DUP10 DUP10 DUP10 PUSH1 0x40 MLOAD PUSH2 0x3372 SWAP7 SWAP6 SWAP5 SWAP4 SWAP3 SWAP2 SWAP1 PUSH2 0x5301 JUMP JUMPDEST PUSH1 0x40 MLOAD DUP1 SWAP2 SUB SWAP1 LOG4 POP POP POP POP POP POP POP POP POP JUMP JUMPDEST PUSH1 0x0 PUSH32 0x7B0D4304F82012BD3B70B1D531C160E326067C90829E2A3D386722AD10B89C3 DUP7 DUP7 DUP7 DUP7 DUP7 PUSH1 0x40 MLOAD PUSH1 0x20 ADD PUSH2 0x33C2 SWAP7 SWAP6 SWAP5 SWAP4 SWAP3 SWAP2 SWAP1 PUSH2 0x5359 JUMP JUMPDEST PUSH1 0x40 MLOAD PUSH1 0x20 DUP2 DUP4 SUB SUB DUP2 MSTORE SWAP1 PUSH1 0x40 MSTORE DUP1 MLOAD SWAP1 PUSH1 0x20 ADD KECCAK256 SWAP1 POP SWAP6 SWAP5 POP POP POP POP POP JUMP JUMPDEST PUSH1 0x0 PUSH2 0x1015 PUSH2 0x311 DUP4 PUSH2 0x3FAA JUMP JUMPDEST POP JUMP JUMPDEST PUSH2 0x3441 PUSH2 0x3400 DUP4 PUSH2 0x3FAA JUMP JUMPDEST PUSH1 0x0 SWAP1 DUP2 MSTORE PUSH1 0x2 PUSH1 0x20 MSTORE PUSH1 0x40 SWAP1 KECCAK256 DUP1 SLOAD PUSH32 0xFFFFFFFFFFFFFFFFFFFFFFFF0000000000000000000000000000000000000000 AND PUSH1 0x1 PUSH1 0x1 PUSH1 0xA0 SHL SUB DUP5 AND OR SWAP1 SSTORE JUMP JUMPDEST POP POP JUMP JUMPDEST PUSH1 0x0 PUSH2 0x3450 DUP6 PUSH2 0x1279 JUMP JUMPDEST PUSH1 0x1 PUSH1 0x1 PUSH1 0xA0 SHL SUB AND EQ PUSH2 0x3492 JUMPI DUP4 PUSH1 0x40 MLOAD PUSH32 0xAA7E8B3200000000000000000000000000000000000000000000000000000000 DUP2 MSTORE PUSH1 0x4 ADD PUSH2 0x286E SWAP2 SWAP1 PUSH2 0x45C1 JUMP JUMPDEST PUSH1 0x1 PUSH1 0x1 PUSH1 0xA0 SHL SUB DUP2 AND PUSH2 0x362B JUMPI PUSH1 0x0 DUP5 PUSH1 0x40 MLOAD PUSH1 0x20 ADD PUSH2 0x34B3 SWAP2 SWAP1 PUSH2 0x4DD3 JUMP JUMPDEST PUSH1 0x40 MLOAD PUSH1 0x20 DUP2 DUP4 SUB SUB DUP2 MSTORE SWAP1 PUSH1 0x40 MSTORE DUP1 MLOAD SWAP1 PUSH1 0x20 ADD KECCAK256 SWAP1 POP PUSH1 0x0 DUP1 PUSH32 0x0 PUSH1 0x1 PUSH1 0x1 PUSH1 0xA0 SHL SUB AND PUSH4 0x6FC95B34 PUSH1 0xE0 SHL DUP10 DUP10 DUP10 DUP10 DUP9 PUSH1 0x40 MLOAD PUSH1 0x24 ADD PUSH2 0x3519 SWAP6 SWAP5 SWAP4 SWAP3 SWAP2 SWAP1 PUSH2 0x53A9 JUMP JUMPDEST PUSH1 0x40 DUP1 MLOAD PUSH1 0x1F NOT DUP2 DUP5 SUB ADD DUP2 MSTORE SWAP2 DUP2 MSTORE PUSH1 0x20 DUP3 ADD DUP1 MLOAD PUSH28 0xFFFFFFFFFFFFFFFFFFFFFFFFFFFFFFFFFFFFFFFFFFFFFFFFFFFFFFFF AND PUSH32 0xFFFFFFFF00000000000000000000000000000000000000000000000000000000 SWAP1 SWAP5 AND SWAP4 SWAP1 SWAP4 OR SWAP1 SWAP3 MSTORE SWAP1 MLOAD PUSH2 0x3584 SWAP2 SWAP1 PUSH2 0x4DD3 JUMP JUMPDEST PUSH1 0x0 PUSH1 0x40 MLOAD DUP1 DUP4 SUB DUP2 DUP6 GAS DELEGATECALL SWAP2 POP POP RETURNDATASIZE DUP1 PUSH1 0x0 DUP2 EQ PUSH2 0x35BF JUMPI PUSH1 0x40 MLOAD SWAP2 POP PUSH1 0x1F NOT PUSH1 0x3F RETURNDATASIZE ADD AND DUP3 ADD PUSH1 0x40 MSTORE RETURNDATASIZE DUP3 MSTORE RETURNDATASIZE PUSH1 0x0 PUSH1 0x20 DUP5 ADD RETURNDATACOPY PUSH2 0x35C4 JUMP JUMPDEST PUSH1 0x60 SWAP2 POP JUMPDEST POP SWAP2 POP SWAP2 POP DUP2 PUSH2 0x3602 JUMPI DUP7 PUSH1 0x40 MLOAD PUSH32 0x86D5274300000000000000000000000000000000000000000000000000000000 DUP2 MSTORE PUSH1 0x4 ADD PUSH2 0x286E SWAP2 SWAP1 PUSH2 0x45C1 JUMP JUMPDEST DUP1 DUP1 PUSH1 0x20 ADD SWAP1 MLOAD DUP2 ADD SWAP1 PUSH2 0x3616 SWAP2 SWAP1 PUSH2 0x5214 JUMP JUMPDEST SWAP4 POP PUSH2 0x3623 DUP8 PUSH1 0x1 PUSH2 0x3FE5 JUMP JUMPDEST POP POP POP PUSH2 0x3682 JUMP JUMPDEST PUSH1 0x1 PUSH1 0x1 PUSH1 0xA0 SHL SUB DUP2 AND EXTCODESIZE PUSH2 0x3677 JUMPI PUSH1 0x40 MLOAD PUSH32 0xC5CCDDDE00000000000000000000000000000000000000000000000000000000 DUP2 MSTORE PUSH1 0x1 PUSH1 0x1 PUSH1 0xA0 SHL SUB DUP3 AND PUSH1 0x4 DUP3 ADD MSTORE PUSH1 0x24 ADD PUSH2 0x286E JUMP JUMPDEST PUSH2 0x3682 DUP5 PUSH1 0x2 PUSH2 0x3FE5 JUMP JUMPDEST PUSH2 0x368C DUP5 DUP3 PUSH2 0x4015 JUMP JUMPDEST PUSH32 0xBF90B5A1EC9763E8BF4B9245CEF0C28DB92BAB309FC2C5177F17814F38246938 DUP5 DUP3 PUSH1 0x40 MLOAD PUSH2 0x36BD SWAP3 SWAP2 SWAP1 PUSH2 0x53EF JUMP JUMPDEST PUSH1 0x40 MLOAD DUP1 SWAP2 SUB SWAP1 LOG1 POP POP POP POP POP JUMP JUMPDEST PUSH1 0x0 PUSH32 0xC4E632779A6A7838736DD7E5E6A0EADF171DD37DFB6230720E265576DFCF42BB DUP3 PUSH1 0x40 MLOAD PUSH1 0x20 ADD PUSH2 0x2F83 SWAP3 SWAP2 SWAP1 PUSH2 0x5231 JUMP JUMPDEST PUSH2 0x3441 PUSH2 0x3400 DUP4 PUSH2 0x3F5D JUMP JUMPDEST DUP2 MLOAD DUP2 DUP2 LT ISZERO PUSH2 0x3749 JUMPI PUSH1 0x40 MLOAD PUSH32 0xF1965A0700000000000000000000000000000000000000000000000000000000 DUP2 MSTORE PUSH1 0x4 ADD PUSH1 0x40 MLOAD DUP1 SWAP2 SUB SWAP1 REVERT JUMPDEST DUP2 PUSH2 0x3780 JUMPI PUSH1 0x40 MLOAD PUSH32 0x1845300D00000000000000000000000000000000000000000000000000000000 DUP2 MSTORE PUSH1 0x4 ADD PUSH1 0x40 MLOAD DUP1 SWAP2 SUB SWAP1 REVERT JUMPDEST PUSH2 0x378A DUP5 DUP4 PUSH2 0x4021 JUMP JUMPDEST PUSH2 0x3794 DUP5 DUP3 PUSH2 0x402D JUMP JUMPDEST PUSH1 0x0 JUMPDEST DUP2 DUP2 LT ISZERO PUSH2 0xC5B JUMPI PUSH1 0x0 DUP5 DUP3 DUP2 MLOAD DUP2 LT PUSH2 0x37B3 JUMPI PUSH2 0x37B3 PUSH2 0x4944 JUMP JUMPDEST PUSH1 0x20 MUL PUSH1 0x20 ADD ADD MLOAD SWAP1 POP PUSH2 0x37C7 DUP7 DUP3 PUSH2 0x2DCE JUMP JUMPDEST ISZERO PUSH2 0x3809 JUMPI PUSH1 0x40 MLOAD PUSH32 0x424926DE00000000000000000000000000000000000000000000000000000000 DUP2 MSTORE PUSH1 0x1 PUSH1 0x1 PUSH1 0xA0 SHL SUB DUP3 AND PUSH1 0x4 DUP3 ADD MSTORE PUSH1 0x24 ADD PUSH2 0x286E JUMP JUMPDEST PUSH1 0x1 PUSH1 0x1 PUSH1 0xA0 SHL SUB DUP2 AND PUSH2 0x3849 JUMPI PUSH1 0x40 MLOAD PUSH32 0xF1965A0700000000000000000000000000000000000000000000000000000000 DUP2 MSTORE PUSH1 0x4 ADD PUSH1 0x40 MLOAD DUP1 SWAP2 SUB SWAP1 REVERT JUMPDEST PUSH2 0x3854 DUP7 DUP4 DUP4 PUSH2 0x4039 JUMP JUMPDEST PUSH2 0x3860 DUP7 DUP3 PUSH1 0x1 PUSH2 0x4046 JUMP JUMPDEST POP PUSH2 0x386A DUP2 PUSH2 0x49A2 JUMP JUMPDEST SWAP1 POP PUSH2 0x3797 JUMP JUMPDEST PUSH1 0x40 DUP1 MLOAD PUSH32 0x957705A374326B30F4A1069C936D736CC9993ED6C820B4E0E2FD94A8BECA0D1D PUSH1 0x20 DUP3 ADD MSTORE SWAP1 DUP2 ADD DUP3 SWAP1 MSTORE PUSH1 0x0 SWAP1 PUSH1 0x60 ADD PUSH2 0x2F83 JUMP JUMPDEST PUSH2 0x38B9 DUP8 DUP8 DUP8 DUP8 DUP8 PUSH2 0x4053 JUMP JUMPDEST DUP3 DUP5 PUSH1 0x1 PUSH1 0x1 PUSH1 0xA0 SHL SUB AND DUP9 PUSH32 0x44E4F8F6BD682C5A3AEBA93601AB07CB4D1F21B2AAB1AE4880D9577919309AA4 DUP10 DUP10 DUP8 DUP8 PUSH1 0x40 MLOAD PUSH2 0x38FA SWAP5 SWAP4 SWAP3 SWAP2 SWAP1 PUSH2 0x541A JUMP JUMPDEST PUSH1 0x40 MLOAD DUP1 SWAP2 SUB SWAP1 LOG4 POP POP POP POP POP POP POP JUMP JUMPDEST PUSH1 0x40 MLOAD PUSH32 0x19457468657265756D205369676E6564204D6573736167653A0A333200000000 PUSH1 0x20 DUP3 ADD MSTORE PUSH1 0x3C DUP2 ADD DUP3 SWAP1 MSTORE PUSH1 0x0 SWAP1 PUSH1 0x5C ADD PUSH2 0x2F83 JUMP JUMPDEST PUSH1 0x0 DUP2 MLOAD PUSH1 0x41 EQ PUSH2 0x3983 JUMPI PUSH1 0x40 MLOAD PUSH32 0x4BE6321B00000000000000000000000000000000000000000000000000000000 DUP2 MSTORE PUSH1 0x4 ADD PUSH1 0x40 MLOAD DUP1 SWAP2 SUB SWAP1 REVERT JUMPDEST PUSH1 0x20 DUP3 ADD MLOAD PUSH1 0x40 DUP4 ADD MLOAD PUSH1 0x60 DUP5 ADD MLOAD PUSH1 0x0 BYTE PUSH32 0x7FFFFFFFFFFFFFFFFFFFFFFFFFFFFFFF5D576E7357A4501DDFE92F46681B20A0 DUP3 GT ISZERO PUSH2 0x39EF JUMPI PUSH1 0x40 MLOAD PUSH32 0x40C1E74800000000000000000000000000000000000000000000000000000000 DUP2 MSTORE PUSH1 0x4 ADD PUSH1 0x40 MLOAD DUP1 SWAP2 SUB SWAP1 REVERT JUMPDEST DUP1 PUSH1 0xFF AND PUSH1 0x1B EQ ISZERO DUP1 ISZERO PUSH2 0x3A07 JUMPI POP DUP1 PUSH1 0xFF AND PUSH1 0x1C EQ ISZERO JUMPDEST ISZERO PUSH2 0x3A3E JUMPI PUSH1 0x40 MLOAD PUSH32 0x119BCE3900000000000000000000000000000000000000000000000000000000 DUP2 MSTORE PUSH1 0x4 ADD PUSH1 0x40 MLOAD DUP1 SWAP2 SUB SWAP1 REVERT JUMPDEST PUSH1 0x40 DUP1 MLOAD PUSH1 0x0 DUP1 DUP3 MSTORE PUSH1 0x20 DUP3 ADD DUP1 DUP5 MSTORE DUP10 SWAP1 MSTORE PUSH1 0xFF DUP5 AND SWAP3 DUP3 ADD SWAP3 SWAP1 SWAP3 MSTORE PUSH1 0x60 DUP2 ADD DUP6 SWAP1 MSTORE PUSH1 0x80 DUP2 ADD DUP5 SWAP1 MSTORE PUSH1 0x1 SWAP1 PUSH1 0xA0 ADD PUSH1 0x20 PUSH1 0x40 MLOAD PUSH1 0x20 DUP2 SUB SWAP1 DUP1 DUP5 SUB SWAP1 DUP6 GAS STATICCALL ISZERO DUP1 ISZERO PUSH2 0x3A92 JUMPI RETURNDATASIZE PUSH1 0x0 DUP1 RETURNDATACOPY RETURNDATASIZE PUSH1 0x0 REVERT JUMPDEST POP POP POP PUSH1 0x20 PUSH1 0x40 MLOAD SUB MLOAD SWAP5 POP DUP5 PUSH1 0x1 PUSH1 0x1 PUSH1 0xA0 SHL SUB AND EQ ISZERO PUSH2 0x3AE0 JUMPI PUSH1 0x40 MLOAD PUSH32 0x8BAA579F00000000000000000000000000000000000000000000000000000000 DUP2 MSTORE PUSH1 0x4 ADD PUSH1 0x40 MLOAD DUP1 SWAP2 SUB SWAP1 REVERT JUMPDEST POP POP POP SWAP3 SWAP2 POP POP JUMP JUMPDEST PUSH1 0x0 DUP1 PUSH2 0x3B3D PUSH32 0x67CBDFF49954077D2DD5637524B03BFE3E6506D456859017A888FAD567E1AF03 PUSH1 0x0 SWAP1 DUP2 MSTORE PUSH1 0x20 MSTORE PUSH32 0x6F01C2F096E745C2A207FBF93BABD5E7EE6ACFD26F0F34A0E4AC68373C21D0E SLOAD SWAP1 JUMP JUMPDEST SWAP1 POP PUSH1 0x0 PUSH2 0x3B4D PUSH1 0x1 PUSH1 0x10 PUSH2 0x4AB0 JUMP JUMPDEST SWAP1 POP PUSH1 0x0 DUP2 DUP4 GT PUSH2 0x3B5F JUMPI PUSH1 0x0 PUSH2 0x3B69 JUMP JUMPDEST PUSH2 0x3B69 DUP3 DUP5 PUSH2 0x5453 JUMP JUMPDEST SWAP1 POP PUSH2 0x3B74 DUP4 PUSH2 0x546A JUMP JUMPDEST SWAP3 POP JUMPDEST DUP1 DUP4 GT ISZERO PUSH2 0x3BBC JUMPI PUSH2 0x3B93 DUP4 PUSH2 0x3B8C DUP2 PUSH2 0x546A JUMP JUMPDEST SWAP5 POP PUSH2 0x33E3 JUMP JUMPDEST PUSH1 0x1 PUSH1 0x1 PUSH1 0xA0 SHL SUB AND DUP6 PUSH1 0x1 PUSH1 0x1 PUSH1 0xA0 SHL SUB AND EQ ISZERO PUSH2 0x3BB7 JUMPI POP PUSH1 0x1 SWAP5 SWAP4 POP POP POP POP JUMP JUMPDEST PUSH2 0x3B77 JUMP JUMPDEST POP PUSH1 0x0 SWAP5 SWAP4 POP POP POP POP JUMP JUMPDEST PUSH1 0x0 DUP1 PUSH2 0x3C1B PUSH32 0x5369FB791F26307F8E69B07625302CCAC6930AF09AB22D753B17D2042E9992E7 PUSH1 0x0 SWAP1 DUP2 MSTORE PUSH1 0x20 MSTORE PUSH32 0x7174C149A4F7627AC1DD39B679BD42F12FC4E8D7E850B055662BBEE7188DA10 SLOAD SWAP1 JUMP JUMPDEST SWAP1 POP PUSH1 0x0 PUSH2 0x3C2B PUSH1 0x1 PUSH1 0x10 PUSH2 0x4AB0 JUMP JUMPDEST SWAP1 POP PUSH1 0x0 DUP2 DUP4 GT PUSH2 0x3C3D JUMPI PUSH1 0x0 PUSH2 0x3C47 JUMP JUMPDEST PUSH2 0x3C47 DUP3 DUP5 PUSH2 0x5453 JUMP JUMPDEST SWAP1 POP JUMPDEST DUP1 DUP4 GT ISZERO PUSH2 0x3BBC JUMPI PUSH2 0x3C66 DUP4 PUSH2 0x3C5F DUP2 PUSH2 0x546A JUMP JUMPDEST SWAP5 POP PUSH2 0x3310 JUMP JUMPDEST PUSH1 0x1 PUSH1 0x1 PUSH1 0xA0 SHL SUB AND DUP6 PUSH1 0x1 PUSH1 0x1 PUSH1 0xA0 SHL SUB AND EQ ISZERO PUSH2 0x3C8A JUMPI POP PUSH1 0x1 SWAP5 SWAP4 POP POP POP POP JUMP JUMPDEST PUSH2 0x3C4A JUMP JUMPDEST PUSH2 0x3441 PUSH2 0x2EF0 DUP4 PUSH2 0x3871 JUMP JUMPDEST PUSH1 0x0 PUSH2 0x3CA9 PUSH2 0x597 DUP4 PUSH2 0x4063 JUMP JUMPDEST PUSH1 0x2 DUP2 GT ISZERO PUSH2 0x1015 JUMPI PUSH2 0x1015 PUSH2 0x5150 JUMP JUMPDEST PUSH2 0x3CC3 DUP2 PUSH2 0x1007 JUMP JUMPDEST DUP1 PUSH2 0x3D18 JUMPI POP PUSH32 0x75A31D1CE8E5F9892188BEFC328D3B9BD3FA5037457E881ABC21F388471B8D96 PUSH1 0x0 MSTORE PUSH1 0x4 PUSH1 0x20 MSTORE PUSH32 0xA0B596B8942D6EF5CC77CE0AD89A75F0BFCC7F0132CD8DB58E8449DCF04A858A SLOAD PUSH1 0xFF AND JUMPDEST ISZERO PUSH2 0x33F1 JUMPI DUP1 PUSH1 0x40 MLOAD PUSH32 0x7222D30900000000000000000000000000000000000000000000000000000000 DUP2 MSTORE PUSH1 0x4 ADD PUSH2 0x286E SWAP2 SWAP1 PUSH2 0x45C1 JUMP JUMPDEST PUSH1 0x0 DUP1 PUSH1 0x0 DUP5 PUSH1 0x1 PUSH1 0x1 PUSH1 0xA0 SHL SUB AND DUP5 PUSH1 0x40 MLOAD PUSH2 0x3D6E SWAP2 SWAP1 PUSH2 0x4DD3 JUMP JUMPDEST PUSH1 0x0 PUSH1 0x40 MLOAD DUP1 DUP4 SUB DUP2 PUSH1 0x0 DUP7 GAS CALL SWAP2 POP POP RETURNDATASIZE DUP1 PUSH1 0x0 DUP2 EQ PUSH2 0x3DAB JUMPI PUSH1 0x40 MLOAD SWAP2 POP PUSH1 0x1F NOT PUSH1 0x3F RETURNDATASIZE ADD AND DUP3 ADD PUSH1 0x40 MSTORE RETURNDATASIZE DUP3 MSTORE RETURNDATASIZE PUSH1 0x0 PUSH1 0x20 DUP5 ADD RETURNDATACOPY PUSH2 0x3DB0 JUMP JUMPDEST PUSH1 0x60 SWAP2 POP JUMPDEST POP SWAP2 POP SWAP2 POP DUP2 DUP1 ISZERO PUSH2 0x3DDA JUMPI POP DUP1 MLOAD ISZERO DUP1 PUSH2 0x3DDA JUMPI POP DUP1 DUP1 PUSH1 0x20 ADD SWAP1 MLOAD DUP2 ADD SWAP1 PUSH2 0x3DDA SWAP2 SWAP1 PUSH2 0x52E6 JUMP JUMPDEST SWAP6 SWAP5 POP POP POP POP POP JUMP JUMPDEST PUSH1 0x40 DUP1 MLOAD PUSH32 0x5112EF894367DE1270CFAE12AFCD2285C225830EB8F74E7E938F721BB510CBA PUSH1 0x20 DUP3 ADD MSTORE SWAP1 DUP2 ADD DUP3 SWAP1 MSTORE PUSH1 0x0 SWAP1 PUSH1 0x60 ADD PUSH2 0x2F83 JUMP JUMPDEST PUSH1 0x40 DUP1 MLOAD PUSH32 0xF23EC0BB4210EDD5CBA85AFD05127EFCD2FC6A781BFED49188DA1081670B22D8 PUSH1 0x20 DUP3 ADD MSTORE SWAP1 DUP2 ADD DUP4 SWAP1 MSTORE PUSH1 0x60 DUP2 ADD DUP3 SWAP1 MSTORE PUSH1 0x0 SWAP1 PUSH1 0x80 ADD JUMPDEST PUSH1 0x40 MLOAD PUSH1 0x20 DUP2 DUP4 SUB SUB DUP2 MSTORE SWAP1 PUSH1 0x40 MSTORE DUP1 MLOAD SWAP1 PUSH1 0x20 ADD KECCAK256 SWAP1 POP SWAP3 SWAP2 POP POP JUMP JUMPDEST PUSH1 0x40 DUP1 MLOAD PUSH32 0x63FA879CB478FDDF1DE08D49E29115FB768866711BC799FF9AB419A7F16C9AFB PUSH1 0x20 DUP3 ADD MSTORE SWAP1 DUP2 ADD DUP4 SWAP1 MSTORE PUSH1 0x60 DUP3 DUP2 SHL PUSH32 0xFFFFFFFFFFFFFFFFFFFFFFFFFFFFFFFFFFFFFFFF000000000000000000000000 AND SWAP1 DUP3 ADD MSTORE PUSH1 0x0 SWAP1 PUSH1 0x74 ADD PUSH2 0x3E5C JUMP JUMPDEST PUSH1 0x40 DUP1 MLOAD PUSH32 0xBAEA1C6C0F16A0A340B10A9E980806696A68DDBB5E8361FD64630DD21ABF515F PUSH1 0x20 DUP3 ADD MSTORE SWAP1 DUP2 ADD DUP4 SWAP1 MSTORE PUSH1 0x60 DUP2 ADD DUP3 SWAP1 MSTORE PUSH1 0x0 SWAP1 PUSH1 0x80 ADD PUSH2 0x3E5C JUMP JUMPDEST PUSH1 0x40 DUP1 MLOAD PUSH32 0x79BD914ADDD90BD67AD800BF0230BB85FFDEF5AEBA5FD8249F116D3F17F4FB4B PUSH1 0x20 DUP3 ADD MSTORE SWAP1 DUP2 ADD DUP3 SWAP1 MSTORE PUSH1 0x0 SWAP1 PUSH1 0x60 ADD PUSH2 0x2F83 JUMP JUMPDEST PUSH1 0x40 DUP1 MLOAD PUSH32 0x46A52CF33029DE9F84853745A87AF28464C80BF0346DF1B32E205FC73319F622 PUSH1 0x20 DUP3 ADD MSTORE SWAP1 DUP2 ADD DUP3 SWAP1 MSTORE PUSH1 0x0 SWAP1 PUSH1 0x60 ADD PUSH2 0x2F83 JUMP JUMPDEST PUSH2 0xBA4 PUSH2 0xF70 DUP9 DUP9 DUP9 DUP9 DUP9 DUP9 DUP9 PUSH2 0x2A2A JUMP JUMPDEST PUSH1 0x40 DUP1 MLOAD PUSH32 0x2016836A56B71F0D02689E69E326F4F4C1B9057164EF592671CF0D37C8040C0 PUSH1 0x20 DUP3 ADD MSTORE SWAP1 DUP2 ADD DUP3 SWAP1 MSTORE PUSH1 0x0 SWAP1 PUSH1 0x60 ADD PUSH2 0x2F83 JUMP JUMPDEST PUSH2 0x3441 PUSH2 0x3FF1 DUP4 PUSH2 0x4063 JUMP JUMPDEST DUP3 PUSH1 0x2 DUP2 GT ISZERO PUSH2 0x4003 JUMPI PUSH2 0x4003 PUSH2 0x5150 JUMP JUMPDEST PUSH1 0x0 SWAP2 DUP3 MSTORE PUSH1 0x20 DUP3 SWAP1 MSTORE PUSH1 0x40 SWAP1 SWAP2 KECCAK256 SSTORE JUMP JUMPDEST PUSH2 0x3441 PUSH2 0x3400 DUP4 PUSH2 0x36CC JUMP JUMPDEST PUSH2 0x3441 PUSH2 0x2F28 DUP4 PUSH2 0x3F22 JUMP JUMPDEST PUSH2 0x3441 PUSH2 0x2F28 DUP4 PUSH2 0x3DE3 JUMP JUMPDEST PUSH2 0x2F3B PUSH2 0x3400 DUP5 DUP5 PUSH2 0x3E1E JUMP JUMPDEST PUSH2 0x2F3B PUSH2 0x2EF0 DUP5 DUP5 PUSH2 0x3E7A JUMP JUMPDEST PUSH2 0xC5B PUSH2 0xF70 DUP7 DUP7 DUP7 DUP7 DUP7 PUSH2 0x3385 JUMP JUMPDEST PUSH1 0x0 PUSH32 0xA80D2259AF55890618EC2EEB3AC72DE4BDBA22529BB14845D8A3D712D1C3F621 DUP3 PUSH1 0x40 MLOAD PUSH1 0x20 ADD PUSH2 0x2F83 SWAP3 SWAP2 SWAP1 PUSH2 0x5231 JUMP JUMPDEST PUSH2 0x36C DUP1 PUSH2 0x54A0 DUP4 CODECOPY ADD SWAP1 JUMP JUMPDEST PUSH1 0x0 DUP1 DUP4 PUSH1 0x1F DUP5 ADD SLT PUSH2 0x40B7 JUMPI PUSH1 0x0 DUP1 REVERT JUMPDEST POP DUP2 CALLDATALOAD PUSH8 0xFFFFFFFFFFFFFFFF DUP2 GT ISZERO PUSH2 0x40CF JUMPI PUSH1 0x0 DUP1 REVERT JUMPDEST PUSH1 0x20 DUP4 ADD SWAP2 POP DUP4 PUSH1 0x20 DUP3 DUP6 ADD ADD GT ISZERO PUSH2 0x40E7 JUMPI PUSH1 0x0 DUP1 REVERT JUMPDEST SWAP3 POP SWAP3 SWAP1 POP JUMP JUMPDEST PUSH1 0x0 DUP1 PUSH1 0x20 DUP4 DUP6 SUB SLT ISZERO PUSH2 0x4101 JUMPI PUSH1 0x0 DUP1 REVERT JUMPDEST DUP3 CALLDATALOAD PUSH8 0xFFFFFFFFFFFFFFFF DUP2 GT ISZERO PUSH2 0x4118 JUMPI PUSH1 0x0 DUP1 REVERT JUMPDEST PUSH2 0x4124 DUP6 DUP3 DUP7 ADD PUSH2 0x40A5 JUMP JUMPDEST SWAP1 SWAP7 SWAP1 SWAP6 POP SWAP4 POP POP POP POP JUMP JUMPDEST PUSH1 0x0 DUP1 PUSH1 0x0 PUSH1 0x40 DUP5 DUP7 SUB SLT ISZERO PUSH2 0x4145 JUMPI PUSH1 0x0 DUP1 REVERT JUMPDEST DUP4 CALLDATALOAD PUSH8 0xFFFFFFFFFFFFFFFF DUP2 GT ISZERO PUSH2 0x415C JUMPI PUSH1 0x0 DUP1 REVERT JUMPDEST PUSH2 0x4168 DUP7 DUP3 DUP8 ADD PUSH2 0x40A5 JUMP JUMPDEST SWAP1 SWAP8 SWAP1 SWAP7 POP PUSH1 0x20 SWAP6 SWAP1 SWAP6 ADD CALLDATALOAD SWAP5 SWAP4 POP POP POP POP JUMP JUMPDEST PUSH1 0x0 PUSH1 0x20 DUP3 DUP5 SUB SLT ISZERO PUSH2 0x418E JUMPI PUSH1 0x0 DUP1 REVERT JUMPDEST POP CALLDATALOAD SWAP2 SWAP1 POP JUMP JUMPDEST PUSH1 0x20 DUP1 DUP3 MSTORE DUP3 MLOAD DUP3 DUP3 ADD DUP2 SWAP1 MSTORE PUSH1 0x0 SWAP2 SWAP1 DUP5 DUP3 ADD SWAP1 PUSH1 0x40 DUP6 ADD SWAP1 DUP5 JUMPDEST DUP2 DUP2 LT ISZERO PUSH2 0x41D6 JUMPI DUP4 MLOAD PUSH1 0x1 PUSH1 0x1 PUSH1 0xA0 SHL SUB AND DUP4 MSTORE SWAP3 DUP5 ADD SWAP3 SWAP2 DUP5 ADD SWAP2 PUSH1 0x1 ADD PUSH2 0x41B1 JUMP JUMPDEST POP SWAP1 SWAP7 SWAP6 POP POP POP POP POP POP JUMP JUMPDEST PUSH1 0x0 DUP1 PUSH1 0x0 DUP1 PUSH1 0x0 DUP1 PUSH1 0x0 DUP1 PUSH1 0x0 PUSH1 0xC0 DUP11 DUP13 SUB SLT ISZERO PUSH2 0x4200 JUMPI PUSH1 0x0 DUP1 REVERT JUMPDEST DUP10 CALLDATALOAD SWAP9 POP PUSH1 0x20 DUP11 ADD CALLDATALOAD PUSH8 0xFFFFFFFFFFFFFFFF DUP1 DUP3 GT ISZERO PUSH2 0x421F JUMPI PUSH1 0x0 DUP1 REVERT JUMPDEST PUSH2 0x422B DUP14 DUP4 DUP15 ADD PUSH2 0x40A5 JUMP JUMPDEST SWAP1 SWAP11 POP SWAP9 POP PUSH1 0x40 DUP13 ADD CALLDATALOAD SWAP2 POP DUP1 DUP3 GT ISZERO PUSH2 0x4244 JUMPI PUSH1 0x0 DUP1 REVERT JUMPDEST PUSH2 0x4250 DUP14 DUP4 DUP15 ADD PUSH2 0x40A5 JUMP JUMPDEST SWAP1 SWAP9 POP SWAP7 POP PUSH1 0x60 DUP13 ADD CALLDATALOAD SWAP6 POP PUSH1 0x80 DUP13 ADD CALLDATALOAD SWAP2 POP DUP1 DUP3 GT ISZERO PUSH2 0x4270 JUMPI PUSH1 0x0 DUP1 REVERT JUMPDEST POP PUSH2 0x427D DUP13 DUP3 DUP14 ADD PUSH2 0x40A5 JUMP JUMPDEST SWAP11 SWAP14 SWAP10 SWAP13 POP SWAP8 SWAP11 SWAP7 SWAP10 SWAP6 SWAP9 SWAP5 SWAP8 SWAP7 PUSH1 0xA0 ADD CALLDATALOAD SWAP5 SWAP4 POP POP POP POP JUMP JUMPDEST PUSH1 0x0 DUP1 PUSH1 0x0 DUP1 PUSH1 0x0 DUP1 PUSH1 0x60 DUP8 DUP10 SUB SLT ISZERO PUSH2 0x42B0 JUMPI PUSH1 0x0 DUP1 REVERT JUMPDEST DUP7 CALLDATALOAD PUSH8 0xFFFFFFFFFFFFFFFF DUP1 DUP3 GT ISZERO PUSH2 0x42C8 JUMPI PUSH1 0x0 DUP1 REVERT JUMPDEST PUSH2 0x42D4 DUP11 DUP4 DUP12 ADD PUSH2 0x40A5 JUMP JUMPDEST SWAP1 SWAP9 POP SWAP7 POP PUSH1 0x20 DUP10 ADD CALLDATALOAD SWAP2 POP DUP1 DUP3 GT ISZERO PUSH2 0x42ED JUMPI PUSH1 0x0 DUP1 REVERT JUMPDEST PUSH2 0x42F9 DUP11 DUP4 DUP12 ADD PUSH2 0x40A5 JUMP JUMPDEST SWAP1 SWAP7 POP SWAP5 POP PUSH1 0x40 DUP10 ADD CALLDATALOAD SWAP2 POP DUP1 DUP3 GT ISZERO PUSH2 0x4312 JUMPI PUSH1 0x0 DUP1 REVERT JUMPDEST POP PUSH2 0x431F DUP10 DUP3 DUP11 ADD PUSH2 0x40A5 JUMP JUMPDEST SWAP8 SWAP11 SWAP7 SWAP10 POP SWAP5 SWAP8 POP SWAP3 SWAP6 SWAP4 SWAP5 SWAP3 POP POP POP JUMP JUMPDEST PUSH1 0x0 DUP1 PUSH1 0x0 DUP1 PUSH1 0x0 DUP1 PUSH1 0x0 PUSH1 0x80 DUP9 DUP11 SUB SLT ISZERO PUSH2 0x434C JUMPI PUSH1 0x0 DUP1 REVERT JUMPDEST DUP8 CALLDATALOAD PUSH8 0xFFFFFFFFFFFFFFFF DUP1 DUP3 GT ISZERO PUSH2 0x4364 JUMPI PUSH1 0x0 DUP1 REVERT JUMPDEST PUSH2 0x4370 DUP12 DUP4 DUP13 ADD PUSH2 0x40A5 JUMP JUMPDEST SWAP1 SWAP10 POP SWAP8 POP PUSH1 0x20 DUP11 ADD CALLDATALOAD SWAP2 POP DUP1 DUP3 GT ISZERO PUSH2 0x4389 JUMPI PUSH1 0x0 DUP1 REVERT JUMPDEST PUSH2 0x4395 DUP12 DUP4 DUP13 ADD PUSH2 0x40A5 JUMP JUMPDEST SWAP1 SWAP8 POP SWAP6 POP PUSH1 0x40 DUP11 ADD CALLDATALOAD SWAP2 POP DUP1 DUP3 GT ISZERO PUSH2 0x43AE JUMPI PUSH1 0x0 DUP1 REVERT JUMPDEST POP PUSH2 0x43BB DUP11 DUP3 DUP12 ADD PUSH2 0x40A5 JUMP JUMPDEST SWAP9 SWAP12 SWAP8 SWAP11 POP SWAP6 SWAP9 SWAP5 SWAP8 SWAP6 SWAP7 PUSH1 0x60 SWAP1 SWAP6 ADD CALLDATALOAD SWAP5 SWAP4 POP POP POP POP JUMP JUMPDEST PUSH1 0x0 DUP1 PUSH1 0x0 DUP1 PUSH1 0x0 DUP1 PUSH1 0x80 DUP8 DUP10 SUB SLT ISZERO PUSH2 0x43ED JUMPI PUSH1 0x0 DUP1 REVERT JUMPDEST DUP7 CALLDATALOAD SWAP6 POP PUSH1 0x20 DUP8 ADD CALLDATALOAD PUSH8 0xFFFFFFFFFFFFFFFF DUP1 DUP3 GT ISZERO PUSH2 0x440C JUMPI PUSH1 0x0 DUP1 REVERT JUMPDEST PUSH2 0x4418 DUP11 DUP4 DUP12 ADD PUSH2 0x40A5 JUMP JUMPDEST SWAP1 SWAP8 POP SWAP6 POP PUSH1 0x40 DUP10 ADD CALLDATALOAD SWAP2 POP DUP1 DUP3 GT ISZERO PUSH2 0x4431 JUMPI PUSH1 0x0 DUP1 REVERT JUMPDEST POP PUSH2 0x443E DUP10 DUP3 DUP11 ADD PUSH2 0x40A5 JUMP JUMPDEST SWAP8 SWAP11 SWAP7 SWAP10 POP SWAP5 SWAP8 SWAP5 SWAP7 SWAP6 PUSH1 0x60 SWAP1 SWAP6 ADD CALLDATALOAD SWAP5 SWAP4 POP POP POP POP JUMP JUMPDEST PUSH32 0x4E487B7100000000000000000000000000000000000000000000000000000000 PUSH1 0x0 MSTORE PUSH1 0x41 PUSH1 0x4 MSTORE PUSH1 0x24 PUSH1 0x0 REVERT JUMPDEST PUSH1 0x40 MLOAD PUSH1 0x1F DUP3 ADD PUSH1 0x1F NOT AND DUP2 ADD PUSH8 0xFFFFFFFFFFFFFFFF DUP2 GT DUP3 DUP3 LT OR ISZERO PUSH2 0x44AE JUMPI PUSH2 0x44AE PUSH2 0x4456 JUMP JUMPDEST PUSH1 0x40 MSTORE SWAP2 SWAP1 POP JUMP JUMPDEST PUSH1 0x0 PUSH8 0xFFFFFFFFFFFFFFFF DUP3 GT ISZERO PUSH2 0x44D0 JUMPI PUSH2 0x44D0 PUSH2 0x4456 JUMP JUMPDEST POP PUSH1 0x1F ADD PUSH1 0x1F NOT AND PUSH1 0x20 ADD SWAP1 JUMP JUMPDEST PUSH1 0x0 DUP3 PUSH1 0x1F DUP4 ADD SLT PUSH2 0x44EF JUMPI PUSH1 0x0 DUP1 REVERT JUMPDEST DUP2 CALLDATALOAD PUSH2 0x4502 PUSH2 0x44FD DUP3 PUSH2 0x44B6 JUMP JUMPDEST PUSH2 0x4485 JUMP JUMPDEST DUP2 DUP2 MSTORE DUP5 PUSH1 0x20 DUP4 DUP7 ADD ADD GT ISZERO PUSH2 0x4517 JUMPI PUSH1 0x0 DUP1 REVERT JUMPDEST DUP2 PUSH1 0x20 DUP6 ADD PUSH1 0x20 DUP4 ADD CALLDATACOPY PUSH1 0x0 SWAP2 DUP2 ADD PUSH1 0x20 ADD SWAP2 SWAP1 SWAP2 MSTORE SWAP4 SWAP3 POP POP POP JUMP JUMPDEST PUSH1 0x0 PUSH1 0x20 DUP3 DUP5 SUB SLT ISZERO PUSH2 0x4546 JUMPI PUSH1 0x0 DUP1 REVERT JUMPDEST DUP2 CALLDATALOAD PUSH8 0xFFFFFFFFFFFFFFFF DUP2 GT ISZERO PUSH2 0x455D JUMPI PUSH1 0x0 DUP1 REVERT JUMPDEST PUSH2 0x2E66 DUP5 DUP3 DUP6 ADD PUSH2 0x44DE JUMP JUMPDEST PUSH1 0x0 JUMPDEST DUP4 DUP2 LT ISZERO PUSH2 0x4584 JUMPI DUP2 DUP2 ADD MLOAD DUP4 DUP3 ADD MSTORE PUSH1 0x20 ADD PUSH2 0x456C JUMP JUMPDEST DUP4 DUP2 GT ISZERO PUSH2 0x642 JUMPI POP POP PUSH1 0x0 SWAP2 ADD MSTORE JUMP JUMPDEST PUSH1 0x0 DUP2 MLOAD DUP1 DUP5 MSTORE PUSH2 0x45AD DUP2 PUSH1 0x20 DUP7 ADD PUSH1 0x20 DUP7 ADD PUSH2 0x4569 JUMP JUMPDEST PUSH1 0x1F ADD PUSH1 0x1F NOT AND SWAP3 SWAP1 SWAP3 ADD PUSH1 0x20 ADD SWAP3 SWAP2 POP POP JUMP JUMPDEST PUSH1 0x20 DUP2 MSTORE PUSH1 0x0 PUSH2 0x2A23 PUSH1 0x20 DUP4 ADD DUP5 PUSH2 0x4595 JUMP JUMPDEST PUSH1 0x1 PUSH1 0x1 PUSH1 0xA0 SHL SUB DUP2 AND DUP2 EQ PUSH2 0x33F1 JUMPI PUSH1 0x0 DUP1 REVERT JUMPDEST PUSH1 0x0 DUP1 PUSH1 0x0 DUP1 PUSH1 0x60 DUP6 DUP8 SUB SLT ISZERO PUSH2 0x45FF JUMPI PUSH1 0x0 DUP1 REVERT JUMPDEST DUP5 CALLDATALOAD PUSH2 0x460A DUP2 PUSH2 0x45D4 JUMP JUMPDEST SWAP4 POP PUSH1 0x20 DUP6 ADD CALLDATALOAD SWAP3 POP PUSH1 0x40 DUP6 ADD CALLDATALOAD PUSH8 0xFFFFFFFFFFFFFFFF DUP2 GT ISZERO PUSH2 0x462D JUMPI PUSH1 0x0 DUP1 REVERT JUMPDEST PUSH2 0x4639 DUP8 DUP3 DUP9 ADD PUSH2 0x40A5 JUMP JUMPDEST SWAP6 SWAP9 SWAP5 SWAP8 POP SWAP6 POP POP POP POP JUMP JUMPDEST PUSH1 0x0 DUP1 PUSH1 0x0 DUP1 PUSH1 0x0 DUP1 PUSH1 0x0 DUP1 PUSH1 0x0 PUSH1 0xA0 DUP11 DUP13 SUB SLT ISZERO PUSH2 0x4663 JUMPI PUSH1 0x0 DUP1 REVERT JUMPDEST DUP10 CALLDATALOAD PUSH8 0xFFFFFFFFFFFFFFFF DUP1 DUP3 GT ISZERO PUSH2 0x467B JUMPI PUSH1 0x0 DUP1 REVERT JUMPDEST PUSH2 0x4687 DUP14 DUP4 DUP15 ADD PUSH2 0x40A5 JUMP JUMPDEST SWAP1 SWAP12 POP SWAP10 POP PUSH1 0x20 DUP13 ADD CALLDATALOAD SWAP2 POP DUP1 DUP3 GT ISZERO PUSH2 0x46A0 JUMPI PUSH1 0x0 DUP1 REVERT JUMPDEST PUSH2 0x46AC DUP14 DUP4 DUP15 ADD PUSH2 0x40A5 JUMP JUMPDEST SWAP1 SWAP10 POP SWAP8 POP PUSH1 0x40 DUP13 ADD CALLDATALOAD SWAP2 POP DUP1 DUP3 GT ISZERO PUSH2 0x46C5 JUMPI PUSH1 0x0 DUP1 REVERT JUMPDEST PUSH2 0x46D1 DUP14 DUP4 DUP15 ADD PUSH2 0x40A5 JUMP JUMPDEST SWAP1 SWAP8 POP SWAP6 POP PUSH1 0x60 DUP13 ADD CALLDATALOAD SWAP2 POP DUP1 DUP3 GT ISZERO PUSH2 0x46EA JUMPI PUSH1 0x0 DUP1 REVERT JUMPDEST POP PUSH2 0x46F7 DUP13 DUP3 DUP14 ADD PUSH2 0x40A5 JUMP JUMPDEST SWAP11 SWAP14 SWAP10 SWAP13 POP SWAP8 SWAP11 SWAP7 SWAP10 SWAP6 SWAP9 SWAP5 SWAP8 SWAP7 PUSH1 0x80 ADD CALLDATALOAD SWAP5 SWAP4 POP POP POP POP JUMP JUMPDEST PUSH1 0x0 DUP1 PUSH1 0x0 DUP1 PUSH1 0x0 DUP1 PUSH1 0x0 DUP1 PUSH1 0x0 DUP1 PUSH1 0xE0 DUP12 DUP14 SUB SLT ISZERO PUSH2 0x4730 JUMPI PUSH1 0x0 DUP1 REVERT JUMPDEST DUP11 CALLDATALOAD SWAP10 POP PUSH1 0x20 DUP12 ADD CALLDATALOAD PUSH8 0xFFFFFFFFFFFFFFFF DUP1 DUP3 GT ISZERO PUSH2 0x474F JUMPI PUSH1 0x0 DUP1 REVERT JUMPDEST PUSH2 0x475B DUP15 DUP4 DUP16 ADD PUSH2 0x40A5 JUMP JUMPDEST SWAP1 SWAP12 POP SWAP10 POP PUSH1 0x40 DUP14 ADD CALLDATALOAD SWAP2 POP DUP1 DUP3 GT ISZERO PUSH2 0x4774 JUMPI PUSH1 0x0 DUP1 REVERT JUMPDEST PUSH2 0x4780 DUP15 DUP4 DUP16 ADD PUSH2 0x40A5 JUMP JUMPDEST SWAP1 SWAP10 POP SWAP8 POP PUSH1 0x60 DUP14 ADD CALLDATALOAD SWAP2 POP PUSH2 0x4795 DUP3 PUSH2 0x45D4 JUMP JUMPDEST SWAP1 SWAP6 POP PUSH1 0x80 DUP13 ADD CALLDATALOAD SWAP5 POP PUSH1 0xA0 DUP13 ADD CALLDATALOAD SWAP1 DUP1 DUP3 GT ISZERO PUSH2 0x47B2 JUMPI PUSH1 0x0 DUP1 REVERT JUMPDEST POP PUSH2 0x47BF DUP14 DUP3 DUP15 ADD PUSH2 0x40A5 JUMP JUMPDEST SWAP2 POP DUP1 SWAP5 POP POP DUP1 SWAP3 POP POP PUSH1 0xC0 DUP12 ADD CALLDATALOAD SWAP1 POP SWAP3 SWAP6 SWAP9 SWAP12 SWAP2 SWAP5 SWAP8 SWAP11 POP SWAP3 SWAP6 SWAP9 POP JUMP JUMPDEST PUSH1 0x0 DUP1 PUSH1 0x0 DUP1 PUSH1 0x0 DUP1 PUSH1 0x0 PUSH1 0xA0 DUP9 DUP11 SUB SLT ISZERO PUSH2 0x47FA JUMPI PUSH1 0x0 DUP1 REVERT JUMPDEST DUP8 CALLDATALOAD SWAP7 POP PUSH1 0x20 DUP9 ADD CALLDATALOAD PUSH8 0xFFFFFFFFFFFFFFFF DUP1 DUP3 GT ISZERO PUSH2 0x4819 JUMPI PUSH1 0x0 DUP1 REVERT JUMPDEST PUSH2 0x4825 DUP12 DUP4 DUP13 ADD PUSH2 0x40A5 JUMP JUMPDEST SWAP1 SWAP9 POP SWAP7 POP PUSH1 0x40 DUP11 ADD CALLDATALOAD SWAP2 POP DUP1 DUP3 GT ISZERO PUSH2 0x483E JUMPI PUSH1 0x0 DUP1 REVERT JUMPDEST POP PUSH2 0x484B DUP11 DUP3 DUP12 ADD PUSH2 0x40A5 JUMP JUMPDEST SWAP1 SWAP6 POP SWAP4 POP POP PUSH1 0x60 DUP9 ADD CALLDATALOAD PUSH2 0x485F DUP2 PUSH2 0x45D4 JUMP JUMPDEST DUP1 SWAP3 POP POP PUSH1 0x80 DUP9 ADD CALLDATALOAD SWAP1 POP SWAP3 SWAP6 SWAP9 SWAP2 SWAP5 SWAP8 POP SWAP3 SWAP6 POP JUMP JUMPDEST PUSH1 0x0 DUP1 PUSH1 0x40 DUP4 DUP6 SUB SLT ISZERO PUSH2 0x4889 JUMPI PUSH1 0x0 DUP1 REVERT JUMPDEST DUP3 CALLDATALOAD PUSH8 0xFFFFFFFFFFFFFFFF DUP1 DUP3 GT ISZERO PUSH2 0x48A1 JUMPI PUSH1 0x0 DUP1 REVERT JUMPDEST PUSH2 0x48AD DUP7 DUP4 DUP8 ADD PUSH2 0x44DE JUMP JUMPDEST SWAP4 POP PUSH1 0x20 DUP6 ADD CALLDATALOAD SWAP2 POP DUP1 DUP3 GT ISZERO PUSH2 0x48C3 JUMPI PUSH1 0x0 DUP1 REVERT JUMPDEST POP PUSH2 0x48D0 DUP6 DUP3 DUP7 ADD PUSH2 0x44DE JUMP JUMPDEST SWAP2 POP POP SWAP3 POP SWAP3 SWAP1 POP JUMP JUMPDEST DUP1 CALLDATALOAD PUSH2 0x48E5 DUP2 PUSH2 0x45D4 JUMP JUMPDEST SWAP2 SWAP1 POP JUMP JUMPDEST PUSH1 0x0 DUP1 PUSH1 0x0 PUSH1 0x60 DUP5 DUP7 SUB SLT ISZERO PUSH2 0x48FF JUMPI PUSH1 0x0 DUP1 REVERT JUMPDEST DUP4 CALLDATALOAD PUSH8 0xFFFFFFFFFFFFFFFF DUP2 GT ISZERO PUSH2 0x4916 JUMPI PUSH1 0x0 DUP1 REVERT JUMPDEST PUSH2 0x4922 DUP7 DUP3 DUP8 ADD PUSH2 0x44DE JUMP JUMPDEST SWAP4 POP POP PUSH1 0x20 DUP5 ADD CALLDATALOAD PUSH2 0x4933 DUP2 PUSH2 0x45D4 JUMP JUMPDEST SWAP3 SWAP6 SWAP3 SWAP5 POP POP POP PUSH1 0x40 SWAP2 SWAP1 SWAP2 ADD CALLDATALOAD SWAP1 JUMP JUMPDEST PUSH32 0x4E487B7100000000000000000000000000000000000000000000000000000000 PUSH1 0x0 MSTORE PUSH1 0x32 PUSH1 0x4 MSTORE PUSH1 0x24 PUSH1 0x0 REVERT JUMPDEST PUSH32 0x4E487B7100000000000000000000000000000000000000000000000000000000 PUSH1 0x0 MSTORE PUSH1 0x11 PUSH1 0x4 MSTORE PUSH1 0x24 PUSH1 0x0 REVERT JUMPDEST PUSH1 0x0 PUSH32 0xFFFFFFFFFFFFFFFFFFFFFFFFFFFFFFFFFFFFFFFFFFFFFFFFFFFFFFFFFFFFFFFF DUP3 EQ ISZERO PUSH2 0x49D4 JUMPI PUSH2 0x49D4 PUSH2 0x4973 JUMP JUMPDEST POP PUSH1 0x1 ADD SWAP1 JUMP JUMPDEST DUP2 DUP4 DUP3 CALLDATACOPY PUSH1 0x0 SWAP2 ADD SWAP1 DUP2 MSTORE SWAP2 SWAP1 POP JUMP JUMPDEST DUP2 DUP4 MSTORE DUP2 DUP2 PUSH1 0x20 DUP6 ADD CALLDATACOPY POP PUSH1 0x0 PUSH1 0x20 DUP3 DUP5 ADD ADD MSTORE PUSH1 0x0 PUSH1 0x20 PUSH1 0x1F NOT PUSH1 0x1F DUP5 ADD AND DUP5 ADD ADD SWAP1 POP SWAP3 SWAP2 POP POP JUMP JUMPDEST PUSH1 0x60 DUP2 MSTORE PUSH1 0x0 PUSH2 0x4A2A PUSH1 0x60 DUP4 ADD DUP9 DUP11 PUSH2 0x49EB JUMP JUMPDEST DUP3 DUP2 SUB PUSH1 0x20 DUP5 ADD MSTORE PUSH2 0x4A3D DUP2 DUP8 DUP10 PUSH2 0x49EB JUMP JUMPDEST SWAP1 POP DUP3 DUP2 SUB PUSH1 0x40 DUP5 ADD MSTORE PUSH2 0x4A52 DUP2 DUP6 DUP8 PUSH2 0x49EB JUMP JUMPDEST SWAP10 SWAP9 POP POP POP POP POP POP POP POP POP JUMP JUMPDEST PUSH1 0x80 DUP2 MSTORE PUSH1 0x0 PUSH2 0x4A73 PUSH1 0x80 DUP4 ADD DUP10 DUP12 PUSH2 0x49EB JUMP JUMPDEST DUP3 DUP2 SUB PUSH1 0x20 DUP5 ADD MSTORE PUSH2 0x4A86 DUP2 DUP9 DUP11 PUSH2 0x49EB JUMP JUMPDEST SWAP1 POP DUP3 DUP2 SUB PUSH1 0x40 DUP5 ADD MSTORE PUSH2 0x4A9B DUP2 DUP7 DUP9 PUSH2 0x49EB JUMP JUMPDEST SWAP2 POP POP DUP3 PUSH1 0x60 DUP4 ADD MSTORE SWAP9 SWAP8 POP POP POP POP POP POP POP POP JUMP JUMPDEST PUSH1 0x0 DUP3 NOT DUP3 GT ISZERO PUSH2 0x4AC3 JUMPI PUSH2 0x4AC3 PUSH2 0x4973 JUMP JUMPDEST POP ADD SWAP1 JUMP JUMPDEST PUSH1 0x20 DUP2 MSTORE PUSH1 0x0 PUSH2 0x2E66 PUSH1 0x20 DUP4 ADD DUP5 DUP7 PUSH2 0x49EB JUMP JUMPDEST PUSH1 0x0 DUP1 PUSH1 0x40 DUP4 DUP6 SUB SLT ISZERO PUSH2 0x4AEF JUMPI PUSH1 0x0 DUP1 REVERT JUMPDEST DUP3 CALLDATALOAD PUSH8 0xFFFFFFFFFFFFFFFF DUP2 GT ISZERO PUSH2 0x4B06 JUMPI PUSH1 0x0 DUP1 REVERT JUMPDEST PUSH2 0x4B12 DUP6 DUP3 DUP7 ADD PUSH2 0x44DE JUMP JUMPDEST SWAP6 PUSH1 0x20 SWAP5 SWAP1 SWAP5 ADD CALLDATALOAD SWAP5 POP POP POP POP JUMP JUMPDEST PUSH1 0x0 DUP1 PUSH1 0x0 DUP1 PUSH1 0x0 DUP1 PUSH1 0x0 DUP1 PUSH2 0x100 DUP10 DUP12 SUB SLT ISZERO PUSH2 0x4B3E JUMPI PUSH1 0x0 DUP1 REVERT JUMPDEST DUP9 CALLDATALOAD PUSH8 0xFFFFFFFFFFFFFFFF DUP1 DUP3 GT ISZERO PUSH2 0x4B56 JUMPI PUSH1 0x0 DUP1 REVERT JUMPDEST PUSH2 0x4B62 DUP13 DUP4 DUP14 ADD PUSH2 0x44DE JUMP JUMPDEST SWAP10 POP PUSH1 0x20 DUP12 ADD CALLDATALOAD SWAP2 POP DUP1 DUP3 GT ISZERO PUSH2 0x4B78 JUMPI PUSH1 0x0 DUP1 REVERT JUMPDEST PUSH2 0x4B84 DUP13 DUP4 DUP14 ADD PUSH2 0x44DE JUMP JUMPDEST SWAP9 POP PUSH2 0x4B92 PUSH1 0x40 DUP13 ADD PUSH2 0x48DA JUMP JUMPDEST SWAP8 POP PUSH1 0x60 DUP12 ADD CALLDATALOAD SWAP7 POP PUSH1 0x80 DUP12 ADD CALLDATALOAD SWAP2 POP DUP1 DUP3 GT ISZERO PUSH2 0x4BAF JUMPI PUSH1 0x0 DUP1 REVERT JUMPDEST POP PUSH2 0x4BBC DUP12 DUP3 DUP13 ADD PUSH2 0x44DE JUMP JUMPDEST SWAP9 SWAP12 SWAP8 SWAP11 POP SWAP6 SWAP9 SWAP5 SWAP8 SWAP7 PUSH1 0xA0 DUP7 ADD CALLDATALOAD SWAP7 POP PUSH1 0xC0 DUP7 ADD CALLDATALOAD SWAP6 PUSH1 0xE0 ADD CALLDATALOAD SWAP5 POP SWAP3 POP POP POP JUMP JUMPDEST PUSH1 0x0 PUSH1 0x20 DUP3 DUP5 SUB SLT ISZERO PUSH2 0x4BF1 JUMPI PUSH1 0x0 DUP1 REVERT JUMPDEST DUP2 CALLDATALOAD PUSH2 0x2A23 DUP2 PUSH2 0x45D4 JUMP JUMPDEST PUSH1 0x0 DUP1 PUSH1 0x0 DUP1 PUSH1 0x0 PUSH1 0xA0 DUP7 DUP9 SUB SLT ISZERO PUSH2 0x4C14 JUMPI PUSH1 0x0 DUP1 REVERT JUMPDEST DUP6 CALLDATALOAD PUSH8 0xFFFFFFFFFFFFFFFF DUP1 DUP3 GT ISZERO PUSH2 0x4C2C JUMPI PUSH1 0x0 DUP1 REVERT JUMPDEST PUSH2 0x4C38 DUP10 DUP4 DUP11 ADD PUSH2 0x44DE JUMP JUMPDEST SWAP7 POP PUSH1 0x20 DUP9 ADD CALLDATALOAD SWAP2 POP DUP1 DUP3 GT ISZERO PUSH2 0x4C4E JUMPI PUSH1 0x0 DUP1 REVERT JUMPDEST POP PUSH2 0x4C5B DUP9 DUP3 DUP10 ADD PUSH2 0x44DE JUMP JUMPDEST SWAP5 POP POP PUSH1 0x40 DUP7 ADD CALLDATALOAD PUSH1 0xFF DUP2 AND DUP2 EQ PUSH2 0x4C72 JUMPI PUSH1 0x0 DUP1 REVERT JUMPDEST SWAP3 POP PUSH1 0x60 DUP7 ADD CALLDATALOAD SWAP2 POP PUSH1 0x80 DUP7 ADD CALLDATALOAD PUSH2 0x4C89 DUP2 PUSH2 0x45D4 JUMP JUMPDEST DUP1 SWAP2 POP POP SWAP3 SWAP6 POP SWAP3 SWAP6 SWAP1 SWAP4 POP JUMP JUMPDEST PUSH1 0x1 DUP2 DUP2 SHR SWAP1 DUP3 AND DUP1 PUSH2 0x4CAB JUMPI PUSH1 0x7F DUP3 AND SWAP2 POP JUMPDEST PUSH1 0x20 DUP3 LT DUP2 EQ ISZERO PUSH2 0x4CE5 JUMPI PUSH32 0x4E487B7100000000000000000000000000000000000000000000000000000000 PUSH1 0x0 MSTORE PUSH1 0x22 PUSH1 0x4 MSTORE PUSH1 0x24 PUSH1 0x0 REVERT JUMPDEST POP SWAP2 SWAP1 POP JUMP JUMPDEST PUSH1 0x0 PUSH8 0xFFFFFFFFFFFFFFFF DUP3 GT ISZERO PUSH2 0x4D05 JUMPI PUSH2 0x4D05 PUSH2 0x4456 JUMP JUMPDEST POP PUSH1 0x5 SHL PUSH1 0x20 ADD SWAP1 JUMP JUMPDEST PUSH1 0x0 DUP1 PUSH1 0x0 DUP1 PUSH1 0x80 DUP6 DUP8 SUB SLT ISZERO PUSH2 0x4D25 JUMPI PUSH1 0x0 DUP1 REVERT JUMPDEST DUP5 CALLDATALOAD PUSH8 0xFFFFFFFFFFFFFFFF DUP2 GT ISZERO PUSH2 0x4D3C JUMPI PUSH1 0x0 DUP1 REVERT JUMPDEST DUP6 ADD PUSH1 0x1F DUP2 ADD DUP8 SGT PUSH2 0x4D4D JUMPI PUSH1 0x0 DUP1 REVERT JUMPDEST DUP1 CALLDATALOAD PUSH1 0x20 PUSH2 0x4D5D PUSH2 0x44FD DUP4 PUSH2 0x4CEB JUMP JUMPDEST DUP3 DUP2 MSTORE PUSH1 0x5 SWAP3 SWAP1 SWAP3 SHL DUP4 ADD DUP2 ADD SWAP2 DUP2 DUP2 ADD SWAP1 DUP11 DUP5 GT ISZERO PUSH2 0x4D7C JUMPI PUSH1 0x0 DUP1 REVERT JUMPDEST SWAP4 DUP3 ADD SWAP4 JUMPDEST DUP4 DUP6 LT ISZERO PUSH2 0x4DA3 JUMPI DUP5 CALLDATALOAD PUSH2 0x4D94 DUP2 PUSH2 0x45D4 JUMP JUMPDEST DUP3 MSTORE SWAP4 DUP3 ADD SWAP4 SWAP1 DUP3 ADD SWAP1 PUSH2 0x4D81 JUMP JUMPDEST SWAP8 POP POP DUP8 ADD CALLDATALOAD SWAP5 POP PUSH2 0x4DBA SWAP2 POP POP PUSH1 0x40 DUP7 ADD PUSH2 0x48DA JUMP JUMPDEST SWAP2 POP PUSH2 0x4DC8 PUSH1 0x60 DUP7 ADD PUSH2 0x48DA JUMP JUMPDEST SWAP1 POP SWAP3 SWAP6 SWAP2 SWAP5 POP SWAP3 POP JUMP JUMPDEST PUSH1 0x0 DUP3 MLOAD PUSH2 0x4DE5 DUP2 DUP5 PUSH1 0x20 DUP8 ADD PUSH2 0x4569 JUMP JUMPDEST SWAP2 SWAP1 SWAP2 ADD SWAP3 SWAP2 POP POP JUMP JUMPDEST PUSH1 0xA0 DUP2 MSTORE PUSH1 0x0 PUSH2 0x4E03 PUSH1 0xA0 DUP4 ADD DUP12 DUP14 PUSH2 0x49EB JUMP JUMPDEST DUP3 DUP2 SUB PUSH1 0x20 DUP5 ADD MSTORE PUSH2 0x4E16 DUP2 DUP11 DUP13 PUSH2 0x49EB JUMP JUMPDEST SWAP1 POP DUP3 DUP2 SUB PUSH1 0x40 DUP5 ADD MSTORE PUSH2 0x4E2B DUP2 DUP9 DUP11 PUSH2 0x49EB JUMP JUMPDEST SWAP1 POP DUP3 DUP2 SUB PUSH1 0x60 DUP5 ADD MSTORE PUSH2 0x4E40 DUP2 DUP7 DUP9 PUSH2 0x49EB JUMP JUMPDEST SWAP2 POP POP DUP3 PUSH1 0x80 DUP4 ADD MSTORE SWAP11 SWAP10 POP POP POP POP POP POP POP POP POP POP JUMP JUMPDEST PUSH1 0x0 DUP1 PUSH1 0x0 DUP1 PUSH1 0x0 DUP1 PUSH1 0xC0 DUP8 DUP10 SUB SLT ISZERO PUSH2 0x4E70 JUMPI PUSH1 0x0 DUP1 REVERT JUMPDEST DUP7 CALLDATALOAD PUSH8 0xFFFFFFFFFFFFFFFF DUP1 DUP3 GT ISZERO PUSH2 0x4E88 JUMPI PUSH1 0x0 DUP1 REVERT JUMPDEST PUSH2 0x4E94 DUP11 DUP4 DUP12 ADD PUSH2 0x44DE JUMP JUMPDEST SWAP8 POP PUSH1 0x20 DUP10 ADD CALLDATALOAD SWAP2 POP DUP1 DUP3 GT ISZERO PUSH2 0x4EAA JUMPI PUSH1 0x0 DUP1 REVERT JUMPDEST POP PUSH2 0x4EB7 DUP10 DUP3 DUP11 ADD PUSH2 0x44DE JUMP JUMPDEST SWAP6 POP POP PUSH1 0x40 DUP8 ADD CALLDATALOAD PUSH2 0x4EC8 DUP2 PUSH2 0x45D4 JUMP JUMPDEST SWAP6 SWAP9 SWAP5 SWAP8 POP SWAP5 SWAP6 PUSH1 0x60 DUP2 ADD CALLDATALOAD SWAP6 POP PUSH1 0x80 DUP2 ADD CALLDATALOAD SWAP5 PUSH1 0xA0 SWAP1 SWAP2 ADD CALLDATALOAD SWAP4 POP SWAP2 POP POP JUMP JUMPDEST PUSH1 0x0 PUSH2 0x4EF7 PUSH2 0x44FD DUP5 PUSH2 0x44B6 JUMP JUMPDEST SWAP1 POP DUP3 DUP2 MSTORE DUP4 DUP4 DUP4 ADD GT ISZERO PUSH2 0x4F0B JUMPI PUSH1 0x0 DUP1 REVERT JUMPDEST PUSH2 0x2A23 DUP4 PUSH1 0x20 DUP4 ADD DUP5 PUSH2 0x4569 JUMP JUMPDEST PUSH1 0x0 DUP3 PUSH1 0x1F DUP4 ADD SLT PUSH2 0x4F2A JUMPI PUSH1 0x0 DUP1 REVERT JUMPDEST DUP2 MLOAD PUSH1 0x20 PUSH2 0x4F3A PUSH2 0x44FD DUP4 PUSH2 0x4CEB JUMP JUMPDEST DUP3 DUP2 MSTORE PUSH1 0x5 SWAP3 SWAP1 SWAP3 SHL DUP5 ADD DUP2 ADD SWAP2 DUP2 DUP2 ADD SWAP1 DUP7 DUP5 GT ISZERO PUSH2 0x4F59 JUMPI PUSH1 0x0 DUP1 REVERT JUMPDEST DUP3 DUP7 ADD JUMPDEST DUP5 DUP2 LT ISZERO PUSH2 0xDE7 JUMPI DUP1 MLOAD PUSH8 0xFFFFFFFFFFFFFFFF DUP2 GT ISZERO PUSH2 0x4F7D JUMPI PUSH1 0x0 DUP1 DUP2 REVERT JUMPDEST DUP8 ADD PUSH1 0x3F DUP2 ADD DUP10 SGT PUSH2 0x4F8F JUMPI PUSH1 0x0 DUP1 DUP2 REVERT JUMPDEST PUSH2 0x4FA0 DUP10 DUP7 DUP4 ADD MLOAD PUSH1 0x40 DUP5 ADD PUSH2 0x4EE9 JUMP JUMPDEST DUP5 MSTORE POP SWAP2 DUP4 ADD SWAP2 DUP4 ADD PUSH2 0x4F5D JUMP JUMPDEST PUSH1 0x0 DUP3 PUSH1 0x1F DUP4 ADD SLT PUSH2 0x4FBF JUMPI PUSH1 0x0 DUP1 REVERT JUMPDEST PUSH2 0x2A23 DUP4 DUP4 MLOAD PUSH1 0x20 DUP6 ADD PUSH2 0x4EE9 JUMP JUMPDEST PUSH1 0x0 DUP3 PUSH1 0x1F DUP4 ADD SLT PUSH2 0x4FDF JUMPI PUSH1 0x0 DUP1 REVERT JUMPDEST DUP2 MLOAD PUSH1 0x20 PUSH2 0x4FEF PUSH2 0x44FD DUP4 PUSH2 0x4CEB JUMP JUMPDEST DUP3 DUP2 MSTORE PUSH1 0x5 SWAP3 SWAP1 SWAP3 SHL DUP5 ADD DUP2 ADD SWAP2 DUP2 DUP2 ADD SWAP1 DUP7 DUP5 GT ISZERO PUSH2 0x500E JUMPI PUSH1 0x0 DUP1 REVERT JUMPDEST DUP3 DUP7 ADD JUMPDEST DUP5 DUP2 LT ISZERO PUSH2 0xDE7 JUMPI DUP1 MLOAD PUSH8 0xFFFFFFFFFFFFFFFF DUP2 GT ISZERO PUSH2 0x5032 JUMPI PUSH1 0x0 DUP1 DUP2 REVERT JUMPDEST PUSH2 0x5040 DUP10 DUP7 DUP4 DUP12 ADD ADD PUSH2 0x4FAE JUMP JUMPDEST DUP5 MSTORE POP SWAP2 DUP4 ADD SWAP2 DUP4 ADD PUSH2 0x5012 JUMP JUMPDEST PUSH1 0x0 DUP1 PUSH1 0x0 DUP1 PUSH1 0x0 PUSH1 0xA0 DUP7 DUP9 SUB SLT ISZERO PUSH2 0x5066 JUMPI PUSH1 0x0 DUP1 REVERT JUMPDEST DUP6 MLOAD SWAP5 POP PUSH1 0x20 DUP1 DUP8 ADD MLOAD PUSH1 0x3 DUP2 LT PUSH2 0x507D JUMPI PUSH1 0x0 DUP1 REVERT JUMPDEST PUSH1 0x40 DUP9 ADD MLOAD SWAP1 SWAP6 POP PUSH8 0xFFFFFFFFFFFFFFFF DUP1 DUP3 GT ISZERO PUSH2 0x509B JUMPI PUSH1 0x0 DUP1 REVERT JUMPDEST DUP2 DUP10 ADD SWAP2 POP DUP10 PUSH1 0x1F DUP4 ADD SLT PUSH2 0x50AF JUMPI PUSH1 0x0 DUP1 REVERT JUMPDEST DUP2 MLOAD PUSH2 0x50BD PUSH2 0x44FD DUP3 PUSH2 0x4CEB JUMP JUMPDEST DUP2 DUP2 MSTORE PUSH1 0x5 SWAP2 SWAP1 SWAP2 SHL DUP4 ADD DUP5 ADD SWAP1 DUP5 DUP2 ADD SWAP1 DUP13 DUP4 GT ISZERO PUSH2 0x50DC JUMPI PUSH1 0x0 DUP1 REVERT JUMPDEST SWAP4 DUP6 ADD SWAP4 JUMPDEST DUP3 DUP6 LT ISZERO PUSH2 0x50FA JUMPI DUP5 MLOAD DUP3 MSTORE SWAP4 DUP6 ADD SWAP4 SWAP1 DUP6 ADD SWAP1 PUSH2 0x50E1 JUMP JUMPDEST PUSH1 0x60 DUP13 ADD MLOAD SWAP1 SWAP9 POP SWAP5 POP POP POP DUP1 DUP4 GT ISZERO PUSH2 0x5113 JUMPI PUSH1 0x0 DUP1 REVERT JUMPDEST PUSH2 0x511F DUP11 DUP5 DUP12 ADD PUSH2 0x4F19 JUMP JUMPDEST SWAP5 POP PUSH1 0x80 DUP10 ADD MLOAD SWAP3 POP DUP1 DUP4 GT ISZERO PUSH2 0x5135 JUMPI PUSH1 0x0 DUP1 REVERT JUMPDEST POP POP PUSH2 0x5143 DUP9 DUP3 DUP10 ADD PUSH2 0x4FCE JUMP JUMPDEST SWAP2 POP POP SWAP3 SWAP6 POP SWAP3 SWAP6 SWAP1 SWAP4 POP JUMP JUMPDEST PUSH32 0x4E487B7100000000000000000000000000000000000000000000000000000000 PUSH1 0x0 MSTORE PUSH1 0x21 PUSH1 0x4 MSTORE PUSH1 0x24 PUSH1 0x0 REVERT JUMPDEST PUSH1 0x40 DUP2 MSTORE PUSH1 0x0 PUSH2 0x5192 PUSH1 0x40 DUP4 ADD DUP6 PUSH2 0x4595 JUMP JUMPDEST SWAP1 POP DUP3 PUSH1 0x20 DUP4 ADD MSTORE SWAP4 SWAP3 POP POP POP JUMP JUMPDEST PUSH1 0x0 PUSH2 0x100 DUP11 DUP4 MSTORE DUP10 PUSH1 0x20 DUP5 ADD MSTORE DUP1 PUSH1 0x40 DUP5 ADD MSTORE PUSH2 0x51C1 DUP2 DUP5 ADD DUP11 PUSH2 0x4595 JUMP JUMPDEST SWAP1 POP DUP3 DUP2 SUB PUSH1 0x60 DUP5 ADD MSTORE PUSH2 0x51D5 DUP2 DUP10 PUSH2 0x4595 JUMP JUMPDEST SWAP1 POP PUSH1 0x1 PUSH1 0x1 PUSH1 0xA0 SHL SUB DUP8 AND PUSH1 0x80 DUP5 ADD MSTORE DUP6 PUSH1 0xA0 DUP5 ADD MSTORE DUP3 DUP2 SUB PUSH1 0xC0 DUP5 ADD MSTORE PUSH2 0x51FE DUP2 DUP7 PUSH2 0x4595 JUMP JUMPDEST SWAP2 POP POP DUP3 PUSH1 0xE0 DUP4 ADD MSTORE SWAP10 SWAP9 POP POP POP POP POP POP POP POP POP JUMP JUMPDEST PUSH1 0x0 PUSH1 0x20 DUP3 DUP5 SUB SLT ISZERO PUSH2 0x5226 JUMPI PUSH1 0x0 DUP1 REVERT JUMPDEST DUP2 MLOAD PUSH2 0x2A23 DUP2 PUSH2 0x45D4 JUMP JUMPDEST DUP3 DUP2 MSTORE PUSH1 0x0 DUP3 MLOAD PUSH2 0x5249 DUP2 PUSH1 0x20 DUP6 ADD PUSH1 0x20 DUP8 ADD PUSH2 0x4569 JUMP JUMPDEST SWAP2 SWAP1 SWAP2 ADD PUSH1 0x20 ADD SWAP4 SWAP3 POP POP POP JUMP JUMPDEST PUSH1 0x0 PUSH1 0x20 DUP3 DUP5 SUB SLT ISZERO PUSH2 0x5269 JUMPI PUSH1 0x0 DUP1 REVERT JUMPDEST POP MLOAD SWAP2 SWAP1 POP JUMP JUMPDEST PUSH1 0x1 PUSH1 0x1 PUSH1 0xA0 SHL SUB DUP4 AND DUP2 MSTORE PUSH1 0x40 PUSH1 0x20 DUP3 ADD MSTORE PUSH1 0x0 PUSH2 0x2E66 PUSH1 0x40 DUP4 ADD DUP5 PUSH2 0x4595 JUMP JUMPDEST DUP1 MLOAD DUP1 ISZERO ISZERO DUP2 EQ PUSH2 0x48E5 JUMPI PUSH1 0x0 DUP1 REVERT JUMPDEST PUSH1 0x0 DUP1 PUSH1 0x40 DUP4 DUP6 SUB SLT ISZERO PUSH2 0x52B5 JUMPI PUSH1 0x0 DUP1 REVERT JUMPDEST PUSH2 0x52BE DUP4 PUSH2 0x5292 JUMP JUMPDEST SWAP2 POP PUSH1 0x20 DUP4 ADD MLOAD PUSH8 0xFFFFFFFFFFFFFFFF DUP2 GT ISZERO PUSH2 0x52DA JUMPI PUSH1 0x0 DUP1 REVERT JUMPDEST PUSH2 0x48D0 DUP6 DUP3 DUP7 ADD PUSH2 0x4FAE JUMP JUMPDEST PUSH1 0x0 PUSH1 0x20 DUP3 DUP5 SUB SLT ISZERO PUSH2 0x52F8 JUMPI PUSH1 0x0 DUP1 REVERT JUMPDEST PUSH2 0x2A23 DUP3 PUSH2 0x5292 JUMP JUMPDEST PUSH1 0xC0 DUP2 MSTORE PUSH1 0x0 PUSH2 0x5314 PUSH1 0xC0 DUP4 ADD DUP10 PUSH2 0x4595 JUMP JUMPDEST DUP3 DUP2 SUB PUSH1 0x20 DUP5 ADD MSTORE PUSH2 0x5326 DUP2 DUP10 PUSH2 0x4595 JUMP JUMPDEST SWAP1 POP DUP3 DUP2 SUB PUSH1 0x40 DUP5 ADD MSTORE PUSH2 0x533A DUP2 DUP9 PUSH2 0x4595 JUMP JUMPDEST PUSH1 0x60 DUP5 ADD SWAP7 SWAP1 SWAP7 MSTORE POP POP PUSH1 0x80 DUP2 ADD SWAP3 SWAP1 SWAP3 MSTORE PUSH1 0xA0 SWAP1 SWAP2 ADD MSTORE SWAP4 SWAP3 POP POP POP JUMP JUMPDEST DUP7 DUP2 MSTORE DUP6 PUSH1 0x20 DUP3 ADD MSTORE PUSH1 0xC0 PUSH1 0x40 DUP3 ADD MSTORE PUSH1 0x0 PUSH2 0x5378 PUSH1 0xC0 DUP4 ADD DUP8 PUSH2 0x4595 JUMP JUMPDEST DUP3 DUP2 SUB PUSH1 0x60 DUP5 ADD MSTORE PUSH2 0x538A DUP2 DUP8 PUSH2 0x4595 JUMP JUMPDEST PUSH1 0x1 PUSH1 0x1 PUSH1 0xA0 SHL SUB SWAP6 SWAP1 SWAP6 AND PUSH1 0x80 DUP5 ADD MSTORE POP POP PUSH1 0xA0 ADD MSTORE SWAP5 SWAP4 POP POP POP POP JUMP JUMPDEST PUSH1 0xA0 DUP2 MSTORE PUSH1 0x0 PUSH2 0x53BC PUSH1 0xA0 DUP4 ADD DUP9 PUSH2 0x4595 JUMP JUMPDEST DUP3 DUP2 SUB PUSH1 0x20 DUP5 ADD MSTORE PUSH2 0x53CE DUP2 DUP9 PUSH2 0x4595 JUMP JUMPDEST PUSH1 0xFF SWAP7 SWAP1 SWAP7 AND PUSH1 0x40 DUP5 ADD MSTORE POP POP PUSH1 0x60 DUP2 ADD SWAP3 SWAP1 SWAP3 MSTORE PUSH1 0x80 SWAP1 SWAP2 ADD MSTORE SWAP3 SWAP2 POP POP JUMP JUMPDEST PUSH1 0x40 DUP2 MSTORE PUSH1 0x0 PUSH2 0x5402 PUSH1 0x40 DUP4 ADD DUP6 PUSH2 0x4595 JUMP JUMPDEST SWAP1 POP PUSH1 0x1 PUSH1 0x1 PUSH1 0xA0 SHL SUB DUP4 AND PUSH1 0x20 DUP4 ADD MSTORE SWAP4 SWAP3 POP POP POP JUMP JUMPDEST PUSH1 0x80 DUP2 MSTORE PUSH1 0x0 PUSH2 0x542D PUSH1 0x80 DUP4 ADD DUP8 PUSH2 0x4595 JUMP JUMPDEST DUP3 DUP2 SUB PUSH1 0x20 DUP5 ADD MSTORE PUSH2 0x543F DUP2 DUP8 PUSH2 0x4595 JUMP JUMPDEST PUSH1 0x40 DUP5 ADD SWAP6 SWAP1 SWAP6 MSTORE POP POP PUSH1 0x60 ADD MSTORE SWAP3 SWAP2 POP POP JUMP JUMPDEST PUSH1 0x0 DUP3 DUP3 LT ISZERO PUSH2 0x5465 JUMPI PUSH2 0x5465 PUSH2 0x4973 JUMP JUMPDEST POP SUB SWAP1 JUMP JUMPDEST PUSH1 0x0 DUP2 PUSH2 0x5479 JUMPI PUSH2 0x5479 PUSH2 0x4973 JUMP JUMPDEST POP PUSH32 0xFFFFFFFFFFFFFFFFFFFFFFFFFFFFFFFFFFFFFFFFFFFFFFFFFFFFFFFFFFFFFFFF ADD SWAP1 JUMP INVALID PUSH1 0x80 PUSH1 0x40 MSTORE PUSH1 0x1 PUSH1 0x0 SSTORE CALLVALUE DUP1 ISZERO PUSH2 0x15 JUMPI PUSH1 0x0 DUP1 REVERT JUMPDEST POP PUSH2 0x347 DUP1 PUSH2 0x25 PUSH1 0x0 CODECOPY PUSH1 0x0 RETURN INVALID PUSH1 0x80 PUSH1 0x40 MSTORE CALLVALUE DUP1 ISZERO PUSH2 0x10 JUMPI PUSH1 0x0 DUP1 REVERT JUMPDEST POP PUSH1 0x4 CALLDATASIZE LT PUSH2 0x35 JUMPI PUSH1 0x0 CALLDATALOAD PUSH1 0xE0 SHR DUP1 PUSH3 0xF55D9D EQ PUSH2 0x3A JUMPI DUP1 PUSH4 0x1CFF79CD EQ PUSH2 0x4F JUMPI JUMPDEST PUSH1 0x0 DUP1 REVERT JUMPDEST PUSH2 0x4D PUSH2 0x48 CALLDATASIZE PUSH1 0x4 PUSH2 0x1DF JUMP JUMPDEST PUSH2 0x79 JUMP JUMPDEST STOP JUMPDEST PUSH2 0x62 PUSH2 0x5D CALLDATASIZE PUSH1 0x4 PUSH2 0x201 JUMP JUMPDEST PUSH2 0xD4 JUMP JUMPDEST PUSH1 0x40 MLOAD PUSH2 0x70 SWAP3 SWAP2 SWAP1 PUSH2 0x284 JUMP JUMPDEST PUSH1 0x40 MLOAD DUP1 SWAP2 SUB SWAP1 RETURN JUMPDEST PUSH1 0x2 PUSH1 0x0 SLOAD EQ ISZERO PUSH2 0xB6 JUMPI PUSH1 0x40 MLOAD PUSH32 0xCAA30F5500000000000000000000000000000000000000000000000000000000 DUP2 MSTORE PUSH1 0x4 ADD PUSH1 0x40 MLOAD DUP1 SWAP2 SUB SWAP1 REVERT JUMPDEST PUSH1 0x2 PUSH1 0x0 SSTORE PUSH20 0xFFFFFFFFFFFFFFFFFFFFFFFFFFFFFFFFFFFFFFFF DUP2 AND SELFDESTRUCT JUMPDEST PUSH1 0x0 PUSH1 0x60 PUSH1 0x2 PUSH1 0x0 SLOAD EQ ISZERO PUSH2 0x115 JUMPI PUSH1 0x40 MLOAD PUSH32 0xCAA30F5500000000000000000000000000000000000000000000000000000000 DUP2 MSTORE PUSH1 0x4 ADD PUSH1 0x40 MLOAD DUP1 SWAP2 SUB SWAP1 REVERT JUMPDEST PUSH1 0x2 PUSH1 0x0 SSTORE PUSH20 0xFFFFFFFFFFFFFFFFFFFFFFFFFFFFFFFFFFFFFFFF DUP6 AND EXTCODESIZE ISZERO PUSH2 0x1A7 JUMPI DUP5 PUSH20 0xFFFFFFFFFFFFFFFFFFFFFFFFFFFFFFFFFFFFFFFF AND DUP5 DUP5 PUSH1 0x40 MLOAD PUSH2 0x15E SWAP3 SWAP2 SWAP1 PUSH2 0x301 JUMP JUMPDEST PUSH1 0x0 PUSH1 0x40 MLOAD DUP1 DUP4 SUB DUP2 PUSH1 0x0 DUP7 GAS CALL SWAP2 POP POP RETURNDATASIZE DUP1 PUSH1 0x0 DUP2 EQ PUSH2 0x19B JUMPI PUSH1 0x40 MLOAD SWAP2 POP PUSH1 0x1F NOT PUSH1 0x3F RETURNDATASIZE ADD AND DUP3 ADD PUSH1 0x40 MSTORE RETURNDATASIZE DUP3 MSTORE RETURNDATASIZE PUSH1 0x0 PUSH1 0x20 DUP5 ADD RETURNDATACOPY PUSH2 0x1A0 JUMP JUMPDEST PUSH1 0x60 SWAP2 POP JUMPDEST POP SWAP1 SWAP3 POP SWAP1 POP JUMPDEST PUSH1 0x1 PUSH1 0x0 SSTORE SWAP1 SWAP5 SWAP1 SWAP4 POP SWAP2 POP POP JUMP JUMPDEST DUP1 CALLDATALOAD PUSH20 0xFFFFFFFFFFFFFFFFFFFFFFFFFFFFFFFFFFFFFFFF DUP2 AND DUP2 EQ PUSH2 0x1DA JUMPI PUSH1 0x0 DUP1 REVERT JUMPDEST SWAP2 SWAP1 POP JUMP JUMPDEST PUSH1 0x0 PUSH1 0x20 DUP3 DUP5 SUB SLT ISZERO PUSH2 0x1F1 JUMPI PUSH1 0x0 DUP1 REVERT JUMPDEST PUSH2 0x1FA DUP3 PUSH2 0x1B6 JUMP JUMPDEST SWAP4 SWAP3 POP POP POP JUMP JUMPDEST PUSH1 0x0 DUP1 PUSH1 0x0 PUSH1 0x40 DUP5 DUP7 SUB SLT ISZERO PUSH2 0x216 JUMPI PUSH1 0x0 DUP1 REVERT JUMPDEST PUSH2 0x21F DUP5 PUSH2 0x1B6 JUMP JUMPDEST SWAP3 POP PUSH1 0x20 DUP5 ADD CALLDATALOAD PUSH8 0xFFFFFFFFFFFFFFFF DUP1 DUP3 GT ISZERO PUSH2 0x23C JUMPI PUSH1 0x0 DUP1 REVERT JUMPDEST DUP2 DUP7 ADD SWAP2 POP DUP7 PUSH1 0x1F DUP4 ADD SLT PUSH2 0x250 JUMPI PUSH1 0x0 DUP1 REVERT JUMPDEST DUP2 CALLDATALOAD DUP2 DUP2 GT ISZERO PUSH2 0x25F JUMPI PUSH1 0x0 DUP1 REVERT JUMPDEST DUP8 PUSH1 0x20 DUP3 DUP6 ADD ADD GT ISZERO PUSH2 0x271 JUMPI PUSH1 0x0 DUP1 REVERT JUMPDEST PUSH1 0x20 DUP4 ADD SWAP5 POP DUP1 SWAP4 POP POP POP POP SWAP3 POP SWAP3 POP SWAP3 JUMP JUMPDEST DUP3 ISZERO ISZERO DUP2 MSTORE PUSH1 0x0 PUSH1 0x20 PUSH1 0x40 DUP2 DUP5 ADD MSTORE DUP4 MLOAD DUP1 PUSH1 0x40 DUP6 ADD MSTORE PUSH1 0x0 JUMPDEST DUP2 DUP2 LT ISZERO PUSH2 0x2BA JUMPI DUP6 DUP2 ADD DUP4 ADD MLOAD DUP6 DUP3 ADD PUSH1 0x60 ADD MSTORE DUP3 ADD PUSH2 0x29E JUMP JUMPDEST DUP2 DUP2 GT ISZERO PUSH2 0x2CC JUMPI PUSH1 0x0 PUSH1 0x60 DUP4 DUP8 ADD ADD MSTORE JUMPDEST POP PUSH1 0x1F ADD PUSH32 0xFFFFFFFFFFFFFFFFFFFFFFFFFFFFFFFFFFFFFFFFFFFFFFFFFFFFFFFFFFFFFFE0 AND SWAP3 SWAP1 SWAP3 ADD PUSH1 0x60 ADD SWAP5 SWAP4 POP POP POP POP JUMP JUMPDEST DUP2 DUP4 DUP3 CALLDATACOPY PUSH1 0x0 SWAP2 ADD SWAP1 DUP2 MSTORE SWAP2 SWAP1 POP JUMP INVALID LOG2 PUSH5 0x6970667358 0x22 SLT KECCAK256 0x27 0xAC BASEFEE SELFBALANCE CALLER SWAP14 POP GAS MUL 0xC0 JUMP BYTE PUSH26 0x2AF22D5087E4B266D50E4B96AC925AD8D170E064736F6C634300 ADDMOD MULMOD STOP CALLER LOG2 PUSH5 0x6970667358 0x22 SLT KECCAK256 0xB3 0xE8 RETURN 0x26 0xFC GASPRICE 0xC6 0xBC 0xCE RETURN 0xB9 0xD2 0xC6 0x5F PUSH9 0xC9370D04508DE10B38 PUSH21 0x810F04B416A70F64736F6C63430008090033000000 "
    }
  }
}