{
  "_format": "hh-sol-artifact-1",
  "contractName": "AdminMultisigBase",
  "sourceName": "@axelar-network/axelar-cgp-solidity/contracts/AdminMultisigBase.sol",
  "abi": [
    {
      "inputs": [],
      "name": "AlreadyVoted",
      "type": "error"
    },
    {
      "inputs": [
        {
          "internalType": "address",
          "name": "admin",
          "type": "address"
        }
      ],
      "name": "DuplicateAdmin",
      "type": "error"
    },
    {
      "inputs": [],
      "name": "InvalidAdminThreshold",
      "type": "error"
    },
    {
      "inputs": [],
      "name": "InvalidAdmins",
      "type": "error"
    },
    {
      "inputs": [],
      "name": "NotAdmin",
      "type": "error"
    },
    {
      "inputs": [
        {
          "internalType": "bytes32",
          "name": "key",
          "type": "bytes32"
        }
      ],
      "name": "getAddress",
      "outputs": [
        {
          "internalType": "address",
          "name": "",
          "type": "address"
        }
      ],
      "stateMutability": "view",
      "type": "function"
    },
    {
      "inputs": [
        {
          "internalType": "bytes32",
          "name": "key",
          "type": "bytes32"
        }
      ],
      "name": "getBool",
      "outputs": [
        {
          "internalType": "bool",
          "name": "",
          "type": "bool"
        }
      ],
      "stateMutability": "view",
      "type": "function"
    },
    {
      "inputs": [
        {
          "internalType": "bytes32",
          "name": "key",
          "type": "bytes32"
        }
      ],
      "name": "getBytes",
      "outputs": [
        {
          "internalType": "bytes",
          "name": "",
          "type": "bytes"
        }
      ],
      "stateMutability": "view",
      "type": "function"
    },
    {
      "inputs": [
        {
          "internalType": "bytes32",
          "name": "key",
          "type": "bytes32"
        }
      ],
      "name": "getInt",
      "outputs": [
        {
          "internalType": "int256",
          "name": "",
          "type": "int256"
        }
      ],
      "stateMutability": "view",
      "type": "function"
    },
    {
      "inputs": [
        {
          "internalType": "bytes32",
          "name": "key",
          "type": "bytes32"
        }
      ],
      "name": "getString",
      "outputs": [
        {
          "internalType": "string",
          "name": "",
          "type": "string"
        }
      ],
      "stateMutability": "view",
      "type": "function"
    },
    {
      "inputs": [
        {
          "internalType": "bytes32",
          "name": "key",
          "type": "bytes32"
        }
      ],
      "name": "getUint",
      "outputs": [
        {
          "internalType": "uint256",
          "name": "",
          "type": "uint256"
        }
      ],
      "stateMutability": "view",
      "type": "function"
    }
  ],
  "bytecode": "0x608060405234801561001057600080fd5b50610354806100206000396000f3fe608060405234801561001057600080fd5b50600436106100725760003560e01c8063bd02d0f511610050578063bd02d0f51461012a578063c031a18014610158578063dc97d9621461016b57600080fd5b806321f8a721146100775780637ae1cfca146100d7578063986e791a1461010a575b600080fd5b6100ad61008536600461024a565b60009081526002602052604090205473ffffffffffffffffffffffffffffffffffffffff1690565b60405173ffffffffffffffffffffffffffffffffffffffff90911681526020015b60405180910390f35b6100fa6100e536600461024a565b60009081526004602052604090205460ff1690565b60405190151581526020016100ce565b61011d61011836600461024a565b61018b565b6040516100ce91906102b0565b61014a61013836600461024a565b60009081526020819052604090205490565b6040519081526020016100ce565b61011d61016636600461024a565b61022d565b61014a61017936600461024a565b60009081526005602052604090205490565b60008181526001602052604090208054606091906101a8906102ca565b80601f01602080910402602001604051908101604052809291908181526020018280546101d4906102ca565b80156102215780601f106101f657610100808354040283529160200191610221565b820191906000526020600020905b81548152906001019060200180831161020457829003601f168201915b50505050509050919050565b60008181526003602052604090208054606091906101a8906102ca565b60006020828403121561025c57600080fd5b5035919050565b6000815180845260005b818110156102895760208185018101518683018201520161026d565b8181111561029b576000602083870101525b50601f01601f19169290920160200192915050565b6020815260006102c36020830184610263565b9392505050565b600181811c908216806102de57607f821691505b60208210811415610318577f4e487b7100000000000000000000000000000000000000000000000000000000600052602260045260246000fd5b5091905056fea264697066735822122079a04c03ae3e3fa0a8f09379c086c011865216366177f8058ff79bd0d563d34764736f6c63430008090033",
  "linkReferences": {},
  "deployedLinkReferences": {}
}