{
  "_format": "hh-sol-artifact-1",
  "contractName": "AxelarGasServiceProxy",
  "sourceName": "@axelar-network/axelar-cgp-solidity/contracts/gas-service/AxelarGasServiceProxy.sol",
  "abi": [
    {
      "inputs": [
        {
          "internalType": "address",
          "name": "implementationAddress",
          "type": "address"
        },
        {
          "internalType": "bytes",
          "name": "params",
          "type": "bytes"
        }
      ],
      "stateMutability": "nonpayable",
      "type": "constructor"
    },
    {
      "inputs": [],
      "name": "EtherNotAccepted",
      "type": "error"
    },
    {
      "inputs": [],
      "name": "InvalidImplementation",
      "type": "error"
    },
    {
      "inputs": [],
      "name": "SetupFailed",
      "type": "error"
    },
    {
      "stateMutability": "payable",
      "type": "fallback"
    },
    {
      "inputs": [],
      "name": "implementation",
      "outputs": [
        {
          "internalType": "address",
          "name": "implementation_",
          "type": "address"
        }
      ],
      "stateMutability": "view",
      "type": "function"
    },
    {
      "inputs": [
        {
          "internalType": "bytes",
          "name": "data",
          "type": "bytes"
        }
      ],
      "name": "setup",
      "outputs": [],
      "stateMutability": "nonpayable",
      "type": "function"
    },
    {
      "stateMutability": "payable",
      "type": "receive"
    }
  ],
  "bytecode": "0x608060405234801561001057600080fd5b5060405161054e38038061054e83398101604081905261002f91610234565b8181817f360894a13ba1a3210667c828492db98dca3e2076cc3735a920a3ca505d382bbc55337f02016836a56b71f0d02689e69e326f4f4c1b9057164ef592671cf0d37c8040c0556000826001600160a01b0316639ded06df836040516024016100999190610302565b6040516020818303038152906040529060e01b6020820180516001600160e01b0383818316178352505050506040516100d29190610335565b600060405180830381855af49150503d806000811461010d576040519150601f19603f3d011682016040523d82523d6000602084013e610112565b606091505b5050905080610134576040516397905dfb60e01b815260040160405180910390fd5b5050507ffaa2f015f2ce5aee225904728de2def86eb8837491efd21f1a04fc20d8e923f6826001600160a01b0316638291286c6040518163ffffffff1660e01b815260040160206040518083038186803b15801561019157600080fd5b505afa1580156101a5573d6000803e3d6000fd5b505050506040513d601f19601f820116820180604052508101906101c99190610351565b146101e75760405163340aafcd60e11b815260040160405180910390fd5b505061036a565b634e487b7160e01b600052604160045260246000fd5b60005b8381101561021f578181015183820152602001610207565b8381111561022e576000848401525b50505050565b6000806040838503121561024757600080fd5b82516001600160a01b038116811461025e57600080fd5b60208401519092506001600160401b038082111561027b57600080fd5b818501915085601f83011261028f57600080fd5b8151818111156102a1576102a16101ee565b604051601f8201601f19908116603f011681019083821181831017156102c9576102c96101ee565b816040528281528860208487010111156102e257600080fd5b6102f3836020830160208801610204565b80955050505050509250929050565b6020815260008251806020840152610321816040850160208701610204565b601f01601f19169190910160400192915050565b60008251610347818460208701610204565b9190910192915050565b60006020828403121561036357600080fd5b5051919050565b6101d5806103796000396000f3fe60806040526004361061002d5760003560e01c80635c60da1b146100b45780639ded06df1461010c57610064565b36610064576040517f3733483400000000000000000000000000000000000000000000000000000000815260040160405180910390fd5b600061008e7f360894a13ba1a3210667c828492db98dca3e2076cc3735a920a3ca505d382bbc5490565b90503660008037600080366000845af43d6000803e8080156100af573d6000f35b3d6000fd5b3480156100c057600080fd5b507f360894a13ba1a3210667c828492db98dca3e2076cc3735a920a3ca505d382bbc5460405173ffffffffffffffffffffffffffffffffffffffff909116815260200160405180910390f35b34801561011857600080fd5b5061012b61012736600461012d565b5050565b005b6000806020838503121561014057600080fd5b823567ffffffffffffffff8082111561015857600080fd5b818501915085601f83011261016c57600080fd5b81358181111561017b57600080fd5b86602082850101111561018d57600080fd5b6020929092019691955090935050505056fea2646970667358221220facda001717d5fbfadf676f64c894d3384f01561c382842ff2efc0bbc1c224df64736f6c63430008090033",
  "linkReferences": {},
  "deployedLinkReferences": {}
}