{
  "_format": "hh-sol-artifact-1",
  "contractName": "AxelarGateway",
  "sourceName": "@axelar-network/axelar-cgp-solidity/contracts/AxelarGateway.sol",
  "abi": [
    {
      "inputs": [
        {
          "internalType": "address",
          "name": "authModule",
          "type": "address"
        },
        {
          "internalType": "address",
          "name": "tokenDeployerImplementation",
          "type": "address"
        }
      ],
      "stateMutability": "nonpayable",
      "type": "constructor"
    },
    {
      "inputs": [],
      "name": "AlreadyVoted",
      "type": "error"
    },
    {
      "inputs": [
        {
          "internalType": "string",
          "name": "symbol",
          "type": "string"
        }
      ],
      "name": "BurnFailed",
      "type": "error"
    },
    {
      "inputs": [
        {
          "internalType": "address",
          "name": "admin",
          "type": "address"
        }
      ],
      "name": "DuplicateAdmin",
      "type": "error"
    },
    {
      "inputs": [
        {
          "internalType": "string",
          "name": "symbol",
          "type": "string"
        }
      ],
      "name": "ExceedDailyMintLimit",
      "type": "error"
    },
    {
      "inputs": [],
      "name": "InvalidAdminThreshold",
      "type": "error"
    },
    {
      "inputs": [],
      "name": "InvalidAdmins",
      "type": "error"
    },
    {
      "inputs": [],
      "name": "InvalidAmount",
      "type": "error"
    },
    {
      "inputs": [],
      "name": "InvalidAuthModule",
      "type": "error"
    },
    {
      "inputs": [],
      "name": "InvalidChainId",
      "type": "error"
    },
    {
      "inputs": [],
      "name": "InvalidCodeHash",
      "type": "error"
    },
    {
      "inputs": [],
      "name": "InvalidCommands",
      "type": "error"
    },
    {
      "inputs": [],
      "name": "InvalidSetDailyMintLimitsParams",
      "type": "error"
    },
    {
      "inputs": [],
      "name": "InvalidTokenDeployer",
      "type": "error"
    },
    {
      "inputs": [
        {
          "internalType": "string",
          "name": "symbol",
          "type": "string"
        }
      ],
      "name": "MintFailed",
      "type": "error"
    },
    {
      "inputs": [],
      "name": "NotAdmin",
      "type": "error"
    },
    {
      "inputs": [],
      "name": "NotProxy",
      "type": "error"
    },
    {
      "inputs": [],
      "name": "NotSelf",
      "type": "error"
    },
    {
      "inputs": [],
      "name": "SetupFailed",
      "type": "error"
    },
    {
      "inputs": [
        {
          "internalType": "string",
          "name": "symbol",
          "type": "string"
        }
      ],
      "name": "TokenAlreadyExists",
      "type": "error"
    },
    {
      "inputs": [
        {
          "internalType": "address",
          "name": "token",
          "type": "address"
        }
      ],
      "name": "TokenContractDoesNotExist",
      "type": "error"
    },
    {
      "inputs": [
        {
          "internalType": "string",
          "name": "symbol",
          "type": "string"
        }
      ],
      "name": "TokenDeployFailed",
      "type": "error"
    },
    {
      "inputs": [
        {
          "internalType": "string",
          "name": "symbol",
          "type": "string"
        }
      ],
      "name": "TokenDoesNotExist",
      "type": "error"
    },
    {
      "anonymous": false,
      "inputs": [
        {
          "indexed": true,
          "internalType": "address",
          "name": "sender",
          "type": "address"
        },
        {
          "indexed": false,
          "internalType": "string",
          "name": "destinationChain",
          "type": "string"
        },
        {
          "indexed": false,
          "internalType": "string",
          "name": "destinationContractAddress",
          "type": "string"
        },
        {
          "indexed": true,
          "internalType": "bytes32",
          "name": "payloadHash",
          "type": "bytes32"
        },
        {
          "indexed": false,
          "internalType": "bytes",
          "name": "payload",
          "type": "bytes"
        }
      ],
      "name": "ContractCall",
      "type": "event"
    },
    {
      "anonymous": false,
      "inputs": [
        {
          "indexed": true,
          "internalType": "bytes32",
          "name": "commandId",
          "type": "bytes32"
        },
        {
          "indexed": false,
          "internalType": "string",
          "name": "sourceChain",
          "type": "string"
        },
        {
          "indexed": false,
          "internalType": "string",
          "name": "sourceAddress",
          "type": "string"
        },
        {
          "indexed": true,
          "internalType": "address",
          "name": "contractAddress",
          "type": "address"
        },
        {
          "indexed": true,
          "internalType": "bytes32",
          "name": "payloadHash",
          "type": "bytes32"
        },
        {
          "indexed": false,
          "internalType": "bytes32",
          "name": "sourceTxHash",
          "type": "bytes32"
        },
        {
          "indexed": false,
          "internalType": "uint256",
          "name": "sourceEventIndex",
          "type": "uint256"
        }
      ],
      "name": "ContractCallApproved",
      "type": "event"
    },
    {
      "anonymous": false,
      "inputs": [
        {
          "indexed": true,
          "internalType": "bytes32",
          "name": "commandId",
          "type": "bytes32"
        },
        {
          "indexed": false,
          "internalType": "string",
          "name": "sourceChain",
          "type": "string"
        },
        {
          "indexed": false,
          "internalType": "string",
          "name": "sourceAddress",
          "type": "string"
        },
        {
          "indexed": true,
          "internalType": "address",
          "name": "contractAddress",
          "type": "address"
        },
        {
          "indexed": true,
          "internalType": "bytes32",
          "name": "payloadHash",
          "type": "bytes32"
        },
        {
          "indexed": false,
          "internalType": "string",
          "name": "symbol",
          "type": "string"
        },
        {
          "indexed": false,
          "internalType": "uint256",
          "name": "amount",
          "type": "uint256"
        },
        {
          "indexed": false,
          "internalType": "bytes32",
          "name": "sourceTxHash",
          "type": "bytes32"
        },
        {
          "indexed": false,
          "internalType": "uint256",
          "name": "sourceEventIndex",
          "type": "uint256"
        }
      ],
      "name": "ContractCallApprovedWithMint",
      "type": "event"
    },
    {
      "anonymous": false,
      "inputs": [
        {
          "indexed": true,
          "internalType": "address",
          "name": "sender",
          "type": "address"
        },
        {
          "indexed": false,
          "internalType": "string",
          "name": "destinationChain",
          "type": "string"
        },
        {
          "indexed": false,
          "internalType": "string",
          "name": "destinationContractAddress",
          "type": "string"
        },
        {
          "indexed": true,
          "internalType": "bytes32",
          "name": "payloadHash",
          "type": "bytes32"
        },
        {
          "indexed": false,
          "internalType": "bytes",
          "name": "payload",
          "type": "bytes"
        },
        {
          "indexed": false,
          "internalType": "string",
          "name": "symbol",
          "type": "string"
        },
        {
          "indexed": false,
          "internalType": "uint256",
          "name": "amount",
          "type": "uint256"
        }
      ],
      "name": "ContractCallWithToken",
      "type": "event"
    },
    {
      "anonymous": false,
      "inputs": [
        {
          "indexed": true,
          "internalType": "bytes32",
          "name": "commandId",
          "type": "bytes32"
        }
      ],
      "name": "Executed",
      "type": "event"
    },
    {
      "anonymous": false,
      "inputs": [
        {
          "indexed": false,
          "internalType": "bytes",
          "name": "newOperatorsData",
          "type": "bytes"
        }
      ],
      "name": "OperatorshipTransferred",
      "type": "event"
    },
    {
      "anonymous": false,
      "inputs": [
        {
          "indexed": false,
          "internalType": "string",
          "name": "symbol",
          "type": "string"
        },
        {
          "indexed": false,
          "internalType": "uint256",
          "name": "limit",
          "type": "uint256"
        }
      ],
      "name": "TokenDailyMintLimitUpdated",
      "type": "event"
    },
    {
      "anonymous": false,
      "inputs": [
        {
          "indexed": false,
          "internalType": "string",
          "name": "symbol",
          "type": "string"
        },
        {
          "indexed": false,
          "internalType": "address",
          "name": "tokenAddresses",
          "type": "address"
        }
      ],
      "name": "TokenDeployed",
      "type": "event"
    },
    {
      "anonymous": false,
      "inputs": [
        {
          "indexed": true,
          "internalType": "address",
          "name": "sender",
          "type": "address"
        },
        {
          "indexed": false,
          "internalType": "string",
          "name": "destinationChain",
          "type": "string"
        },
        {
          "indexed": false,
          "internalType": "string",
          "name": "destinationAddress",
          "type": "string"
        },
        {
          "indexed": false,
          "internalType": "string",
          "name": "symbol",
          "type": "string"
        },
        {
          "indexed": false,
          "internalType": "uint256",
          "name": "amount",
          "type": "uint256"
        }
      ],
      "name": "TokenSent",
      "type": "event"
    },
    {
      "anonymous": false,
      "inputs": [
        {
          "indexed": true,
          "internalType": "address",
          "name": "implementation",
          "type": "address"
        }
      ],
      "name": "Upgraded",
      "type": "event"
    },
    {
      "inputs": [
        {
          "internalType": "bytes",
          "name": "executeData",
          "type": "bytes"
        }
      ],
      "name": "_unpackLegacyCommands",
      "outputs": [
        {
          "internalType": "uint256",
          "name": "chainId",
          "type": "uint256"
        },
        {
          "internalType": "bytes32[]",
          "name": "commandIds",
          "type": "bytes32[]"
        },
        {
          "internalType": "string[]",
          "name": "commands",
          "type": "string[]"
        },
        {
          "internalType": "bytes[]",
          "name": "params",
          "type": "bytes[]"
        }
      ],
      "stateMutability": "pure",
      "type": "function"
    },
    {
      "inputs": [],
      "name": "adminEpoch",
      "outputs": [
        {
          "internalType": "uint256",
          "name": "",
          "type": "uint256"
        }
      ],
      "stateMutability": "view",
      "type": "function"
    },
    {
      "inputs": [
        {
          "internalType": "uint256",
          "name": "epoch",
          "type": "uint256"
        }
      ],
      "name": "adminThreshold",
      "outputs": [
        {
          "internalType": "uint256",
          "name": "",
          "type": "uint256"
        }
      ],
      "stateMutability": "view",
      "type": "function"
    },
    {
      "inputs": [
        {
          "internalType": "uint256",
          "name": "epoch",
          "type": "uint256"
        }
      ],
      "name": "admins",
      "outputs": [
        {
          "internalType": "address[]",
          "name": "results",
          "type": "address[]"
        }
      ],
      "stateMutability": "view",
      "type": "function"
    },
    {
      "inputs": [],
      "name": "allTokensFrozen",
      "outputs": [
        {
          "internalType": "bool",
          "name": "",
          "type": "bool"
        }
      ],
      "stateMutability": "pure",
      "type": "function"
    },
    {
      "inputs": [
        {
          "internalType": "bytes",
          "name": "params",
          "type": "bytes"
        },
        {
          "internalType": "bytes32",
          "name": "commandId",
          "type": "bytes32"
        }
      ],
      "name": "approveContractCall",
      "outputs": [],
      "stateMutability": "nonpayable",
      "type": "function"
    },
    {
      "inputs": [
        {
          "internalType": "bytes",
          "name": "params",
          "type": "bytes"
        },
        {
          "internalType": "bytes32",
          "name": "commandId",
          "type": "bytes32"
        }
      ],
      "name": "approveContractCallWithMint",
      "outputs": [],
      "stateMutability": "nonpayable",
      "type": "function"
    },
    {
      "inputs": [
        {
          "internalType": "bytes",
          "name": "params",
          "type": "bytes"
        },
        {
          "internalType": "bytes32",
          "name": "",
          "type": "bytes32"
        }
      ],
      "name": "burnToken",
      "outputs": [],
      "stateMutability": "nonpayable",
      "type": "function"
    },
    {
      "inputs": [
        {
          "internalType": "string",
          "name": "destinationChain",
          "type": "string"
        },
        {
          "internalType": "string",
          "name": "destinationContractAddress",
          "type": "string"
        },
        {
          "internalType": "bytes",
          "name": "payload",
          "type": "bytes"
        }
      ],
      "name": "callContract",
      "outputs": [],
      "stateMutability": "nonpayable",
      "type": "function"
    },
    {
      "inputs": [
        {
          "internalType": "string",
          "name": "destinationChain",
          "type": "string"
        },
        {
          "internalType": "string",
          "name": "destinationContractAddress",
          "type": "string"
        },
        {
          "internalType": "bytes",
          "name": "payload",
          "type": "bytes"
        },
        {
          "internalType": "string",
          "name": "symbol",
          "type": "string"
        },
        {
          "internalType": "uint256",
          "name": "amount",
          "type": "uint256"
        }
      ],
      "name": "callContractWithToken",
      "outputs": [],
      "stateMutability": "nonpayable",
      "type": "function"
    },
    {
      "inputs": [
        {
          "internalType": "bytes",
          "name": "params",
          "type": "bytes"
        },
        {
          "internalType": "bytes32",
          "name": "",
          "type": "bytes32"
        }
      ],
      "name": "deployToken",
      "outputs": [],
      "stateMutability": "nonpayable",
      "type": "function"
    },
    {
      "inputs": [
        {
          "internalType": "bytes",
          "name": "input",
          "type": "bytes"
        }
      ],
      "name": "execute",
      "outputs": [],
      "stateMutability": "nonpayable",
      "type": "function"
    },
    {
      "inputs": [
        {
          "internalType": "bytes32",
          "name": "key",
          "type": "bytes32"
        }
      ],
      "name": "getAddress",
      "outputs": [
        {
          "internalType": "address",
          "name": "",
          "type": "address"
        }
      ],
      "stateMutability": "view",
      "type": "function"
    },
    {
      "inputs": [
        {
          "internalType": "bytes32",
          "name": "key",
          "type": "bytes32"
        }
      ],
      "name": "getBool",
      "outputs": [
        {
          "internalType": "bool",
          "name": "",
          "type": "bool"
        }
      ],
      "stateMutability": "view",
      "type": "function"
    },
    {
      "inputs": [
        {
          "internalType": "bytes32",
          "name": "key",
          "type": "bytes32"
        }
      ],
      "name": "getBytes",
      "outputs": [
        {
          "internalType": "bytes",
          "name": "",
          "type": "bytes"
        }
      ],
      "stateMutability": "view",
      "type": "function"
    },
    {
      "inputs": [
        {
          "internalType": "bytes32",
          "name": "key",
          "type": "bytes32"
        }
      ],
      "name": "getInt",
      "outputs": [
        {
          "internalType": "int256",
          "name": "",
          "type": "int256"
        }
      ],
      "stateMutability": "view",
      "type": "function"
    },
    {
      "inputs": [
        {
          "internalType": "bytes32",
          "name": "key",
          "type": "bytes32"
        }
      ],
      "name": "getString",
      "outputs": [
        {
          "internalType": "string",
          "name": "",
          "type": "string"
        }
      ],
      "stateMutability": "view",
      "type": "function"
    },
    {
      "inputs": [
        {
          "internalType": "bytes32",
          "name": "key",
          "type": "bytes32"
        }
      ],
      "name": "getUint",
      "outputs": [
        {
          "internalType": "uint256",
          "name": "",
          "type": "uint256"
        }
      ],
      "stateMutability": "view",
      "type": "function"
    },
    {
      "inputs": [],
      "name": "implementation",
      "outputs": [
        {
          "internalType": "address",
          "name": "",
          "type": "address"
        }
      ],
      "stateMutability": "view",
      "type": "function"
    },
    {
      "inputs": [
        {
          "internalType": "bytes32",
          "name": "commandId",
          "type": "bytes32"
        }
      ],
      "name": "isCommandExecuted",
      "outputs": [
        {
          "internalType": "bool",
          "name": "",
          "type": "bool"
        }
      ],
      "stateMutability": "view",
      "type": "function"
    },
    {
      "inputs": [
        {
          "internalType": "bytes32",
          "name": "commandId",
          "type": "bytes32"
        },
        {
          "internalType": "string",
          "name": "sourceChain",
          "type": "string"
        },
        {
          "internalType": "string",
          "name": "sourceAddress",
          "type": "string"
        },
        {
          "internalType": "address",
          "name": "contractAddress",
          "type": "address"
        },
        {
          "internalType": "bytes32",
          "name": "payloadHash",
          "type": "bytes32"
        },
        {
          "internalType": "string",
          "name": "symbol",
          "type": "string"
        },
        {
          "internalType": "uint256",
          "name": "amount",
          "type": "uint256"
        }
      ],
      "name": "isContractCallAndMintApproved",
      "outputs": [
        {
          "internalType": "bool",
          "name": "",
          "type": "bool"
        }
      ],
      "stateMutability": "view",
      "type": "function"
    },
    {
      "inputs": [
        {
          "internalType": "bytes32",
          "name": "commandId",
          "type": "bytes32"
        },
        {
          "internalType": "string",
          "name": "sourceChain",
          "type": "string"
        },
        {
          "internalType": "string",
          "name": "sourceAddress",
          "type": "string"
        },
        {
          "internalType": "address",
          "name": "contractAddress",
          "type": "address"
        },
        {
          "internalType": "bytes32",
          "name": "payloadHash",
          "type": "bytes32"
        }
      ],
      "name": "isContractCallApproved",
      "outputs": [
        {
          "internalType": "bool",
          "name": "",
          "type": "bool"
        }
      ],
      "stateMutability": "view",
      "type": "function"
    },
    {
      "inputs": [
        {
          "internalType": "bytes",
          "name": "params",
          "type": "bytes"
        },
        {
          "internalType": "bytes32",
          "name": "",
          "type": "bytes32"
        }
      ],
      "name": "mintToken",
      "outputs": [],
      "stateMutability": "nonpayable",
      "type": "function"
    },
    {
      "inputs": [
        {
          "internalType": "string",
          "name": "destinationChain",
          "type": "string"
        },
        {
          "internalType": "string",
          "name": "destinationAddress",
          "type": "string"
        },
        {
          "internalType": "string",
          "name": "symbol",
          "type": "string"
        },
        {
          "internalType": "uint256",
          "name": "amount",
          "type": "uint256"
        }
      ],
      "name": "sendToken",
      "outputs": [],
      "stateMutability": "nonpayable",
      "type": "function"
    },
    {
      "inputs": [
        {
          "internalType": "string[]",
          "name": "symbols",
          "type": "string[]"
        },
        {
          "internalType": "uint256[]",
          "name": "limits",
          "type": "uint256[]"
        }
      ],
      "name": "setTokenDailyMintLimits",
      "outputs": [],
      "stateMutability": "nonpayable",
      "type": "function"
    },
    {
      "inputs": [
        {
          "internalType": "bytes",
          "name": "params",
          "type": "bytes"
        }
      ],
      "name": "setup",
      "outputs": [],
      "stateMutability": "nonpayable",
      "type": "function"
    },
    {
      "inputs": [
        {
          "internalType": "string",
          "name": "symbol",
          "type": "string"
        }
      ],
      "name": "tokenAddresses",
      "outputs": [
        {
          "internalType": "address",
          "name": "",
          "type": "address"
        }
      ],
      "stateMutability": "view",
      "type": "function"
    },
    {
      "inputs": [
        {
          "internalType": "string",
          "name": "symbol",
          "type": "string"
        }
      ],
      "name": "tokenDailyMintAmount",
      "outputs": [
        {
          "internalType": "uint256",
          "name": "",
          "type": "uint256"
        }
      ],
      "stateMutability": "view",
      "type": "function"
    },
    {
      "inputs": [
        {
          "internalType": "string",
          "name": "symbol",
          "type": "string"
        }
      ],
      "name": "tokenDailyMintLimit",
      "outputs": [
        {
          "internalType": "uint256",
          "name": "",
          "type": "uint256"
        }
      ],
      "stateMutability": "view",
      "type": "function"
    },
    {
      "inputs": [
        {
          "internalType": "string",
          "name": "",
          "type": "string"
        }
      ],
      "name": "tokenFrozen",
      "outputs": [
        {
          "internalType": "bool",
          "name": "",
          "type": "bool"
        }
      ],
      "stateMutability": "pure",
      "type": "function"
    },
    {
      "inputs": [
        {
          "internalType": "bytes",
          "name": "newOperatorsData",
          "type": "bytes"
        },
        {
          "internalType": "bytes32",
          "name": "",
          "type": "bytes32"
        }
      ],
      "name": "transferOperatorship",
      "outputs": [],
      "stateMutability": "nonpayable",
      "type": "function"
    },
    {
      "inputs": [
        {
          "internalType": "address",
          "name": "newImplementation",
          "type": "address"
        },
        {
          "internalType": "bytes32",
          "name": "newImplementationCodeHash",
          "type": "bytes32"
        },
        {
          "internalType": "bytes",
          "name": "setupParams",
          "type": "bytes"
        }
      ],
      "name": "upgrade",
      "outputs": [],
      "stateMutability": "nonpayable",
      "type": "function"
    },
    {
      "inputs": [
        {
          "internalType": "bytes32",
          "name": "commandId",
          "type": "bytes32"
        },
        {
          "internalType": "string",
          "name": "sourceChain",
          "type": "string"
        },
        {
          "internalType": "string",
          "name": "sourceAddress",
          "type": "string"
        },
        {
          "internalType": "bytes32",
          "name": "payloadHash",
          "type": "bytes32"
        }
      ],
      "name": "validateContractCall",
      "outputs": [
        {
          "internalType": "bool",
          "name": "valid",
          "type": "bool"
        }
      ],
      "stateMutability": "nonpayable",
      "type": "function"
    },
    {
      "inputs": [
        {
          "internalType": "bytes32",
          "name": "commandId",
          "type": "bytes32"
        },
        {
          "internalType": "string",
          "name": "sourceChain",
          "type": "string"
        },
        {
          "internalType": "string",
          "name": "sourceAddress",
          "type": "string"
        },
        {
          "internalType": "bytes32",
          "name": "payloadHash",
          "type": "bytes32"
        },
        {
          "internalType": "string",
          "name": "symbol",
          "type": "string"
        },
        {
          "internalType": "uint256",
          "name": "amount",
          "type": "uint256"
        }
      ],
      "name": "validateContractCallAndMint",
      "outputs": [
        {
          "internalType": "bool",
          "name": "valid",
          "type": "bool"
        }
      ],
      "stateMutability": "nonpayable",
      "type": "function"
    }
  ],
  "bytecode": "0x60c06040523480156200001157600080fd5b5060405162004a1238038062004a128339810160408190526200003491620000bb565b6001600160a01b0382163b6200005d5760405163735326ab60e01b815260040160405180910390fd5b6001600160a01b0381163b6200008657604051630c84dabf60e31b815260040160405180910390fd5b6001600160a01b039182166080521660a052620000f3565b80516001600160a01b0381168114620000b657600080fd5b919050565b60008060408385031215620000cf57600080fd5b620000da836200009e565b9150620000ea602084016200009e565b90509250929050565b60805160a0516148eb62000127600039600061146e0152600081816105b70152818161169b015261197201526148eb6000f3fe608060405234801561001057600080fd5b50600436106102265760003560e01c806388b305871161012a578063bc00c216116100bd578063dc97d9621161008c578063f6a5f9f511610071578063f6a5f9f514610543578063f871f14e14610556578063fbe0a31b1461057957600080fd5b8063dc97d96214610510578063f6789c8c1461053057600080fd5b8063bc00c216146104b7578063bd02d0f5146104ca578063c031a180146104ea578063d26ff210146104fd57600080fd5b80639ded06df116100f95780639ded06df14610477578063a3499c731461048a578063aa1e1f0a1461049d578063b5417084146104a457600080fd5b806388b305871461041e578063935b13f61461043157806397b87ba614610444578063986e791a1461045757600080fd5b8063364940d8116101bd5780635dde81171161018c5780637ae1cfca116101715780637ae1cfca146103d45780637b1b769e146103f7578063886a625d1461040b57600080fd5b80635dde8117146103ae5780635f6970c3146103c157600080fd5b8063364940d8146103275780634656ae2e1461032f578063585a9fd4146103425780635c60da1b1461035557600080fd5b80631c92115f116101f95780631c92115f1461029f57806321f8a721146102b257806323275548146102f357806326ef699d1461031457600080fd5b806309c5eabe1461022b578063146e2d781461024057806314bfd6d0146102535780631876eed91461027c575b600080fd5b61023e610239366004612fdc565b61058c565b005b61023e61024e36600461301e565b610b2f565b61026661026136600461306a565b610b78565b6040516102739190613083565b60405180910390f35b61028f61028a3660046130d0565b610c22565b6040519015158152602001610273565b61023e6102ad366004613185565b610d56565b6102db6102c036600461306a565b6000908152600260205260409020546001600160a01b031690565b6040516001600160a01b039091168152602001610273565b6103066103013660046132e4565b610dc1565b604051908152602001610273565b61023e610322366004613319565b610de2565b610306610e7a565b61023e61033d36600461301e565b610ed2565b61023e61035036600461301e565b611226565b7f360894a13ba1a3210667c828492db98dca3e2076cc3735a920a3ca505d382bbc60005260026020527f11141f466c69fd409e1990e063b49cd6d61ed2ecff27a2e402e259ca6b9a01a3546001600160a01b03166102db565b6103066103bc3660046132e4565b6112d4565b61028f6103cf3660046133bc565b6112e2565b61028f6103e236600461306a565b60009081526004602052604090205460ff1690565b61028f6104053660046132e4565b50600090565b61023e61041936600461301e565b61139b565b61030661042c36600461306a565b61164b565b6102db61043f3660046132e4565b611656565b61023e61045236600461301e565b611664565b61046a61046536600461306a565b611742565b6040516102739190613496565b61023e610485366004612fdc565b6117e4565b61023e6104983660046134be565b611a18565b600061028f565b61023e6104b236600461351a565b611d4f565b61028f6104c53660046135e6565b611e05565b6103066104d836600461306a565b60009081526020819052604090205490565b61046a6104f836600461306a565b611ed8565b61028f61050b36600461306a565b611ef5565b61030661051e36600461306a565b60009081526005602052604090205490565b61023e61053e3660046136f9565b611f03565b61028f610551366004613759565b61216d565b6105696105643660046132e4565b6121f6565b6040516102739493929190613845565b61023e61058736600461301e565b612222565b60008061059b838501856138eb565b9150915060006105b183805190602001206122c2565b905060007f00000000000000000000000000000000000000000000000000000000000000006001600160a01b03166373e3d66a83856040518363ffffffff1660e01b815260040161060392919061394f565b602060405180830381600087803b15801561061d57600080fd5b505af1158015610631573d6000803e3d6000fd5b505050506040513d601f19601f82011682018060405250810190610655919061397d565b905060006060806060306001600160a01b031663f871f14e896040518263ffffffff1660e01b815260040161068a9190613496565b60006040518083038186803b1580156106a257600080fd5b505afa9250505080156106d757506040513d6000823e601f3d908101601f191682016040526106d49190810190613b7c565b60015b6106fe57878060200190518101906106ef9190613b7c565b92965090945092509050610709565b929650909450925090505b468414610742576040517f7a47c9a200000000000000000000000000000000000000000000000000000000815260040160405180910390fd5b8251825181141580610755575081518114155b1561078c576040517fca9a28f500000000000000000000000000000000000000000000000000000000815260040160405180910390fd5b60005b81811015610b215760008582815181106107ab576107ab613c0e565b602002602001015190506107be81611ef5565b156107c95750610b11565b6000808684815181106107de576107de613c0e565b60200260200101516040516020016107f69190613c24565b6040516020818303038152906040528051906020012090507f5763814b98a3aa86f212797af3273868b5dd6e2a532d764a79b98ca859e7bbad81141561085e577f886a625d000000000000000000000000000000000000000000000000000000009150610a03565b7fec78d9c22c08bb9f0ecd5d95571ae83e3f22219c5a9278c3270691d50abfd91b8114156108ae577f146e2d78000000000000000000000000000000000000000000000000000000009150610a03565b7f37ac16aabc4d87540e53151b2b716265cfd6b195db96a9daf8e893c829bbd2338114156108fe577ffbe0a31b000000000000000000000000000000000000000000000000000000009150610a03565b7ff41504255b911b3042ee4f8786fdf7cf4bcf24ace033fa16af3c8574e025e43681141561094e577f585a9fd4000000000000000000000000000000000000000000000000000000009150610a03565b7fda199c0e76f665e0450020791c7f8eacc75f3cdbace313272c28f93e5390b62c81141561099e577f4656ae2e000000000000000000000000000000000000000000000000000000009150610a03565b7fb460dcb6fd5797fc0e7ea0f13406c80d30702ba7f73a42bd91394775dcbca7188114156109fb57896109d357505050610b11565b7f97b87ba6000000000000000000000000000000000000000000000000000000009150610a03565b505050610b11565b610a0e836001612316565b6000306001600160a01b031683888781518110610a2d57610a2d613c0e565b602002602001015186604051602401610a47929190613c40565b60408051601f198184030181529181526020820180516001600160e01b03166001600160e01b0319909416939093179092529051610a859190613c24565b6000604051808303816000865af19150503d8060008114610ac2576040519150601f19603f3d011682016040523d82523d6000602084013e610ac7565b606091505b505090508015610b015760405184907fa74c8847d513feba22a0f0cb38d53081abf97562cdb293926ba243689e7c41ca90600090a2610b0c565b610b0c846000612316565b505050505b610b1a81613c78565b905061078f565b505050505050505050505050565b333014610b4f576040516314e1dbf760e11b815260040160405180910390fd5b60008080610b5f85870187613c9e565b925092509250610b70838383612342565b505050505050565b60606000610b85836124df565b90508067ffffffffffffffff811115610ba057610ba061321f565b604051908082528060200260200182016040528015610bc9578160200160208202803683370190505b50915060005b81811015610c1b57610be184826124ed565b838281518110610bf357610bf3613c0e565b6001600160a01b0390921660209283029190910190910152610c1481613c78565b9050610bcf565b5050919050565b600080610cd38b8b8b8080601f01602080910402602001604051908101604052809392919081815260200183838082843760009201919091525050604080516020601f8f018190048102820181019092528d815292508d91508c908190840183828082843760009201919091525050604080516020601f8d018190048102820181019092528b81523393508d9250908c908c90819084018382808284376000920191909152508c9250612503915050565b60008181526004602052604090205460ff16925090508115610d48576000818152600460205260409020805460ff19169055610d4885858080601f0160208091040260200160405190810160405280939291908181526020018383808284376000920191909152503392508791506123429050565b509998505050505050505050565b8181604051610d66929190613cf8565b6040518091039020336001600160a01b03167f30ae6cc78c27e651745bf2ad08a11de83910ac1e347a52f7ac898c0fbef94dae888888888888604051610db196959493929190613d31565b60405180910390a3505050505050565b6000610ddc6104d883610dd76201518042613d7a565b612567565b92915050565b610e243384848080601f0160208091040260200160405190810160405280939291908181526020018383808284376000920191909152508692506125bc915050565b336001600160a01b03167f651d93f66c4329630e8d0f62488eff599e3be484da587335e8dc0fcf4606272688888888888888604051610e699796959493929190613d9c565b60405180910390a250505050505050565b6000610ecd7fd51dc9b187568bb94760866e1d0d066ca470037d2d331afb1a02ec74bfb8990c60009081526020527ff8d0c05cd32e3272241fdc9d5839565f8bcf94139cb4bd09e230e1b57a60ddc25490565b905090565b333014610ef2576040516314e1dbf760e11b815260040160405180910390fd5b600080610f0184860186613ded565b915091506000610f1083611656565b90506001600160a01b038116610f44578260405163395d09bf60e11b8152600401610f3b9190613496565b60405180910390fd5b6002610f4f84612827565b6002811115610f6057610f60613e32565b14156111c357600082604051610f7590612f86565b8190604051809103906000f5905080158015610f95573d6000803e3d6000fd5b506040517f70a082310000000000000000000000000000000000000000000000000000000081526001600160a01b038083166004830181905292935060009283929091631cff79cd91879163a9059cbb60e01b9130918416906370a082319060240160206040518083038186803b15801561100f57600080fd5b505afa158015611023573d6000803e3d6000fd5b505050506040513d601f19601f820116820180604052508101906110479190613e48565b6040516001600160a01b039092166024830152604482015260640160408051601f198184030181529181526020820180516001600160e01b03166001600160e01b03199485161790525160e085901b90921682526110a89291600401613e61565b600060405180830381600087803b1580156110c257600080fd5b505af11580156110d6573d6000803e3d6000fd5b505050506040513d6000823e601f3d908101601f191682016040526110fe9190810190613e83565b9150915081158061112b575080511580159061112b575080806020019051810190611129919061397d565b155b1561114b578560405163e217b0ad60e01b8152600401610f3b9190613496565b6040517ef55d9d0000000000000000000000000000000000000000000000000000000081523060048201526001600160a01b0384169062f55d9d90602401600060405180830381600087803b1580156111a357600080fd5b505af11580156111b7573d6000803e3d6000fd5b50505050505050610b70565b6040516308a1eee160e01b8152600481018390526001600160a01b038216906308a1eee1906024015b600060405180830381600087803b15801561120657600080fd5b505af115801561121a573d6000803e3d6000fd5b50505050505050505050565b333014611246576040516314e1dbf760e11b815260040160405180910390fd5b60008080808080808061125b8a8c018c613ec7565b9750975097509750975097509750975061127a89898989898989612846565b84866001600160a01b03168a7f9991faa1f435675159ffae64b66d7ecfdb55c29755869a18db8497b4392347e08b8b898989896040516112bf96959493929190613f85565b60405180910390a45050505050505050505050565b6000610ddc6104d88361287c565b60008061135d8888888080601f01602080910402602001604051908101604052809392919081815260200183838082843760009201919091525050604080516020601f8c018190048102820181019092528a815292508a91508990819084018382808284376000920191909152503392508991506128b19050565b60008181526004602052604090205460ff16925090508115611390576000818152600460205260409020805460ff191690555b509695505050505050565b3330146113bb576040516314e1dbf760e11b815260040160405180910390fd5b600080808080806113ce888a018a613fdd565b95509550955095509550955060006001600160a01b03166113ee86611656565b6001600160a01b03161461143057846040517faa7e8b32000000000000000000000000000000000000000000000000000000008152600401610f3b9190613496565b6001600160a01b03821661159c576000856040516020016114519190613c24565b6040516020818303038152906040528051906020012090506000807f00000000000000000000000000000000000000000000000000000000000000006001600160a01b0316636fc95b3460e01b8a8a8a8a886040516024016114b7959493929190614080565b60408051601f198184030181529181526020820180516001600160e01b03166001600160e01b03199094169390931790925290516114f59190613c24565b600060405180830381855af49150503d8060008114611530576040519150601f19603f3d011682016040523d82523d6000602084013e611535565b606091505b50915091508161157357876040517f86d52743000000000000000000000000000000000000000000000000000000008152600401610f3b9190613496565b8080602001905181019061158791906140c6565b945061159488600161290f565b5050506115f3565b6001600160a01b0382163b6115e8576040517fc5ccddde0000000000000000000000000000000000000000000000000000000081526001600160a01b0383166004820152602401610f3b565b6115f385600261290f565b6115fd858361293f565b6116078582612981565b7fbf90b5a1ec9763e8bf4b9245cef0c28db92bab309fc2c5177f17814f3824693885836040516116389291906140e3565b60405180910390a1505050505050505050565b6000610ddc826129dd565b6000610ddc6102c0836129eb565b333014611684576040516314e1dbf760e11b815260040160405180910390fd5b60405163d289d1cb60e01b81526001600160a01b037f0000000000000000000000000000000000000000000000000000000000000000169063d289d1cb906116d2908690869060040161410e565b600060405180830381600087803b1580156116ec57600080fd5b505af1158015611700573d6000803e3d6000fd5b505050507f192e759e55f359cd9832b5c0c6e38e4b6df5c5ca33f3bd5c90738e865a521872838360405161173592919061410e565b60405180910390a1505050565b600081815260016020526040902080546060919061175f90614122565b80601f016020809104026020016040519081016040528092919081815260200182805461178b90614122565b80156117d85780601f106117ad576101008083540402835291602001916117d8565b820191906000526020600020905b8154815290600101906020018083116117bb57829003601f168201915b50505050509050919050565b60006118407f360894a13ba1a3210667c828492db98dca3e2076cc3735a920a3ca505d382bbc60005260026020527f11141f466c69fd409e1990e063b49cd6d61ed2ecff27a2e402e259ca6b9a01a3546001600160a01b031690565b6001600160a01b03161415611881576040517fbf10dd3a00000000000000000000000000000000000000000000000000000000815260040160405180910390fd5b600080806118918486018661415d565b925092509250600060016118ec7fd51dc9b187568bb94760866e1d0d066ca470037d2d331afb1a02ec74bfb8990c60009081526020527ff8d0c05cd32e3272241fdc9d5839565f8bcf94139cb4bd09e230e1b57a60ddc25490565b6118f69190614228565b9050611949817fd51dc9b187568bb94760866e1d0d066ca470037d2d331afb1a02ec74bfb8990c60009081526020527ff8d0c05cd32e3272241fdc9d5839565f8bcf94139cb4bd09e230e1b57a60ddc255565b611954818585612a23565b815115610b705760405163d289d1cb60e01b81526001600160a01b037f0000000000000000000000000000000000000000000000000000000000000000169063d289d1cb906119a7908590600401613496565b600060405180830381600087803b1580156119c157600080fd5b505af11580156119d5573d6000803e3d6000fd5b505050507f192e759e55f359cd9832b5c0c6e38e4b6df5c5ca33f3bd5c90738e865a52187282604051611a089190613496565b60405180910390a1505050505050565b6000611a6b7fd51dc9b187568bb94760866e1d0d066ca470037d2d331afb1a02ec74bfb8990c60009081526020527ff8d0c05cd32e3272241fdc9d5839565f8bcf94139cb4bd09e230e1b57a60ddc25490565b9050611a778133612b5c565b611a9457604051637bfa4b9f60e01b815260040160405180910390fd5b60008036604051611aa6929190613cf8565b60405180910390209050611abb828233612b6b565b15611ad957604051637c9a1cf960e01b815260040160405180910390fd5b611ae68282336001612be9565b60006001611af48484612c5c565b611afe9190614228565b9050611b0b838383612c6b565b611b14836129dd565b811015611b2357505050611d49565b866001600160a01b03163f8614611b66576040517f8f84fb2400000000000000000000000000000000000000000000000000000000815260040160405180910390fd5b6040516001600160a01b038816907fbc7cd75a20ee27fd9adebab32041f755214dbc6bffa90cc0225b39da2e5c2d3b90600090a28315611c82576000876001600160a01b0316639ded06df60e01b8787604051602401611bc792919061410e565b60408051601f198184030181529181526020820180516001600160e01b03166001600160e01b0319909416939093179092529051611c059190613c24565b600060405180830381855af49150503d8060008114611c40576040519150601f19603f3d011682016040523d82523d6000602084013e611c45565b606091505b5050905080611c80576040517f97905dfb00000000000000000000000000000000000000000000000000000000815260040160405180910390fd5b505b611cf9877f360894a13ba1a3210667c828492db98dca3e2076cc3735a920a3ca505d382bbc60005260026020527f11141f466c69fd409e1990e063b49cd6d61ed2ecff27a2e402e259ca6b9a01a3805473ffffffffffffffffffffffffffffffffffffffff19166001600160a01b03831617905550565b611d0583836000612c6b565b6000611d10846124df565b905060005b81811015611d4357611d338585611d2c88856124ed565b6000612be9565b611d3c81613c78565b9050611d15565b50505050505b50505050565b611d913384848080601f0160208091040260200160405190810160405280939291908181526020018383808284376000920191909152508692506125bc915050565b8484604051611da1929190613cf8565b6040518091039020336001600160a01b03167f7e50569d26be643bda7757722291ec66b1be66d8283474ae3fab5a98f878a7a28b8b8b8b8b8b8b8b8b604051611df299989796959493929190614240565b60405180910390a3505050505050505050565b6000611ec96103e28c8c8c8080601f016020809104026020016040519081016040528093929190818152602001838380828437600081840152601f19601f820116905080830192505050505050508b8b8080601f01602080910402602001604051908101604052809392919081815260200183838082843760009201919091525050604080516020601f8d018190048102820181019092528b81528e93508d9250908c908c90819084018382808284376000920191909152508c9250612503915050565b9b9a5050505050505050505050565b600081815260036020526040902080546060919061175f90614122565b6000610ddc6103e283612c7d565b6000611f567fd51dc9b187568bb94760866e1d0d066ca470037d2d331afb1a02ec74bfb8990c60009081526020527ff8d0c05cd32e3272241fdc9d5839565f8bcf94139cb4bd09e230e1b57a60ddc25490565b9050611f628133612b5c565b611f7f57604051637bfa4b9f60e01b815260040160405180910390fd5b60008036604051611f91929190613cf8565b60405180910390209050611fa6828233612b6b565b15611fc457604051637c9a1cf960e01b815260040160405180910390fd5b611fd18282336001612be9565b60006001611fdf8484612c5c565b611fe99190614228565b9050611ff6838383612c6b565b611fff836129dd565b81101561200e57505050611d49565b858414612047576040517f1508613d00000000000000000000000000000000000000000000000000000000815260040160405180910390fd5b60005b8681101561212957600088888381811061206657612066613c0e565b905060200281019061207891906142a8565b8080601f01602080910402602001604051908101604052809392919081815260200183838082843760009201829052509394508a92508991508590508181106120c3576120c3613c0e565b90506020020135905060006001600160a01b03166120e083611656565b6001600160a01b0316141561210a578160405163395d09bf60e11b8152600401610f3b9190613496565b6121148282612981565b5050808061212190613c78565b91505061204a565b5061213683836000612c6b565b6000612141846124df565b905060005b81811015611d435761215d8585611d2c88856124ed565b61216681613c78565b9050612146565b60006121ea6103e28989898080601f01602080910402602001604051908101604052809392919081815260200183838082843760009201919091525050604080516020601f8d018190048102820181019092528b815292508b91508a90819084018382808284376000920191909152508a92508991506128b19050565b98975050505050505050565b600060608060608480602001905181019061221191906142ef565b939991985096509194509092505050565b333014612242576040516314e1dbf760e11b815260040160405180910390fd5b60008080808080612255888a018a61438b565b95509550955095509550955061226e8787878787612cb8565b82846001600160a01b0316887f44e4f8f6bd682c5a3aeba93601ab07cb4d1f21b2aab1ae4880d9577919309aa4898987876040516122af949392919061441d565b60405180910390a4505050505050505050565b6040517f19457468657265756d205369676e6564204d6573736167653a0a3332000000006020820152603c8101829052600090605c015b604051602081830303815290604052805190602001209050919050565b61233e61232283612c7d565b6000908152600460205260409020805460ff1916831515179055565b5050565b600061234d84611656565b90506001600160a01b038116612378578360405163395d09bf60e11b8152600401610f3b9190613496565b612395848361238687610dc1565b6123909190614228565b612cc8565b60026123a085612827565b60028111156123b1576123b1613e32565b141561245e576040516001600160a01b03841660248201526044810183905260009061241d90839063a9059cbb60e01b906064015b60408051601f198184030181529190526020810180516001600160e01b03166001600160e01b031990931692909217909152612d44565b90508061245857846040517f90c52ed7000000000000000000000000000000000000000000000000000000008152600401610f3b9190613496565b50611d49565b6040517f40c10f190000000000000000000000000000000000000000000000000000000081526001600160a01b038481166004830152602482018490528216906340c10f1990604401600060405180830381600087803b1580156124c157600080fd5b505af11580156124d5573d6000803e3d6000fd5b5050505050505050565b6000610ddc6104d883612dd6565b60006124fc6102c08484612e11565b9392505050565b60007fb7ad972b71475860613db3ba1fe699b886c878f9002a09250dc25e769eb19a1088888888888888604051602001612544989796959493929190614456565b604051602081830303815290604052805190602001209050979650505050505050565b60007f4281768ab7480ddcf054116642fb644388166407fc26c4e8e435dd259143cfd2838360405160200161259e939291906144c9565b60405160208183030381529060405280519060200120905092915050565b60006125c783611656565b90506001600160a01b0381166125f2578260405163395d09bf60e11b8152600401610f3b9190613496565b81612629576040517f2c5211c600000000000000000000000000000000000000000000000000000000815260040160405180910390fd5b600061263484612827565b90506000600282600281111561264c5761264c613e32565b14156126aa576040516001600160a01b0387166024820152306044820152606481018590526126889084906323b872dd60e01b906084016123e6565b905080610b70578460405163e217b0ad60e01b8152600401610f3b9190613496565b60018260028111156126be576126be613e32565b141561270d576040516001600160a01b0387166024820152604481018590526126889084907f79cc679000000000000000000000000000000000000000000000000000000000906064016123e6565b6040517f31eecaf4000000000000000000000000000000000000000000000000000000008152600060048201526127d89084906323b872dd60e01b9089906001600160a01b038416906331eecaf49060240160206040518083038186803b15801561277757600080fd5b505afa15801561278b573d6000803e3d6000fd5b505050506040513d601f19601f820116820180604052508101906127af91906140c6565b6040516001600160a01b03928316602482015291166044820152606481018890526084016123e6565b9050806127fa578460405163e217b0ad60e01b8152600401610f3b9190613496565b6040516308a1eee160e01b8152600060048201526001600160a01b038416906308a1eee1906024016111ec565b60006128356104d883612e53565b6002811115610ddc57610ddc613e32565b61287361285888888888888888612503565b6000908152600460205260409020805460ff19166001179055565b50505050505050565b60007f385b0fbf06aae812803f7f3a3a975b7e1dce19f50fb39baf3f341e2849e5ce06826040516020016122f99291906144f6565b60007f07b0d4304f82012bd3b70b1d531c160e326067c90829e2a3d386722ad10b89c386868686866040516020016128ee9695949392919061451c565b60405160208183030381529060405280519060200120905095945050505050565b61233e61291b83612e53565b82600281111561292d5761292d613e32565b60009182526020829052604090912055565b61233e61294b836129eb565b6000908152600260205260409020805473ffffffffffffffffffffffffffffffffffffffff19166001600160a01b038416179055565b6129a061298d8361287c565b8260009182526020829052604090912055565b7fa34df38babdcfb4aa60ad9eda9583df1bcd3dbd7d4687c89d35c3ec4f4331be982826040516129d1929190613c40565b60405180910390a15050565b6000610ddc6104d883612e88565b60007fc4e632779a6a7838736dd7e5e6a0eadf171dd37dfb6230720e265576dfcf42bb826040516020016122f99291906144f6565b50565b815181811015612a465760405163f1965a0760e01b815260040160405180910390fd5b81612a7d576040517f1845300d00000000000000000000000000000000000000000000000000000000815260040160405180910390fd5b612a878483612ec3565b612a918482612ecf565b60005b81811015612b55576000848281518110612ab057612ab0613c0e565b60200260200101519050612ac48682612b5c565b15612b06576040517f424926de0000000000000000000000000000000000000000000000000000000081526001600160a01b0382166004820152602401610f3b565b6001600160a01b038116612b2d5760405163f1965a0760e01b815260040160405180910390fd5b612b38868383612edb565b612b4486826001612ee8565b50612b4e81613c78565b9050612a94565b5050505050565b60006124fc6103e28484612ef1565b604080517f3ced7a8caf1111e0fbf4b784c5b41aebd0f2389d9f2f64d5c3424aeed3adbd3c602080830191909152818301869052606080830186905284901b6bffffffffffffffffffffffff191660808301528251808303607401815260949092019092528051910120600090612be1906103e2565b949350505050565b604080517f3ced7a8caf1111e0fbf4b784c5b41aebd0f2389d9f2f64d5c3424aeed3adbd3c602080830191909152818301879052606080830187905285901b6bffffffffffffffffffffffff191660808301528251808303607401815260949092019092528051910120611d4990612322565b60006124fc6104d88484612f44565b612c7861298d8484612f44565b505050565b604080517f957705a374326b30f4a1069c936d736cc9993ed6c820b4e0e2fd94a8beca0d1d60208201529081018290526000906060016122f9565b612b5561285886868686866128b1565b6000612cd3836112d4565b9050600081118015612ce457508082115b15612d1d57826040517f78202795000000000000000000000000000000000000000000000000000000008152600401610f3b9190613496565b612c78612d3184610dd76201518042613d7a565b8360009182526020829052604090912055565b6000806000846001600160a01b031684604051612d619190613c24565b6000604051808303816000865af19150503d8060008114612d9e576040519150601f19603f3d011682016040523d82523d6000602084013e612da3565b606091505b5091509150818015612dcd575080511580612dcd575080806020019051810190612dcd919061397d565b95945050505050565b604080517f05112ef894367de1270cfae12afcd2285c225830eb8f74e7e938f721bb510cba60208201529081018290526000906060016122f9565b604080517ff23ec0bb4210edd5cba85afd05127efcd2fc6a781bfed49188da1081670b22d860208201529081018390526060810182905260009060800161259e565b60007fa80d2259af55890618ec2eeb3ac72de4bdba22529bb14845d8a3d712d1c3f621826040516020016122f99291906144f6565b604080517f79bd914addd90bd67ad800bf0230bb85ffdef5aeba5fd8249f116d3f17f4fb4b60208201529081018290526000906060016122f9565b61233e61298d83612e88565b61233e61298d83612dd6565b612c7861294b8484612e11565b612c7861232284845b604080517f63fa879cb478fddf1de08d49e29115fb768866711bc799ff9ab419a7f16c9afb6020820152908101839052606082811b6bffffffffffffffffffffffff19169082015260009060740161259e565b604080517fbaea1c6c0f16a0a340b10a9e980806696a68ddbb5e8361fd64630dd21abf515f60208201529081018390526060810182905260009060800161259e565b6103498061456d83390190565b60008083601f840112612fa557600080fd5b50813567ffffffffffffffff811115612fbd57600080fd5b602083019150836020828501011115612fd557600080fd5b9250929050565b60008060208385031215612fef57600080fd5b823567ffffffffffffffff81111561300657600080fd5b61301285828601612f93565b90969095509350505050565b60008060006040848603121561303357600080fd5b833567ffffffffffffffff81111561304a57600080fd5b61305686828701612f93565b909790965060209590950135949350505050565b60006020828403121561307c57600080fd5b5035919050565b6020808252825182820181905260009190848201906040850190845b818110156130c45783516001600160a01b03168352928401929184019160010161309f565b50909695505050505050565b600080600080600080600080600060c08a8c0312156130ee57600080fd5b8935985060208a013567ffffffffffffffff8082111561310d57600080fd5b6131198d838e01612f93565b909a50985060408c013591508082111561313257600080fd5b61313e8d838e01612f93565b909850965060608c0135955060808c013591508082111561315e57600080fd5b5061316b8c828d01612f93565b9a9d999c50979a9699959894979660a00135949350505050565b6000806000806000806060878903121561319e57600080fd5b863567ffffffffffffffff808211156131b657600080fd5b6131c28a838b01612f93565b909850965060208901359150808211156131db57600080fd5b6131e78a838b01612f93565b9096509450604089013591508082111561320057600080fd5b5061320d89828a01612f93565b979a9699509497509295939492505050565b634e487b7160e01b600052604160045260246000fd5b604051601f8201601f1916810167ffffffffffffffff8111828210171561325e5761325e61321f565b604052919050565b600067ffffffffffffffff8211156132805761328061321f565b50601f01601f191660200190565b600082601f83011261329f57600080fd5b81356132b26132ad82613266565b613235565b8181528460208386010111156132c757600080fd5b816020850160208301376000918101602001919091529392505050565b6000602082840312156132f657600080fd5b813567ffffffffffffffff81111561330d57600080fd5b612be18482850161328e565b60008060008060008060006080888a03121561333457600080fd5b873567ffffffffffffffff8082111561334c57600080fd5b6133588b838c01612f93565b909950975060208a013591508082111561337157600080fd5b61337d8b838c01612f93565b909750955060408a013591508082111561339657600080fd5b506133a38a828b01612f93565b989b979a50959894979596606090950135949350505050565b600080600080600080608087890312156133d557600080fd5b86359550602087013567ffffffffffffffff808211156133f457600080fd5b6134008a838b01612f93565b9097509550604089013591508082111561341957600080fd5b5061342689828a01612f93565b979a9699509497949695606090950135949350505050565b60005b83811015613459578181015183820152602001613441565b83811115611d495750506000910152565b6000815180845261348281602086016020860161343e565b601f01601f19169290920160200192915050565b6020815260006124fc602083018461346a565b6001600160a01b0381168114612a2057600080fd5b600080600080606085870312156134d457600080fd5b84356134df816134a9565b935060208501359250604085013567ffffffffffffffff81111561350257600080fd5b61350e87828801612f93565b95989497509550505050565b600080600080600080600080600060a08a8c03121561353857600080fd5b893567ffffffffffffffff8082111561355057600080fd5b61355c8d838e01612f93565b909b50995060208c013591508082111561357557600080fd5b6135818d838e01612f93565b909950975060408c013591508082111561359a57600080fd5b6135a68d838e01612f93565b909750955060608c01359150808211156135bf57600080fd5b506135cc8c828d01612f93565b9a9d999c50979a9699959894979660800135949350505050565b60008060008060008060008060008060e08b8d03121561360557600080fd5b8a35995060208b013567ffffffffffffffff8082111561362457600080fd5b6136308e838f01612f93565b909b50995060408d013591508082111561364957600080fd5b6136558e838f01612f93565b909950975060608d0135915061366a826134a9565b90955060808c0135945060a08c0135908082111561368757600080fd5b506136948d828e01612f93565b9150809450508092505060c08b013590509295989b9194979a5092959850565b60008083601f8401126136c657600080fd5b50813567ffffffffffffffff8111156136de57600080fd5b6020830191508360208260051b8501011115612fd557600080fd5b6000806000806040858703121561370f57600080fd5b843567ffffffffffffffff8082111561372757600080fd5b613733888389016136b4565b9096509450602087013591508082111561374c57600080fd5b5061350e878288016136b4565b600080600080600080600060a0888a03121561377457600080fd5b87359650602088013567ffffffffffffffff8082111561379357600080fd5b61379f8b838c01612f93565b909850965060408a01359150808211156137b857600080fd5b506137c58a828b01612f93565b90955093505060608801356137d9816134a9565b809250506080880135905092959891949750929550565b600081518084526020808501808196508360051b8101915082860160005b8581101561383857828403895261382684835161346a565b9885019893509084019060010161380e565b5091979650505050505050565b600060808201868352602060808185015281875180845260a086019150828901935060005b818110156138865784518352938301939183019160010161386a565b5050848103604086015286518082528282019350600581901b8201830183890160005b838110156138d757601f198584030187526138c583835161346a565b968601969250908501906001016138a9565b50508681036060880152611ec981896137f0565b600080604083850312156138fe57600080fd5b823567ffffffffffffffff8082111561391657600080fd5b6139228683870161328e565b9350602085013591508082111561393857600080fd5b506139458582860161328e565b9150509250929050565b828152604060208201526000612be1604083018461346a565b8051801515811461397857600080fd5b919050565b60006020828403121561398f57600080fd5b6124fc82613968565b600067ffffffffffffffff8211156139b2576139b261321f565b5060051b60200190565b600082601f8301126139cd57600080fd5b815160206139dd6132ad83613998565b82815260059290921b840181019181810190868411156139fc57600080fd5b8286015b848110156113905780518352918301918301613a00565b6000613a256132ad84613266565b9050828152838383011115613a3957600080fd5b6124fc83602083018461343e565b600082601f830112613a5857600080fd5b81516020613a686132ad83613998565b82815260059290921b84018101918181019086841115613a8757600080fd5b8286015b8481101561139057805167ffffffffffffffff811115613aab5760008081fd5b8701603f81018913613abd5760008081fd5b613ace898683015160408401613a17565b845250918301918301613a8b565b600082601f830112613aed57600080fd5b6124fc83835160208501613a17565b600082601f830112613b0d57600080fd5b81516020613b1d6132ad83613998565b82815260059290921b84018101918181019086841115613b3c57600080fd5b8286015b8481101561139057805167ffffffffffffffff811115613b605760008081fd5b613b6e8986838b0101613adc565b845250918301918301613b40565b60008060008060808587031215613b9257600080fd5b84519350602085015167ffffffffffffffff80821115613bb157600080fd5b613bbd888389016139bc565b94506040870151915080821115613bd357600080fd5b613bdf88838901613a47565b93506060870151915080821115613bf557600080fd5b50613c0287828801613afc565b91505092959194509250565b634e487b7160e01b600052603260045260246000fd5b60008251613c3681846020870161343e565b9190910192915050565b604081526000613c53604083018561346a565b90508260208301529392505050565b634e487b7160e01b600052601160045260246000fd5b6000600019821415613c8c57613c8c613c62565b5060010190565b8035613978816134a9565b600080600060608486031215613cb357600080fd5b833567ffffffffffffffff811115613cca57600080fd5b613cd68682870161328e565b9350506020840135613ce7816134a9565b929592945050506040919091013590565b8183823760009101908152919050565b81835281816020850137506000828201602090810191909152601f909101601f19169091010190565b606081526000613d4560608301888a613d08565b8281036020840152613d58818789613d08565b90508281036040840152613d6d818587613d08565b9998505050505050505050565b600082613d9757634e487b7160e01b600052601260045260246000fd5b500490565b608081526000613db060808301898b613d08565b8281036020840152613dc381888a613d08565b90508281036040840152613dd8818688613d08565b91505082606083015298975050505050505050565b60008060408385031215613e0057600080fd5b823567ffffffffffffffff811115613e1757600080fd5b613e238582860161328e565b95602094909401359450505050565b634e487b7160e01b600052602160045260246000fd5b600060208284031215613e5a57600080fd5b5051919050565b6001600160a01b0383168152604060208201526000612be1604083018461346a565b60008060408385031215613e9657600080fd5b613e9f83613968565b9150602083015167ffffffffffffffff811115613ebb57600080fd5b61394585828601613adc565b600080600080600080600080610100898b031215613ee457600080fd5b883567ffffffffffffffff80821115613efc57600080fd5b613f088c838d0161328e565b995060208b0135915080821115613f1e57600080fd5b613f2a8c838d0161328e565b9850613f3860408c01613c93565b975060608b0135965060808b0135915080821115613f5557600080fd5b50613f628b828c0161328e565b989b979a50959894979660a0860135965060c08601359560e00135945092505050565b60c081526000613f9860c083018961346a565b8281036020840152613faa818961346a565b90508281036040840152613fbe818861346a565b60608401969096525050608081019290925260a0909101529392505050565b60008060008060008060c08789031215613ff657600080fd5b863567ffffffffffffffff8082111561400e57600080fd5b61401a8a838b0161328e565b9750602089013591508082111561403057600080fd5b5061403d89828a0161328e565b955050604087013560ff8116811461405457600080fd5b935060608701359250608087013561406b816134a9565b8092505060a087013590509295509295509295565b60a08152600061409360a083018861346a565b82810360208401526140a5818861346a565b60ff9690961660408401525050606081019290925260809091015292915050565b6000602082840312156140d857600080fd5b81516124fc816134a9565b6040815260006140f6604083018561346a565b90506001600160a01b03831660208301529392505050565b602081526000612be1602083018486613d08565b600181811c9082168061413657607f821691505b6020821081141561415757634e487b7160e01b600052602260045260246000fd5b50919050565b60008060006060848603121561417257600080fd5b833567ffffffffffffffff8082111561418a57600080fd5b818601915086601f83011261419e57600080fd5b813560206141ae6132ad83613998565b82815260059290921b8401810191818101908a8411156141cd57600080fd5b948201945b838610156141f45785356141e5816134a9565b825294820194908201906141d2565b975050870135945050604086013591508082111561421157600080fd5b5061421e8682870161328e565b9150509250925092565b6000821982111561423b5761423b613c62565b500190565b60a08152600061425460a083018b8d613d08565b8281036020840152614267818a8c613d08565b9050828103604084015261427c81888a613d08565b90508281036060840152614291818688613d08565b9150508260808301529a9950505050505050505050565b6000808335601e198436030181126142bf57600080fd5b83018035915067ffffffffffffffff8211156142da57600080fd5b602001915036819003821315612fd557600080fd5b600080600080600060a0868803121561430757600080fd5b8551945060208601519350604086015167ffffffffffffffff8082111561432d57600080fd5b61433989838a016139bc565b9450606088015191508082111561434f57600080fd5b61435b89838a01613a47565b9350608088015191508082111561437157600080fd5b5061437e88828901613afc565b9150509295509295909350565b60008060008060008060c087890312156143a457600080fd5b863567ffffffffffffffff808211156143bc57600080fd5b6143c88a838b0161328e565b975060208901359150808211156143de57600080fd5b506143eb89828a0161328e565b95505060408701356143fc816134a9565b959894975094956060810135955060808101359460a0909101359350915050565b608081526000614430608083018761346a565b8281036020840152614442818761346a565b604084019590955250506060015292915050565b60006101008a83528960208401528060408401526144768184018a61346a565b9050828103606084015261448a818961346a565b90506001600160a01b03871660808401528560a084015282810360c08401526144b3818661346a565b9150508260e08301529998505050505050505050565b838152600083516144e181602085016020880161343e565b60209201918201929092526040019392505050565b8281526000825161450e81602085016020870161343e565b919091016020019392505050565b86815285602082015260c06040820152600061453b60c083018761346a565b828103606084015261454d818761346a565b6001600160a01b03959095166080840152505060a0015294935050505056fe6080604052600160005534801561001557600080fd5b50610324806100256000396000f3fe608060405234801561001057600080fd5b50600436106100355760003560e01c8062f55d9d1461003a5780631cff79cd1461004f575b600080fd5b61004d6100483660046101da565b610079565b005b61006261005d3660046101fc565b6100bb565b60405161007092919061027f565b60405180910390f35b6002600054141561009d5760405163caa30f5560e01b815260040160405180910390fd5b600260005573ffffffffffffffffffffffffffffffffffffffff8116ff5b60006060600260005414156100e35760405163caa30f5560e01b815260040160405180910390fd5b600260005573ffffffffffffffffffffffffffffffffffffffff85163b610136576040517f6f7c43f100000000000000000000000000000000000000000000000000000000815260040160405180910390fd5b8473ffffffffffffffffffffffffffffffffffffffff16848460405161015d9291906102de565b6000604051808303816000865af19150503d806000811461019a576040519150601f19603f3d011682016040523d82523d6000602084013e61019f565b606091505b50600160005590969095509350505050565b803573ffffffffffffffffffffffffffffffffffffffff811681146101d557600080fd5b919050565b6000602082840312156101ec57600080fd5b6101f5826101b1565b9392505050565b60008060006040848603121561021157600080fd5b61021a846101b1565b9250602084013567ffffffffffffffff8082111561023757600080fd5b818601915086601f83011261024b57600080fd5b81358181111561025a57600080fd5b87602082850101111561026c57600080fd5b6020830194508093505050509250925092565b821515815260006020604081840152835180604085015260005b818110156102b557858101830151858201606001528201610299565b818111156102c7576000606083870101525b50601f01601f191692909201606001949350505050565b818382376000910190815291905056fea2646970667358221220dfb702492c35c6a884ac11997b483e3fee4ff8145c7abb0799d2a2fc8674c39364736f6c63430008090033a26469706673582212208ccf7d53804e5299ae34cb40b83392c107813b7a4ebce02cc0a10d4ed07fdafe64736f6c63430008090033",
  "linkReferences": {},
  "deployedLinkReferences": {}
}