{
  "_format": "hh-sol-artifact-1",
  "contractName": "Proxy",
  "sourceName": "@axelar-network/axelar-cgp-solidity/contracts/util/Proxy.sol",
  "abi": [
    {
      "inputs": [],
      "stateMutability": "nonpayable",
      "type": "constructor"
    },
    {
      "inputs": [],
      "name": "AlreadyInitialized",
      "type": "error"
    },
    {
      "inputs": [],
      "name": "EtherNotAccepted",
      "type": "error"
    },
    {
      "inputs": [],
      "name": "InvalidImplementation",
      "type": "error"
    },
    {
      "inputs": [],
      "name": "NotOwner",
      "type": "error"
    },
    {
      "inputs": [],
      "name": "SetupFailed",
      "type": "error"
    },
    {
      "stateMutability": "payable",
      "type": "fallback"
    },
    {
      "inputs": [],
      "name": "implementation",
      "outputs": [
        {
          "internalType": "address",
          "name": "implementation_",
          "type": "address"
        }
      ],
      "stateMutability": "view",
      "type": "function"
    },
    {
      "inputs": [
        {
          "internalType": "address",
          "name": "implementationAddress",
          "type": "address"
        },
        {
          "internalType": "address",
          "name": "newOwner",
          "type": "address"
        },
        {
          "internalType": "bytes",
          "name": "params",
          "type": "bytes"
        }
      ],
      "name": "init",
      "outputs": [],
      "stateMutability": "nonpayable",
      "type": "function"
    },
    {
      "inputs": [
        {
          "internalType": "bytes",
          "name": "data",
          "type": "bytes"
        }
      ],
      "name": "setup",
      "outputs": [],
      "stateMutability": "nonpayable",
      "type": "function"
    },
    {
      "stateMutability": "payable",
      "type": "receive"
    }
  ],
  "bytecode": "0x608060405234801561001057600080fd5b50337f02016836a56b71f0d02689e69e326f4f4c1b9057164ef592671cf0d37c8040c055610658806100436000396000f3fe6080604052600436106100385760003560e01c8063378dfd8e146100bf5780635c60da1b146100e15780639ded06df1461012c5761006f565b3661006f576040517f3733483400000000000000000000000000000000000000000000000000000000815260040160405180910390fd5b60006100997f360894a13ba1a3210667c828492db98dca3e2076cc3735a920a3ca505d382bbc5490565b90503660008037600080366000845af43d6000803e8080156100ba573d6000f35b3d6000fd5b3480156100cb57600080fd5b506100df6100da366004610446565b61014b565b005b3480156100ed57600080fd5b507f360894a13ba1a3210667c828492db98dca3e2076cc3735a920a3ca505d382bbc546040516001600160a01b03909116815260200160405180910390f35b34801561013857600080fd5b506100df610147366004610518565b5050565b7f02016836a56b71f0d02689e69e326f4f4c1b9057164ef592671cf0d37c8040c054336001600160a01b038216146101af576040517f30cd747100000000000000000000000000000000000000000000000000000000815260040160405180910390fd5b60006101d97f360894a13ba1a3210667c828492db98dca3e2076cc3735a920a3ca505d382bbc5490565b6001600160a01b031614610219576040517f0dc149f000000000000000000000000000000000000000000000000000000000815260040160405180910390fd5b6000846001600160a01b0316638291286c6040518163ffffffff1660e01b815260040160206040518083038186803b15801561025457600080fd5b505afa158015610268573d6000803e3d6000fd5b505050506040513d601f19601f8201168201806040525081019061028c919061058a565b146102c3576040517f68155f9a00000000000000000000000000000000000000000000000000000000815260040160405180910390fd5b837f360894a13ba1a3210667c828492db98dca3e2076cc3735a920a3ca505d382bbc55827f02016836a56b71f0d02689e69e326f4f4c1b9057164ef592671cf0d37c8040c0556000846001600160a01b0316639ded06df8460405160240161032b91906105d3565b6040516020818303038152906040529060e01b6020820180517bffffffffffffffffffffffffffffffffffffffffffffffffffffffff83818316178352505050506040516103799190610606565b600060405180830381855af49150503d80600081146103b4576040519150601f19603f3d011682016040523d82523d6000602084013e6103b9565b606091505b50509050806103f4576040517f97905dfb00000000000000000000000000000000000000000000000000000000815260040160405180910390fd5b5050505050565b80356001600160a01b038116811461041257600080fd5b919050565b7f4e487b7100000000000000000000000000000000000000000000000000000000600052604160045260246000fd5b60008060006060848603121561045b57600080fd5b610464846103fb565b9250610472602085016103fb565b9150604084013567ffffffffffffffff8082111561048f57600080fd5b818601915086601f8301126104a357600080fd5b8135818111156104b5576104b5610417565b604051601f8201601f19908116603f011681019083821181831017156104dd576104dd610417565b816040528281528960208487010111156104f657600080fd5b8260208601602083013760006020848301015280955050505050509250925092565b6000806020838503121561052b57600080fd5b823567ffffffffffffffff8082111561054357600080fd5b818501915085601f83011261055757600080fd5b81358181111561056657600080fd5b86602082850101111561057857600080fd5b60209290920196919550909350505050565b60006020828403121561059c57600080fd5b5051919050565b60005b838110156105be5781810151838201526020016105a6565b838111156105cd576000848401525b50505050565b60208152600082518060208401526105f28160408501602087016105a3565b601f01601f19169190910160400192915050565b600082516106188184602087016105a3565b919091019291505056fea2646970667358221220f77d06bae4cbd25746f7c4cdc696db888684d20a0f35dadaa25576ee374de77364736f6c63430008090033",
  "linkReferences": {},
  "deployedLinkReferences": {}
}