{
  "_format": "hh-sol-artifact-1",
  "contractName": "Proxy",
  "sourceName": "@axelar-network/axelar-cgp-solidity/contracts/util/Proxy.sol",
  "abi": [
    {
      "inputs": [
        {
          "internalType": "address",
          "name": "implementationAddress",
          "type": "address"
        },
        {
          "internalType": "bytes",
          "name": "params",
          "type": "bytes"
        }
      ],
      "stateMutability": "nonpayable",
      "type": "constructor"
    },
    {
      "inputs": [],
      "name": "EtherNotAccepted",
      "type": "error"
    },
    {
      "inputs": [],
      "name": "InvalidImplementation",
      "type": "error"
    },
    {
      "inputs": [],
      "name": "SetupFailed",
      "type": "error"
    },
    {
      "stateMutability": "payable",
      "type": "fallback"
    },
    {
      "inputs": [],
      "name": "implementation",
      "outputs": [
        {
          "internalType": "address",
          "name": "implementation_",
          "type": "address"
        }
      ],
      "stateMutability": "view",
      "type": "function"
    },
    {
      "inputs": [
        {
          "internalType": "bytes",
          "name": "data",
          "type": "bytes"
        }
      ],
      "name": "setup",
      "outputs": [],
      "stateMutability": "nonpayable",
      "type": "function"
    },
    {
      "stateMutability": "payable",
      "type": "receive"
    }
  ],
  "bytecode": "0x608060405234801561001057600080fd5b5060405161048138038061048183398101604081905261002f91610180565b817f360894a13ba1a3210667c828492db98dca3e2076cc3735a920a3ca505d382bbc55337f02016836a56b71f0d02689e69e326f4f4c1b9057164ef592671cf0d37c8040c0556000826001600160a01b0316639ded06df83604051602401610097919061024e565b6040516020818303038152906040529060e01b6020820180516001600160e01b0383818316178352505050506040516100d09190610281565b600060405180830381855af49150503d806000811461010b576040519150601f19603f3d011682016040523d82523d6000602084013e610110565b606091505b5050905080610132576040516397905dfb60e01b815260040160405180910390fd5b50505061029d565b634e487b7160e01b600052604160045260246000fd5b60005b8381101561016b578181015183820152602001610153565b8381111561017a576000848401525b50505050565b6000806040838503121561019357600080fd5b82516001600160a01b03811681146101aa57600080fd5b60208401519092506001600160401b03808211156101c757600080fd5b818501915085601f8301126101db57600080fd5b8151818111156101ed576101ed61013a565b604051601f8201601f19908116603f011681019083821181831017156102155761021561013a565b8160405282815288602084870101111561022e57600080fd5b61023f836020830160208801610150565b80955050505050509250929050565b602081526000825180602084015261026d816040850160208701610150565b601f01601f19169190910160400192915050565b60008251610293818460208701610150565b9190910192915050565b6101d5806102ac6000396000f3fe60806040526004361061002d5760003560e01c80635c60da1b146100b45780639ded06df1461010c57610064565b36610064576040517f3733483400000000000000000000000000000000000000000000000000000000815260040160405180910390fd5b600061008e7f360894a13ba1a3210667c828492db98dca3e2076cc3735a920a3ca505d382bbc5490565b90503660008037600080366000845af43d6000803e8080156100af573d6000f35b3d6000fd5b3480156100c057600080fd5b507f360894a13ba1a3210667c828492db98dca3e2076cc3735a920a3ca505d382bbc5460405173ffffffffffffffffffffffffffffffffffffffff909116815260200160405180910390f35b34801561011857600080fd5b5061012b61012736600461012d565b5050565b005b6000806020838503121561014057600080fd5b823567ffffffffffffffff8082111561015857600080fd5b818501915085601f83011261016c57600080fd5b81358181111561017b57600080fd5b86602082850101111561018d57600080fd5b6020929092019691955090935050505056fea264697066735822122003ed79fc7504e8100bd273d31dd8dada1c0185fdd9aa3470c7317725fbd18cc164736f6c63430008090033",
  "linkReferences": {},
  "deployedLinkReferences": {}
}